{
	"contracts/1_Storage.sol": {
		"Storage": {
			"abi": [
				{
					"inputs": [
						{
							"internalType": "uint256",
							"name": "",
							"type": "uint256"
						}
					],
					"name": "address_book",
					"outputs": [
						{
							"internalType": "address",
							"name": "addr",
							"type": "address"
						},
						{
							"internalType": "string",
							"name": "data",
							"type": "string"
						}
					],
					"stateMutability": "view",
					"type": "function"
				},
				{
					"inputs": [
						{
							"internalType": "string",
							"name": "_text",
							"type": "string"
						}
					],
					"name": "push",
					"outputs": [],
					"stateMutability": "nonpayable",
					"type": "function"
				}
			],
			"devdoc": {
				"custom:dev-run-script": "./scripts/deploy_with_ethers.ts",
				"details": "Store & retrieve value in a variable",
				"kind": "dev",
				"methods": {},
				"title": "Storage",
				"version": 1
			},
			"evm": {
				"assembly": "    /* \"contracts/1_Storage.sol\":199:644  contract Storage {... */\n  mstore(0x40, 0x80)\n  callvalue\n  dup1\n  iszero\n  tag_1\n  jumpi\n  0x00\n  dup1\n  revert\ntag_1:\n  pop\n  dataSize(sub_0)\n  dup1\n  dataOffset(sub_0)\n  0x00\n  codecopy\n  0x00\n  return\nstop\n\nsub_0: assembly {\n        /* \"contracts/1_Storage.sol\":199:644  contract Storage {... */\n      mstore(0x40, 0x80)\n      callvalue\n      dup1\n      iszero\n      tag_1\n      jumpi\n      0x00\n      dup1\n      revert\n    tag_1:\n      pop\n      jumpi(tag_2, lt(calldatasize, 0x04))\n      shr(0xe0, calldataload(0x00))\n      dup1\n      0x4f3d057a\n      eq\n      tag_3\n      jumpi\n      dup1\n      0xb1429303\n      eq\n      tag_4\n      jumpi\n    tag_2:\n      0x00\n      dup1\n      revert\n        /* \"contracts/1_Storage.sol\":345:526  function push(string memory _text) external {... */\n    tag_3:\n      tag_5\n      0x04\n      dup1\n      calldatasize\n      sub\n      dup2\n      add\n      swap1\n      tag_6\n      swap2\n      swap1\n      tag_7\n      jump\t// in\n    tag_6:\n      tag_8\n      jump\t// in\n    tag_5:\n      stop\n        /* \"contracts/1_Storage.sol\":303:337  Address_book[] public address_book */\n    tag_4:\n      tag_9\n      0x04\n      dup1\n      calldatasize\n      sub\n      dup2\n      add\n      swap1\n      tag_10\n      swap2\n      swap1\n      tag_11\n      jump\t// in\n    tag_10:\n      tag_12\n      jump\t// in\n    tag_9:\n      mload(0x40)\n      tag_13\n      swap3\n      swap2\n      swap1\n      tag_14\n      jump\t// in\n    tag_13:\n      mload(0x40)\n      dup1\n      swap2\n      sub\n      swap1\n      return\n        /* \"contracts/1_Storage.sol\":345:526  function push(string memory _text) external {... */\n    tag_8:\n        /* \"contracts/1_Storage.sol\":399:424  Address_book memory entry */\n      tag_16\n      tag_17\n      jump\t// in\n    tag_16:\n        /* \"contracts/1_Storage.sol\":447:457  msg.sender */\n      caller\n        /* \"contracts/1_Storage.sol\":434:439  entry */\n      dup2\n        /* \"contracts/1_Storage.sol\":434:444  entry.addr */\n      0x00\n      add\n        /* \"contracts/1_Storage.sol\":434:457  entry.addr = msg.sender */\n      swap1\n      0xffffffffffffffffffffffffffffffffffffffff\n      and\n      swap1\n      dup2\n      0xffffffffffffffffffffffffffffffffffffffff\n      and\n      dup2\n      mstore\n      pop\n      pop\n        /* \"contracts/1_Storage.sol\":480:485  _text */\n      dup2\n        /* \"contracts/1_Storage.sol\":467:472  entry */\n      dup2\n        /* \"contracts/1_Storage.sol\":467:477  entry.data */\n      0x20\n      add\n        /* \"contracts/1_Storage.sol\":467:485  entry.data = _text */\n      dup2\n      swap1\n      mstore\n      pop\n        /* \"contracts/1_Storage.sol\":495:507  address_book */\n      0x00\n        /* \"contracts/1_Storage.sol\":513:518  entry */\n      dup2\n        /* \"contracts/1_Storage.sol\":495:519  address_book.push(entry) */\n      swap1\n      dup1\n      0x01\n      dup2\n      sload\n      add\n      dup1\n      dup3\n      sstore\n      dup1\n      swap2\n      pop\n      pop\n      0x01\n      swap1\n      sub\n      swap1\n      0x00\n      mstore\n      keccak256(0x00, 0x20)\n      swap1\n      0x02\n      mul\n      add\n      0x00\n      swap1\n      swap2\n      swap1\n      swap2\n      swap1\n      swap2\n      pop\n      0x00\n      dup3\n      add\n      mload\n      dup2\n      0x00\n      add\n      exp(0x0100, 0x00)\n      dup2\n      sload\n      dup2\n      0xffffffffffffffffffffffffffffffffffffffff\n      mul\n      not\n      and\n      swap1\n      dup4\n      0xffffffffffffffffffffffffffffffffffffffff\n      and\n      mul\n      or\n      swap1\n      sstore\n      pop\n      0x20\n      dup3\n      add\n      mload\n      dup2\n      0x01\n      add\n      swap1\n      dup1\n      mload\n      swap1\n      0x20\n      add\n      swap1\n      tag_19\n      swap3\n      swap2\n      swap1\n      tag_20\n      jump\t// in\n    tag_19:\n      pop\n      pop\n      pop\n        /* \"contracts/1_Storage.sol\":389:526  {... */\n      pop\n        /* \"contracts/1_Storage.sol\":345:526  function push(string memory _text) external {... */\n      pop\n      jump\t// out\n        /* \"contracts/1_Storage.sol\":303:337  Address_book[] public address_book */\n    tag_12:\n      0x00\n      dup2\n      dup2\n      sload\n      dup2\n      lt\n      tag_21\n      jumpi\n      0x00\n      dup1\n      revert\n    tag_21:\n      swap1\n      0x00\n      mstore\n      keccak256(0x00, 0x20)\n      swap1\n      0x02\n      mul\n      add\n      0x00\n      swap2\n      pop\n      swap1\n      pop\n      dup1\n      0x00\n      add\n      0x00\n      swap1\n      sload\n      swap1\n      0x0100\n      exp\n      swap1\n      div\n      0xffffffffffffffffffffffffffffffffffffffff\n      and\n      swap1\n      dup1\n      0x01\n      add\n      dup1\n      sload\n      tag_23\n      swap1\n      tag_24\n      jump\t// in\n    tag_23:\n      dup1\n      0x1f\n      add\n      0x20\n      dup1\n      swap2\n      div\n      mul\n      0x20\n      add\n      mload(0x40)\n      swap1\n      dup2\n      add\n      0x40\n      mstore\n      dup1\n      swap3\n      swap2\n      swap1\n      dup2\n      dup2\n      mstore\n      0x20\n      add\n      dup3\n      dup1\n      sload\n      tag_25\n      swap1\n      tag_24\n      jump\t// in\n    tag_25:\n      dup1\n      iszero\n      tag_26\n      jumpi\n      dup1\n      0x1f\n      lt\n      tag_27\n      jumpi\n      0x0100\n      dup1\n      dup4\n      sload\n      div\n      mul\n      dup4\n      mstore\n      swap2\n      0x20\n      add\n      swap2\n      jump(tag_26)\n    tag_27:\n      dup3\n      add\n      swap2\n      swap1\n      0x00\n      mstore\n      keccak256(0x00, 0x20)\n      swap1\n    tag_28:\n      dup2\n      sload\n      dup2\n      mstore\n      swap1\n      0x01\n      add\n      swap1\n      0x20\n      add\n      dup1\n      dup4\n      gt\n      tag_28\n      jumpi\n      dup3\n      swap1\n      sub\n      0x1f\n      and\n      dup3\n      add\n      swap2\n    tag_26:\n      pop\n      pop\n      pop\n      pop\n      pop\n      swap1\n      pop\n      dup3\n      jump\t// out\n    tag_17:\n      mload(0x40)\n      dup1\n      0x40\n      add\n      0x40\n      mstore\n      dup1\n      and(0xffffffffffffffffffffffffffffffffffffffff, 0x00)\n      dup2\n      mstore\n      0x20\n      add\n      0x60\n      dup2\n      mstore\n      pop\n      swap1\n      jump\t// out\n    tag_20:\n      dup3\n      dup1\n      sload\n      tag_29\n      swap1\n      tag_24\n      jump\t// in\n    tag_29:\n      swap1\n      0x00\n      mstore\n      keccak256(0x00, 0x20)\n      swap1\n      0x1f\n      add\n      0x20\n      swap1\n      div\n      dup2\n      add\n      swap3\n      dup3\n      tag_31\n      jumpi\n      0x00\n      dup6\n      sstore\n      jump(tag_30)\n    tag_31:\n      dup3\n      0x1f\n      lt\n      tag_32\n      jumpi\n      dup1\n      mload\n      not(0xff)\n      and\n      dup4\n      dup1\n      add\n      or\n      dup6\n      sstore\n      jump(tag_30)\n    tag_32:\n      dup3\n      dup1\n      add\n      0x01\n      add\n      dup6\n      sstore\n      dup3\n      iszero\n      tag_30\n      jumpi\n      swap2\n      dup3\n      add\n    tag_33:\n      dup3\n      dup2\n      gt\n      iszero\n      tag_34\n      jumpi\n      dup3\n      mload\n      dup3\n      sstore\n      swap2\n      0x20\n      add\n      swap2\n      swap1\n      0x01\n      add\n      swap1\n      jump(tag_33)\n    tag_34:\n    tag_30:\n      pop\n      swap1\n      pop\n      tag_35\n      swap2\n      swap1\n      tag_36\n      jump\t// in\n    tag_35:\n      pop\n      swap1\n      jump\t// out\n    tag_36:\n    tag_37:\n      dup1\n      dup3\n      gt\n      iszero\n      tag_38\n      jumpi\n      0x00\n      dup2\n      0x00\n      swap1\n      sstore\n      pop\n      0x01\n      add\n      jump(tag_37)\n    tag_38:\n      pop\n      swap1\n      jump\t// out\n        /* \"#utility.yul\":7:419   */\n    tag_40:\n        /* \"#utility.yul\":85:90   */\n      0x00\n        /* \"#utility.yul\":110:176   */\n      tag_42\n        /* \"#utility.yul\":126:175   */\n      tag_43\n        /* \"#utility.yul\":168:174   */\n      dup5\n        /* \"#utility.yul\":126:175   */\n      tag_44\n      jump\t// in\n    tag_43:\n        /* \"#utility.yul\":110:176   */\n      tag_45\n      jump\t// in\n    tag_42:\n        /* \"#utility.yul\":101:176   */\n      swap1\n      pop\n        /* \"#utility.yul\":199:205   */\n      dup3\n        /* \"#utility.yul\":192:197   */\n      dup2\n        /* \"#utility.yul\":185:206   */\n      mstore\n        /* \"#utility.yul\":237:241   */\n      0x20\n        /* \"#utility.yul\":230:235   */\n      dup2\n        /* \"#utility.yul\":226:242   */\n      add\n        /* \"#utility.yul\":275:278   */\n      dup5\n        /* \"#utility.yul\":266:272   */\n      dup5\n        /* \"#utility.yul\":261:264   */\n      dup5\n        /* \"#utility.yul\":257:273   */\n      add\n        /* \"#utility.yul\":254:279   */\n      gt\n        /* \"#utility.yul\":251:363   */\n      iszero\n      tag_46\n      jumpi\n        /* \"#utility.yul\":282:361   */\n      tag_47\n      tag_48\n      jump\t// in\n    tag_47:\n        /* \"#utility.yul\":251:363   */\n    tag_46:\n        /* \"#utility.yul\":372:413   */\n      tag_49\n        /* \"#utility.yul\":406:412   */\n      dup5\n        /* \"#utility.yul\":401:404   */\n      dup3\n        /* \"#utility.yul\":396:399   */\n      dup6\n        /* \"#utility.yul\":372:413   */\n      tag_50\n      jump\t// in\n    tag_49:\n        /* \"#utility.yul\":91:419   */\n      pop\n        /* \"#utility.yul\":7:419   */\n      swap4\n      swap3\n      pop\n      pop\n      pop\n      jump\t// out\n        /* \"#utility.yul\":439:779   */\n    tag_51:\n        /* \"#utility.yul\":495:500   */\n      0x00\n        /* \"#utility.yul\":544:547   */\n      dup3\n        /* \"#utility.yul\":537:541   */\n      0x1f\n        /* \"#utility.yul\":529:535   */\n      dup4\n        /* \"#utility.yul\":525:542   */\n      add\n        /* \"#utility.yul\":521:548   */\n      slt\n        /* \"#utility.yul\":511:633   */\n      tag_53\n      jumpi\n        /* \"#utility.yul\":552:631   */\n      tag_54\n      tag_55\n      jump\t// in\n    tag_54:\n        /* \"#utility.yul\":511:633   */\n    tag_53:\n        /* \"#utility.yul\":669:675   */\n      dup2\n        /* \"#utility.yul\":656:676   */\n      calldataload\n        /* \"#utility.yul\":694:773   */\n      tag_56\n        /* \"#utility.yul\":769:772   */\n      dup5\n        /* \"#utility.yul\":761:767   */\n      dup3\n        /* \"#utility.yul\":754:758   */\n      0x20\n        /* \"#utility.yul\":746:752   */\n      dup7\n        /* \"#utility.yul\":742:759   */\n      add\n        /* \"#utility.yul\":694:773   */\n      tag_40\n      jump\t// in\n    tag_56:\n        /* \"#utility.yul\":685:773   */\n      swap2\n      pop\n        /* \"#utility.yul\":501:779   */\n      pop\n        /* \"#utility.yul\":439:779   */\n      swap3\n      swap2\n      pop\n      pop\n      jump\t// out\n        /* \"#utility.yul\":785:924   */\n    tag_57:\n        /* \"#utility.yul\":831:836   */\n      0x00\n        /* \"#utility.yul\":869:875   */\n      dup2\n        /* \"#utility.yul\":856:876   */\n      calldataload\n        /* \"#utility.yul\":847:876   */\n      swap1\n      pop\n        /* \"#utility.yul\":885:918   */\n      tag_59\n        /* \"#utility.yul\":912:917   */\n      dup2\n        /* \"#utility.yul\":885:918   */\n      tag_60\n      jump\t// in\n    tag_59:\n        /* \"#utility.yul\":785:924   */\n      swap3\n      swap2\n      pop\n      pop\n      jump\t// out\n        /* \"#utility.yul\":930:1439   */\n    tag_7:\n        /* \"#utility.yul\":999:1005   */\n      0x00\n        /* \"#utility.yul\":1048:1050   */\n      0x20\n        /* \"#utility.yul\":1036:1045   */\n      dup3\n        /* \"#utility.yul\":1027:1034   */\n      dup5\n        /* \"#utility.yul\":1023:1046   */\n      sub\n        /* \"#utility.yul\":1019:1051   */\n      slt\n        /* \"#utility.yul\":1016:1135   */\n      iszero\n      tag_62\n      jumpi\n        /* \"#utility.yul\":1054:1133   */\n      tag_63\n      tag_64\n      jump\t// in\n    tag_63:\n        /* \"#utility.yul\":1016:1135   */\n    tag_62:\n        /* \"#utility.yul\":1202:1203   */\n      0x00\n        /* \"#utility.yul\":1191:1200   */\n      dup3\n        /* \"#utility.yul\":1187:1204   */\n      add\n        /* \"#utility.yul\":1174:1205   */\n      calldataload\n        /* \"#utility.yul\":1232:1250   */\n      0xffffffffffffffff\n        /* \"#utility.yul\":1224:1230   */\n      dup2\n        /* \"#utility.yul\":1221:1251   */\n      gt\n        /* \"#utility.yul\":1218:1335   */\n      iszero\n      tag_65\n      jumpi\n        /* \"#utility.yul\":1254:1333   */\n      tag_66\n      tag_67\n      jump\t// in\n    tag_66:\n        /* \"#utility.yul\":1218:1335   */\n    tag_65:\n        /* \"#utility.yul\":1359:1422   */\n      tag_68\n        /* \"#utility.yul\":1414:1421   */\n      dup5\n        /* \"#utility.yul\":1405:1411   */\n      dup3\n        /* \"#utility.yul\":1394:1403   */\n      dup6\n        /* \"#utility.yul\":1390:1412   */\n      add\n        /* \"#utility.yul\":1359:1422   */\n      tag_51\n      jump\t// in\n    tag_68:\n        /* \"#utility.yul\":1349:1422   */\n      swap2\n      pop\n        /* \"#utility.yul\":1145:1432   */\n      pop\n        /* \"#utility.yul\":930:1439   */\n      swap3\n      swap2\n      pop\n      pop\n      jump\t// out\n        /* \"#utility.yul\":1445:1774   */\n    tag_11:\n        /* \"#utility.yul\":1504:1510   */\n      0x00\n        /* \"#utility.yul\":1553:1555   */\n      0x20\n        /* \"#utility.yul\":1541:1550   */\n      dup3\n        /* \"#utility.yul\":1532:1539   */\n      dup5\n        /* \"#utility.yul\":1528:1551   */\n      sub\n        /* \"#utility.yul\":1524:1556   */\n      slt\n        /* \"#utility.yul\":1521:1640   */\n      iszero\n      tag_70\n      jumpi\n        /* \"#utility.yul\":1559:1638   */\n      tag_71\n      tag_64\n      jump\t// in\n    tag_71:\n        /* \"#utility.yul\":1521:1640   */\n    tag_70:\n        /* \"#utility.yul\":1679:1680   */\n      0x00\n        /* \"#utility.yul\":1704:1757   */\n      tag_72\n        /* \"#utility.yul\":1749:1756   */\n      dup5\n        /* \"#utility.yul\":1740:1746   */\n      dup3\n        /* \"#utility.yul\":1729:1738   */\n      dup6\n        /* \"#utility.yul\":1725:1747   */\n      add\n        /* \"#utility.yul\":1704:1757   */\n      tag_57\n      jump\t// in\n    tag_72:\n        /* \"#utility.yul\":1694:1757   */\n      swap2\n      pop\n        /* \"#utility.yul\":1650:1767   */\n      pop\n        /* \"#utility.yul\":1445:1774   */\n      swap3\n      swap2\n      pop\n      pop\n      jump\t// out\n        /* \"#utility.yul\":1780:1898   */\n    tag_73:\n        /* \"#utility.yul\":1867:1891   */\n      tag_75\n        /* \"#utility.yul\":1885:1890   */\n      dup2\n        /* \"#utility.yul\":1867:1891   */\n      tag_76\n      jump\t// in\n    tag_75:\n        /* \"#utility.yul\":1862:1865   */\n      dup3\n        /* \"#utility.yul\":1855:1892   */\n      mstore\n        /* \"#utility.yul\":1780:1898   */\n      pop\n      pop\n      jump\t// out\n        /* \"#utility.yul\":1904:2268   */\n    tag_77:\n        /* \"#utility.yul\":1992:1995   */\n      0x00\n        /* \"#utility.yul\":2020:2059   */\n      tag_79\n        /* \"#utility.yul\":2053:2058   */\n      dup3\n        /* \"#utility.yul\":2020:2059   */\n      tag_80\n      jump\t// in\n    tag_79:\n        /* \"#utility.yul\":2075:2146   */\n      tag_81\n        /* \"#utility.yul\":2139:2145   */\n      dup2\n        /* \"#utility.yul\":2134:2137   */\n      dup6\n        /* \"#utility.yul\":2075:2146   */\n      tag_82\n      jump\t// in\n    tag_81:\n        /* \"#utility.yul\":2068:2146   */\n      swap4\n      pop\n        /* \"#utility.yul\":2155:2207   */\n      tag_83\n        /* \"#utility.yul\":2200:2206   */\n      dup2\n        /* \"#utility.yul\":2195:2198   */\n      dup6\n        /* \"#utility.yul\":2188:2192   */\n      0x20\n        /* \"#utility.yul\":2181:2186   */\n      dup7\n        /* \"#utility.yul\":2177:2193   */\n      add\n        /* \"#utility.yul\":2155:2207   */\n      tag_84\n      jump\t// in\n    tag_83:\n        /* \"#utility.yul\":2232:2261   */\n      tag_85\n        /* \"#utility.yul\":2254:2260   */\n      dup2\n        /* \"#utility.yul\":2232:2261   */\n      tag_86\n      jump\t// in\n    tag_85:\n        /* \"#utility.yul\":2227:2230   */\n      dup5\n        /* \"#utility.yul\":2223:2262   */\n      add\n        /* \"#utility.yul\":2216:2262   */\n      swap2\n      pop\n        /* \"#utility.yul\":1996:2268   */\n      pop\n        /* \"#utility.yul\":1904:2268   */\n      swap3\n      swap2\n      pop\n      pop\n      jump\t// out\n        /* \"#utility.yul\":2274:2697   */\n    tag_14:\n        /* \"#utility.yul\":2415:2419   */\n      0x00\n        /* \"#utility.yul\":2453:2455   */\n      0x40\n        /* \"#utility.yul\":2442:2451   */\n      dup3\n        /* \"#utility.yul\":2438:2456   */\n      add\n        /* \"#utility.yul\":2430:2456   */\n      swap1\n      pop\n        /* \"#utility.yul\":2466:2537   */\n      tag_88\n        /* \"#utility.yul\":2534:2535   */\n      0x00\n        /* \"#utility.yul\":2523:2532   */\n      dup4\n        /* \"#utility.yul\":2519:2536   */\n      add\n        /* \"#utility.yul\":2510:2516   */\n      dup6\n        /* \"#utility.yul\":2466:2537   */\n      tag_73\n      jump\t// in\n    tag_88:\n        /* \"#utility.yul\":2584:2593   */\n      dup2\n        /* \"#utility.yul\":2578:2582   */\n      dup2\n        /* \"#utility.yul\":2574:2594   */\n      sub\n        /* \"#utility.yul\":2569:2571   */\n      0x20\n        /* \"#utility.yul\":2558:2567   */\n      dup4\n        /* \"#utility.yul\":2554:2572   */\n      add\n        /* \"#utility.yul\":2547:2595   */\n      mstore\n        /* \"#utility.yul\":2612:2690   */\n      tag_89\n        /* \"#utility.yul\":2685:2689   */\n      dup2\n        /* \"#utility.yul\":2676:2682   */\n      dup5\n        /* \"#utility.yul\":2612:2690   */\n      tag_77\n      jump\t// in\n    tag_89:\n        /* \"#utility.yul\":2604:2690   */\n      swap1\n      pop\n        /* \"#utility.yul\":2274:2697   */\n      swap4\n      swap3\n      pop\n      pop\n      pop\n      jump\t// out\n        /* \"#utility.yul\":2703:2832   */\n    tag_45:\n        /* \"#utility.yul\":2737:2743   */\n      0x00\n        /* \"#utility.yul\":2764:2784   */\n      tag_91\n      tag_92\n      jump\t// in\n    tag_91:\n        /* \"#utility.yul\":2754:2784   */\n      swap1\n      pop\n        /* \"#utility.yul\":2793:2826   */\n      tag_93\n        /* \"#utility.yul\":2821:2825   */\n      dup3\n        /* \"#utility.yul\":2813:2819   */\n      dup3\n        /* \"#utility.yul\":2793:2826   */\n      tag_94\n      jump\t// in\n    tag_93:\n        /* \"#utility.yul\":2703:2832   */\n      swap2\n      swap1\n      pop\n      jump\t// out\n        /* \"#utility.yul\":2838:2913   */\n    tag_92:\n        /* \"#utility.yul\":2871:2877   */\n      0x00\n        /* \"#utility.yul\":2904:2906   */\n      0x40\n        /* \"#utility.yul\":2898:2907   */\n      mload\n        /* \"#utility.yul\":2888:2907   */\n      swap1\n      pop\n        /* \"#utility.yul\":2838:2913   */\n      swap1\n      jump\t// out\n        /* \"#utility.yul\":2919:3227   */\n    tag_44:\n        /* \"#utility.yul\":2981:2985   */\n      0x00\n        /* \"#utility.yul\":3071:3089   */\n      0xffffffffffffffff\n        /* \"#utility.yul\":3063:3069   */\n      dup3\n        /* \"#utility.yul\":3060:3090   */\n      gt\n        /* \"#utility.yul\":3057:3113   */\n      iszero\n      tag_97\n      jumpi\n        /* \"#utility.yul\":3093:3111   */\n      tag_98\n      tag_99\n      jump\t// in\n    tag_98:\n        /* \"#utility.yul\":3057:3113   */\n    tag_97:\n        /* \"#utility.yul\":3131:3160   */\n      tag_100\n        /* \"#utility.yul\":3153:3159   */\n      dup3\n        /* \"#utility.yul\":3131:3160   */\n      tag_86\n      jump\t// in\n    tag_100:\n        /* \"#utility.yul\":3123:3160   */\n      swap1\n      pop\n        /* \"#utility.yul\":3215:3219   */\n      0x20\n        /* \"#utility.yul\":3209:3213   */\n      dup2\n        /* \"#utility.yul\":3205:3220   */\n      add\n        /* \"#utility.yul\":3197:3220   */\n      swap1\n      pop\n        /* \"#utility.yul\":2919:3227   */\n      swap2\n      swap1\n      pop\n      jump\t// out\n        /* \"#utility.yul\":3233:3332   */\n    tag_80:\n        /* \"#utility.yul\":3285:3291   */\n      0x00\n        /* \"#utility.yul\":3319:3324   */\n      dup2\n        /* \"#utility.yul\":3313:3325   */\n      mload\n        /* \"#utility.yul\":3303:3325   */\n      swap1\n      pop\n        /* \"#utility.yul\":3233:3332   */\n      swap2\n      swap1\n      pop\n      jump\t// out\n        /* \"#utility.yul\":3338:3507   */\n    tag_82:\n        /* \"#utility.yul\":3422:3433   */\n      0x00\n        /* \"#utility.yul\":3456:3462   */\n      dup3\n        /* \"#utility.yul\":3451:3454   */\n      dup3\n        /* \"#utility.yul\":3444:3463   */\n      mstore\n        /* \"#utility.yul\":3496:3500   */\n      0x20\n        /* \"#utility.yul\":3491:3494   */\n      dup3\n        /* \"#utility.yul\":3487:3501   */\n      add\n        /* \"#utility.yul\":3472:3501   */\n      swap1\n      pop\n        /* \"#utility.yul\":3338:3507   */\n      swap3\n      swap2\n      pop\n      pop\n      jump\t// out\n        /* \"#utility.yul\":3513:3609   */\n    tag_76:\n        /* \"#utility.yul\":3550:3557   */\n      0x00\n        /* \"#utility.yul\":3579:3603   */\n      tag_104\n        /* \"#utility.yul\":3597:3602   */\n      dup3\n        /* \"#utility.yul\":3579:3603   */\n      tag_105\n      jump\t// in\n    tag_104:\n        /* \"#utility.yul\":3568:3603   */\n      swap1\n      pop\n        /* \"#utility.yul\":3513:3609   */\n      swap2\n      swap1\n      pop\n      jump\t// out\n        /* \"#utility.yul\":3615:3741   */\n    tag_105:\n        /* \"#utility.yul\":3652:3659   */\n      0x00\n        /* \"#utility.yul\":3692:3734   */\n      0xffffffffffffffffffffffffffffffffffffffff\n        /* \"#utility.yul\":3685:3690   */\n      dup3\n        /* \"#utility.yul\":3681:3735   */\n      and\n        /* \"#utility.yul\":3670:3735   */\n      swap1\n      pop\n        /* \"#utility.yul\":3615:3741   */\n      swap2\n      swap1\n      pop\n      jump\t// out\n        /* \"#utility.yul\":3747:3824   */\n    tag_107:\n        /* \"#utility.yul\":3784:3791   */\n      0x00\n        /* \"#utility.yul\":3813:3818   */\n      dup2\n        /* \"#utility.yul\":3802:3818   */\n      swap1\n      pop\n        /* \"#utility.yul\":3747:3824   */\n      swap2\n      swap1\n      pop\n      jump\t// out\n        /* \"#utility.yul\":3830:3984   */\n    tag_50:\n        /* \"#utility.yul\":3914:3920   */\n      dup3\n        /* \"#utility.yul\":3909:3912   */\n      dup2\n        /* \"#utility.yul\":3904:3907   */\n      dup4\n        /* \"#utility.yul\":3891:3921   */\n      calldatacopy\n        /* \"#utility.yul\":3976:3977   */\n      0x00\n        /* \"#utility.yul\":3967:3973   */\n      dup4\n        /* \"#utility.yul\":3962:3965   */\n      dup4\n        /* \"#utility.yul\":3958:3974   */\n      add\n        /* \"#utility.yul\":3951:3978   */\n      mstore\n        /* \"#utility.yul\":3830:3984   */\n      pop\n      pop\n      pop\n      jump\t// out\n        /* \"#utility.yul\":3990:4297   */\n    tag_84:\n        /* \"#utility.yul\":4058:4059   */\n      0x00\n        /* \"#utility.yul\":4068:4181   */\n    tag_111:\n        /* \"#utility.yul\":4082:4088   */\n      dup4\n        /* \"#utility.yul\":4079:4080   */\n      dup2\n        /* \"#utility.yul\":4076:4089   */\n      lt\n        /* \"#utility.yul\":4068:4181   */\n      iszero\n      tag_113\n      jumpi\n        /* \"#utility.yul\":4167:4168   */\n      dup1\n        /* \"#utility.yul\":4162:4165   */\n      dup3\n        /* \"#utility.yul\":4158:4169   */\n      add\n        /* \"#utility.yul\":4152:4170   */\n      mload\n        /* \"#utility.yul\":4148:4149   */\n      dup2\n        /* \"#utility.yul\":4143:4146   */\n      dup5\n        /* \"#utility.yul\":4139:4150   */\n      add\n        /* \"#utility.yul\":4132:4171   */\n      mstore\n        /* \"#utility.yul\":4104:4106   */\n      0x20\n        /* \"#utility.yul\":4101:4102   */\n      dup2\n        /* \"#utility.yul\":4097:4107   */\n      add\n        /* \"#utility.yul\":4092:4107   */\n      swap1\n      pop\n        /* \"#utility.yul\":4068:4181   */\n      jump(tag_111)\n    tag_113:\n        /* \"#utility.yul\":4199:4205   */\n      dup4\n        /* \"#utility.yul\":4196:4197   */\n      dup2\n        /* \"#utility.yul\":4193:4206   */\n      gt\n        /* \"#utility.yul\":4190:4291   */\n      iszero\n      tag_114\n      jumpi\n        /* \"#utility.yul\":4279:4280   */\n      0x00\n        /* \"#utility.yul\":4270:4276   */\n      dup5\n        /* \"#utility.yul\":4265:4268   */\n      dup5\n        /* \"#utility.yul\":4261:4277   */\n      add\n        /* \"#utility.yul\":4254:4281   */\n      mstore\n        /* \"#utility.yul\":4190:4291   */\n    tag_114:\n        /* \"#utility.yul\":4039:4297   */\n      pop\n        /* \"#utility.yul\":3990:4297   */\n      pop\n      pop\n      pop\n      jump\t// out\n        /* \"#utility.yul\":4303:4623   */\n    tag_24:\n        /* \"#utility.yul\":4347:4353   */\n      0x00\n        /* \"#utility.yul\":4384:4385   */\n      0x02\n        /* \"#utility.yul\":4378:4382   */\n      dup3\n        /* \"#utility.yul\":4374:4386   */\n      div\n        /* \"#utility.yul\":4364:4386   */\n      swap1\n      pop\n        /* \"#utility.yul\":4431:4432   */\n      0x01\n        /* \"#utility.yul\":4425:4429   */\n      dup3\n        /* \"#utility.yul\":4421:4433   */\n      and\n        /* \"#utility.yul\":4452:4470   */\n      dup1\n        /* \"#utility.yul\":4442:4523   */\n      tag_116\n      jumpi\n        /* \"#utility.yul\":4508:4512   */\n      0x7f\n        /* \"#utility.yul\":4500:4506   */\n      dup3\n        /* \"#utility.yul\":4496:4513   */\n      and\n        /* \"#utility.yul\":4486:4513   */\n      swap2\n      pop\n        /* \"#utility.yul\":4442:4523   */\n    tag_116:\n        /* \"#utility.yul\":4570:4572   */\n      0x20\n        /* \"#utility.yul\":4562:4568   */\n      dup3\n        /* \"#utility.yul\":4559:4573   */\n      lt\n        /* \"#utility.yul\":4539:4557   */\n      dup2\n        /* \"#utility.yul\":4536:4574   */\n      eq\n        /* \"#utility.yul\":4533:4617   */\n      iszero\n      tag_117\n      jumpi\n        /* \"#utility.yul\":4589:4607   */\n      tag_118\n      tag_119\n      jump\t// in\n    tag_118:\n        /* \"#utility.yul\":4533:4617   */\n    tag_117:\n        /* \"#utility.yul\":4354:4623   */\n      pop\n        /* \"#utility.yul\":4303:4623   */\n      swap2\n      swap1\n      pop\n      jump\t// out\n        /* \"#utility.yul\":4629:4910   */\n    tag_94:\n        /* \"#utility.yul\":4712:4739   */\n      tag_121\n        /* \"#utility.yul\":4734:4738   */\n      dup3\n        /* \"#utility.yul\":4712:4739   */\n      tag_86\n      jump\t// in\n    tag_121:\n        /* \"#utility.yul\":4704:4710   */\n      dup2\n        /* \"#utility.yul\":4700:4740   */\n      add\n        /* \"#utility.yul\":4842:4848   */\n      dup2\n        /* \"#utility.yul\":4830:4840   */\n      dup2\n        /* \"#utility.yul\":4827:4849   */\n      lt\n        /* \"#utility.yul\":4806:4824   */\n      0xffffffffffffffff\n        /* \"#utility.yul\":4794:4804   */\n      dup3\n        /* \"#utility.yul\":4791:4825   */\n      gt\n        /* \"#utility.yul\":4788:4850   */\n      or\n        /* \"#utility.yul\":4785:4873   */\n      iszero\n      tag_122\n      jumpi\n        /* \"#utility.yul\":4853:4871   */\n      tag_123\n      tag_99\n      jump\t// in\n    tag_123:\n        /* \"#utility.yul\":4785:4873   */\n    tag_122:\n        /* \"#utility.yul\":4893:4903   */\n      dup1\n        /* \"#utility.yul\":4889:4891   */\n      0x40\n        /* \"#utility.yul\":4882:4904   */\n      mstore\n        /* \"#utility.yul\":4672:4910   */\n      pop\n        /* \"#utility.yul\":4629:4910   */\n      pop\n      pop\n      jump\t// out\n        /* \"#utility.yul\":4916:5096   */\n    tag_119:\n        /* \"#utility.yul\":4964:5041   */\n      0x4e487b7100000000000000000000000000000000000000000000000000000000\n        /* \"#utility.yul\":4961:4962   */\n      0x00\n        /* \"#utility.yul\":4954:5042   */\n      mstore\n        /* \"#utility.yul\":5061:5065   */\n      0x22\n        /* \"#utility.yul\":5058:5059   */\n      0x04\n        /* \"#utility.yul\":5051:5066   */\n      mstore\n        /* \"#utility.yul\":5085:5089   */\n      0x24\n        /* \"#utility.yul\":5082:5083   */\n      0x00\n        /* \"#utility.yul\":5075:5090   */\n      revert\n        /* \"#utility.yul\":5102:5282   */\n    tag_99:\n        /* \"#utility.yul\":5150:5227   */\n      0x4e487b7100000000000000000000000000000000000000000000000000000000\n        /* \"#utility.yul\":5147:5148   */\n      0x00\n        /* \"#utility.yul\":5140:5228   */\n      mstore\n        /* \"#utility.yul\":5247:5251   */\n      0x41\n        /* \"#utility.yul\":5244:5245   */\n      0x04\n        /* \"#utility.yul\":5237:5252   */\n      mstore\n        /* \"#utility.yul\":5271:5275   */\n      0x24\n        /* \"#utility.yul\":5268:5269   */\n      0x00\n        /* \"#utility.yul\":5261:5276   */\n      revert\n        /* \"#utility.yul\":5288:5405   */\n    tag_55:\n        /* \"#utility.yul\":5397:5398   */\n      0x00\n        /* \"#utility.yul\":5394:5395   */\n      dup1\n        /* \"#utility.yul\":5387:5399   */\n      revert\n        /* \"#utility.yul\":5411:5528   */\n    tag_48:\n        /* \"#utility.yul\":5520:5521   */\n      0x00\n        /* \"#utility.yul\":5517:5518   */\n      dup1\n        /* \"#utility.yul\":5510:5522   */\n      revert\n        /* \"#utility.yul\":5534:5651   */\n    tag_67:\n        /* \"#utility.yul\":5643:5644   */\n      0x00\n        /* \"#utility.yul\":5640:5641   */\n      dup1\n        /* \"#utility.yul\":5633:5645   */\n      revert\n        /* \"#utility.yul\":5657:5774   */\n    tag_64:\n        /* \"#utility.yul\":5766:5767   */\n      0x00\n        /* \"#utility.yul\":5763:5764   */\n      dup1\n        /* \"#utility.yul\":5756:5768   */\n      revert\n        /* \"#utility.yul\":5780:5882   */\n    tag_86:\n        /* \"#utility.yul\":5821:5827   */\n      0x00\n        /* \"#utility.yul\":5872:5874   */\n      0x1f\n        /* \"#utility.yul\":5868:5875   */\n      not\n        /* \"#utility.yul\":5863:5865   */\n      0x1f\n        /* \"#utility.yul\":5856:5861   */\n      dup4\n        /* \"#utility.yul\":5852:5866   */\n      add\n        /* \"#utility.yul\":5848:5876   */\n      and\n        /* \"#utility.yul\":5838:5876   */\n      swap1\n      pop\n        /* \"#utility.yul\":5780:5882   */\n      swap2\n      swap1\n      pop\n      jump\t// out\n        /* \"#utility.yul\":5888:6010   */\n    tag_60:\n        /* \"#utility.yul\":5961:5985   */\n      tag_132\n        /* \"#utility.yul\":5979:5984   */\n      dup2\n        /* \"#utility.yul\":5961:5985   */\n      tag_107\n      jump\t// in\n    tag_132:\n        /* \"#utility.yul\":5954:5959   */\n      dup2\n        /* \"#utility.yul\":5951:5986   */\n      eq\n        /* \"#utility.yul\":5941:6004   */\n      tag_133\n      jumpi\n        /* \"#utility.yul\":6000:6001   */\n      0x00\n        /* \"#utility.yul\":5997:5998   */\n      dup1\n        /* \"#utility.yul\":5990:6002   */\n      revert\n        /* \"#utility.yul\":5941:6004   */\n    tag_133:\n        /* \"#utility.yul\":5888:6010   */\n      pop\n      jump\t// out\n\n    auxdata: 0xa264697066735822122023181c8a852f398972bb86d57daddfbc1d1c0a5921f12e62dd86da12181fcb9a64736f6c63430008070033\n}\n",
				"bytecode": {
					"linkReferences": {},
					"object": "608060405234801561001057600080fd5b506106ac806100206000396000f3fe608060405234801561001057600080fd5b50600436106100365760003560e01c80634f3d057a1461003b578063b142930314610057575b600080fd5b6100556004803603810190610050919061039b565b610088565b005b610071600480360381019061006c91906103e4565b610167565b60405161007f929190610459565b60405180910390f35b610090610243565b33816000019073ffffffffffffffffffffffffffffffffffffffff16908173ffffffffffffffffffffffffffffffffffffffff1681525050818160200181905250600081908060018154018082558091505060019003906000526020600020906002020160009091909190915060008201518160000160006101000a81548173ffffffffffffffffffffffffffffffffffffffff021916908373ffffffffffffffffffffffffffffffffffffffff1602179055506020820151816001019080519060200190610160929190610273565b5050505050565b6000818154811061017757600080fd5b90600052602060002090600202016000915090508060000160009054906101000a900473ffffffffffffffffffffffffffffffffffffffff16908060010180546101c090610579565b80601f01602080910402602001604051908101604052809291908181526020018280546101ec90610579565b80156102395780601f1061020e57610100808354040283529160200191610239565b820191906000526020600020905b81548152906001019060200180831161021c57829003601f168201915b5050505050905082565b6040518060400160405280600073ffffffffffffffffffffffffffffffffffffffff168152602001606081525090565b82805461027f90610579565b90600052602060002090601f0160209004810192826102a157600085556102e8565b82601f106102ba57805160ff19168380011785556102e8565b828001600101855582156102e8579182015b828111156102e75782518255916020019190600101906102cc565b5b5090506102f591906102f9565b5090565b5b808211156103125760008160009055506001016102fa565b5090565b6000610329610324846104ae565b610489565b9050828152602081018484840111156103455761034461063f565b5b610350848285610537565b509392505050565b600082601f83011261036d5761036c61063a565b5b813561037d848260208601610316565b91505092915050565b6000813590506103958161065f565b92915050565b6000602082840312156103b1576103b0610649565b5b600082013567ffffffffffffffff8111156103cf576103ce610644565b5b6103db84828501610358565b91505092915050565b6000602082840312156103fa576103f9610649565b5b600061040884828501610386565b91505092915050565b61041a816104fb565b82525050565b600061042b826104df565b61043581856104ea565b9350610445818560208601610546565b61044e8161064e565b840191505092915050565b600060408201905061046e6000830185610411565b81810360208301526104808184610420565b90509392505050565b60006104936104a4565b905061049f82826105ab565b919050565b6000604051905090565b600067ffffffffffffffff8211156104c9576104c861060b565b5b6104d28261064e565b9050602081019050919050565b600081519050919050565b600082825260208201905092915050565b60006105068261050d565b9050919050565b600073ffffffffffffffffffffffffffffffffffffffff82169050919050565b6000819050919050565b82818337600083830152505050565b60005b83811015610564578082015181840152602081019050610549565b83811115610573576000848401525b50505050565b6000600282049050600182168061059157607f821691505b602082108114156105a5576105a46105dc565b5b50919050565b6105b48261064e565b810181811067ffffffffffffffff821117156105d3576105d261060b565b5b80604052505050565b7f4e487b7100000000000000000000000000000000000000000000000000000000600052602260045260246000fd5b7f4e487b7100000000000000000000000000000000000000000000000000000000600052604160045260246000fd5b600080fd5b600080fd5b600080fd5b600080fd5b6000601f19601f8301169050919050565b6106688161052d565b811461067357600080fd5b5056fea264697066735822122023181c8a852f398972bb86d57daddfbc1d1c0a5921f12e62dd86da12181fcb9a64736f6c63430008070033",
					"opcodes": "PUSH1 0x80 PUSH1 0x40 MSTORE CALLVALUE DUP1 ISZERO PUSH2 0x10 JUMPI PUSH1 0x0 DUP1 REVERT JUMPDEST POP PUSH2 0x6AC DUP1 PUSH2 0x20 PUSH1 0x0 CODECOPY PUSH1 0x0 RETURN INVALID PUSH1 0x80 PUSH1 0x40 MSTORE CALLVALUE DUP1 ISZERO PUSH2 0x10 JUMPI PUSH1 0x0 DUP1 REVERT JUMPDEST POP PUSH1 0x4 CALLDATASIZE LT PUSH2 0x36 JUMPI PUSH1 0x0 CALLDATALOAD PUSH1 0xE0 SHR DUP1 PUSH4 0x4F3D057A EQ PUSH2 0x3B JUMPI DUP1 PUSH4 0xB1429303 EQ PUSH2 0x57 JUMPI JUMPDEST PUSH1 0x0 DUP1 REVERT JUMPDEST PUSH2 0x55 PUSH1 0x4 DUP1 CALLDATASIZE SUB DUP2 ADD SWAP1 PUSH2 0x50 SWAP2 SWAP1 PUSH2 0x39B JUMP JUMPDEST PUSH2 0x88 JUMP JUMPDEST STOP JUMPDEST PUSH2 0x71 PUSH1 0x4 DUP1 CALLDATASIZE SUB DUP2 ADD SWAP1 PUSH2 0x6C SWAP2 SWAP1 PUSH2 0x3E4 JUMP JUMPDEST PUSH2 0x167 JUMP JUMPDEST PUSH1 0x40 MLOAD PUSH2 0x7F SWAP3 SWAP2 SWAP1 PUSH2 0x459 JUMP JUMPDEST PUSH1 0x40 MLOAD DUP1 SWAP2 SUB SWAP1 RETURN JUMPDEST PUSH2 0x90 PUSH2 0x243 JUMP JUMPDEST CALLER DUP2 PUSH1 0x0 ADD SWAP1 PUSH20 0xFFFFFFFFFFFFFFFFFFFFFFFFFFFFFFFFFFFFFFFF AND SWAP1 DUP2 PUSH20 0xFFFFFFFFFFFFFFFFFFFFFFFFFFFFFFFFFFFFFFFF AND DUP2 MSTORE POP POP DUP2 DUP2 PUSH1 0x20 ADD DUP2 SWAP1 MSTORE POP PUSH1 0x0 DUP2 SWAP1 DUP1 PUSH1 0x1 DUP2 SLOAD ADD DUP1 DUP3 SSTORE DUP1 SWAP2 POP POP PUSH1 0x1 SWAP1 SUB SWAP1 PUSH1 0x0 MSTORE PUSH1 0x20 PUSH1 0x0 KECCAK256 SWAP1 PUSH1 0x2 MUL ADD PUSH1 0x0 SWAP1 SWAP2 SWAP1 SWAP2 SWAP1 SWAP2 POP PUSH1 0x0 DUP3 ADD MLOAD DUP2 PUSH1 0x0 ADD PUSH1 0x0 PUSH2 0x100 EXP DUP2 SLOAD DUP2 PUSH20 0xFFFFFFFFFFFFFFFFFFFFFFFFFFFFFFFFFFFFFFFF MUL NOT AND SWAP1 DUP4 PUSH20 0xFFFFFFFFFFFFFFFFFFFFFFFFFFFFFFFFFFFFFFFF AND MUL OR SWAP1 SSTORE POP PUSH1 0x20 DUP3 ADD MLOAD DUP2 PUSH1 0x1 ADD SWAP1 DUP1 MLOAD SWAP1 PUSH1 0x20 ADD SWAP1 PUSH2 0x160 SWAP3 SWAP2 SWAP1 PUSH2 0x273 JUMP JUMPDEST POP POP POP POP POP JUMP JUMPDEST PUSH1 0x0 DUP2 DUP2 SLOAD DUP2 LT PUSH2 0x177 JUMPI PUSH1 0x0 DUP1 REVERT JUMPDEST SWAP1 PUSH1 0x0 MSTORE PUSH1 0x20 PUSH1 0x0 KECCAK256 SWAP1 PUSH1 0x2 MUL ADD PUSH1 0x0 SWAP2 POP SWAP1 POP DUP1 PUSH1 0x0 ADD PUSH1 0x0 SWAP1 SLOAD SWAP1 PUSH2 0x100 EXP SWAP1 DIV PUSH20 0xFFFFFFFFFFFFFFFFFFFFFFFFFFFFFFFFFFFFFFFF AND SWAP1 DUP1 PUSH1 0x1 ADD DUP1 SLOAD PUSH2 0x1C0 SWAP1 PUSH2 0x579 JUMP JUMPDEST DUP1 PUSH1 0x1F ADD PUSH1 0x20 DUP1 SWAP2 DIV MUL PUSH1 0x20 ADD PUSH1 0x40 MLOAD SWAP1 DUP2 ADD PUSH1 0x40 MSTORE DUP1 SWAP3 SWAP2 SWAP1 DUP2 DUP2 MSTORE PUSH1 0x20 ADD DUP3 DUP1 SLOAD PUSH2 0x1EC SWAP1 PUSH2 0x579 JUMP JUMPDEST DUP1 ISZERO PUSH2 0x239 JUMPI DUP1 PUSH1 0x1F LT PUSH2 0x20E JUMPI PUSH2 0x100 DUP1 DUP4 SLOAD DIV MUL DUP4 MSTORE SWAP2 PUSH1 0x20 ADD SWAP2 PUSH2 0x239 JUMP JUMPDEST DUP3 ADD SWAP2 SWAP1 PUSH1 0x0 MSTORE PUSH1 0x20 PUSH1 0x0 KECCAK256 SWAP1 JUMPDEST DUP2 SLOAD DUP2 MSTORE SWAP1 PUSH1 0x1 ADD SWAP1 PUSH1 0x20 ADD DUP1 DUP4 GT PUSH2 0x21C JUMPI DUP3 SWAP1 SUB PUSH1 0x1F AND DUP3 ADD SWAP2 JUMPDEST POP POP POP POP POP SWAP1 POP DUP3 JUMP JUMPDEST PUSH1 0x40 MLOAD DUP1 PUSH1 0x40 ADD PUSH1 0x40 MSTORE DUP1 PUSH1 0x0 PUSH20 0xFFFFFFFFFFFFFFFFFFFFFFFFFFFFFFFFFFFFFFFF AND DUP2 MSTORE PUSH1 0x20 ADD PUSH1 0x60 DUP2 MSTORE POP SWAP1 JUMP JUMPDEST DUP3 DUP1 SLOAD PUSH2 0x27F SWAP1 PUSH2 0x579 JUMP JUMPDEST SWAP1 PUSH1 0x0 MSTORE PUSH1 0x20 PUSH1 0x0 KECCAK256 SWAP1 PUSH1 0x1F ADD PUSH1 0x20 SWAP1 DIV DUP2 ADD SWAP3 DUP3 PUSH2 0x2A1 JUMPI PUSH1 0x0 DUP6 SSTORE PUSH2 0x2E8 JUMP JUMPDEST DUP3 PUSH1 0x1F LT PUSH2 0x2BA JUMPI DUP1 MLOAD PUSH1 0xFF NOT AND DUP4 DUP1 ADD OR DUP6 SSTORE PUSH2 0x2E8 JUMP JUMPDEST DUP3 DUP1 ADD PUSH1 0x1 ADD DUP6 SSTORE DUP3 ISZERO PUSH2 0x2E8 JUMPI SWAP2 DUP3 ADD JUMPDEST DUP3 DUP2 GT ISZERO PUSH2 0x2E7 JUMPI DUP3 MLOAD DUP3 SSTORE SWAP2 PUSH1 0x20 ADD SWAP2 SWAP1 PUSH1 0x1 ADD SWAP1 PUSH2 0x2CC JUMP JUMPDEST JUMPDEST POP SWAP1 POP PUSH2 0x2F5 SWAP2 SWAP1 PUSH2 0x2F9 JUMP JUMPDEST POP SWAP1 JUMP JUMPDEST JUMPDEST DUP1 DUP3 GT ISZERO PUSH2 0x312 JUMPI PUSH1 0x0 DUP2 PUSH1 0x0 SWAP1 SSTORE POP PUSH1 0x1 ADD PUSH2 0x2FA JUMP JUMPDEST POP SWAP1 JUMP JUMPDEST PUSH1 0x0 PUSH2 0x329 PUSH2 0x324 DUP5 PUSH2 0x4AE JUMP JUMPDEST PUSH2 0x489 JUMP JUMPDEST SWAP1 POP DUP3 DUP2 MSTORE PUSH1 0x20 DUP2 ADD DUP5 DUP5 DUP5 ADD GT ISZERO PUSH2 0x345 JUMPI PUSH2 0x344 PUSH2 0x63F JUMP JUMPDEST JUMPDEST PUSH2 0x350 DUP5 DUP3 DUP6 PUSH2 0x537 JUMP JUMPDEST POP SWAP4 SWAP3 POP POP POP JUMP JUMPDEST PUSH1 0x0 DUP3 PUSH1 0x1F DUP4 ADD SLT PUSH2 0x36D JUMPI PUSH2 0x36C PUSH2 0x63A JUMP JUMPDEST JUMPDEST DUP2 CALLDATALOAD PUSH2 0x37D DUP5 DUP3 PUSH1 0x20 DUP7 ADD PUSH2 0x316 JUMP JUMPDEST SWAP2 POP POP SWAP3 SWAP2 POP POP JUMP JUMPDEST PUSH1 0x0 DUP2 CALLDATALOAD SWAP1 POP PUSH2 0x395 DUP2 PUSH2 0x65F JUMP JUMPDEST SWAP3 SWAP2 POP POP JUMP JUMPDEST PUSH1 0x0 PUSH1 0x20 DUP3 DUP5 SUB SLT ISZERO PUSH2 0x3B1 JUMPI PUSH2 0x3B0 PUSH2 0x649 JUMP JUMPDEST JUMPDEST PUSH1 0x0 DUP3 ADD CALLDATALOAD PUSH8 0xFFFFFFFFFFFFFFFF DUP2 GT ISZERO PUSH2 0x3CF JUMPI PUSH2 0x3CE PUSH2 0x644 JUMP JUMPDEST JUMPDEST PUSH2 0x3DB DUP5 DUP3 DUP6 ADD PUSH2 0x358 JUMP JUMPDEST SWAP2 POP POP SWAP3 SWAP2 POP POP JUMP JUMPDEST PUSH1 0x0 PUSH1 0x20 DUP3 DUP5 SUB SLT ISZERO PUSH2 0x3FA JUMPI PUSH2 0x3F9 PUSH2 0x649 JUMP JUMPDEST JUMPDEST PUSH1 0x0 PUSH2 0x408 DUP5 DUP3 DUP6 ADD PUSH2 0x386 JUMP JUMPDEST SWAP2 POP POP SWAP3 SWAP2 POP POP JUMP JUMPDEST PUSH2 0x41A DUP2 PUSH2 0x4FB JUMP JUMPDEST DUP3 MSTORE POP POP JUMP JUMPDEST PUSH1 0x0 PUSH2 0x42B DUP3 PUSH2 0x4DF JUMP JUMPDEST PUSH2 0x435 DUP2 DUP6 PUSH2 0x4EA JUMP JUMPDEST SWAP4 POP PUSH2 0x445 DUP2 DUP6 PUSH1 0x20 DUP7 ADD PUSH2 0x546 JUMP JUMPDEST PUSH2 0x44E DUP2 PUSH2 0x64E JUMP JUMPDEST DUP5 ADD SWAP2 POP POP SWAP3 SWAP2 POP POP JUMP JUMPDEST PUSH1 0x0 PUSH1 0x40 DUP3 ADD SWAP1 POP PUSH2 0x46E PUSH1 0x0 DUP4 ADD DUP6 PUSH2 0x411 JUMP JUMPDEST DUP2 DUP2 SUB PUSH1 0x20 DUP4 ADD MSTORE PUSH2 0x480 DUP2 DUP5 PUSH2 0x420 JUMP JUMPDEST SWAP1 POP SWAP4 SWAP3 POP POP POP JUMP JUMPDEST PUSH1 0x0 PUSH2 0x493 PUSH2 0x4A4 JUMP JUMPDEST SWAP1 POP PUSH2 0x49F DUP3 DUP3 PUSH2 0x5AB JUMP JUMPDEST SWAP2 SWAP1 POP JUMP JUMPDEST PUSH1 0x0 PUSH1 0x40 MLOAD SWAP1 POP SWAP1 JUMP JUMPDEST PUSH1 0x0 PUSH8 0xFFFFFFFFFFFFFFFF DUP3 GT ISZERO PUSH2 0x4C9 JUMPI PUSH2 0x4C8 PUSH2 0x60B JUMP JUMPDEST JUMPDEST PUSH2 0x4D2 DUP3 PUSH2 0x64E JUMP JUMPDEST SWAP1 POP PUSH1 0x20 DUP2 ADD SWAP1 POP SWAP2 SWAP1 POP JUMP JUMPDEST PUSH1 0x0 DUP2 MLOAD SWAP1 POP SWAP2 SWAP1 POP JUMP JUMPDEST PUSH1 0x0 DUP3 DUP3 MSTORE PUSH1 0x20 DUP3 ADD SWAP1 POP SWAP3 SWAP2 POP POP JUMP JUMPDEST PUSH1 0x0 PUSH2 0x506 DUP3 PUSH2 0x50D JUMP JUMPDEST SWAP1 POP SWAP2 SWAP1 POP JUMP JUMPDEST PUSH1 0x0 PUSH20 0xFFFFFFFFFFFFFFFFFFFFFFFFFFFFFFFFFFFFFFFF DUP3 AND SWAP1 POP SWAP2 SWAP1 POP JUMP JUMPDEST PUSH1 0x0 DUP2 SWAP1 POP SWAP2 SWAP1 POP JUMP JUMPDEST DUP3 DUP2 DUP4 CALLDATACOPY PUSH1 0x0 DUP4 DUP4 ADD MSTORE POP POP POP JUMP JUMPDEST PUSH1 0x0 JUMPDEST DUP4 DUP2 LT ISZERO PUSH2 0x564 JUMPI DUP1 DUP3 ADD MLOAD DUP2 DUP5 ADD MSTORE PUSH1 0x20 DUP2 ADD SWAP1 POP PUSH2 0x549 JUMP JUMPDEST DUP4 DUP2 GT ISZERO PUSH2 0x573 JUMPI PUSH1 0x0 DUP5 DUP5 ADD MSTORE JUMPDEST POP POP POP POP JUMP JUMPDEST PUSH1 0x0 PUSH1 0x2 DUP3 DIV SWAP1 POP PUSH1 0x1 DUP3 AND DUP1 PUSH2 0x591 JUMPI PUSH1 0x7F DUP3 AND SWAP2 POP JUMPDEST PUSH1 0x20 DUP3 LT DUP2 EQ ISZERO PUSH2 0x5A5 JUMPI PUSH2 0x5A4 PUSH2 0x5DC JUMP JUMPDEST JUMPDEST POP SWAP2 SWAP1 POP JUMP JUMPDEST PUSH2 0x5B4 DUP3 PUSH2 0x64E JUMP JUMPDEST DUP2 ADD DUP2 DUP2 LT PUSH8 0xFFFFFFFFFFFFFFFF DUP3 GT OR ISZERO PUSH2 0x5D3 JUMPI PUSH2 0x5D2 PUSH2 0x60B JUMP JUMPDEST JUMPDEST DUP1 PUSH1 0x40 MSTORE POP POP POP JUMP JUMPDEST PUSH32 0x4E487B7100000000000000000000000000000000000000000000000000000000 PUSH1 0x0 MSTORE PUSH1 0x22 PUSH1 0x4 MSTORE PUSH1 0x24 PUSH1 0x0 REVERT JUMPDEST PUSH32 0x4E487B7100000000000000000000000000000000000000000000000000000000 PUSH1 0x0 MSTORE PUSH1 0x41 PUSH1 0x4 MSTORE PUSH1 0x24 PUSH1 0x0 REVERT JUMPDEST PUSH1 0x0 DUP1 REVERT JUMPDEST PUSH1 0x0 DUP1 REVERT JUMPDEST PUSH1 0x0 DUP1 REVERT JUMPDEST PUSH1 0x0 DUP1 REVERT JUMPDEST PUSH1 0x0 PUSH1 0x1F NOT PUSH1 0x1F DUP4 ADD AND SWAP1 POP SWAP2 SWAP1 POP JUMP JUMPDEST PUSH2 0x668 DUP2 PUSH2 0x52D JUMP JUMPDEST DUP2 EQ PUSH2 0x673 JUMPI PUSH1 0x0 DUP1 REVERT JUMPDEST POP JUMP INVALID LOG2 PUSH5 0x6970667358 0x22 SLT KECCAK256 0x23 XOR SHR DUP11 DUP6 0x2F CODECOPY DUP10 PUSH19 0xBB86D57DADDFBC1D1C0A5921F12E62DD86DA12 XOR 0x1F 0xCB SWAP11 PUSH5 0x736F6C6343 STOP ADDMOD SMOD STOP CALLER "
				},
				"gasEstimates": {
					"creation": {
						"codeDepositCost": "341600",
						"executionCost": "380",
						"totalCost": "341980"
					},
					"external": {
						"address_book(uint256)": "infinite",
						"push(string)": "infinite"
					}
				},
				"methodIdentifiers": {
					"address_book(uint256)": "b1429303",
					"push(string)": "4f3d057a"
				}
			},
			"storageLayout": {
				"storage": [
					{
						"astId": 11,
						"contract": "contracts/1_Storage.sol:Storage",
						"label": "address_book",
						"offset": 0,
						"slot": "0",
						"type": "t_array(t_struct(Address_book)7_storage)dyn_storage"
					}
				],
				"types": {
					"t_address": {
						"encoding": "inplace",
						"label": "address",
						"numberOfBytes": "20"
					},
					"t_array(t_struct(Address_book)7_storage)dyn_storage": {
						"base": "t_struct(Address_book)7_storage",
						"encoding": "dynamic_array",
						"label": "struct Storage.Address_book[]",
						"numberOfBytes": "32"
					},
					"t_string_storage": {
						"encoding": "bytes",
						"label": "string",
						"numberOfBytes": "32"
					},
					"t_struct(Address_book)7_storage": {
						"encoding": "inplace",
						"label": "struct Storage.Address_book",
						"members": [
							{
								"astId": 4,
								"contract": "contracts/1_Storage.sol:Storage",
								"label": "addr",
								"offset": 0,
								"slot": "0",
								"type": "t_address"
							},
							{
								"astId": 6,
								"contract": "contracts/1_Storage.sol:Storage",
								"label": "data",
								"offset": 0,
								"slot": "1",
								"type": "t_string_storage"
							}
						],
						"numberOfBytes": "64"
					}
				}
			},
			"userdoc": {
				"kind": "user",
				"methods": {},
				"version": 1
			}
		}
	}
}