{
	"contracts/1_Storage.sol": {
		"Storage": {
			"abi": [
				{
					"inputs": [
						{
							"internalType": "string",
							"name": "_text",
							"type": "string"
						},
						{
							"internalType": "address",
							"name": "add",
							"type": "address"
						}
					],
					"name": "push",
					"outputs": [],
					"stateMutability": "nonpayable",
					"type": "function"
				},
				{
					"inputs": [],
					"name": "retrieve",
					"outputs": [
						{
							"internalType": "address[]",
							"name": "",
							"type": "address[]"
						},
						{
							"internalType": "string[]",
							"name": "",
							"type": "string[]"
						}
					],
					"stateMutability": "view",
					"type": "function"
				}
			],
			"devdoc": {
				"custom:dev-run-script": "./scripts/deploy_with_ethers.ts",
				"details": "Store & retrieve value in a variable",
				"kind": "dev",
				"methods": {},
				"title": "Storage",
				"version": 1
			},
			"evm": {
				"assembly": "    /* \"contracts/1_Storage.sol\":199:835  contract Storage {... */\n  mstore(0x40, 0x80)\n  callvalue\n  dup1\n  iszero\n  tag_1\n  jumpi\n  0x00\n  dup1\n  revert\ntag_1:\n  pop\n  dataSize(sub_0)\n  dup1\n  dataOffset(sub_0)\n  0x00\n  codecopy\n  0x00\n  return\nstop\n\nsub_0: assembly {\n        /* \"contracts/1_Storage.sol\":199:835  contract Storage {... */\n      mstore(0x40, 0x80)\n      callvalue\n      dup1\n      iszero\n      tag_1\n      jumpi\n      0x00\n      dup1\n      revert\n    tag_1:\n      pop\n      jumpi(tag_2, lt(calldatasize, 0x04))\n      shr(0xe0, calldataload(0x00))\n      dup1\n      0x1c6a089c\n      eq\n      tag_3\n      jumpi\n      dup1\n      0x2e64cec1\n      eq\n      tag_4\n      jumpi\n    tag_2:\n      0x00\n      dup1\n      revert\n        /* \"contracts/1_Storage.sol\":286:376  function push(string memory _text, address add) public {... */\n    tag_3:\n      tag_5\n      0x04\n      dup1\n      calldatasize\n      sub\n      dup2\n      add\n      swap1\n      tag_6\n      swap2\n      swap1\n      tag_7\n      jump\t// in\n    tag_6:\n      tag_8\n      jump\t// in\n    tag_5:\n      stop\n        /* \"contracts/1_Storage.sol\":382:833  function retrieve() external view returns(address[] memory, string[] memory)... */\n    tag_4:\n      tag_9\n      tag_10\n      jump\t// in\n    tag_9:\n      mload(0x40)\n      tag_11\n      swap3\n      swap2\n      swap1\n      tag_12\n      jump\t// in\n    tag_11:\n      mload(0x40)\n      dup1\n      swap2\n      sub\n      swap1\n      return\n        /* \"contracts/1_Storage.sol\":286:376  function push(string memory _text, address add) public {... */\n    tag_8:\n        /* \"contracts/1_Storage.sol\":364:369  _text */\n      dup2\n        /* \"contracts/1_Storage.sol\":351:356  store */\n      0x00\n        /* \"contracts/1_Storage.sol\":351:361  store[add] */\n      dup1\n        /* \"contracts/1_Storage.sol\":357:360  add */\n      dup4\n        /* \"contracts/1_Storage.sol\":351:361  store[add] */\n      0xffffffffffffffffffffffffffffffffffffffff\n      and\n      0xffffffffffffffffffffffffffffffffffffffff\n      and\n      dup2\n      mstore\n      0x20\n      add\n      swap1\n      dup2\n      mstore\n      0x20\n      add\n      0x00\n      keccak256\n        /* \"contracts/1_Storage.sol\":351:369  store[add] = _text */\n      swap1\n      dup1\n      mload\n      swap1\n      0x20\n      add\n      swap1\n      tag_14\n      swap3\n      swap2\n      swap1\n      tag_15\n      jump\t// in\n    tag_14:\n      pop\n        /* \"contracts/1_Storage.sol\":286:376  function push(string memory _text, address add) public {... */\n      pop\n      pop\n      jump\t// out\n        /* \"contracts/1_Storage.sol\":382:833  function retrieve() external view returns(address[] memory, string[] memory)... */\n    tag_10:\n        /* \"contracts/1_Storage.sol\":424:440  address[] memory */\n      0x60\n        /* \"contracts/1_Storage.sol\":442:457  string[] memory */\n      dup1\n        /* \"contracts/1_Storage.sol\":477:504  address[] memory returnKeys */\n      0x00\n        /* \"contracts/1_Storage.sol\":521:530  addresses */\n      0x01\n        /* \"contracts/1_Storage.sol\":521:537  addresses.length */\n      dup1\n      sload\n      swap1\n      pop\n        /* \"contracts/1_Storage.sol\":507:538  new address[](addresses.length) */\n      0xffffffffffffffff\n      dup2\n      gt\n      iszero\n      tag_17\n      jumpi\n      tag_18\n      tag_19\n      jump\t// in\n    tag_18:\n    tag_17:\n      mload(0x40)\n      swap1\n      dup1\n      dup3\n      mstore\n      dup1\n      0x20\n      mul\n      0x20\n      add\n      dup3\n      add\n      0x40\n      mstore\n      dup1\n      iszero\n      tag_20\n      jumpi\n      dup2\n      0x20\n      add\n      0x20\n      dup3\n      mul\n      dup1\n      calldatasize\n      dup4\n      calldatacopy\n      dup1\n      dup3\n      add\n      swap2\n      pop\n      pop\n      swap1\n      pop\n    tag_20:\n      pop\n        /* \"contracts/1_Storage.sol\":477:538  address[] memory returnKeys = new address[](addresses.length) */\n      swap1\n      pop\n        /* \"contracts/1_Storage.sol\":547:575  string[] memory returnValues */\n      0x00\n        /* \"contracts/1_Storage.sol\":592:601  addresses */\n      0x01\n        /* \"contracts/1_Storage.sol\":592:608  addresses.length */\n      dup1\n      sload\n      swap1\n      pop\n        /* \"contracts/1_Storage.sol\":579:609  new string[](addresses.length) */\n      0xffffffffffffffff\n      dup2\n      gt\n      iszero\n      tag_21\n      jumpi\n      tag_22\n      tag_19\n      jump\t// in\n    tag_22:\n    tag_21:\n      mload(0x40)\n      swap1\n      dup1\n      dup3\n      mstore\n      dup1\n      0x20\n      mul\n      0x20\n      add\n      dup3\n      add\n      0x40\n      mstore\n      dup1\n      iszero\n      tag_23\n      jumpi\n      dup2\n      0x20\n      add\n    tag_24:\n      0x60\n      dup2\n      mstore\n      0x20\n      add\n      swap1\n      0x01\n      swap1\n      sub\n      swap1\n      dup2\n      tag_24\n      jumpi\n      swap1\n      pop\n    tag_23:\n      pop\n        /* \"contracts/1_Storage.sol\":547:609  string[] memory returnValues  = new string[](addresses.length) */\n      swap1\n      pop\n        /* \"contracts/1_Storage.sol\":623:629  uint i */\n      0x00\n        /* \"contracts/1_Storage.sol\":619:786  for(uint i = 0; i < addresses.length; i++)... */\n    tag_25:\n        /* \"contracts/1_Storage.sol\":639:648  addresses */\n      0x01\n        /* \"contracts/1_Storage.sol\":639:655  addresses.length */\n      dup1\n      sload\n      swap1\n      pop\n        /* \"contracts/1_Storage.sol\":635:636  i */\n      dup2\n        /* \"contracts/1_Storage.sol\":635:655  i < addresses.length */\n      lt\n        /* \"contracts/1_Storage.sol\":619:786  for(uint i = 0; i < addresses.length; i++)... */\n      iszero\n      tag_26\n      jumpi\n        /* \"contracts/1_Storage.sol\":698:707  addresses */\n      0x01\n        /* \"contracts/1_Storage.sol\":708:709  i */\n      dup2\n        /* \"contracts/1_Storage.sol\":698:710  addresses[i] */\n      dup2\n      sload\n      dup2\n      lt\n      tag_28\n      jumpi\n      tag_29\n      tag_30\n      jump\t// in\n    tag_29:\n    tag_28:\n      swap1\n      0x00\n      mstore\n      keccak256(0x00, 0x20)\n      add\n      0x00\n      swap1\n      sload\n      swap1\n      0x0100\n      exp\n      swap1\n      div\n      0xffffffffffffffffffffffffffffffffffffffff\n      and\n        /* \"contracts/1_Storage.sol\":682:692  returnKeys */\n      dup4\n        /* \"contracts/1_Storage.sol\":693:694  i */\n      dup3\n        /* \"contracts/1_Storage.sol\":682:695  returnKeys[i] */\n      dup2\n      mload\n      dup2\n      lt\n      tag_32\n      jumpi\n      tag_33\n      tag_30\n      jump\t// in\n    tag_33:\n    tag_32:\n      0x20\n      mul\n      0x20\n      add\n      add\n        /* \"contracts/1_Storage.sol\":682:710  returnKeys[i] = addresses[i] */\n      swap1\n      0xffffffffffffffffffffffffffffffffffffffff\n      and\n      swap1\n      dup2\n      0xffffffffffffffffffffffffffffffffffffffff\n      and\n      dup2\n      mstore\n      pop\n      pop\n        /* \"contracts/1_Storage.sol\":741:746  store */\n      0x00\n        /* \"contracts/1_Storage.sol\":741:760  store[addresses[i]] */\n      dup1\n        /* \"contracts/1_Storage.sol\":747:756  addresses */\n      0x01\n        /* \"contracts/1_Storage.sol\":757:758  i */\n      dup4\n        /* \"contracts/1_Storage.sol\":747:759  addresses[i] */\n      dup2\n      sload\n      dup2\n      lt\n      tag_34\n      jumpi\n      tag_35\n      tag_30\n      jump\t// in\n    tag_35:\n    tag_34:\n      swap1\n      0x00\n      mstore\n      keccak256(0x00, 0x20)\n      add\n      0x00\n      swap1\n      sload\n      swap1\n      0x0100\n      exp\n      swap1\n      div\n      0xffffffffffffffffffffffffffffffffffffffff\n      and\n        /* \"contracts/1_Storage.sol\":741:760  store[addresses[i]] */\n      0xffffffffffffffffffffffffffffffffffffffff\n      and\n      0xffffffffffffffffffffffffffffffffffffffff\n      and\n      dup2\n      mstore\n      0x20\n      add\n      swap1\n      dup2\n      mstore\n      0x20\n      add\n      0x00\n      keccak256\n        /* \"contracts/1_Storage.sol\":723:760  returnValues[i] = store[addresses[i]] */\n      dup1\n      sload\n      tag_37\n      swap1\n      tag_38\n      jump\t// in\n    tag_37:\n      dup1\n      0x1f\n      add\n      0x20\n      dup1\n      swap2\n      div\n      mul\n      0x20\n      add\n      mload(0x40)\n      swap1\n      dup2\n      add\n      0x40\n      mstore\n      dup1\n      swap3\n      swap2\n      swap1\n      dup2\n      dup2\n      mstore\n      0x20\n      add\n      dup3\n      dup1\n      sload\n      tag_39\n      swap1\n      tag_38\n      jump\t// in\n    tag_39:\n      dup1\n      iszero\n      tag_40\n      jumpi\n      dup1\n      0x1f\n      lt\n      tag_41\n      jumpi\n      0x0100\n      dup1\n      dup4\n      sload\n      div\n      mul\n      dup4\n      mstore\n      swap2\n      0x20\n      add\n      swap2\n      jump(tag_40)\n    tag_41:\n      dup3\n      add\n      swap2\n      swap1\n      0x00\n      mstore\n      keccak256(0x00, 0x20)\n      swap1\n    tag_42:\n      dup2\n      sload\n      dup2\n      mstore\n      swap1\n      0x01\n      add\n      swap1\n      0x20\n      add\n      dup1\n      dup4\n      gt\n      tag_42\n      jumpi\n      dup3\n      swap1\n      sub\n      0x1f\n      and\n      dup3\n      add\n      swap2\n    tag_40:\n      pop\n      pop\n      pop\n      pop\n      pop\n        /* \"contracts/1_Storage.sol\":723:735  returnValues */\n      dup3\n        /* \"contracts/1_Storage.sol\":736:737  i */\n      dup3\n        /* \"contracts/1_Storage.sol\":723:738  returnValues[i] */\n      dup2\n      mload\n      dup2\n      lt\n      tag_43\n      jumpi\n      tag_44\n      tag_30\n      jump\t// in\n    tag_44:\n    tag_43:\n      0x20\n      mul\n      0x20\n      add\n      add\n        /* \"contracts/1_Storage.sol\":723:760  returnValues[i] = store[addresses[i]] */\n      dup2\n      swap1\n      mstore\n      pop\n        /* \"contracts/1_Storage.sol\":773:776  i++ */\n      dup1\n      dup1\n      tag_45\n      swap1\n      tag_46\n      jump\t// in\n    tag_45:\n      swap2\n      pop\n      pop\n        /* \"contracts/1_Storage.sol\":657:660  i++ */\n      dup1\n      dup1\n      tag_47\n      swap1\n      tag_46\n      jump\t// in\n    tag_47:\n      swap2\n      pop\n      pop\n        /* \"contracts/1_Storage.sol\":619:786  for(uint i = 0; i < addresses.length; i++)... */\n      jump(tag_25)\n    tag_26:\n      pop\n        /* \"contracts/1_Storage.sol\":801:811  returnKeys */\n      dup2\n        /* \"contracts/1_Storage.sol\":813:825  returnValues */\n      dup2\n        /* \"contracts/1_Storage.sol\":794:826  return(returnKeys, returnValues) */\n      swap4\n      pop\n      swap4\n      pop\n      pop\n      pop\n        /* \"contracts/1_Storage.sol\":382:833  function retrieve() external view returns(address[] memory, string[] memory)... */\n      swap1\n      swap2\n      jump\t// out\n    tag_15:\n      dup3\n      dup1\n      sload\n      tag_48\n      swap1\n      tag_38\n      jump\t// in\n    tag_48:\n      swap1\n      0x00\n      mstore\n      keccak256(0x00, 0x20)\n      swap1\n      0x1f\n      add\n      0x20\n      swap1\n      div\n      dup2\n      add\n      swap3\n      dup3\n      tag_50\n      jumpi\n      0x00\n      dup6\n      sstore\n      jump(tag_49)\n    tag_50:\n      dup3\n      0x1f\n      lt\n      tag_51\n      jumpi\n      dup1\n      mload\n      not(0xff)\n      and\n      dup4\n      dup1\n      add\n      or\n      dup6\n      sstore\n      jump(tag_49)\n    tag_51:\n      dup3\n      dup1\n      add\n      0x01\n      add\n      dup6\n      sstore\n      dup3\n      iszero\n      tag_49\n      jumpi\n      swap2\n      dup3\n      add\n    tag_52:\n      dup3\n      dup2\n      gt\n      iszero\n      tag_53\n      jumpi\n      dup3\n      mload\n      dup3\n      sstore\n      swap2\n      0x20\n      add\n      swap2\n      swap1\n      0x01\n      add\n      swap1\n      jump(tag_52)\n    tag_53:\n    tag_49:\n      pop\n      swap1\n      pop\n      tag_54\n      swap2\n      swap1\n      tag_55\n      jump\t// in\n    tag_54:\n      pop\n      swap1\n      jump\t// out\n    tag_55:\n    tag_56:\n      dup1\n      dup3\n      gt\n      iszero\n      tag_57\n      jumpi\n      0x00\n      dup2\n      0x00\n      swap1\n      sstore\n      pop\n      0x01\n      add\n      jump(tag_56)\n    tag_57:\n      pop\n      swap1\n      jump\t// out\n        /* \"#utility.yul\":7:419   */\n    tag_59:\n        /* \"#utility.yul\":85:90   */\n      0x00\n        /* \"#utility.yul\":110:176   */\n      tag_61\n        /* \"#utility.yul\":126:175   */\n      tag_62\n        /* \"#utility.yul\":168:174   */\n      dup5\n        /* \"#utility.yul\":126:175   */\n      tag_63\n      jump\t// in\n    tag_62:\n        /* \"#utility.yul\":110:176   */\n      tag_64\n      jump\t// in\n    tag_61:\n        /* \"#utility.yul\":101:176   */\n      swap1\n      pop\n        /* \"#utility.yul\":199:205   */\n      dup3\n        /* \"#utility.yul\":192:197   */\n      dup2\n        /* \"#utility.yul\":185:206   */\n      mstore\n        /* \"#utility.yul\":237:241   */\n      0x20\n        /* \"#utility.yul\":230:235   */\n      dup2\n        /* \"#utility.yul\":226:242   */\n      add\n        /* \"#utility.yul\":275:278   */\n      dup5\n        /* \"#utility.yul\":266:272   */\n      dup5\n        /* \"#utility.yul\":261:264   */\n      dup5\n        /* \"#utility.yul\":257:273   */\n      add\n        /* \"#utility.yul\":254:279   */\n      gt\n        /* \"#utility.yul\":251:363   */\n      iszero\n      tag_65\n      jumpi\n        /* \"#utility.yul\":282:361   */\n      tag_66\n      tag_67\n      jump\t// in\n    tag_66:\n        /* \"#utility.yul\":251:363   */\n    tag_65:\n        /* \"#utility.yul\":372:413   */\n      tag_68\n        /* \"#utility.yul\":406:412   */\n      dup5\n        /* \"#utility.yul\":401:404   */\n      dup3\n        /* \"#utility.yul\":396:399   */\n      dup6\n        /* \"#utility.yul\":372:413   */\n      tag_69\n      jump\t// in\n    tag_68:\n        /* \"#utility.yul\":91:419   */\n      pop\n        /* \"#utility.yul\":7:419   */\n      swap4\n      swap3\n      pop\n      pop\n      pop\n      jump\t// out\n        /* \"#utility.yul\":425:564   */\n    tag_70:\n        /* \"#utility.yul\":471:476   */\n      0x00\n        /* \"#utility.yul\":509:515   */\n      dup2\n        /* \"#utility.yul\":496:516   */\n      calldataload\n        /* \"#utility.yul\":487:516   */\n      swap1\n      pop\n        /* \"#utility.yul\":525:558   */\n      tag_72\n        /* \"#utility.yul\":552:557   */\n      dup2\n        /* \"#utility.yul\":525:558   */\n      tag_73\n      jump\t// in\n    tag_72:\n        /* \"#utility.yul\":425:564   */\n      swap3\n      swap2\n      pop\n      pop\n      jump\t// out\n        /* \"#utility.yul\":584:924   */\n    tag_74:\n        /* \"#utility.yul\":640:645   */\n      0x00\n        /* \"#utility.yul\":689:692   */\n      dup3\n        /* \"#utility.yul\":682:686   */\n      0x1f\n        /* \"#utility.yul\":674:680   */\n      dup4\n        /* \"#utility.yul\":670:687   */\n      add\n        /* \"#utility.yul\":666:693   */\n      slt\n        /* \"#utility.yul\":656:778   */\n      tag_76\n      jumpi\n        /* \"#utility.yul\":697:776   */\n      tag_77\n      tag_78\n      jump\t// in\n    tag_77:\n        /* \"#utility.yul\":656:778   */\n    tag_76:\n        /* \"#utility.yul\":814:820   */\n      dup2\n        /* \"#utility.yul\":801:821   */\n      calldataload\n        /* \"#utility.yul\":839:918   */\n      tag_79\n        /* \"#utility.yul\":914:917   */\n      dup5\n        /* \"#utility.yul\":906:912   */\n      dup3\n        /* \"#utility.yul\":899:903   */\n      0x20\n        /* \"#utility.yul\":891:897   */\n      dup7\n        /* \"#utility.yul\":887:904   */\n      add\n        /* \"#utility.yul\":839:918   */\n      tag_59\n      jump\t// in\n    tag_79:\n        /* \"#utility.yul\":830:918   */\n      swap2\n      pop\n        /* \"#utility.yul\":646:924   */\n      pop\n        /* \"#utility.yul\":584:924   */\n      swap3\n      swap2\n      pop\n      pop\n      jump\t// out\n        /* \"#utility.yul\":930:1584   */\n    tag_7:\n        /* \"#utility.yul\":1008:1014   */\n      0x00\n        /* \"#utility.yul\":1016:1022   */\n      dup1\n        /* \"#utility.yul\":1065:1067   */\n      0x40\n        /* \"#utility.yul\":1053:1062   */\n      dup4\n        /* \"#utility.yul\":1044:1051   */\n      dup6\n        /* \"#utility.yul\":1040:1063   */\n      sub\n        /* \"#utility.yul\":1036:1068   */\n      slt\n        /* \"#utility.yul\":1033:1152   */\n      iszero\n      tag_81\n      jumpi\n        /* \"#utility.yul\":1071:1150   */\n      tag_82\n      tag_83\n      jump\t// in\n    tag_82:\n        /* \"#utility.yul\":1033:1152   */\n    tag_81:\n        /* \"#utility.yul\":1219:1220   */\n      0x00\n        /* \"#utility.yul\":1208:1217   */\n      dup4\n        /* \"#utility.yul\":1204:1221   */\n      add\n        /* \"#utility.yul\":1191:1222   */\n      calldataload\n        /* \"#utility.yul\":1249:1267   */\n      0xffffffffffffffff\n        /* \"#utility.yul\":1241:1247   */\n      dup2\n        /* \"#utility.yul\":1238:1268   */\n      gt\n        /* \"#utility.yul\":1235:1352   */\n      iszero\n      tag_84\n      jumpi\n        /* \"#utility.yul\":1271:1350   */\n      tag_85\n      tag_86\n      jump\t// in\n    tag_85:\n        /* \"#utility.yul\":1235:1352   */\n    tag_84:\n        /* \"#utility.yul\":1376:1439   */\n      tag_87\n        /* \"#utility.yul\":1431:1438   */\n      dup6\n        /* \"#utility.yul\":1422:1428   */\n      dup3\n        /* \"#utility.yul\":1411:1420   */\n      dup7\n        /* \"#utility.yul\":1407:1429   */\n      add\n        /* \"#utility.yul\":1376:1439   */\n      tag_74\n      jump\t// in\n    tag_87:\n        /* \"#utility.yul\":1366:1439   */\n      swap3\n      pop\n        /* \"#utility.yul\":1162:1449   */\n      pop\n        /* \"#utility.yul\":1488:1490   */\n      0x20\n        /* \"#utility.yul\":1514:1567   */\n      tag_88\n        /* \"#utility.yul\":1559:1566   */\n      dup6\n        /* \"#utility.yul\":1550:1556   */\n      dup3\n        /* \"#utility.yul\":1539:1548   */\n      dup7\n        /* \"#utility.yul\":1535:1557   */\n      add\n        /* \"#utility.yul\":1514:1567   */\n      tag_70\n      jump\t// in\n    tag_88:\n        /* \"#utility.yul\":1504:1567   */\n      swap2\n      pop\n        /* \"#utility.yul\":1459:1577   */\n      pop\n        /* \"#utility.yul\":930:1584   */\n      swap3\n      pop\n      swap3\n      swap1\n      pop\n      jump\t// out\n        /* \"#utility.yul\":1590:1769   */\n    tag_89:\n        /* \"#utility.yul\":1659:1669   */\n      0x00\n        /* \"#utility.yul\":1680:1726   */\n      tag_91\n        /* \"#utility.yul\":1722:1725   */\n      dup4\n        /* \"#utility.yul\":1714:1720   */\n      dup4\n        /* \"#utility.yul\":1680:1726   */\n      tag_92\n      jump\t// in\n    tag_91:\n        /* \"#utility.yul\":1758:1762   */\n      0x20\n        /* \"#utility.yul\":1753:1756   */\n      dup4\n        /* \"#utility.yul\":1749:1763   */\n      add\n        /* \"#utility.yul\":1735:1763   */\n      swap1\n      pop\n        /* \"#utility.yul\":1590:1769   */\n      swap3\n      swap2\n      pop\n      pop\n      jump\t// out\n        /* \"#utility.yul\":1775:1971   */\n    tag_93:\n        /* \"#utility.yul\":1864:1874   */\n      0x00\n        /* \"#utility.yul\":1899:1965   */\n      tag_95\n        /* \"#utility.yul\":1961:1964   */\n      dup4\n        /* \"#utility.yul\":1953:1959   */\n      dup4\n        /* \"#utility.yul\":1899:1965   */\n      tag_96\n      jump\t// in\n    tag_95:\n        /* \"#utility.yul\":1885:1965   */\n      swap1\n      pop\n        /* \"#utility.yul\":1775:1971   */\n      swap3\n      swap2\n      pop\n      pop\n      jump\t// out\n        /* \"#utility.yul\":1977:2085   */\n    tag_92:\n        /* \"#utility.yul\":2054:2078   */\n      tag_98\n        /* \"#utility.yul\":2072:2077   */\n      dup2\n        /* \"#utility.yul\":2054:2078   */\n      tag_99\n      jump\t// in\n    tag_98:\n        /* \"#utility.yul\":2049:2052   */\n      dup3\n        /* \"#utility.yul\":2042:2079   */\n      mstore\n        /* \"#utility.yul\":1977:2085   */\n      pop\n      pop\n      jump\t// out\n        /* \"#utility.yul\":2121:2853   */\n    tag_100:\n        /* \"#utility.yul\":2240:2243   */\n      0x00\n        /* \"#utility.yul\":2269:2323   */\n      tag_102\n        /* \"#utility.yul\":2317:2322   */\n      dup3\n        /* \"#utility.yul\":2269:2323   */\n      tag_103\n      jump\t// in\n    tag_102:\n        /* \"#utility.yul\":2339:2425   */\n      tag_104\n        /* \"#utility.yul\":2418:2424   */\n      dup2\n        /* \"#utility.yul\":2413:2416   */\n      dup6\n        /* \"#utility.yul\":2339:2425   */\n      tag_105\n      jump\t// in\n    tag_104:\n        /* \"#utility.yul\":2332:2425   */\n      swap4\n      pop\n        /* \"#utility.yul\":2449:2505   */\n      tag_106\n        /* \"#utility.yul\":2499:2504   */\n      dup4\n        /* \"#utility.yul\":2449:2505   */\n      tag_107\n      jump\t// in\n    tag_106:\n        /* \"#utility.yul\":2528:2535   */\n      dup1\n        /* \"#utility.yul\":2559:2560   */\n      0x00\n        /* \"#utility.yul\":2544:2828   */\n    tag_108:\n        /* \"#utility.yul\":2569:2575   */\n      dup4\n        /* \"#utility.yul\":2566:2567   */\n      dup2\n        /* \"#utility.yul\":2563:2576   */\n      lt\n        /* \"#utility.yul\":2544:2828   */\n      iszero\n      tag_110\n      jumpi\n        /* \"#utility.yul\":2645:2651   */\n      dup2\n        /* \"#utility.yul\":2639:2652   */\n      mload\n        /* \"#utility.yul\":2672:2735   */\n      tag_111\n        /* \"#utility.yul\":2731:2734   */\n      dup9\n        /* \"#utility.yul\":2716:2729   */\n      dup3\n        /* \"#utility.yul\":2672:2735   */\n      tag_89\n      jump\t// in\n    tag_111:\n        /* \"#utility.yul\":2665:2735   */\n      swap8\n      pop\n        /* \"#utility.yul\":2758:2818   */\n      tag_112\n        /* \"#utility.yul\":2811:2817   */\n      dup4\n        /* \"#utility.yul\":2758:2818   */\n      tag_113\n      jump\t// in\n    tag_112:\n        /* \"#utility.yul\":2748:2818   */\n      swap3\n      pop\n        /* \"#utility.yul\":2604:2828   */\n      pop\n        /* \"#utility.yul\":2591:2592   */\n      0x01\n        /* \"#utility.yul\":2588:2589   */\n      dup2\n        /* \"#utility.yul\":2584:2593   */\n      add\n        /* \"#utility.yul\":2579:2593   */\n      swap1\n      pop\n        /* \"#utility.yul\":2544:2828   */\n      jump(tag_108)\n    tag_110:\n        /* \"#utility.yul\":2548:2562   */\n      pop\n        /* \"#utility.yul\":2844:2847   */\n      dup6\n        /* \"#utility.yul\":2837:2847   */\n      swap4\n      pop\n        /* \"#utility.yul\":2245:2853   */\n      pop\n      pop\n      pop\n        /* \"#utility.yul\":2121:2853   */\n      swap3\n      swap2\n      pop\n      pop\n      jump\t// out\n        /* \"#utility.yul\":2887:3878   */\n    tag_114:\n        /* \"#utility.yul\":3026:3029   */\n      0x00\n        /* \"#utility.yul\":3055:3119   */\n      tag_116\n        /* \"#utility.yul\":3113:3118   */\n      dup3\n        /* \"#utility.yul\":3055:3119   */\n      tag_117\n      jump\t// in\n    tag_116:\n        /* \"#utility.yul\":3135:3231   */\n      tag_118\n        /* \"#utility.yul\":3224:3230   */\n      dup2\n        /* \"#utility.yul\":3219:3222   */\n      dup6\n        /* \"#utility.yul\":3135:3231   */\n      tag_119\n      jump\t// in\n    tag_118:\n        /* \"#utility.yul\":3128:3231   */\n      swap4\n      pop\n        /* \"#utility.yul\":3257:3260   */\n      dup4\n        /* \"#utility.yul\":3302:3306   */\n      0x20\n        /* \"#utility.yul\":3294:3300   */\n      dup3\n        /* \"#utility.yul\":3290:3307   */\n      mul\n        /* \"#utility.yul\":3285:3288   */\n      dup6\n        /* \"#utility.yul\":3281:3308   */\n      add\n        /* \"#utility.yul\":3332:3398   */\n      tag_120\n        /* \"#utility.yul\":3392:3397   */\n      dup6\n        /* \"#utility.yul\":3332:3398   */\n      tag_121\n      jump\t// in\n    tag_120:\n        /* \"#utility.yul\":3421:3428   */\n      dup1\n        /* \"#utility.yul\":3452:3453   */\n      0x00\n        /* \"#utility.yul\":3437:3833   */\n    tag_122:\n        /* \"#utility.yul\":3462:3468   */\n      dup6\n        /* \"#utility.yul\":3459:3460   */\n      dup2\n        /* \"#utility.yul\":3456:3469   */\n      lt\n        /* \"#utility.yul\":3437:3833   */\n      iszero\n      tag_124\n      jumpi\n        /* \"#utility.yul\":3533:3542   */\n      dup5\n        /* \"#utility.yul\":3527:3531   */\n      dup5\n        /* \"#utility.yul\":3523:3543   */\n      sub\n        /* \"#utility.yul\":3518:3521   */\n      dup10\n        /* \"#utility.yul\":3511:3544   */\n      mstore\n        /* \"#utility.yul\":3584:3590   */\n      dup2\n        /* \"#utility.yul\":3578:3591   */\n      mload\n        /* \"#utility.yul\":3612:3696   */\n      tag_125\n        /* \"#utility.yul\":3691:3695   */\n      dup6\n        /* \"#utility.yul\":3676:3689   */\n      dup3\n        /* \"#utility.yul\":3612:3696   */\n      tag_93\n      jump\t// in\n    tag_125:\n        /* \"#utility.yul\":3604:3696   */\n      swap5\n      pop\n        /* \"#utility.yul\":3719:3789   */\n      tag_126\n        /* \"#utility.yul\":3782:3788   */\n      dup4\n        /* \"#utility.yul\":3719:3789   */\n      tag_127\n      jump\t// in\n    tag_126:\n        /* \"#utility.yul\":3709:3789   */\n      swap3\n      pop\n        /* \"#utility.yul\":3818:3822   */\n      0x20\n        /* \"#utility.yul\":3813:3816   */\n      dup11\n        /* \"#utility.yul\":3809:3823   */\n      add\n        /* \"#utility.yul\":3802:3823   */\n      swap10\n      pop\n        /* \"#utility.yul\":3497:3833   */\n      pop\n        /* \"#utility.yul\":3484:3485   */\n      0x01\n        /* \"#utility.yul\":3481:3482   */\n      dup2\n        /* \"#utility.yul\":3477:3486   */\n      add\n        /* \"#utility.yul\":3472:3486   */\n      swap1\n      pop\n        /* \"#utility.yul\":3437:3833   */\n      jump(tag_122)\n    tag_124:\n        /* \"#utility.yul\":3441:3455   */\n      pop\n        /* \"#utility.yul\":3849:3853   */\n      dup3\n        /* \"#utility.yul\":3842:3853   */\n      swap8\n      pop\n        /* \"#utility.yul\":3869:3872   */\n      dup8\n        /* \"#utility.yul\":3862:3872   */\n      swap6\n      pop\n        /* \"#utility.yul\":3031:3878   */\n      pop\n      pop\n      pop\n      pop\n      pop\n        /* \"#utility.yul\":2887:3878   */\n      swap3\n      swap2\n      pop\n      pop\n      jump\t// out\n        /* \"#utility.yul\":3884:4228   */\n    tag_96:\n        /* \"#utility.yul\":3962:3965   */\n      0x00\n        /* \"#utility.yul\":3990:4029   */\n      tag_129\n        /* \"#utility.yul\":4023:4028   */\n      dup3\n        /* \"#utility.yul\":3990:4029   */\n      tag_130\n      jump\t// in\n    tag_129:\n        /* \"#utility.yul\":4045:4106   */\n      tag_131\n        /* \"#utility.yul\":4099:4105   */\n      dup2\n        /* \"#utility.yul\":4094:4097   */\n      dup6\n        /* \"#utility.yul\":4045:4106   */\n      tag_132\n      jump\t// in\n    tag_131:\n        /* \"#utility.yul\":4038:4106   */\n      swap4\n      pop\n        /* \"#utility.yul\":4115:4167   */\n      tag_133\n        /* \"#utility.yul\":4160:4166   */\n      dup2\n        /* \"#utility.yul\":4155:4158   */\n      dup6\n        /* \"#utility.yul\":4148:4152   */\n      0x20\n        /* \"#utility.yul\":4141:4146   */\n      dup7\n        /* \"#utility.yul\":4137:4153   */\n      add\n        /* \"#utility.yul\":4115:4167   */\n      tag_134\n      jump\t// in\n    tag_133:\n        /* \"#utility.yul\":4192:4221   */\n      tag_135\n        /* \"#utility.yul\":4214:4220   */\n      dup2\n        /* \"#utility.yul\":4192:4221   */\n      tag_136\n      jump\t// in\n    tag_135:\n        /* \"#utility.yul\":4187:4190   */\n      dup5\n        /* \"#utility.yul\":4183:4222   */\n      add\n        /* \"#utility.yul\":4176:4222   */\n      swap2\n      pop\n        /* \"#utility.yul\":3966:4228   */\n      pop\n        /* \"#utility.yul\":3884:4228   */\n      swap3\n      swap2\n      pop\n      pop\n      jump\t// out\n        /* \"#utility.yul\":4234:4908   */\n    tag_12:\n        /* \"#utility.yul\":4475:4479   */\n      0x00\n        /* \"#utility.yul\":4513:4515   */\n      0x40\n        /* \"#utility.yul\":4502:4511   */\n      dup3\n        /* \"#utility.yul\":4498:4516   */\n      add\n        /* \"#utility.yul\":4490:4516   */\n      swap1\n      pop\n        /* \"#utility.yul\":4562:4571   */\n      dup2\n        /* \"#utility.yul\":4556:4560   */\n      dup2\n        /* \"#utility.yul\":4552:4572   */\n      sub\n        /* \"#utility.yul\":4548:4549   */\n      0x00\n        /* \"#utility.yul\":4537:4546   */\n      dup4\n        /* \"#utility.yul\":4533:4550   */\n      add\n        /* \"#utility.yul\":4526:4573   */\n      mstore\n        /* \"#utility.yul\":4590:4698   */\n      tag_138\n        /* \"#utility.yul\":4693:4697   */\n      dup2\n        /* \"#utility.yul\":4684:4690   */\n      dup6\n        /* \"#utility.yul\":4590:4698   */\n      tag_100\n      jump\t// in\n    tag_138:\n        /* \"#utility.yul\":4582:4698   */\n      swap1\n      pop\n        /* \"#utility.yul\":4745:4754   */\n      dup2\n        /* \"#utility.yul\":4739:4743   */\n      dup2\n        /* \"#utility.yul\":4735:4755   */\n      sub\n        /* \"#utility.yul\":4730:4732   */\n      0x20\n        /* \"#utility.yul\":4719:4728   */\n      dup4\n        /* \"#utility.yul\":4715:4733   */\n      add\n        /* \"#utility.yul\":4708:4756   */\n      mstore\n        /* \"#utility.yul\":4773:4901   */\n      tag_139\n        /* \"#utility.yul\":4896:4900   */\n      dup2\n        /* \"#utility.yul\":4887:4893   */\n      dup5\n        /* \"#utility.yul\":4773:4901   */\n      tag_114\n      jump\t// in\n    tag_139:\n        /* \"#utility.yul\":4765:4901   */\n      swap1\n      pop\n        /* \"#utility.yul\":4234:4908   */\n      swap4\n      swap3\n      pop\n      pop\n      pop\n      jump\t// out\n        /* \"#utility.yul\":4914:5043   */\n    tag_64:\n        /* \"#utility.yul\":4948:4954   */\n      0x00\n        /* \"#utility.yul\":4975:4995   */\n      tag_141\n      tag_142\n      jump\t// in\n    tag_141:\n        /* \"#utility.yul\":4965:4995   */\n      swap1\n      pop\n        /* \"#utility.yul\":5004:5037   */\n      tag_143\n        /* \"#utility.yul\":5032:5036   */\n      dup3\n        /* \"#utility.yul\":5024:5030   */\n      dup3\n        /* \"#utility.yul\":5004:5037   */\n      tag_144\n      jump\t// in\n    tag_143:\n        /* \"#utility.yul\":4914:5043   */\n      swap2\n      swap1\n      pop\n      jump\t// out\n        /* \"#utility.yul\":5049:5124   */\n    tag_142:\n        /* \"#utility.yul\":5082:5088   */\n      0x00\n        /* \"#utility.yul\":5115:5117   */\n      0x40\n        /* \"#utility.yul\":5109:5118   */\n      mload\n        /* \"#utility.yul\":5099:5118   */\n      swap1\n      pop\n        /* \"#utility.yul\":5049:5124   */\n      swap1\n      jump\t// out\n        /* \"#utility.yul\":5130:5438   */\n    tag_63:\n        /* \"#utility.yul\":5192:5196   */\n      0x00\n        /* \"#utility.yul\":5282:5300   */\n      0xffffffffffffffff\n        /* \"#utility.yul\":5274:5280   */\n      dup3\n        /* \"#utility.yul\":5271:5301   */\n      gt\n        /* \"#utility.yul\":5268:5324   */\n      iszero\n      tag_147\n      jumpi\n        /* \"#utility.yul\":5304:5322   */\n      tag_148\n      tag_19\n      jump\t// in\n    tag_148:\n        /* \"#utility.yul\":5268:5324   */\n    tag_147:\n        /* \"#utility.yul\":5342:5371   */\n      tag_149\n        /* \"#utility.yul\":5364:5370   */\n      dup3\n        /* \"#utility.yul\":5342:5371   */\n      tag_136\n      jump\t// in\n    tag_149:\n        /* \"#utility.yul\":5334:5371   */\n      swap1\n      pop\n        /* \"#utility.yul\":5426:5430   */\n      0x20\n        /* \"#utility.yul\":5420:5424   */\n      dup2\n        /* \"#utility.yul\":5416:5431   */\n      add\n        /* \"#utility.yul\":5408:5431   */\n      swap1\n      pop\n        /* \"#utility.yul\":5130:5438   */\n      swap2\n      swap1\n      pop\n      jump\t// out\n        /* \"#utility.yul\":5444:5576   */\n    tag_107:\n        /* \"#utility.yul\":5511:5515   */\n      0x00\n        /* \"#utility.yul\":5534:5537   */\n      dup2\n        /* \"#utility.yul\":5526:5537   */\n      swap1\n      pop\n        /* \"#utility.yul\":5564:5568   */\n      0x20\n        /* \"#utility.yul\":5559:5562   */\n      dup3\n        /* \"#utility.yul\":5555:5569   */\n      add\n        /* \"#utility.yul\":5547:5569   */\n      swap1\n      pop\n        /* \"#utility.yul\":5444:5576   */\n      swap2\n      swap1\n      pop\n      jump\t// out\n        /* \"#utility.yul\":5582:5724   */\n    tag_121:\n        /* \"#utility.yul\":5659:5663   */\n      0x00\n        /* \"#utility.yul\":5682:5685   */\n      dup2\n        /* \"#utility.yul\":5674:5685   */\n      swap1\n      pop\n        /* \"#utility.yul\":5712:5716   */\n      0x20\n        /* \"#utility.yul\":5707:5710   */\n      dup3\n        /* \"#utility.yul\":5703:5717   */\n      add\n        /* \"#utility.yul\":5695:5717   */\n      swap1\n      pop\n        /* \"#utility.yul\":5582:5724   */\n      swap2\n      swap1\n      pop\n      jump\t// out\n        /* \"#utility.yul\":5730:5844   */\n    tag_103:\n        /* \"#utility.yul\":5797:5803   */\n      0x00\n        /* \"#utility.yul\":5831:5836   */\n      dup2\n        /* \"#utility.yul\":5825:5837   */\n      mload\n        /* \"#utility.yul\":5815:5837   */\n      swap1\n      pop\n        /* \"#utility.yul\":5730:5844   */\n      swap2\n      swap1\n      pop\n      jump\t// out\n        /* \"#utility.yul\":5850:5974   */\n    tag_117:\n        /* \"#utility.yul\":5927:5933   */\n      0x00\n        /* \"#utility.yul\":5961:5966   */\n      dup2\n        /* \"#utility.yul\":5955:5967   */\n      mload\n        /* \"#utility.yul\":5945:5967   */\n      swap1\n      pop\n        /* \"#utility.yul\":5850:5974   */\n      swap2\n      swap1\n      pop\n      jump\t// out\n        /* \"#utility.yul\":5980:6079   */\n    tag_130:\n        /* \"#utility.yul\":6032:6038   */\n      0x00\n        /* \"#utility.yul\":6066:6071   */\n      dup2\n        /* \"#utility.yul\":6060:6072   */\n      mload\n        /* \"#utility.yul\":6050:6072   */\n      swap1\n      pop\n        /* \"#utility.yul\":5980:6079   */\n      swap2\n      swap1\n      pop\n      jump\t// out\n        /* \"#utility.yul\":6085:6198   */\n    tag_113:\n        /* \"#utility.yul\":6155:6159   */\n      0x00\n        /* \"#utility.yul\":6187:6191   */\n      0x20\n        /* \"#utility.yul\":6182:6185   */\n      dup3\n        /* \"#utility.yul\":6178:6192   */\n      add\n        /* \"#utility.yul\":6170:6192   */\n      swap1\n      pop\n        /* \"#utility.yul\":6085:6198   */\n      swap2\n      swap1\n      pop\n      jump\t// out\n        /* \"#utility.yul\":6204:6327   */\n    tag_127:\n        /* \"#utility.yul\":6284:6288   */\n      0x00\n        /* \"#utility.yul\":6316:6320   */\n      0x20\n        /* \"#utility.yul\":6311:6314   */\n      dup3\n        /* \"#utility.yul\":6307:6321   */\n      add\n        /* \"#utility.yul\":6299:6321   */\n      swap1\n      pop\n        /* \"#utility.yul\":6204:6327   */\n      swap2\n      swap1\n      pop\n      jump\t// out\n        /* \"#utility.yul\":6333:6517   */\n    tag_105:\n        /* \"#utility.yul\":6432:6443   */\n      0x00\n        /* \"#utility.yul\":6466:6472   */\n      dup3\n        /* \"#utility.yul\":6461:6464   */\n      dup3\n        /* \"#utility.yul\":6454:6473   */\n      mstore\n        /* \"#utility.yul\":6506:6510   */\n      0x20\n        /* \"#utility.yul\":6501:6504   */\n      dup3\n        /* \"#utility.yul\":6497:6511   */\n      add\n        /* \"#utility.yul\":6482:6511   */\n      swap1\n      pop\n        /* \"#utility.yul\":6333:6517   */\n      swap3\n      swap2\n      pop\n      pop\n      jump\t// out\n        /* \"#utility.yul\":6523:6717   */\n    tag_119:\n        /* \"#utility.yul\":6632:6643   */\n      0x00\n        /* \"#utility.yul\":6666:6672   */\n      dup3\n        /* \"#utility.yul\":6661:6664   */\n      dup3\n        /* \"#utility.yul\":6654:6673   */\n      mstore\n        /* \"#utility.yul\":6706:6710   */\n      0x20\n        /* \"#utility.yul\":6701:6704   */\n      dup3\n        /* \"#utility.yul\":6697:6711   */\n      add\n        /* \"#utility.yul\":6682:6711   */\n      swap1\n      pop\n        /* \"#utility.yul\":6523:6717   */\n      swap3\n      swap2\n      pop\n      pop\n      jump\t// out\n        /* \"#utility.yul\":6723:6882   */\n    tag_132:\n        /* \"#utility.yul\":6797:6808   */\n      0x00\n        /* \"#utility.yul\":6831:6837   */\n      dup3\n        /* \"#utility.yul\":6826:6829   */\n      dup3\n        /* \"#utility.yul\":6819:6838   */\n      mstore\n        /* \"#utility.yul\":6871:6875   */\n      0x20\n        /* \"#utility.yul\":6866:6869   */\n      dup3\n        /* \"#utility.yul\":6862:6876   */\n      add\n        /* \"#utility.yul\":6847:6876   */\n      swap1\n      pop\n        /* \"#utility.yul\":6723:6882   */\n      swap3\n      swap2\n      pop\n      pop\n      jump\t// out\n        /* \"#utility.yul\":6888:6984   */\n    tag_99:\n        /* \"#utility.yul\":6925:6932   */\n      0x00\n        /* \"#utility.yul\":6954:6978   */\n      tag_161\n        /* \"#utility.yul\":6972:6977   */\n      dup3\n        /* \"#utility.yul\":6954:6978   */\n      tag_162\n      jump\t// in\n    tag_161:\n        /* \"#utility.yul\":6943:6978   */\n      swap1\n      pop\n        /* \"#utility.yul\":6888:6984   */\n      swap2\n      swap1\n      pop\n      jump\t// out\n        /* \"#utility.yul\":6990:7116   */\n    tag_162:\n        /* \"#utility.yul\":7027:7034   */\n      0x00\n        /* \"#utility.yul\":7067:7109   */\n      0xffffffffffffffffffffffffffffffffffffffff\n        /* \"#utility.yul\":7060:7065   */\n      dup3\n        /* \"#utility.yul\":7056:7110   */\n      and\n        /* \"#utility.yul\":7045:7110   */\n      swap1\n      pop\n        /* \"#utility.yul\":6990:7116   */\n      swap2\n      swap1\n      pop\n      jump\t// out\n        /* \"#utility.yul\":7122:7199   */\n    tag_164:\n        /* \"#utility.yul\":7159:7166   */\n      0x00\n        /* \"#utility.yul\":7188:7193   */\n      dup2\n        /* \"#utility.yul\":7177:7193   */\n      swap1\n      pop\n        /* \"#utility.yul\":7122:7199   */\n      swap2\n      swap1\n      pop\n      jump\t// out\n        /* \"#utility.yul\":7205:7359   */\n    tag_69:\n        /* \"#utility.yul\":7289:7295   */\n      dup3\n        /* \"#utility.yul\":7284:7287   */\n      dup2\n        /* \"#utility.yul\":7279:7282   */\n      dup4\n        /* \"#utility.yul\":7266:7296   */\n      calldatacopy\n        /* \"#utility.yul\":7351:7352   */\n      0x00\n        /* \"#utility.yul\":7342:7348   */\n      dup4\n        /* \"#utility.yul\":7337:7340   */\n      dup4\n        /* \"#utility.yul\":7333:7349   */\n      add\n        /* \"#utility.yul\":7326:7353   */\n      mstore\n        /* \"#utility.yul\":7205:7359   */\n      pop\n      pop\n      pop\n      jump\t// out\n        /* \"#utility.yul\":7365:7672   */\n    tag_134:\n        /* \"#utility.yul\":7433:7434   */\n      0x00\n        /* \"#utility.yul\":7443:7556   */\n    tag_168:\n        /* \"#utility.yul\":7457:7463   */\n      dup4\n        /* \"#utility.yul\":7454:7455   */\n      dup2\n        /* \"#utility.yul\":7451:7464   */\n      lt\n        /* \"#utility.yul\":7443:7556   */\n      iszero\n      tag_170\n      jumpi\n        /* \"#utility.yul\":7542:7543   */\n      dup1\n        /* \"#utility.yul\":7537:7540   */\n      dup3\n        /* \"#utility.yul\":7533:7544   */\n      add\n        /* \"#utility.yul\":7527:7545   */\n      mload\n        /* \"#utility.yul\":7523:7524   */\n      dup2\n        /* \"#utility.yul\":7518:7521   */\n      dup5\n        /* \"#utility.yul\":7514:7525   */\n      add\n        /* \"#utility.yul\":7507:7546   */\n      mstore\n        /* \"#utility.yul\":7479:7481   */\n      0x20\n        /* \"#utility.yul\":7476:7477   */\n      dup2\n        /* \"#utility.yul\":7472:7482   */\n      add\n        /* \"#utility.yul\":7467:7482   */\n      swap1\n      pop\n        /* \"#utility.yul\":7443:7556   */\n      jump(tag_168)\n    tag_170:\n        /* \"#utility.yul\":7574:7580   */\n      dup4\n        /* \"#utility.yul\":7571:7572   */\n      dup2\n        /* \"#utility.yul\":7568:7581   */\n      gt\n        /* \"#utility.yul\":7565:7666   */\n      iszero\n      tag_171\n      jumpi\n        /* \"#utility.yul\":7654:7655   */\n      0x00\n        /* \"#utility.yul\":7645:7651   */\n      dup5\n        /* \"#utility.yul\":7640:7643   */\n      dup5\n        /* \"#utility.yul\":7636:7652   */\n      add\n        /* \"#utility.yul\":7629:7656   */\n      mstore\n        /* \"#utility.yul\":7565:7666   */\n    tag_171:\n        /* \"#utility.yul\":7414:7672   */\n      pop\n        /* \"#utility.yul\":7365:7672   */\n      pop\n      pop\n      pop\n      jump\t// out\n        /* \"#utility.yul\":7678:7998   */\n    tag_38:\n        /* \"#utility.yul\":7722:7728   */\n      0x00\n        /* \"#utility.yul\":7759:7760   */\n      0x02\n        /* \"#utility.yul\":7753:7757   */\n      dup3\n        /* \"#utility.yul\":7749:7761   */\n      div\n        /* \"#utility.yul\":7739:7761   */\n      swap1\n      pop\n        /* \"#utility.yul\":7806:7807   */\n      0x01\n        /* \"#utility.yul\":7800:7804   */\n      dup3\n        /* \"#utility.yul\":7796:7808   */\n      and\n        /* \"#utility.yul\":7827:7845   */\n      dup1\n        /* \"#utility.yul\":7817:7898   */\n      tag_173\n      jumpi\n        /* \"#utility.yul\":7883:7887   */\n      0x7f\n        /* \"#utility.yul\":7875:7881   */\n      dup3\n        /* \"#utility.yul\":7871:7888   */\n      and\n        /* \"#utility.yul\":7861:7888   */\n      swap2\n      pop\n        /* \"#utility.yul\":7817:7898   */\n    tag_173:\n        /* \"#utility.yul\":7945:7947   */\n      0x20\n        /* \"#utility.yul\":7937:7943   */\n      dup3\n        /* \"#utility.yul\":7934:7948   */\n      lt\n        /* \"#utility.yul\":7914:7932   */\n      dup2\n        /* \"#utility.yul\":7911:7949   */\n      eq\n        /* \"#utility.yul\":7908:7992   */\n      iszero\n      tag_174\n      jumpi\n        /* \"#utility.yul\":7964:7982   */\n      tag_175\n      tag_176\n      jump\t// in\n    tag_175:\n        /* \"#utility.yul\":7908:7992   */\n    tag_174:\n        /* \"#utility.yul\":7729:7998   */\n      pop\n        /* \"#utility.yul\":7678:7998   */\n      swap2\n      swap1\n      pop\n      jump\t// out\n        /* \"#utility.yul\":8004:8285   */\n    tag_144:\n        /* \"#utility.yul\":8087:8114   */\n      tag_178\n        /* \"#utility.yul\":8109:8113   */\n      dup3\n        /* \"#utility.yul\":8087:8114   */\n      tag_136\n      jump\t// in\n    tag_178:\n        /* \"#utility.yul\":8079:8085   */\n      dup2\n        /* \"#utility.yul\":8075:8115   */\n      add\n        /* \"#utility.yul\":8217:8223   */\n      dup2\n        /* \"#utility.yul\":8205:8215   */\n      dup2\n        /* \"#utility.yul\":8202:8224   */\n      lt\n        /* \"#utility.yul\":8181:8199   */\n      0xffffffffffffffff\n        /* \"#utility.yul\":8169:8179   */\n      dup3\n        /* \"#utility.yul\":8166:8200   */\n      gt\n        /* \"#utility.yul\":8163:8225   */\n      or\n        /* \"#utility.yul\":8160:8248   */\n      iszero\n      tag_179\n      jumpi\n        /* \"#utility.yul\":8228:8246   */\n      tag_180\n      tag_19\n      jump\t// in\n    tag_180:\n        /* \"#utility.yul\":8160:8248   */\n    tag_179:\n        /* \"#utility.yul\":8268:8278   */\n      dup1\n        /* \"#utility.yul\":8264:8266   */\n      0x40\n        /* \"#utility.yul\":8257:8279   */\n      mstore\n        /* \"#utility.yul\":8047:8285   */\n      pop\n        /* \"#utility.yul\":8004:8285   */\n      pop\n      pop\n      jump\t// out\n        /* \"#utility.yul\":8291:8524   */\n    tag_46:\n        /* \"#utility.yul\":8330:8333   */\n      0x00\n        /* \"#utility.yul\":8353:8377   */\n      tag_182\n        /* \"#utility.yul\":8371:8376   */\n      dup3\n        /* \"#utility.yul\":8353:8377   */\n      tag_164\n      jump\t// in\n    tag_182:\n        /* \"#utility.yul\":8344:8377   */\n      swap2\n      pop\n        /* \"#utility.yul\":8399:8465   */\n      0xffffffffffffffffffffffffffffffffffffffffffffffffffffffffffffffff\n        /* \"#utility.yul\":8392:8397   */\n      dup3\n        /* \"#utility.yul\":8389:8466   */\n      eq\n        /* \"#utility.yul\":8386:8489   */\n      iszero\n      tag_183\n      jumpi\n        /* \"#utility.yul\":8469:8487   */\n      tag_184\n      tag_185\n      jump\t// in\n    tag_184:\n        /* \"#utility.yul\":8386:8489   */\n    tag_183:\n        /* \"#utility.yul\":8516:8517   */\n      0x01\n        /* \"#utility.yul\":8509:8514   */\n      dup3\n        /* \"#utility.yul\":8505:8518   */\n      add\n        /* \"#utility.yul\":8498:8518   */\n      swap1\n      pop\n        /* \"#utility.yul\":8291:8524   */\n      swap2\n      swap1\n      pop\n      jump\t// out\n        /* \"#utility.yul\":8530:8710   */\n    tag_185:\n        /* \"#utility.yul\":8578:8655   */\n      0x4e487b7100000000000000000000000000000000000000000000000000000000\n        /* \"#utility.yul\":8575:8576   */\n      0x00\n        /* \"#utility.yul\":8568:8656   */\n      mstore\n        /* \"#utility.yul\":8675:8679   */\n      0x11\n        /* \"#utility.yul\":8672:8673   */\n      0x04\n        /* \"#utility.yul\":8665:8680   */\n      mstore\n        /* \"#utility.yul\":8699:8703   */\n      0x24\n        /* \"#utility.yul\":8696:8697   */\n      0x00\n        /* \"#utility.yul\":8689:8704   */\n      revert\n        /* \"#utility.yul\":8716:8896   */\n    tag_176:\n        /* \"#utility.yul\":8764:8841   */\n      0x4e487b7100000000000000000000000000000000000000000000000000000000\n        /* \"#utility.yul\":8761:8762   */\n      0x00\n        /* \"#utility.yul\":8754:8842   */\n      mstore\n        /* \"#utility.yul\":8861:8865   */\n      0x22\n        /* \"#utility.yul\":8858:8859   */\n      0x04\n        /* \"#utility.yul\":8851:8866   */\n      mstore\n        /* \"#utility.yul\":8885:8889   */\n      0x24\n        /* \"#utility.yul\":8882:8883   */\n      0x00\n        /* \"#utility.yul\":8875:8890   */\n      revert\n        /* \"#utility.yul\":8902:9082   */\n    tag_30:\n        /* \"#utility.yul\":8950:9027   */\n      0x4e487b7100000000000000000000000000000000000000000000000000000000\n        /* \"#utility.yul\":8947:8948   */\n      0x00\n        /* \"#utility.yul\":8940:9028   */\n      mstore\n        /* \"#utility.yul\":9047:9051   */\n      0x32\n        /* \"#utility.yul\":9044:9045   */\n      0x04\n        /* \"#utility.yul\":9037:9052   */\n      mstore\n        /* \"#utility.yul\":9071:9075   */\n      0x24\n        /* \"#utility.yul\":9068:9069   */\n      0x00\n        /* \"#utility.yul\":9061:9076   */\n      revert\n        /* \"#utility.yul\":9088:9268   */\n    tag_19:\n        /* \"#utility.yul\":9136:9213   */\n      0x4e487b7100000000000000000000000000000000000000000000000000000000\n        /* \"#utility.yul\":9133:9134   */\n      0x00\n        /* \"#utility.yul\":9126:9214   */\n      mstore\n        /* \"#utility.yul\":9233:9237   */\n      0x41\n        /* \"#utility.yul\":9230:9231   */\n      0x04\n        /* \"#utility.yul\":9223:9238   */\n      mstore\n        /* \"#utility.yul\":9257:9261   */\n      0x24\n        /* \"#utility.yul\":9254:9255   */\n      0x00\n        /* \"#utility.yul\":9247:9262   */\n      revert\n        /* \"#utility.yul\":9274:9391   */\n    tag_78:\n        /* \"#utility.yul\":9383:9384   */\n      0x00\n        /* \"#utility.yul\":9380:9381   */\n      dup1\n        /* \"#utility.yul\":9373:9385   */\n      revert\n        /* \"#utility.yul\":9397:9514   */\n    tag_67:\n        /* \"#utility.yul\":9506:9507   */\n      0x00\n        /* \"#utility.yul\":9503:9504   */\n      dup1\n        /* \"#utility.yul\":9496:9508   */\n      revert\n        /* \"#utility.yul\":9520:9637   */\n    tag_86:\n        /* \"#utility.yul\":9629:9630   */\n      0x00\n        /* \"#utility.yul\":9626:9627   */\n      dup1\n        /* \"#utility.yul\":9619:9631   */\n      revert\n        /* \"#utility.yul\":9643:9760   */\n    tag_83:\n        /* \"#utility.yul\":9752:9753   */\n      0x00\n        /* \"#utility.yul\":9749:9750   */\n      dup1\n        /* \"#utility.yul\":9742:9754   */\n      revert\n        /* \"#utility.yul\":9766:9868   */\n    tag_136:\n        /* \"#utility.yul\":9807:9813   */\n      0x00\n        /* \"#utility.yul\":9858:9860   */\n      0x1f\n        /* \"#utility.yul\":9854:9861   */\n      not\n        /* \"#utility.yul\":9849:9851   */\n      0x1f\n        /* \"#utility.yul\":9842:9847   */\n      dup4\n        /* \"#utility.yul\":9838:9852   */\n      add\n        /* \"#utility.yul\":9834:9862   */\n      and\n        /* \"#utility.yul\":9824:9862   */\n      swap1\n      pop\n        /* \"#utility.yul\":9766:9868   */\n      swap2\n      swap1\n      pop\n      jump\t// out\n        /* \"#utility.yul\":9874:9996   */\n    tag_73:\n        /* \"#utility.yul\":9947:9971   */\n      tag_196\n        /* \"#utility.yul\":9965:9970   */\n      dup2\n        /* \"#utility.yul\":9947:9971   */\n      tag_99\n      jump\t// in\n    tag_196:\n        /* \"#utility.yul\":9940:9945   */\n      dup2\n        /* \"#utility.yul\":9937:9972   */\n      eq\n        /* \"#utility.yul\":9927:9990   */\n      tag_197\n      jumpi\n        /* \"#utility.yul\":9986:9987   */\n      0x00\n        /* \"#utility.yul\":9983:9984   */\n      dup1\n        /* \"#utility.yul\":9976:9988   */\n      revert\n        /* \"#utility.yul\":9927:9990   */\n    tag_197:\n        /* \"#utility.yul\":9874:9996   */\n      pop\n      jump\t// out\n\n    auxdata: 0xa26469706673582212206a98a723e6c0d06347e6c18bf980488fe81ba48ce90afacd49b3287713b23f4664736f6c63430008070033\n}\n",
				"bytecode": {
					"linkReferences": {},
					"object": "608060405234801561001057600080fd5b506109a4806100206000396000f3fe608060405234801561001057600080fd5b50600436106100365760003560e01c80631c6a089c1461003b5780632e64cec114610057575b600080fd5b6100556004803603810190610050919061048e565b610076565b005b61005f6100cd565b60405161006d929190610631565b60405180910390f35b816000808373ffffffffffffffffffffffffffffffffffffffff1673ffffffffffffffffffffffffffffffffffffffff16815260200190815260200160002090805190602001906100c8929190610366565b505050565b606080600060018054905067ffffffffffffffff8111156100f1576100f0610903565b5b60405190808252806020026020018201604052801561011f5781602001602082028036833780820191505090505b509050600060018054905067ffffffffffffffff81111561014357610142610903565b5b60405190808252806020026020018201604052801561017657816020015b60608152602001906001900390816101615790505b50905060005b600180549050811015610359576001818154811061019d5761019c6108d4565b5b9060005260206000200160009054906101000a900473ffffffffffffffffffffffffffffffffffffffff168382815181106101db576101da6108d4565b5b602002602001019073ffffffffffffffffffffffffffffffffffffffff16908173ffffffffffffffffffffffffffffffffffffffff16815250506000806001838154811061022c5761022b6108d4565b5b9060005260206000200160009054906101000a900473ffffffffffffffffffffffffffffffffffffffff1673ffffffffffffffffffffffffffffffffffffffff1673ffffffffffffffffffffffffffffffffffffffff168152602001908152602001600020805461029c906107ca565b80601f01602080910402602001604051908101604052809291908181526020018280546102c8906107ca565b80156103155780601f106102ea57610100808354040283529160200191610315565b820191906000526020600020905b8154815290600101906020018083116102f857829003601f168201915b505050505082828151811061032d5761032c6108d4565b5b602002602001018190525080806103439061082d565b91505080806103519061082d565b91505061017c565b5081819350935050509091565b828054610372906107ca565b90600052602060002090601f01602090048101928261039457600085556103db565b82601f106103ad57805160ff19168380011785556103db565b828001600101855582156103db579182015b828111156103da5782518255916020019190600101906103bf565b5b5090506103e891906103ec565b5090565b5b808211156104055760008160009055506001016103ed565b5090565b600061041c6104178461068d565b610668565b90508281526020810184848401111561043857610437610937565b5b610443848285610788565b509392505050565b60008135905061045a81610957565b92915050565b600082601f83011261047557610474610932565b5b8135610485848260208601610409565b91505092915050565b600080604083850312156104a5576104a4610941565b5b600083013567ffffffffffffffff8111156104c3576104c261093c565b5b6104cf85828601610460565b92505060206104e08582860161044b565b9150509250929050565b60006104f68383610516565b60208301905092915050565b600061050e83836105f8565b905092915050565b61051f8161074c565b82525050565b6000610530826106de565b61053a8185610719565b9350610545836106be565b8060005b8381101561057657815161055d88826104ea565b9750610568836106ff565b925050600181019050610549565b5085935050505092915050565b600061058e826106e9565b610598818561072a565b9350836020820285016105aa856106ce565b8060005b858110156105e657848403895281516105c78582610502565b94506105d28361070c565b925060208a019950506001810190506105ae565b50829750879550505050505092915050565b6000610603826106f4565b61060d818561073b565b935061061d818560208601610797565b61062681610946565b840191505092915050565b6000604082019050818103600083015261064b8185610525565b9050818103602083015261065f8184610583565b90509392505050565b6000610672610683565b905061067e82826107fc565b919050565b6000604051905090565b600067ffffffffffffffff8211156106a8576106a7610903565b5b6106b182610946565b9050602081019050919050565b6000819050602082019050919050565b6000819050602082019050919050565b600081519050919050565b600081519050919050565b600081519050919050565b6000602082019050919050565b6000602082019050919050565b600082825260208201905092915050565b600082825260208201905092915050565b600082825260208201905092915050565b60006107578261075e565b9050919050565b600073ffffffffffffffffffffffffffffffffffffffff82169050919050565b6000819050919050565b82818337600083830152505050565b60005b838110156107b557808201518184015260208101905061079a565b838111156107c4576000848401525b50505050565b600060028204905060018216806107e257607f821691505b602082108114156107f6576107f56108a5565b5b50919050565b61080582610946565b810181811067ffffffffffffffff8211171561082457610823610903565b5b80604052505050565b60006108388261077e565b91507fffffffffffffffffffffffffffffffffffffffffffffffffffffffffffffffff82141561086b5761086a610876565b5b600182019050919050565b7f4e487b7100000000000000000000000000000000000000000000000000000000600052601160045260246000fd5b7f4e487b7100000000000000000000000000000000000000000000000000000000600052602260045260246000fd5b7f4e487b7100000000000000000000000000000000000000000000000000000000600052603260045260246000fd5b7f4e487b7100000000000000000000000000000000000000000000000000000000600052604160045260246000fd5b600080fd5b600080fd5b600080fd5b600080fd5b6000601f19601f8301169050919050565b6109608161074c565b811461096b57600080fd5b5056fea26469706673582212206a98a723e6c0d06347e6c18bf980488fe81ba48ce90afacd49b3287713b23f4664736f6c63430008070033",
					"opcodes": "PUSH1 0x80 PUSH1 0x40 MSTORE CALLVALUE DUP1 ISZERO PUSH2 0x10 JUMPI PUSH1 0x0 DUP1 REVERT JUMPDEST POP PUSH2 0x9A4 DUP1 PUSH2 0x20 PUSH1 0x0 CODECOPY PUSH1 0x0 RETURN INVALID PUSH1 0x80 PUSH1 0x40 MSTORE CALLVALUE DUP1 ISZERO PUSH2 0x10 JUMPI PUSH1 0x0 DUP1 REVERT JUMPDEST POP PUSH1 0x4 CALLDATASIZE LT PUSH2 0x36 JUMPI PUSH1 0x0 CALLDATALOAD PUSH1 0xE0 SHR DUP1 PUSH4 0x1C6A089C EQ PUSH2 0x3B JUMPI DUP1 PUSH4 0x2E64CEC1 EQ PUSH2 0x57 JUMPI JUMPDEST PUSH1 0x0 DUP1 REVERT JUMPDEST PUSH2 0x55 PUSH1 0x4 DUP1 CALLDATASIZE SUB DUP2 ADD SWAP1 PUSH2 0x50 SWAP2 SWAP1 PUSH2 0x48E JUMP JUMPDEST PUSH2 0x76 JUMP JUMPDEST STOP JUMPDEST PUSH2 0x5F PUSH2 0xCD JUMP JUMPDEST PUSH1 0x40 MLOAD PUSH2 0x6D SWAP3 SWAP2 SWAP1 PUSH2 0x631 JUMP JUMPDEST PUSH1 0x40 MLOAD DUP1 SWAP2 SUB SWAP1 RETURN JUMPDEST DUP2 PUSH1 0x0 DUP1 DUP4 PUSH20 0xFFFFFFFFFFFFFFFFFFFFFFFFFFFFFFFFFFFFFFFF AND PUSH20 0xFFFFFFFFFFFFFFFFFFFFFFFFFFFFFFFFFFFFFFFF AND DUP2 MSTORE PUSH1 0x20 ADD SWAP1 DUP2 MSTORE PUSH1 0x20 ADD PUSH1 0x0 KECCAK256 SWAP1 DUP1 MLOAD SWAP1 PUSH1 0x20 ADD SWAP1 PUSH2 0xC8 SWAP3 SWAP2 SWAP1 PUSH2 0x366 JUMP JUMPDEST POP POP POP JUMP JUMPDEST PUSH1 0x60 DUP1 PUSH1 0x0 PUSH1 0x1 DUP1 SLOAD SWAP1 POP PUSH8 0xFFFFFFFFFFFFFFFF DUP2 GT ISZERO PUSH2 0xF1 JUMPI PUSH2 0xF0 PUSH2 0x903 JUMP JUMPDEST JUMPDEST PUSH1 0x40 MLOAD SWAP1 DUP1 DUP3 MSTORE DUP1 PUSH1 0x20 MUL PUSH1 0x20 ADD DUP3 ADD PUSH1 0x40 MSTORE DUP1 ISZERO PUSH2 0x11F JUMPI DUP2 PUSH1 0x20 ADD PUSH1 0x20 DUP3 MUL DUP1 CALLDATASIZE DUP4 CALLDATACOPY DUP1 DUP3 ADD SWAP2 POP POP SWAP1 POP JUMPDEST POP SWAP1 POP PUSH1 0x0 PUSH1 0x1 DUP1 SLOAD SWAP1 POP PUSH8 0xFFFFFFFFFFFFFFFF DUP2 GT ISZERO PUSH2 0x143 JUMPI PUSH2 0x142 PUSH2 0x903 JUMP JUMPDEST JUMPDEST PUSH1 0x40 MLOAD SWAP1 DUP1 DUP3 MSTORE DUP1 PUSH1 0x20 MUL PUSH1 0x20 ADD DUP3 ADD PUSH1 0x40 MSTORE DUP1 ISZERO PUSH2 0x176 JUMPI DUP2 PUSH1 0x20 ADD JUMPDEST PUSH1 0x60 DUP2 MSTORE PUSH1 0x20 ADD SWAP1 PUSH1 0x1 SWAP1 SUB SWAP1 DUP2 PUSH2 0x161 JUMPI SWAP1 POP JUMPDEST POP SWAP1 POP PUSH1 0x0 JUMPDEST PUSH1 0x1 DUP1 SLOAD SWAP1 POP DUP2 LT ISZERO PUSH2 0x359 JUMPI PUSH1 0x1 DUP2 DUP2 SLOAD DUP2 LT PUSH2 0x19D JUMPI PUSH2 0x19C PUSH2 0x8D4 JUMP JUMPDEST JUMPDEST SWAP1 PUSH1 0x0 MSTORE PUSH1 0x20 PUSH1 0x0 KECCAK256 ADD PUSH1 0x0 SWAP1 SLOAD SWAP1 PUSH2 0x100 EXP SWAP1 DIV PUSH20 0xFFFFFFFFFFFFFFFFFFFFFFFFFFFFFFFFFFFFFFFF AND DUP4 DUP3 DUP2 MLOAD DUP2 LT PUSH2 0x1DB JUMPI PUSH2 0x1DA PUSH2 0x8D4 JUMP JUMPDEST JUMPDEST PUSH1 0x20 MUL PUSH1 0x20 ADD ADD SWAP1 PUSH20 0xFFFFFFFFFFFFFFFFFFFFFFFFFFFFFFFFFFFFFFFF AND SWAP1 DUP2 PUSH20 0xFFFFFFFFFFFFFFFFFFFFFFFFFFFFFFFFFFFFFFFF AND DUP2 MSTORE POP POP PUSH1 0x0 DUP1 PUSH1 0x1 DUP4 DUP2 SLOAD DUP2 LT PUSH2 0x22C JUMPI PUSH2 0x22B PUSH2 0x8D4 JUMP JUMPDEST JUMPDEST SWAP1 PUSH1 0x0 MSTORE PUSH1 0x20 PUSH1 0x0 KECCAK256 ADD PUSH1 0x0 SWAP1 SLOAD SWAP1 PUSH2 0x100 EXP SWAP1 DIV PUSH20 0xFFFFFFFFFFFFFFFFFFFFFFFFFFFFFFFFFFFFFFFF AND PUSH20 0xFFFFFFFFFFFFFFFFFFFFFFFFFFFFFFFFFFFFFFFF AND PUSH20 0xFFFFFFFFFFFFFFFFFFFFFFFFFFFFFFFFFFFFFFFF AND DUP2 MSTORE PUSH1 0x20 ADD SWAP1 DUP2 MSTORE PUSH1 0x20 ADD PUSH1 0x0 KECCAK256 DUP1 SLOAD PUSH2 0x29C SWAP1 PUSH2 0x7CA JUMP JUMPDEST DUP1 PUSH1 0x1F ADD PUSH1 0x20 DUP1 SWAP2 DIV MUL PUSH1 0x20 ADD PUSH1 0x40 MLOAD SWAP1 DUP2 ADD PUSH1 0x40 MSTORE DUP1 SWAP3 SWAP2 SWAP1 DUP2 DUP2 MSTORE PUSH1 0x20 ADD DUP3 DUP1 SLOAD PUSH2 0x2C8 SWAP1 PUSH2 0x7CA JUMP JUMPDEST DUP1 ISZERO PUSH2 0x315 JUMPI DUP1 PUSH1 0x1F LT PUSH2 0x2EA JUMPI PUSH2 0x100 DUP1 DUP4 SLOAD DIV MUL DUP4 MSTORE SWAP2 PUSH1 0x20 ADD SWAP2 PUSH2 0x315 JUMP JUMPDEST DUP3 ADD SWAP2 SWAP1 PUSH1 0x0 MSTORE PUSH1 0x20 PUSH1 0x0 KECCAK256 SWAP1 JUMPDEST DUP2 SLOAD DUP2 MSTORE SWAP1 PUSH1 0x1 ADD SWAP1 PUSH1 0x20 ADD DUP1 DUP4 GT PUSH2 0x2F8 JUMPI DUP3 SWAP1 SUB PUSH1 0x1F AND DUP3 ADD SWAP2 JUMPDEST POP POP POP POP POP DUP3 DUP3 DUP2 MLOAD DUP2 LT PUSH2 0x32D JUMPI PUSH2 0x32C PUSH2 0x8D4 JUMP JUMPDEST JUMPDEST PUSH1 0x20 MUL PUSH1 0x20 ADD ADD DUP2 SWAP1 MSTORE POP DUP1 DUP1 PUSH2 0x343 SWAP1 PUSH2 0x82D JUMP JUMPDEST SWAP2 POP POP DUP1 DUP1 PUSH2 0x351 SWAP1 PUSH2 0x82D JUMP JUMPDEST SWAP2 POP POP PUSH2 0x17C JUMP JUMPDEST POP DUP2 DUP2 SWAP4 POP SWAP4 POP POP POP SWAP1 SWAP2 JUMP JUMPDEST DUP3 DUP1 SLOAD PUSH2 0x372 SWAP1 PUSH2 0x7CA JUMP JUMPDEST SWAP1 PUSH1 0x0 MSTORE PUSH1 0x20 PUSH1 0x0 KECCAK256 SWAP1 PUSH1 0x1F ADD PUSH1 0x20 SWAP1 DIV DUP2 ADD SWAP3 DUP3 PUSH2 0x394 JUMPI PUSH1 0x0 DUP6 SSTORE PUSH2 0x3DB JUMP JUMPDEST DUP3 PUSH1 0x1F LT PUSH2 0x3AD JUMPI DUP1 MLOAD PUSH1 0xFF NOT AND DUP4 DUP1 ADD OR DUP6 SSTORE PUSH2 0x3DB JUMP JUMPDEST DUP3 DUP1 ADD PUSH1 0x1 ADD DUP6 SSTORE DUP3 ISZERO PUSH2 0x3DB JUMPI SWAP2 DUP3 ADD JUMPDEST DUP3 DUP2 GT ISZERO PUSH2 0x3DA JUMPI DUP3 MLOAD DUP3 SSTORE SWAP2 PUSH1 0x20 ADD SWAP2 SWAP1 PUSH1 0x1 ADD SWAP1 PUSH2 0x3BF JUMP JUMPDEST JUMPDEST POP SWAP1 POP PUSH2 0x3E8 SWAP2 SWAP1 PUSH2 0x3EC JUMP JUMPDEST POP SWAP1 JUMP JUMPDEST JUMPDEST DUP1 DUP3 GT ISZERO PUSH2 0x405 JUMPI PUSH1 0x0 DUP2 PUSH1 0x0 SWAP1 SSTORE POP PUSH1 0x1 ADD PUSH2 0x3ED JUMP JUMPDEST POP SWAP1 JUMP JUMPDEST PUSH1 0x0 PUSH2 0x41C PUSH2 0x417 DUP5 PUSH2 0x68D JUMP JUMPDEST PUSH2 0x668 JUMP JUMPDEST SWAP1 POP DUP3 DUP2 MSTORE PUSH1 0x20 DUP2 ADD DUP5 DUP5 DUP5 ADD GT ISZERO PUSH2 0x438 JUMPI PUSH2 0x437 PUSH2 0x937 JUMP JUMPDEST JUMPDEST PUSH2 0x443 DUP5 DUP3 DUP6 PUSH2 0x788 JUMP JUMPDEST POP SWAP4 SWAP3 POP POP POP JUMP JUMPDEST PUSH1 0x0 DUP2 CALLDATALOAD SWAP1 POP PUSH2 0x45A DUP2 PUSH2 0x957 JUMP JUMPDEST SWAP3 SWAP2 POP POP JUMP JUMPDEST PUSH1 0x0 DUP3 PUSH1 0x1F DUP4 ADD SLT PUSH2 0x475 JUMPI PUSH2 0x474 PUSH2 0x932 JUMP JUMPDEST JUMPDEST DUP2 CALLDATALOAD PUSH2 0x485 DUP5 DUP3 PUSH1 0x20 DUP7 ADD PUSH2 0x409 JUMP JUMPDEST SWAP2 POP POP SWAP3 SWAP2 POP POP JUMP JUMPDEST PUSH1 0x0 DUP1 PUSH1 0x40 DUP4 DUP6 SUB SLT ISZERO PUSH2 0x4A5 JUMPI PUSH2 0x4A4 PUSH2 0x941 JUMP JUMPDEST JUMPDEST PUSH1 0x0 DUP4 ADD CALLDATALOAD PUSH8 0xFFFFFFFFFFFFFFFF DUP2 GT ISZERO PUSH2 0x4C3 JUMPI PUSH2 0x4C2 PUSH2 0x93C JUMP JUMPDEST JUMPDEST PUSH2 0x4CF DUP6 DUP3 DUP7 ADD PUSH2 0x460 JUMP JUMPDEST SWAP3 POP POP PUSH1 0x20 PUSH2 0x4E0 DUP6 DUP3 DUP7 ADD PUSH2 0x44B JUMP JUMPDEST SWAP2 POP POP SWAP3 POP SWAP3 SWAP1 POP JUMP JUMPDEST PUSH1 0x0 PUSH2 0x4F6 DUP4 DUP4 PUSH2 0x516 JUMP JUMPDEST PUSH1 0x20 DUP4 ADD SWAP1 POP SWAP3 SWAP2 POP POP JUMP JUMPDEST PUSH1 0x0 PUSH2 0x50E DUP4 DUP4 PUSH2 0x5F8 JUMP JUMPDEST SWAP1 POP SWAP3 SWAP2 POP POP JUMP JUMPDEST PUSH2 0x51F DUP2 PUSH2 0x74C JUMP JUMPDEST DUP3 MSTORE POP POP JUMP JUMPDEST PUSH1 0x0 PUSH2 0x530 DUP3 PUSH2 0x6DE JUMP JUMPDEST PUSH2 0x53A DUP2 DUP6 PUSH2 0x719 JUMP JUMPDEST SWAP4 POP PUSH2 0x545 DUP4 PUSH2 0x6BE JUMP JUMPDEST DUP1 PUSH1 0x0 JUMPDEST DUP4 DUP2 LT ISZERO PUSH2 0x576 JUMPI DUP2 MLOAD PUSH2 0x55D DUP9 DUP3 PUSH2 0x4EA JUMP JUMPDEST SWAP8 POP PUSH2 0x568 DUP4 PUSH2 0x6FF JUMP JUMPDEST SWAP3 POP POP PUSH1 0x1 DUP2 ADD SWAP1 POP PUSH2 0x549 JUMP JUMPDEST POP DUP6 SWAP4 POP POP POP POP SWAP3 SWAP2 POP POP JUMP JUMPDEST PUSH1 0x0 PUSH2 0x58E DUP3 PUSH2 0x6E9 JUMP JUMPDEST PUSH2 0x598 DUP2 DUP6 PUSH2 0x72A JUMP JUMPDEST SWAP4 POP DUP4 PUSH1 0x20 DUP3 MUL DUP6 ADD PUSH2 0x5AA DUP6 PUSH2 0x6CE JUMP JUMPDEST DUP1 PUSH1 0x0 JUMPDEST DUP6 DUP2 LT ISZERO PUSH2 0x5E6 JUMPI DUP5 DUP5 SUB DUP10 MSTORE DUP2 MLOAD PUSH2 0x5C7 DUP6 DUP3 PUSH2 0x502 JUMP JUMPDEST SWAP5 POP PUSH2 0x5D2 DUP4 PUSH2 0x70C JUMP JUMPDEST SWAP3 POP PUSH1 0x20 DUP11 ADD SWAP10 POP POP PUSH1 0x1 DUP2 ADD SWAP1 POP PUSH2 0x5AE JUMP JUMPDEST POP DUP3 SWAP8 POP DUP8 SWAP6 POP POP POP POP POP POP SWAP3 SWAP2 POP POP JUMP JUMPDEST PUSH1 0x0 PUSH2 0x603 DUP3 PUSH2 0x6F4 JUMP JUMPDEST PUSH2 0x60D DUP2 DUP6 PUSH2 0x73B JUMP JUMPDEST SWAP4 POP PUSH2 0x61D DUP2 DUP6 PUSH1 0x20 DUP7 ADD PUSH2 0x797 JUMP JUMPDEST PUSH2 0x626 DUP2 PUSH2 0x946 JUMP JUMPDEST DUP5 ADD SWAP2 POP POP SWAP3 SWAP2 POP POP JUMP JUMPDEST PUSH1 0x0 PUSH1 0x40 DUP3 ADD SWAP1 POP DUP2 DUP2 SUB PUSH1 0x0 DUP4 ADD MSTORE PUSH2 0x64B DUP2 DUP6 PUSH2 0x525 JUMP JUMPDEST SWAP1 POP DUP2 DUP2 SUB PUSH1 0x20 DUP4 ADD MSTORE PUSH2 0x65F DUP2 DUP5 PUSH2 0x583 JUMP JUMPDEST SWAP1 POP SWAP4 SWAP3 POP POP POP JUMP JUMPDEST PUSH1 0x0 PUSH2 0x672 PUSH2 0x683 JUMP JUMPDEST SWAP1 POP PUSH2 0x67E DUP3 DUP3 PUSH2 0x7FC JUMP JUMPDEST SWAP2 SWAP1 POP JUMP JUMPDEST PUSH1 0x0 PUSH1 0x40 MLOAD SWAP1 POP SWAP1 JUMP JUMPDEST PUSH1 0x0 PUSH8 0xFFFFFFFFFFFFFFFF DUP3 GT ISZERO PUSH2 0x6A8 JUMPI PUSH2 0x6A7 PUSH2 0x903 JUMP JUMPDEST JUMPDEST PUSH2 0x6B1 DUP3 PUSH2 0x946 JUMP JUMPDEST SWAP1 POP PUSH1 0x20 DUP2 ADD SWAP1 POP SWAP2 SWAP1 POP JUMP JUMPDEST PUSH1 0x0 DUP2 SWAP1 POP PUSH1 0x20 DUP3 ADD SWAP1 POP SWAP2 SWAP1 POP JUMP JUMPDEST PUSH1 0x0 DUP2 SWAP1 POP PUSH1 0x20 DUP3 ADD SWAP1 POP SWAP2 SWAP1 POP JUMP JUMPDEST PUSH1 0x0 DUP2 MLOAD SWAP1 POP SWAP2 SWAP1 POP JUMP JUMPDEST PUSH1 0x0 DUP2 MLOAD SWAP1 POP SWAP2 SWAP1 POP JUMP JUMPDEST PUSH1 0x0 DUP2 MLOAD SWAP1 POP SWAP2 SWAP1 POP JUMP JUMPDEST PUSH1 0x0 PUSH1 0x20 DUP3 ADD SWAP1 POP SWAP2 SWAP1 POP JUMP JUMPDEST PUSH1 0x0 PUSH1 0x20 DUP3 ADD SWAP1 POP SWAP2 SWAP1 POP JUMP JUMPDEST PUSH1 0x0 DUP3 DUP3 MSTORE PUSH1 0x20 DUP3 ADD SWAP1 POP SWAP3 SWAP2 POP POP JUMP JUMPDEST PUSH1 0x0 DUP3 DUP3 MSTORE PUSH1 0x20 DUP3 ADD SWAP1 POP SWAP3 SWAP2 POP POP JUMP JUMPDEST PUSH1 0x0 DUP3 DUP3 MSTORE PUSH1 0x20 DUP3 ADD SWAP1 POP SWAP3 SWAP2 POP POP JUMP JUMPDEST PUSH1 0x0 PUSH2 0x757 DUP3 PUSH2 0x75E JUMP JUMPDEST SWAP1 POP SWAP2 SWAP1 POP JUMP JUMPDEST PUSH1 0x0 PUSH20 0xFFFFFFFFFFFFFFFFFFFFFFFFFFFFFFFFFFFFFFFF DUP3 AND SWAP1 POP SWAP2 SWAP1 POP JUMP JUMPDEST PUSH1 0x0 DUP2 SWAP1 POP SWAP2 SWAP1 POP JUMP JUMPDEST DUP3 DUP2 DUP4 CALLDATACOPY PUSH1 0x0 DUP4 DUP4 ADD MSTORE POP POP POP JUMP JUMPDEST PUSH1 0x0 JUMPDEST DUP4 DUP2 LT ISZERO PUSH2 0x7B5 JUMPI DUP1 DUP3 ADD MLOAD DUP2 DUP5 ADD MSTORE PUSH1 0x20 DUP2 ADD SWAP1 POP PUSH2 0x79A JUMP JUMPDEST DUP4 DUP2 GT ISZERO PUSH2 0x7C4 JUMPI PUSH1 0x0 DUP5 DUP5 ADD MSTORE JUMPDEST POP POP POP POP JUMP JUMPDEST PUSH1 0x0 PUSH1 0x2 DUP3 DIV SWAP1 POP PUSH1 0x1 DUP3 AND DUP1 PUSH2 0x7E2 JUMPI PUSH1 0x7F DUP3 AND SWAP2 POP JUMPDEST PUSH1 0x20 DUP3 LT DUP2 EQ ISZERO PUSH2 0x7F6 JUMPI PUSH2 0x7F5 PUSH2 0x8A5 JUMP JUMPDEST JUMPDEST POP SWAP2 SWAP1 POP JUMP JUMPDEST PUSH2 0x805 DUP3 PUSH2 0x946 JUMP JUMPDEST DUP2 ADD DUP2 DUP2 LT PUSH8 0xFFFFFFFFFFFFFFFF DUP3 GT OR ISZERO PUSH2 0x824 JUMPI PUSH2 0x823 PUSH2 0x903 JUMP JUMPDEST JUMPDEST DUP1 PUSH1 0x40 MSTORE POP POP POP JUMP JUMPDEST PUSH1 0x0 PUSH2 0x838 DUP3 PUSH2 0x77E JUMP JUMPDEST SWAP2 POP PUSH32 0xFFFFFFFFFFFFFFFFFFFFFFFFFFFFFFFFFFFFFFFFFFFFFFFFFFFFFFFFFFFFFFFF DUP3 EQ ISZERO PUSH2 0x86B JUMPI PUSH2 0x86A PUSH2 0x876 JUMP JUMPDEST JUMPDEST PUSH1 0x1 DUP3 ADD SWAP1 POP SWAP2 SWAP1 POP JUMP JUMPDEST PUSH32 0x4E487B7100000000000000000000000000000000000000000000000000000000 PUSH1 0x0 MSTORE PUSH1 0x11 PUSH1 0x4 MSTORE PUSH1 0x24 PUSH1 0x0 REVERT JUMPDEST PUSH32 0x4E487B7100000000000000000000000000000000000000000000000000000000 PUSH1 0x0 MSTORE PUSH1 0x22 PUSH1 0x4 MSTORE PUSH1 0x24 PUSH1 0x0 REVERT JUMPDEST PUSH32 0x4E487B7100000000000000000000000000000000000000000000000000000000 PUSH1 0x0 MSTORE PUSH1 0x32 PUSH1 0x4 MSTORE PUSH1 0x24 PUSH1 0x0 REVERT JUMPDEST PUSH32 0x4E487B7100000000000000000000000000000000000000000000000000000000 PUSH1 0x0 MSTORE PUSH1 0x41 PUSH1 0x4 MSTORE PUSH1 0x24 PUSH1 0x0 REVERT JUMPDEST PUSH1 0x0 DUP1 REVERT JUMPDEST PUSH1 0x0 DUP1 REVERT JUMPDEST PUSH1 0x0 DUP1 REVERT JUMPDEST PUSH1 0x0 DUP1 REVERT JUMPDEST PUSH1 0x0 PUSH1 0x1F NOT PUSH1 0x1F DUP4 ADD AND SWAP1 POP SWAP2 SWAP1 POP JUMP JUMPDEST PUSH2 0x960 DUP2 PUSH2 0x74C JUMP JUMPDEST DUP2 EQ PUSH2 0x96B JUMPI PUSH1 0x0 DUP1 REVERT JUMPDEST POP JUMP INVALID LOG2 PUSH5 0x6970667358 0x22 SLT KECCAK256 PUSH11 0x98A723E6C0D06347E6C18B 0xF9 DUP1 BASEFEE DUP16 0xE8 SHL LOG4 DUP13 0xE9 EXP STATICCALL 0xCD 0x49 0xB3 0x28 PUSH24 0x13B23F4664736F6C63430008070033000000000000000000 "
				},
				"gasEstimates": {
					"creation": {
						"codeDepositCost": "493600",
						"executionCost": "530",
						"totalCost": "494130"
					},
					"external": {
						"push(string,address)": "infinite",
						"retrieve()": "infinite"
					}
				},
				"methodIdentifiers": {
					"push(string,address)": "1c6a089c",
					"retrieve()": "2e64cec1"
				}
			},
			"storageLayout": {
				"storage": [
					{
						"astId": 6,
						"contract": "contracts/1_Storage.sol:Storage",
						"label": "store",
						"offset": 0,
						"slot": "0",
						"type": "t_mapping(t_address,t_string_storage)"
					},
					{
						"astId": 9,
						"contract": "contracts/1_Storage.sol:Storage",
						"label": "addresses",
						"offset": 0,
						"slot": "1",
						"type": "t_array(t_address)dyn_storage"
					}
				],
				"types": {
					"t_address": {
						"encoding": "inplace",
						"label": "address",
						"numberOfBytes": "20"
					},
					"t_array(t_address)dyn_storage": {
						"base": "t_address",
						"encoding": "dynamic_array",
						"label": "address[]",
						"numberOfBytes": "32"
					},
					"t_mapping(t_address,t_string_storage)": {
						"encoding": "mapping",
						"key": "t_address",
						"label": "mapping(address => string)",
						"numberOfBytes": "32",
						"value": "t_string_storage"
					},
					"t_string_storage": {
						"encoding": "bytes",
						"label": "string",
						"numberOfBytes": "32"
					}
				}
			},
			"userdoc": {
				"kind": "user",
				"methods": {},
				"version": 1
			}
		}
	}
}