{
	"contracts/1_Storage.sol": {
		"Storage": {
			"abi": [
				{
					"inputs": [
						{
							"internalType": "uint256",
							"name": "",
							"type": "uint256"
						}
					],
					"name": "address_book",
					"outputs": [
						{
							"internalType": "address",
							"name": "addr",
							"type": "address"
						},
						{
							"internalType": "string",
							"name": "data",
							"type": "string"
						}
					],
					"stateMutability": "view",
					"type": "function"
				},
				{
					"inputs": [],
					"name": "get_all",
					"outputs": [
						{
							"components": [
								{
									"internalType": "address",
									"name": "addr",
									"type": "address"
								},
								{
									"internalType": "string",
									"name": "data",
									"type": "string"
								}
							],
							"internalType": "struct Storage.Address_book[]",
							"name": "",
							"type": "tuple[]"
						}
					],
					"stateMutability": "view",
					"type": "function"
				},
				{
					"inputs": [],
					"name": "get_mine",
					"outputs": [
						{
							"internalType": "string[]",
							"name": "",
							"type": "string[]"
						}
					],
					"stateMutability": "view",
					"type": "function"
				},
				{
					"inputs": [
						{
							"internalType": "string",
							"name": "_text",
							"type": "string"
						}
					],
					"name": "push",
					"outputs": [],
					"stateMutability": "nonpayable",
					"type": "function"
				},
				{
					"inputs": [],
					"name": "suppress",
					"outputs": [
						{
							"components": [
								{
									"internalType": "address",
									"name": "addr",
									"type": "address"
								},
								{
									"internalType": "string",
									"name": "data",
									"type": "string"
								}
							],
							"internalType": "struct Storage.Address_book[]",
							"name": "",
							"type": "tuple[]"
						}
					],
					"stateMutability": "nonpayable",
					"type": "function"
				}
			],
			"devdoc": {
				"custom:dev-run-script": "./scripts/deploy_with_ethers.ts",
				"details": "Store & retrieve value in a variable",
				"kind": "dev",
				"methods": {},
				"title": "Storage",
				"version": 1
			},
			"evm": {
				"assembly": "    /* \"contracts/1_Storage.sol\":199:1370  contract Storage {... */\n  mstore(0x40, 0x80)\n  callvalue\n  dup1\n  iszero\n  tag_1\n  jumpi\n  0x00\n  dup1\n  revert\ntag_1:\n  pop\n  dataSize(sub_0)\n  dup1\n  dataOffset(sub_0)\n  0x00\n  codecopy\n  0x00\n  return\nstop\n\nsub_0: assembly {\n        /* \"contracts/1_Storage.sol\":199:1370  contract Storage {... */\n      mstore(0x40, 0x80)\n      callvalue\n      dup1\n      iszero\n      tag_1\n      jumpi\n      0x00\n      dup1\n      revert\n    tag_1:\n      pop\n      jumpi(tag_2, lt(calldatasize, 0x04))\n      shr(0xe0, calldataload(0x00))\n      dup1\n      0x18f97575\n      eq\n      tag_3\n      jumpi\n      dup1\n      0x4f3d057a\n      eq\n      tag_4\n      jumpi\n      dup1\n      0x880a3c86\n      eq\n      tag_5\n      jumpi\n      dup1\n      0xb1429303\n      eq\n      tag_6\n      jumpi\n      dup1\n      0xd7f40d7b\n      eq\n      tag_7\n      jumpi\n    tag_2:\n      0x00\n      dup1\n      revert\n        /* \"contracts/1_Storage.sol\":548:823  function suppress() external returns(Address_book[] memory)... */\n    tag_3:\n      tag_8\n      tag_9\n      jump\t// in\n    tag_8:\n      mload(0x40)\n      tag_10\n      swap2\n      swap1\n      tag_11\n      jump\t// in\n    tag_10:\n      mload(0x40)\n      dup1\n      swap2\n      sub\n      swap1\n      return\n        /* \"contracts/1_Storage.sol\":361:542  function push(string memory _text) external {... */\n    tag_4:\n      tag_12\n      0x04\n      dup1\n      calldatasize\n      sub\n      dup2\n      add\n      swap1\n      tag_13\n      swap2\n      swap1\n      tag_14\n      jump\t// in\n    tag_13:\n      tag_15\n      jump\t// in\n    tag_12:\n      stop\n        /* \"contracts/1_Storage.sol\":829:934  function get_all() external view returns(Address_book[] memory)... */\n    tag_5:\n      tag_16\n      tag_17\n      jump\t// in\n    tag_16:\n      mload(0x40)\n      tag_18\n      swap2\n      swap1\n      tag_11\n      jump\t// in\n    tag_18:\n      mload(0x40)\n      dup1\n      swap2\n      sub\n      swap1\n      return\n        /* \"contracts/1_Storage.sol\":319:353  Address_book[] public address_book */\n    tag_6:\n      tag_19\n      0x04\n      dup1\n      calldatasize\n      sub\n      dup2\n      add\n      swap1\n      tag_20\n      swap2\n      swap1\n      tag_21\n      jump\t// in\n    tag_20:\n      tag_22\n      jump\t// in\n    tag_19:\n      mload(0x40)\n      tag_23\n      swap3\n      swap2\n      swap1\n      tag_24\n      jump\t// in\n    tag_23:\n      mload(0x40)\n      dup1\n      swap2\n      sub\n      swap1\n      return\n        /* \"contracts/1_Storage.sol\":940:1368  function get_mine() public view returns(string[] memory)... */\n    tag_7:\n      tag_25\n      tag_26\n      jump\t// in\n    tag_25:\n      mload(0x40)\n      tag_27\n      swap2\n      swap1\n      tag_28\n      jump\t// in\n    tag_27:\n      mload(0x40)\n      dup1\n      swap2\n      sub\n      swap1\n      return\n        /* \"contracts/1_Storage.sol\":548:823  function suppress() external returns(Address_book[] memory)... */\n    tag_9:\n        /* \"contracts/1_Storage.sol\":585:606  Address_book[] memory */\n      0x60\n        /* \"contracts/1_Storage.sol\":635:641  uint i */\n      0x00\n        /* \"contracts/1_Storage.sol\":631:787  for(uint i = 0; i < address_book.length; i++)... */\n    tag_30:\n        /* \"contracts/1_Storage.sol\":651:663  address_book */\n      0x00\n        /* \"contracts/1_Storage.sol\":651:670  address_book.length */\n      dup1\n      sload\n      swap1\n      pop\n        /* \"contracts/1_Storage.sol\":647:648  i */\n      dup2\n        /* \"contracts/1_Storage.sol\":647:670  i < address_book.length */\n      lt\n        /* \"contracts/1_Storage.sol\":631:787  for(uint i = 0; i < address_book.length; i++)... */\n      iszero\n      tag_31\n      jumpi\n        /* \"contracts/1_Storage.sol\":726:736  msg.sender */\n      caller\n        /* \"contracts/1_Storage.sol\":702:736  address_book[i].addr == msg.sender */\n      0xffffffffffffffffffffffffffffffffffffffff\n      and\n        /* \"contracts/1_Storage.sol\":702:714  address_book */\n      0x00\n        /* \"contracts/1_Storage.sol\":715:716  i */\n      dup3\n        /* \"contracts/1_Storage.sol\":702:717  address_book[i] */\n      dup2\n      sload\n      dup2\n      lt\n      tag_33\n      jumpi\n      tag_34\n      tag_35\n      jump\t// in\n    tag_34:\n    tag_33:\n      swap1\n      0x00\n      mstore\n      keccak256(0x00, 0x20)\n      swap1\n      0x02\n      mul\n      add\n        /* \"contracts/1_Storage.sol\":702:722  address_book[i].addr */\n      0x00\n      add\n      0x00\n      swap1\n      sload\n      swap1\n      0x0100\n      exp\n      swap1\n      div\n      0xffffffffffffffffffffffffffffffffffffffff\n      and\n        /* \"contracts/1_Storage.sol\":702:736  address_book[i].addr == msg.sender */\n      0xffffffffffffffffffffffffffffffffffffffff\n      and\n      eq\n        /* \"contracts/1_Storage.sol\":699:776  if(address_book[i].addr == msg.sender)... */\n      iszero\n      tag_37\n      jumpi\n        /* \"contracts/1_Storage.sol\":761:773  address_book */\n      0x00\n        /* \"contracts/1_Storage.sol\":774:775  i */\n      dup2\n        /* \"contracts/1_Storage.sol\":761:776  address_book[i] */\n      dup2\n      sload\n      dup2\n      lt\n      tag_38\n      jumpi\n      tag_39\n      tag_35\n      jump\t// in\n    tag_39:\n    tag_38:\n      swap1\n      0x00\n      mstore\n      keccak256(0x00, 0x20)\n      swap1\n      0x02\n      mul\n      add\n      0x00\n        /* \"contracts/1_Storage.sol\":754:776  delete address_book[i] */\n      dup1\n      dup3\n      add\n      exp(0x0100, 0x00)\n      dup2\n      sload\n      swap1\n      0xffffffffffffffffffffffffffffffffffffffff\n      mul\n      not\n      and\n      swap1\n      sstore\n      0x01\n      dup3\n      add\n      0x00\n      tag_41\n      swap2\n      swap1\n      tag_42\n      jump\t// in\n    tag_41:\n      pop\n      pop\n        /* \"contracts/1_Storage.sol\":699:776  if(address_book[i].addr == msg.sender)... */\n    tag_37:\n        /* \"contracts/1_Storage.sol\":672:675  i++ */\n      dup1\n      dup1\n      tag_43\n      swap1\n      tag_44\n      jump\t// in\n    tag_43:\n      swap2\n      pop\n      pop\n        /* \"contracts/1_Storage.sol\":631:787  for(uint i = 0; i < address_book.length; i++)... */\n      jump(tag_30)\n    tag_31:\n      pop\n        /* \"contracts/1_Storage.sol\":803:815  address_book */\n      0x00\n        /* \"contracts/1_Storage.sol\":796:816  return(address_book) */\n      dup1\n      sload\n      dup1\n      0x20\n      mul\n      0x20\n      add\n      mload(0x40)\n      swap1\n      dup2\n      add\n      0x40\n      mstore\n      dup1\n      swap3\n      swap2\n      swap1\n      dup2\n      dup2\n      mstore\n      0x20\n      add\n      0x00\n      swap1\n    tag_45:\n      dup3\n      dup3\n      lt\n      iszero\n      tag_46\n      jumpi\n      dup4\n      dup3\n      swap1\n      0x00\n      mstore\n      keccak256(0x00, 0x20)\n      swap1\n      0x02\n      mul\n      add\n      mload(0x40)\n      dup1\n      0x40\n      add\n      0x40\n      mstore\n      swap1\n      dup2\n      0x00\n      dup3\n      add\n      0x00\n      swap1\n      sload\n      swap1\n      0x0100\n      exp\n      swap1\n      div\n      0xffffffffffffffffffffffffffffffffffffffff\n      and\n      0xffffffffffffffffffffffffffffffffffffffff\n      and\n      0xffffffffffffffffffffffffffffffffffffffff\n      and\n      dup2\n      mstore\n      0x20\n      add\n      0x01\n      dup3\n      add\n      dup1\n      sload\n      tag_48\n      swap1\n      tag_49\n      jump\t// in\n    tag_48:\n      dup1\n      0x1f\n      add\n      0x20\n      dup1\n      swap2\n      div\n      mul\n      0x20\n      add\n      mload(0x40)\n      swap1\n      dup2\n      add\n      0x40\n      mstore\n      dup1\n      swap3\n      swap2\n      swap1\n      dup2\n      dup2\n      mstore\n      0x20\n      add\n      dup3\n      dup1\n      sload\n      tag_50\n      swap1\n      tag_49\n      jump\t// in\n    tag_50:\n      dup1\n      iszero\n      tag_51\n      jumpi\n      dup1\n      0x1f\n      lt\n      tag_52\n      jumpi\n      0x0100\n      dup1\n      dup4\n      sload\n      div\n      mul\n      dup4\n      mstore\n      swap2\n      0x20\n      add\n      swap2\n      jump(tag_51)\n    tag_52:\n      dup3\n      add\n      swap2\n      swap1\n      0x00\n      mstore\n      keccak256(0x00, 0x20)\n      swap1\n    tag_53:\n      dup2\n      sload\n      dup2\n      mstore\n      swap1\n      0x01\n      add\n      swap1\n      0x20\n      add\n      dup1\n      dup4\n      gt\n      tag_53\n      jumpi\n      dup3\n      swap1\n      sub\n      0x1f\n      and\n      dup3\n      add\n      swap2\n    tag_51:\n      pop\n      pop\n      pop\n      pop\n      pop\n      dup2\n      mstore\n      pop\n      pop\n      dup2\n      mstore\n      0x20\n      add\n      swap1\n      0x01\n      add\n      swap1\n      jump(tag_45)\n    tag_46:\n      pop\n      pop\n      pop\n      pop\n      swap1\n      pop\n        /* \"contracts/1_Storage.sol\":548:823  function suppress() external returns(Address_book[] memory)... */\n      swap1\n      jump\t// out\n        /* \"contracts/1_Storage.sol\":361:542  function push(string memory _text) external {... */\n    tag_15:\n        /* \"contracts/1_Storage.sol\":415:440  Address_book memory entry */\n      tag_55\n      tag_56\n      jump\t// in\n    tag_55:\n        /* \"contracts/1_Storage.sol\":463:473  msg.sender */\n      caller\n        /* \"contracts/1_Storage.sol\":450:455  entry */\n      dup2\n        /* \"contracts/1_Storage.sol\":450:460  entry.addr */\n      0x00\n      add\n        /* \"contracts/1_Storage.sol\":450:473  entry.addr = msg.sender */\n      swap1\n      0xffffffffffffffffffffffffffffffffffffffff\n      and\n      swap1\n      dup2\n      0xffffffffffffffffffffffffffffffffffffffff\n      and\n      dup2\n      mstore\n      pop\n      pop\n        /* \"contracts/1_Storage.sol\":496:501  _text */\n      dup2\n        /* \"contracts/1_Storage.sol\":483:488  entry */\n      dup2\n        /* \"contracts/1_Storage.sol\":483:493  entry.data */\n      0x20\n      add\n        /* \"contracts/1_Storage.sol\":483:501  entry.data = _text */\n      dup2\n      swap1\n      mstore\n      pop\n        /* \"contracts/1_Storage.sol\":511:523  address_book */\n      0x00\n        /* \"contracts/1_Storage.sol\":529:534  entry */\n      dup2\n        /* \"contracts/1_Storage.sol\":511:535  address_book.push(entry) */\n      swap1\n      dup1\n      0x01\n      dup2\n      sload\n      add\n      dup1\n      dup3\n      sstore\n      dup1\n      swap2\n      pop\n      pop\n      0x01\n      swap1\n      sub\n      swap1\n      0x00\n      mstore\n      keccak256(0x00, 0x20)\n      swap1\n      0x02\n      mul\n      add\n      0x00\n      swap1\n      swap2\n      swap1\n      swap2\n      swap1\n      swap2\n      pop\n      0x00\n      dup3\n      add\n      mload\n      dup2\n      0x00\n      add\n      exp(0x0100, 0x00)\n      dup2\n      sload\n      dup2\n      0xffffffffffffffffffffffffffffffffffffffff\n      mul\n      not\n      and\n      swap1\n      dup4\n      0xffffffffffffffffffffffffffffffffffffffff\n      and\n      mul\n      or\n      swap1\n      sstore\n      pop\n      0x20\n      dup3\n      add\n      mload\n      dup2\n      0x01\n      add\n      swap1\n      dup1\n      mload\n      swap1\n      0x20\n      add\n      swap1\n      tag_58\n      swap3\n      swap2\n      swap1\n      tag_59\n      jump\t// in\n    tag_58:\n      pop\n      pop\n      pop\n        /* \"contracts/1_Storage.sol\":405:542  {... */\n      pop\n        /* \"contracts/1_Storage.sol\":361:542  function push(string memory _text) external {... */\n      pop\n      jump\t// out\n        /* \"contracts/1_Storage.sol\":829:934  function get_all() external view returns(Address_book[] memory)... */\n    tag_17:\n        /* \"contracts/1_Storage.sol\":870:891  Address_book[] memory */\n      0x60\n        /* \"contracts/1_Storage.sol\":914:926  address_book */\n      0x00\n        /* \"contracts/1_Storage.sol\":907:927  return(address_book) */\n      dup1\n      sload\n      dup1\n      0x20\n      mul\n      0x20\n      add\n      mload(0x40)\n      swap1\n      dup2\n      add\n      0x40\n      mstore\n      dup1\n      swap3\n      swap2\n      swap1\n      dup2\n      dup2\n      mstore\n      0x20\n      add\n      0x00\n      swap1\n    tag_61:\n      dup3\n      dup3\n      lt\n      iszero\n      tag_62\n      jumpi\n      dup4\n      dup3\n      swap1\n      0x00\n      mstore\n      keccak256(0x00, 0x20)\n      swap1\n      0x02\n      mul\n      add\n      mload(0x40)\n      dup1\n      0x40\n      add\n      0x40\n      mstore\n      swap1\n      dup2\n      0x00\n      dup3\n      add\n      0x00\n      swap1\n      sload\n      swap1\n      0x0100\n      exp\n      swap1\n      div\n      0xffffffffffffffffffffffffffffffffffffffff\n      and\n      0xffffffffffffffffffffffffffffffffffffffff\n      and\n      0xffffffffffffffffffffffffffffffffffffffff\n      and\n      dup2\n      mstore\n      0x20\n      add\n      0x01\n      dup3\n      add\n      dup1\n      sload\n      tag_64\n      swap1\n      tag_49\n      jump\t// in\n    tag_64:\n      dup1\n      0x1f\n      add\n      0x20\n      dup1\n      swap2\n      div\n      mul\n      0x20\n      add\n      mload(0x40)\n      swap1\n      dup2\n      add\n      0x40\n      mstore\n      dup1\n      swap3\n      swap2\n      swap1\n      dup2\n      dup2\n      mstore\n      0x20\n      add\n      dup3\n      dup1\n      sload\n      tag_65\n      swap1\n      tag_49\n      jump\t// in\n    tag_65:\n      dup1\n      iszero\n      tag_66\n      jumpi\n      dup1\n      0x1f\n      lt\n      tag_67\n      jumpi\n      0x0100\n      dup1\n      dup4\n      sload\n      div\n      mul\n      dup4\n      mstore\n      swap2\n      0x20\n      add\n      swap2\n      jump(tag_66)\n    tag_67:\n      dup3\n      add\n      swap2\n      swap1\n      0x00\n      mstore\n      keccak256(0x00, 0x20)\n      swap1\n    tag_68:\n      dup2\n      sload\n      dup2\n      mstore\n      swap1\n      0x01\n      add\n      swap1\n      0x20\n      add\n      dup1\n      dup4\n      gt\n      tag_68\n      jumpi\n      dup3\n      swap1\n      sub\n      0x1f\n      and\n      dup3\n      add\n      swap2\n    tag_66:\n      pop\n      pop\n      pop\n      pop\n      pop\n      dup2\n      mstore\n      pop\n      pop\n      dup2\n      mstore\n      0x20\n      add\n      swap1\n      0x01\n      add\n      swap1\n      jump(tag_61)\n    tag_62:\n      pop\n      pop\n      pop\n      pop\n      swap1\n      pop\n        /* \"contracts/1_Storage.sol\":829:934  function get_all() external view returns(Address_book[] memory)... */\n      swap1\n      jump\t// out\n        /* \"contracts/1_Storage.sol\":319:353  Address_book[] public address_book */\n    tag_22:\n      0x00\n      dup2\n      dup2\n      sload\n      dup2\n      lt\n      tag_69\n      jumpi\n      0x00\n      dup1\n      revert\n    tag_69:\n      swap1\n      0x00\n      mstore\n      keccak256(0x00, 0x20)\n      swap1\n      0x02\n      mul\n      add\n      0x00\n      swap2\n      pop\n      swap1\n      pop\n      dup1\n      0x00\n      add\n      0x00\n      swap1\n      sload\n      swap1\n      0x0100\n      exp\n      swap1\n      div\n      0xffffffffffffffffffffffffffffffffffffffff\n      and\n      swap1\n      dup1\n      0x01\n      add\n      dup1\n      sload\n      tag_71\n      swap1\n      tag_49\n      jump\t// in\n    tag_71:\n      dup1\n      0x1f\n      add\n      0x20\n      dup1\n      swap2\n      div\n      mul\n      0x20\n      add\n      mload(0x40)\n      swap1\n      dup2\n      add\n      0x40\n      mstore\n      dup1\n      swap3\n      swap2\n      swap1\n      dup2\n      dup2\n      mstore\n      0x20\n      add\n      dup3\n      dup1\n      sload\n      tag_72\n      swap1\n      tag_49\n      jump\t// in\n    tag_72:\n      dup1\n      iszero\n      tag_73\n      jumpi\n      dup1\n      0x1f\n      lt\n      tag_74\n      jumpi\n      0x0100\n      dup1\n      dup4\n      sload\n      div\n      mul\n      dup4\n      mstore\n      swap2\n      0x20\n      add\n      swap2\n      jump(tag_73)\n    tag_74:\n      dup3\n      add\n      swap2\n      swap1\n      0x00\n      mstore\n      keccak256(0x00, 0x20)\n      swap1\n    tag_75:\n      dup2\n      sload\n      dup2\n      mstore\n      swap1\n      0x01\n      add\n      swap1\n      0x20\n      add\n      dup1\n      dup4\n      gt\n      tag_75\n      jumpi\n      dup3\n      swap1\n      sub\n      0x1f\n      and\n      dup3\n      add\n      swap2\n    tag_73:\n      pop\n      pop\n      pop\n      pop\n      pop\n      swap1\n      pop\n      dup3\n      jump\t// out\n        /* \"contracts/1_Storage.sol\":940:1368  function get_mine() public view returns(string[] memory)... */\n    tag_26:\n        /* \"contracts/1_Storage.sol\":980:995  string[] memory */\n      0x60\n        /* \"contracts/1_Storage.sol\":1011:1039  string[] memory address_data */\n      0x00\n        /* \"contracts/1_Storage.sol\":1056:1068  address_book */\n      dup1\n        /* \"contracts/1_Storage.sol\":1056:1075  address_book.length */\n      dup1\n      sload\n      swap1\n      pop\n        /* \"contracts/1_Storage.sol\":1043:1076  new string[](address_book.length) */\n      0xffffffffffffffff\n      dup2\n      gt\n      iszero\n      tag_77\n      jumpi\n      tag_78\n      tag_79\n      jump\t// in\n    tag_78:\n    tag_77:\n      mload(0x40)\n      swap1\n      dup1\n      dup3\n      mstore\n      dup1\n      0x20\n      mul\n      0x20\n      add\n      dup3\n      add\n      0x40\n      mstore\n      dup1\n      iszero\n      tag_80\n      jumpi\n      dup2\n      0x20\n      add\n    tag_81:\n      0x60\n      dup2\n      mstore\n      0x20\n      add\n      swap1\n      0x01\n      swap1\n      sub\n      swap1\n      dup2\n      tag_81\n      jumpi\n      swap1\n      pop\n    tag_80:\n      pop\n        /* \"contracts/1_Storage.sol\":1011:1076  string[] memory address_data =  new string[](address_book.length) */\n      swap1\n      pop\n        /* \"contracts/1_Storage.sol\":1086:1092  uint j */\n      0x00\n        /* \"contracts/1_Storage.sol\":1115:1121  uint i */\n      dup1\n        /* \"contracts/1_Storage.sol\":1111:1332  for(uint i = 0; i < address_book.length; i++)... */\n    tag_82:\n        /* \"contracts/1_Storage.sol\":1131:1143  address_book */\n      0x00\n        /* \"contracts/1_Storage.sol\":1131:1150  address_book.length */\n      dup1\n      sload\n      swap1\n      pop\n        /* \"contracts/1_Storage.sol\":1127:1128  i */\n      dup2\n        /* \"contracts/1_Storage.sol\":1127:1150  i < address_book.length */\n      lt\n        /* \"contracts/1_Storage.sol\":1111:1332  for(uint i = 0; i < address_book.length; i++)... */\n      iszero\n      tag_83\n      jumpi\n        /* \"contracts/1_Storage.sol\":1206:1216  msg.sender */\n      caller\n        /* \"contracts/1_Storage.sol\":1182:1216  address_book[i].addr == msg.sender */\n      0xffffffffffffffffffffffffffffffffffffffff\n      and\n        /* \"contracts/1_Storage.sol\":1182:1194  address_book */\n      0x00\n        /* \"contracts/1_Storage.sol\":1195:1196  i */\n      dup3\n        /* \"contracts/1_Storage.sol\":1182:1197  address_book[i] */\n      dup2\n      sload\n      dup2\n      lt\n      tag_85\n      jumpi\n      tag_86\n      tag_35\n      jump\t// in\n    tag_86:\n    tag_85:\n      swap1\n      0x00\n      mstore\n      keccak256(0x00, 0x20)\n      swap1\n      0x02\n      mul\n      add\n        /* \"contracts/1_Storage.sol\":1182:1202  address_book[i].addr */\n      0x00\n      add\n      0x00\n      swap1\n      sload\n      swap1\n      0x0100\n      exp\n      swap1\n      div\n      0xffffffffffffffffffffffffffffffffffffffff\n      and\n        /* \"contracts/1_Storage.sol\":1182:1216  address_book[i].addr == msg.sender */\n      0xffffffffffffffffffffffffffffffffffffffff\n      and\n      eq\n        /* \"contracts/1_Storage.sol\":1179:1322  if(address_book[i].addr == msg.sender)... */\n      iszero\n      tag_88\n      jumpi\n        /* \"contracts/1_Storage.sol\":1266:1278  address_book */\n      0x00\n        /* \"contracts/1_Storage.sol\":1279:1280  i */\n      dup2\n        /* \"contracts/1_Storage.sol\":1266:1281  address_book[i] */\n      dup2\n      sload\n      dup2\n      lt\n      tag_89\n      jumpi\n      tag_90\n      tag_35\n      jump\t// in\n    tag_90:\n    tag_89:\n      swap1\n      0x00\n      mstore\n      keccak256(0x00, 0x20)\n      swap1\n      0x02\n      mul\n      add\n        /* \"contracts/1_Storage.sol\":1266:1286  address_book[i].data */\n      0x01\n      add\n        /* \"contracts/1_Storage.sol\":1248:1286  address_data[j] = address_book[i].data */\n      dup1\n      sload\n      tag_92\n      swap1\n      tag_49\n      jump\t// in\n    tag_92:\n      dup1\n      0x1f\n      add\n      0x20\n      dup1\n      swap2\n      div\n      mul\n      0x20\n      add\n      mload(0x40)\n      swap1\n      dup2\n      add\n      0x40\n      mstore\n      dup1\n      swap3\n      swap2\n      swap1\n      dup2\n      dup2\n      mstore\n      0x20\n      add\n      dup3\n      dup1\n      sload\n      tag_93\n      swap1\n      tag_49\n      jump\t// in\n    tag_93:\n      dup1\n      iszero\n      tag_94\n      jumpi\n      dup1\n      0x1f\n      lt\n      tag_95\n      jumpi\n      0x0100\n      dup1\n      dup4\n      sload\n      div\n      mul\n      dup4\n      mstore\n      swap2\n      0x20\n      add\n      swap2\n      jump(tag_94)\n    tag_95:\n      dup3\n      add\n      swap2\n      swap1\n      0x00\n      mstore\n      keccak256(0x00, 0x20)\n      swap1\n    tag_96:\n      dup2\n      sload\n      dup2\n      mstore\n      swap1\n      0x01\n      add\n      swap1\n      0x20\n      add\n      dup1\n      dup4\n      gt\n      tag_96\n      jumpi\n      dup3\n      swap1\n      sub\n      0x1f\n      and\n      dup3\n      add\n      swap2\n    tag_94:\n      pop\n      pop\n      pop\n      pop\n      pop\n        /* \"contracts/1_Storage.sol\":1248:1260  address_data */\n      dup4\n        /* \"contracts/1_Storage.sol\":1261:1262  j */\n      dup4\n        /* \"contracts/1_Storage.sol\":1248:1263  address_data[j] */\n      dup2\n      mload\n      dup2\n      lt\n      tag_97\n      jumpi\n      tag_98\n      tag_35\n      jump\t// in\n    tag_98:\n    tag_97:\n      0x20\n      mul\n      0x20\n      add\n      add\n        /* \"contracts/1_Storage.sol\":1248:1286  address_data[j] = address_book[i].data */\n      dup2\n      swap1\n      mstore\n      pop\n        /* \"contracts/1_Storage.sol\":1304:1307  j++ */\n      dup2\n      dup1\n      tag_99\n      swap1\n      tag_44\n      jump\t// in\n    tag_99:\n      swap3\n      pop\n      pop\n        /* \"contracts/1_Storage.sol\":1179:1322  if(address_book[i].addr == msg.sender)... */\n    tag_88:\n        /* \"contracts/1_Storage.sol\":1152:1155  i++ */\n      dup1\n      dup1\n      tag_100\n      swap1\n      tag_44\n      jump\t// in\n    tag_100:\n      swap2\n      pop\n      pop\n        /* \"contracts/1_Storage.sol\":1111:1332  for(uint i = 0; i < address_book.length; i++)... */\n      jump(tag_82)\n    tag_83:\n      pop\n        /* \"contracts/1_Storage.sol\":1348:1360  address_data */\n      dup2\n        /* \"contracts/1_Storage.sol\":1341:1361  return(address_data) */\n      swap3\n      pop\n      pop\n      pop\n        /* \"contracts/1_Storage.sol\":940:1368  function get_mine() public view returns(string[] memory)... */\n      swap1\n      jump\t// out\n    tag_42:\n      pop\n      dup1\n      sload\n      tag_101\n      swap1\n      tag_49\n      jump\t// in\n    tag_101:\n      0x00\n      dup3\n      sstore\n      dup1\n      0x1f\n      lt\n      tag_103\n      jumpi\n      pop\n      jump(tag_102)\n    tag_103:\n      0x1f\n      add\n      0x20\n      swap1\n      div\n      swap1\n      0x00\n      mstore\n      keccak256(0x00, 0x20)\n      swap1\n      dup2\n      add\n      swap1\n      tag_104\n      swap2\n      swap1\n      tag_105\n      jump\t// in\n    tag_104:\n    tag_102:\n      pop\n      jump\t// out\n    tag_56:\n      mload(0x40)\n      dup1\n      0x40\n      add\n      0x40\n      mstore\n      dup1\n      and(0xffffffffffffffffffffffffffffffffffffffff, 0x00)\n      dup2\n      mstore\n      0x20\n      add\n      0x60\n      dup2\n      mstore\n      pop\n      swap1\n      jump\t// out\n    tag_59:\n      dup3\n      dup1\n      sload\n      tag_106\n      swap1\n      tag_49\n      jump\t// in\n    tag_106:\n      swap1\n      0x00\n      mstore\n      keccak256(0x00, 0x20)\n      swap1\n      0x1f\n      add\n      0x20\n      swap1\n      div\n      dup2\n      add\n      swap3\n      dup3\n      tag_108\n      jumpi\n      0x00\n      dup6\n      sstore\n      jump(tag_107)\n    tag_108:\n      dup3\n      0x1f\n      lt\n      tag_109\n      jumpi\n      dup1\n      mload\n      not(0xff)\n      and\n      dup4\n      dup1\n      add\n      or\n      dup6\n      sstore\n      jump(tag_107)\n    tag_109:\n      dup3\n      dup1\n      add\n      0x01\n      add\n      dup6\n      sstore\n      dup3\n      iszero\n      tag_107\n      jumpi\n      swap2\n      dup3\n      add\n    tag_110:\n      dup3\n      dup2\n      gt\n      iszero\n      tag_111\n      jumpi\n      dup3\n      mload\n      dup3\n      sstore\n      swap2\n      0x20\n      add\n      swap2\n      swap1\n      0x01\n      add\n      swap1\n      jump(tag_110)\n    tag_111:\n    tag_107:\n      pop\n      swap1\n      pop\n      tag_112\n      swap2\n      swap1\n      tag_105\n      jump\t// in\n    tag_112:\n      pop\n      swap1\n      jump\t// out\n    tag_105:\n    tag_113:\n      dup1\n      dup3\n      gt\n      iszero\n      tag_114\n      jumpi\n      0x00\n      dup2\n      0x00\n      swap1\n      sstore\n      pop\n      0x01\n      add\n      jump(tag_113)\n    tag_114:\n      pop\n      swap1\n      jump\t// out\n        /* \"#utility.yul\":7:419   */\n    tag_116:\n        /* \"#utility.yul\":85:90   */\n      0x00\n        /* \"#utility.yul\":110:176   */\n      tag_118\n        /* \"#utility.yul\":126:175   */\n      tag_119\n        /* \"#utility.yul\":168:174   */\n      dup5\n        /* \"#utility.yul\":126:175   */\n      tag_120\n      jump\t// in\n    tag_119:\n        /* \"#utility.yul\":110:176   */\n      tag_121\n      jump\t// in\n    tag_118:\n        /* \"#utility.yul\":101:176   */\n      swap1\n      pop\n        /* \"#utility.yul\":199:205   */\n      dup3\n        /* \"#utility.yul\":192:197   */\n      dup2\n        /* \"#utility.yul\":185:206   */\n      mstore\n        /* \"#utility.yul\":237:241   */\n      0x20\n        /* \"#utility.yul\":230:235   */\n      dup2\n        /* \"#utility.yul\":226:242   */\n      add\n        /* \"#utility.yul\":275:278   */\n      dup5\n        /* \"#utility.yul\":266:272   */\n      dup5\n        /* \"#utility.yul\":261:264   */\n      dup5\n        /* \"#utility.yul\":257:273   */\n      add\n        /* \"#utility.yul\":254:279   */\n      gt\n        /* \"#utility.yul\":251:363   */\n      iszero\n      tag_122\n      jumpi\n        /* \"#utility.yul\":282:361   */\n      tag_123\n      tag_124\n      jump\t// in\n    tag_123:\n        /* \"#utility.yul\":251:363   */\n    tag_122:\n        /* \"#utility.yul\":372:413   */\n      tag_125\n        /* \"#utility.yul\":406:412   */\n      dup5\n        /* \"#utility.yul\":401:404   */\n      dup3\n        /* \"#utility.yul\":396:399   */\n      dup6\n        /* \"#utility.yul\":372:413   */\n      tag_126\n      jump\t// in\n    tag_125:\n        /* \"#utility.yul\":91:419   */\n      pop\n        /* \"#utility.yul\":7:419   */\n      swap4\n      swap3\n      pop\n      pop\n      pop\n      jump\t// out\n        /* \"#utility.yul\":439:779   */\n    tag_127:\n        /* \"#utility.yul\":495:500   */\n      0x00\n        /* \"#utility.yul\":544:547   */\n      dup3\n        /* \"#utility.yul\":537:541   */\n      0x1f\n        /* \"#utility.yul\":529:535   */\n      dup4\n        /* \"#utility.yul\":525:542   */\n      add\n        /* \"#utility.yul\":521:548   */\n      slt\n        /* \"#utility.yul\":511:633   */\n      tag_129\n      jumpi\n        /* \"#utility.yul\":552:631   */\n      tag_130\n      tag_131\n      jump\t// in\n    tag_130:\n        /* \"#utility.yul\":511:633   */\n    tag_129:\n        /* \"#utility.yul\":669:675   */\n      dup2\n        /* \"#utility.yul\":656:676   */\n      calldataload\n        /* \"#utility.yul\":694:773   */\n      tag_132\n        /* \"#utility.yul\":769:772   */\n      dup5\n        /* \"#utility.yul\":761:767   */\n      dup3\n        /* \"#utility.yul\":754:758   */\n      0x20\n        /* \"#utility.yul\":746:752   */\n      dup7\n        /* \"#utility.yul\":742:759   */\n      add\n        /* \"#utility.yul\":694:773   */\n      tag_116\n      jump\t// in\n    tag_132:\n        /* \"#utility.yul\":685:773   */\n      swap2\n      pop\n        /* \"#utility.yul\":501:779   */\n      pop\n        /* \"#utility.yul\":439:779   */\n      swap3\n      swap2\n      pop\n      pop\n      jump\t// out\n        /* \"#utility.yul\":785:924   */\n    tag_133:\n        /* \"#utility.yul\":831:836   */\n      0x00\n        /* \"#utility.yul\":869:875   */\n      dup2\n        /* \"#utility.yul\":856:876   */\n      calldataload\n        /* \"#utility.yul\":847:876   */\n      swap1\n      pop\n        /* \"#utility.yul\":885:918   */\n      tag_135\n        /* \"#utility.yul\":912:917   */\n      dup2\n        /* \"#utility.yul\":885:918   */\n      tag_136\n      jump\t// in\n    tag_135:\n        /* \"#utility.yul\":785:924   */\n      swap3\n      swap2\n      pop\n      pop\n      jump\t// out\n        /* \"#utility.yul\":930:1439   */\n    tag_14:\n        /* \"#utility.yul\":999:1005   */\n      0x00\n        /* \"#utility.yul\":1048:1050   */\n      0x20\n        /* \"#utility.yul\":1036:1045   */\n      dup3\n        /* \"#utility.yul\":1027:1034   */\n      dup5\n        /* \"#utility.yul\":1023:1046   */\n      sub\n        /* \"#utility.yul\":1019:1051   */\n      slt\n        /* \"#utility.yul\":1016:1135   */\n      iszero\n      tag_138\n      jumpi\n        /* \"#utility.yul\":1054:1133   */\n      tag_139\n      tag_140\n      jump\t// in\n    tag_139:\n        /* \"#utility.yul\":1016:1135   */\n    tag_138:\n        /* \"#utility.yul\":1202:1203   */\n      0x00\n        /* \"#utility.yul\":1191:1200   */\n      dup3\n        /* \"#utility.yul\":1187:1204   */\n      add\n        /* \"#utility.yul\":1174:1205   */\n      calldataload\n        /* \"#utility.yul\":1232:1250   */\n      0xffffffffffffffff\n        /* \"#utility.yul\":1224:1230   */\n      dup2\n        /* \"#utility.yul\":1221:1251   */\n      gt\n        /* \"#utility.yul\":1218:1335   */\n      iszero\n      tag_141\n      jumpi\n        /* \"#utility.yul\":1254:1333   */\n      tag_142\n      tag_143\n      jump\t// in\n    tag_142:\n        /* \"#utility.yul\":1218:1335   */\n    tag_141:\n        /* \"#utility.yul\":1359:1422   */\n      tag_144\n        /* \"#utility.yul\":1414:1421   */\n      dup5\n        /* \"#utility.yul\":1405:1411   */\n      dup3\n        /* \"#utility.yul\":1394:1403   */\n      dup6\n        /* \"#utility.yul\":1390:1412   */\n      add\n        /* \"#utility.yul\":1359:1422   */\n      tag_127\n      jump\t// in\n    tag_144:\n        /* \"#utility.yul\":1349:1422   */\n      swap2\n      pop\n        /* \"#utility.yul\":1145:1432   */\n      pop\n        /* \"#utility.yul\":930:1439   */\n      swap3\n      swap2\n      pop\n      pop\n      jump\t// out\n        /* \"#utility.yul\":1445:1774   */\n    tag_21:\n        /* \"#utility.yul\":1504:1510   */\n      0x00\n        /* \"#utility.yul\":1553:1555   */\n      0x20\n        /* \"#utility.yul\":1541:1550   */\n      dup3\n        /* \"#utility.yul\":1532:1539   */\n      dup5\n        /* \"#utility.yul\":1528:1551   */\n      sub\n        /* \"#utility.yul\":1524:1556   */\n      slt\n        /* \"#utility.yul\":1521:1640   */\n      iszero\n      tag_146\n      jumpi\n        /* \"#utility.yul\":1559:1638   */\n      tag_147\n      tag_140\n      jump\t// in\n    tag_147:\n        /* \"#utility.yul\":1521:1640   */\n    tag_146:\n        /* \"#utility.yul\":1679:1680   */\n      0x00\n        /* \"#utility.yul\":1704:1757   */\n      tag_148\n        /* \"#utility.yul\":1749:1756   */\n      dup5\n        /* \"#utility.yul\":1740:1746   */\n      dup3\n        /* \"#utility.yul\":1729:1738   */\n      dup6\n        /* \"#utility.yul\":1725:1747   */\n      add\n        /* \"#utility.yul\":1704:1757   */\n      tag_133\n      jump\t// in\n    tag_148:\n        /* \"#utility.yul\":1694:1757   */\n      swap2\n      pop\n        /* \"#utility.yul\":1650:1767   */\n      pop\n        /* \"#utility.yul\":1445:1774   */\n      swap3\n      swap2\n      pop\n      pop\n      jump\t// out\n        /* \"#utility.yul\":1780:1976   */\n    tag_149:\n        /* \"#utility.yul\":1869:1879   */\n      0x00\n        /* \"#utility.yul\":1904:1970   */\n      tag_151\n        /* \"#utility.yul\":1966:1969   */\n      dup4\n        /* \"#utility.yul\":1958:1964   */\n      dup4\n        /* \"#utility.yul\":1904:1970   */\n      tag_152\n      jump\t// in\n    tag_151:\n        /* \"#utility.yul\":1890:1970   */\n      swap1\n      pop\n        /* \"#utility.yul\":1780:1976   */\n      swap3\n      swap2\n      pop\n      pop\n      jump\t// out\n        /* \"#utility.yul\":1982:2246   */\n    tag_153:\n        /* \"#utility.yul\":2105:2115   */\n      0x00\n        /* \"#utility.yul\":2140:2240   */\n      tag_155\n        /* \"#utility.yul\":2236:2239   */\n      dup4\n        /* \"#utility.yul\":2228:2234   */\n      dup4\n        /* \"#utility.yul\":2140:2240   */\n      tag_156\n      jump\t// in\n    tag_155:\n        /* \"#utility.yul\":2126:2240   */\n      swap1\n      pop\n        /* \"#utility.yul\":1982:2246   */\n      swap3\n      swap2\n      pop\n      pop\n      jump\t// out\n        /* \"#utility.yul\":2252:2360   */\n    tag_157:\n        /* \"#utility.yul\":2329:2353   */\n      tag_159\n        /* \"#utility.yul\":2347:2352   */\n      dup2\n        /* \"#utility.yul\":2329:2353   */\n      tag_160\n      jump\t// in\n    tag_159:\n        /* \"#utility.yul\":2324:2327   */\n      dup3\n        /* \"#utility.yul\":2317:2354   */\n      mstore\n        /* \"#utility.yul\":2252:2360   */\n      pop\n      pop\n      jump\t// out\n        /* \"#utility.yul\":2366:2484   */\n    tag_161:\n        /* \"#utility.yul\":2453:2477   */\n      tag_163\n        /* \"#utility.yul\":2471:2476   */\n      dup2\n        /* \"#utility.yul\":2453:2477   */\n      tag_160\n      jump\t// in\n    tag_163:\n        /* \"#utility.yul\":2448:2451   */\n      dup3\n        /* \"#utility.yul\":2441:2478   */\n      mstore\n        /* \"#utility.yul\":2366:2484   */\n      pop\n      pop\n      jump\t// out\n        /* \"#utility.yul\":2518:3509   */\n    tag_164:\n        /* \"#utility.yul\":2657:2660   */\n      0x00\n        /* \"#utility.yul\":2686:2750   */\n      tag_166\n        /* \"#utility.yul\":2744:2749   */\n      dup3\n        /* \"#utility.yul\":2686:2750   */\n      tag_167\n      jump\t// in\n    tag_166:\n        /* \"#utility.yul\":2766:2862   */\n      tag_168\n        /* \"#utility.yul\":2855:2861   */\n      dup2\n        /* \"#utility.yul\":2850:2853   */\n      dup6\n        /* \"#utility.yul\":2766:2862   */\n      tag_169\n      jump\t// in\n    tag_168:\n        /* \"#utility.yul\":2759:2862   */\n      swap4\n      pop\n        /* \"#utility.yul\":2888:2891   */\n      dup4\n        /* \"#utility.yul\":2933:2937   */\n      0x20\n        /* \"#utility.yul\":2925:2931   */\n      dup3\n        /* \"#utility.yul\":2921:2938   */\n      mul\n        /* \"#utility.yul\":2916:2919   */\n      dup6\n        /* \"#utility.yul\":2912:2939   */\n      add\n        /* \"#utility.yul\":2963:3029   */\n      tag_170\n        /* \"#utility.yul\":3023:3028   */\n      dup6\n        /* \"#utility.yul\":2963:3029   */\n      tag_171\n      jump\t// in\n    tag_170:\n        /* \"#utility.yul\":3052:3059   */\n      dup1\n        /* \"#utility.yul\":3083:3084   */\n      0x00\n        /* \"#utility.yul\":3068:3464   */\n    tag_172:\n        /* \"#utility.yul\":3093:3099   */\n      dup6\n        /* \"#utility.yul\":3090:3091   */\n      dup2\n        /* \"#utility.yul\":3087:3100   */\n      lt\n        /* \"#utility.yul\":3068:3464   */\n      iszero\n      tag_174\n      jumpi\n        /* \"#utility.yul\":3164:3173   */\n      dup5\n        /* \"#utility.yul\":3158:3162   */\n      dup5\n        /* \"#utility.yul\":3154:3174   */\n      sub\n        /* \"#utility.yul\":3149:3152   */\n      dup10\n        /* \"#utility.yul\":3142:3175   */\n      mstore\n        /* \"#utility.yul\":3215:3221   */\n      dup2\n        /* \"#utility.yul\":3209:3222   */\n      mload\n        /* \"#utility.yul\":3243:3327   */\n      tag_175\n        /* \"#utility.yul\":3322:3326   */\n      dup6\n        /* \"#utility.yul\":3307:3320   */\n      dup3\n        /* \"#utility.yul\":3243:3327   */\n      tag_149\n      jump\t// in\n    tag_175:\n        /* \"#utility.yul\":3235:3327   */\n      swap5\n      pop\n        /* \"#utility.yul\":3350:3420   */\n      tag_176\n        /* \"#utility.yul\":3413:3419   */\n      dup4\n        /* \"#utility.yul\":3350:3420   */\n      tag_177\n      jump\t// in\n    tag_176:\n        /* \"#utility.yul\":3340:3420   */\n      swap3\n      pop\n        /* \"#utility.yul\":3449:3453   */\n      0x20\n        /* \"#utility.yul\":3444:3447   */\n      dup11\n        /* \"#utility.yul\":3440:3454   */\n      add\n        /* \"#utility.yul\":3433:3454   */\n      swap10\n      pop\n        /* \"#utility.yul\":3128:3464   */\n      pop\n        /* \"#utility.yul\":3115:3116   */\n      0x01\n        /* \"#utility.yul\":3112:3113   */\n      dup2\n        /* \"#utility.yul\":3108:3117   */\n      add\n        /* \"#utility.yul\":3103:3117   */\n      swap1\n      pop\n        /* \"#utility.yul\":3068:3464   */\n      jump(tag_172)\n    tag_174:\n        /* \"#utility.yul\":3072:3086   */\n      pop\n        /* \"#utility.yul\":3480:3484   */\n      dup3\n        /* \"#utility.yul\":3473:3484   */\n      swap8\n      pop\n        /* \"#utility.yul\":3500:3503   */\n      dup8\n        /* \"#utility.yul\":3493:3503   */\n      swap6\n      pop\n        /* \"#utility.yul\":2662:3509   */\n      pop\n      pop\n      pop\n      pop\n      pop\n        /* \"#utility.yul\":2518:3509   */\n      swap3\n      swap2\n      pop\n      pop\n      jump\t// out\n        /* \"#utility.yul\":3585:4712   */\n    tag_178:\n        /* \"#utility.yul\":3758:3761   */\n      0x00\n        /* \"#utility.yul\":3787:3868   */\n      tag_180\n        /* \"#utility.yul\":3862:3867   */\n      dup3\n        /* \"#utility.yul\":3787:3868   */\n      tag_181\n      jump\t// in\n    tag_180:\n        /* \"#utility.yul\":3884:3997   */\n      tag_182\n        /* \"#utility.yul\":3990:3996   */\n      dup2\n        /* \"#utility.yul\":3985:3988   */\n      dup6\n        /* \"#utility.yul\":3884:3997   */\n      tag_183\n      jump\t// in\n    tag_182:\n        /* \"#utility.yul\":3877:3997   */\n      swap4\n      pop\n        /* \"#utility.yul\":4023:4026   */\n      dup4\n        /* \"#utility.yul\":4068:4072   */\n      0x20\n        /* \"#utility.yul\":4060:4066   */\n      dup3\n        /* \"#utility.yul\":4056:4073   */\n      mul\n        /* \"#utility.yul\":4051:4054   */\n      dup6\n        /* \"#utility.yul\":4047:4074   */\n      add\n        /* \"#utility.yul\":4098:4181   */\n      tag_184\n        /* \"#utility.yul\":4175:4180   */\n      dup6\n        /* \"#utility.yul\":4098:4181   */\n      tag_185\n      jump\t// in\n    tag_184:\n        /* \"#utility.yul\":4204:4211   */\n      dup1\n        /* \"#utility.yul\":4235:4236   */\n      0x00\n        /* \"#utility.yul\":4220:4667   */\n    tag_186:\n        /* \"#utility.yul\":4245:4251   */\n      dup6\n        /* \"#utility.yul\":4242:4243   */\n      dup2\n        /* \"#utility.yul\":4239:4252   */\n      lt\n        /* \"#utility.yul\":4220:4667   */\n      iszero\n      tag_188\n      jumpi\n        /* \"#utility.yul\":4316:4325   */\n      dup5\n        /* \"#utility.yul\":4310:4314   */\n      dup5\n        /* \"#utility.yul\":4306:4326   */\n      sub\n        /* \"#utility.yul\":4301:4304   */\n      dup10\n        /* \"#utility.yul\":4294:4327   */\n      mstore\n        /* \"#utility.yul\":4367:4373   */\n      dup2\n        /* \"#utility.yul\":4361:4374   */\n      mload\n        /* \"#utility.yul\":4395:4513   */\n      tag_189\n        /* \"#utility.yul\":4508:4512   */\n      dup6\n        /* \"#utility.yul\":4493:4506   */\n      dup3\n        /* \"#utility.yul\":4395:4513   */\n      tag_153\n      jump\t// in\n    tag_189:\n        /* \"#utility.yul\":4387:4513   */\n      swap5\n      pop\n        /* \"#utility.yul\":4536:4623   */\n      tag_190\n        /* \"#utility.yul\":4616:4622   */\n      dup4\n        /* \"#utility.yul\":4536:4623   */\n      tag_191\n      jump\t// in\n    tag_190:\n        /* \"#utility.yul\":4526:4623   */\n      swap3\n      pop\n        /* \"#utility.yul\":4652:4656   */\n      0x20\n        /* \"#utility.yul\":4647:4650   */\n      dup11\n        /* \"#utility.yul\":4643:4657   */\n      add\n        /* \"#utility.yul\":4636:4657   */\n      swap10\n      pop\n        /* \"#utility.yul\":4280:4667   */\n      pop\n        /* \"#utility.yul\":4267:4268   */\n      0x01\n        /* \"#utility.yul\":4264:4265   */\n      dup2\n        /* \"#utility.yul\":4260:4269   */\n      add\n        /* \"#utility.yul\":4255:4269   */\n      swap1\n      pop\n        /* \"#utility.yul\":4220:4667   */\n      jump(tag_186)\n    tag_188:\n        /* \"#utility.yul\":4224:4238   */\n      pop\n        /* \"#utility.yul\":4683:4687   */\n      dup3\n        /* \"#utility.yul\":4676:4687   */\n      swap8\n      pop\n        /* \"#utility.yul\":4703:4706   */\n      dup8\n        /* \"#utility.yul\":4696:4706   */\n      swap6\n      pop\n        /* \"#utility.yul\":3763:4712   */\n      pop\n      pop\n      pop\n      pop\n      pop\n        /* \"#utility.yul\":3585:4712   */\n      swap3\n      swap2\n      pop\n      pop\n      jump\t// out\n        /* \"#utility.yul\":4718:5062   */\n    tag_152:\n        /* \"#utility.yul\":4796:4799   */\n      0x00\n        /* \"#utility.yul\":4824:4863   */\n      tag_193\n        /* \"#utility.yul\":4857:4862   */\n      dup3\n        /* \"#utility.yul\":4824:4863   */\n      tag_194\n      jump\t// in\n    tag_193:\n        /* \"#utility.yul\":4879:4940   */\n      tag_195\n        /* \"#utility.yul\":4933:4939   */\n      dup2\n        /* \"#utility.yul\":4928:4931   */\n      dup6\n        /* \"#utility.yul\":4879:4940   */\n      tag_196\n      jump\t// in\n    tag_195:\n        /* \"#utility.yul\":4872:4940   */\n      swap4\n      pop\n        /* \"#utility.yul\":4949:5001   */\n      tag_197\n        /* \"#utility.yul\":4994:5000   */\n      dup2\n        /* \"#utility.yul\":4989:4992   */\n      dup6\n        /* \"#utility.yul\":4982:4986   */\n      0x20\n        /* \"#utility.yul\":4975:4980   */\n      dup7\n        /* \"#utility.yul\":4971:4987   */\n      add\n        /* \"#utility.yul\":4949:5001   */\n      tag_198\n      jump\t// in\n    tag_197:\n        /* \"#utility.yul\":5026:5055   */\n      tag_199\n        /* \"#utility.yul\":5048:5054   */\n      dup2\n        /* \"#utility.yul\":5026:5055   */\n      tag_200\n      jump\t// in\n    tag_199:\n        /* \"#utility.yul\":5021:5024   */\n      dup5\n        /* \"#utility.yul\":5017:5056   */\n      add\n        /* \"#utility.yul\":5010:5056   */\n      swap2\n      pop\n        /* \"#utility.yul\":4800:5062   */\n      pop\n        /* \"#utility.yul\":4718:5062   */\n      swap3\n      swap2\n      pop\n      pop\n      jump\t// out\n        /* \"#utility.yul\":5068:5432   */\n    tag_201:\n        /* \"#utility.yul\":5156:5159   */\n      0x00\n        /* \"#utility.yul\":5184:5223   */\n      tag_203\n        /* \"#utility.yul\":5217:5222   */\n      dup3\n        /* \"#utility.yul\":5184:5223   */\n      tag_194\n      jump\t// in\n    tag_203:\n        /* \"#utility.yul\":5239:5310   */\n      tag_204\n        /* \"#utility.yul\":5303:5309   */\n      dup2\n        /* \"#utility.yul\":5298:5301   */\n      dup6\n        /* \"#utility.yul\":5239:5310   */\n      tag_205\n      jump\t// in\n    tag_204:\n        /* \"#utility.yul\":5232:5310   */\n      swap4\n      pop\n        /* \"#utility.yul\":5319:5371   */\n      tag_206\n        /* \"#utility.yul\":5364:5370   */\n      dup2\n        /* \"#utility.yul\":5359:5362   */\n      dup6\n        /* \"#utility.yul\":5352:5356   */\n      0x20\n        /* \"#utility.yul\":5345:5350   */\n      dup7\n        /* \"#utility.yul\":5341:5357   */\n      add\n        /* \"#utility.yul\":5319:5371   */\n      tag_198\n      jump\t// in\n    tag_206:\n        /* \"#utility.yul\":5396:5425   */\n      tag_207\n        /* \"#utility.yul\":5418:5424   */\n      dup2\n        /* \"#utility.yul\":5396:5425   */\n      tag_200\n      jump\t// in\n    tag_207:\n        /* \"#utility.yul\":5391:5394   */\n      dup5\n        /* \"#utility.yul\":5387:5426   */\n      add\n        /* \"#utility.yul\":5380:5426   */\n      swap2\n      pop\n        /* \"#utility.yul\":5160:5432   */\n      pop\n        /* \"#utility.yul\":5068:5432   */\n      swap3\n      swap2\n      pop\n      pop\n      jump\t// out\n        /* \"#utility.yul\":5504:6104   */\n    tag_156:\n        /* \"#utility.yul\":5617:5620   */\n      0x00\n        /* \"#utility.yul\":5653:5657   */\n      0x40\n        /* \"#utility.yul\":5648:5651   */\n      dup4\n        /* \"#utility.yul\":5644:5658   */\n      add\n        /* \"#utility.yul\":5740:5744   */\n      0x00\n        /* \"#utility.yul\":5733:5738   */\n      dup4\n        /* \"#utility.yul\":5729:5745   */\n      add\n        /* \"#utility.yul\":5723:5746   */\n      mload\n        /* \"#utility.yul\":5759:5822   */\n      tag_209\n        /* \"#utility.yul\":5816:5820   */\n      0x00\n        /* \"#utility.yul\":5811:5814   */\n      dup7\n        /* \"#utility.yul\":5807:5821   */\n      add\n        /* \"#utility.yul\":5793:5805   */\n      dup3\n        /* \"#utility.yul\":5759:5822   */\n      tag_157\n      jump\t// in\n    tag_209:\n        /* \"#utility.yul\":5668:5832   */\n      pop\n        /* \"#utility.yul\":5914:5918   */\n      0x20\n        /* \"#utility.yul\":5907:5912   */\n      dup4\n        /* \"#utility.yul\":5903:5919   */\n      add\n        /* \"#utility.yul\":5897:5920   */\n      mload\n        /* \"#utility.yul\":5967:5970   */\n      dup5\n        /* \"#utility.yul\":5961:5965   */\n      dup3\n        /* \"#utility.yul\":5957:5971   */\n      sub\n        /* \"#utility.yul\":5950:5954   */\n      0x20\n        /* \"#utility.yul\":5945:5948   */\n      dup7\n        /* \"#utility.yul\":5941:5955   */\n      add\n        /* \"#utility.yul\":5934:5972   */\n      mstore\n        /* \"#utility.yul\":5993:6066   */\n      tag_210\n        /* \"#utility.yul\":6061:6065   */\n      dup3\n        /* \"#utility.yul\":6047:6059   */\n      dup3\n        /* \"#utility.yul\":5993:6066   */\n      tag_152\n      jump\t// in\n    tag_210:\n        /* \"#utility.yul\":5985:6066   */\n      swap2\n      pop\n        /* \"#utility.yul\":5842:6077   */\n      pop\n        /* \"#utility.yul\":6094:6098   */\n      dup1\n        /* \"#utility.yul\":6087:6098   */\n      swap2\n      pop\n        /* \"#utility.yul\":5622:6104   */\n      pop\n        /* \"#utility.yul\":5504:6104   */\n      swap3\n      swap2\n      pop\n      pop\n      jump\t// out\n        /* \"#utility.yul\":6110:6533   */\n    tag_24:\n        /* \"#utility.yul\":6251:6255   */\n      0x00\n        /* \"#utility.yul\":6289:6291   */\n      0x40\n        /* \"#utility.yul\":6278:6287   */\n      dup3\n        /* \"#utility.yul\":6274:6292   */\n      add\n        /* \"#utility.yul\":6266:6292   */\n      swap1\n      pop\n        /* \"#utility.yul\":6302:6373   */\n      tag_212\n        /* \"#utility.yul\":6370:6371   */\n      0x00\n        /* \"#utility.yul\":6359:6368   */\n      dup4\n        /* \"#utility.yul\":6355:6372   */\n      add\n        /* \"#utility.yul\":6346:6352   */\n      dup6\n        /* \"#utility.yul\":6302:6373   */\n      tag_161\n      jump\t// in\n    tag_212:\n        /* \"#utility.yul\":6420:6429   */\n      dup2\n        /* \"#utility.yul\":6414:6418   */\n      dup2\n        /* \"#utility.yul\":6410:6430   */\n      sub\n        /* \"#utility.yul\":6405:6407   */\n      0x20\n        /* \"#utility.yul\":6394:6403   */\n      dup4\n        /* \"#utility.yul\":6390:6408   */\n      add\n        /* \"#utility.yul\":6383:6431   */\n      mstore\n        /* \"#utility.yul\":6448:6526   */\n      tag_213\n        /* \"#utility.yul\":6521:6525   */\n      dup2\n        /* \"#utility.yul\":6512:6518   */\n      dup5\n        /* \"#utility.yul\":6448:6526   */\n      tag_201\n      jump\t// in\n    tag_213:\n        /* \"#utility.yul\":6440:6526   */\n      swap1\n      pop\n        /* \"#utility.yul\":6110:6533   */\n      swap4\n      swap3\n      pop\n      pop\n      pop\n      jump\t// out\n        /* \"#utility.yul\":6539:6952   */\n    tag_28:\n        /* \"#utility.yul\":6702:6706   */\n      0x00\n        /* \"#utility.yul\":6740:6742   */\n      0x20\n        /* \"#utility.yul\":6729:6738   */\n      dup3\n        /* \"#utility.yul\":6725:6743   */\n      add\n        /* \"#utility.yul\":6717:6743   */\n      swap1\n      pop\n        /* \"#utility.yul\":6789:6798   */\n      dup2\n        /* \"#utility.yul\":6783:6787   */\n      dup2\n        /* \"#utility.yul\":6779:6799   */\n      sub\n        /* \"#utility.yul\":6775:6776   */\n      0x00\n        /* \"#utility.yul\":6764:6773   */\n      dup4\n        /* \"#utility.yul\":6760:6777   */\n      add\n        /* \"#utility.yul\":6753:6800   */\n      mstore\n        /* \"#utility.yul\":6817:6945   */\n      tag_215\n        /* \"#utility.yul\":6940:6944   */\n      dup2\n        /* \"#utility.yul\":6931:6937   */\n      dup5\n        /* \"#utility.yul\":6817:6945   */\n      tag_164\n      jump\t// in\n    tag_215:\n        /* \"#utility.yul\":6809:6945   */\n      swap1\n      pop\n        /* \"#utility.yul\":6539:6952   */\n      swap3\n      swap2\n      pop\n      pop\n      jump\t// out\n        /* \"#utility.yul\":6958:7439   */\n    tag_11:\n        /* \"#utility.yul\":7155:7159   */\n      0x00\n        /* \"#utility.yul\":7193:7195   */\n      0x20\n        /* \"#utility.yul\":7182:7191   */\n      dup3\n        /* \"#utility.yul\":7178:7196   */\n      add\n        /* \"#utility.yul\":7170:7196   */\n      swap1\n      pop\n        /* \"#utility.yul\":7242:7251   */\n      dup2\n        /* \"#utility.yul\":7236:7240   */\n      dup2\n        /* \"#utility.yul\":7232:7252   */\n      sub\n        /* \"#utility.yul\":7228:7229   */\n      0x00\n        /* \"#utility.yul\":7217:7226   */\n      dup4\n        /* \"#utility.yul\":7213:7230   */\n      add\n        /* \"#utility.yul\":7206:7253   */\n      mstore\n        /* \"#utility.yul\":7270:7432   */\n      tag_217\n        /* \"#utility.yul\":7427:7431   */\n      dup2\n        /* \"#utility.yul\":7418:7424   */\n      dup5\n        /* \"#utility.yul\":7270:7432   */\n      tag_178\n      jump\t// in\n    tag_217:\n        /* \"#utility.yul\":7262:7432   */\n      swap1\n      pop\n        /* \"#utility.yul\":6958:7439   */\n      swap3\n      swap2\n      pop\n      pop\n      jump\t// out\n        /* \"#utility.yul\":7445:7574   */\n    tag_121:\n        /* \"#utility.yul\":7479:7485   */\n      0x00\n        /* \"#utility.yul\":7506:7526   */\n      tag_219\n      tag_220\n      jump\t// in\n    tag_219:\n        /* \"#utility.yul\":7496:7526   */\n      swap1\n      pop\n        /* \"#utility.yul\":7535:7568   */\n      tag_221\n        /* \"#utility.yul\":7563:7567   */\n      dup3\n        /* \"#utility.yul\":7555:7561   */\n      dup3\n        /* \"#utility.yul\":7535:7568   */\n      tag_222\n      jump\t// in\n    tag_221:\n        /* \"#utility.yul\":7445:7574   */\n      swap2\n      swap1\n      pop\n      jump\t// out\n        /* \"#utility.yul\":7580:7655   */\n    tag_220:\n        /* \"#utility.yul\":7613:7619   */\n      0x00\n        /* \"#utility.yul\":7646:7648   */\n      0x40\n        /* \"#utility.yul\":7640:7649   */\n      mload\n        /* \"#utility.yul\":7630:7649   */\n      swap1\n      pop\n        /* \"#utility.yul\":7580:7655   */\n      swap1\n      jump\t// out\n        /* \"#utility.yul\":7661:7969   */\n    tag_120:\n        /* \"#utility.yul\":7723:7727   */\n      0x00\n        /* \"#utility.yul\":7813:7831   */\n      0xffffffffffffffff\n        /* \"#utility.yul\":7805:7811   */\n      dup3\n        /* \"#utility.yul\":7802:7832   */\n      gt\n        /* \"#utility.yul\":7799:7855   */\n      iszero\n      tag_225\n      jumpi\n        /* \"#utility.yul\":7835:7853   */\n      tag_226\n      tag_79\n      jump\t// in\n    tag_226:\n        /* \"#utility.yul\":7799:7855   */\n    tag_225:\n        /* \"#utility.yul\":7873:7902   */\n      tag_227\n        /* \"#utility.yul\":7895:7901   */\n      dup3\n        /* \"#utility.yul\":7873:7902   */\n      tag_200\n      jump\t// in\n    tag_227:\n        /* \"#utility.yul\":7865:7902   */\n      swap1\n      pop\n        /* \"#utility.yul\":7957:7961   */\n      0x20\n        /* \"#utility.yul\":7951:7955   */\n      dup2\n        /* \"#utility.yul\":7947:7962   */\n      add\n        /* \"#utility.yul\":7939:7962   */\n      swap1\n      pop\n        /* \"#utility.yul\":7661:7969   */\n      swap2\n      swap1\n      pop\n      jump\t// out\n        /* \"#utility.yul\":7975:8117   */\n    tag_171:\n        /* \"#utility.yul\":8052:8056   */\n      0x00\n        /* \"#utility.yul\":8075:8078   */\n      dup2\n        /* \"#utility.yul\":8067:8078   */\n      swap1\n      pop\n        /* \"#utility.yul\":8105:8109   */\n      0x20\n        /* \"#utility.yul\":8100:8103   */\n      dup3\n        /* \"#utility.yul\":8096:8110   */\n      add\n        /* \"#utility.yul\":8088:8110   */\n      swap1\n      pop\n        /* \"#utility.yul\":7975:8117   */\n      swap2\n      swap1\n      pop\n      jump\t// out\n        /* \"#utility.yul\":8123:8282   */\n    tag_185:\n        /* \"#utility.yul\":8217:8221   */\n      0x00\n        /* \"#utility.yul\":8240:8243   */\n      dup2\n        /* \"#utility.yul\":8232:8243   */\n      swap1\n      pop\n        /* \"#utility.yul\":8270:8274   */\n      0x20\n        /* \"#utility.yul\":8265:8268   */\n      dup3\n        /* \"#utility.yul\":8261:8275   */\n      add\n        /* \"#utility.yul\":8253:8275   */\n      swap1\n      pop\n        /* \"#utility.yul\":8123:8282   */\n      swap2\n      swap1\n      pop\n      jump\t// out\n        /* \"#utility.yul\":8288:8412   */\n    tag_167:\n        /* \"#utility.yul\":8365:8371   */\n      0x00\n        /* \"#utility.yul\":8399:8404   */\n      dup2\n        /* \"#utility.yul\":8393:8405   */\n      mload\n        /* \"#utility.yul\":8383:8405   */\n      swap1\n      pop\n        /* \"#utility.yul\":8288:8412   */\n      swap2\n      swap1\n      pop\n      jump\t// out\n        /* \"#utility.yul\":8418:8559   */\n    tag_181:\n        /* \"#utility.yul\":8512:8518   */\n      0x00\n        /* \"#utility.yul\":8546:8551   */\n      dup2\n        /* \"#utility.yul\":8540:8552   */\n      mload\n        /* \"#utility.yul\":8530:8552   */\n      swap1\n      pop\n        /* \"#utility.yul\":8418:8559   */\n      swap2\n      swap1\n      pop\n      jump\t// out\n        /* \"#utility.yul\":8565:8664   */\n    tag_194:\n        /* \"#utility.yul\":8617:8623   */\n      0x00\n        /* \"#utility.yul\":8651:8656   */\n      dup2\n        /* \"#utility.yul\":8645:8657   */\n      mload\n        /* \"#utility.yul\":8635:8657   */\n      swap1\n      pop\n        /* \"#utility.yul\":8565:8664   */\n      swap2\n      swap1\n      pop\n      jump\t// out\n        /* \"#utility.yul\":8670:8793   */\n    tag_177:\n        /* \"#utility.yul\":8750:8754   */\n      0x00\n        /* \"#utility.yul\":8782:8786   */\n      0x20\n        /* \"#utility.yul\":8777:8780   */\n      dup3\n        /* \"#utility.yul\":8773:8787   */\n      add\n        /* \"#utility.yul\":8765:8787   */\n      swap1\n      pop\n        /* \"#utility.yul\":8670:8793   */\n      swap2\n      swap1\n      pop\n      jump\t// out\n        /* \"#utility.yul\":8799:8939   */\n    tag_191:\n        /* \"#utility.yul\":8896:8900   */\n      0x00\n        /* \"#utility.yul\":8928:8932   */\n      0x20\n        /* \"#utility.yul\":8923:8926   */\n      dup3\n        /* \"#utility.yul\":8919:8933   */\n      add\n        /* \"#utility.yul\":8911:8933   */\n      swap1\n      pop\n        /* \"#utility.yul\":8799:8939   */\n      swap2\n      swap1\n      pop\n      jump\t// out\n        /* \"#utility.yul\":8945:9139   */\n    tag_169:\n        /* \"#utility.yul\":9054:9065   */\n      0x00\n        /* \"#utility.yul\":9088:9094   */\n      dup3\n        /* \"#utility.yul\":9083:9086   */\n      dup3\n        /* \"#utility.yul\":9076:9095   */\n      mstore\n        /* \"#utility.yul\":9128:9132   */\n      0x20\n        /* \"#utility.yul\":9123:9126   */\n      dup3\n        /* \"#utility.yul\":9119:9133   */\n      add\n        /* \"#utility.yul\":9104:9133   */\n      swap1\n      pop\n        /* \"#utility.yul\":8945:9139   */\n      swap3\n      swap2\n      pop\n      pop\n      jump\t// out\n        /* \"#utility.yul\":9145:9356   */\n    tag_183:\n        /* \"#utility.yul\":9271:9282   */\n      0x00\n        /* \"#utility.yul\":9305:9311   */\n      dup3\n        /* \"#utility.yul\":9300:9303   */\n      dup3\n        /* \"#utility.yul\":9293:9312   */\n      mstore\n        /* \"#utility.yul\":9345:9349   */\n      0x20\n        /* \"#utility.yul\":9340:9343   */\n      dup3\n        /* \"#utility.yul\":9336:9350   */\n      add\n        /* \"#utility.yul\":9321:9350   */\n      swap1\n      pop\n        /* \"#utility.yul\":9145:9356   */\n      swap3\n      swap2\n      pop\n      pop\n      jump\t// out\n        /* \"#utility.yul\":9362:9521   */\n    tag_196:\n        /* \"#utility.yul\":9436:9447   */\n      0x00\n        /* \"#utility.yul\":9470:9476   */\n      dup3\n        /* \"#utility.yul\":9465:9468   */\n      dup3\n        /* \"#utility.yul\":9458:9477   */\n      mstore\n        /* \"#utility.yul\":9510:9514   */\n      0x20\n        /* \"#utility.yul\":9505:9508   */\n      dup3\n        /* \"#utility.yul\":9501:9515   */\n      add\n        /* \"#utility.yul\":9486:9515   */\n      swap1\n      pop\n        /* \"#utility.yul\":9362:9521   */\n      swap3\n      swap2\n      pop\n      pop\n      jump\t// out\n        /* \"#utility.yul\":9527:9696   */\n    tag_205:\n        /* \"#utility.yul\":9611:9622   */\n      0x00\n        /* \"#utility.yul\":9645:9651   */\n      dup3\n        /* \"#utility.yul\":9640:9643   */\n      dup3\n        /* \"#utility.yul\":9633:9652   */\n      mstore\n        /* \"#utility.yul\":9685:9689   */\n      0x20\n        /* \"#utility.yul\":9680:9683   */\n      dup3\n        /* \"#utility.yul\":9676:9690   */\n      add\n        /* \"#utility.yul\":9661:9690   */\n      swap1\n      pop\n        /* \"#utility.yul\":9527:9696   */\n      swap3\n      swap2\n      pop\n      pop\n      jump\t// out\n        /* \"#utility.yul\":9702:9798   */\n    tag_160:\n        /* \"#utility.yul\":9739:9746   */\n      0x00\n        /* \"#utility.yul\":9768:9792   */\n      tag_240\n        /* \"#utility.yul\":9786:9791   */\n      dup3\n        /* \"#utility.yul\":9768:9792   */\n      tag_241\n      jump\t// in\n    tag_240:\n        /* \"#utility.yul\":9757:9792   */\n      swap1\n      pop\n        /* \"#utility.yul\":9702:9798   */\n      swap2\n      swap1\n      pop\n      jump\t// out\n        /* \"#utility.yul\":9804:9930   */\n    tag_241:\n        /* \"#utility.yul\":9841:9848   */\n      0x00\n        /* \"#utility.yul\":9881:9923   */\n      0xffffffffffffffffffffffffffffffffffffffff\n        /* \"#utility.yul\":9874:9879   */\n      dup3\n        /* \"#utility.yul\":9870:9924   */\n      and\n        /* \"#utility.yul\":9859:9924   */\n      swap1\n      pop\n        /* \"#utility.yul\":9804:9930   */\n      swap2\n      swap1\n      pop\n      jump\t// out\n        /* \"#utility.yul\":9936:10013   */\n    tag_243:\n        /* \"#utility.yul\":9973:9980   */\n      0x00\n        /* \"#utility.yul\":10002:10007   */\n      dup2\n        /* \"#utility.yul\":9991:10007   */\n      swap1\n      pop\n        /* \"#utility.yul\":9936:10013   */\n      swap2\n      swap1\n      pop\n      jump\t// out\n        /* \"#utility.yul\":10019:10173   */\n    tag_126:\n        /* \"#utility.yul\":10103:10109   */\n      dup3\n        /* \"#utility.yul\":10098:10101   */\n      dup2\n        /* \"#utility.yul\":10093:10096   */\n      dup4\n        /* \"#utility.yul\":10080:10110   */\n      calldatacopy\n        /* \"#utility.yul\":10165:10166   */\n      0x00\n        /* \"#utility.yul\":10156:10162   */\n      dup4\n        /* \"#utility.yul\":10151:10154   */\n      dup4\n        /* \"#utility.yul\":10147:10163   */\n      add\n        /* \"#utility.yul\":10140:10167   */\n      mstore\n        /* \"#utility.yul\":10019:10173   */\n      pop\n      pop\n      pop\n      jump\t// out\n        /* \"#utility.yul\":10179:10486   */\n    tag_198:\n        /* \"#utility.yul\":10247:10248   */\n      0x00\n        /* \"#utility.yul\":10257:10370   */\n    tag_247:\n        /* \"#utility.yul\":10271:10277   */\n      dup4\n        /* \"#utility.yul\":10268:10269   */\n      dup2\n        /* \"#utility.yul\":10265:10278   */\n      lt\n        /* \"#utility.yul\":10257:10370   */\n      iszero\n      tag_249\n      jumpi\n        /* \"#utility.yul\":10356:10357   */\n      dup1\n        /* \"#utility.yul\":10351:10354   */\n      dup3\n        /* \"#utility.yul\":10347:10358   */\n      add\n        /* \"#utility.yul\":10341:10359   */\n      mload\n        /* \"#utility.yul\":10337:10338   */\n      dup2\n        /* \"#utility.yul\":10332:10335   */\n      dup5\n        /* \"#utility.yul\":10328:10339   */\n      add\n        /* \"#utility.yul\":10321:10360   */\n      mstore\n        /* \"#utility.yul\":10293:10295   */\n      0x20\n        /* \"#utility.yul\":10290:10291   */\n      dup2\n        /* \"#utility.yul\":10286:10296   */\n      add\n        /* \"#utility.yul\":10281:10296   */\n      swap1\n      pop\n        /* \"#utility.yul\":10257:10370   */\n      jump(tag_247)\n    tag_249:\n        /* \"#utility.yul\":10388:10394   */\n      dup4\n        /* \"#utility.yul\":10385:10386   */\n      dup2\n        /* \"#utility.yul\":10382:10395   */\n      gt\n        /* \"#utility.yul\":10379:10480   */\n      iszero\n      tag_250\n      jumpi\n        /* \"#utility.yul\":10468:10469   */\n      0x00\n        /* \"#utility.yul\":10459:10465   */\n      dup5\n        /* \"#utility.yul\":10454:10457   */\n      dup5\n        /* \"#utility.yul\":10450:10466   */\n      add\n        /* \"#utility.yul\":10443:10470   */\n      mstore\n        /* \"#utility.yul\":10379:10480   */\n    tag_250:\n        /* \"#utility.yul\":10228:10486   */\n      pop\n        /* \"#utility.yul\":10179:10486   */\n      pop\n      pop\n      pop\n      jump\t// out\n        /* \"#utility.yul\":10492:10812   */\n    tag_49:\n        /* \"#utility.yul\":10536:10542   */\n      0x00\n        /* \"#utility.yul\":10573:10574   */\n      0x02\n        /* \"#utility.yul\":10567:10571   */\n      dup3\n        /* \"#utility.yul\":10563:10575   */\n      div\n        /* \"#utility.yul\":10553:10575   */\n      swap1\n      pop\n        /* \"#utility.yul\":10620:10621   */\n      0x01\n        /* \"#utility.yul\":10614:10618   */\n      dup3\n        /* \"#utility.yul\":10610:10622   */\n      and\n        /* \"#utility.yul\":10641:10659   */\n      dup1\n        /* \"#utility.yul\":10631:10712   */\n      tag_252\n      jumpi\n        /* \"#utility.yul\":10697:10701   */\n      0x7f\n        /* \"#utility.yul\":10689:10695   */\n      dup3\n        /* \"#utility.yul\":10685:10702   */\n      and\n        /* \"#utility.yul\":10675:10702   */\n      swap2\n      pop\n        /* \"#utility.yul\":10631:10712   */\n    tag_252:\n        /* \"#utility.yul\":10759:10761   */\n      0x20\n        /* \"#utility.yul\":10751:10757   */\n      dup3\n        /* \"#utility.yul\":10748:10762   */\n      lt\n        /* \"#utility.yul\":10728:10746   */\n      dup2\n        /* \"#utility.yul\":10725:10763   */\n      eq\n        /* \"#utility.yul\":10722:10806   */\n      iszero\n      tag_253\n      jumpi\n        /* \"#utility.yul\":10778:10796   */\n      tag_254\n      tag_255\n      jump\t// in\n    tag_254:\n        /* \"#utility.yul\":10722:10806   */\n    tag_253:\n        /* \"#utility.yul\":10543:10812   */\n      pop\n        /* \"#utility.yul\":10492:10812   */\n      swap2\n      swap1\n      pop\n      jump\t// out\n        /* \"#utility.yul\":10818:11099   */\n    tag_222:\n        /* \"#utility.yul\":10901:10928   */\n      tag_257\n        /* \"#utility.yul\":10923:10927   */\n      dup3\n        /* \"#utility.yul\":10901:10928   */\n      tag_200\n      jump\t// in\n    tag_257:\n        /* \"#utility.yul\":10893:10899   */\n      dup2\n        /* \"#utility.yul\":10889:10929   */\n      add\n        /* \"#utility.yul\":11031:11037   */\n      dup2\n        /* \"#utility.yul\":11019:11029   */\n      dup2\n        /* \"#utility.yul\":11016:11038   */\n      lt\n        /* \"#utility.yul\":10995:11013   */\n      0xffffffffffffffff\n        /* \"#utility.yul\":10983:10993   */\n      dup3\n        /* \"#utility.yul\":10980:11014   */\n      gt\n        /* \"#utility.yul\":10977:11039   */\n      or\n        /* \"#utility.yul\":10974:11062   */\n      iszero\n      tag_258\n      jumpi\n        /* \"#utility.yul\":11042:11060   */\n      tag_259\n      tag_79\n      jump\t// in\n    tag_259:\n        /* \"#utility.yul\":10974:11062   */\n    tag_258:\n        /* \"#utility.yul\":11082:11092   */\n      dup1\n        /* \"#utility.yul\":11078:11080   */\n      0x40\n        /* \"#utility.yul\":11071:11093   */\n      mstore\n        /* \"#utility.yul\":10861:11099   */\n      pop\n        /* \"#utility.yul\":10818:11099   */\n      pop\n      pop\n      jump\t// out\n        /* \"#utility.yul\":11105:11338   */\n    tag_44:\n        /* \"#utility.yul\":11144:11147   */\n      0x00\n        /* \"#utility.yul\":11167:11191   */\n      tag_261\n        /* \"#utility.yul\":11185:11190   */\n      dup3\n        /* \"#utility.yul\":11167:11191   */\n      tag_243\n      jump\t// in\n    tag_261:\n        /* \"#utility.yul\":11158:11191   */\n      swap2\n      pop\n        /* \"#utility.yul\":11213:11279   */\n      0xffffffffffffffffffffffffffffffffffffffffffffffffffffffffffffffff\n        /* \"#utility.yul\":11206:11211   */\n      dup3\n        /* \"#utility.yul\":11203:11280   */\n      eq\n        /* \"#utility.yul\":11200:11303   */\n      iszero\n      tag_262\n      jumpi\n        /* \"#utility.yul\":11283:11301   */\n      tag_263\n      tag_264\n      jump\t// in\n    tag_263:\n        /* \"#utility.yul\":11200:11303   */\n    tag_262:\n        /* \"#utility.yul\":11330:11331   */\n      0x01\n        /* \"#utility.yul\":11323:11328   */\n      dup3\n        /* \"#utility.yul\":11319:11332   */\n      add\n        /* \"#utility.yul\":11312:11332   */\n      swap1\n      pop\n        /* \"#utility.yul\":11105:11338   */\n      swap2\n      swap1\n      pop\n      jump\t// out\n        /* \"#utility.yul\":11344:11524   */\n    tag_264:\n        /* \"#utility.yul\":11392:11469   */\n      0x4e487b7100000000000000000000000000000000000000000000000000000000\n        /* \"#utility.yul\":11389:11390   */\n      0x00\n        /* \"#utility.yul\":11382:11470   */\n      mstore\n        /* \"#utility.yul\":11489:11493   */\n      0x11\n        /* \"#utility.yul\":11486:11487   */\n      0x04\n        /* \"#utility.yul\":11479:11494   */\n      mstore\n        /* \"#utility.yul\":11513:11517   */\n      0x24\n        /* \"#utility.yul\":11510:11511   */\n      0x00\n        /* \"#utility.yul\":11503:11518   */\n      revert\n        /* \"#utility.yul\":11530:11710   */\n    tag_255:\n        /* \"#utility.yul\":11578:11655   */\n      0x4e487b7100000000000000000000000000000000000000000000000000000000\n        /* \"#utility.yul\":11575:11576   */\n      0x00\n        /* \"#utility.yul\":11568:11656   */\n      mstore\n        /* \"#utility.yul\":11675:11679   */\n      0x22\n        /* \"#utility.yul\":11672:11673   */\n      0x04\n        /* \"#utility.yul\":11665:11680   */\n      mstore\n        /* \"#utility.yul\":11699:11703   */\n      0x24\n        /* \"#utility.yul\":11696:11697   */\n      0x00\n        /* \"#utility.yul\":11689:11704   */\n      revert\n        /* \"#utility.yul\":11716:11896   */\n    tag_35:\n        /* \"#utility.yul\":11764:11841   */\n      0x4e487b7100000000000000000000000000000000000000000000000000000000\n        /* \"#utility.yul\":11761:11762   */\n      0x00\n        /* \"#utility.yul\":11754:11842   */\n      mstore\n        /* \"#utility.yul\":11861:11865   */\n      0x32\n        /* \"#utility.yul\":11858:11859   */\n      0x04\n        /* \"#utility.yul\":11851:11866   */\n      mstore\n        /* \"#utility.yul\":11885:11889   */\n      0x24\n        /* \"#utility.yul\":11882:11883   */\n      0x00\n        /* \"#utility.yul\":11875:11890   */\n      revert\n        /* \"#utility.yul\":11902:12082   */\n    tag_79:\n        /* \"#utility.yul\":11950:12027   */\n      0x4e487b7100000000000000000000000000000000000000000000000000000000\n        /* \"#utility.yul\":11947:11948   */\n      0x00\n        /* \"#utility.yul\":11940:12028   */\n      mstore\n        /* \"#utility.yul\":12047:12051   */\n      0x41\n        /* \"#utility.yul\":12044:12045   */\n      0x04\n        /* \"#utility.yul\":12037:12052   */\n      mstore\n        /* \"#utility.yul\":12071:12075   */\n      0x24\n        /* \"#utility.yul\":12068:12069   */\n      0x00\n        /* \"#utility.yul\":12061:12076   */\n      revert\n        /* \"#utility.yul\":12088:12205   */\n    tag_131:\n        /* \"#utility.yul\":12197:12198   */\n      0x00\n        /* \"#utility.yul\":12194:12195   */\n      dup1\n        /* \"#utility.yul\":12187:12199   */\n      revert\n        /* \"#utility.yul\":12211:12328   */\n    tag_124:\n        /* \"#utility.yul\":12320:12321   */\n      0x00\n        /* \"#utility.yul\":12317:12318   */\n      dup1\n        /* \"#utility.yul\":12310:12322   */\n      revert\n        /* \"#utility.yul\":12334:12451   */\n    tag_143:\n        /* \"#utility.yul\":12443:12444   */\n      0x00\n        /* \"#utility.yul\":12440:12441   */\n      dup1\n        /* \"#utility.yul\":12433:12445   */\n      revert\n        /* \"#utility.yul\":12457:12574   */\n    tag_140:\n        /* \"#utility.yul\":12566:12567   */\n      0x00\n        /* \"#utility.yul\":12563:12564   */\n      dup1\n        /* \"#utility.yul\":12556:12568   */\n      revert\n        /* \"#utility.yul\":12580:12682   */\n    tag_200:\n        /* \"#utility.yul\":12621:12627   */\n      0x00\n        /* \"#utility.yul\":12672:12674   */\n      0x1f\n        /* \"#utility.yul\":12668:12675   */\n      not\n        /* \"#utility.yul\":12663:12665   */\n      0x1f\n        /* \"#utility.yul\":12656:12661   */\n      dup4\n        /* \"#utility.yul\":12652:12666   */\n      add\n        /* \"#utility.yul\":12648:12676   */\n      and\n        /* \"#utility.yul\":12638:12676   */\n      swap1\n      pop\n        /* \"#utility.yul\":12580:12682   */\n      swap2\n      swap1\n      pop\n      jump\t// out\n        /* \"#utility.yul\":12688:12810   */\n    tag_136:\n        /* \"#utility.yul\":12761:12785   */\n      tag_275\n        /* \"#utility.yul\":12779:12784   */\n      dup2\n        /* \"#utility.yul\":12761:12785   */\n      tag_243\n      jump\t// in\n    tag_275:\n        /* \"#utility.yul\":12754:12759   */\n      dup2\n        /* \"#utility.yul\":12751:12786   */\n      eq\n        /* \"#utility.yul\":12741:12804   */\n      tag_276\n      jumpi\n        /* \"#utility.yul\":12800:12801   */\n      0x00\n        /* \"#utility.yul\":12797:12798   */\n      dup1\n        /* \"#utility.yul\":12790:12802   */\n      revert\n        /* \"#utility.yul\":12741:12804   */\n    tag_276:\n        /* \"#utility.yul\":12688:12810   */\n      pop\n      jump\t// out\n\n    auxdata: 0xa26469706673582212201a060183a6aed6ea8c39624005ef366395bce163bbe5859a91375e96b05b5c2164736f6c63430008070033\n}\n",
				"bytecode": {
					"linkReferences": {},
					"object": "608060405234801561001057600080fd5b50610fcd806100206000396000f3fe608060405234801561001057600080fd5b50600436106100575760003560e01c806318f975751461005c5780634f3d057a1461007a578063880a3c8614610096578063b1429303146100b4578063d7f40d7b146100e5575b600080fd5b610064610103565b6040516100719190610c5e565b60405180910390f35b610094600480360381019061008f91906109b7565b610344565b005b61009e610423565b6040516100ab9190610c5e565b60405180910390f35b6100ce60048036038101906100c99190610a00565b61056a565b6040516100dc929190610c0c565b60405180910390f35b6100ed610646565b6040516100fa9190610c3c565b60405180910390f35b606060005b6000805490508110156101fe573373ffffffffffffffffffffffffffffffffffffffff16600082815481106101405761013f610efd565b5b906000526020600020906002020160000160009054906101000a900473ffffffffffffffffffffffffffffffffffffffff1673ffffffffffffffffffffffffffffffffffffffff1614156101eb57600081815481106101a2576101a1610efd565b5b9060005260206000209060020201600080820160006101000a81549073ffffffffffffffffffffffffffffffffffffffff02191690556001820160006101e8919061081f565b50505b80806101f690610e56565b915050610108565b506000805480602002602001604051908101604052809291908181526020016000905b8282101561033b57838290600052602060002090600202016040518060400160405290816000820160009054906101000a900473ffffffffffffffffffffffffffffffffffffffff1673ffffffffffffffffffffffffffffffffffffffff1673ffffffffffffffffffffffffffffffffffffffff1681526020016001820180546102aa90610df3565b80601f01602080910402602001604051908101604052809291908181526020018280546102d690610df3565b80156103235780601f106102f857610100808354040283529160200191610323565b820191906000526020600020905b81548152906001019060200180831161030657829003601f168201915b50505050508152505081526020019060010190610221565b50505050905090565b61034c61085f565b33816000019073ffffffffffffffffffffffffffffffffffffffff16908173ffffffffffffffffffffffffffffffffffffffff1681525050818160200181905250600081908060018154018082558091505060019003906000526020600020906002020160009091909190915060008201518160000160006101000a81548173ffffffffffffffffffffffffffffffffffffffff021916908373ffffffffffffffffffffffffffffffffffffffff160217905550602082015181600101908051906020019061041c92919061088f565b5050505050565b60606000805480602002602001604051908101604052809291908181526020016000905b8282101561056157838290600052602060002090600202016040518060400160405290816000820160009054906101000a900473ffffffffffffffffffffffffffffffffffffffff1673ffffffffffffffffffffffffffffffffffffffff1673ffffffffffffffffffffffffffffffffffffffff1681526020016001820180546104d090610df3565b80601f01602080910402602001604051908101604052809291908181526020018280546104fc90610df3565b80156105495780601f1061051e57610100808354040283529160200191610549565b820191906000526020600020905b81548152906001019060200180831161052c57829003601f168201915b50505050508152505081526020019060010190610447565b50505050905090565b6000818154811061057a57600080fd5b90600052602060002090600202016000915090508060000160009054906101000a900473ffffffffffffffffffffffffffffffffffffffff16908060010180546105c390610df3565b80601f01602080910402602001604051908101604052809291908181526020018280546105ef90610df3565b801561063c5780601f106106115761010080835404028352916020019161063c565b820191906000526020600020905b81548152906001019060200180831161061f57829003601f168201915b5050505050905082565b60606000808054905067ffffffffffffffff81111561066857610667610f2c565b5b60405190808252806020026020018201604052801561069b57816020015b60608152602001906001900390816106865790505b5090506000805b600080549050811015610816573373ffffffffffffffffffffffffffffffffffffffff16600082815481106106da576106d9610efd565b5b906000526020600020906002020160000160009054906101000a900473ffffffffffffffffffffffffffffffffffffffff1673ffffffffffffffffffffffffffffffffffffffff161415610803576000818154811061073c5761073b610efd565b5b9060005260206000209060020201600101805461075890610df3565b80601f016020809104026020016040519081016040528092919081815260200182805461078490610df3565b80156107d15780601f106107a6576101008083540402835291602001916107d1565b820191906000526020600020905b8154815290600101906020018083116107b457829003601f168201915b50505050508383815181106107e9576107e8610efd565b5b602002602001018190525081806107ff90610e56565b9250505b808061080e90610e56565b9150506106a2565b50819250505090565b50805461082b90610df3565b6000825580601f1061083d575061085c565b601f01602090049060005260206000209081019061085b9190610915565b5b50565b6040518060400160405280600073ffffffffffffffffffffffffffffffffffffffff168152602001606081525090565b82805461089b90610df3565b90600052602060002090601f0160209004810192826108bd5760008555610904565b82601f106108d657805160ff1916838001178555610904565b82800160010185558215610904579182015b828111156109035782518255916020019190600101906108e8565b5b5090506109119190610915565b5090565b5b8082111561092e576000816000905550600101610916565b5090565b600061094561094084610ca5565b610c80565b90508281526020810184848401111561096157610960610f60565b5b61096c848285610db1565b509392505050565b600082601f83011261098957610988610f5b565b5b8135610999848260208601610932565b91505092915050565b6000813590506109b181610f80565b92915050565b6000602082840312156109cd576109cc610f6a565b5b600082013567ffffffffffffffff8111156109eb576109ea610f65565b5b6109f784828501610974565b91505092915050565b600060208284031215610a1657610a15610f6a565b5b6000610a24848285016109a2565b91505092915050565b6000610a398383610b5d565b905092915050565b6000610a4d8383610bcf565b905092915050565b610a5e81610d75565b82525050565b610a6d81610d75565b82525050565b6000610a7e82610cf6565b610a888185610d31565b935083602082028501610a9a85610cd6565b8060005b85811015610ad65784840389528151610ab78582610a2d565b9450610ac283610d17565b925060208a01995050600181019050610a9e565b50829750879550505050505092915050565b6000610af382610d01565b610afd8185610d42565b935083602082028501610b0f85610ce6565b8060005b85811015610b4b5784840389528151610b2c8582610a41565b9450610b3783610d24565b925060208a01995050600181019050610b13565b50829750879550505050505092915050565b6000610b6882610d0c565b610b728185610d53565b9350610b82818560208601610dc0565b610b8b81610f6f565b840191505092915050565b6000610ba182610d0c565b610bab8185610d64565b9350610bbb818560208601610dc0565b610bc481610f6f565b840191505092915050565b6000604083016000830151610be76000860182610a55565b5060208301518482036020860152610bff8282610b5d565b9150508091505092915050565b6000604082019050610c216000830185610a64565b8181036020830152610c338184610b96565b90509392505050565b60006020820190508181036000830152610c568184610a73565b905092915050565b60006020820190508181036000830152610c788184610ae8565b905092915050565b6000610c8a610c9b565b9050610c968282610e25565b919050565b6000604051905090565b600067ffffffffffffffff821115610cc057610cbf610f2c565b5b610cc982610f6f565b9050602081019050919050565b6000819050602082019050919050565b6000819050602082019050919050565b600081519050919050565b600081519050919050565b600081519050919050565b6000602082019050919050565b6000602082019050919050565b600082825260208201905092915050565b600082825260208201905092915050565b600082825260208201905092915050565b600082825260208201905092915050565b6000610d8082610d87565b9050919050565b600073ffffffffffffffffffffffffffffffffffffffff82169050919050565b6000819050919050565b82818337600083830152505050565b60005b83811015610dde578082015181840152602081019050610dc3565b83811115610ded576000848401525b50505050565b60006002820490506001821680610e0b57607f821691505b60208210811415610e1f57610e1e610ece565b5b50919050565b610e2e82610f6f565b810181811067ffffffffffffffff82111715610e4d57610e4c610f2c565b5b80604052505050565b6000610e6182610da7565b91507fffffffffffffffffffffffffffffffffffffffffffffffffffffffffffffffff821415610e9457610e93610e9f565b5b600182019050919050565b7f4e487b7100000000000000000000000000000000000000000000000000000000600052601160045260246000fd5b7f4e487b7100000000000000000000000000000000000000000000000000000000600052602260045260246000fd5b7f4e487b7100000000000000000000000000000000000000000000000000000000600052603260045260246000fd5b7f4e487b7100000000000000000000000000000000000000000000000000000000600052604160045260246000fd5b600080fd5b600080fd5b600080fd5b600080fd5b6000601f19601f8301169050919050565b610f8981610da7565b8114610f9457600080fd5b5056fea26469706673582212201a060183a6aed6ea8c39624005ef366395bce163bbe5859a91375e96b05b5c2164736f6c63430008070033",
					"opcodes": "PUSH1 0x80 PUSH1 0x40 MSTORE CALLVALUE DUP1 ISZERO PUSH2 0x10 JUMPI PUSH1 0x0 DUP1 REVERT JUMPDEST POP PUSH2 0xFCD DUP1 PUSH2 0x20 PUSH1 0x0 CODECOPY PUSH1 0x0 RETURN INVALID PUSH1 0x80 PUSH1 0x40 MSTORE CALLVALUE DUP1 ISZERO PUSH2 0x10 JUMPI PUSH1 0x0 DUP1 REVERT JUMPDEST POP PUSH1 0x4 CALLDATASIZE LT PUSH2 0x57 JUMPI PUSH1 0x0 CALLDATALOAD PUSH1 0xE0 SHR DUP1 PUSH4 0x18F97575 EQ PUSH2 0x5C JUMPI DUP1 PUSH4 0x4F3D057A EQ PUSH2 0x7A JUMPI DUP1 PUSH4 0x880A3C86 EQ PUSH2 0x96 JUMPI DUP1 PUSH4 0xB1429303 EQ PUSH2 0xB4 JUMPI DUP1 PUSH4 0xD7F40D7B EQ PUSH2 0xE5 JUMPI JUMPDEST PUSH1 0x0 DUP1 REVERT JUMPDEST PUSH2 0x64 PUSH2 0x103 JUMP JUMPDEST PUSH1 0x40 MLOAD PUSH2 0x71 SWAP2 SWAP1 PUSH2 0xC5E JUMP JUMPDEST PUSH1 0x40 MLOAD DUP1 SWAP2 SUB SWAP1 RETURN JUMPDEST PUSH2 0x94 PUSH1 0x4 DUP1 CALLDATASIZE SUB DUP2 ADD SWAP1 PUSH2 0x8F SWAP2 SWAP1 PUSH2 0x9B7 JUMP JUMPDEST PUSH2 0x344 JUMP JUMPDEST STOP JUMPDEST PUSH2 0x9E PUSH2 0x423 JUMP JUMPDEST PUSH1 0x40 MLOAD PUSH2 0xAB SWAP2 SWAP1 PUSH2 0xC5E JUMP JUMPDEST PUSH1 0x40 MLOAD DUP1 SWAP2 SUB SWAP1 RETURN JUMPDEST PUSH2 0xCE PUSH1 0x4 DUP1 CALLDATASIZE SUB DUP2 ADD SWAP1 PUSH2 0xC9 SWAP2 SWAP1 PUSH2 0xA00 JUMP JUMPDEST PUSH2 0x56A JUMP JUMPDEST PUSH1 0x40 MLOAD PUSH2 0xDC SWAP3 SWAP2 SWAP1 PUSH2 0xC0C JUMP JUMPDEST PUSH1 0x40 MLOAD DUP1 SWAP2 SUB SWAP1 RETURN JUMPDEST PUSH2 0xED PUSH2 0x646 JUMP JUMPDEST PUSH1 0x40 MLOAD PUSH2 0xFA SWAP2 SWAP1 PUSH2 0xC3C JUMP JUMPDEST PUSH1 0x40 MLOAD DUP1 SWAP2 SUB SWAP1 RETURN JUMPDEST PUSH1 0x60 PUSH1 0x0 JUMPDEST PUSH1 0x0 DUP1 SLOAD SWAP1 POP DUP2 LT ISZERO PUSH2 0x1FE JUMPI CALLER PUSH20 0xFFFFFFFFFFFFFFFFFFFFFFFFFFFFFFFFFFFFFFFF AND PUSH1 0x0 DUP3 DUP2 SLOAD DUP2 LT PUSH2 0x140 JUMPI PUSH2 0x13F PUSH2 0xEFD JUMP JUMPDEST JUMPDEST SWAP1 PUSH1 0x0 MSTORE PUSH1 0x20 PUSH1 0x0 KECCAK256 SWAP1 PUSH1 0x2 MUL ADD PUSH1 0x0 ADD PUSH1 0x0 SWAP1 SLOAD SWAP1 PUSH2 0x100 EXP SWAP1 DIV PUSH20 0xFFFFFFFFFFFFFFFFFFFFFFFFFFFFFFFFFFFFFFFF AND PUSH20 0xFFFFFFFFFFFFFFFFFFFFFFFFFFFFFFFFFFFFFFFF AND EQ ISZERO PUSH2 0x1EB JUMPI PUSH1 0x0 DUP2 DUP2 SLOAD DUP2 LT PUSH2 0x1A2 JUMPI PUSH2 0x1A1 PUSH2 0xEFD JUMP JUMPDEST JUMPDEST SWAP1 PUSH1 0x0 MSTORE PUSH1 0x20 PUSH1 0x0 KECCAK256 SWAP1 PUSH1 0x2 MUL ADD PUSH1 0x0 DUP1 DUP3 ADD PUSH1 0x0 PUSH2 0x100 EXP DUP2 SLOAD SWAP1 PUSH20 0xFFFFFFFFFFFFFFFFFFFFFFFFFFFFFFFFFFFFFFFF MUL NOT AND SWAP1 SSTORE PUSH1 0x1 DUP3 ADD PUSH1 0x0 PUSH2 0x1E8 SWAP2 SWAP1 PUSH2 0x81F JUMP JUMPDEST POP POP JUMPDEST DUP1 DUP1 PUSH2 0x1F6 SWAP1 PUSH2 0xE56 JUMP JUMPDEST SWAP2 POP POP PUSH2 0x108 JUMP JUMPDEST POP PUSH1 0x0 DUP1 SLOAD DUP1 PUSH1 0x20 MUL PUSH1 0x20 ADD PUSH1 0x40 MLOAD SWAP1 DUP2 ADD PUSH1 0x40 MSTORE DUP1 SWAP3 SWAP2 SWAP1 DUP2 DUP2 MSTORE PUSH1 0x20 ADD PUSH1 0x0 SWAP1 JUMPDEST DUP3 DUP3 LT ISZERO PUSH2 0x33B JUMPI DUP4 DUP3 SWAP1 PUSH1 0x0 MSTORE PUSH1 0x20 PUSH1 0x0 KECCAK256 SWAP1 PUSH1 0x2 MUL ADD PUSH1 0x40 MLOAD DUP1 PUSH1 0x40 ADD PUSH1 0x40 MSTORE SWAP1 DUP2 PUSH1 0x0 DUP3 ADD PUSH1 0x0 SWAP1 SLOAD SWAP1 PUSH2 0x100 EXP SWAP1 DIV PUSH20 0xFFFFFFFFFFFFFFFFFFFFFFFFFFFFFFFFFFFFFFFF AND PUSH20 0xFFFFFFFFFFFFFFFFFFFFFFFFFFFFFFFFFFFFFFFF AND PUSH20 0xFFFFFFFFFFFFFFFFFFFFFFFFFFFFFFFFFFFFFFFF AND DUP2 MSTORE PUSH1 0x20 ADD PUSH1 0x1 DUP3 ADD DUP1 SLOAD PUSH2 0x2AA SWAP1 PUSH2 0xDF3 JUMP JUMPDEST DUP1 PUSH1 0x1F ADD PUSH1 0x20 DUP1 SWAP2 DIV MUL PUSH1 0x20 ADD PUSH1 0x40 MLOAD SWAP1 DUP2 ADD PUSH1 0x40 MSTORE DUP1 SWAP3 SWAP2 SWAP1 DUP2 DUP2 MSTORE PUSH1 0x20 ADD DUP3 DUP1 SLOAD PUSH2 0x2D6 SWAP1 PUSH2 0xDF3 JUMP JUMPDEST DUP1 ISZERO PUSH2 0x323 JUMPI DUP1 PUSH1 0x1F LT PUSH2 0x2F8 JUMPI PUSH2 0x100 DUP1 DUP4 SLOAD DIV MUL DUP4 MSTORE SWAP2 PUSH1 0x20 ADD SWAP2 PUSH2 0x323 JUMP JUMPDEST DUP3 ADD SWAP2 SWAP1 PUSH1 0x0 MSTORE PUSH1 0x20 PUSH1 0x0 KECCAK256 SWAP1 JUMPDEST DUP2 SLOAD DUP2 MSTORE SWAP1 PUSH1 0x1 ADD SWAP1 PUSH1 0x20 ADD DUP1 DUP4 GT PUSH2 0x306 JUMPI DUP3 SWAP1 SUB PUSH1 0x1F AND DUP3 ADD SWAP2 JUMPDEST POP POP POP POP POP DUP2 MSTORE POP POP DUP2 MSTORE PUSH1 0x20 ADD SWAP1 PUSH1 0x1 ADD SWAP1 PUSH2 0x221 JUMP JUMPDEST POP POP POP POP SWAP1 POP SWAP1 JUMP JUMPDEST PUSH2 0x34C PUSH2 0x85F JUMP JUMPDEST CALLER DUP2 PUSH1 0x0 ADD SWAP1 PUSH20 0xFFFFFFFFFFFFFFFFFFFFFFFFFFFFFFFFFFFFFFFF AND SWAP1 DUP2 PUSH20 0xFFFFFFFFFFFFFFFFFFFFFFFFFFFFFFFFFFFFFFFF AND DUP2 MSTORE POP POP DUP2 DUP2 PUSH1 0x20 ADD DUP2 SWAP1 MSTORE POP PUSH1 0x0 DUP2 SWAP1 DUP1 PUSH1 0x1 DUP2 SLOAD ADD DUP1 DUP3 SSTORE DUP1 SWAP2 POP POP PUSH1 0x1 SWAP1 SUB SWAP1 PUSH1 0x0 MSTORE PUSH1 0x20 PUSH1 0x0 KECCAK256 SWAP1 PUSH1 0x2 MUL ADD PUSH1 0x0 SWAP1 SWAP2 SWAP1 SWAP2 SWAP1 SWAP2 POP PUSH1 0x0 DUP3 ADD MLOAD DUP2 PUSH1 0x0 ADD PUSH1 0x0 PUSH2 0x100 EXP DUP2 SLOAD DUP2 PUSH20 0xFFFFFFFFFFFFFFFFFFFFFFFFFFFFFFFFFFFFFFFF MUL NOT AND SWAP1 DUP4 PUSH20 0xFFFFFFFFFFFFFFFFFFFFFFFFFFFFFFFFFFFFFFFF AND MUL OR SWAP1 SSTORE POP PUSH1 0x20 DUP3 ADD MLOAD DUP2 PUSH1 0x1 ADD SWAP1 DUP1 MLOAD SWAP1 PUSH1 0x20 ADD SWAP1 PUSH2 0x41C SWAP3 SWAP2 SWAP1 PUSH2 0x88F JUMP JUMPDEST POP POP POP POP POP JUMP JUMPDEST PUSH1 0x60 PUSH1 0x0 DUP1 SLOAD DUP1 PUSH1 0x20 MUL PUSH1 0x20 ADD PUSH1 0x40 MLOAD SWAP1 DUP2 ADD PUSH1 0x40 MSTORE DUP1 SWAP3 SWAP2 SWAP1 DUP2 DUP2 MSTORE PUSH1 0x20 ADD PUSH1 0x0 SWAP1 JUMPDEST DUP3 DUP3 LT ISZERO PUSH2 0x561 JUMPI DUP4 DUP3 SWAP1 PUSH1 0x0 MSTORE PUSH1 0x20 PUSH1 0x0 KECCAK256 SWAP1 PUSH1 0x2 MUL ADD PUSH1 0x40 MLOAD DUP1 PUSH1 0x40 ADD PUSH1 0x40 MSTORE SWAP1 DUP2 PUSH1 0x0 DUP3 ADD PUSH1 0x0 SWAP1 SLOAD SWAP1 PUSH2 0x100 EXP SWAP1 DIV PUSH20 0xFFFFFFFFFFFFFFFFFFFFFFFFFFFFFFFFFFFFFFFF AND PUSH20 0xFFFFFFFFFFFFFFFFFFFFFFFFFFFFFFFFFFFFFFFF AND PUSH20 0xFFFFFFFFFFFFFFFFFFFFFFFFFFFFFFFFFFFFFFFF AND DUP2 MSTORE PUSH1 0x20 ADD PUSH1 0x1 DUP3 ADD DUP1 SLOAD PUSH2 0x4D0 SWAP1 PUSH2 0xDF3 JUMP JUMPDEST DUP1 PUSH1 0x1F ADD PUSH1 0x20 DUP1 SWAP2 DIV MUL PUSH1 0x20 ADD PUSH1 0x40 MLOAD SWAP1 DUP2 ADD PUSH1 0x40 MSTORE DUP1 SWAP3 SWAP2 SWAP1 DUP2 DUP2 MSTORE PUSH1 0x20 ADD DUP3 DUP1 SLOAD PUSH2 0x4FC SWAP1 PUSH2 0xDF3 JUMP JUMPDEST DUP1 ISZERO PUSH2 0x549 JUMPI DUP1 PUSH1 0x1F LT PUSH2 0x51E JUMPI PUSH2 0x100 DUP1 DUP4 SLOAD DIV MUL DUP4 MSTORE SWAP2 PUSH1 0x20 ADD SWAP2 PUSH2 0x549 JUMP JUMPDEST DUP3 ADD SWAP2 SWAP1 PUSH1 0x0 MSTORE PUSH1 0x20 PUSH1 0x0 KECCAK256 SWAP1 JUMPDEST DUP2 SLOAD DUP2 MSTORE SWAP1 PUSH1 0x1 ADD SWAP1 PUSH1 0x20 ADD DUP1 DUP4 GT PUSH2 0x52C JUMPI DUP3 SWAP1 SUB PUSH1 0x1F AND DUP3 ADD SWAP2 JUMPDEST POP POP POP POP POP DUP2 MSTORE POP POP DUP2 MSTORE PUSH1 0x20 ADD SWAP1 PUSH1 0x1 ADD SWAP1 PUSH2 0x447 JUMP JUMPDEST POP POP POP POP SWAP1 POP SWAP1 JUMP JUMPDEST PUSH1 0x0 DUP2 DUP2 SLOAD DUP2 LT PUSH2 0x57A JUMPI PUSH1 0x0 DUP1 REVERT JUMPDEST SWAP1 PUSH1 0x0 MSTORE PUSH1 0x20 PUSH1 0x0 KECCAK256 SWAP1 PUSH1 0x2 MUL ADD PUSH1 0x0 SWAP2 POP SWAP1 POP DUP1 PUSH1 0x0 ADD PUSH1 0x0 SWAP1 SLOAD SWAP1 PUSH2 0x100 EXP SWAP1 DIV PUSH20 0xFFFFFFFFFFFFFFFFFFFFFFFFFFFFFFFFFFFFFFFF AND SWAP1 DUP1 PUSH1 0x1 ADD DUP1 SLOAD PUSH2 0x5C3 SWAP1 PUSH2 0xDF3 JUMP JUMPDEST DUP1 PUSH1 0x1F ADD PUSH1 0x20 DUP1 SWAP2 DIV MUL PUSH1 0x20 ADD PUSH1 0x40 MLOAD SWAP1 DUP2 ADD PUSH1 0x40 MSTORE DUP1 SWAP3 SWAP2 SWAP1 DUP2 DUP2 MSTORE PUSH1 0x20 ADD DUP3 DUP1 SLOAD PUSH2 0x5EF SWAP1 PUSH2 0xDF3 JUMP JUMPDEST DUP1 ISZERO PUSH2 0x63C JUMPI DUP1 PUSH1 0x1F LT PUSH2 0x611 JUMPI PUSH2 0x100 DUP1 DUP4 SLOAD DIV MUL DUP4 MSTORE SWAP2 PUSH1 0x20 ADD SWAP2 PUSH2 0x63C JUMP JUMPDEST DUP3 ADD SWAP2 SWAP1 PUSH1 0x0 MSTORE PUSH1 0x20 PUSH1 0x0 KECCAK256 SWAP1 JUMPDEST DUP2 SLOAD DUP2 MSTORE SWAP1 PUSH1 0x1 ADD SWAP1 PUSH1 0x20 ADD DUP1 DUP4 GT PUSH2 0x61F JUMPI DUP3 SWAP1 SUB PUSH1 0x1F AND DUP3 ADD SWAP2 JUMPDEST POP POP POP POP POP SWAP1 POP DUP3 JUMP JUMPDEST PUSH1 0x60 PUSH1 0x0 DUP1 DUP1 SLOAD SWAP1 POP PUSH8 0xFFFFFFFFFFFFFFFF DUP2 GT ISZERO PUSH2 0x668 JUMPI PUSH2 0x667 PUSH2 0xF2C JUMP JUMPDEST JUMPDEST PUSH1 0x40 MLOAD SWAP1 DUP1 DUP3 MSTORE DUP1 PUSH1 0x20 MUL PUSH1 0x20 ADD DUP3 ADD PUSH1 0x40 MSTORE DUP1 ISZERO PUSH2 0x69B JUMPI DUP2 PUSH1 0x20 ADD JUMPDEST PUSH1 0x60 DUP2 MSTORE PUSH1 0x20 ADD SWAP1 PUSH1 0x1 SWAP1 SUB SWAP1 DUP2 PUSH2 0x686 JUMPI SWAP1 POP JUMPDEST POP SWAP1 POP PUSH1 0x0 DUP1 JUMPDEST PUSH1 0x0 DUP1 SLOAD SWAP1 POP DUP2 LT ISZERO PUSH2 0x816 JUMPI CALLER PUSH20 0xFFFFFFFFFFFFFFFFFFFFFFFFFFFFFFFFFFFFFFFF AND PUSH1 0x0 DUP3 DUP2 SLOAD DUP2 LT PUSH2 0x6DA JUMPI PUSH2 0x6D9 PUSH2 0xEFD JUMP JUMPDEST JUMPDEST SWAP1 PUSH1 0x0 MSTORE PUSH1 0x20 PUSH1 0x0 KECCAK256 SWAP1 PUSH1 0x2 MUL ADD PUSH1 0x0 ADD PUSH1 0x0 SWAP1 SLOAD SWAP1 PUSH2 0x100 EXP SWAP1 DIV PUSH20 0xFFFFFFFFFFFFFFFFFFFFFFFFFFFFFFFFFFFFFFFF AND PUSH20 0xFFFFFFFFFFFFFFFFFFFFFFFFFFFFFFFFFFFFFFFF AND EQ ISZERO PUSH2 0x803 JUMPI PUSH1 0x0 DUP2 DUP2 SLOAD DUP2 LT PUSH2 0x73C JUMPI PUSH2 0x73B PUSH2 0xEFD JUMP JUMPDEST JUMPDEST SWAP1 PUSH1 0x0 MSTORE PUSH1 0x20 PUSH1 0x0 KECCAK256 SWAP1 PUSH1 0x2 MUL ADD PUSH1 0x1 ADD DUP1 SLOAD PUSH2 0x758 SWAP1 PUSH2 0xDF3 JUMP JUMPDEST DUP1 PUSH1 0x1F ADD PUSH1 0x20 DUP1 SWAP2 DIV MUL PUSH1 0x20 ADD PUSH1 0x40 MLOAD SWAP1 DUP2 ADD PUSH1 0x40 MSTORE DUP1 SWAP3 SWAP2 SWAP1 DUP2 DUP2 MSTORE PUSH1 0x20 ADD DUP3 DUP1 SLOAD PUSH2 0x784 SWAP1 PUSH2 0xDF3 JUMP JUMPDEST DUP1 ISZERO PUSH2 0x7D1 JUMPI DUP1 PUSH1 0x1F LT PUSH2 0x7A6 JUMPI PUSH2 0x100 DUP1 DUP4 SLOAD DIV MUL DUP4 MSTORE SWAP2 PUSH1 0x20 ADD SWAP2 PUSH2 0x7D1 JUMP JUMPDEST DUP3 ADD SWAP2 SWAP1 PUSH1 0x0 MSTORE PUSH1 0x20 PUSH1 0x0 KECCAK256 SWAP1 JUMPDEST DUP2 SLOAD DUP2 MSTORE SWAP1 PUSH1 0x1 ADD SWAP1 PUSH1 0x20 ADD DUP1 DUP4 GT PUSH2 0x7B4 JUMPI DUP3 SWAP1 SUB PUSH1 0x1F AND DUP3 ADD SWAP2 JUMPDEST POP POP POP POP POP DUP4 DUP4 DUP2 MLOAD DUP2 LT PUSH2 0x7E9 JUMPI PUSH2 0x7E8 PUSH2 0xEFD JUMP JUMPDEST JUMPDEST PUSH1 0x20 MUL PUSH1 0x20 ADD ADD DUP2 SWAP1 MSTORE POP DUP2 DUP1 PUSH2 0x7FF SWAP1 PUSH2 0xE56 JUMP JUMPDEST SWAP3 POP POP JUMPDEST DUP1 DUP1 PUSH2 0x80E SWAP1 PUSH2 0xE56 JUMP JUMPDEST SWAP2 POP POP PUSH2 0x6A2 JUMP JUMPDEST POP DUP2 SWAP3 POP POP POP SWAP1 JUMP JUMPDEST POP DUP1 SLOAD PUSH2 0x82B SWAP1 PUSH2 0xDF3 JUMP JUMPDEST PUSH1 0x0 DUP3 SSTORE DUP1 PUSH1 0x1F LT PUSH2 0x83D JUMPI POP PUSH2 0x85C JUMP JUMPDEST PUSH1 0x1F ADD PUSH1 0x20 SWAP1 DIV SWAP1 PUSH1 0x0 MSTORE PUSH1 0x20 PUSH1 0x0 KECCAK256 SWAP1 DUP2 ADD SWAP1 PUSH2 0x85B SWAP2 SWAP1 PUSH2 0x915 JUMP JUMPDEST JUMPDEST POP JUMP JUMPDEST PUSH1 0x40 MLOAD DUP1 PUSH1 0x40 ADD PUSH1 0x40 MSTORE DUP1 PUSH1 0x0 PUSH20 0xFFFFFFFFFFFFFFFFFFFFFFFFFFFFFFFFFFFFFFFF AND DUP2 MSTORE PUSH1 0x20 ADD PUSH1 0x60 DUP2 MSTORE POP SWAP1 JUMP JUMPDEST DUP3 DUP1 SLOAD PUSH2 0x89B SWAP1 PUSH2 0xDF3 JUMP JUMPDEST SWAP1 PUSH1 0x0 MSTORE PUSH1 0x20 PUSH1 0x0 KECCAK256 SWAP1 PUSH1 0x1F ADD PUSH1 0x20 SWAP1 DIV DUP2 ADD SWAP3 DUP3 PUSH2 0x8BD JUMPI PUSH1 0x0 DUP6 SSTORE PUSH2 0x904 JUMP JUMPDEST DUP3 PUSH1 0x1F LT PUSH2 0x8D6 JUMPI DUP1 MLOAD PUSH1 0xFF NOT AND DUP4 DUP1 ADD OR DUP6 SSTORE PUSH2 0x904 JUMP JUMPDEST DUP3 DUP1 ADD PUSH1 0x1 ADD DUP6 SSTORE DUP3 ISZERO PUSH2 0x904 JUMPI SWAP2 DUP3 ADD JUMPDEST DUP3 DUP2 GT ISZERO PUSH2 0x903 JUMPI DUP3 MLOAD DUP3 SSTORE SWAP2 PUSH1 0x20 ADD SWAP2 SWAP1 PUSH1 0x1 ADD SWAP1 PUSH2 0x8E8 JUMP JUMPDEST JUMPDEST POP SWAP1 POP PUSH2 0x911 SWAP2 SWAP1 PUSH2 0x915 JUMP JUMPDEST POP SWAP1 JUMP JUMPDEST JUMPDEST DUP1 DUP3 GT ISZERO PUSH2 0x92E JUMPI PUSH1 0x0 DUP2 PUSH1 0x0 SWAP1 SSTORE POP PUSH1 0x1 ADD PUSH2 0x916 JUMP JUMPDEST POP SWAP1 JUMP JUMPDEST PUSH1 0x0 PUSH2 0x945 PUSH2 0x940 DUP5 PUSH2 0xCA5 JUMP JUMPDEST PUSH2 0xC80 JUMP JUMPDEST SWAP1 POP DUP3 DUP2 MSTORE PUSH1 0x20 DUP2 ADD DUP5 DUP5 DUP5 ADD GT ISZERO PUSH2 0x961 JUMPI PUSH2 0x960 PUSH2 0xF60 JUMP JUMPDEST JUMPDEST PUSH2 0x96C DUP5 DUP3 DUP6 PUSH2 0xDB1 JUMP JUMPDEST POP SWAP4 SWAP3 POP POP POP JUMP JUMPDEST PUSH1 0x0 DUP3 PUSH1 0x1F DUP4 ADD SLT PUSH2 0x989 JUMPI PUSH2 0x988 PUSH2 0xF5B JUMP JUMPDEST JUMPDEST DUP2 CALLDATALOAD PUSH2 0x999 DUP5 DUP3 PUSH1 0x20 DUP7 ADD PUSH2 0x932 JUMP JUMPDEST SWAP2 POP POP SWAP3 SWAP2 POP POP JUMP JUMPDEST PUSH1 0x0 DUP2 CALLDATALOAD SWAP1 POP PUSH2 0x9B1 DUP2 PUSH2 0xF80 JUMP JUMPDEST SWAP3 SWAP2 POP POP JUMP JUMPDEST PUSH1 0x0 PUSH1 0x20 DUP3 DUP5 SUB SLT ISZERO PUSH2 0x9CD JUMPI PUSH2 0x9CC PUSH2 0xF6A JUMP JUMPDEST JUMPDEST PUSH1 0x0 DUP3 ADD CALLDATALOAD PUSH8 0xFFFFFFFFFFFFFFFF DUP2 GT ISZERO PUSH2 0x9EB JUMPI PUSH2 0x9EA PUSH2 0xF65 JUMP JUMPDEST JUMPDEST PUSH2 0x9F7 DUP5 DUP3 DUP6 ADD PUSH2 0x974 JUMP JUMPDEST SWAP2 POP POP SWAP3 SWAP2 POP POP JUMP JUMPDEST PUSH1 0x0 PUSH1 0x20 DUP3 DUP5 SUB SLT ISZERO PUSH2 0xA16 JUMPI PUSH2 0xA15 PUSH2 0xF6A JUMP JUMPDEST JUMPDEST PUSH1 0x0 PUSH2 0xA24 DUP5 DUP3 DUP6 ADD PUSH2 0x9A2 JUMP JUMPDEST SWAP2 POP POP SWAP3 SWAP2 POP POP JUMP JUMPDEST PUSH1 0x0 PUSH2 0xA39 DUP4 DUP4 PUSH2 0xB5D JUMP JUMPDEST SWAP1 POP SWAP3 SWAP2 POP POP JUMP JUMPDEST PUSH1 0x0 PUSH2 0xA4D DUP4 DUP4 PUSH2 0xBCF JUMP JUMPDEST SWAP1 POP SWAP3 SWAP2 POP POP JUMP JUMPDEST PUSH2 0xA5E DUP2 PUSH2 0xD75 JUMP JUMPDEST DUP3 MSTORE POP POP JUMP JUMPDEST PUSH2 0xA6D DUP2 PUSH2 0xD75 JUMP JUMPDEST DUP3 MSTORE POP POP JUMP JUMPDEST PUSH1 0x0 PUSH2 0xA7E DUP3 PUSH2 0xCF6 JUMP JUMPDEST PUSH2 0xA88 DUP2 DUP6 PUSH2 0xD31 JUMP JUMPDEST SWAP4 POP DUP4 PUSH1 0x20 DUP3 MUL DUP6 ADD PUSH2 0xA9A DUP6 PUSH2 0xCD6 JUMP JUMPDEST DUP1 PUSH1 0x0 JUMPDEST DUP6 DUP2 LT ISZERO PUSH2 0xAD6 JUMPI DUP5 DUP5 SUB DUP10 MSTORE DUP2 MLOAD PUSH2 0xAB7 DUP6 DUP3 PUSH2 0xA2D JUMP JUMPDEST SWAP5 POP PUSH2 0xAC2 DUP4 PUSH2 0xD17 JUMP JUMPDEST SWAP3 POP PUSH1 0x20 DUP11 ADD SWAP10 POP POP PUSH1 0x1 DUP2 ADD SWAP1 POP PUSH2 0xA9E JUMP JUMPDEST POP DUP3 SWAP8 POP DUP8 SWAP6 POP POP POP POP POP POP SWAP3 SWAP2 POP POP JUMP JUMPDEST PUSH1 0x0 PUSH2 0xAF3 DUP3 PUSH2 0xD01 JUMP JUMPDEST PUSH2 0xAFD DUP2 DUP6 PUSH2 0xD42 JUMP JUMPDEST SWAP4 POP DUP4 PUSH1 0x20 DUP3 MUL DUP6 ADD PUSH2 0xB0F DUP6 PUSH2 0xCE6 JUMP JUMPDEST DUP1 PUSH1 0x0 JUMPDEST DUP6 DUP2 LT ISZERO PUSH2 0xB4B JUMPI DUP5 DUP5 SUB DUP10 MSTORE DUP2 MLOAD PUSH2 0xB2C DUP6 DUP3 PUSH2 0xA41 JUMP JUMPDEST SWAP5 POP PUSH2 0xB37 DUP4 PUSH2 0xD24 JUMP JUMPDEST SWAP3 POP PUSH1 0x20 DUP11 ADD SWAP10 POP POP PUSH1 0x1 DUP2 ADD SWAP1 POP PUSH2 0xB13 JUMP JUMPDEST POP DUP3 SWAP8 POP DUP8 SWAP6 POP POP POP POP POP POP SWAP3 SWAP2 POP POP JUMP JUMPDEST PUSH1 0x0 PUSH2 0xB68 DUP3 PUSH2 0xD0C JUMP JUMPDEST PUSH2 0xB72 DUP2 DUP6 PUSH2 0xD53 JUMP JUMPDEST SWAP4 POP PUSH2 0xB82 DUP2 DUP6 PUSH1 0x20 DUP7 ADD PUSH2 0xDC0 JUMP JUMPDEST PUSH2 0xB8B DUP2 PUSH2 0xF6F JUMP JUMPDEST DUP5 ADD SWAP2 POP POP SWAP3 SWAP2 POP POP JUMP JUMPDEST PUSH1 0x0 PUSH2 0xBA1 DUP3 PUSH2 0xD0C JUMP JUMPDEST PUSH2 0xBAB DUP2 DUP6 PUSH2 0xD64 JUMP JUMPDEST SWAP4 POP PUSH2 0xBBB DUP2 DUP6 PUSH1 0x20 DUP7 ADD PUSH2 0xDC0 JUMP JUMPDEST PUSH2 0xBC4 DUP2 PUSH2 0xF6F JUMP JUMPDEST DUP5 ADD SWAP2 POP POP SWAP3 SWAP2 POP POP JUMP JUMPDEST PUSH1 0x0 PUSH1 0x40 DUP4 ADD PUSH1 0x0 DUP4 ADD MLOAD PUSH2 0xBE7 PUSH1 0x0 DUP7 ADD DUP3 PUSH2 0xA55 JUMP JUMPDEST POP PUSH1 0x20 DUP4 ADD MLOAD DUP5 DUP3 SUB PUSH1 0x20 DUP7 ADD MSTORE PUSH2 0xBFF DUP3 DUP3 PUSH2 0xB5D JUMP JUMPDEST SWAP2 POP POP DUP1 SWAP2 POP POP SWAP3 SWAP2 POP POP JUMP JUMPDEST PUSH1 0x0 PUSH1 0x40 DUP3 ADD SWAP1 POP PUSH2 0xC21 PUSH1 0x0 DUP4 ADD DUP6 PUSH2 0xA64 JUMP JUMPDEST DUP2 DUP2 SUB PUSH1 0x20 DUP4 ADD MSTORE PUSH2 0xC33 DUP2 DUP5 PUSH2 0xB96 JUMP JUMPDEST SWAP1 POP SWAP4 SWAP3 POP POP POP JUMP JUMPDEST PUSH1 0x0 PUSH1 0x20 DUP3 ADD SWAP1 POP DUP2 DUP2 SUB PUSH1 0x0 DUP4 ADD MSTORE PUSH2 0xC56 DUP2 DUP5 PUSH2 0xA73 JUMP JUMPDEST SWAP1 POP SWAP3 SWAP2 POP POP JUMP JUMPDEST PUSH1 0x0 PUSH1 0x20 DUP3 ADD SWAP1 POP DUP2 DUP2 SUB PUSH1 0x0 DUP4 ADD MSTORE PUSH2 0xC78 DUP2 DUP5 PUSH2 0xAE8 JUMP JUMPDEST SWAP1 POP SWAP3 SWAP2 POP POP JUMP JUMPDEST PUSH1 0x0 PUSH2 0xC8A PUSH2 0xC9B JUMP JUMPDEST SWAP1 POP PUSH2 0xC96 DUP3 DUP3 PUSH2 0xE25 JUMP JUMPDEST SWAP2 SWAP1 POP JUMP JUMPDEST PUSH1 0x0 PUSH1 0x40 MLOAD SWAP1 POP SWAP1 JUMP JUMPDEST PUSH1 0x0 PUSH8 0xFFFFFFFFFFFFFFFF DUP3 GT ISZERO PUSH2 0xCC0 JUMPI PUSH2 0xCBF PUSH2 0xF2C JUMP JUMPDEST JUMPDEST PUSH2 0xCC9 DUP3 PUSH2 0xF6F JUMP JUMPDEST SWAP1 POP PUSH1 0x20 DUP2 ADD SWAP1 POP SWAP2 SWAP1 POP JUMP JUMPDEST PUSH1 0x0 DUP2 SWAP1 POP PUSH1 0x20 DUP3 ADD SWAP1 POP SWAP2 SWAP1 POP JUMP JUMPDEST PUSH1 0x0 DUP2 SWAP1 POP PUSH1 0x20 DUP3 ADD SWAP1 POP SWAP2 SWAP1 POP JUMP JUMPDEST PUSH1 0x0 DUP2 MLOAD SWAP1 POP SWAP2 SWAP1 POP JUMP JUMPDEST PUSH1 0x0 DUP2 MLOAD SWAP1 POP SWAP2 SWAP1 POP JUMP JUMPDEST PUSH1 0x0 DUP2 MLOAD SWAP1 POP SWAP2 SWAP1 POP JUMP JUMPDEST PUSH1 0x0 PUSH1 0x20 DUP3 ADD SWAP1 POP SWAP2 SWAP1 POP JUMP JUMPDEST PUSH1 0x0 PUSH1 0x20 DUP3 ADD SWAP1 POP SWAP2 SWAP1 POP JUMP JUMPDEST PUSH1 0x0 DUP3 DUP3 MSTORE PUSH1 0x20 DUP3 ADD SWAP1 POP SWAP3 SWAP2 POP POP JUMP JUMPDEST PUSH1 0x0 DUP3 DUP3 MSTORE PUSH1 0x20 DUP3 ADD SWAP1 POP SWAP3 SWAP2 POP POP JUMP JUMPDEST PUSH1 0x0 DUP3 DUP3 MSTORE PUSH1 0x20 DUP3 ADD SWAP1 POP SWAP3 SWAP2 POP POP JUMP JUMPDEST PUSH1 0x0 DUP3 DUP3 MSTORE PUSH1 0x20 DUP3 ADD SWAP1 POP SWAP3 SWAP2 POP POP JUMP JUMPDEST PUSH1 0x0 PUSH2 0xD80 DUP3 PUSH2 0xD87 JUMP JUMPDEST SWAP1 POP SWAP2 SWAP1 POP JUMP JUMPDEST PUSH1 0x0 PUSH20 0xFFFFFFFFFFFFFFFFFFFFFFFFFFFFFFFFFFFFFFFF DUP3 AND SWAP1 POP SWAP2 SWAP1 POP JUMP JUMPDEST PUSH1 0x0 DUP2 SWAP1 POP SWAP2 SWAP1 POP JUMP JUMPDEST DUP3 DUP2 DUP4 CALLDATACOPY PUSH1 0x0 DUP4 DUP4 ADD MSTORE POP POP POP JUMP JUMPDEST PUSH1 0x0 JUMPDEST DUP4 DUP2 LT ISZERO PUSH2 0xDDE JUMPI DUP1 DUP3 ADD MLOAD DUP2 DUP5 ADD MSTORE PUSH1 0x20 DUP2 ADD SWAP1 POP PUSH2 0xDC3 JUMP JUMPDEST DUP4 DUP2 GT ISZERO PUSH2 0xDED JUMPI PUSH1 0x0 DUP5 DUP5 ADD MSTORE JUMPDEST POP POP POP POP JUMP JUMPDEST PUSH1 0x0 PUSH1 0x2 DUP3 DIV SWAP1 POP PUSH1 0x1 DUP3 AND DUP1 PUSH2 0xE0B JUMPI PUSH1 0x7F DUP3 AND SWAP2 POP JUMPDEST PUSH1 0x20 DUP3 LT DUP2 EQ ISZERO PUSH2 0xE1F JUMPI PUSH2 0xE1E PUSH2 0xECE JUMP JUMPDEST JUMPDEST POP SWAP2 SWAP1 POP JUMP JUMPDEST PUSH2 0xE2E DUP3 PUSH2 0xF6F JUMP JUMPDEST DUP2 ADD DUP2 DUP2 LT PUSH8 0xFFFFFFFFFFFFFFFF DUP3 GT OR ISZERO PUSH2 0xE4D JUMPI PUSH2 0xE4C PUSH2 0xF2C JUMP JUMPDEST JUMPDEST DUP1 PUSH1 0x40 MSTORE POP POP POP JUMP JUMPDEST PUSH1 0x0 PUSH2 0xE61 DUP3 PUSH2 0xDA7 JUMP JUMPDEST SWAP2 POP PUSH32 0xFFFFFFFFFFFFFFFFFFFFFFFFFFFFFFFFFFFFFFFFFFFFFFFFFFFFFFFFFFFFFFFF DUP3 EQ ISZERO PUSH2 0xE94 JUMPI PUSH2 0xE93 PUSH2 0xE9F JUMP JUMPDEST JUMPDEST PUSH1 0x1 DUP3 ADD SWAP1 POP SWAP2 SWAP1 POP JUMP JUMPDEST PUSH32 0x4E487B7100000000000000000000000000000000000000000000000000000000 PUSH1 0x0 MSTORE PUSH1 0x11 PUSH1 0x4 MSTORE PUSH1 0x24 PUSH1 0x0 REVERT JUMPDEST PUSH32 0x4E487B7100000000000000000000000000000000000000000000000000000000 PUSH1 0x0 MSTORE PUSH1 0x22 PUSH1 0x4 MSTORE PUSH1 0x24 PUSH1 0x0 REVERT JUMPDEST PUSH32 0x4E487B7100000000000000000000000000000000000000000000000000000000 PUSH1 0x0 MSTORE PUSH1 0x32 PUSH1 0x4 MSTORE PUSH1 0x24 PUSH1 0x0 REVERT JUMPDEST PUSH32 0x4E487B7100000000000000000000000000000000000000000000000000000000 PUSH1 0x0 MSTORE PUSH1 0x41 PUSH1 0x4 MSTORE PUSH1 0x24 PUSH1 0x0 REVERT JUMPDEST PUSH1 0x0 DUP1 REVERT JUMPDEST PUSH1 0x0 DUP1 REVERT JUMPDEST PUSH1 0x0 DUP1 REVERT JUMPDEST PUSH1 0x0 DUP1 REVERT JUMPDEST PUSH1 0x0 PUSH1 0x1F NOT PUSH1 0x1F DUP4 ADD AND SWAP1 POP SWAP2 SWAP1 POP JUMP JUMPDEST PUSH2 0xF89 DUP2 PUSH2 0xDA7 JUMP JUMPDEST DUP2 EQ PUSH2 0xF94 JUMPI PUSH1 0x0 DUP1 REVERT JUMPDEST POP JUMP INVALID LOG2 PUSH5 0x6970667358 0x22 SLT KECCAK256 BYTE MOD ADD DUP4 0xA6 0xAE 0xD6 0xEA DUP13 CODECOPY PUSH3 0x4005EF CALLDATASIZE PUSH4 0x95BCE163 0xBB 0xE5 DUP6 SWAP11 SWAP2 CALLDATACOPY 0x5E SWAP7 0xB0 JUMPDEST 0x5C 0x21 PUSH5 0x736F6C6343 STOP ADDMOD SMOD STOP CALLER "
				},
				"gasEstimates": {
					"creation": {
						"codeDepositCost": "809000",
						"executionCost": "844",
						"totalCost": "809844"
					},
					"external": {
						"address_book(uint256)": "infinite",
						"get_all()": "infinite",
						"get_mine()": "infinite",
						"push(string)": "infinite",
						"suppress()": "infinite"
					}
				},
				"methodIdentifiers": {
					"address_book(uint256)": "b1429303",
					"get_all()": "880a3c86",
					"get_mine()": "d7f40d7b",
					"push(string)": "4f3d057a",
					"suppress()": "18f97575"
				}
			},
			"storageLayout": {
				"storage": [
					{
						"astId": 11,
						"contract": "contracts/1_Storage.sol:Storage",
						"label": "address_book",
						"offset": 0,
						"slot": "0",
						"type": "t_array(t_struct(Address_book)7_storage)dyn_storage"
					}
				],
				"types": {
					"t_address": {
						"encoding": "inplace",
						"label": "address",
						"numberOfBytes": "20"
					},
					"t_array(t_struct(Address_book)7_storage)dyn_storage": {
						"base": "t_struct(Address_book)7_storage",
						"encoding": "dynamic_array",
						"label": "struct Storage.Address_book[]",
						"numberOfBytes": "32"
					},
					"t_string_storage": {
						"encoding": "bytes",
						"label": "string",
						"numberOfBytes": "32"
					},
					"t_struct(Address_book)7_storage": {
						"encoding": "inplace",
						"label": "struct Storage.Address_book",
						"members": [
							{
								"astId": 4,
								"contract": "contracts/1_Storage.sol:Storage",
								"label": "addr",
								"offset": 0,
								"slot": "0",
								"type": "t_address"
							},
							{
								"astId": 6,
								"contract": "contracts/1_Storage.sol:Storage",
								"label": "data",
								"offset": 0,
								"slot": "1",
								"type": "t_string_storage"
							}
						],
						"numberOfBytes": "64"
					}
				}
			},
			"userdoc": {
				"kind": "user",
				"methods": {},
				"version": 1
			}
		}
	}
}