{
	"contracts/1_Storage.sol": {
		"Storage": {
			"abi": [
				{
					"inputs": [
						{
							"internalType": "uint256",
							"name": "",
							"type": "uint256"
						}
					],
					"name": "address_book",
					"outputs": [
						{
							"internalType": "address",
							"name": "addr",
							"type": "address"
						},
						{
							"internalType": "string",
							"name": "data",
							"type": "string"
						}
					],
					"stateMutability": "view",
					"type": "function"
				},
				{
					"inputs": [],
					"name": "get",
					"outputs": [
						{
							"internalType": "string",
							"name": "",
							"type": "string"
						}
					],
					"stateMutability": "view",
					"type": "function"
				},
				{
					"inputs": [],
					"name": "get_all",
					"outputs": [
						{
							"components": [
								{
									"internalType": "address",
									"name": "addr",
									"type": "address"
								},
								{
									"internalType": "string",
									"name": "data",
									"type": "string"
								}
							],
							"internalType": "struct Storage.Address_book[]",
							"name": "",
							"type": "tuple[]"
						}
					],
					"stateMutability": "view",
					"type": "function"
				},
				{
					"inputs": [
						{
							"internalType": "string",
							"name": "_text",
							"type": "string"
						}
					],
					"name": "push",
					"outputs": [],
					"stateMutability": "nonpayable",
					"type": "function"
				}
			],
			"devdoc": {
				"custom:dev-run-script": "./scripts/deploy_with_ethers.ts",
				"details": "Store & retrieve value in a variable",
				"kind": "dev",
				"methods": {},
				"title": "Storage",
				"version": 1
			},
			"evm": {
				"assembly": "    /* \"contracts/1_Storage.sol\":199:1038  contract Storage {... */\n  mstore(0x40, 0x80)\n  callvalue\n  dup1\n  iszero\n  tag_1\n  jumpi\n  0x00\n  dup1\n  revert\ntag_1:\n  pop\n  dataSize(sub_0)\n  dup1\n  dataOffset(sub_0)\n  0x00\n  codecopy\n  0x00\n  return\nstop\n\nsub_0: assembly {\n        /* \"contracts/1_Storage.sol\":199:1038  contract Storage {... */\n      mstore(0x40, 0x80)\n      callvalue\n      dup1\n      iszero\n      tag_1\n      jumpi\n      0x00\n      dup1\n      revert\n    tag_1:\n      pop\n      jumpi(tag_2, lt(calldatasize, 0x04))\n      shr(0xe0, calldataload(0x00))\n      dup1\n      0x4f3d057a\n      eq\n      tag_3\n      jumpi\n      dup1\n      0x6d4ce63c\n      eq\n      tag_4\n      jumpi\n      dup1\n      0x880a3c86\n      eq\n      tag_5\n      jumpi\n      dup1\n      0xb1429303\n      eq\n      tag_6\n      jumpi\n    tag_2:\n      0x00\n      dup1\n      revert\n        /* \"contracts/1_Storage.sol\":345:526  function push(string memory _text) external {... */\n    tag_3:\n      tag_7\n      0x04\n      dup1\n      calldatasize\n      sub\n      dup2\n      add\n      swap1\n      tag_8\n      swap2\n      swap1\n      tag_9\n      jump\t// in\n    tag_8:\n      tag_10\n      jump\t// in\n    tag_7:\n      stop\n        /* \"contracts/1_Storage.sol\":643:1036  function get() public view returns(string memory)... */\n    tag_4:\n      tag_11\n      tag_12\n      jump\t// in\n    tag_11:\n      mload(0x40)\n      tag_13\n      swap2\n      swap1\n      tag_14\n      jump\t// in\n    tag_13:\n      mload(0x40)\n      dup1\n      swap2\n      sub\n      swap1\n      return\n        /* \"contracts/1_Storage.sol\":532:637  function get_all() external view returns(Address_book[] memory)... */\n    tag_5:\n      tag_15\n      tag_16\n      jump\t// in\n    tag_15:\n      mload(0x40)\n      tag_17\n      swap2\n      swap1\n      tag_18\n      jump\t// in\n    tag_17:\n      mload(0x40)\n      dup1\n      swap2\n      sub\n      swap1\n      return\n        /* \"contracts/1_Storage.sol\":303:337  Address_book[] public address_book */\n    tag_6:\n      tag_19\n      0x04\n      dup1\n      calldatasize\n      sub\n      dup2\n      add\n      swap1\n      tag_20\n      swap2\n      swap1\n      tag_21\n      jump\t// in\n    tag_20:\n      tag_22\n      jump\t// in\n    tag_19:\n      mload(0x40)\n      tag_23\n      swap3\n      swap2\n      swap1\n      tag_24\n      jump\t// in\n    tag_23:\n      mload(0x40)\n      dup1\n      swap2\n      sub\n      swap1\n      return\n        /* \"contracts/1_Storage.sol\":345:526  function push(string memory _text) external {... */\n    tag_10:\n        /* \"contracts/1_Storage.sol\":399:424  Address_book memory entry */\n      tag_26\n      tag_27\n      jump\t// in\n    tag_26:\n        /* \"contracts/1_Storage.sol\":447:457  msg.sender */\n      caller\n        /* \"contracts/1_Storage.sol\":434:439  entry */\n      dup2\n        /* \"contracts/1_Storage.sol\":434:444  entry.addr */\n      0x00\n      add\n        /* \"contracts/1_Storage.sol\":434:457  entry.addr = msg.sender */\n      swap1\n      0xffffffffffffffffffffffffffffffffffffffff\n      and\n      swap1\n      dup2\n      0xffffffffffffffffffffffffffffffffffffffff\n      and\n      dup2\n      mstore\n      pop\n      pop\n        /* \"contracts/1_Storage.sol\":480:485  _text */\n      dup2\n        /* \"contracts/1_Storage.sol\":467:472  entry */\n      dup2\n        /* \"contracts/1_Storage.sol\":467:477  entry.data */\n      0x20\n      add\n        /* \"contracts/1_Storage.sol\":467:485  entry.data = _text */\n      dup2\n      swap1\n      mstore\n      pop\n        /* \"contracts/1_Storage.sol\":495:507  address_book */\n      0x00\n        /* \"contracts/1_Storage.sol\":513:518  entry */\n      dup2\n        /* \"contracts/1_Storage.sol\":495:519  address_book.push(entry) */\n      swap1\n      dup1\n      0x01\n      dup2\n      sload\n      add\n      dup1\n      dup3\n      sstore\n      dup1\n      swap2\n      pop\n      pop\n      0x01\n      swap1\n      sub\n      swap1\n      0x00\n      mstore\n      keccak256(0x00, 0x20)\n      swap1\n      0x02\n      mul\n      add\n      0x00\n      swap1\n      swap2\n      swap1\n      swap2\n      swap1\n      swap2\n      pop\n      0x00\n      dup3\n      add\n      mload\n      dup2\n      0x00\n      add\n      exp(0x0100, 0x00)\n      dup2\n      sload\n      dup2\n      0xffffffffffffffffffffffffffffffffffffffff\n      mul\n      not\n      and\n      swap1\n      dup4\n      0xffffffffffffffffffffffffffffffffffffffff\n      and\n      mul\n      or\n      swap1\n      sstore\n      pop\n      0x20\n      dup3\n      add\n      mload\n      dup2\n      0x01\n      add\n      swap1\n      dup1\n      mload\n      swap1\n      0x20\n      add\n      swap1\n      tag_29\n      swap3\n      swap2\n      swap1\n      tag_30\n      jump\t// in\n    tag_29:\n      pop\n      pop\n      pop\n        /* \"contracts/1_Storage.sol\":389:526  {... */\n      pop\n        /* \"contracts/1_Storage.sol\":345:526  function push(string memory _text) external {... */\n      pop\n      jump\t// out\n        /* \"contracts/1_Storage.sol\":643:1036  function get() public view returns(string memory)... */\n    tag_12:\n        /* \"contracts/1_Storage.sol\":678:691  string memory */\n      0x60\n        /* \"contracts/1_Storage.sol\":707:735  string[] memory address_data */\n      dup1\n        /* \"contracts/1_Storage.sol\":745:751  uint j */\n      0x00\n        /* \"contracts/1_Storage.sol\":774:780  uint i */\n      dup1\n        /* \"contracts/1_Storage.sol\":770:992  for(uint i = 0; i < address_book.length; i++)... */\n    tag_32:\n        /* \"contracts/1_Storage.sol\":790:802  address_book */\n      0x00\n        /* \"contracts/1_Storage.sol\":790:809  address_book.length */\n      dup1\n      sload\n      swap1\n      pop\n        /* \"contracts/1_Storage.sol\":786:787  i */\n      dup2\n        /* \"contracts/1_Storage.sol\":786:809  i < address_book.length */\n      lt\n        /* \"contracts/1_Storage.sol\":770:992  for(uint i = 0; i < address_book.length; i++)... */\n      iszero\n      tag_33\n      jumpi\n        /* \"contracts/1_Storage.sol\":865:875  msg.sender */\n      caller\n        /* \"contracts/1_Storage.sol\":841:875  address_book[i].addr == msg.sender */\n      0xffffffffffffffffffffffffffffffffffffffff\n      and\n        /* \"contracts/1_Storage.sol\":841:853  address_book */\n      0x00\n        /* \"contracts/1_Storage.sol\":854:855  i */\n      dup3\n        /* \"contracts/1_Storage.sol\":841:856  address_book[i] */\n      dup2\n      sload\n      dup2\n      lt\n      tag_35\n      jumpi\n      tag_36\n      tag_37\n      jump\t// in\n    tag_36:\n    tag_35:\n      swap1\n      0x00\n      mstore\n      keccak256(0x00, 0x20)\n      swap1\n      0x02\n      mul\n      add\n        /* \"contracts/1_Storage.sol\":841:861  address_book[i].addr */\n      0x00\n      add\n      0x00\n      swap1\n      sload\n      swap1\n      0x0100\n      exp\n      swap1\n      div\n      0xffffffffffffffffffffffffffffffffffffffff\n      and\n        /* \"contracts/1_Storage.sol\":841:875  address_book[i].addr == msg.sender */\n      0xffffffffffffffffffffffffffffffffffffffff\n      and\n      eq\n        /* \"contracts/1_Storage.sol\":838:982  if(address_book[i].addr == msg.sender)... */\n      iszero\n      tag_39\n      jumpi\n        /* \"contracts/1_Storage.sol\":926:938  address_book */\n      0x00\n        /* \"contracts/1_Storage.sol\":939:940  i */\n      dup2\n        /* \"contracts/1_Storage.sol\":926:941  address_book[i] */\n      dup2\n      sload\n      dup2\n      lt\n      tag_40\n      jumpi\n      tag_41\n      tag_37\n      jump\t// in\n    tag_41:\n    tag_40:\n      swap1\n      0x00\n      mstore\n      keccak256(0x00, 0x20)\n      swap1\n      0x02\n      mul\n      add\n        /* \"contracts/1_Storage.sol\":926:946  address_book[i].data */\n      0x01\n      add\n        /* \"contracts/1_Storage.sol\":908:946  address_data[j] = address_book[i].data */\n      dup1\n      sload\n      tag_43\n      swap1\n      tag_44\n      jump\t// in\n    tag_43:\n      dup1\n      0x1f\n      add\n      0x20\n      dup1\n      swap2\n      div\n      mul\n      0x20\n      add\n      mload(0x40)\n      swap1\n      dup2\n      add\n      0x40\n      mstore\n      dup1\n      swap3\n      swap2\n      swap1\n      dup2\n      dup2\n      mstore\n      0x20\n      add\n      dup3\n      dup1\n      sload\n      tag_45\n      swap1\n      tag_44\n      jump\t// in\n    tag_45:\n      dup1\n      iszero\n      tag_46\n      jumpi\n      dup1\n      0x1f\n      lt\n      tag_47\n      jumpi\n      0x0100\n      dup1\n      dup4\n      sload\n      div\n      mul\n      dup4\n      mstore\n      swap2\n      0x20\n      add\n      swap2\n      jump(tag_46)\n    tag_47:\n      dup3\n      add\n      swap2\n      swap1\n      0x00\n      mstore\n      keccak256(0x00, 0x20)\n      swap1\n    tag_48:\n      dup2\n      sload\n      dup2\n      mstore\n      swap1\n      0x01\n      add\n      swap1\n      0x20\n      add\n      dup1\n      dup4\n      gt\n      tag_48\n      jumpi\n      dup3\n      swap1\n      sub\n      0x1f\n      and\n      dup3\n      add\n      swap2\n    tag_46:\n      pop\n      pop\n      pop\n      pop\n      pop\n        /* \"contracts/1_Storage.sol\":908:920  address_data */\n      dup4\n        /* \"contracts/1_Storage.sol\":921:922  j */\n      dup4\n        /* \"contracts/1_Storage.sol\":908:923  address_data[j] */\n      dup2\n      mload\n      dup2\n      lt\n      tag_49\n      jumpi\n      tag_50\n      tag_37\n      jump\t// in\n    tag_50:\n    tag_49:\n      0x20\n      mul\n      0x20\n      add\n      add\n        /* \"contracts/1_Storage.sol\":908:946  address_data[j] = address_book[i].data */\n      dup2\n      swap1\n      mstore\n      pop\n        /* \"contracts/1_Storage.sol\":964:967  j++ */\n      dup2\n      dup1\n      tag_51\n      swap1\n      tag_52\n      jump\t// in\n    tag_51:\n      swap3\n      pop\n      pop\n        /* \"contracts/1_Storage.sol\":838:982  if(address_book[i].addr == msg.sender)... */\n    tag_39:\n        /* \"contracts/1_Storage.sol\":811:814  i++ */\n      dup1\n      dup1\n      tag_53\n      swap1\n      tag_52\n      jump\t// in\n    tag_53:\n      swap2\n      pop\n      pop\n        /* \"contracts/1_Storage.sol\":770:992  for(uint i = 0; i < address_book.length; i++)... */\n      jump(tag_32)\n    tag_33:\n      pop\n        /* \"contracts/1_Storage.sol\":1008:1020  address_book */\n      0x00\n        /* \"contracts/1_Storage.sol\":1021:1022  0 */\n      dup1\n        /* \"contracts/1_Storage.sol\":1008:1023  address_book[0] */\n      dup2\n      sload\n      dup2\n      lt\n      tag_54\n      jumpi\n      tag_55\n      tag_37\n      jump\t// in\n    tag_55:\n    tag_54:\n      swap1\n      0x00\n      mstore\n      keccak256(0x00, 0x20)\n      swap1\n      0x02\n      mul\n      add\n        /* \"contracts/1_Storage.sol\":1008:1028  address_book[0].data */\n      0x01\n      add\n        /* \"contracts/1_Storage.sol\":1001:1029  return(address_book[0].data) */\n      dup1\n      sload\n      tag_57\n      swap1\n      tag_44\n      jump\t// in\n    tag_57:\n      dup1\n      0x1f\n      add\n      0x20\n      dup1\n      swap2\n      div\n      mul\n      0x20\n      add\n      mload(0x40)\n      swap1\n      dup2\n      add\n      0x40\n      mstore\n      dup1\n      swap3\n      swap2\n      swap1\n      dup2\n      dup2\n      mstore\n      0x20\n      add\n      dup3\n      dup1\n      sload\n      tag_58\n      swap1\n      tag_44\n      jump\t// in\n    tag_58:\n      dup1\n      iszero\n      tag_59\n      jumpi\n      dup1\n      0x1f\n      lt\n      tag_60\n      jumpi\n      0x0100\n      dup1\n      dup4\n      sload\n      div\n      mul\n      dup4\n      mstore\n      swap2\n      0x20\n      add\n      swap2\n      jump(tag_59)\n    tag_60:\n      dup3\n      add\n      swap2\n      swap1\n      0x00\n      mstore\n      keccak256(0x00, 0x20)\n      swap1\n    tag_61:\n      dup2\n      sload\n      dup2\n      mstore\n      swap1\n      0x01\n      add\n      swap1\n      0x20\n      add\n      dup1\n      dup4\n      gt\n      tag_61\n      jumpi\n      dup3\n      swap1\n      sub\n      0x1f\n      and\n      dup3\n      add\n      swap2\n    tag_59:\n      pop\n      pop\n      pop\n      pop\n      pop\n      swap3\n      pop\n      pop\n      pop\n        /* \"contracts/1_Storage.sol\":643:1036  function get() public view returns(string memory)... */\n      swap1\n      jump\t// out\n        /* \"contracts/1_Storage.sol\":532:637  function get_all() external view returns(Address_book[] memory)... */\n    tag_16:\n        /* \"contracts/1_Storage.sol\":573:594  Address_book[] memory */\n      0x60\n        /* \"contracts/1_Storage.sol\":617:629  address_book */\n      0x00\n        /* \"contracts/1_Storage.sol\":610:630  return(address_book) */\n      dup1\n      sload\n      dup1\n      0x20\n      mul\n      0x20\n      add\n      mload(0x40)\n      swap1\n      dup2\n      add\n      0x40\n      mstore\n      dup1\n      swap3\n      swap2\n      swap1\n      dup2\n      dup2\n      mstore\n      0x20\n      add\n      0x00\n      swap1\n    tag_63:\n      dup3\n      dup3\n      lt\n      iszero\n      tag_64\n      jumpi\n      dup4\n      dup3\n      swap1\n      0x00\n      mstore\n      keccak256(0x00, 0x20)\n      swap1\n      0x02\n      mul\n      add\n      mload(0x40)\n      dup1\n      0x40\n      add\n      0x40\n      mstore\n      swap1\n      dup2\n      0x00\n      dup3\n      add\n      0x00\n      swap1\n      sload\n      swap1\n      0x0100\n      exp\n      swap1\n      div\n      0xffffffffffffffffffffffffffffffffffffffff\n      and\n      0xffffffffffffffffffffffffffffffffffffffff\n      and\n      0xffffffffffffffffffffffffffffffffffffffff\n      and\n      dup2\n      mstore\n      0x20\n      add\n      0x01\n      dup3\n      add\n      dup1\n      sload\n      tag_66\n      swap1\n      tag_44\n      jump\t// in\n    tag_66:\n      dup1\n      0x1f\n      add\n      0x20\n      dup1\n      swap2\n      div\n      mul\n      0x20\n      add\n      mload(0x40)\n      swap1\n      dup2\n      add\n      0x40\n      mstore\n      dup1\n      swap3\n      swap2\n      swap1\n      dup2\n      dup2\n      mstore\n      0x20\n      add\n      dup3\n      dup1\n      sload\n      tag_67\n      swap1\n      tag_44\n      jump\t// in\n    tag_67:\n      dup1\n      iszero\n      tag_68\n      jumpi\n      dup1\n      0x1f\n      lt\n      tag_69\n      jumpi\n      0x0100\n      dup1\n      dup4\n      sload\n      div\n      mul\n      dup4\n      mstore\n      swap2\n      0x20\n      add\n      swap2\n      jump(tag_68)\n    tag_69:\n      dup3\n      add\n      swap2\n      swap1\n      0x00\n      mstore\n      keccak256(0x00, 0x20)\n      swap1\n    tag_70:\n      dup2\n      sload\n      dup2\n      mstore\n      swap1\n      0x01\n      add\n      swap1\n      0x20\n      add\n      dup1\n      dup4\n      gt\n      tag_70\n      jumpi\n      dup3\n      swap1\n      sub\n      0x1f\n      and\n      dup3\n      add\n      swap2\n    tag_68:\n      pop\n      pop\n      pop\n      pop\n      pop\n      dup2\n      mstore\n      pop\n      pop\n      dup2\n      mstore\n      0x20\n      add\n      swap1\n      0x01\n      add\n      swap1\n      jump(tag_63)\n    tag_64:\n      pop\n      pop\n      pop\n      pop\n      swap1\n      pop\n        /* \"contracts/1_Storage.sol\":532:637  function get_all() external view returns(Address_book[] memory)... */\n      swap1\n      jump\t// out\n        /* \"contracts/1_Storage.sol\":303:337  Address_book[] public address_book */\n    tag_22:\n      0x00\n      dup2\n      dup2\n      sload\n      dup2\n      lt\n      tag_71\n      jumpi\n      0x00\n      dup1\n      revert\n    tag_71:\n      swap1\n      0x00\n      mstore\n      keccak256(0x00, 0x20)\n      swap1\n      0x02\n      mul\n      add\n      0x00\n      swap2\n      pop\n      swap1\n      pop\n      dup1\n      0x00\n      add\n      0x00\n      swap1\n      sload\n      swap1\n      0x0100\n      exp\n      swap1\n      div\n      0xffffffffffffffffffffffffffffffffffffffff\n      and\n      swap1\n      dup1\n      0x01\n      add\n      dup1\n      sload\n      tag_73\n      swap1\n      tag_44\n      jump\t// in\n    tag_73:\n      dup1\n      0x1f\n      add\n      0x20\n      dup1\n      swap2\n      div\n      mul\n      0x20\n      add\n      mload(0x40)\n      swap1\n      dup2\n      add\n      0x40\n      mstore\n      dup1\n      swap3\n      swap2\n      swap1\n      dup2\n      dup2\n      mstore\n      0x20\n      add\n      dup3\n      dup1\n      sload\n      tag_74\n      swap1\n      tag_44\n      jump\t// in\n    tag_74:\n      dup1\n      iszero\n      tag_75\n      jumpi\n      dup1\n      0x1f\n      lt\n      tag_76\n      jumpi\n      0x0100\n      dup1\n      dup4\n      sload\n      div\n      mul\n      dup4\n      mstore\n      swap2\n      0x20\n      add\n      swap2\n      jump(tag_75)\n    tag_76:\n      dup3\n      add\n      swap2\n      swap1\n      0x00\n      mstore\n      keccak256(0x00, 0x20)\n      swap1\n    tag_77:\n      dup2\n      sload\n      dup2\n      mstore\n      swap1\n      0x01\n      add\n      swap1\n      0x20\n      add\n      dup1\n      dup4\n      gt\n      tag_77\n      jumpi\n      dup3\n      swap1\n      sub\n      0x1f\n      and\n      dup3\n      add\n      swap2\n    tag_75:\n      pop\n      pop\n      pop\n      pop\n      pop\n      swap1\n      pop\n      dup3\n      jump\t// out\n    tag_27:\n      mload(0x40)\n      dup1\n      0x40\n      add\n      0x40\n      mstore\n      dup1\n      and(0xffffffffffffffffffffffffffffffffffffffff, 0x00)\n      dup2\n      mstore\n      0x20\n      add\n      0x60\n      dup2\n      mstore\n      pop\n      swap1\n      jump\t// out\n    tag_30:\n      dup3\n      dup1\n      sload\n      tag_78\n      swap1\n      tag_44\n      jump\t// in\n    tag_78:\n      swap1\n      0x00\n      mstore\n      keccak256(0x00, 0x20)\n      swap1\n      0x1f\n      add\n      0x20\n      swap1\n      div\n      dup2\n      add\n      swap3\n      dup3\n      tag_80\n      jumpi\n      0x00\n      dup6\n      sstore\n      jump(tag_79)\n    tag_80:\n      dup3\n      0x1f\n      lt\n      tag_81\n      jumpi\n      dup1\n      mload\n      not(0xff)\n      and\n      dup4\n      dup1\n      add\n      or\n      dup6\n      sstore\n      jump(tag_79)\n    tag_81:\n      dup3\n      dup1\n      add\n      0x01\n      add\n      dup6\n      sstore\n      dup3\n      iszero\n      tag_79\n      jumpi\n      swap2\n      dup3\n      add\n    tag_82:\n      dup3\n      dup2\n      gt\n      iszero\n      tag_83\n      jumpi\n      dup3\n      mload\n      dup3\n      sstore\n      swap2\n      0x20\n      add\n      swap2\n      swap1\n      0x01\n      add\n      swap1\n      jump(tag_82)\n    tag_83:\n    tag_79:\n      pop\n      swap1\n      pop\n      tag_84\n      swap2\n      swap1\n      tag_85\n      jump\t// in\n    tag_84:\n      pop\n      swap1\n      jump\t// out\n    tag_85:\n    tag_86:\n      dup1\n      dup3\n      gt\n      iszero\n      tag_87\n      jumpi\n      0x00\n      dup2\n      0x00\n      swap1\n      sstore\n      pop\n      0x01\n      add\n      jump(tag_86)\n    tag_87:\n      pop\n      swap1\n      jump\t// out\n        /* \"#utility.yul\":7:419   */\n    tag_89:\n        /* \"#utility.yul\":85:90   */\n      0x00\n        /* \"#utility.yul\":110:176   */\n      tag_91\n        /* \"#utility.yul\":126:175   */\n      tag_92\n        /* \"#utility.yul\":168:174   */\n      dup5\n        /* \"#utility.yul\":126:175   */\n      tag_93\n      jump\t// in\n    tag_92:\n        /* \"#utility.yul\":110:176   */\n      tag_94\n      jump\t// in\n    tag_91:\n        /* \"#utility.yul\":101:176   */\n      swap1\n      pop\n        /* \"#utility.yul\":199:205   */\n      dup3\n        /* \"#utility.yul\":192:197   */\n      dup2\n        /* \"#utility.yul\":185:206   */\n      mstore\n        /* \"#utility.yul\":237:241   */\n      0x20\n        /* \"#utility.yul\":230:235   */\n      dup2\n        /* \"#utility.yul\":226:242   */\n      add\n        /* \"#utility.yul\":275:278   */\n      dup5\n        /* \"#utility.yul\":266:272   */\n      dup5\n        /* \"#utility.yul\":261:264   */\n      dup5\n        /* \"#utility.yul\":257:273   */\n      add\n        /* \"#utility.yul\":254:279   */\n      gt\n        /* \"#utility.yul\":251:363   */\n      iszero\n      tag_95\n      jumpi\n        /* \"#utility.yul\":282:361   */\n      tag_96\n      tag_97\n      jump\t// in\n    tag_96:\n        /* \"#utility.yul\":251:363   */\n    tag_95:\n        /* \"#utility.yul\":372:413   */\n      tag_98\n        /* \"#utility.yul\":406:412   */\n      dup5\n        /* \"#utility.yul\":401:404   */\n      dup3\n        /* \"#utility.yul\":396:399   */\n      dup6\n        /* \"#utility.yul\":372:413   */\n      tag_99\n      jump\t// in\n    tag_98:\n        /* \"#utility.yul\":91:419   */\n      pop\n        /* \"#utility.yul\":7:419   */\n      swap4\n      swap3\n      pop\n      pop\n      pop\n      jump\t// out\n        /* \"#utility.yul\":439:779   */\n    tag_100:\n        /* \"#utility.yul\":495:500   */\n      0x00\n        /* \"#utility.yul\":544:547   */\n      dup3\n        /* \"#utility.yul\":537:541   */\n      0x1f\n        /* \"#utility.yul\":529:535   */\n      dup4\n        /* \"#utility.yul\":525:542   */\n      add\n        /* \"#utility.yul\":521:548   */\n      slt\n        /* \"#utility.yul\":511:633   */\n      tag_102\n      jumpi\n        /* \"#utility.yul\":552:631   */\n      tag_103\n      tag_104\n      jump\t// in\n    tag_103:\n        /* \"#utility.yul\":511:633   */\n    tag_102:\n        /* \"#utility.yul\":669:675   */\n      dup2\n        /* \"#utility.yul\":656:676   */\n      calldataload\n        /* \"#utility.yul\":694:773   */\n      tag_105\n        /* \"#utility.yul\":769:772   */\n      dup5\n        /* \"#utility.yul\":761:767   */\n      dup3\n        /* \"#utility.yul\":754:758   */\n      0x20\n        /* \"#utility.yul\":746:752   */\n      dup7\n        /* \"#utility.yul\":742:759   */\n      add\n        /* \"#utility.yul\":694:773   */\n      tag_89\n      jump\t// in\n    tag_105:\n        /* \"#utility.yul\":685:773   */\n      swap2\n      pop\n        /* \"#utility.yul\":501:779   */\n      pop\n        /* \"#utility.yul\":439:779   */\n      swap3\n      swap2\n      pop\n      pop\n      jump\t// out\n        /* \"#utility.yul\":785:924   */\n    tag_106:\n        /* \"#utility.yul\":831:836   */\n      0x00\n        /* \"#utility.yul\":869:875   */\n      dup2\n        /* \"#utility.yul\":856:876   */\n      calldataload\n        /* \"#utility.yul\":847:876   */\n      swap1\n      pop\n        /* \"#utility.yul\":885:918   */\n      tag_108\n        /* \"#utility.yul\":912:917   */\n      dup2\n        /* \"#utility.yul\":885:918   */\n      tag_109\n      jump\t// in\n    tag_108:\n        /* \"#utility.yul\":785:924   */\n      swap3\n      swap2\n      pop\n      pop\n      jump\t// out\n        /* \"#utility.yul\":930:1439   */\n    tag_9:\n        /* \"#utility.yul\":999:1005   */\n      0x00\n        /* \"#utility.yul\":1048:1050   */\n      0x20\n        /* \"#utility.yul\":1036:1045   */\n      dup3\n        /* \"#utility.yul\":1027:1034   */\n      dup5\n        /* \"#utility.yul\":1023:1046   */\n      sub\n        /* \"#utility.yul\":1019:1051   */\n      slt\n        /* \"#utility.yul\":1016:1135   */\n      iszero\n      tag_111\n      jumpi\n        /* \"#utility.yul\":1054:1133   */\n      tag_112\n      tag_113\n      jump\t// in\n    tag_112:\n        /* \"#utility.yul\":1016:1135   */\n    tag_111:\n        /* \"#utility.yul\":1202:1203   */\n      0x00\n        /* \"#utility.yul\":1191:1200   */\n      dup3\n        /* \"#utility.yul\":1187:1204   */\n      add\n        /* \"#utility.yul\":1174:1205   */\n      calldataload\n        /* \"#utility.yul\":1232:1250   */\n      0xffffffffffffffff\n        /* \"#utility.yul\":1224:1230   */\n      dup2\n        /* \"#utility.yul\":1221:1251   */\n      gt\n        /* \"#utility.yul\":1218:1335   */\n      iszero\n      tag_114\n      jumpi\n        /* \"#utility.yul\":1254:1333   */\n      tag_115\n      tag_116\n      jump\t// in\n    tag_115:\n        /* \"#utility.yul\":1218:1335   */\n    tag_114:\n        /* \"#utility.yul\":1359:1422   */\n      tag_117\n        /* \"#utility.yul\":1414:1421   */\n      dup5\n        /* \"#utility.yul\":1405:1411   */\n      dup3\n        /* \"#utility.yul\":1394:1403   */\n      dup6\n        /* \"#utility.yul\":1390:1412   */\n      add\n        /* \"#utility.yul\":1359:1422   */\n      tag_100\n      jump\t// in\n    tag_117:\n        /* \"#utility.yul\":1349:1422   */\n      swap2\n      pop\n        /* \"#utility.yul\":1145:1432   */\n      pop\n        /* \"#utility.yul\":930:1439   */\n      swap3\n      swap2\n      pop\n      pop\n      jump\t// out\n        /* \"#utility.yul\":1445:1774   */\n    tag_21:\n        /* \"#utility.yul\":1504:1510   */\n      0x00\n        /* \"#utility.yul\":1553:1555   */\n      0x20\n        /* \"#utility.yul\":1541:1550   */\n      dup3\n        /* \"#utility.yul\":1532:1539   */\n      dup5\n        /* \"#utility.yul\":1528:1551   */\n      sub\n        /* \"#utility.yul\":1524:1556   */\n      slt\n        /* \"#utility.yul\":1521:1640   */\n      iszero\n      tag_119\n      jumpi\n        /* \"#utility.yul\":1559:1638   */\n      tag_120\n      tag_113\n      jump\t// in\n    tag_120:\n        /* \"#utility.yul\":1521:1640   */\n    tag_119:\n        /* \"#utility.yul\":1679:1680   */\n      0x00\n        /* \"#utility.yul\":1704:1757   */\n      tag_121\n        /* \"#utility.yul\":1749:1756   */\n      dup5\n        /* \"#utility.yul\":1740:1746   */\n      dup3\n        /* \"#utility.yul\":1729:1738   */\n      dup6\n        /* \"#utility.yul\":1725:1747   */\n      add\n        /* \"#utility.yul\":1704:1757   */\n      tag_106\n      jump\t// in\n    tag_121:\n        /* \"#utility.yul\":1694:1757   */\n      swap2\n      pop\n        /* \"#utility.yul\":1650:1767   */\n      pop\n        /* \"#utility.yul\":1445:1774   */\n      swap3\n      swap2\n      pop\n      pop\n      jump\t// out\n        /* \"#utility.yul\":1780:2044   */\n    tag_122:\n        /* \"#utility.yul\":1903:1913   */\n      0x00\n        /* \"#utility.yul\":1938:2038   */\n      tag_124\n        /* \"#utility.yul\":2034:2037   */\n      dup4\n        /* \"#utility.yul\":2026:2032   */\n      dup4\n        /* \"#utility.yul\":1938:2038   */\n      tag_125\n      jump\t// in\n    tag_124:\n        /* \"#utility.yul\":1924:2038   */\n      swap1\n      pop\n        /* \"#utility.yul\":1780:2044   */\n      swap3\n      swap2\n      pop\n      pop\n      jump\t// out\n        /* \"#utility.yul\":2050:2158   */\n    tag_126:\n        /* \"#utility.yul\":2127:2151   */\n      tag_128\n        /* \"#utility.yul\":2145:2150   */\n      dup2\n        /* \"#utility.yul\":2127:2151   */\n      tag_129\n      jump\t// in\n    tag_128:\n        /* \"#utility.yul\":2122:2125   */\n      dup3\n        /* \"#utility.yul\":2115:2152   */\n      mstore\n        /* \"#utility.yul\":2050:2158   */\n      pop\n      pop\n      jump\t// out\n        /* \"#utility.yul\":2164:2282   */\n    tag_130:\n        /* \"#utility.yul\":2251:2275   */\n      tag_132\n        /* \"#utility.yul\":2269:2274   */\n      dup2\n        /* \"#utility.yul\":2251:2275   */\n      tag_129\n      jump\t// in\n    tag_132:\n        /* \"#utility.yul\":2246:2249   */\n      dup3\n        /* \"#utility.yul\":2239:2276   */\n      mstore\n        /* \"#utility.yul\":2164:2282   */\n      pop\n      pop\n      jump\t// out\n        /* \"#utility.yul\":2358:3485   */\n    tag_133:\n        /* \"#utility.yul\":2531:2534   */\n      0x00\n        /* \"#utility.yul\":2560:2641   */\n      tag_135\n        /* \"#utility.yul\":2635:2640   */\n      dup3\n        /* \"#utility.yul\":2560:2641   */\n      tag_136\n      jump\t// in\n    tag_135:\n        /* \"#utility.yul\":2657:2770   */\n      tag_137\n        /* \"#utility.yul\":2763:2769   */\n      dup2\n        /* \"#utility.yul\":2758:2761   */\n      dup6\n        /* \"#utility.yul\":2657:2770   */\n      tag_138\n      jump\t// in\n    tag_137:\n        /* \"#utility.yul\":2650:2770   */\n      swap4\n      pop\n        /* \"#utility.yul\":2796:2799   */\n      dup4\n        /* \"#utility.yul\":2841:2845   */\n      0x20\n        /* \"#utility.yul\":2833:2839   */\n      dup3\n        /* \"#utility.yul\":2829:2846   */\n      mul\n        /* \"#utility.yul\":2824:2827   */\n      dup6\n        /* \"#utility.yul\":2820:2847   */\n      add\n        /* \"#utility.yul\":2871:2954   */\n      tag_139\n        /* \"#utility.yul\":2948:2953   */\n      dup6\n        /* \"#utility.yul\":2871:2954   */\n      tag_140\n      jump\t// in\n    tag_139:\n        /* \"#utility.yul\":2977:2984   */\n      dup1\n        /* \"#utility.yul\":3008:3009   */\n      0x00\n        /* \"#utility.yul\":2993:3440   */\n    tag_141:\n        /* \"#utility.yul\":3018:3024   */\n      dup6\n        /* \"#utility.yul\":3015:3016   */\n      dup2\n        /* \"#utility.yul\":3012:3025   */\n      lt\n        /* \"#utility.yul\":2993:3440   */\n      iszero\n      tag_143\n      jumpi\n        /* \"#utility.yul\":3089:3098   */\n      dup5\n        /* \"#utility.yul\":3083:3087   */\n      dup5\n        /* \"#utility.yul\":3079:3099   */\n      sub\n        /* \"#utility.yul\":3074:3077   */\n      dup10\n        /* \"#utility.yul\":3067:3100   */\n      mstore\n        /* \"#utility.yul\":3140:3146   */\n      dup2\n        /* \"#utility.yul\":3134:3147   */\n      mload\n        /* \"#utility.yul\":3168:3286   */\n      tag_144\n        /* \"#utility.yul\":3281:3285   */\n      dup6\n        /* \"#utility.yul\":3266:3279   */\n      dup3\n        /* \"#utility.yul\":3168:3286   */\n      tag_122\n      jump\t// in\n    tag_144:\n        /* \"#utility.yul\":3160:3286   */\n      swap5\n      pop\n        /* \"#utility.yul\":3309:3396   */\n      tag_145\n        /* \"#utility.yul\":3389:3395   */\n      dup4\n        /* \"#utility.yul\":3309:3396   */\n      tag_146\n      jump\t// in\n    tag_145:\n        /* \"#utility.yul\":3299:3396   */\n      swap3\n      pop\n        /* \"#utility.yul\":3425:3429   */\n      0x20\n        /* \"#utility.yul\":3420:3423   */\n      dup11\n        /* \"#utility.yul\":3416:3430   */\n      add\n        /* \"#utility.yul\":3409:3430   */\n      swap10\n      pop\n        /* \"#utility.yul\":3053:3440   */\n      pop\n        /* \"#utility.yul\":3040:3041   */\n      0x01\n        /* \"#utility.yul\":3037:3038   */\n      dup2\n        /* \"#utility.yul\":3033:3042   */\n      add\n        /* \"#utility.yul\":3028:3042   */\n      swap1\n      pop\n        /* \"#utility.yul\":2993:3440   */\n      jump(tag_141)\n    tag_143:\n        /* \"#utility.yul\":2997:3011   */\n      pop\n        /* \"#utility.yul\":3456:3460   */\n      dup3\n        /* \"#utility.yul\":3449:3460   */\n      swap8\n      pop\n        /* \"#utility.yul\":3476:3479   */\n      dup8\n        /* \"#utility.yul\":3469:3479   */\n      swap6\n      pop\n        /* \"#utility.yul\":2536:3485   */\n      pop\n      pop\n      pop\n      pop\n      pop\n        /* \"#utility.yul\":2358:3485   */\n      swap3\n      swap2\n      pop\n      pop\n      jump\t// out\n        /* \"#utility.yul\":3491:3835   */\n    tag_147:\n        /* \"#utility.yul\":3569:3572   */\n      0x00\n        /* \"#utility.yul\":3597:3636   */\n      tag_149\n        /* \"#utility.yul\":3630:3635   */\n      dup3\n        /* \"#utility.yul\":3597:3636   */\n      tag_150\n      jump\t// in\n    tag_149:\n        /* \"#utility.yul\":3652:3713   */\n      tag_151\n        /* \"#utility.yul\":3706:3712   */\n      dup2\n        /* \"#utility.yul\":3701:3704   */\n      dup6\n        /* \"#utility.yul\":3652:3713   */\n      tag_152\n      jump\t// in\n    tag_151:\n        /* \"#utility.yul\":3645:3713   */\n      swap4\n      pop\n        /* \"#utility.yul\":3722:3774   */\n      tag_153\n        /* \"#utility.yul\":3767:3773   */\n      dup2\n        /* \"#utility.yul\":3762:3765   */\n      dup6\n        /* \"#utility.yul\":3755:3759   */\n      0x20\n        /* \"#utility.yul\":3748:3753   */\n      dup7\n        /* \"#utility.yul\":3744:3760   */\n      add\n        /* \"#utility.yul\":3722:3774   */\n      tag_154\n      jump\t// in\n    tag_153:\n        /* \"#utility.yul\":3799:3828   */\n      tag_155\n        /* \"#utility.yul\":3821:3827   */\n      dup2\n        /* \"#utility.yul\":3799:3828   */\n      tag_156\n      jump\t// in\n    tag_155:\n        /* \"#utility.yul\":3794:3797   */\n      dup5\n        /* \"#utility.yul\":3790:3829   */\n      add\n        /* \"#utility.yul\":3783:3829   */\n      swap2\n      pop\n        /* \"#utility.yul\":3573:3835   */\n      pop\n        /* \"#utility.yul\":3491:3835   */\n      swap3\n      swap2\n      pop\n      pop\n      jump\t// out\n        /* \"#utility.yul\":3841:4205   */\n    tag_157:\n        /* \"#utility.yul\":3929:3932   */\n      0x00\n        /* \"#utility.yul\":3957:3996   */\n      tag_159\n        /* \"#utility.yul\":3990:3995   */\n      dup3\n        /* \"#utility.yul\":3957:3996   */\n      tag_150\n      jump\t// in\n    tag_159:\n        /* \"#utility.yul\":4012:4083   */\n      tag_160\n        /* \"#utility.yul\":4076:4082   */\n      dup2\n        /* \"#utility.yul\":4071:4074   */\n      dup6\n        /* \"#utility.yul\":4012:4083   */\n      tag_161\n      jump\t// in\n    tag_160:\n        /* \"#utility.yul\":4005:4083   */\n      swap4\n      pop\n        /* \"#utility.yul\":4092:4144   */\n      tag_162\n        /* \"#utility.yul\":4137:4143   */\n      dup2\n        /* \"#utility.yul\":4132:4135   */\n      dup6\n        /* \"#utility.yul\":4125:4129   */\n      0x20\n        /* \"#utility.yul\":4118:4123   */\n      dup7\n        /* \"#utility.yul\":4114:4130   */\n      add\n        /* \"#utility.yul\":4092:4144   */\n      tag_154\n      jump\t// in\n    tag_162:\n        /* \"#utility.yul\":4169:4198   */\n      tag_163\n        /* \"#utility.yul\":4191:4197   */\n      dup2\n        /* \"#utility.yul\":4169:4198   */\n      tag_156\n      jump\t// in\n    tag_163:\n        /* \"#utility.yul\":4164:4167   */\n      dup5\n        /* \"#utility.yul\":4160:4199   */\n      add\n        /* \"#utility.yul\":4153:4199   */\n      swap2\n      pop\n        /* \"#utility.yul\":3933:4205   */\n      pop\n        /* \"#utility.yul\":3841:4205   */\n      swap3\n      swap2\n      pop\n      pop\n      jump\t// out\n        /* \"#utility.yul\":4277:4877   */\n    tag_125:\n        /* \"#utility.yul\":4390:4393   */\n      0x00\n        /* \"#utility.yul\":4426:4430   */\n      0x40\n        /* \"#utility.yul\":4421:4424   */\n      dup4\n        /* \"#utility.yul\":4417:4431   */\n      add\n        /* \"#utility.yul\":4513:4517   */\n      0x00\n        /* \"#utility.yul\":4506:4511   */\n      dup4\n        /* \"#utility.yul\":4502:4518   */\n      add\n        /* \"#utility.yul\":4496:4519   */\n      mload\n        /* \"#utility.yul\":4532:4595   */\n      tag_165\n        /* \"#utility.yul\":4589:4593   */\n      0x00\n        /* \"#utility.yul\":4584:4587   */\n      dup7\n        /* \"#utility.yul\":4580:4594   */\n      add\n        /* \"#utility.yul\":4566:4578   */\n      dup3\n        /* \"#utility.yul\":4532:4595   */\n      tag_126\n      jump\t// in\n    tag_165:\n        /* \"#utility.yul\":4441:4605   */\n      pop\n        /* \"#utility.yul\":4687:4691   */\n      0x20\n        /* \"#utility.yul\":4680:4685   */\n      dup4\n        /* \"#utility.yul\":4676:4692   */\n      add\n        /* \"#utility.yul\":4670:4693   */\n      mload\n        /* \"#utility.yul\":4740:4743   */\n      dup5\n        /* \"#utility.yul\":4734:4738   */\n      dup3\n        /* \"#utility.yul\":4730:4744   */\n      sub\n        /* \"#utility.yul\":4723:4727   */\n      0x20\n        /* \"#utility.yul\":4718:4721   */\n      dup7\n        /* \"#utility.yul\":4714:4728   */\n      add\n        /* \"#utility.yul\":4707:4745   */\n      mstore\n        /* \"#utility.yul\":4766:4839   */\n      tag_166\n        /* \"#utility.yul\":4834:4838   */\n      dup3\n        /* \"#utility.yul\":4820:4832   */\n      dup3\n        /* \"#utility.yul\":4766:4839   */\n      tag_147\n      jump\t// in\n    tag_166:\n        /* \"#utility.yul\":4758:4839   */\n      swap2\n      pop\n        /* \"#utility.yul\":4615:4850   */\n      pop\n        /* \"#utility.yul\":4867:4871   */\n      dup1\n        /* \"#utility.yul\":4860:4871   */\n      swap2\n      pop\n        /* \"#utility.yul\":4395:4877   */\n      pop\n        /* \"#utility.yul\":4277:4877   */\n      swap3\n      swap2\n      pop\n      pop\n      jump\t// out\n        /* \"#utility.yul\":4883:5306   */\n    tag_24:\n        /* \"#utility.yul\":5024:5028   */\n      0x00\n        /* \"#utility.yul\":5062:5064   */\n      0x40\n        /* \"#utility.yul\":5051:5060   */\n      dup3\n        /* \"#utility.yul\":5047:5065   */\n      add\n        /* \"#utility.yul\":5039:5065   */\n      swap1\n      pop\n        /* \"#utility.yul\":5075:5146   */\n      tag_168\n        /* \"#utility.yul\":5143:5144   */\n      0x00\n        /* \"#utility.yul\":5132:5141   */\n      dup4\n        /* \"#utility.yul\":5128:5145   */\n      add\n        /* \"#utility.yul\":5119:5125   */\n      dup6\n        /* \"#utility.yul\":5075:5146   */\n      tag_130\n      jump\t// in\n    tag_168:\n        /* \"#utility.yul\":5193:5202   */\n      dup2\n        /* \"#utility.yul\":5187:5191   */\n      dup2\n        /* \"#utility.yul\":5183:5203   */\n      sub\n        /* \"#utility.yul\":5178:5180   */\n      0x20\n        /* \"#utility.yul\":5167:5176   */\n      dup4\n        /* \"#utility.yul\":5163:5181   */\n      add\n        /* \"#utility.yul\":5156:5204   */\n      mstore\n        /* \"#utility.yul\":5221:5299   */\n      tag_169\n        /* \"#utility.yul\":5294:5298   */\n      dup2\n        /* \"#utility.yul\":5285:5291   */\n      dup5\n        /* \"#utility.yul\":5221:5299   */\n      tag_157\n      jump\t// in\n    tag_169:\n        /* \"#utility.yul\":5213:5299   */\n      swap1\n      pop\n        /* \"#utility.yul\":4883:5306   */\n      swap4\n      swap3\n      pop\n      pop\n      pop\n      jump\t// out\n        /* \"#utility.yul\":5312:5793   */\n    tag_18:\n        /* \"#utility.yul\":5509:5513   */\n      0x00\n        /* \"#utility.yul\":5547:5549   */\n      0x20\n        /* \"#utility.yul\":5536:5545   */\n      dup3\n        /* \"#utility.yul\":5532:5550   */\n      add\n        /* \"#utility.yul\":5524:5550   */\n      swap1\n      pop\n        /* \"#utility.yul\":5596:5605   */\n      dup2\n        /* \"#utility.yul\":5590:5594   */\n      dup2\n        /* \"#utility.yul\":5586:5606   */\n      sub\n        /* \"#utility.yul\":5582:5583   */\n      0x00\n        /* \"#utility.yul\":5571:5580   */\n      dup4\n        /* \"#utility.yul\":5567:5584   */\n      add\n        /* \"#utility.yul\":5560:5607   */\n      mstore\n        /* \"#utility.yul\":5624:5786   */\n      tag_171\n        /* \"#utility.yul\":5781:5785   */\n      dup2\n        /* \"#utility.yul\":5772:5778   */\n      dup5\n        /* \"#utility.yul\":5624:5786   */\n      tag_133\n      jump\t// in\n    tag_171:\n        /* \"#utility.yul\":5616:5786   */\n      swap1\n      pop\n        /* \"#utility.yul\":5312:5793   */\n      swap3\n      swap2\n      pop\n      pop\n      jump\t// out\n        /* \"#utility.yul\":5799:6112   */\n    tag_14:\n        /* \"#utility.yul\":5912:5916   */\n      0x00\n        /* \"#utility.yul\":5950:5952   */\n      0x20\n        /* \"#utility.yul\":5939:5948   */\n      dup3\n        /* \"#utility.yul\":5935:5953   */\n      add\n        /* \"#utility.yul\":5927:5953   */\n      swap1\n      pop\n        /* \"#utility.yul\":5999:6008   */\n      dup2\n        /* \"#utility.yul\":5993:5997   */\n      dup2\n        /* \"#utility.yul\":5989:6009   */\n      sub\n        /* \"#utility.yul\":5985:5986   */\n      0x00\n        /* \"#utility.yul\":5974:5983   */\n      dup4\n        /* \"#utility.yul\":5970:5987   */\n      add\n        /* \"#utility.yul\":5963:6010   */\n      mstore\n        /* \"#utility.yul\":6027:6105   */\n      tag_173\n        /* \"#utility.yul\":6100:6104   */\n      dup2\n        /* \"#utility.yul\":6091:6097   */\n      dup5\n        /* \"#utility.yul\":6027:6105   */\n      tag_157\n      jump\t// in\n    tag_173:\n        /* \"#utility.yul\":6019:6105   */\n      swap1\n      pop\n        /* \"#utility.yul\":5799:6112   */\n      swap3\n      swap2\n      pop\n      pop\n      jump\t// out\n        /* \"#utility.yul\":6118:6247   */\n    tag_94:\n        /* \"#utility.yul\":6152:6158   */\n      0x00\n        /* \"#utility.yul\":6179:6199   */\n      tag_175\n      tag_176\n      jump\t// in\n    tag_175:\n        /* \"#utility.yul\":6169:6199   */\n      swap1\n      pop\n        /* \"#utility.yul\":6208:6241   */\n      tag_177\n        /* \"#utility.yul\":6236:6240   */\n      dup3\n        /* \"#utility.yul\":6228:6234   */\n      dup3\n        /* \"#utility.yul\":6208:6241   */\n      tag_178\n      jump\t// in\n    tag_177:\n        /* \"#utility.yul\":6118:6247   */\n      swap2\n      swap1\n      pop\n      jump\t// out\n        /* \"#utility.yul\":6253:6328   */\n    tag_176:\n        /* \"#utility.yul\":6286:6292   */\n      0x00\n        /* \"#utility.yul\":6319:6321   */\n      0x40\n        /* \"#utility.yul\":6313:6322   */\n      mload\n        /* \"#utility.yul\":6303:6322   */\n      swap1\n      pop\n        /* \"#utility.yul\":6253:6328   */\n      swap1\n      jump\t// out\n        /* \"#utility.yul\":6334:6642   */\n    tag_93:\n        /* \"#utility.yul\":6396:6400   */\n      0x00\n        /* \"#utility.yul\":6486:6504   */\n      0xffffffffffffffff\n        /* \"#utility.yul\":6478:6484   */\n      dup3\n        /* \"#utility.yul\":6475:6505   */\n      gt\n        /* \"#utility.yul\":6472:6528   */\n      iszero\n      tag_181\n      jumpi\n        /* \"#utility.yul\":6508:6526   */\n      tag_182\n      tag_183\n      jump\t// in\n    tag_182:\n        /* \"#utility.yul\":6472:6528   */\n    tag_181:\n        /* \"#utility.yul\":6546:6575   */\n      tag_184\n        /* \"#utility.yul\":6568:6574   */\n      dup3\n        /* \"#utility.yul\":6546:6575   */\n      tag_156\n      jump\t// in\n    tag_184:\n        /* \"#utility.yul\":6538:6575   */\n      swap1\n      pop\n        /* \"#utility.yul\":6630:6634   */\n      0x20\n        /* \"#utility.yul\":6624:6628   */\n      dup2\n        /* \"#utility.yul\":6620:6635   */\n      add\n        /* \"#utility.yul\":6612:6635   */\n      swap1\n      pop\n        /* \"#utility.yul\":6334:6642   */\n      swap2\n      swap1\n      pop\n      jump\t// out\n        /* \"#utility.yul\":6648:6807   */\n    tag_140:\n        /* \"#utility.yul\":6742:6746   */\n      0x00\n        /* \"#utility.yul\":6765:6768   */\n      dup2\n        /* \"#utility.yul\":6757:6768   */\n      swap1\n      pop\n        /* \"#utility.yul\":6795:6799   */\n      0x20\n        /* \"#utility.yul\":6790:6793   */\n      dup3\n        /* \"#utility.yul\":6786:6800   */\n      add\n        /* \"#utility.yul\":6778:6800   */\n      swap1\n      pop\n        /* \"#utility.yul\":6648:6807   */\n      swap2\n      swap1\n      pop\n      jump\t// out\n        /* \"#utility.yul\":6813:6954   */\n    tag_136:\n        /* \"#utility.yul\":6907:6913   */\n      0x00\n        /* \"#utility.yul\":6941:6946   */\n      dup2\n        /* \"#utility.yul\":6935:6947   */\n      mload\n        /* \"#utility.yul\":6925:6947   */\n      swap1\n      pop\n        /* \"#utility.yul\":6813:6954   */\n      swap2\n      swap1\n      pop\n      jump\t// out\n        /* \"#utility.yul\":6960:7059   */\n    tag_150:\n        /* \"#utility.yul\":7012:7018   */\n      0x00\n        /* \"#utility.yul\":7046:7051   */\n      dup2\n        /* \"#utility.yul\":7040:7052   */\n      mload\n        /* \"#utility.yul\":7030:7052   */\n      swap1\n      pop\n        /* \"#utility.yul\":6960:7059   */\n      swap2\n      swap1\n      pop\n      jump\t// out\n        /* \"#utility.yul\":7065:7205   */\n    tag_146:\n        /* \"#utility.yul\":7162:7166   */\n      0x00\n        /* \"#utility.yul\":7194:7198   */\n      0x20\n        /* \"#utility.yul\":7189:7192   */\n      dup3\n        /* \"#utility.yul\":7185:7199   */\n      add\n        /* \"#utility.yul\":7177:7199   */\n      swap1\n      pop\n        /* \"#utility.yul\":7065:7205   */\n      swap2\n      swap1\n      pop\n      jump\t// out\n        /* \"#utility.yul\":7211:7422   */\n    tag_138:\n        /* \"#utility.yul\":7337:7348   */\n      0x00\n        /* \"#utility.yul\":7371:7377   */\n      dup3\n        /* \"#utility.yul\":7366:7369   */\n      dup3\n        /* \"#utility.yul\":7359:7378   */\n      mstore\n        /* \"#utility.yul\":7411:7415   */\n      0x20\n        /* \"#utility.yul\":7406:7409   */\n      dup3\n        /* \"#utility.yul\":7402:7416   */\n      add\n        /* \"#utility.yul\":7387:7416   */\n      swap1\n      pop\n        /* \"#utility.yul\":7211:7422   */\n      swap3\n      swap2\n      pop\n      pop\n      jump\t// out\n        /* \"#utility.yul\":7428:7587   */\n    tag_152:\n        /* \"#utility.yul\":7502:7513   */\n      0x00\n        /* \"#utility.yul\":7536:7542   */\n      dup3\n        /* \"#utility.yul\":7531:7534   */\n      dup3\n        /* \"#utility.yul\":7524:7543   */\n      mstore\n        /* \"#utility.yul\":7576:7580   */\n      0x20\n        /* \"#utility.yul\":7571:7574   */\n      dup3\n        /* \"#utility.yul\":7567:7581   */\n      add\n        /* \"#utility.yul\":7552:7581   */\n      swap1\n      pop\n        /* \"#utility.yul\":7428:7587   */\n      swap3\n      swap2\n      pop\n      pop\n      jump\t// out\n        /* \"#utility.yul\":7593:7762   */\n    tag_161:\n        /* \"#utility.yul\":7677:7688   */\n      0x00\n        /* \"#utility.yul\":7711:7717   */\n      dup3\n        /* \"#utility.yul\":7706:7709   */\n      dup3\n        /* \"#utility.yul\":7699:7718   */\n      mstore\n        /* \"#utility.yul\":7751:7755   */\n      0x20\n        /* \"#utility.yul\":7746:7749   */\n      dup3\n        /* \"#utility.yul\":7742:7756   */\n      add\n        /* \"#utility.yul\":7727:7756   */\n      swap1\n      pop\n        /* \"#utility.yul\":7593:7762   */\n      swap3\n      swap2\n      pop\n      pop\n      jump\t// out\n        /* \"#utility.yul\":7768:7864   */\n    tag_129:\n        /* \"#utility.yul\":7805:7812   */\n      0x00\n        /* \"#utility.yul\":7834:7858   */\n      tag_193\n        /* \"#utility.yul\":7852:7857   */\n      dup3\n        /* \"#utility.yul\":7834:7858   */\n      tag_194\n      jump\t// in\n    tag_193:\n        /* \"#utility.yul\":7823:7858   */\n      swap1\n      pop\n        /* \"#utility.yul\":7768:7864   */\n      swap2\n      swap1\n      pop\n      jump\t// out\n        /* \"#utility.yul\":7870:7996   */\n    tag_194:\n        /* \"#utility.yul\":7907:7914   */\n      0x00\n        /* \"#utility.yul\":7947:7989   */\n      0xffffffffffffffffffffffffffffffffffffffff\n        /* \"#utility.yul\":7940:7945   */\n      dup3\n        /* \"#utility.yul\":7936:7990   */\n      and\n        /* \"#utility.yul\":7925:7990   */\n      swap1\n      pop\n        /* \"#utility.yul\":7870:7996   */\n      swap2\n      swap1\n      pop\n      jump\t// out\n        /* \"#utility.yul\":8002:8079   */\n    tag_196:\n        /* \"#utility.yul\":8039:8046   */\n      0x00\n        /* \"#utility.yul\":8068:8073   */\n      dup2\n        /* \"#utility.yul\":8057:8073   */\n      swap1\n      pop\n        /* \"#utility.yul\":8002:8079   */\n      swap2\n      swap1\n      pop\n      jump\t// out\n        /* \"#utility.yul\":8085:8239   */\n    tag_99:\n        /* \"#utility.yul\":8169:8175   */\n      dup3\n        /* \"#utility.yul\":8164:8167   */\n      dup2\n        /* \"#utility.yul\":8159:8162   */\n      dup4\n        /* \"#utility.yul\":8146:8176   */\n      calldatacopy\n        /* \"#utility.yul\":8231:8232   */\n      0x00\n        /* \"#utility.yul\":8222:8228   */\n      dup4\n        /* \"#utility.yul\":8217:8220   */\n      dup4\n        /* \"#utility.yul\":8213:8229   */\n      add\n        /* \"#utility.yul\":8206:8233   */\n      mstore\n        /* \"#utility.yul\":8085:8239   */\n      pop\n      pop\n      pop\n      jump\t// out\n        /* \"#utility.yul\":8245:8552   */\n    tag_154:\n        /* \"#utility.yul\":8313:8314   */\n      0x00\n        /* \"#utility.yul\":8323:8436   */\n    tag_200:\n        /* \"#utility.yul\":8337:8343   */\n      dup4\n        /* \"#utility.yul\":8334:8335   */\n      dup2\n        /* \"#utility.yul\":8331:8344   */\n      lt\n        /* \"#utility.yul\":8323:8436   */\n      iszero\n      tag_202\n      jumpi\n        /* \"#utility.yul\":8422:8423   */\n      dup1\n        /* \"#utility.yul\":8417:8420   */\n      dup3\n        /* \"#utility.yul\":8413:8424   */\n      add\n        /* \"#utility.yul\":8407:8425   */\n      mload\n        /* \"#utility.yul\":8403:8404   */\n      dup2\n        /* \"#utility.yul\":8398:8401   */\n      dup5\n        /* \"#utility.yul\":8394:8405   */\n      add\n        /* \"#utility.yul\":8387:8426   */\n      mstore\n        /* \"#utility.yul\":8359:8361   */\n      0x20\n        /* \"#utility.yul\":8356:8357   */\n      dup2\n        /* \"#utility.yul\":8352:8362   */\n      add\n        /* \"#utility.yul\":8347:8362   */\n      swap1\n      pop\n        /* \"#utility.yul\":8323:8436   */\n      jump(tag_200)\n    tag_202:\n        /* \"#utility.yul\":8454:8460   */\n      dup4\n        /* \"#utility.yul\":8451:8452   */\n      dup2\n        /* \"#utility.yul\":8448:8461   */\n      gt\n        /* \"#utility.yul\":8445:8546   */\n      iszero\n      tag_203\n      jumpi\n        /* \"#utility.yul\":8534:8535   */\n      0x00\n        /* \"#utility.yul\":8525:8531   */\n      dup5\n        /* \"#utility.yul\":8520:8523   */\n      dup5\n        /* \"#utility.yul\":8516:8532   */\n      add\n        /* \"#utility.yul\":8509:8536   */\n      mstore\n        /* \"#utility.yul\":8445:8546   */\n    tag_203:\n        /* \"#utility.yul\":8294:8552   */\n      pop\n        /* \"#utility.yul\":8245:8552   */\n      pop\n      pop\n      pop\n      jump\t// out\n        /* \"#utility.yul\":8558:8878   */\n    tag_44:\n        /* \"#utility.yul\":8602:8608   */\n      0x00\n        /* \"#utility.yul\":8639:8640   */\n      0x02\n        /* \"#utility.yul\":8633:8637   */\n      dup3\n        /* \"#utility.yul\":8629:8641   */\n      div\n        /* \"#utility.yul\":8619:8641   */\n      swap1\n      pop\n        /* \"#utility.yul\":8686:8687   */\n      0x01\n        /* \"#utility.yul\":8680:8684   */\n      dup3\n        /* \"#utility.yul\":8676:8688   */\n      and\n        /* \"#utility.yul\":8707:8725   */\n      dup1\n        /* \"#utility.yul\":8697:8778   */\n      tag_205\n      jumpi\n        /* \"#utility.yul\":8763:8767   */\n      0x7f\n        /* \"#utility.yul\":8755:8761   */\n      dup3\n        /* \"#utility.yul\":8751:8768   */\n      and\n        /* \"#utility.yul\":8741:8768   */\n      swap2\n      pop\n        /* \"#utility.yul\":8697:8778   */\n    tag_205:\n        /* \"#utility.yul\":8825:8827   */\n      0x20\n        /* \"#utility.yul\":8817:8823   */\n      dup3\n        /* \"#utility.yul\":8814:8828   */\n      lt\n        /* \"#utility.yul\":8794:8812   */\n      dup2\n        /* \"#utility.yul\":8791:8829   */\n      eq\n        /* \"#utility.yul\":8788:8872   */\n      iszero\n      tag_206\n      jumpi\n        /* \"#utility.yul\":8844:8862   */\n      tag_207\n      tag_208\n      jump\t// in\n    tag_207:\n        /* \"#utility.yul\":8788:8872   */\n    tag_206:\n        /* \"#utility.yul\":8609:8878   */\n      pop\n        /* \"#utility.yul\":8558:8878   */\n      swap2\n      swap1\n      pop\n      jump\t// out\n        /* \"#utility.yul\":8884:9165   */\n    tag_178:\n        /* \"#utility.yul\":8967:8994   */\n      tag_210\n        /* \"#utility.yul\":8989:8993   */\n      dup3\n        /* \"#utility.yul\":8967:8994   */\n      tag_156\n      jump\t// in\n    tag_210:\n        /* \"#utility.yul\":8959:8965   */\n      dup2\n        /* \"#utility.yul\":8955:8995   */\n      add\n        /* \"#utility.yul\":9097:9103   */\n      dup2\n        /* \"#utility.yul\":9085:9095   */\n      dup2\n        /* \"#utility.yul\":9082:9104   */\n      lt\n        /* \"#utility.yul\":9061:9079   */\n      0xffffffffffffffff\n        /* \"#utility.yul\":9049:9059   */\n      dup3\n        /* \"#utility.yul\":9046:9080   */\n      gt\n        /* \"#utility.yul\":9043:9105   */\n      or\n        /* \"#utility.yul\":9040:9128   */\n      iszero\n      tag_211\n      jumpi\n        /* \"#utility.yul\":9108:9126   */\n      tag_212\n      tag_183\n      jump\t// in\n    tag_212:\n        /* \"#utility.yul\":9040:9128   */\n    tag_211:\n        /* \"#utility.yul\":9148:9158   */\n      dup1\n        /* \"#utility.yul\":9144:9146   */\n      0x40\n        /* \"#utility.yul\":9137:9159   */\n      mstore\n        /* \"#utility.yul\":8927:9165   */\n      pop\n        /* \"#utility.yul\":8884:9165   */\n      pop\n      pop\n      jump\t// out\n        /* \"#utility.yul\":9171:9404   */\n    tag_52:\n        /* \"#utility.yul\":9210:9213   */\n      0x00\n        /* \"#utility.yul\":9233:9257   */\n      tag_214\n        /* \"#utility.yul\":9251:9256   */\n      dup3\n        /* \"#utility.yul\":9233:9257   */\n      tag_196\n      jump\t// in\n    tag_214:\n        /* \"#utility.yul\":9224:9257   */\n      swap2\n      pop\n        /* \"#utility.yul\":9279:9345   */\n      0xffffffffffffffffffffffffffffffffffffffffffffffffffffffffffffffff\n        /* \"#utility.yul\":9272:9277   */\n      dup3\n        /* \"#utility.yul\":9269:9346   */\n      eq\n        /* \"#utility.yul\":9266:9369   */\n      iszero\n      tag_215\n      jumpi\n        /* \"#utility.yul\":9349:9367   */\n      tag_216\n      tag_217\n      jump\t// in\n    tag_216:\n        /* \"#utility.yul\":9266:9369   */\n    tag_215:\n        /* \"#utility.yul\":9396:9397   */\n      0x01\n        /* \"#utility.yul\":9389:9394   */\n      dup3\n        /* \"#utility.yul\":9385:9398   */\n      add\n        /* \"#utility.yul\":9378:9398   */\n      swap1\n      pop\n        /* \"#utility.yul\":9171:9404   */\n      swap2\n      swap1\n      pop\n      jump\t// out\n        /* \"#utility.yul\":9410:9590   */\n    tag_217:\n        /* \"#utility.yul\":9458:9535   */\n      0x4e487b7100000000000000000000000000000000000000000000000000000000\n        /* \"#utility.yul\":9455:9456   */\n      0x00\n        /* \"#utility.yul\":9448:9536   */\n      mstore\n        /* \"#utility.yul\":9555:9559   */\n      0x11\n        /* \"#utility.yul\":9552:9553   */\n      0x04\n        /* \"#utility.yul\":9545:9560   */\n      mstore\n        /* \"#utility.yul\":9579:9583   */\n      0x24\n        /* \"#utility.yul\":9576:9577   */\n      0x00\n        /* \"#utility.yul\":9569:9584   */\n      revert\n        /* \"#utility.yul\":9596:9776   */\n    tag_208:\n        /* \"#utility.yul\":9644:9721   */\n      0x4e487b7100000000000000000000000000000000000000000000000000000000\n        /* \"#utility.yul\":9641:9642   */\n      0x00\n        /* \"#utility.yul\":9634:9722   */\n      mstore\n        /* \"#utility.yul\":9741:9745   */\n      0x22\n        /* \"#utility.yul\":9738:9739   */\n      0x04\n        /* \"#utility.yul\":9731:9746   */\n      mstore\n        /* \"#utility.yul\":9765:9769   */\n      0x24\n        /* \"#utility.yul\":9762:9763   */\n      0x00\n        /* \"#utility.yul\":9755:9770   */\n      revert\n        /* \"#utility.yul\":9782:9962   */\n    tag_37:\n        /* \"#utility.yul\":9830:9907   */\n      0x4e487b7100000000000000000000000000000000000000000000000000000000\n        /* \"#utility.yul\":9827:9828   */\n      0x00\n        /* \"#utility.yul\":9820:9908   */\n      mstore\n        /* \"#utility.yul\":9927:9931   */\n      0x32\n        /* \"#utility.yul\":9924:9925   */\n      0x04\n        /* \"#utility.yul\":9917:9932   */\n      mstore\n        /* \"#utility.yul\":9951:9955   */\n      0x24\n        /* \"#utility.yul\":9948:9949   */\n      0x00\n        /* \"#utility.yul\":9941:9956   */\n      revert\n        /* \"#utility.yul\":9968:10148   */\n    tag_183:\n        /* \"#utility.yul\":10016:10093   */\n      0x4e487b7100000000000000000000000000000000000000000000000000000000\n        /* \"#utility.yul\":10013:10014   */\n      0x00\n        /* \"#utility.yul\":10006:10094   */\n      mstore\n        /* \"#utility.yul\":10113:10117   */\n      0x41\n        /* \"#utility.yul\":10110:10111   */\n      0x04\n        /* \"#utility.yul\":10103:10118   */\n      mstore\n        /* \"#utility.yul\":10137:10141   */\n      0x24\n        /* \"#utility.yul\":10134:10135   */\n      0x00\n        /* \"#utility.yul\":10127:10142   */\n      revert\n        /* \"#utility.yul\":10154:10271   */\n    tag_104:\n        /* \"#utility.yul\":10263:10264   */\n      0x00\n        /* \"#utility.yul\":10260:10261   */\n      dup1\n        /* \"#utility.yul\":10253:10265   */\n      revert\n        /* \"#utility.yul\":10277:10394   */\n    tag_97:\n        /* \"#utility.yul\":10386:10387   */\n      0x00\n        /* \"#utility.yul\":10383:10384   */\n      dup1\n        /* \"#utility.yul\":10376:10388   */\n      revert\n        /* \"#utility.yul\":10400:10517   */\n    tag_116:\n        /* \"#utility.yul\":10509:10510   */\n      0x00\n        /* \"#utility.yul\":10506:10507   */\n      dup1\n        /* \"#utility.yul\":10499:10511   */\n      revert\n        /* \"#utility.yul\":10523:10640   */\n    tag_113:\n        /* \"#utility.yul\":10632:10633   */\n      0x00\n        /* \"#utility.yul\":10629:10630   */\n      dup1\n        /* \"#utility.yul\":10622:10634   */\n      revert\n        /* \"#utility.yul\":10646:10748   */\n    tag_156:\n        /* \"#utility.yul\":10687:10693   */\n      0x00\n        /* \"#utility.yul\":10738:10740   */\n      0x1f\n        /* \"#utility.yul\":10734:10741   */\n      not\n        /* \"#utility.yul\":10729:10731   */\n      0x1f\n        /* \"#utility.yul\":10722:10727   */\n      dup4\n        /* \"#utility.yul\":10718:10732   */\n      add\n        /* \"#utility.yul\":10714:10742   */\n      and\n        /* \"#utility.yul\":10704:10742   */\n      swap1\n      pop\n        /* \"#utility.yul\":10646:10748   */\n      swap2\n      swap1\n      pop\n      jump\t// out\n        /* \"#utility.yul\":10754:10876   */\n    tag_109:\n        /* \"#utility.yul\":10827:10851   */\n      tag_228\n        /* \"#utility.yul\":10845:10850   */\n      dup2\n        /* \"#utility.yul\":10827:10851   */\n      tag_196\n      jump\t// in\n    tag_228:\n        /* \"#utility.yul\":10820:10825   */\n      dup2\n        /* \"#utility.yul\":10817:10852   */\n      eq\n        /* \"#utility.yul\":10807:10870   */\n      tag_229\n      jumpi\n        /* \"#utility.yul\":10866:10867   */\n      0x00\n        /* \"#utility.yul\":10863:10864   */\n      dup1\n        /* \"#utility.yul\":10856:10868   */\n      revert\n        /* \"#utility.yul\":10807:10870   */\n    tag_229:\n        /* \"#utility.yul\":10754:10876   */\n      pop\n      jump\t// out\n\n    auxdata: 0xa2646970667358221220c237c228c73944d3c5ea1563ee5aec18d7471062e6ad4fa548f23479eaf6606264736f6c63430008070033\n}\n",
				"bytecode": {
					"linkReferences": {},
					"object": "608060405234801561001057600080fd5b50610cb9806100206000396000f3fe608060405234801561001057600080fd5b506004361061004c5760003560e01c80634f3d057a146100515780636d4ce63c1461006d578063880a3c861461008b578063b1429303146100a9575b600080fd5b61006b60048036038101906100669190610765565b6100da565b005b6100756101b9565b6040516100829190610983565b60405180910390f35b6100936103ea565b6040516100a09190610961565b60405180910390f35b6100c360048036038101906100be91906107ae565b610531565b6040516100d1929190610931565b60405180910390f35b6100e261060d565b33816000019073ffffffffffffffffffffffffffffffffffffffff16908173ffffffffffffffffffffffffffffffffffffffff1681525050818160200181905250600081908060018154018082558091505060019003906000526020600020906002020160009091909190915060008201518160000160006101000a81548173ffffffffffffffffffffffffffffffffffffffff021916908373ffffffffffffffffffffffffffffffffffffffff16021790555060208201518160010190805190602001906101b292919061063d565b5050505050565b6060806000805b600080549050811015610334573373ffffffffffffffffffffffffffffffffffffffff16600082815481106101f8576101f7610be9565b5b906000526020600020906002020160000160009054906101000a900473ffffffffffffffffffffffffffffffffffffffff1673ffffffffffffffffffffffffffffffffffffffff161415610321576000818154811061025a57610259610be9565b5b9060005260206000209060020201600101805461027690610adf565b80601f01602080910402602001604051908101604052809291908181526020018280546102a290610adf565b80156102ef5780601f106102c4576101008083540402835291602001916102ef565b820191906000526020600020905b8154815290600101906020018083116102d257829003601f168201915b505050505083838151811061030757610306610be9565b5b6020026020010181905250818061031d90610b42565b9250505b808061032c90610b42565b9150506101c0565b506000808154811061034957610348610be9565b5b9060005260206000209060020201600101805461036590610adf565b80601f016020809104026020016040519081016040528092919081815260200182805461039190610adf565b80156103de5780601f106103b3576101008083540402835291602001916103de565b820191906000526020600020905b8154815290600101906020018083116103c157829003601f168201915b50505050509250505090565b60606000805480602002602001604051908101604052809291908181526020016000905b8282101561052857838290600052602060002090600202016040518060400160405290816000820160009054906101000a900473ffffffffffffffffffffffffffffffffffffffff1673ffffffffffffffffffffffffffffffffffffffff1673ffffffffffffffffffffffffffffffffffffffff16815260200160018201805461049790610adf565b80601f01602080910402602001604051908101604052809291908181526020018280546104c390610adf565b80156105105780601f106104e557610100808354040283529160200191610510565b820191906000526020600020905b8154815290600101906020018083116104f357829003601f168201915b5050505050815250508152602001906001019061040e565b50505050905090565b6000818154811061054157600080fd5b90600052602060002090600202016000915090508060000160009054906101000a900473ffffffffffffffffffffffffffffffffffffffff169080600101805461058a90610adf565b80601f01602080910402602001604051908101604052809291908181526020018280546105b690610adf565b80156106035780601f106105d857610100808354040283529160200191610603565b820191906000526020600020905b8154815290600101906020018083116105e657829003601f168201915b5050505050905082565b6040518060400160405280600073ffffffffffffffffffffffffffffffffffffffff168152602001606081525090565b82805461064990610adf565b90600052602060002090601f01602090048101928261066b57600085556106b2565b82601f1061068457805160ff19168380011785556106b2565b828001600101855582156106b2579182015b828111156106b1578251825591602001919060010190610696565b5b5090506106bf91906106c3565b5090565b5b808211156106dc5760008160009055506001016106c4565b5090565b60006106f36106ee846109ca565b6109a5565b90508281526020810184848401111561070f5761070e610c4c565b5b61071a848285610a9d565b509392505050565b600082601f83011261073757610736610c47565b5b81356107478482602086016106e0565b91505092915050565b60008135905061075f81610c6c565b92915050565b60006020828403121561077b5761077a610c56565b5b600082013567ffffffffffffffff81111561079957610798610c51565b5b6107a584828501610722565b91505092915050565b6000602082840312156107c4576107c3610c56565b5b60006107d284828501610750565b91505092915050565b60006107e783836108f4565b905092915050565b6107f881610a61565b82525050565b61080781610a61565b82525050565b600061081882610a0b565b6108228185610a2e565b935083602082028501610834856109fb565b8060005b85811015610870578484038952815161085185826107db565b945061085c83610a21565b925060208a01995050600181019050610838565b50829750879550505050505092915050565b600061088d82610a16565b6108978185610a3f565b93506108a7818560208601610aac565b6108b081610c5b565b840191505092915050565b60006108c682610a16565b6108d08185610a50565b93506108e0818560208601610aac565b6108e981610c5b565b840191505092915050565b600060408301600083015161090c60008601826107ef565b50602083015184820360208601526109248282610882565b9150508091505092915050565b600060408201905061094660008301856107fe565b818103602083015261095881846108bb565b90509392505050565b6000602082019050818103600083015261097b818461080d565b905092915050565b6000602082019050818103600083015261099d81846108bb565b905092915050565b60006109af6109c0565b90506109bb8282610b11565b919050565b6000604051905090565b600067ffffffffffffffff8211156109e5576109e4610c18565b5b6109ee82610c5b565b9050602081019050919050565b6000819050602082019050919050565b600081519050919050565b600081519050919050565b6000602082019050919050565b600082825260208201905092915050565b600082825260208201905092915050565b600082825260208201905092915050565b6000610a6c82610a73565b9050919050565b600073ffffffffffffffffffffffffffffffffffffffff82169050919050565b6000819050919050565b82818337600083830152505050565b60005b83811015610aca578082015181840152602081019050610aaf565b83811115610ad9576000848401525b50505050565b60006002820490506001821680610af757607f821691505b60208210811415610b0b57610b0a610bba565b5b50919050565b610b1a82610c5b565b810181811067ffffffffffffffff82111715610b3957610b38610c18565b5b80604052505050565b6000610b4d82610a93565b91507fffffffffffffffffffffffffffffffffffffffffffffffffffffffffffffffff821415610b8057610b7f610b8b565b5b600182019050919050565b7f4e487b7100000000000000000000000000000000000000000000000000000000600052601160045260246000fd5b7f4e487b7100000000000000000000000000000000000000000000000000000000600052602260045260246000fd5b7f4e487b7100000000000000000000000000000000000000000000000000000000600052603260045260246000fd5b7f4e487b7100000000000000000000000000000000000000000000000000000000600052604160045260246000fd5b600080fd5b600080fd5b600080fd5b600080fd5b6000601f19601f8301169050919050565b610c7581610a93565b8114610c8057600080fd5b5056fea2646970667358221220c237c228c73944d3c5ea1563ee5aec18d7471062e6ad4fa548f23479eaf6606264736f6c63430008070033",
					"opcodes": "PUSH1 0x80 PUSH1 0x40 MSTORE CALLVALUE DUP1 ISZERO PUSH2 0x10 JUMPI PUSH1 0x0 DUP1 REVERT JUMPDEST POP PUSH2 0xCB9 DUP1 PUSH2 0x20 PUSH1 0x0 CODECOPY PUSH1 0x0 RETURN INVALID PUSH1 0x80 PUSH1 0x40 MSTORE CALLVALUE DUP1 ISZERO PUSH2 0x10 JUMPI PUSH1 0x0 DUP1 REVERT JUMPDEST POP PUSH1 0x4 CALLDATASIZE LT PUSH2 0x4C JUMPI PUSH1 0x0 CALLDATALOAD PUSH1 0xE0 SHR DUP1 PUSH4 0x4F3D057A EQ PUSH2 0x51 JUMPI DUP1 PUSH4 0x6D4CE63C EQ PUSH2 0x6D JUMPI DUP1 PUSH4 0x880A3C86 EQ PUSH2 0x8B JUMPI DUP1 PUSH4 0xB1429303 EQ PUSH2 0xA9 JUMPI JUMPDEST PUSH1 0x0 DUP1 REVERT JUMPDEST PUSH2 0x6B PUSH1 0x4 DUP1 CALLDATASIZE SUB DUP2 ADD SWAP1 PUSH2 0x66 SWAP2 SWAP1 PUSH2 0x765 JUMP JUMPDEST PUSH2 0xDA JUMP JUMPDEST STOP JUMPDEST PUSH2 0x75 PUSH2 0x1B9 JUMP JUMPDEST PUSH1 0x40 MLOAD PUSH2 0x82 SWAP2 SWAP1 PUSH2 0x983 JUMP JUMPDEST PUSH1 0x40 MLOAD DUP1 SWAP2 SUB SWAP1 RETURN JUMPDEST PUSH2 0x93 PUSH2 0x3EA JUMP JUMPDEST PUSH1 0x40 MLOAD PUSH2 0xA0 SWAP2 SWAP1 PUSH2 0x961 JUMP JUMPDEST PUSH1 0x40 MLOAD DUP1 SWAP2 SUB SWAP1 RETURN JUMPDEST PUSH2 0xC3 PUSH1 0x4 DUP1 CALLDATASIZE SUB DUP2 ADD SWAP1 PUSH2 0xBE SWAP2 SWAP1 PUSH2 0x7AE JUMP JUMPDEST PUSH2 0x531 JUMP JUMPDEST PUSH1 0x40 MLOAD PUSH2 0xD1 SWAP3 SWAP2 SWAP1 PUSH2 0x931 JUMP JUMPDEST PUSH1 0x40 MLOAD DUP1 SWAP2 SUB SWAP1 RETURN JUMPDEST PUSH2 0xE2 PUSH2 0x60D JUMP JUMPDEST CALLER DUP2 PUSH1 0x0 ADD SWAP1 PUSH20 0xFFFFFFFFFFFFFFFFFFFFFFFFFFFFFFFFFFFFFFFF AND SWAP1 DUP2 PUSH20 0xFFFFFFFFFFFFFFFFFFFFFFFFFFFFFFFFFFFFFFFF AND DUP2 MSTORE POP POP DUP2 DUP2 PUSH1 0x20 ADD DUP2 SWAP1 MSTORE POP PUSH1 0x0 DUP2 SWAP1 DUP1 PUSH1 0x1 DUP2 SLOAD ADD DUP1 DUP3 SSTORE DUP1 SWAP2 POP POP PUSH1 0x1 SWAP1 SUB SWAP1 PUSH1 0x0 MSTORE PUSH1 0x20 PUSH1 0x0 KECCAK256 SWAP1 PUSH1 0x2 MUL ADD PUSH1 0x0 SWAP1 SWAP2 SWAP1 SWAP2 SWAP1 SWAP2 POP PUSH1 0x0 DUP3 ADD MLOAD DUP2 PUSH1 0x0 ADD PUSH1 0x0 PUSH2 0x100 EXP DUP2 SLOAD DUP2 PUSH20 0xFFFFFFFFFFFFFFFFFFFFFFFFFFFFFFFFFFFFFFFF MUL NOT AND SWAP1 DUP4 PUSH20 0xFFFFFFFFFFFFFFFFFFFFFFFFFFFFFFFFFFFFFFFF AND MUL OR SWAP1 SSTORE POP PUSH1 0x20 DUP3 ADD MLOAD DUP2 PUSH1 0x1 ADD SWAP1 DUP1 MLOAD SWAP1 PUSH1 0x20 ADD SWAP1 PUSH2 0x1B2 SWAP3 SWAP2 SWAP1 PUSH2 0x63D JUMP JUMPDEST POP POP POP POP POP JUMP JUMPDEST PUSH1 0x60 DUP1 PUSH1 0x0 DUP1 JUMPDEST PUSH1 0x0 DUP1 SLOAD SWAP1 POP DUP2 LT ISZERO PUSH2 0x334 JUMPI CALLER PUSH20 0xFFFFFFFFFFFFFFFFFFFFFFFFFFFFFFFFFFFFFFFF AND PUSH1 0x0 DUP3 DUP2 SLOAD DUP2 LT PUSH2 0x1F8 JUMPI PUSH2 0x1F7 PUSH2 0xBE9 JUMP JUMPDEST JUMPDEST SWAP1 PUSH1 0x0 MSTORE PUSH1 0x20 PUSH1 0x0 KECCAK256 SWAP1 PUSH1 0x2 MUL ADD PUSH1 0x0 ADD PUSH1 0x0 SWAP1 SLOAD SWAP1 PUSH2 0x100 EXP SWAP1 DIV PUSH20 0xFFFFFFFFFFFFFFFFFFFFFFFFFFFFFFFFFFFFFFFF AND PUSH20 0xFFFFFFFFFFFFFFFFFFFFFFFFFFFFFFFFFFFFFFFF AND EQ ISZERO PUSH2 0x321 JUMPI PUSH1 0x0 DUP2 DUP2 SLOAD DUP2 LT PUSH2 0x25A JUMPI PUSH2 0x259 PUSH2 0xBE9 JUMP JUMPDEST JUMPDEST SWAP1 PUSH1 0x0 MSTORE PUSH1 0x20 PUSH1 0x0 KECCAK256 SWAP1 PUSH1 0x2 MUL ADD PUSH1 0x1 ADD DUP1 SLOAD PUSH2 0x276 SWAP1 PUSH2 0xADF JUMP JUMPDEST DUP1 PUSH1 0x1F ADD PUSH1 0x20 DUP1 SWAP2 DIV MUL PUSH1 0x20 ADD PUSH1 0x40 MLOAD SWAP1 DUP2 ADD PUSH1 0x40 MSTORE DUP1 SWAP3 SWAP2 SWAP1 DUP2 DUP2 MSTORE PUSH1 0x20 ADD DUP3 DUP1 SLOAD PUSH2 0x2A2 SWAP1 PUSH2 0xADF JUMP JUMPDEST DUP1 ISZERO PUSH2 0x2EF JUMPI DUP1 PUSH1 0x1F LT PUSH2 0x2C4 JUMPI PUSH2 0x100 DUP1 DUP4 SLOAD DIV MUL DUP4 MSTORE SWAP2 PUSH1 0x20 ADD SWAP2 PUSH2 0x2EF JUMP JUMPDEST DUP3 ADD SWAP2 SWAP1 PUSH1 0x0 MSTORE PUSH1 0x20 PUSH1 0x0 KECCAK256 SWAP1 JUMPDEST DUP2 SLOAD DUP2 MSTORE SWAP1 PUSH1 0x1 ADD SWAP1 PUSH1 0x20 ADD DUP1 DUP4 GT PUSH2 0x2D2 JUMPI DUP3 SWAP1 SUB PUSH1 0x1F AND DUP3 ADD SWAP2 JUMPDEST POP POP POP POP POP DUP4 DUP4 DUP2 MLOAD DUP2 LT PUSH2 0x307 JUMPI PUSH2 0x306 PUSH2 0xBE9 JUMP JUMPDEST JUMPDEST PUSH1 0x20 MUL PUSH1 0x20 ADD ADD DUP2 SWAP1 MSTORE POP DUP2 DUP1 PUSH2 0x31D SWAP1 PUSH2 0xB42 JUMP JUMPDEST SWAP3 POP POP JUMPDEST DUP1 DUP1 PUSH2 0x32C SWAP1 PUSH2 0xB42 JUMP JUMPDEST SWAP2 POP POP PUSH2 0x1C0 JUMP JUMPDEST POP PUSH1 0x0 DUP1 DUP2 SLOAD DUP2 LT PUSH2 0x349 JUMPI PUSH2 0x348 PUSH2 0xBE9 JUMP JUMPDEST JUMPDEST SWAP1 PUSH1 0x0 MSTORE PUSH1 0x20 PUSH1 0x0 KECCAK256 SWAP1 PUSH1 0x2 MUL ADD PUSH1 0x1 ADD DUP1 SLOAD PUSH2 0x365 SWAP1 PUSH2 0xADF JUMP JUMPDEST DUP1 PUSH1 0x1F ADD PUSH1 0x20 DUP1 SWAP2 DIV MUL PUSH1 0x20 ADD PUSH1 0x40 MLOAD SWAP1 DUP2 ADD PUSH1 0x40 MSTORE DUP1 SWAP3 SWAP2 SWAP1 DUP2 DUP2 MSTORE PUSH1 0x20 ADD DUP3 DUP1 SLOAD PUSH2 0x391 SWAP1 PUSH2 0xADF JUMP JUMPDEST DUP1 ISZERO PUSH2 0x3DE JUMPI DUP1 PUSH1 0x1F LT PUSH2 0x3B3 JUMPI PUSH2 0x100 DUP1 DUP4 SLOAD DIV MUL DUP4 MSTORE SWAP2 PUSH1 0x20 ADD SWAP2 PUSH2 0x3DE JUMP JUMPDEST DUP3 ADD SWAP2 SWAP1 PUSH1 0x0 MSTORE PUSH1 0x20 PUSH1 0x0 KECCAK256 SWAP1 JUMPDEST DUP2 SLOAD DUP2 MSTORE SWAP1 PUSH1 0x1 ADD SWAP1 PUSH1 0x20 ADD DUP1 DUP4 GT PUSH2 0x3C1 JUMPI DUP3 SWAP1 SUB PUSH1 0x1F AND DUP3 ADD SWAP2 JUMPDEST POP POP POP POP POP SWAP3 POP POP POP SWAP1 JUMP JUMPDEST PUSH1 0x60 PUSH1 0x0 DUP1 SLOAD DUP1 PUSH1 0x20 MUL PUSH1 0x20 ADD PUSH1 0x40 MLOAD SWAP1 DUP2 ADD PUSH1 0x40 MSTORE DUP1 SWAP3 SWAP2 SWAP1 DUP2 DUP2 MSTORE PUSH1 0x20 ADD PUSH1 0x0 SWAP1 JUMPDEST DUP3 DUP3 LT ISZERO PUSH2 0x528 JUMPI DUP4 DUP3 SWAP1 PUSH1 0x0 MSTORE PUSH1 0x20 PUSH1 0x0 KECCAK256 SWAP1 PUSH1 0x2 MUL ADD PUSH1 0x40 MLOAD DUP1 PUSH1 0x40 ADD PUSH1 0x40 MSTORE SWAP1 DUP2 PUSH1 0x0 DUP3 ADD PUSH1 0x0 SWAP1 SLOAD SWAP1 PUSH2 0x100 EXP SWAP1 DIV PUSH20 0xFFFFFFFFFFFFFFFFFFFFFFFFFFFFFFFFFFFFFFFF AND PUSH20 0xFFFFFFFFFFFFFFFFFFFFFFFFFFFFFFFFFFFFFFFF AND PUSH20 0xFFFFFFFFFFFFFFFFFFFFFFFFFFFFFFFFFFFFFFFF AND DUP2 MSTORE PUSH1 0x20 ADD PUSH1 0x1 DUP3 ADD DUP1 SLOAD PUSH2 0x497 SWAP1 PUSH2 0xADF JUMP JUMPDEST DUP1 PUSH1 0x1F ADD PUSH1 0x20 DUP1 SWAP2 DIV MUL PUSH1 0x20 ADD PUSH1 0x40 MLOAD SWAP1 DUP2 ADD PUSH1 0x40 MSTORE DUP1 SWAP3 SWAP2 SWAP1 DUP2 DUP2 MSTORE PUSH1 0x20 ADD DUP3 DUP1 SLOAD PUSH2 0x4C3 SWAP1 PUSH2 0xADF JUMP JUMPDEST DUP1 ISZERO PUSH2 0x510 JUMPI DUP1 PUSH1 0x1F LT PUSH2 0x4E5 JUMPI PUSH2 0x100 DUP1 DUP4 SLOAD DIV MUL DUP4 MSTORE SWAP2 PUSH1 0x20 ADD SWAP2 PUSH2 0x510 JUMP JUMPDEST DUP3 ADD SWAP2 SWAP1 PUSH1 0x0 MSTORE PUSH1 0x20 PUSH1 0x0 KECCAK256 SWAP1 JUMPDEST DUP2 SLOAD DUP2 MSTORE SWAP1 PUSH1 0x1 ADD SWAP1 PUSH1 0x20 ADD DUP1 DUP4 GT PUSH2 0x4F3 JUMPI DUP3 SWAP1 SUB PUSH1 0x1F AND DUP3 ADD SWAP2 JUMPDEST POP POP POP POP POP DUP2 MSTORE POP POP DUP2 MSTORE PUSH1 0x20 ADD SWAP1 PUSH1 0x1 ADD SWAP1 PUSH2 0x40E JUMP JUMPDEST POP POP POP POP SWAP1 POP SWAP1 JUMP JUMPDEST PUSH1 0x0 DUP2 DUP2 SLOAD DUP2 LT PUSH2 0x541 JUMPI PUSH1 0x0 DUP1 REVERT JUMPDEST SWAP1 PUSH1 0x0 MSTORE PUSH1 0x20 PUSH1 0x0 KECCAK256 SWAP1 PUSH1 0x2 MUL ADD PUSH1 0x0 SWAP2 POP SWAP1 POP DUP1 PUSH1 0x0 ADD PUSH1 0x0 SWAP1 SLOAD SWAP1 PUSH2 0x100 EXP SWAP1 DIV PUSH20 0xFFFFFFFFFFFFFFFFFFFFFFFFFFFFFFFFFFFFFFFF AND SWAP1 DUP1 PUSH1 0x1 ADD DUP1 SLOAD PUSH2 0x58A SWAP1 PUSH2 0xADF JUMP JUMPDEST DUP1 PUSH1 0x1F ADD PUSH1 0x20 DUP1 SWAP2 DIV MUL PUSH1 0x20 ADD PUSH1 0x40 MLOAD SWAP1 DUP2 ADD PUSH1 0x40 MSTORE DUP1 SWAP3 SWAP2 SWAP1 DUP2 DUP2 MSTORE PUSH1 0x20 ADD DUP3 DUP1 SLOAD PUSH2 0x5B6 SWAP1 PUSH2 0xADF JUMP JUMPDEST DUP1 ISZERO PUSH2 0x603 JUMPI DUP1 PUSH1 0x1F LT PUSH2 0x5D8 JUMPI PUSH2 0x100 DUP1 DUP4 SLOAD DIV MUL DUP4 MSTORE SWAP2 PUSH1 0x20 ADD SWAP2 PUSH2 0x603 JUMP JUMPDEST DUP3 ADD SWAP2 SWAP1 PUSH1 0x0 MSTORE PUSH1 0x20 PUSH1 0x0 KECCAK256 SWAP1 JUMPDEST DUP2 SLOAD DUP2 MSTORE SWAP1 PUSH1 0x1 ADD SWAP1 PUSH1 0x20 ADD DUP1 DUP4 GT PUSH2 0x5E6 JUMPI DUP3 SWAP1 SUB PUSH1 0x1F AND DUP3 ADD SWAP2 JUMPDEST POP POP POP POP POP SWAP1 POP DUP3 JUMP JUMPDEST PUSH1 0x40 MLOAD DUP1 PUSH1 0x40 ADD PUSH1 0x40 MSTORE DUP1 PUSH1 0x0 PUSH20 0xFFFFFFFFFFFFFFFFFFFFFFFFFFFFFFFFFFFFFFFF AND DUP2 MSTORE PUSH1 0x20 ADD PUSH1 0x60 DUP2 MSTORE POP SWAP1 JUMP JUMPDEST DUP3 DUP1 SLOAD PUSH2 0x649 SWAP1 PUSH2 0xADF JUMP JUMPDEST SWAP1 PUSH1 0x0 MSTORE PUSH1 0x20 PUSH1 0x0 KECCAK256 SWAP1 PUSH1 0x1F ADD PUSH1 0x20 SWAP1 DIV DUP2 ADD SWAP3 DUP3 PUSH2 0x66B JUMPI PUSH1 0x0 DUP6 SSTORE PUSH2 0x6B2 JUMP JUMPDEST DUP3 PUSH1 0x1F LT PUSH2 0x684 JUMPI DUP1 MLOAD PUSH1 0xFF NOT AND DUP4 DUP1 ADD OR DUP6 SSTORE PUSH2 0x6B2 JUMP JUMPDEST DUP3 DUP1 ADD PUSH1 0x1 ADD DUP6 SSTORE DUP3 ISZERO PUSH2 0x6B2 JUMPI SWAP2 DUP3 ADD JUMPDEST DUP3 DUP2 GT ISZERO PUSH2 0x6B1 JUMPI DUP3 MLOAD DUP3 SSTORE SWAP2 PUSH1 0x20 ADD SWAP2 SWAP1 PUSH1 0x1 ADD SWAP1 PUSH2 0x696 JUMP JUMPDEST JUMPDEST POP SWAP1 POP PUSH2 0x6BF SWAP2 SWAP1 PUSH2 0x6C3 JUMP JUMPDEST POP SWAP1 JUMP JUMPDEST JUMPDEST DUP1 DUP3 GT ISZERO PUSH2 0x6DC JUMPI PUSH1 0x0 DUP2 PUSH1 0x0 SWAP1 SSTORE POP PUSH1 0x1 ADD PUSH2 0x6C4 JUMP JUMPDEST POP SWAP1 JUMP JUMPDEST PUSH1 0x0 PUSH2 0x6F3 PUSH2 0x6EE DUP5 PUSH2 0x9CA JUMP JUMPDEST PUSH2 0x9A5 JUMP JUMPDEST SWAP1 POP DUP3 DUP2 MSTORE PUSH1 0x20 DUP2 ADD DUP5 DUP5 DUP5 ADD GT ISZERO PUSH2 0x70F JUMPI PUSH2 0x70E PUSH2 0xC4C JUMP JUMPDEST JUMPDEST PUSH2 0x71A DUP5 DUP3 DUP6 PUSH2 0xA9D JUMP JUMPDEST POP SWAP4 SWAP3 POP POP POP JUMP JUMPDEST PUSH1 0x0 DUP3 PUSH1 0x1F DUP4 ADD SLT PUSH2 0x737 JUMPI PUSH2 0x736 PUSH2 0xC47 JUMP JUMPDEST JUMPDEST DUP2 CALLDATALOAD PUSH2 0x747 DUP5 DUP3 PUSH1 0x20 DUP7 ADD PUSH2 0x6E0 JUMP JUMPDEST SWAP2 POP POP SWAP3 SWAP2 POP POP JUMP JUMPDEST PUSH1 0x0 DUP2 CALLDATALOAD SWAP1 POP PUSH2 0x75F DUP2 PUSH2 0xC6C JUMP JUMPDEST SWAP3 SWAP2 POP POP JUMP JUMPDEST PUSH1 0x0 PUSH1 0x20 DUP3 DUP5 SUB SLT ISZERO PUSH2 0x77B JUMPI PUSH2 0x77A PUSH2 0xC56 JUMP JUMPDEST JUMPDEST PUSH1 0x0 DUP3 ADD CALLDATALOAD PUSH8 0xFFFFFFFFFFFFFFFF DUP2 GT ISZERO PUSH2 0x799 JUMPI PUSH2 0x798 PUSH2 0xC51 JUMP JUMPDEST JUMPDEST PUSH2 0x7A5 DUP5 DUP3 DUP6 ADD PUSH2 0x722 JUMP JUMPDEST SWAP2 POP POP SWAP3 SWAP2 POP POP JUMP JUMPDEST PUSH1 0x0 PUSH1 0x20 DUP3 DUP5 SUB SLT ISZERO PUSH2 0x7C4 JUMPI PUSH2 0x7C3 PUSH2 0xC56 JUMP JUMPDEST JUMPDEST PUSH1 0x0 PUSH2 0x7D2 DUP5 DUP3 DUP6 ADD PUSH2 0x750 JUMP JUMPDEST SWAP2 POP POP SWAP3 SWAP2 POP POP JUMP JUMPDEST PUSH1 0x0 PUSH2 0x7E7 DUP4 DUP4 PUSH2 0x8F4 JUMP JUMPDEST SWAP1 POP SWAP3 SWAP2 POP POP JUMP JUMPDEST PUSH2 0x7F8 DUP2 PUSH2 0xA61 JUMP JUMPDEST DUP3 MSTORE POP POP JUMP JUMPDEST PUSH2 0x807 DUP2 PUSH2 0xA61 JUMP JUMPDEST DUP3 MSTORE POP POP JUMP JUMPDEST PUSH1 0x0 PUSH2 0x818 DUP3 PUSH2 0xA0B JUMP JUMPDEST PUSH2 0x822 DUP2 DUP6 PUSH2 0xA2E JUMP JUMPDEST SWAP4 POP DUP4 PUSH1 0x20 DUP3 MUL DUP6 ADD PUSH2 0x834 DUP6 PUSH2 0x9FB JUMP JUMPDEST DUP1 PUSH1 0x0 JUMPDEST DUP6 DUP2 LT ISZERO PUSH2 0x870 JUMPI DUP5 DUP5 SUB DUP10 MSTORE DUP2 MLOAD PUSH2 0x851 DUP6 DUP3 PUSH2 0x7DB JUMP JUMPDEST SWAP5 POP PUSH2 0x85C DUP4 PUSH2 0xA21 JUMP JUMPDEST SWAP3 POP PUSH1 0x20 DUP11 ADD SWAP10 POP POP PUSH1 0x1 DUP2 ADD SWAP1 POP PUSH2 0x838 JUMP JUMPDEST POP DUP3 SWAP8 POP DUP8 SWAP6 POP POP POP POP POP POP SWAP3 SWAP2 POP POP JUMP JUMPDEST PUSH1 0x0 PUSH2 0x88D DUP3 PUSH2 0xA16 JUMP JUMPDEST PUSH2 0x897 DUP2 DUP6 PUSH2 0xA3F JUMP JUMPDEST SWAP4 POP PUSH2 0x8A7 DUP2 DUP6 PUSH1 0x20 DUP7 ADD PUSH2 0xAAC JUMP JUMPDEST PUSH2 0x8B0 DUP2 PUSH2 0xC5B JUMP JUMPDEST DUP5 ADD SWAP2 POP POP SWAP3 SWAP2 POP POP JUMP JUMPDEST PUSH1 0x0 PUSH2 0x8C6 DUP3 PUSH2 0xA16 JUMP JUMPDEST PUSH2 0x8D0 DUP2 DUP6 PUSH2 0xA50 JUMP JUMPDEST SWAP4 POP PUSH2 0x8E0 DUP2 DUP6 PUSH1 0x20 DUP7 ADD PUSH2 0xAAC JUMP JUMPDEST PUSH2 0x8E9 DUP2 PUSH2 0xC5B JUMP JUMPDEST DUP5 ADD SWAP2 POP POP SWAP3 SWAP2 POP POP JUMP JUMPDEST PUSH1 0x0 PUSH1 0x40 DUP4 ADD PUSH1 0x0 DUP4 ADD MLOAD PUSH2 0x90C PUSH1 0x0 DUP7 ADD DUP3 PUSH2 0x7EF JUMP JUMPDEST POP PUSH1 0x20 DUP4 ADD MLOAD DUP5 DUP3 SUB PUSH1 0x20 DUP7 ADD MSTORE PUSH2 0x924 DUP3 DUP3 PUSH2 0x882 JUMP JUMPDEST SWAP2 POP POP DUP1 SWAP2 POP POP SWAP3 SWAP2 POP POP JUMP JUMPDEST PUSH1 0x0 PUSH1 0x40 DUP3 ADD SWAP1 POP PUSH2 0x946 PUSH1 0x0 DUP4 ADD DUP6 PUSH2 0x7FE JUMP JUMPDEST DUP2 DUP2 SUB PUSH1 0x20 DUP4 ADD MSTORE PUSH2 0x958 DUP2 DUP5 PUSH2 0x8BB JUMP JUMPDEST SWAP1 POP SWAP4 SWAP3 POP POP POP JUMP JUMPDEST PUSH1 0x0 PUSH1 0x20 DUP3 ADD SWAP1 POP DUP2 DUP2 SUB PUSH1 0x0 DUP4 ADD MSTORE PUSH2 0x97B DUP2 DUP5 PUSH2 0x80D JUMP JUMPDEST SWAP1 POP SWAP3 SWAP2 POP POP JUMP JUMPDEST PUSH1 0x0 PUSH1 0x20 DUP3 ADD SWAP1 POP DUP2 DUP2 SUB PUSH1 0x0 DUP4 ADD MSTORE PUSH2 0x99D DUP2 DUP5 PUSH2 0x8BB JUMP JUMPDEST SWAP1 POP SWAP3 SWAP2 POP POP JUMP JUMPDEST PUSH1 0x0 PUSH2 0x9AF PUSH2 0x9C0 JUMP JUMPDEST SWAP1 POP PUSH2 0x9BB DUP3 DUP3 PUSH2 0xB11 JUMP JUMPDEST SWAP2 SWAP1 POP JUMP JUMPDEST PUSH1 0x0 PUSH1 0x40 MLOAD SWAP1 POP SWAP1 JUMP JUMPDEST PUSH1 0x0 PUSH8 0xFFFFFFFFFFFFFFFF DUP3 GT ISZERO PUSH2 0x9E5 JUMPI PUSH2 0x9E4 PUSH2 0xC18 JUMP JUMPDEST JUMPDEST PUSH2 0x9EE DUP3 PUSH2 0xC5B JUMP JUMPDEST SWAP1 POP PUSH1 0x20 DUP2 ADD SWAP1 POP SWAP2 SWAP1 POP JUMP JUMPDEST PUSH1 0x0 DUP2 SWAP1 POP PUSH1 0x20 DUP3 ADD SWAP1 POP SWAP2 SWAP1 POP JUMP JUMPDEST PUSH1 0x0 DUP2 MLOAD SWAP1 POP SWAP2 SWAP1 POP JUMP JUMPDEST PUSH1 0x0 DUP2 MLOAD SWAP1 POP SWAP2 SWAP1 POP JUMP JUMPDEST PUSH1 0x0 PUSH1 0x20 DUP3 ADD SWAP1 POP SWAP2 SWAP1 POP JUMP JUMPDEST PUSH1 0x0 DUP3 DUP3 MSTORE PUSH1 0x20 DUP3 ADD SWAP1 POP SWAP3 SWAP2 POP POP JUMP JUMPDEST PUSH1 0x0 DUP3 DUP3 MSTORE PUSH1 0x20 DUP3 ADD SWAP1 POP SWAP3 SWAP2 POP POP JUMP JUMPDEST PUSH1 0x0 DUP3 DUP3 MSTORE PUSH1 0x20 DUP3 ADD SWAP1 POP SWAP3 SWAP2 POP POP JUMP JUMPDEST PUSH1 0x0 PUSH2 0xA6C DUP3 PUSH2 0xA73 JUMP JUMPDEST SWAP1 POP SWAP2 SWAP1 POP JUMP JUMPDEST PUSH1 0x0 PUSH20 0xFFFFFFFFFFFFFFFFFFFFFFFFFFFFFFFFFFFFFFFF DUP3 AND SWAP1 POP SWAP2 SWAP1 POP JUMP JUMPDEST PUSH1 0x0 DUP2 SWAP1 POP SWAP2 SWAP1 POP JUMP JUMPDEST DUP3 DUP2 DUP4 CALLDATACOPY PUSH1 0x0 DUP4 DUP4 ADD MSTORE POP POP POP JUMP JUMPDEST PUSH1 0x0 JUMPDEST DUP4 DUP2 LT ISZERO PUSH2 0xACA JUMPI DUP1 DUP3 ADD MLOAD DUP2 DUP5 ADD MSTORE PUSH1 0x20 DUP2 ADD SWAP1 POP PUSH2 0xAAF JUMP JUMPDEST DUP4 DUP2 GT ISZERO PUSH2 0xAD9 JUMPI PUSH1 0x0 DUP5 DUP5 ADD MSTORE JUMPDEST POP POP POP POP JUMP JUMPDEST PUSH1 0x0 PUSH1 0x2 DUP3 DIV SWAP1 POP PUSH1 0x1 DUP3 AND DUP1 PUSH2 0xAF7 JUMPI PUSH1 0x7F DUP3 AND SWAP2 POP JUMPDEST PUSH1 0x20 DUP3 LT DUP2 EQ ISZERO PUSH2 0xB0B JUMPI PUSH2 0xB0A PUSH2 0xBBA JUMP JUMPDEST JUMPDEST POP SWAP2 SWAP1 POP JUMP JUMPDEST PUSH2 0xB1A DUP3 PUSH2 0xC5B JUMP JUMPDEST DUP2 ADD DUP2 DUP2 LT PUSH8 0xFFFFFFFFFFFFFFFF DUP3 GT OR ISZERO PUSH2 0xB39 JUMPI PUSH2 0xB38 PUSH2 0xC18 JUMP JUMPDEST JUMPDEST DUP1 PUSH1 0x40 MSTORE POP POP POP JUMP JUMPDEST PUSH1 0x0 PUSH2 0xB4D DUP3 PUSH2 0xA93 JUMP JUMPDEST SWAP2 POP PUSH32 0xFFFFFFFFFFFFFFFFFFFFFFFFFFFFFFFFFFFFFFFFFFFFFFFFFFFFFFFFFFFFFFFF DUP3 EQ ISZERO PUSH2 0xB80 JUMPI PUSH2 0xB7F PUSH2 0xB8B JUMP JUMPDEST JUMPDEST PUSH1 0x1 DUP3 ADD SWAP1 POP SWAP2 SWAP1 POP JUMP JUMPDEST PUSH32 0x4E487B7100000000000000000000000000000000000000000000000000000000 PUSH1 0x0 MSTORE PUSH1 0x11 PUSH1 0x4 MSTORE PUSH1 0x24 PUSH1 0x0 REVERT JUMPDEST PUSH32 0x4E487B7100000000000000000000000000000000000000000000000000000000 PUSH1 0x0 MSTORE PUSH1 0x22 PUSH1 0x4 MSTORE PUSH1 0x24 PUSH1 0x0 REVERT JUMPDEST PUSH32 0x4E487B7100000000000000000000000000000000000000000000000000000000 PUSH1 0x0 MSTORE PUSH1 0x32 PUSH1 0x4 MSTORE PUSH1 0x24 PUSH1 0x0 REVERT JUMPDEST PUSH32 0x4E487B7100000000000000000000000000000000000000000000000000000000 PUSH1 0x0 MSTORE PUSH1 0x41 PUSH1 0x4 MSTORE PUSH1 0x24 PUSH1 0x0 REVERT JUMPDEST PUSH1 0x0 DUP1 REVERT JUMPDEST PUSH1 0x0 DUP1 REVERT JUMPDEST PUSH1 0x0 DUP1 REVERT JUMPDEST PUSH1 0x0 DUP1 REVERT JUMPDEST PUSH1 0x0 PUSH1 0x1F NOT PUSH1 0x1F DUP4 ADD AND SWAP1 POP SWAP2 SWAP1 POP JUMP JUMPDEST PUSH2 0xC75 DUP2 PUSH2 0xA93 JUMP JUMPDEST DUP2 EQ PUSH2 0xC80 JUMPI PUSH1 0x0 DUP1 REVERT JUMPDEST POP JUMP INVALID LOG2 PUSH5 0x6970667358 0x22 SLT KECCAK256 0xC2 CALLDATACOPY 0xC2 0x28 0xC7 CODECOPY DIFFICULTY 0xD3 0xC5 0xEA ISZERO PUSH4 0xEE5AEC18 0xD7 SELFBALANCE LT PUSH3 0xE6AD4F 0xA5 BASEFEE CALLCODE CALLVALUE PUSH26 0xEAF6606264736F6C634300080700330000000000000000000000 "
				},
				"gasEstimates": {
					"creation": {
						"codeDepositCost": "651400",
						"executionCost": "683",
						"totalCost": "652083"
					},
					"external": {
						"address_book(uint256)": "infinite",
						"get()": "infinite",
						"get_all()": "infinite",
						"push(string)": "infinite"
					}
				},
				"methodIdentifiers": {
					"address_book(uint256)": "b1429303",
					"get()": "6d4ce63c",
					"get_all()": "880a3c86",
					"push(string)": "4f3d057a"
				}
			},
			"storageLayout": {
				"storage": [
					{
						"astId": 11,
						"contract": "contracts/1_Storage.sol:Storage",
						"label": "address_book",
						"offset": 0,
						"slot": "0",
						"type": "t_array(t_struct(Address_book)7_storage)dyn_storage"
					}
				],
				"types": {
					"t_address": {
						"encoding": "inplace",
						"label": "address",
						"numberOfBytes": "20"
					},
					"t_array(t_struct(Address_book)7_storage)dyn_storage": {
						"base": "t_struct(Address_book)7_storage",
						"encoding": "dynamic_array",
						"label": "struct Storage.Address_book[]",
						"numberOfBytes": "32"
					},
					"t_string_storage": {
						"encoding": "bytes",
						"label": "string",
						"numberOfBytes": "32"
					},
					"t_struct(Address_book)7_storage": {
						"encoding": "inplace",
						"label": "struct Storage.Address_book",
						"members": [
							{
								"astId": 4,
								"contract": "contracts/1_Storage.sol:Storage",
								"label": "addr",
								"offset": 0,
								"slot": "0",
								"type": "t_address"
							},
							{
								"astId": 6,
								"contract": "contracts/1_Storage.sol:Storage",
								"label": "data",
								"offset": 0,
								"slot": "1",
								"type": "t_string_storage"
							}
						],
						"numberOfBytes": "64"
					}
				}
			},
			"userdoc": {
				"kind": "user",
				"methods": {},
				"version": 1
			}
		}
	}
}