{
	"contracts/1_Storage.sol": {
		"Storage": {
			"abi": [
				{
					"inputs": [
						{
							"internalType": "uint256",
							"name": "",
							"type": "uint256"
						}
					],
					"name": "address_book",
					"outputs": [
						{
							"internalType": "address",
							"name": "addr",
							"type": "address"
						},
						{
							"internalType": "string",
							"name": "data",
							"type": "string"
						}
					],
					"stateMutability": "view",
					"type": "function"
				},
				{
					"inputs": [
						{
							"internalType": "string",
							"name": "_text",
							"type": "string"
						}
					],
					"name": "push",
					"outputs": [],
					"stateMutability": "nonpayable",
					"type": "function"
				},
				{
					"inputs": [],
					"name": "retrieve",
					"outputs": [
						{
							"components": [
								{
									"internalType": "address",
									"name": "addr",
									"type": "address"
								},
								{
									"internalType": "string",
									"name": "data",
									"type": "string"
								}
							],
							"internalType": "struct Storage.Address_book",
							"name": "",
							"type": "tuple"
						}
					],
					"stateMutability": "view",
					"type": "function"
				}
			],
			"devdoc": {
				"custom:dev-run-script": "./scripts/deploy_with_ethers.ts",
				"details": "Store & retrieve value in a variable",
				"kind": "dev",
				"methods": {},
				"title": "Storage",
				"version": 1
			},
			"evm": {
				"assembly": "    /* \"contracts/1_Storage.sol\":199:641  contract Storage {... */\n  mstore(0x40, 0x80)\n  callvalue\n  dup1\n  iszero\n  tag_1\n  jumpi\n  0x00\n  dup1\n  revert\ntag_1:\n  pop\n  dataSize(sub_0)\n  dup1\n  dataOffset(sub_0)\n  0x00\n  codecopy\n  0x00\n  return\nstop\n\nsub_0: assembly {\n        /* \"contracts/1_Storage.sol\":199:641  contract Storage {... */\n      mstore(0x40, 0x80)\n      callvalue\n      dup1\n      iszero\n      tag_1\n      jumpi\n      0x00\n      dup1\n      revert\n    tag_1:\n      pop\n      jumpi(tag_2, lt(calldatasize, 0x04))\n      shr(0xe0, calldataload(0x00))\n      dup1\n      0x2e64cec1\n      eq\n      tag_3\n      jumpi\n      dup1\n      0x4f3d057a\n      eq\n      tag_4\n      jumpi\n      dup1\n      0xb1429303\n      eq\n      tag_5\n      jumpi\n    tag_2:\n      0x00\n      dup1\n      revert\n        /* \"contracts/1_Storage.sol\":532:639  function retrieve() external view returns(Address_book memory)... */\n    tag_3:\n      tag_6\n      tag_7\n      jump\t// in\n    tag_6:\n      mload(0x40)\n      tag_8\n      swap2\n      swap1\n      tag_9\n      jump\t// in\n    tag_8:\n      mload(0x40)\n      dup1\n      swap2\n      sub\n      swap1\n      return\n        /* \"contracts/1_Storage.sol\":345:526  function push(string memory _text) external {... */\n    tag_4:\n      tag_10\n      0x04\n      dup1\n      calldatasize\n      sub\n      dup2\n      add\n      swap1\n      tag_11\n      swap2\n      swap1\n      tag_12\n      jump\t// in\n    tag_11:\n      tag_13\n      jump\t// in\n    tag_10:\n      stop\n        /* \"contracts/1_Storage.sol\":303:337  Address_book[] public address_book */\n    tag_5:\n      tag_14\n      0x04\n      dup1\n      calldatasize\n      sub\n      dup2\n      add\n      swap1\n      tag_15\n      swap2\n      swap1\n      tag_16\n      jump\t// in\n    tag_15:\n      tag_17\n      jump\t// in\n    tag_14:\n      mload(0x40)\n      tag_18\n      swap3\n      swap2\n      swap1\n      tag_19\n      jump\t// in\n    tag_18:\n      mload(0x40)\n      dup1\n      swap2\n      sub\n      swap1\n      return\n        /* \"contracts/1_Storage.sol\":532:639  function retrieve() external view returns(Address_book memory)... */\n    tag_7:\n        /* \"contracts/1_Storage.sol\":574:593  Address_book memory */\n      tag_20\n      tag_21\n      jump\t// in\n    tag_20:\n        /* \"contracts/1_Storage.sol\":616:628  address_book */\n      0x00\n        /* \"contracts/1_Storage.sol\":629:630  2 */\n      0x02\n        /* \"contracts/1_Storage.sol\":616:631  address_book[2] */\n      dup2\n      sload\n      dup2\n      lt\n      tag_23\n      jumpi\n      tag_24\n      tag_25\n      jump\t// in\n    tag_24:\n    tag_23:\n      swap1\n      0x00\n      mstore\n      keccak256(0x00, 0x20)\n      swap1\n      0x02\n      mul\n      add\n        /* \"contracts/1_Storage.sol\":609:632  return(address_book[2]) */\n      mload(0x40)\n      dup1\n      0x40\n      add\n      0x40\n      mstore\n      swap1\n      dup2\n      0x00\n      dup3\n      add\n      0x00\n      swap1\n      sload\n      swap1\n      0x0100\n      exp\n      swap1\n      div\n      0xffffffffffffffffffffffffffffffffffffffff\n      and\n      0xffffffffffffffffffffffffffffffffffffffff\n      and\n      0xffffffffffffffffffffffffffffffffffffffff\n      and\n      dup2\n      mstore\n      0x20\n      add\n      0x01\n      dup3\n      add\n      dup1\n      sload\n      tag_27\n      swap1\n      tag_28\n      jump\t// in\n    tag_27:\n      dup1\n      0x1f\n      add\n      0x20\n      dup1\n      swap2\n      div\n      mul\n      0x20\n      add\n      mload(0x40)\n      swap1\n      dup2\n      add\n      0x40\n      mstore\n      dup1\n      swap3\n      swap2\n      swap1\n      dup2\n      dup2\n      mstore\n      0x20\n      add\n      dup3\n      dup1\n      sload\n      tag_29\n      swap1\n      tag_28\n      jump\t// in\n    tag_29:\n      dup1\n      iszero\n      tag_30\n      jumpi\n      dup1\n      0x1f\n      lt\n      tag_31\n      jumpi\n      0x0100\n      dup1\n      dup4\n      sload\n      div\n      mul\n      dup4\n      mstore\n      swap2\n      0x20\n      add\n      swap2\n      jump(tag_30)\n    tag_31:\n      dup3\n      add\n      swap2\n      swap1\n      0x00\n      mstore\n      keccak256(0x00, 0x20)\n      swap1\n    tag_32:\n      dup2\n      sload\n      dup2\n      mstore\n      swap1\n      0x01\n      add\n      swap1\n      0x20\n      add\n      dup1\n      dup4\n      gt\n      tag_32\n      jumpi\n      dup3\n      swap1\n      sub\n      0x1f\n      and\n      dup3\n      add\n      swap2\n    tag_30:\n      pop\n      pop\n      pop\n      pop\n      pop\n      dup2\n      mstore\n      pop\n      pop\n      swap1\n      pop\n        /* \"contracts/1_Storage.sol\":532:639  function retrieve() external view returns(Address_book memory)... */\n      swap1\n      jump\t// out\n        /* \"contracts/1_Storage.sol\":345:526  function push(string memory _text) external {... */\n    tag_13:\n        /* \"contracts/1_Storage.sol\":399:424  Address_book memory entry */\n      tag_34\n      tag_21\n      jump\t// in\n    tag_34:\n        /* \"contracts/1_Storage.sol\":447:457  msg.sender */\n      caller\n        /* \"contracts/1_Storage.sol\":434:439  entry */\n      dup2\n        /* \"contracts/1_Storage.sol\":434:444  entry.addr */\n      0x00\n      add\n        /* \"contracts/1_Storage.sol\":434:457  entry.addr = msg.sender */\n      swap1\n      0xffffffffffffffffffffffffffffffffffffffff\n      and\n      swap1\n      dup2\n      0xffffffffffffffffffffffffffffffffffffffff\n      and\n      dup2\n      mstore\n      pop\n      pop\n        /* \"contracts/1_Storage.sol\":480:485  _text */\n      dup2\n        /* \"contracts/1_Storage.sol\":467:472  entry */\n      dup2\n        /* \"contracts/1_Storage.sol\":467:477  entry.data */\n      0x20\n      add\n        /* \"contracts/1_Storage.sol\":467:485  entry.data = _text */\n      dup2\n      swap1\n      mstore\n      pop\n        /* \"contracts/1_Storage.sol\":495:507  address_book */\n      0x00\n        /* \"contracts/1_Storage.sol\":513:518  entry */\n      dup2\n        /* \"contracts/1_Storage.sol\":495:519  address_book.push(entry) */\n      swap1\n      dup1\n      0x01\n      dup2\n      sload\n      add\n      dup1\n      dup3\n      sstore\n      dup1\n      swap2\n      pop\n      pop\n      0x01\n      swap1\n      sub\n      swap1\n      0x00\n      mstore\n      keccak256(0x00, 0x20)\n      swap1\n      0x02\n      mul\n      add\n      0x00\n      swap1\n      swap2\n      swap1\n      swap2\n      swap1\n      swap2\n      pop\n      0x00\n      dup3\n      add\n      mload\n      dup2\n      0x00\n      add\n      exp(0x0100, 0x00)\n      dup2\n      sload\n      dup2\n      0xffffffffffffffffffffffffffffffffffffffff\n      mul\n      not\n      and\n      swap1\n      dup4\n      0xffffffffffffffffffffffffffffffffffffffff\n      and\n      mul\n      or\n      swap1\n      sstore\n      pop\n      0x20\n      dup3\n      add\n      mload\n      dup2\n      0x01\n      add\n      swap1\n      dup1\n      mload\n      swap1\n      0x20\n      add\n      swap1\n      tag_36\n      swap3\n      swap2\n      swap1\n      tag_37\n      jump\t// in\n    tag_36:\n      pop\n      pop\n      pop\n        /* \"contracts/1_Storage.sol\":389:526  {... */\n      pop\n        /* \"contracts/1_Storage.sol\":345:526  function push(string memory _text) external {... */\n      pop\n      jump\t// out\n        /* \"contracts/1_Storage.sol\":303:337  Address_book[] public address_book */\n    tag_17:\n      0x00\n      dup2\n      dup2\n      sload\n      dup2\n      lt\n      tag_38\n      jumpi\n      0x00\n      dup1\n      revert\n    tag_38:\n      swap1\n      0x00\n      mstore\n      keccak256(0x00, 0x20)\n      swap1\n      0x02\n      mul\n      add\n      0x00\n      swap2\n      pop\n      swap1\n      pop\n      dup1\n      0x00\n      add\n      0x00\n      swap1\n      sload\n      swap1\n      0x0100\n      exp\n      swap1\n      div\n      0xffffffffffffffffffffffffffffffffffffffff\n      and\n      swap1\n      dup1\n      0x01\n      add\n      dup1\n      sload\n      tag_40\n      swap1\n      tag_28\n      jump\t// in\n    tag_40:\n      dup1\n      0x1f\n      add\n      0x20\n      dup1\n      swap2\n      div\n      mul\n      0x20\n      add\n      mload(0x40)\n      swap1\n      dup2\n      add\n      0x40\n      mstore\n      dup1\n      swap3\n      swap2\n      swap1\n      dup2\n      dup2\n      mstore\n      0x20\n      add\n      dup3\n      dup1\n      sload\n      tag_41\n      swap1\n      tag_28\n      jump\t// in\n    tag_41:\n      dup1\n      iszero\n      tag_42\n      jumpi\n      dup1\n      0x1f\n      lt\n      tag_43\n      jumpi\n      0x0100\n      dup1\n      dup4\n      sload\n      div\n      mul\n      dup4\n      mstore\n      swap2\n      0x20\n      add\n      swap2\n      jump(tag_42)\n    tag_43:\n      dup3\n      add\n      swap2\n      swap1\n      0x00\n      mstore\n      keccak256(0x00, 0x20)\n      swap1\n    tag_44:\n      dup2\n      sload\n      dup2\n      mstore\n      swap1\n      0x01\n      add\n      swap1\n      0x20\n      add\n      dup1\n      dup4\n      gt\n      tag_44\n      jumpi\n      dup3\n      swap1\n      sub\n      0x1f\n      and\n      dup3\n      add\n      swap2\n    tag_42:\n      pop\n      pop\n      pop\n      pop\n      pop\n      swap1\n      pop\n      dup3\n      jump\t// out\n    tag_21:\n      mload(0x40)\n      dup1\n      0x40\n      add\n      0x40\n      mstore\n      dup1\n      and(0xffffffffffffffffffffffffffffffffffffffff, 0x00)\n      dup2\n      mstore\n      0x20\n      add\n      0x60\n      dup2\n      mstore\n      pop\n      swap1\n      jump\t// out\n    tag_37:\n      dup3\n      dup1\n      sload\n      tag_45\n      swap1\n      tag_28\n      jump\t// in\n    tag_45:\n      swap1\n      0x00\n      mstore\n      keccak256(0x00, 0x20)\n      swap1\n      0x1f\n      add\n      0x20\n      swap1\n      div\n      dup2\n      add\n      swap3\n      dup3\n      tag_47\n      jumpi\n      0x00\n      dup6\n      sstore\n      jump(tag_46)\n    tag_47:\n      dup3\n      0x1f\n      lt\n      tag_48\n      jumpi\n      dup1\n      mload\n      not(0xff)\n      and\n      dup4\n      dup1\n      add\n      or\n      dup6\n      sstore\n      jump(tag_46)\n    tag_48:\n      dup3\n      dup1\n      add\n      0x01\n      add\n      dup6\n      sstore\n      dup3\n      iszero\n      tag_46\n      jumpi\n      swap2\n      dup3\n      add\n    tag_49:\n      dup3\n      dup2\n      gt\n      iszero\n      tag_50\n      jumpi\n      dup3\n      mload\n      dup3\n      sstore\n      swap2\n      0x20\n      add\n      swap2\n      swap1\n      0x01\n      add\n      swap1\n      jump(tag_49)\n    tag_50:\n    tag_46:\n      pop\n      swap1\n      pop\n      tag_51\n      swap2\n      swap1\n      tag_52\n      jump\t// in\n    tag_51:\n      pop\n      swap1\n      jump\t// out\n    tag_52:\n    tag_53:\n      dup1\n      dup3\n      gt\n      iszero\n      tag_54\n      jumpi\n      0x00\n      dup2\n      0x00\n      swap1\n      sstore\n      pop\n      0x01\n      add\n      jump(tag_53)\n    tag_54:\n      pop\n      swap1\n      jump\t// out\n        /* \"#utility.yul\":7:419   */\n    tag_56:\n        /* \"#utility.yul\":85:90   */\n      0x00\n        /* \"#utility.yul\":110:176   */\n      tag_58\n        /* \"#utility.yul\":126:175   */\n      tag_59\n        /* \"#utility.yul\":168:174   */\n      dup5\n        /* \"#utility.yul\":126:175   */\n      tag_60\n      jump\t// in\n    tag_59:\n        /* \"#utility.yul\":110:176   */\n      tag_61\n      jump\t// in\n    tag_58:\n        /* \"#utility.yul\":101:176   */\n      swap1\n      pop\n        /* \"#utility.yul\":199:205   */\n      dup3\n        /* \"#utility.yul\":192:197   */\n      dup2\n        /* \"#utility.yul\":185:206   */\n      mstore\n        /* \"#utility.yul\":237:241   */\n      0x20\n        /* \"#utility.yul\":230:235   */\n      dup2\n        /* \"#utility.yul\":226:242   */\n      add\n        /* \"#utility.yul\":275:278   */\n      dup5\n        /* \"#utility.yul\":266:272   */\n      dup5\n        /* \"#utility.yul\":261:264   */\n      dup5\n        /* \"#utility.yul\":257:273   */\n      add\n        /* \"#utility.yul\":254:279   */\n      gt\n        /* \"#utility.yul\":251:363   */\n      iszero\n      tag_62\n      jumpi\n        /* \"#utility.yul\":282:361   */\n      tag_63\n      tag_64\n      jump\t// in\n    tag_63:\n        /* \"#utility.yul\":251:363   */\n    tag_62:\n        /* \"#utility.yul\":372:413   */\n      tag_65\n        /* \"#utility.yul\":406:412   */\n      dup5\n        /* \"#utility.yul\":401:404   */\n      dup3\n        /* \"#utility.yul\":396:399   */\n      dup6\n        /* \"#utility.yul\":372:413   */\n      tag_66\n      jump\t// in\n    tag_65:\n        /* \"#utility.yul\":91:419   */\n      pop\n        /* \"#utility.yul\":7:419   */\n      swap4\n      swap3\n      pop\n      pop\n      pop\n      jump\t// out\n        /* \"#utility.yul\":439:779   */\n    tag_67:\n        /* \"#utility.yul\":495:500   */\n      0x00\n        /* \"#utility.yul\":544:547   */\n      dup3\n        /* \"#utility.yul\":537:541   */\n      0x1f\n        /* \"#utility.yul\":529:535   */\n      dup4\n        /* \"#utility.yul\":525:542   */\n      add\n        /* \"#utility.yul\":521:548   */\n      slt\n        /* \"#utility.yul\":511:633   */\n      tag_69\n      jumpi\n        /* \"#utility.yul\":552:631   */\n      tag_70\n      tag_71\n      jump\t// in\n    tag_70:\n        /* \"#utility.yul\":511:633   */\n    tag_69:\n        /* \"#utility.yul\":669:675   */\n      dup2\n        /* \"#utility.yul\":656:676   */\n      calldataload\n        /* \"#utility.yul\":694:773   */\n      tag_72\n        /* \"#utility.yul\":769:772   */\n      dup5\n        /* \"#utility.yul\":761:767   */\n      dup3\n        /* \"#utility.yul\":754:758   */\n      0x20\n        /* \"#utility.yul\":746:752   */\n      dup7\n        /* \"#utility.yul\":742:759   */\n      add\n        /* \"#utility.yul\":694:773   */\n      tag_56\n      jump\t// in\n    tag_72:\n        /* \"#utility.yul\":685:773   */\n      swap2\n      pop\n        /* \"#utility.yul\":501:779   */\n      pop\n        /* \"#utility.yul\":439:779   */\n      swap3\n      swap2\n      pop\n      pop\n      jump\t// out\n        /* \"#utility.yul\":785:924   */\n    tag_73:\n        /* \"#utility.yul\":831:836   */\n      0x00\n        /* \"#utility.yul\":869:875   */\n      dup2\n        /* \"#utility.yul\":856:876   */\n      calldataload\n        /* \"#utility.yul\":847:876   */\n      swap1\n      pop\n        /* \"#utility.yul\":885:918   */\n      tag_75\n        /* \"#utility.yul\":912:917   */\n      dup2\n        /* \"#utility.yul\":885:918   */\n      tag_76\n      jump\t// in\n    tag_75:\n        /* \"#utility.yul\":785:924   */\n      swap3\n      swap2\n      pop\n      pop\n      jump\t// out\n        /* \"#utility.yul\":930:1439   */\n    tag_12:\n        /* \"#utility.yul\":999:1005   */\n      0x00\n        /* \"#utility.yul\":1048:1050   */\n      0x20\n        /* \"#utility.yul\":1036:1045   */\n      dup3\n        /* \"#utility.yul\":1027:1034   */\n      dup5\n        /* \"#utility.yul\":1023:1046   */\n      sub\n        /* \"#utility.yul\":1019:1051   */\n      slt\n        /* \"#utility.yul\":1016:1135   */\n      iszero\n      tag_78\n      jumpi\n        /* \"#utility.yul\":1054:1133   */\n      tag_79\n      tag_80\n      jump\t// in\n    tag_79:\n        /* \"#utility.yul\":1016:1135   */\n    tag_78:\n        /* \"#utility.yul\":1202:1203   */\n      0x00\n        /* \"#utility.yul\":1191:1200   */\n      dup3\n        /* \"#utility.yul\":1187:1204   */\n      add\n        /* \"#utility.yul\":1174:1205   */\n      calldataload\n        /* \"#utility.yul\":1232:1250   */\n      0xffffffffffffffff\n        /* \"#utility.yul\":1224:1230   */\n      dup2\n        /* \"#utility.yul\":1221:1251   */\n      gt\n        /* \"#utility.yul\":1218:1335   */\n      iszero\n      tag_81\n      jumpi\n        /* \"#utility.yul\":1254:1333   */\n      tag_82\n      tag_83\n      jump\t// in\n    tag_82:\n        /* \"#utility.yul\":1218:1335   */\n    tag_81:\n        /* \"#utility.yul\":1359:1422   */\n      tag_84\n        /* \"#utility.yul\":1414:1421   */\n      dup5\n        /* \"#utility.yul\":1405:1411   */\n      dup3\n        /* \"#utility.yul\":1394:1403   */\n      dup6\n        /* \"#utility.yul\":1390:1412   */\n      add\n        /* \"#utility.yul\":1359:1422   */\n      tag_67\n      jump\t// in\n    tag_84:\n        /* \"#utility.yul\":1349:1422   */\n      swap2\n      pop\n        /* \"#utility.yul\":1145:1432   */\n      pop\n        /* \"#utility.yul\":930:1439   */\n      swap3\n      swap2\n      pop\n      pop\n      jump\t// out\n        /* \"#utility.yul\":1445:1774   */\n    tag_16:\n        /* \"#utility.yul\":1504:1510   */\n      0x00\n        /* \"#utility.yul\":1553:1555   */\n      0x20\n        /* \"#utility.yul\":1541:1550   */\n      dup3\n        /* \"#utility.yul\":1532:1539   */\n      dup5\n        /* \"#utility.yul\":1528:1551   */\n      sub\n        /* \"#utility.yul\":1524:1556   */\n      slt\n        /* \"#utility.yul\":1521:1640   */\n      iszero\n      tag_86\n      jumpi\n        /* \"#utility.yul\":1559:1638   */\n      tag_87\n      tag_80\n      jump\t// in\n    tag_87:\n        /* \"#utility.yul\":1521:1640   */\n    tag_86:\n        /* \"#utility.yul\":1679:1680   */\n      0x00\n        /* \"#utility.yul\":1704:1757   */\n      tag_88\n        /* \"#utility.yul\":1749:1756   */\n      dup5\n        /* \"#utility.yul\":1740:1746   */\n      dup3\n        /* \"#utility.yul\":1729:1738   */\n      dup6\n        /* \"#utility.yul\":1725:1747   */\n      add\n        /* \"#utility.yul\":1704:1757   */\n      tag_73\n      jump\t// in\n    tag_88:\n        /* \"#utility.yul\":1694:1757   */\n      swap2\n      pop\n        /* \"#utility.yul\":1650:1767   */\n      pop\n        /* \"#utility.yul\":1445:1774   */\n      swap3\n      swap2\n      pop\n      pop\n      jump\t// out\n        /* \"#utility.yul\":1780:1888   */\n    tag_89:\n        /* \"#utility.yul\":1857:1881   */\n      tag_91\n        /* \"#utility.yul\":1875:1880   */\n      dup2\n        /* \"#utility.yul\":1857:1881   */\n      tag_92\n      jump\t// in\n    tag_91:\n        /* \"#utility.yul\":1852:1855   */\n      dup3\n        /* \"#utility.yul\":1845:1882   */\n      mstore\n        /* \"#utility.yul\":1780:1888   */\n      pop\n      pop\n      jump\t// out\n        /* \"#utility.yul\":1894:2012   */\n    tag_93:\n        /* \"#utility.yul\":1981:2005   */\n      tag_95\n        /* \"#utility.yul\":1999:2004   */\n      dup2\n        /* \"#utility.yul\":1981:2005   */\n      tag_92\n      jump\t// in\n    tag_95:\n        /* \"#utility.yul\":1976:1979   */\n      dup3\n        /* \"#utility.yul\":1969:2006   */\n      mstore\n        /* \"#utility.yul\":1894:2012   */\n      pop\n      pop\n      jump\t// out\n        /* \"#utility.yul\":2018:2362   */\n    tag_96:\n        /* \"#utility.yul\":2096:2099   */\n      0x00\n        /* \"#utility.yul\":2124:2163   */\n      tag_98\n        /* \"#utility.yul\":2157:2162   */\n      dup3\n        /* \"#utility.yul\":2124:2163   */\n      tag_99\n      jump\t// in\n    tag_98:\n        /* \"#utility.yul\":2179:2240   */\n      tag_100\n        /* \"#utility.yul\":2233:2239   */\n      dup2\n        /* \"#utility.yul\":2228:2231   */\n      dup6\n        /* \"#utility.yul\":2179:2240   */\n      tag_101\n      jump\t// in\n    tag_100:\n        /* \"#utility.yul\":2172:2240   */\n      swap4\n      pop\n        /* \"#utility.yul\":2249:2301   */\n      tag_102\n        /* \"#utility.yul\":2294:2300   */\n      dup2\n        /* \"#utility.yul\":2289:2292   */\n      dup6\n        /* \"#utility.yul\":2282:2286   */\n      0x20\n        /* \"#utility.yul\":2275:2280   */\n      dup7\n        /* \"#utility.yul\":2271:2287   */\n      add\n        /* \"#utility.yul\":2249:2301   */\n      tag_103\n      jump\t// in\n    tag_102:\n        /* \"#utility.yul\":2326:2355   */\n      tag_104\n        /* \"#utility.yul\":2348:2354   */\n      dup2\n        /* \"#utility.yul\":2326:2355   */\n      tag_105\n      jump\t// in\n    tag_104:\n        /* \"#utility.yul\":2321:2324   */\n      dup5\n        /* \"#utility.yul\":2317:2356   */\n      add\n        /* \"#utility.yul\":2310:2356   */\n      swap2\n      pop\n        /* \"#utility.yul\":2100:2362   */\n      pop\n        /* \"#utility.yul\":2018:2362   */\n      swap3\n      swap2\n      pop\n      pop\n      jump\t// out\n        /* \"#utility.yul\":2368:2732   */\n    tag_106:\n        /* \"#utility.yul\":2456:2459   */\n      0x00\n        /* \"#utility.yul\":2484:2523   */\n      tag_108\n        /* \"#utility.yul\":2517:2522   */\n      dup3\n        /* \"#utility.yul\":2484:2523   */\n      tag_99\n      jump\t// in\n    tag_108:\n        /* \"#utility.yul\":2539:2610   */\n      tag_109\n        /* \"#utility.yul\":2603:2609   */\n      dup2\n        /* \"#utility.yul\":2598:2601   */\n      dup6\n        /* \"#utility.yul\":2539:2610   */\n      tag_110\n      jump\t// in\n    tag_109:\n        /* \"#utility.yul\":2532:2610   */\n      swap4\n      pop\n        /* \"#utility.yul\":2619:2671   */\n      tag_111\n        /* \"#utility.yul\":2664:2670   */\n      dup2\n        /* \"#utility.yul\":2659:2662   */\n      dup6\n        /* \"#utility.yul\":2652:2656   */\n      0x20\n        /* \"#utility.yul\":2645:2650   */\n      dup7\n        /* \"#utility.yul\":2641:2657   */\n      add\n        /* \"#utility.yul\":2619:2671   */\n      tag_103\n      jump\t// in\n    tag_111:\n        /* \"#utility.yul\":2696:2725   */\n      tag_112\n        /* \"#utility.yul\":2718:2724   */\n      dup2\n        /* \"#utility.yul\":2696:2725   */\n      tag_105\n      jump\t// in\n    tag_112:\n        /* \"#utility.yul\":2691:2694   */\n      dup5\n        /* \"#utility.yul\":2687:2726   */\n      add\n        /* \"#utility.yul\":2680:2726   */\n      swap2\n      pop\n        /* \"#utility.yul\":2460:2732   */\n      pop\n        /* \"#utility.yul\":2368:2732   */\n      swap3\n      swap2\n      pop\n      pop\n      jump\t// out\n        /* \"#utility.yul\":2804:3414   */\n    tag_113:\n        /* \"#utility.yul\":2927:2930   */\n      0x00\n        /* \"#utility.yul\":2963:2967   */\n      0x40\n        /* \"#utility.yul\":2958:2961   */\n      dup4\n        /* \"#utility.yul\":2954:2968   */\n      add\n        /* \"#utility.yul\":3050:3054   */\n      0x00\n        /* \"#utility.yul\":3043:3048   */\n      dup4\n        /* \"#utility.yul\":3039:3055   */\n      add\n        /* \"#utility.yul\":3033:3056   */\n      mload\n        /* \"#utility.yul\":3069:3132   */\n      tag_115\n        /* \"#utility.yul\":3126:3130   */\n      0x00\n        /* \"#utility.yul\":3121:3124   */\n      dup7\n        /* \"#utility.yul\":3117:3131   */\n      add\n        /* \"#utility.yul\":3103:3115   */\n      dup3\n        /* \"#utility.yul\":3069:3132   */\n      tag_89\n      jump\t// in\n    tag_115:\n        /* \"#utility.yul\":2978:3142   */\n      pop\n        /* \"#utility.yul\":3224:3228   */\n      0x20\n        /* \"#utility.yul\":3217:3222   */\n      dup4\n        /* \"#utility.yul\":3213:3229   */\n      add\n        /* \"#utility.yul\":3207:3230   */\n      mload\n        /* \"#utility.yul\":3277:3280   */\n      dup5\n        /* \"#utility.yul\":3271:3275   */\n      dup3\n        /* \"#utility.yul\":3267:3281   */\n      sub\n        /* \"#utility.yul\":3260:3264   */\n      0x20\n        /* \"#utility.yul\":3255:3258   */\n      dup7\n        /* \"#utility.yul\":3251:3265   */\n      add\n        /* \"#utility.yul\":3244:3282   */\n      mstore\n        /* \"#utility.yul\":3303:3376   */\n      tag_116\n        /* \"#utility.yul\":3371:3375   */\n      dup3\n        /* \"#utility.yul\":3357:3369   */\n      dup3\n        /* \"#utility.yul\":3303:3376   */\n      tag_96\n      jump\t// in\n    tag_116:\n        /* \"#utility.yul\":3295:3376   */\n      swap2\n      pop\n        /* \"#utility.yul\":3152:3387   */\n      pop\n        /* \"#utility.yul\":3404:3408   */\n      dup1\n        /* \"#utility.yul\":3397:3408   */\n      swap2\n      pop\n        /* \"#utility.yul\":2932:3414   */\n      pop\n        /* \"#utility.yul\":2804:3414   */\n      swap3\n      swap2\n      pop\n      pop\n      jump\t// out\n        /* \"#utility.yul\":3420:3843   */\n    tag_19:\n        /* \"#utility.yul\":3561:3565   */\n      0x00\n        /* \"#utility.yul\":3599:3601   */\n      0x40\n        /* \"#utility.yul\":3588:3597   */\n      dup3\n        /* \"#utility.yul\":3584:3602   */\n      add\n        /* \"#utility.yul\":3576:3602   */\n      swap1\n      pop\n        /* \"#utility.yul\":3612:3683   */\n      tag_118\n        /* \"#utility.yul\":3680:3681   */\n      0x00\n        /* \"#utility.yul\":3669:3678   */\n      dup4\n        /* \"#utility.yul\":3665:3682   */\n      add\n        /* \"#utility.yul\":3656:3662   */\n      dup6\n        /* \"#utility.yul\":3612:3683   */\n      tag_93\n      jump\t// in\n    tag_118:\n        /* \"#utility.yul\":3730:3739   */\n      dup2\n        /* \"#utility.yul\":3724:3728   */\n      dup2\n        /* \"#utility.yul\":3720:3740   */\n      sub\n        /* \"#utility.yul\":3715:3717   */\n      0x20\n        /* \"#utility.yul\":3704:3713   */\n      dup4\n        /* \"#utility.yul\":3700:3718   */\n      add\n        /* \"#utility.yul\":3693:3741   */\n      mstore\n        /* \"#utility.yul\":3758:3836   */\n      tag_119\n        /* \"#utility.yul\":3831:3835   */\n      dup2\n        /* \"#utility.yul\":3822:3828   */\n      dup5\n        /* \"#utility.yul\":3758:3836   */\n      tag_106\n      jump\t// in\n    tag_119:\n        /* \"#utility.yul\":3750:3836   */\n      swap1\n      pop\n        /* \"#utility.yul\":3420:3843   */\n      swap4\n      swap3\n      pop\n      pop\n      pop\n      jump\t// out\n        /* \"#utility.yul\":3849:4230   */\n    tag_9:\n        /* \"#utility.yul\":3996:4000   */\n      0x00\n        /* \"#utility.yul\":4034:4036   */\n      0x20\n        /* \"#utility.yul\":4023:4032   */\n      dup3\n        /* \"#utility.yul\":4019:4037   */\n      add\n        /* \"#utility.yul\":4011:4037   */\n      swap1\n      pop\n        /* \"#utility.yul\":4083:4092   */\n      dup2\n        /* \"#utility.yul\":4077:4081   */\n      dup2\n        /* \"#utility.yul\":4073:4093   */\n      sub\n        /* \"#utility.yul\":4069:4070   */\n      0x00\n        /* \"#utility.yul\":4058:4067   */\n      dup4\n        /* \"#utility.yul\":4054:4071   */\n      add\n        /* \"#utility.yul\":4047:4094   */\n      mstore\n        /* \"#utility.yul\":4111:4223   */\n      tag_121\n        /* \"#utility.yul\":4218:4222   */\n      dup2\n        /* \"#utility.yul\":4209:4215   */\n      dup5\n        /* \"#utility.yul\":4111:4223   */\n      tag_113\n      jump\t// in\n    tag_121:\n        /* \"#utility.yul\":4103:4223   */\n      swap1\n      pop\n        /* \"#utility.yul\":3849:4230   */\n      swap3\n      swap2\n      pop\n      pop\n      jump\t// out\n        /* \"#utility.yul\":4236:4365   */\n    tag_61:\n        /* \"#utility.yul\":4270:4276   */\n      0x00\n        /* \"#utility.yul\":4297:4317   */\n      tag_123\n      tag_124\n      jump\t// in\n    tag_123:\n        /* \"#utility.yul\":4287:4317   */\n      swap1\n      pop\n        /* \"#utility.yul\":4326:4359   */\n      tag_125\n        /* \"#utility.yul\":4354:4358   */\n      dup3\n        /* \"#utility.yul\":4346:4352   */\n      dup3\n        /* \"#utility.yul\":4326:4359   */\n      tag_126\n      jump\t// in\n    tag_125:\n        /* \"#utility.yul\":4236:4365   */\n      swap2\n      swap1\n      pop\n      jump\t// out\n        /* \"#utility.yul\":4371:4446   */\n    tag_124:\n        /* \"#utility.yul\":4404:4410   */\n      0x00\n        /* \"#utility.yul\":4437:4439   */\n      0x40\n        /* \"#utility.yul\":4431:4440   */\n      mload\n        /* \"#utility.yul\":4421:4440   */\n      swap1\n      pop\n        /* \"#utility.yul\":4371:4446   */\n      swap1\n      jump\t// out\n        /* \"#utility.yul\":4452:4760   */\n    tag_60:\n        /* \"#utility.yul\":4514:4518   */\n      0x00\n        /* \"#utility.yul\":4604:4622   */\n      0xffffffffffffffff\n        /* \"#utility.yul\":4596:4602   */\n      dup3\n        /* \"#utility.yul\":4593:4623   */\n      gt\n        /* \"#utility.yul\":4590:4646   */\n      iszero\n      tag_129\n      jumpi\n        /* \"#utility.yul\":4626:4644   */\n      tag_130\n      tag_131\n      jump\t// in\n    tag_130:\n        /* \"#utility.yul\":4590:4646   */\n    tag_129:\n        /* \"#utility.yul\":4664:4693   */\n      tag_132\n        /* \"#utility.yul\":4686:4692   */\n      dup3\n        /* \"#utility.yul\":4664:4693   */\n      tag_105\n      jump\t// in\n    tag_132:\n        /* \"#utility.yul\":4656:4693   */\n      swap1\n      pop\n        /* \"#utility.yul\":4748:4752   */\n      0x20\n        /* \"#utility.yul\":4742:4746   */\n      dup2\n        /* \"#utility.yul\":4738:4753   */\n      add\n        /* \"#utility.yul\":4730:4753   */\n      swap1\n      pop\n        /* \"#utility.yul\":4452:4760   */\n      swap2\n      swap1\n      pop\n      jump\t// out\n        /* \"#utility.yul\":4766:4865   */\n    tag_99:\n        /* \"#utility.yul\":4818:4824   */\n      0x00\n        /* \"#utility.yul\":4852:4857   */\n      dup2\n        /* \"#utility.yul\":4846:4858   */\n      mload\n        /* \"#utility.yul\":4836:4858   */\n      swap1\n      pop\n        /* \"#utility.yul\":4766:4865   */\n      swap2\n      swap1\n      pop\n      jump\t// out\n        /* \"#utility.yul\":4871:5030   */\n    tag_101:\n        /* \"#utility.yul\":4945:4956   */\n      0x00\n        /* \"#utility.yul\":4979:4985   */\n      dup3\n        /* \"#utility.yul\":4974:4977   */\n      dup3\n        /* \"#utility.yul\":4967:4986   */\n      mstore\n        /* \"#utility.yul\":5019:5023   */\n      0x20\n        /* \"#utility.yul\":5014:5017   */\n      dup3\n        /* \"#utility.yul\":5010:5024   */\n      add\n        /* \"#utility.yul\":4995:5024   */\n      swap1\n      pop\n        /* \"#utility.yul\":4871:5030   */\n      swap3\n      swap2\n      pop\n      pop\n      jump\t// out\n        /* \"#utility.yul\":5036:5205   */\n    tag_110:\n        /* \"#utility.yul\":5120:5131   */\n      0x00\n        /* \"#utility.yul\":5154:5160   */\n      dup3\n        /* \"#utility.yul\":5149:5152   */\n      dup3\n        /* \"#utility.yul\":5142:5161   */\n      mstore\n        /* \"#utility.yul\":5194:5198   */\n      0x20\n        /* \"#utility.yul\":5189:5192   */\n      dup3\n        /* \"#utility.yul\":5185:5199   */\n      add\n        /* \"#utility.yul\":5170:5199   */\n      swap1\n      pop\n        /* \"#utility.yul\":5036:5205   */\n      swap3\n      swap2\n      pop\n      pop\n      jump\t// out\n        /* \"#utility.yul\":5211:5307   */\n    tag_92:\n        /* \"#utility.yul\":5248:5255   */\n      0x00\n        /* \"#utility.yul\":5277:5301   */\n      tag_137\n        /* \"#utility.yul\":5295:5300   */\n      dup3\n        /* \"#utility.yul\":5277:5301   */\n      tag_138\n      jump\t// in\n    tag_137:\n        /* \"#utility.yul\":5266:5301   */\n      swap1\n      pop\n        /* \"#utility.yul\":5211:5307   */\n      swap2\n      swap1\n      pop\n      jump\t// out\n        /* \"#utility.yul\":5313:5439   */\n    tag_138:\n        /* \"#utility.yul\":5350:5357   */\n      0x00\n        /* \"#utility.yul\":5390:5432   */\n      0xffffffffffffffffffffffffffffffffffffffff\n        /* \"#utility.yul\":5383:5388   */\n      dup3\n        /* \"#utility.yul\":5379:5433   */\n      and\n        /* \"#utility.yul\":5368:5433   */\n      swap1\n      pop\n        /* \"#utility.yul\":5313:5439   */\n      swap2\n      swap1\n      pop\n      jump\t// out\n        /* \"#utility.yul\":5445:5522   */\n    tag_140:\n        /* \"#utility.yul\":5482:5489   */\n      0x00\n        /* \"#utility.yul\":5511:5516   */\n      dup2\n        /* \"#utility.yul\":5500:5516   */\n      swap1\n      pop\n        /* \"#utility.yul\":5445:5522   */\n      swap2\n      swap1\n      pop\n      jump\t// out\n        /* \"#utility.yul\":5528:5682   */\n    tag_66:\n        /* \"#utility.yul\":5612:5618   */\n      dup3\n        /* \"#utility.yul\":5607:5610   */\n      dup2\n        /* \"#utility.yul\":5602:5605   */\n      dup4\n        /* \"#utility.yul\":5589:5619   */\n      calldatacopy\n        /* \"#utility.yul\":5674:5675   */\n      0x00\n        /* \"#utility.yul\":5665:5671   */\n      dup4\n        /* \"#utility.yul\":5660:5663   */\n      dup4\n        /* \"#utility.yul\":5656:5672   */\n      add\n        /* \"#utility.yul\":5649:5676   */\n      mstore\n        /* \"#utility.yul\":5528:5682   */\n      pop\n      pop\n      pop\n      jump\t// out\n        /* \"#utility.yul\":5688:5995   */\n    tag_103:\n        /* \"#utility.yul\":5756:5757   */\n      0x00\n        /* \"#utility.yul\":5766:5879   */\n    tag_144:\n        /* \"#utility.yul\":5780:5786   */\n      dup4\n        /* \"#utility.yul\":5777:5778   */\n      dup2\n        /* \"#utility.yul\":5774:5787   */\n      lt\n        /* \"#utility.yul\":5766:5879   */\n      iszero\n      tag_146\n      jumpi\n        /* \"#utility.yul\":5865:5866   */\n      dup1\n        /* \"#utility.yul\":5860:5863   */\n      dup3\n        /* \"#utility.yul\":5856:5867   */\n      add\n        /* \"#utility.yul\":5850:5868   */\n      mload\n        /* \"#utility.yul\":5846:5847   */\n      dup2\n        /* \"#utility.yul\":5841:5844   */\n      dup5\n        /* \"#utility.yul\":5837:5848   */\n      add\n        /* \"#utility.yul\":5830:5869   */\n      mstore\n        /* \"#utility.yul\":5802:5804   */\n      0x20\n        /* \"#utility.yul\":5799:5800   */\n      dup2\n        /* \"#utility.yul\":5795:5805   */\n      add\n        /* \"#utility.yul\":5790:5805   */\n      swap1\n      pop\n        /* \"#utility.yul\":5766:5879   */\n      jump(tag_144)\n    tag_146:\n        /* \"#utility.yul\":5897:5903   */\n      dup4\n        /* \"#utility.yul\":5894:5895   */\n      dup2\n        /* \"#utility.yul\":5891:5904   */\n      gt\n        /* \"#utility.yul\":5888:5989   */\n      iszero\n      tag_147\n      jumpi\n        /* \"#utility.yul\":5977:5978   */\n      0x00\n        /* \"#utility.yul\":5968:5974   */\n      dup5\n        /* \"#utility.yul\":5963:5966   */\n      dup5\n        /* \"#utility.yul\":5959:5975   */\n      add\n        /* \"#utility.yul\":5952:5979   */\n      mstore\n        /* \"#utility.yul\":5888:5989   */\n    tag_147:\n        /* \"#utility.yul\":5737:5995   */\n      pop\n        /* \"#utility.yul\":5688:5995   */\n      pop\n      pop\n      pop\n      jump\t// out\n        /* \"#utility.yul\":6001:6321   */\n    tag_28:\n        /* \"#utility.yul\":6045:6051   */\n      0x00\n        /* \"#utility.yul\":6082:6083   */\n      0x02\n        /* \"#utility.yul\":6076:6080   */\n      dup3\n        /* \"#utility.yul\":6072:6084   */\n      div\n        /* \"#utility.yul\":6062:6084   */\n      swap1\n      pop\n        /* \"#utility.yul\":6129:6130   */\n      0x01\n        /* \"#utility.yul\":6123:6127   */\n      dup3\n        /* \"#utility.yul\":6119:6131   */\n      and\n        /* \"#utility.yul\":6150:6168   */\n      dup1\n        /* \"#utility.yul\":6140:6221   */\n      tag_149\n      jumpi\n        /* \"#utility.yul\":6206:6210   */\n      0x7f\n        /* \"#utility.yul\":6198:6204   */\n      dup3\n        /* \"#utility.yul\":6194:6211   */\n      and\n        /* \"#utility.yul\":6184:6211   */\n      swap2\n      pop\n        /* \"#utility.yul\":6140:6221   */\n    tag_149:\n        /* \"#utility.yul\":6268:6270   */\n      0x20\n        /* \"#utility.yul\":6260:6266   */\n      dup3\n        /* \"#utility.yul\":6257:6271   */\n      lt\n        /* \"#utility.yul\":6237:6255   */\n      dup2\n        /* \"#utility.yul\":6234:6272   */\n      eq\n        /* \"#utility.yul\":6231:6315   */\n      iszero\n      tag_150\n      jumpi\n        /* \"#utility.yul\":6287:6305   */\n      tag_151\n      tag_152\n      jump\t// in\n    tag_151:\n        /* \"#utility.yul\":6231:6315   */\n    tag_150:\n        /* \"#utility.yul\":6052:6321   */\n      pop\n        /* \"#utility.yul\":6001:6321   */\n      swap2\n      swap1\n      pop\n      jump\t// out\n        /* \"#utility.yul\":6327:6608   */\n    tag_126:\n        /* \"#utility.yul\":6410:6437   */\n      tag_154\n        /* \"#utility.yul\":6432:6436   */\n      dup3\n        /* \"#utility.yul\":6410:6437   */\n      tag_105\n      jump\t// in\n    tag_154:\n        /* \"#utility.yul\":6402:6408   */\n      dup2\n        /* \"#utility.yul\":6398:6438   */\n      add\n        /* \"#utility.yul\":6540:6546   */\n      dup2\n        /* \"#utility.yul\":6528:6538   */\n      dup2\n        /* \"#utility.yul\":6525:6547   */\n      lt\n        /* \"#utility.yul\":6504:6522   */\n      0xffffffffffffffff\n        /* \"#utility.yul\":6492:6502   */\n      dup3\n        /* \"#utility.yul\":6489:6523   */\n      gt\n        /* \"#utility.yul\":6486:6548   */\n      or\n        /* \"#utility.yul\":6483:6571   */\n      iszero\n      tag_155\n      jumpi\n        /* \"#utility.yul\":6551:6569   */\n      tag_156\n      tag_131\n      jump\t// in\n    tag_156:\n        /* \"#utility.yul\":6483:6571   */\n    tag_155:\n        /* \"#utility.yul\":6591:6601   */\n      dup1\n        /* \"#utility.yul\":6587:6589   */\n      0x40\n        /* \"#utility.yul\":6580:6602   */\n      mstore\n        /* \"#utility.yul\":6370:6608   */\n      pop\n        /* \"#utility.yul\":6327:6608   */\n      pop\n      pop\n      jump\t// out\n        /* \"#utility.yul\":6614:6794   */\n    tag_152:\n        /* \"#utility.yul\":6662:6739   */\n      0x4e487b7100000000000000000000000000000000000000000000000000000000\n        /* \"#utility.yul\":6659:6660   */\n      0x00\n        /* \"#utility.yul\":6652:6740   */\n      mstore\n        /* \"#utility.yul\":6759:6763   */\n      0x22\n        /* \"#utility.yul\":6756:6757   */\n      0x04\n        /* \"#utility.yul\":6749:6764   */\n      mstore\n        /* \"#utility.yul\":6783:6787   */\n      0x24\n        /* \"#utility.yul\":6780:6781   */\n      0x00\n        /* \"#utility.yul\":6773:6788   */\n      revert\n        /* \"#utility.yul\":6800:6980   */\n    tag_25:\n        /* \"#utility.yul\":6848:6925   */\n      0x4e487b7100000000000000000000000000000000000000000000000000000000\n        /* \"#utility.yul\":6845:6846   */\n      0x00\n        /* \"#utility.yul\":6838:6926   */\n      mstore\n        /* \"#utility.yul\":6945:6949   */\n      0x32\n        /* \"#utility.yul\":6942:6943   */\n      0x04\n        /* \"#utility.yul\":6935:6950   */\n      mstore\n        /* \"#utility.yul\":6969:6973   */\n      0x24\n        /* \"#utility.yul\":6966:6967   */\n      0x00\n        /* \"#utility.yul\":6959:6974   */\n      revert\n        /* \"#utility.yul\":6986:7166   */\n    tag_131:\n        /* \"#utility.yul\":7034:7111   */\n      0x4e487b7100000000000000000000000000000000000000000000000000000000\n        /* \"#utility.yul\":7031:7032   */\n      0x00\n        /* \"#utility.yul\":7024:7112   */\n      mstore\n        /* \"#utility.yul\":7131:7135   */\n      0x41\n        /* \"#utility.yul\":7128:7129   */\n      0x04\n        /* \"#utility.yul\":7121:7136   */\n      mstore\n        /* \"#utility.yul\":7155:7159   */\n      0x24\n        /* \"#utility.yul\":7152:7153   */\n      0x00\n        /* \"#utility.yul\":7145:7160   */\n      revert\n        /* \"#utility.yul\":7172:7289   */\n    tag_71:\n        /* \"#utility.yul\":7281:7282   */\n      0x00\n        /* \"#utility.yul\":7278:7279   */\n      dup1\n        /* \"#utility.yul\":7271:7283   */\n      revert\n        /* \"#utility.yul\":7295:7412   */\n    tag_64:\n        /* \"#utility.yul\":7404:7405   */\n      0x00\n        /* \"#utility.yul\":7401:7402   */\n      dup1\n        /* \"#utility.yul\":7394:7406   */\n      revert\n        /* \"#utility.yul\":7418:7535   */\n    tag_83:\n        /* \"#utility.yul\":7527:7528   */\n      0x00\n        /* \"#utility.yul\":7524:7525   */\n      dup1\n        /* \"#utility.yul\":7517:7529   */\n      revert\n        /* \"#utility.yul\":7541:7658   */\n    tag_80:\n        /* \"#utility.yul\":7650:7651   */\n      0x00\n        /* \"#utility.yul\":7647:7648   */\n      dup1\n        /* \"#utility.yul\":7640:7652   */\n      revert\n        /* \"#utility.yul\":7664:7766   */\n    tag_105:\n        /* \"#utility.yul\":7705:7711   */\n      0x00\n        /* \"#utility.yul\":7756:7758   */\n      0x1f\n        /* \"#utility.yul\":7752:7759   */\n      not\n        /* \"#utility.yul\":7747:7749   */\n      0x1f\n        /* \"#utility.yul\":7740:7745   */\n      dup4\n        /* \"#utility.yul\":7736:7750   */\n      add\n        /* \"#utility.yul\":7732:7760   */\n      and\n        /* \"#utility.yul\":7722:7760   */\n      swap1\n      pop\n        /* \"#utility.yul\":7664:7766   */\n      swap2\n      swap1\n      pop\n      jump\t// out\n        /* \"#utility.yul\":7772:7894   */\n    tag_76:\n        /* \"#utility.yul\":7845:7869   */\n      tag_166\n        /* \"#utility.yul\":7863:7868   */\n      dup2\n        /* \"#utility.yul\":7845:7869   */\n      tag_140\n      jump\t// in\n    tag_166:\n        /* \"#utility.yul\":7838:7843   */\n      dup2\n        /* \"#utility.yul\":7835:7870   */\n      eq\n        /* \"#utility.yul\":7825:7888   */\n      tag_167\n      jumpi\n        /* \"#utility.yul\":7884:7885   */\n      0x00\n        /* \"#utility.yul\":7881:7882   */\n      dup1\n        /* \"#utility.yul\":7874:7886   */\n      revert\n        /* \"#utility.yul\":7825:7888   */\n    tag_167:\n        /* \"#utility.yul\":7772:7894   */\n      pop\n      jump\t// out\n\n    auxdata: 0xa26469706673582212209227c99dcdac8fec08d9a91a79fa0241a21e3feb1dcafb07dad1b0243a54405764736f6c63430008070033\n}\n",
				"bytecode": {
					"linkReferences": {},
					"object": "608060405234801561001057600080fd5b506108df806100206000396000f3fe608060405234801561001057600080fd5b50600436106100415760003560e01c80632e64cec1146100465780634f3d057a14610064578063b142930314610080575b600080fd5b61004e6100b1565b60405161005b919061065a565b60405180910390f35b61007e600480360381019061007991906104e7565b6101d4565b005b61009a60048036038101906100959190610530565b6102b3565b6040516100a892919061062a565b60405180910390f35b6100b961038f565b60006002815481106100ce576100cd61080f565b5b90600052602060002090600202016040518060400160405290816000820160009054906101000a900473ffffffffffffffffffffffffffffffffffffffff1673ffffffffffffffffffffffffffffffffffffffff1673ffffffffffffffffffffffffffffffffffffffff16815260200160018201805461014d9061077d565b80601f01602080910402602001604051908101604052809291908181526020018280546101799061077d565b80156101c65780601f1061019b576101008083540402835291602001916101c6565b820191906000526020600020905b8154815290600101906020018083116101a957829003601f168201915b505050505081525050905090565b6101dc61038f565b33816000019073ffffffffffffffffffffffffffffffffffffffff16908173ffffffffffffffffffffffffffffffffffffffff1681525050818160200181905250600081908060018154018082558091505060019003906000526020600020906002020160009091909190915060008201518160000160006101000a81548173ffffffffffffffffffffffffffffffffffffffff021916908373ffffffffffffffffffffffffffffffffffffffff16021790555060208201518160010190805190602001906102ac9291906103bf565b5050505050565b600081815481106102c357600080fd5b90600052602060002090600202016000915090508060000160009054906101000a900473ffffffffffffffffffffffffffffffffffffffff169080600101805461030c9061077d565b80601f01602080910402602001604051908101604052809291908181526020018280546103389061077d565b80156103855780601f1061035a57610100808354040283529160200191610385565b820191906000526020600020905b81548152906001019060200180831161036857829003601f168201915b5050505050905082565b6040518060400160405280600073ffffffffffffffffffffffffffffffffffffffff168152602001606081525090565b8280546103cb9061077d565b90600052602060002090601f0160209004810192826103ed5760008555610434565b82601f1061040657805160ff1916838001178555610434565b82800160010185558215610434579182015b82811115610433578251825591602001919060010190610418565b5b5090506104419190610445565b5090565b5b8082111561045e576000816000905550600101610446565b5090565b6000610475610470846106a1565b61067c565b90508281526020810184848401111561049157610490610872565b5b61049c84828561073b565b509392505050565b600082601f8301126104b9576104b861086d565b5b81356104c9848260208601610462565b91505092915050565b6000813590506104e181610892565b92915050565b6000602082840312156104fd576104fc61087c565b5b600082013567ffffffffffffffff81111561051b5761051a610877565b5b610527848285016104a4565b91505092915050565b6000602082840312156105465761054561087c565b5b6000610554848285016104d2565b91505092915050565b610566816106ff565b82525050565b610575816106ff565b82525050565b6000610586826106d2565b61059081856106dd565b93506105a081856020860161074a565b6105a981610881565b840191505092915050565b60006105bf826106d2565b6105c981856106ee565b93506105d981856020860161074a565b6105e281610881565b840191505092915050565b6000604083016000830151610605600086018261055d565b506020830151848203602086015261061d828261057b565b9150508091505092915050565b600060408201905061063f600083018561056c565b818103602083015261065181846105b4565b90509392505050565b6000602082019050818103600083015261067481846105ed565b905092915050565b6000610686610697565b905061069282826107af565b919050565b6000604051905090565b600067ffffffffffffffff8211156106bc576106bb61083e565b5b6106c582610881565b9050602081019050919050565b600081519050919050565b600082825260208201905092915050565b600082825260208201905092915050565b600061070a82610711565b9050919050565b600073ffffffffffffffffffffffffffffffffffffffff82169050919050565b6000819050919050565b82818337600083830152505050565b60005b8381101561076857808201518184015260208101905061074d565b83811115610777576000848401525b50505050565b6000600282049050600182168061079557607f821691505b602082108114156107a9576107a86107e0565b5b50919050565b6107b882610881565b810181811067ffffffffffffffff821117156107d7576107d661083e565b5b80604052505050565b7f4e487b7100000000000000000000000000000000000000000000000000000000600052602260045260246000fd5b7f4e487b7100000000000000000000000000000000000000000000000000000000600052603260045260246000fd5b7f4e487b7100000000000000000000000000000000000000000000000000000000600052604160045260246000fd5b600080fd5b600080fd5b600080fd5b600080fd5b6000601f19601f8301169050919050565b61089b81610731565b81146108a657600080fd5b5056fea26469706673582212209227c99dcdac8fec08d9a91a79fa0241a21e3feb1dcafb07dad1b0243a54405764736f6c63430008070033",
					"opcodes": "PUSH1 0x80 PUSH1 0x40 MSTORE CALLVALUE DUP1 ISZERO PUSH2 0x10 JUMPI PUSH1 0x0 DUP1 REVERT JUMPDEST POP PUSH2 0x8DF DUP1 PUSH2 0x20 PUSH1 0x0 CODECOPY PUSH1 0x0 RETURN INVALID PUSH1 0x80 PUSH1 0x40 MSTORE CALLVALUE DUP1 ISZERO PUSH2 0x10 JUMPI PUSH1 0x0 DUP1 REVERT JUMPDEST POP PUSH1 0x4 CALLDATASIZE LT PUSH2 0x41 JUMPI PUSH1 0x0 CALLDATALOAD PUSH1 0xE0 SHR DUP1 PUSH4 0x2E64CEC1 EQ PUSH2 0x46 JUMPI DUP1 PUSH4 0x4F3D057A EQ PUSH2 0x64 JUMPI DUP1 PUSH4 0xB1429303 EQ PUSH2 0x80 JUMPI JUMPDEST PUSH1 0x0 DUP1 REVERT JUMPDEST PUSH2 0x4E PUSH2 0xB1 JUMP JUMPDEST PUSH1 0x40 MLOAD PUSH2 0x5B SWAP2 SWAP1 PUSH2 0x65A JUMP JUMPDEST PUSH1 0x40 MLOAD DUP1 SWAP2 SUB SWAP1 RETURN JUMPDEST PUSH2 0x7E PUSH1 0x4 DUP1 CALLDATASIZE SUB DUP2 ADD SWAP1 PUSH2 0x79 SWAP2 SWAP1 PUSH2 0x4E7 JUMP JUMPDEST PUSH2 0x1D4 JUMP JUMPDEST STOP JUMPDEST PUSH2 0x9A PUSH1 0x4 DUP1 CALLDATASIZE SUB DUP2 ADD SWAP1 PUSH2 0x95 SWAP2 SWAP1 PUSH2 0x530 JUMP JUMPDEST PUSH2 0x2B3 JUMP JUMPDEST PUSH1 0x40 MLOAD PUSH2 0xA8 SWAP3 SWAP2 SWAP1 PUSH2 0x62A JUMP JUMPDEST PUSH1 0x40 MLOAD DUP1 SWAP2 SUB SWAP1 RETURN JUMPDEST PUSH2 0xB9 PUSH2 0x38F JUMP JUMPDEST PUSH1 0x0 PUSH1 0x2 DUP2 SLOAD DUP2 LT PUSH2 0xCE JUMPI PUSH2 0xCD PUSH2 0x80F JUMP JUMPDEST JUMPDEST SWAP1 PUSH1 0x0 MSTORE PUSH1 0x20 PUSH1 0x0 KECCAK256 SWAP1 PUSH1 0x2 MUL ADD PUSH1 0x40 MLOAD DUP1 PUSH1 0x40 ADD PUSH1 0x40 MSTORE SWAP1 DUP2 PUSH1 0x0 DUP3 ADD PUSH1 0x0 SWAP1 SLOAD SWAP1 PUSH2 0x100 EXP SWAP1 DIV PUSH20 0xFFFFFFFFFFFFFFFFFFFFFFFFFFFFFFFFFFFFFFFF AND PUSH20 0xFFFFFFFFFFFFFFFFFFFFFFFFFFFFFFFFFFFFFFFF AND PUSH20 0xFFFFFFFFFFFFFFFFFFFFFFFFFFFFFFFFFFFFFFFF AND DUP2 MSTORE PUSH1 0x20 ADD PUSH1 0x1 DUP3 ADD DUP1 SLOAD PUSH2 0x14D SWAP1 PUSH2 0x77D JUMP JUMPDEST DUP1 PUSH1 0x1F ADD PUSH1 0x20 DUP1 SWAP2 DIV MUL PUSH1 0x20 ADD PUSH1 0x40 MLOAD SWAP1 DUP2 ADD PUSH1 0x40 MSTORE DUP1 SWAP3 SWAP2 SWAP1 DUP2 DUP2 MSTORE PUSH1 0x20 ADD DUP3 DUP1 SLOAD PUSH2 0x179 SWAP1 PUSH2 0x77D JUMP JUMPDEST DUP1 ISZERO PUSH2 0x1C6 JUMPI DUP1 PUSH1 0x1F LT PUSH2 0x19B JUMPI PUSH2 0x100 DUP1 DUP4 SLOAD DIV MUL DUP4 MSTORE SWAP2 PUSH1 0x20 ADD SWAP2 PUSH2 0x1C6 JUMP JUMPDEST DUP3 ADD SWAP2 SWAP1 PUSH1 0x0 MSTORE PUSH1 0x20 PUSH1 0x0 KECCAK256 SWAP1 JUMPDEST DUP2 SLOAD DUP2 MSTORE SWAP1 PUSH1 0x1 ADD SWAP1 PUSH1 0x20 ADD DUP1 DUP4 GT PUSH2 0x1A9 JUMPI DUP3 SWAP1 SUB PUSH1 0x1F AND DUP3 ADD SWAP2 JUMPDEST POP POP POP POP POP DUP2 MSTORE POP POP SWAP1 POP SWAP1 JUMP JUMPDEST PUSH2 0x1DC PUSH2 0x38F JUMP JUMPDEST CALLER DUP2 PUSH1 0x0 ADD SWAP1 PUSH20 0xFFFFFFFFFFFFFFFFFFFFFFFFFFFFFFFFFFFFFFFF AND SWAP1 DUP2 PUSH20 0xFFFFFFFFFFFFFFFFFFFFFFFFFFFFFFFFFFFFFFFF AND DUP2 MSTORE POP POP DUP2 DUP2 PUSH1 0x20 ADD DUP2 SWAP1 MSTORE POP PUSH1 0x0 DUP2 SWAP1 DUP1 PUSH1 0x1 DUP2 SLOAD ADD DUP1 DUP3 SSTORE DUP1 SWAP2 POP POP PUSH1 0x1 SWAP1 SUB SWAP1 PUSH1 0x0 MSTORE PUSH1 0x20 PUSH1 0x0 KECCAK256 SWAP1 PUSH1 0x2 MUL ADD PUSH1 0x0 SWAP1 SWAP2 SWAP1 SWAP2 SWAP1 SWAP2 POP PUSH1 0x0 DUP3 ADD MLOAD DUP2 PUSH1 0x0 ADD PUSH1 0x0 PUSH2 0x100 EXP DUP2 SLOAD DUP2 PUSH20 0xFFFFFFFFFFFFFFFFFFFFFFFFFFFFFFFFFFFFFFFF MUL NOT AND SWAP1 DUP4 PUSH20 0xFFFFFFFFFFFFFFFFFFFFFFFFFFFFFFFFFFFFFFFF AND MUL OR SWAP1 SSTORE POP PUSH1 0x20 DUP3 ADD MLOAD DUP2 PUSH1 0x1 ADD SWAP1 DUP1 MLOAD SWAP1 PUSH1 0x20 ADD SWAP1 PUSH2 0x2AC SWAP3 SWAP2 SWAP1 PUSH2 0x3BF JUMP JUMPDEST POP POP POP POP POP JUMP JUMPDEST PUSH1 0x0 DUP2 DUP2 SLOAD DUP2 LT PUSH2 0x2C3 JUMPI PUSH1 0x0 DUP1 REVERT JUMPDEST SWAP1 PUSH1 0x0 MSTORE PUSH1 0x20 PUSH1 0x0 KECCAK256 SWAP1 PUSH1 0x2 MUL ADD PUSH1 0x0 SWAP2 POP SWAP1 POP DUP1 PUSH1 0x0 ADD PUSH1 0x0 SWAP1 SLOAD SWAP1 PUSH2 0x100 EXP SWAP1 DIV PUSH20 0xFFFFFFFFFFFFFFFFFFFFFFFFFFFFFFFFFFFFFFFF AND SWAP1 DUP1 PUSH1 0x1 ADD DUP1 SLOAD PUSH2 0x30C SWAP1 PUSH2 0x77D JUMP JUMPDEST DUP1 PUSH1 0x1F ADD PUSH1 0x20 DUP1 SWAP2 DIV MUL PUSH1 0x20 ADD PUSH1 0x40 MLOAD SWAP1 DUP2 ADD PUSH1 0x40 MSTORE DUP1 SWAP3 SWAP2 SWAP1 DUP2 DUP2 MSTORE PUSH1 0x20 ADD DUP3 DUP1 SLOAD PUSH2 0x338 SWAP1 PUSH2 0x77D JUMP JUMPDEST DUP1 ISZERO PUSH2 0x385 JUMPI DUP1 PUSH1 0x1F LT PUSH2 0x35A JUMPI PUSH2 0x100 DUP1 DUP4 SLOAD DIV MUL DUP4 MSTORE SWAP2 PUSH1 0x20 ADD SWAP2 PUSH2 0x385 JUMP JUMPDEST DUP3 ADD SWAP2 SWAP1 PUSH1 0x0 MSTORE PUSH1 0x20 PUSH1 0x0 KECCAK256 SWAP1 JUMPDEST DUP2 SLOAD DUP2 MSTORE SWAP1 PUSH1 0x1 ADD SWAP1 PUSH1 0x20 ADD DUP1 DUP4 GT PUSH2 0x368 JUMPI DUP3 SWAP1 SUB PUSH1 0x1F AND DUP3 ADD SWAP2 JUMPDEST POP POP POP POP POP SWAP1 POP DUP3 JUMP JUMPDEST PUSH1 0x40 MLOAD DUP1 PUSH1 0x40 ADD PUSH1 0x40 MSTORE DUP1 PUSH1 0x0 PUSH20 0xFFFFFFFFFFFFFFFFFFFFFFFFFFFFFFFFFFFFFFFF AND DUP2 MSTORE PUSH1 0x20 ADD PUSH1 0x60 DUP2 MSTORE POP SWAP1 JUMP JUMPDEST DUP3 DUP1 SLOAD PUSH2 0x3CB SWAP1 PUSH2 0x77D JUMP JUMPDEST SWAP1 PUSH1 0x0 MSTORE PUSH1 0x20 PUSH1 0x0 KECCAK256 SWAP1 PUSH1 0x1F ADD PUSH1 0x20 SWAP1 DIV DUP2 ADD SWAP3 DUP3 PUSH2 0x3ED JUMPI PUSH1 0x0 DUP6 SSTORE PUSH2 0x434 JUMP JUMPDEST DUP3 PUSH1 0x1F LT PUSH2 0x406 JUMPI DUP1 MLOAD PUSH1 0xFF NOT AND DUP4 DUP1 ADD OR DUP6 SSTORE PUSH2 0x434 JUMP JUMPDEST DUP3 DUP1 ADD PUSH1 0x1 ADD DUP6 SSTORE DUP3 ISZERO PUSH2 0x434 JUMPI SWAP2 DUP3 ADD JUMPDEST DUP3 DUP2 GT ISZERO PUSH2 0x433 JUMPI DUP3 MLOAD DUP3 SSTORE SWAP2 PUSH1 0x20 ADD SWAP2 SWAP1 PUSH1 0x1 ADD SWAP1 PUSH2 0x418 JUMP JUMPDEST JUMPDEST POP SWAP1 POP PUSH2 0x441 SWAP2 SWAP1 PUSH2 0x445 JUMP JUMPDEST POP SWAP1 JUMP JUMPDEST JUMPDEST DUP1 DUP3 GT ISZERO PUSH2 0x45E JUMPI PUSH1 0x0 DUP2 PUSH1 0x0 SWAP1 SSTORE POP PUSH1 0x1 ADD PUSH2 0x446 JUMP JUMPDEST POP SWAP1 JUMP JUMPDEST PUSH1 0x0 PUSH2 0x475 PUSH2 0x470 DUP5 PUSH2 0x6A1 JUMP JUMPDEST PUSH2 0x67C JUMP JUMPDEST SWAP1 POP DUP3 DUP2 MSTORE PUSH1 0x20 DUP2 ADD DUP5 DUP5 DUP5 ADD GT ISZERO PUSH2 0x491 JUMPI PUSH2 0x490 PUSH2 0x872 JUMP JUMPDEST JUMPDEST PUSH2 0x49C DUP5 DUP3 DUP6 PUSH2 0x73B JUMP JUMPDEST POP SWAP4 SWAP3 POP POP POP JUMP JUMPDEST PUSH1 0x0 DUP3 PUSH1 0x1F DUP4 ADD SLT PUSH2 0x4B9 JUMPI PUSH2 0x4B8 PUSH2 0x86D JUMP JUMPDEST JUMPDEST DUP2 CALLDATALOAD PUSH2 0x4C9 DUP5 DUP3 PUSH1 0x20 DUP7 ADD PUSH2 0x462 JUMP JUMPDEST SWAP2 POP POP SWAP3 SWAP2 POP POP JUMP JUMPDEST PUSH1 0x0 DUP2 CALLDATALOAD SWAP1 POP PUSH2 0x4E1 DUP2 PUSH2 0x892 JUMP JUMPDEST SWAP3 SWAP2 POP POP JUMP JUMPDEST PUSH1 0x0 PUSH1 0x20 DUP3 DUP5 SUB SLT ISZERO PUSH2 0x4FD JUMPI PUSH2 0x4FC PUSH2 0x87C JUMP JUMPDEST JUMPDEST PUSH1 0x0 DUP3 ADD CALLDATALOAD PUSH8 0xFFFFFFFFFFFFFFFF DUP2 GT ISZERO PUSH2 0x51B JUMPI PUSH2 0x51A PUSH2 0x877 JUMP JUMPDEST JUMPDEST PUSH2 0x527 DUP5 DUP3 DUP6 ADD PUSH2 0x4A4 JUMP JUMPDEST SWAP2 POP POP SWAP3 SWAP2 POP POP JUMP JUMPDEST PUSH1 0x0 PUSH1 0x20 DUP3 DUP5 SUB SLT ISZERO PUSH2 0x546 JUMPI PUSH2 0x545 PUSH2 0x87C JUMP JUMPDEST JUMPDEST PUSH1 0x0 PUSH2 0x554 DUP5 DUP3 DUP6 ADD PUSH2 0x4D2 JUMP JUMPDEST SWAP2 POP POP SWAP3 SWAP2 POP POP JUMP JUMPDEST PUSH2 0x566 DUP2 PUSH2 0x6FF JUMP JUMPDEST DUP3 MSTORE POP POP JUMP JUMPDEST PUSH2 0x575 DUP2 PUSH2 0x6FF JUMP JUMPDEST DUP3 MSTORE POP POP JUMP JUMPDEST PUSH1 0x0 PUSH2 0x586 DUP3 PUSH2 0x6D2 JUMP JUMPDEST PUSH2 0x590 DUP2 DUP6 PUSH2 0x6DD JUMP JUMPDEST SWAP4 POP PUSH2 0x5A0 DUP2 DUP6 PUSH1 0x20 DUP7 ADD PUSH2 0x74A JUMP JUMPDEST PUSH2 0x5A9 DUP2 PUSH2 0x881 JUMP JUMPDEST DUP5 ADD SWAP2 POP POP SWAP3 SWAP2 POP POP JUMP JUMPDEST PUSH1 0x0 PUSH2 0x5BF DUP3 PUSH2 0x6D2 JUMP JUMPDEST PUSH2 0x5C9 DUP2 DUP6 PUSH2 0x6EE JUMP JUMPDEST SWAP4 POP PUSH2 0x5D9 DUP2 DUP6 PUSH1 0x20 DUP7 ADD PUSH2 0x74A JUMP JUMPDEST PUSH2 0x5E2 DUP2 PUSH2 0x881 JUMP JUMPDEST DUP5 ADD SWAP2 POP POP SWAP3 SWAP2 POP POP JUMP JUMPDEST PUSH1 0x0 PUSH1 0x40 DUP4 ADD PUSH1 0x0 DUP4 ADD MLOAD PUSH2 0x605 PUSH1 0x0 DUP7 ADD DUP3 PUSH2 0x55D JUMP JUMPDEST POP PUSH1 0x20 DUP4 ADD MLOAD DUP5 DUP3 SUB PUSH1 0x20 DUP7 ADD MSTORE PUSH2 0x61D DUP3 DUP3 PUSH2 0x57B JUMP JUMPDEST SWAP2 POP POP DUP1 SWAP2 POP POP SWAP3 SWAP2 POP POP JUMP JUMPDEST PUSH1 0x0 PUSH1 0x40 DUP3 ADD SWAP1 POP PUSH2 0x63F PUSH1 0x0 DUP4 ADD DUP6 PUSH2 0x56C JUMP JUMPDEST DUP2 DUP2 SUB PUSH1 0x20 DUP4 ADD MSTORE PUSH2 0x651 DUP2 DUP5 PUSH2 0x5B4 JUMP JUMPDEST SWAP1 POP SWAP4 SWAP3 POP POP POP JUMP JUMPDEST PUSH1 0x0 PUSH1 0x20 DUP3 ADD SWAP1 POP DUP2 DUP2 SUB PUSH1 0x0 DUP4 ADD MSTORE PUSH2 0x674 DUP2 DUP5 PUSH2 0x5ED JUMP JUMPDEST SWAP1 POP SWAP3 SWAP2 POP POP JUMP JUMPDEST PUSH1 0x0 PUSH2 0x686 PUSH2 0x697 JUMP JUMPDEST SWAP1 POP PUSH2 0x692 DUP3 DUP3 PUSH2 0x7AF JUMP JUMPDEST SWAP2 SWAP1 POP JUMP JUMPDEST PUSH1 0x0 PUSH1 0x40 MLOAD SWAP1 POP SWAP1 JUMP JUMPDEST PUSH1 0x0 PUSH8 0xFFFFFFFFFFFFFFFF DUP3 GT ISZERO PUSH2 0x6BC JUMPI PUSH2 0x6BB PUSH2 0x83E JUMP JUMPDEST JUMPDEST PUSH2 0x6C5 DUP3 PUSH2 0x881 JUMP JUMPDEST SWAP1 POP PUSH1 0x20 DUP2 ADD SWAP1 POP SWAP2 SWAP1 POP JUMP JUMPDEST PUSH1 0x0 DUP2 MLOAD SWAP1 POP SWAP2 SWAP1 POP JUMP JUMPDEST PUSH1 0x0 DUP3 DUP3 MSTORE PUSH1 0x20 DUP3 ADD SWAP1 POP SWAP3 SWAP2 POP POP JUMP JUMPDEST PUSH1 0x0 DUP3 DUP3 MSTORE PUSH1 0x20 DUP3 ADD SWAP1 POP SWAP3 SWAP2 POP POP JUMP JUMPDEST PUSH1 0x0 PUSH2 0x70A DUP3 PUSH2 0x711 JUMP JUMPDEST SWAP1 POP SWAP2 SWAP1 POP JUMP JUMPDEST PUSH1 0x0 PUSH20 0xFFFFFFFFFFFFFFFFFFFFFFFFFFFFFFFFFFFFFFFF DUP3 AND SWAP1 POP SWAP2 SWAP1 POP JUMP JUMPDEST PUSH1 0x0 DUP2 SWAP1 POP SWAP2 SWAP1 POP JUMP JUMPDEST DUP3 DUP2 DUP4 CALLDATACOPY PUSH1 0x0 DUP4 DUP4 ADD MSTORE POP POP POP JUMP JUMPDEST PUSH1 0x0 JUMPDEST DUP4 DUP2 LT ISZERO PUSH2 0x768 JUMPI DUP1 DUP3 ADD MLOAD DUP2 DUP5 ADD MSTORE PUSH1 0x20 DUP2 ADD SWAP1 POP PUSH2 0x74D JUMP JUMPDEST DUP4 DUP2 GT ISZERO PUSH2 0x777 JUMPI PUSH1 0x0 DUP5 DUP5 ADD MSTORE JUMPDEST POP POP POP POP JUMP JUMPDEST PUSH1 0x0 PUSH1 0x2 DUP3 DIV SWAP1 POP PUSH1 0x1 DUP3 AND DUP1 PUSH2 0x795 JUMPI PUSH1 0x7F DUP3 AND SWAP2 POP JUMPDEST PUSH1 0x20 DUP3 LT DUP2 EQ ISZERO PUSH2 0x7A9 JUMPI PUSH2 0x7A8 PUSH2 0x7E0 JUMP JUMPDEST JUMPDEST POP SWAP2 SWAP1 POP JUMP JUMPDEST PUSH2 0x7B8 DUP3 PUSH2 0x881 JUMP JUMPDEST DUP2 ADD DUP2 DUP2 LT PUSH8 0xFFFFFFFFFFFFFFFF DUP3 GT OR ISZERO PUSH2 0x7D7 JUMPI PUSH2 0x7D6 PUSH2 0x83E JUMP JUMPDEST JUMPDEST DUP1 PUSH1 0x40 MSTORE POP POP POP JUMP JUMPDEST PUSH32 0x4E487B7100000000000000000000000000000000000000000000000000000000 PUSH1 0x0 MSTORE PUSH1 0x22 PUSH1 0x4 MSTORE PUSH1 0x24 PUSH1 0x0 REVERT JUMPDEST PUSH32 0x4E487B7100000000000000000000000000000000000000000000000000000000 PUSH1 0x0 MSTORE PUSH1 0x32 PUSH1 0x4 MSTORE PUSH1 0x24 PUSH1 0x0 REVERT JUMPDEST PUSH32 0x4E487B7100000000000000000000000000000000000000000000000000000000 PUSH1 0x0 MSTORE PUSH1 0x41 PUSH1 0x4 MSTORE PUSH1 0x24 PUSH1 0x0 REVERT JUMPDEST PUSH1 0x0 DUP1 REVERT JUMPDEST PUSH1 0x0 DUP1 REVERT JUMPDEST PUSH1 0x0 DUP1 REVERT JUMPDEST PUSH1 0x0 DUP1 REVERT JUMPDEST PUSH1 0x0 PUSH1 0x1F NOT PUSH1 0x1F DUP4 ADD AND SWAP1 POP SWAP2 SWAP1 POP JUMP JUMPDEST PUSH2 0x89B DUP2 PUSH2 0x731 JUMP JUMPDEST DUP2 EQ PUSH2 0x8A6 JUMPI PUSH1 0x0 DUP1 REVERT JUMPDEST POP JUMP INVALID LOG2 PUSH5 0x6970667358 0x22 SLT KECCAK256 SWAP3 0x27 0xC9 SWAP14 0xCD 0xAC DUP16 0xEC ADDMOD 0xD9 0xA9 BYTE PUSH26 0xFA0241A21E3FEB1DCAFB07DAD1B0243A54405764736F6C634300 ADDMOD SMOD STOP CALLER "
				},
				"gasEstimates": {
					"creation": {
						"codeDepositCost": "454200",
						"executionCost": "486",
						"totalCost": "454686"
					},
					"external": {
						"address_book(uint256)": "infinite",
						"push(string)": "infinite",
						"retrieve()": "infinite"
					}
				},
				"methodIdentifiers": {
					"address_book(uint256)": "b1429303",
					"push(string)": "4f3d057a",
					"retrieve()": "2e64cec1"
				}
			},
			"storageLayout": {
				"storage": [
					{
						"astId": 11,
						"contract": "contracts/1_Storage.sol:Storage",
						"label": "address_book",
						"offset": 0,
						"slot": "0",
						"type": "t_array(t_struct(Address_book)7_storage)dyn_storage"
					}
				],
				"types": {
					"t_address": {
						"encoding": "inplace",
						"label": "address",
						"numberOfBytes": "20"
					},
					"t_array(t_struct(Address_book)7_storage)dyn_storage": {
						"base": "t_struct(Address_book)7_storage",
						"encoding": "dynamic_array",
						"label": "struct Storage.Address_book[]",
						"numberOfBytes": "32"
					},
					"t_string_storage": {
						"encoding": "bytes",
						"label": "string",
						"numberOfBytes": "32"
					},
					"t_struct(Address_book)7_storage": {
						"encoding": "inplace",
						"label": "struct Storage.Address_book",
						"members": [
							{
								"astId": 4,
								"contract": "contracts/1_Storage.sol:Storage",
								"label": "addr",
								"offset": 0,
								"slot": "0",
								"type": "t_address"
							},
							{
								"astId": 6,
								"contract": "contracts/1_Storage.sol:Storage",
								"label": "data",
								"offset": 0,
								"slot": "1",
								"type": "t_string_storage"
							}
						],
						"numberOfBytes": "64"
					}
				}
			},
			"userdoc": {
				"kind": "user",
				"methods": {},
				"version": 1
			}
		}
	}
}