{
	"contracts/1_Storage.sol": {
		"Storage": {
			"abi": [
				{
					"inputs": [
						{
							"internalType": "uint256",
							"name": "",
							"type": "uint256"
						}
					],
					"name": "address_book",
					"outputs": [
						{
							"internalType": "address",
							"name": "addr",
							"type": "address"
						},
						{
							"internalType": "string",
							"name": "data",
							"type": "string"
						}
					],
					"stateMutability": "view",
					"type": "function"
				},
				{
					"inputs": [],
					"name": "get",
					"outputs": [
						{
							"internalType": "string[10]",
							"name": "",
							"type": "string[10]"
						}
					],
					"stateMutability": "view",
					"type": "function"
				},
				{
					"inputs": [],
					"name": "get_all",
					"outputs": [
						{
							"components": [
								{
									"internalType": "address",
									"name": "addr",
									"type": "address"
								},
								{
									"internalType": "string",
									"name": "data",
									"type": "string"
								}
							],
							"internalType": "struct Storage.Address_book[]",
							"name": "",
							"type": "tuple[]"
						}
					],
					"stateMutability": "view",
					"type": "function"
				},
				{
					"inputs": [
						{
							"internalType": "string",
							"name": "_text",
							"type": "string"
						}
					],
					"name": "push",
					"outputs": [],
					"stateMutability": "nonpayable",
					"type": "function"
				}
			],
			"devdoc": {
				"custom:dev-run-script": "./scripts/deploy_with_ethers.ts",
				"details": "Store & retrieve value in a variable",
				"kind": "dev",
				"methods": {},
				"title": "Storage",
				"version": 1
			},
			"evm": {
				"assembly": "    /* \"contracts/1_Storage.sol\":199:1036  contract Storage {... */\n  mstore(0x40, 0x80)\n  callvalue\n  dup1\n  iszero\n  tag_1\n  jumpi\n  0x00\n  dup1\n  revert\ntag_1:\n  pop\n  dataSize(sub_0)\n  dup1\n  dataOffset(sub_0)\n  0x00\n  codecopy\n  0x00\n  return\nstop\n\nsub_0: assembly {\n        /* \"contracts/1_Storage.sol\":199:1036  contract Storage {... */\n      mstore(0x40, 0x80)\n      callvalue\n      dup1\n      iszero\n      tag_1\n      jumpi\n      0x00\n      dup1\n      revert\n    tag_1:\n      pop\n      jumpi(tag_2, lt(calldatasize, 0x04))\n      shr(0xe0, calldataload(0x00))\n      dup1\n      0x4f3d057a\n      eq\n      tag_3\n      jumpi\n      dup1\n      0x6d4ce63c\n      eq\n      tag_4\n      jumpi\n      dup1\n      0x880a3c86\n      eq\n      tag_5\n      jumpi\n      dup1\n      0xb1429303\n      eq\n      tag_6\n      jumpi\n    tag_2:\n      0x00\n      dup1\n      revert\n        /* \"contracts/1_Storage.sol\":345:526  function push(string memory _text) external {... */\n    tag_3:\n      tag_7\n      0x04\n      dup1\n      calldatasize\n      sub\n      dup2\n      add\n      swap1\n      tag_8\n      swap2\n      swap1\n      tag_9\n      jump\t// in\n    tag_8:\n      tag_10\n      jump\t// in\n    tag_7:\n      stop\n        /* \"contracts/1_Storage.sol\":643:1034  function get() public view returns(string[10] memory)... */\n    tag_4:\n      tag_11\n      tag_12\n      jump\t// in\n    tag_11:\n      mload(0x40)\n      tag_13\n      swap2\n      swap1\n      tag_14\n      jump\t// in\n    tag_13:\n      mload(0x40)\n      dup1\n      swap2\n      sub\n      swap1\n      return\n        /* \"contracts/1_Storage.sol\":532:637  function get_all() external view returns(Address_book[] memory)... */\n    tag_5:\n      tag_15\n      tag_16\n      jump\t// in\n    tag_15:\n      mload(0x40)\n      tag_17\n      swap2\n      swap1\n      tag_18\n      jump\t// in\n    tag_17:\n      mload(0x40)\n      dup1\n      swap2\n      sub\n      swap1\n      return\n        /* \"contracts/1_Storage.sol\":303:337  Address_book[] public address_book */\n    tag_6:\n      tag_19\n      0x04\n      dup1\n      calldatasize\n      sub\n      dup2\n      add\n      swap1\n      tag_20\n      swap2\n      swap1\n      tag_21\n      jump\t// in\n    tag_20:\n      tag_22\n      jump\t// in\n    tag_19:\n      mload(0x40)\n      tag_23\n      swap3\n      swap2\n      swap1\n      tag_24\n      jump\t// in\n    tag_23:\n      mload(0x40)\n      dup1\n      swap2\n      sub\n      swap1\n      return\n        /* \"contracts/1_Storage.sol\":345:526  function push(string memory _text) external {... */\n    tag_10:\n        /* \"contracts/1_Storage.sol\":399:424  Address_book memory entry */\n      tag_26\n      tag_27\n      jump\t// in\n    tag_26:\n        /* \"contracts/1_Storage.sol\":447:457  msg.sender */\n      caller\n        /* \"contracts/1_Storage.sol\":434:439  entry */\n      dup2\n        /* \"contracts/1_Storage.sol\":434:444  entry.addr */\n      0x00\n      add\n        /* \"contracts/1_Storage.sol\":434:457  entry.addr = msg.sender */\n      swap1\n      0xffffffffffffffffffffffffffffffffffffffff\n      and\n      swap1\n      dup2\n      0xffffffffffffffffffffffffffffffffffffffff\n      and\n      dup2\n      mstore\n      pop\n      pop\n        /* \"contracts/1_Storage.sol\":480:485  _text */\n      dup2\n        /* \"contracts/1_Storage.sol\":467:472  entry */\n      dup2\n        /* \"contracts/1_Storage.sol\":467:477  entry.data */\n      0x20\n      add\n        /* \"contracts/1_Storage.sol\":467:485  entry.data = _text */\n      dup2\n      swap1\n      mstore\n      pop\n        /* \"contracts/1_Storage.sol\":495:507  address_book */\n      0x00\n        /* \"contracts/1_Storage.sol\":513:518  entry */\n      dup2\n        /* \"contracts/1_Storage.sol\":495:519  address_book.push(entry) */\n      swap1\n      dup1\n      0x01\n      dup2\n      sload\n      add\n      dup1\n      dup3\n      sstore\n      dup1\n      swap2\n      pop\n      pop\n      0x01\n      swap1\n      sub\n      swap1\n      0x00\n      mstore\n      keccak256(0x00, 0x20)\n      swap1\n      0x02\n      mul\n      add\n      0x00\n      swap1\n      swap2\n      swap1\n      swap2\n      swap1\n      swap2\n      pop\n      0x00\n      dup3\n      add\n      mload\n      dup2\n      0x00\n      add\n      exp(0x0100, 0x00)\n      dup2\n      sload\n      dup2\n      0xffffffffffffffffffffffffffffffffffffffff\n      mul\n      not\n      and\n      swap1\n      dup4\n      0xffffffffffffffffffffffffffffffffffffffff\n      and\n      mul\n      or\n      swap1\n      sstore\n      pop\n      0x20\n      dup3\n      add\n      mload\n      dup2\n      0x01\n      add\n      swap1\n      dup1\n      mload\n      swap1\n      0x20\n      add\n      swap1\n      tag_29\n      swap3\n      swap2\n      swap1\n      tag_30\n      jump\t// in\n    tag_29:\n      pop\n      pop\n      pop\n        /* \"contracts/1_Storage.sol\":389:526  {... */\n      pop\n        /* \"contracts/1_Storage.sol\":345:526  function push(string memory _text) external {... */\n      pop\n      jump\t// out\n        /* \"contracts/1_Storage.sol\":643:1034  function get() public view returns(string[10] memory)... */\n    tag_12:\n        /* \"contracts/1_Storage.sol\":678:695  string[10] memory */\n      tag_31\n      tag_32\n      jump\t// in\n    tag_31:\n        /* \"contracts/1_Storage.sol\":711:741  string[10] memory address_data */\n      tag_34\n      tag_32\n      jump\t// in\n    tag_34:\n        /* \"contracts/1_Storage.sol\":751:757  uint j */\n      0x00\n        /* \"contracts/1_Storage.sol\":780:786  uint i */\n      dup1\n        /* \"contracts/1_Storage.sol\":776:998  for(uint i = 0; i < address_book.length; i++)... */\n    tag_35:\n        /* \"contracts/1_Storage.sol\":796:808  address_book */\n      0x00\n        /* \"contracts/1_Storage.sol\":796:815  address_book.length */\n      dup1\n      sload\n      swap1\n      pop\n        /* \"contracts/1_Storage.sol\":792:793  i */\n      dup2\n        /* \"contracts/1_Storage.sol\":792:815  i < address_book.length */\n      lt\n        /* \"contracts/1_Storage.sol\":776:998  for(uint i = 0; i < address_book.length; i++)... */\n      iszero\n      tag_36\n      jumpi\n        /* \"contracts/1_Storage.sol\":871:881  msg.sender */\n      caller\n        /* \"contracts/1_Storage.sol\":847:881  address_book[i].addr == msg.sender */\n      0xffffffffffffffffffffffffffffffffffffffff\n      and\n        /* \"contracts/1_Storage.sol\":847:859  address_book */\n      0x00\n        /* \"contracts/1_Storage.sol\":860:861  i */\n      dup3\n        /* \"contracts/1_Storage.sol\":847:862  address_book[i] */\n      dup2\n      sload\n      dup2\n      lt\n      tag_38\n      jumpi\n      tag_39\n      tag_40\n      jump\t// in\n    tag_39:\n    tag_38:\n      swap1\n      0x00\n      mstore\n      keccak256(0x00, 0x20)\n      swap1\n      0x02\n      mul\n      add\n        /* \"contracts/1_Storage.sol\":847:867  address_book[i].addr */\n      0x00\n      add\n      0x00\n      swap1\n      sload\n      swap1\n      0x0100\n      exp\n      swap1\n      div\n      0xffffffffffffffffffffffffffffffffffffffff\n      and\n        /* \"contracts/1_Storage.sol\":847:881  address_book[i].addr == msg.sender */\n      0xffffffffffffffffffffffffffffffffffffffff\n      and\n      eq\n        /* \"contracts/1_Storage.sol\":844:988  if(address_book[i].addr == msg.sender)... */\n      iszero\n      tag_42\n      jumpi\n        /* \"contracts/1_Storage.sol\":932:944  address_book */\n      0x00\n        /* \"contracts/1_Storage.sol\":945:946  i */\n      dup2\n        /* \"contracts/1_Storage.sol\":932:947  address_book[i] */\n      dup2\n      sload\n      dup2\n      lt\n      tag_43\n      jumpi\n      tag_44\n      tag_40\n      jump\t// in\n    tag_44:\n    tag_43:\n      swap1\n      0x00\n      mstore\n      keccak256(0x00, 0x20)\n      swap1\n      0x02\n      mul\n      add\n        /* \"contracts/1_Storage.sol\":932:952  address_book[i].data */\n      0x01\n      add\n        /* \"contracts/1_Storage.sol\":914:952  address_data[j] = address_book[i].data */\n      dup1\n      sload\n      tag_46\n      swap1\n      tag_47\n      jump\t// in\n    tag_46:\n      dup1\n      0x1f\n      add\n      0x20\n      dup1\n      swap2\n      div\n      mul\n      0x20\n      add\n      mload(0x40)\n      swap1\n      dup2\n      add\n      0x40\n      mstore\n      dup1\n      swap3\n      swap2\n      swap1\n      dup2\n      dup2\n      mstore\n      0x20\n      add\n      dup3\n      dup1\n      sload\n      tag_48\n      swap1\n      tag_47\n      jump\t// in\n    tag_48:\n      dup1\n      iszero\n      tag_49\n      jumpi\n      dup1\n      0x1f\n      lt\n      tag_50\n      jumpi\n      0x0100\n      dup1\n      dup4\n      sload\n      div\n      mul\n      dup4\n      mstore\n      swap2\n      0x20\n      add\n      swap2\n      jump(tag_49)\n    tag_50:\n      dup3\n      add\n      swap2\n      swap1\n      0x00\n      mstore\n      keccak256(0x00, 0x20)\n      swap1\n    tag_51:\n      dup2\n      sload\n      dup2\n      mstore\n      swap1\n      0x01\n      add\n      swap1\n      0x20\n      add\n      dup1\n      dup4\n      gt\n      tag_51\n      jumpi\n      dup3\n      swap1\n      sub\n      0x1f\n      and\n      dup3\n      add\n      swap2\n    tag_49:\n      pop\n      pop\n      pop\n      pop\n      pop\n        /* \"contracts/1_Storage.sol\":914:926  address_data */\n      dup4\n        /* \"contracts/1_Storage.sol\":927:928  j */\n      dup4\n        /* \"contracts/1_Storage.sol\":914:929  address_data[j] */\n      0x0a\n      dup2\n      lt\n      tag_52\n      jumpi\n      tag_53\n      tag_40\n      jump\t// in\n    tag_53:\n    tag_52:\n      0x20\n      mul\n      add\n        /* \"contracts/1_Storage.sol\":914:952  address_data[j] = address_book[i].data */\n      dup2\n      swap1\n      mstore\n      pop\n        /* \"contracts/1_Storage.sol\":970:973  j++ */\n      dup2\n      dup1\n      tag_54\n      swap1\n      tag_55\n      jump\t// in\n    tag_54:\n      swap3\n      pop\n      pop\n        /* \"contracts/1_Storage.sol\":844:988  if(address_book[i].addr == msg.sender)... */\n    tag_42:\n        /* \"contracts/1_Storage.sol\":817:820  i++ */\n      dup1\n      dup1\n      tag_56\n      swap1\n      tag_55\n      jump\t// in\n    tag_56:\n      swap2\n      pop\n      pop\n        /* \"contracts/1_Storage.sol\":776:998  for(uint i = 0; i < address_book.length; i++)... */\n      jump(tag_35)\n    tag_36:\n      pop\n        /* \"contracts/1_Storage.sol\":1014:1026  address_data */\n      dup2\n        /* \"contracts/1_Storage.sol\":1007:1027  return(address_data) */\n      swap3\n      pop\n      pop\n      pop\n        /* \"contracts/1_Storage.sol\":643:1034  function get() public view returns(string[10] memory)... */\n      swap1\n      jump\t// out\n        /* \"contracts/1_Storage.sol\":532:637  function get_all() external view returns(Address_book[] memory)... */\n    tag_16:\n        /* \"contracts/1_Storage.sol\":573:594  Address_book[] memory */\n      0x60\n        /* \"contracts/1_Storage.sol\":617:629  address_book */\n      0x00\n        /* \"contracts/1_Storage.sol\":610:630  return(address_book) */\n      dup1\n      sload\n      dup1\n      0x20\n      mul\n      0x20\n      add\n      mload(0x40)\n      swap1\n      dup2\n      add\n      0x40\n      mstore\n      dup1\n      swap3\n      swap2\n      swap1\n      dup2\n      dup2\n      mstore\n      0x20\n      add\n      0x00\n      swap1\n    tag_58:\n      dup3\n      dup3\n      lt\n      iszero\n      tag_59\n      jumpi\n      dup4\n      dup3\n      swap1\n      0x00\n      mstore\n      keccak256(0x00, 0x20)\n      swap1\n      0x02\n      mul\n      add\n      mload(0x40)\n      dup1\n      0x40\n      add\n      0x40\n      mstore\n      swap1\n      dup2\n      0x00\n      dup3\n      add\n      0x00\n      swap1\n      sload\n      swap1\n      0x0100\n      exp\n      swap1\n      div\n      0xffffffffffffffffffffffffffffffffffffffff\n      and\n      0xffffffffffffffffffffffffffffffffffffffff\n      and\n      0xffffffffffffffffffffffffffffffffffffffff\n      and\n      dup2\n      mstore\n      0x20\n      add\n      0x01\n      dup3\n      add\n      dup1\n      sload\n      tag_61\n      swap1\n      tag_47\n      jump\t// in\n    tag_61:\n      dup1\n      0x1f\n      add\n      0x20\n      dup1\n      swap2\n      div\n      mul\n      0x20\n      add\n      mload(0x40)\n      swap1\n      dup2\n      add\n      0x40\n      mstore\n      dup1\n      swap3\n      swap2\n      swap1\n      dup2\n      dup2\n      mstore\n      0x20\n      add\n      dup3\n      dup1\n      sload\n      tag_62\n      swap1\n      tag_47\n      jump\t// in\n    tag_62:\n      dup1\n      iszero\n      tag_63\n      jumpi\n      dup1\n      0x1f\n      lt\n      tag_64\n      jumpi\n      0x0100\n      dup1\n      dup4\n      sload\n      div\n      mul\n      dup4\n      mstore\n      swap2\n      0x20\n      add\n      swap2\n      jump(tag_63)\n    tag_64:\n      dup3\n      add\n      swap2\n      swap1\n      0x00\n      mstore\n      keccak256(0x00, 0x20)\n      swap1\n    tag_65:\n      dup2\n      sload\n      dup2\n      mstore\n      swap1\n      0x01\n      add\n      swap1\n      0x20\n      add\n      dup1\n      dup4\n      gt\n      tag_65\n      jumpi\n      dup3\n      swap1\n      sub\n      0x1f\n      and\n      dup3\n      add\n      swap2\n    tag_63:\n      pop\n      pop\n      pop\n      pop\n      pop\n      dup2\n      mstore\n      pop\n      pop\n      dup2\n      mstore\n      0x20\n      add\n      swap1\n      0x01\n      add\n      swap1\n      jump(tag_58)\n    tag_59:\n      pop\n      pop\n      pop\n      pop\n      swap1\n      pop\n        /* \"contracts/1_Storage.sol\":532:637  function get_all() external view returns(Address_book[] memory)... */\n      swap1\n      jump\t// out\n        /* \"contracts/1_Storage.sol\":303:337  Address_book[] public address_book */\n    tag_22:\n      0x00\n      dup2\n      dup2\n      sload\n      dup2\n      lt\n      tag_66\n      jumpi\n      0x00\n      dup1\n      revert\n    tag_66:\n      swap1\n      0x00\n      mstore\n      keccak256(0x00, 0x20)\n      swap1\n      0x02\n      mul\n      add\n      0x00\n      swap2\n      pop\n      swap1\n      pop\n      dup1\n      0x00\n      add\n      0x00\n      swap1\n      sload\n      swap1\n      0x0100\n      exp\n      swap1\n      div\n      0xffffffffffffffffffffffffffffffffffffffff\n      and\n      swap1\n      dup1\n      0x01\n      add\n      dup1\n      sload\n      tag_68\n      swap1\n      tag_47\n      jump\t// in\n    tag_68:\n      dup1\n      0x1f\n      add\n      0x20\n      dup1\n      swap2\n      div\n      mul\n      0x20\n      add\n      mload(0x40)\n      swap1\n      dup2\n      add\n      0x40\n      mstore\n      dup1\n      swap3\n      swap2\n      swap1\n      dup2\n      dup2\n      mstore\n      0x20\n      add\n      dup3\n      dup1\n      sload\n      tag_69\n      swap1\n      tag_47\n      jump\t// in\n    tag_69:\n      dup1\n      iszero\n      tag_70\n      jumpi\n      dup1\n      0x1f\n      lt\n      tag_71\n      jumpi\n      0x0100\n      dup1\n      dup4\n      sload\n      div\n      mul\n      dup4\n      mstore\n      swap2\n      0x20\n      add\n      swap2\n      jump(tag_70)\n    tag_71:\n      dup3\n      add\n      swap2\n      swap1\n      0x00\n      mstore\n      keccak256(0x00, 0x20)\n      swap1\n    tag_72:\n      dup2\n      sload\n      dup2\n      mstore\n      swap1\n      0x01\n      add\n      swap1\n      0x20\n      add\n      dup1\n      dup4\n      gt\n      tag_72\n      jumpi\n      dup3\n      swap1\n      sub\n      0x1f\n      and\n      dup3\n      add\n      swap2\n    tag_70:\n      pop\n      pop\n      pop\n      pop\n      pop\n      swap1\n      pop\n      dup3\n      jump\t// out\n    tag_27:\n      mload(0x40)\n      dup1\n      0x40\n      add\n      0x40\n      mstore\n      dup1\n      and(0xffffffffffffffffffffffffffffffffffffffff, 0x00)\n      dup2\n      mstore\n      0x20\n      add\n      0x60\n      dup2\n      mstore\n      pop\n      swap1\n      jump\t// out\n    tag_30:\n      dup3\n      dup1\n      sload\n      tag_73\n      swap1\n      tag_47\n      jump\t// in\n    tag_73:\n      swap1\n      0x00\n      mstore\n      keccak256(0x00, 0x20)\n      swap1\n      0x1f\n      add\n      0x20\n      swap1\n      div\n      dup2\n      add\n      swap3\n      dup3\n      tag_75\n      jumpi\n      0x00\n      dup6\n      sstore\n      jump(tag_74)\n    tag_75:\n      dup3\n      0x1f\n      lt\n      tag_76\n      jumpi\n      dup1\n      mload\n      not(0xff)\n      and\n      dup4\n      dup1\n      add\n      or\n      dup6\n      sstore\n      jump(tag_74)\n    tag_76:\n      dup3\n      dup1\n      add\n      0x01\n      add\n      dup6\n      sstore\n      dup3\n      iszero\n      tag_74\n      jumpi\n      swap2\n      dup3\n      add\n    tag_77:\n      dup3\n      dup2\n      gt\n      iszero\n      tag_78\n      jumpi\n      dup3\n      mload\n      dup3\n      sstore\n      swap2\n      0x20\n      add\n      swap2\n      swap1\n      0x01\n      add\n      swap1\n      jump(tag_77)\n    tag_78:\n    tag_74:\n      pop\n      swap1\n      pop\n      tag_79\n      swap2\n      swap1\n      tag_80\n      jump\t// in\n    tag_79:\n      pop\n      swap1\n      jump\t// out\n    tag_32:\n      mload(0x40)\n      dup1\n      0x0140\n      add\n      0x40\n      mstore\n      dup1\n      0x0a\n      swap1\n    tag_81:\n      0x60\n      dup2\n      mstore\n      0x20\n      add\n      swap1\n      0x01\n      swap1\n      sub\n      swap1\n      dup2\n      tag_81\n      jumpi\n      swap1\n      pop\n      pop\n      swap1\n      jump\t// out\n    tag_80:\n    tag_82:\n      dup1\n      dup3\n      gt\n      iszero\n      tag_83\n      jumpi\n      0x00\n      dup2\n      0x00\n      swap1\n      sstore\n      pop\n      0x01\n      add\n      jump(tag_82)\n    tag_83:\n      pop\n      swap1\n      jump\t// out\n        /* \"#utility.yul\":7:419   */\n    tag_85:\n        /* \"#utility.yul\":85:90   */\n      0x00\n        /* \"#utility.yul\":110:176   */\n      tag_87\n        /* \"#utility.yul\":126:175   */\n      tag_88\n        /* \"#utility.yul\":168:174   */\n      dup5\n        /* \"#utility.yul\":126:175   */\n      tag_89\n      jump\t// in\n    tag_88:\n        /* \"#utility.yul\":110:176   */\n      tag_90\n      jump\t// in\n    tag_87:\n        /* \"#utility.yul\":101:176   */\n      swap1\n      pop\n        /* \"#utility.yul\":199:205   */\n      dup3\n        /* \"#utility.yul\":192:197   */\n      dup2\n        /* \"#utility.yul\":185:206   */\n      mstore\n        /* \"#utility.yul\":237:241   */\n      0x20\n        /* \"#utility.yul\":230:235   */\n      dup2\n        /* \"#utility.yul\":226:242   */\n      add\n        /* \"#utility.yul\":275:278   */\n      dup5\n        /* \"#utility.yul\":266:272   */\n      dup5\n        /* \"#utility.yul\":261:264   */\n      dup5\n        /* \"#utility.yul\":257:273   */\n      add\n        /* \"#utility.yul\":254:279   */\n      gt\n        /* \"#utility.yul\":251:363   */\n      iszero\n      tag_91\n      jumpi\n        /* \"#utility.yul\":282:361   */\n      tag_92\n      tag_93\n      jump\t// in\n    tag_92:\n        /* \"#utility.yul\":251:363   */\n    tag_91:\n        /* \"#utility.yul\":372:413   */\n      tag_94\n        /* \"#utility.yul\":406:412   */\n      dup5\n        /* \"#utility.yul\":401:404   */\n      dup3\n        /* \"#utility.yul\":396:399   */\n      dup6\n        /* \"#utility.yul\":372:413   */\n      tag_95\n      jump\t// in\n    tag_94:\n        /* \"#utility.yul\":91:419   */\n      pop\n        /* \"#utility.yul\":7:419   */\n      swap4\n      swap3\n      pop\n      pop\n      pop\n      jump\t// out\n        /* \"#utility.yul\":439:779   */\n    tag_96:\n        /* \"#utility.yul\":495:500   */\n      0x00\n        /* \"#utility.yul\":544:547   */\n      dup3\n        /* \"#utility.yul\":537:541   */\n      0x1f\n        /* \"#utility.yul\":529:535   */\n      dup4\n        /* \"#utility.yul\":525:542   */\n      add\n        /* \"#utility.yul\":521:548   */\n      slt\n        /* \"#utility.yul\":511:633   */\n      tag_98\n      jumpi\n        /* \"#utility.yul\":552:631   */\n      tag_99\n      tag_100\n      jump\t// in\n    tag_99:\n        /* \"#utility.yul\":511:633   */\n    tag_98:\n        /* \"#utility.yul\":669:675   */\n      dup2\n        /* \"#utility.yul\":656:676   */\n      calldataload\n        /* \"#utility.yul\":694:773   */\n      tag_101\n        /* \"#utility.yul\":769:772   */\n      dup5\n        /* \"#utility.yul\":761:767   */\n      dup3\n        /* \"#utility.yul\":754:758   */\n      0x20\n        /* \"#utility.yul\":746:752   */\n      dup7\n        /* \"#utility.yul\":742:759   */\n      add\n        /* \"#utility.yul\":694:773   */\n      tag_85\n      jump\t// in\n    tag_101:\n        /* \"#utility.yul\":685:773   */\n      swap2\n      pop\n        /* \"#utility.yul\":501:779   */\n      pop\n        /* \"#utility.yul\":439:779   */\n      swap3\n      swap2\n      pop\n      pop\n      jump\t// out\n        /* \"#utility.yul\":785:924   */\n    tag_102:\n        /* \"#utility.yul\":831:836   */\n      0x00\n        /* \"#utility.yul\":869:875   */\n      dup2\n        /* \"#utility.yul\":856:876   */\n      calldataload\n        /* \"#utility.yul\":847:876   */\n      swap1\n      pop\n        /* \"#utility.yul\":885:918   */\n      tag_104\n        /* \"#utility.yul\":912:917   */\n      dup2\n        /* \"#utility.yul\":885:918   */\n      tag_105\n      jump\t// in\n    tag_104:\n        /* \"#utility.yul\":785:924   */\n      swap3\n      swap2\n      pop\n      pop\n      jump\t// out\n        /* \"#utility.yul\":930:1439   */\n    tag_9:\n        /* \"#utility.yul\":999:1005   */\n      0x00\n        /* \"#utility.yul\":1048:1050   */\n      0x20\n        /* \"#utility.yul\":1036:1045   */\n      dup3\n        /* \"#utility.yul\":1027:1034   */\n      dup5\n        /* \"#utility.yul\":1023:1046   */\n      sub\n        /* \"#utility.yul\":1019:1051   */\n      slt\n        /* \"#utility.yul\":1016:1135   */\n      iszero\n      tag_107\n      jumpi\n        /* \"#utility.yul\":1054:1133   */\n      tag_108\n      tag_109\n      jump\t// in\n    tag_108:\n        /* \"#utility.yul\":1016:1135   */\n    tag_107:\n        /* \"#utility.yul\":1202:1203   */\n      0x00\n        /* \"#utility.yul\":1191:1200   */\n      dup3\n        /* \"#utility.yul\":1187:1204   */\n      add\n        /* \"#utility.yul\":1174:1205   */\n      calldataload\n        /* \"#utility.yul\":1232:1250   */\n      0xffffffffffffffff\n        /* \"#utility.yul\":1224:1230   */\n      dup2\n        /* \"#utility.yul\":1221:1251   */\n      gt\n        /* \"#utility.yul\":1218:1335   */\n      iszero\n      tag_110\n      jumpi\n        /* \"#utility.yul\":1254:1333   */\n      tag_111\n      tag_112\n      jump\t// in\n    tag_111:\n        /* \"#utility.yul\":1218:1335   */\n    tag_110:\n        /* \"#utility.yul\":1359:1422   */\n      tag_113\n        /* \"#utility.yul\":1414:1421   */\n      dup5\n        /* \"#utility.yul\":1405:1411   */\n      dup3\n        /* \"#utility.yul\":1394:1403   */\n      dup6\n        /* \"#utility.yul\":1390:1412   */\n      add\n        /* \"#utility.yul\":1359:1422   */\n      tag_96\n      jump\t// in\n    tag_113:\n        /* \"#utility.yul\":1349:1422   */\n      swap2\n      pop\n        /* \"#utility.yul\":1145:1432   */\n      pop\n        /* \"#utility.yul\":930:1439   */\n      swap3\n      swap2\n      pop\n      pop\n      jump\t// out\n        /* \"#utility.yul\":1445:1774   */\n    tag_21:\n        /* \"#utility.yul\":1504:1510   */\n      0x00\n        /* \"#utility.yul\":1553:1555   */\n      0x20\n        /* \"#utility.yul\":1541:1550   */\n      dup3\n        /* \"#utility.yul\":1532:1539   */\n      dup5\n        /* \"#utility.yul\":1528:1551   */\n      sub\n        /* \"#utility.yul\":1524:1556   */\n      slt\n        /* \"#utility.yul\":1521:1640   */\n      iszero\n      tag_115\n      jumpi\n        /* \"#utility.yul\":1559:1638   */\n      tag_116\n      tag_109\n      jump\t// in\n    tag_116:\n        /* \"#utility.yul\":1521:1640   */\n    tag_115:\n        /* \"#utility.yul\":1679:1680   */\n      0x00\n        /* \"#utility.yul\":1704:1757   */\n      tag_117\n        /* \"#utility.yul\":1749:1756   */\n      dup5\n        /* \"#utility.yul\":1740:1746   */\n      dup3\n        /* \"#utility.yul\":1729:1738   */\n      dup6\n        /* \"#utility.yul\":1725:1747   */\n      add\n        /* \"#utility.yul\":1704:1757   */\n      tag_102\n      jump\t// in\n    tag_117:\n        /* \"#utility.yul\":1694:1757   */\n      swap2\n      pop\n        /* \"#utility.yul\":1650:1767   */\n      pop\n        /* \"#utility.yul\":1445:1774   */\n      swap3\n      swap2\n      pop\n      pop\n      jump\t// out\n        /* \"#utility.yul\":1780:1976   */\n    tag_118:\n        /* \"#utility.yul\":1869:1879   */\n      0x00\n        /* \"#utility.yul\":1904:1970   */\n      tag_120\n        /* \"#utility.yul\":1966:1969   */\n      dup4\n        /* \"#utility.yul\":1958:1964   */\n      dup4\n        /* \"#utility.yul\":1904:1970   */\n      tag_121\n      jump\t// in\n    tag_120:\n        /* \"#utility.yul\":1890:1970   */\n      swap1\n      pop\n        /* \"#utility.yul\":1780:1976   */\n      swap3\n      swap2\n      pop\n      pop\n      jump\t// out\n        /* \"#utility.yul\":1982:2246   */\n    tag_122:\n        /* \"#utility.yul\":2105:2115   */\n      0x00\n        /* \"#utility.yul\":2140:2240   */\n      tag_124\n        /* \"#utility.yul\":2236:2239   */\n      dup4\n        /* \"#utility.yul\":2228:2234   */\n      dup4\n        /* \"#utility.yul\":2140:2240   */\n      tag_125\n      jump\t// in\n    tag_124:\n        /* \"#utility.yul\":2126:2240   */\n      swap1\n      pop\n        /* \"#utility.yul\":1982:2246   */\n      swap3\n      swap2\n      pop\n      pop\n      jump\t// out\n        /* \"#utility.yul\":2252:2360   */\n    tag_126:\n        /* \"#utility.yul\":2329:2353   */\n      tag_128\n        /* \"#utility.yul\":2347:2352   */\n      dup2\n        /* \"#utility.yul\":2329:2353   */\n      tag_129\n      jump\t// in\n    tag_128:\n        /* \"#utility.yul\":2324:2327   */\n      dup3\n        /* \"#utility.yul\":2317:2354   */\n      mstore\n        /* \"#utility.yul\":2252:2360   */\n      pop\n      pop\n      jump\t// out\n        /* \"#utility.yul\":2366:2484   */\n    tag_130:\n        /* \"#utility.yul\":2453:2477   */\n      tag_132\n        /* \"#utility.yul\":2471:2476   */\n      dup2\n        /* \"#utility.yul\":2453:2477   */\n      tag_129\n      jump\t// in\n    tag_132:\n        /* \"#utility.yul\":2448:2451   */\n      dup3\n        /* \"#utility.yul\":2441:2478   */\n      mstore\n        /* \"#utility.yul\":2366:2484   */\n      pop\n      pop\n      jump\t// out\n        /* \"#utility.yul\":2522:3507   */\n    tag_133:\n        /* \"#utility.yul\":2659:2662   */\n      0x00\n        /* \"#utility.yul\":2688:2751   */\n      tag_135\n        /* \"#utility.yul\":2745:2750   */\n      dup3\n        /* \"#utility.yul\":2688:2751   */\n      tag_136\n      jump\t// in\n    tag_135:\n        /* \"#utility.yul\":2767:2862   */\n      tag_137\n        /* \"#utility.yul\":2855:2861   */\n      dup2\n        /* \"#utility.yul\":2850:2853   */\n      dup6\n        /* \"#utility.yul\":2767:2862   */\n      tag_138\n      jump\t// in\n    tag_137:\n        /* \"#utility.yul\":2760:2862   */\n      swap4\n      pop\n        /* \"#utility.yul\":2888:2891   */\n      dup4\n        /* \"#utility.yul\":2933:2937   */\n      0x20\n        /* \"#utility.yul\":2925:2931   */\n      dup3\n        /* \"#utility.yul\":2921:2938   */\n      mul\n        /* \"#utility.yul\":2916:2919   */\n      dup6\n        /* \"#utility.yul\":2912:2939   */\n      add\n        /* \"#utility.yul\":2963:3028   */\n      tag_139\n        /* \"#utility.yul\":3022:3027   */\n      dup6\n        /* \"#utility.yul\":2963:3028   */\n      tag_140\n      jump\t// in\n    tag_139:\n        /* \"#utility.yul\":3051:3058   */\n      dup1\n        /* \"#utility.yul\":3082:3083   */\n      0x00\n        /* \"#utility.yul\":3067:3462   */\n    tag_141:\n        /* \"#utility.yul\":3092:3098   */\n      dup6\n        /* \"#utility.yul\":3089:3090   */\n      dup2\n        /* \"#utility.yul\":3086:3099   */\n      lt\n        /* \"#utility.yul\":3067:3462   */\n      iszero\n      tag_143\n      jumpi\n        /* \"#utility.yul\":3163:3172   */\n      dup5\n        /* \"#utility.yul\":3157:3161   */\n      dup5\n        /* \"#utility.yul\":3153:3173   */\n      sub\n        /* \"#utility.yul\":3148:3151   */\n      dup10\n        /* \"#utility.yul\":3141:3174   */\n      mstore\n        /* \"#utility.yul\":3214:3220   */\n      dup2\n        /* \"#utility.yul\":3208:3221   */\n      mload\n        /* \"#utility.yul\":3242:3326   */\n      tag_144\n        /* \"#utility.yul\":3321:3325   */\n      dup6\n        /* \"#utility.yul\":3306:3319   */\n      dup3\n        /* \"#utility.yul\":3242:3326   */\n      tag_118\n      jump\t// in\n    tag_144:\n        /* \"#utility.yul\":3234:3326   */\n      swap5\n      pop\n        /* \"#utility.yul\":3349:3418   */\n      tag_145\n        /* \"#utility.yul\":3411:3417   */\n      dup4\n        /* \"#utility.yul\":3349:3418   */\n      tag_146\n      jump\t// in\n    tag_145:\n        /* \"#utility.yul\":3339:3418   */\n      swap3\n      pop\n        /* \"#utility.yul\":3447:3451   */\n      0x20\n        /* \"#utility.yul\":3442:3445   */\n      dup11\n        /* \"#utility.yul\":3438:3452   */\n      add\n        /* \"#utility.yul\":3431:3452   */\n      swap10\n      pop\n        /* \"#utility.yul\":3127:3462   */\n      pop\n        /* \"#utility.yul\":3114:3115   */\n      0x01\n        /* \"#utility.yul\":3111:3112   */\n      dup2\n        /* \"#utility.yul\":3107:3116   */\n      add\n        /* \"#utility.yul\":3102:3116   */\n      swap1\n      pop\n        /* \"#utility.yul\":3067:3462   */\n      jump(tag_141)\n    tag_143:\n        /* \"#utility.yul\":3071:3085   */\n      pop\n        /* \"#utility.yul\":3478:3482   */\n      dup3\n        /* \"#utility.yul\":3471:3482   */\n      swap8\n      pop\n        /* \"#utility.yul\":3498:3501   */\n      dup8\n        /* \"#utility.yul\":3491:3501   */\n      swap6\n      pop\n        /* \"#utility.yul\":2664:3507   */\n      pop\n      pop\n      pop\n      pop\n      pop\n        /* \"#utility.yul\":2522:3507   */\n      swap3\n      swap2\n      pop\n      pop\n      jump\t// out\n        /* \"#utility.yul\":3583:4710   */\n    tag_147:\n        /* \"#utility.yul\":3756:3759   */\n      0x00\n        /* \"#utility.yul\":3785:3866   */\n      tag_149\n        /* \"#utility.yul\":3860:3865   */\n      dup3\n        /* \"#utility.yul\":3785:3866   */\n      tag_150\n      jump\t// in\n    tag_149:\n        /* \"#utility.yul\":3882:3995   */\n      tag_151\n        /* \"#utility.yul\":3988:3994   */\n      dup2\n        /* \"#utility.yul\":3983:3986   */\n      dup6\n        /* \"#utility.yul\":3882:3995   */\n      tag_152\n      jump\t// in\n    tag_151:\n        /* \"#utility.yul\":3875:3995   */\n      swap4\n      pop\n        /* \"#utility.yul\":4021:4024   */\n      dup4\n        /* \"#utility.yul\":4066:4070   */\n      0x20\n        /* \"#utility.yul\":4058:4064   */\n      dup3\n        /* \"#utility.yul\":4054:4071   */\n      mul\n        /* \"#utility.yul\":4049:4052   */\n      dup6\n        /* \"#utility.yul\":4045:4072   */\n      add\n        /* \"#utility.yul\":4096:4179   */\n      tag_153\n        /* \"#utility.yul\":4173:4178   */\n      dup6\n        /* \"#utility.yul\":4096:4179   */\n      tag_154\n      jump\t// in\n    tag_153:\n        /* \"#utility.yul\":4202:4209   */\n      dup1\n        /* \"#utility.yul\":4233:4234   */\n      0x00\n        /* \"#utility.yul\":4218:4665   */\n    tag_155:\n        /* \"#utility.yul\":4243:4249   */\n      dup6\n        /* \"#utility.yul\":4240:4241   */\n      dup2\n        /* \"#utility.yul\":4237:4250   */\n      lt\n        /* \"#utility.yul\":4218:4665   */\n      iszero\n      tag_157\n      jumpi\n        /* \"#utility.yul\":4314:4323   */\n      dup5\n        /* \"#utility.yul\":4308:4312   */\n      dup5\n        /* \"#utility.yul\":4304:4324   */\n      sub\n        /* \"#utility.yul\":4299:4302   */\n      dup10\n        /* \"#utility.yul\":4292:4325   */\n      mstore\n        /* \"#utility.yul\":4365:4371   */\n      dup2\n        /* \"#utility.yul\":4359:4372   */\n      mload\n        /* \"#utility.yul\":4393:4511   */\n      tag_158\n        /* \"#utility.yul\":4506:4510   */\n      dup6\n        /* \"#utility.yul\":4491:4504   */\n      dup3\n        /* \"#utility.yul\":4393:4511   */\n      tag_122\n      jump\t// in\n    tag_158:\n        /* \"#utility.yul\":4385:4511   */\n      swap5\n      pop\n        /* \"#utility.yul\":4534:4621   */\n      tag_159\n        /* \"#utility.yul\":4614:4620   */\n      dup4\n        /* \"#utility.yul\":4534:4621   */\n      tag_160\n      jump\t// in\n    tag_159:\n        /* \"#utility.yul\":4524:4621   */\n      swap3\n      pop\n        /* \"#utility.yul\":4650:4654   */\n      0x20\n        /* \"#utility.yul\":4645:4648   */\n      dup11\n        /* \"#utility.yul\":4641:4655   */\n      add\n        /* \"#utility.yul\":4634:4655   */\n      swap10\n      pop\n        /* \"#utility.yul\":4278:4665   */\n      pop\n        /* \"#utility.yul\":4265:4266   */\n      0x01\n        /* \"#utility.yul\":4262:4263   */\n      dup2\n        /* \"#utility.yul\":4258:4267   */\n      add\n        /* \"#utility.yul\":4253:4267   */\n      swap1\n      pop\n        /* \"#utility.yul\":4218:4665   */\n      jump(tag_155)\n    tag_157:\n        /* \"#utility.yul\":4222:4236   */\n      pop\n        /* \"#utility.yul\":4681:4685   */\n      dup3\n        /* \"#utility.yul\":4674:4685   */\n      swap8\n      pop\n        /* \"#utility.yul\":4701:4704   */\n      dup8\n        /* \"#utility.yul\":4694:4704   */\n      swap6\n      pop\n        /* \"#utility.yul\":3761:4710   */\n      pop\n      pop\n      pop\n      pop\n      pop\n        /* \"#utility.yul\":3583:4710   */\n      swap3\n      swap2\n      pop\n      pop\n      jump\t// out\n        /* \"#utility.yul\":4716:5060   */\n    tag_121:\n        /* \"#utility.yul\":4794:4797   */\n      0x00\n        /* \"#utility.yul\":4822:4861   */\n      tag_162\n        /* \"#utility.yul\":4855:4860   */\n      dup3\n        /* \"#utility.yul\":4822:4861   */\n      tag_163\n      jump\t// in\n    tag_162:\n        /* \"#utility.yul\":4877:4938   */\n      tag_164\n        /* \"#utility.yul\":4931:4937   */\n      dup2\n        /* \"#utility.yul\":4926:4929   */\n      dup6\n        /* \"#utility.yul\":4877:4938   */\n      tag_165\n      jump\t// in\n    tag_164:\n        /* \"#utility.yul\":4870:4938   */\n      swap4\n      pop\n        /* \"#utility.yul\":4947:4999   */\n      tag_166\n        /* \"#utility.yul\":4992:4998   */\n      dup2\n        /* \"#utility.yul\":4987:4990   */\n      dup6\n        /* \"#utility.yul\":4980:4984   */\n      0x20\n        /* \"#utility.yul\":4973:4978   */\n      dup7\n        /* \"#utility.yul\":4969:4985   */\n      add\n        /* \"#utility.yul\":4947:4999   */\n      tag_167\n      jump\t// in\n    tag_166:\n        /* \"#utility.yul\":5024:5053   */\n      tag_168\n        /* \"#utility.yul\":5046:5052   */\n      dup2\n        /* \"#utility.yul\":5024:5053   */\n      tag_169\n      jump\t// in\n    tag_168:\n        /* \"#utility.yul\":5019:5022   */\n      dup5\n        /* \"#utility.yul\":5015:5054   */\n      add\n        /* \"#utility.yul\":5008:5054   */\n      swap2\n      pop\n        /* \"#utility.yul\":4798:5060   */\n      pop\n        /* \"#utility.yul\":4716:5060   */\n      swap3\n      swap2\n      pop\n      pop\n      jump\t// out\n        /* \"#utility.yul\":5066:5430   */\n    tag_170:\n        /* \"#utility.yul\":5154:5157   */\n      0x00\n        /* \"#utility.yul\":5182:5221   */\n      tag_172\n        /* \"#utility.yul\":5215:5220   */\n      dup3\n        /* \"#utility.yul\":5182:5221   */\n      tag_163\n      jump\t// in\n    tag_172:\n        /* \"#utility.yul\":5237:5308   */\n      tag_173\n        /* \"#utility.yul\":5301:5307   */\n      dup2\n        /* \"#utility.yul\":5296:5299   */\n      dup6\n        /* \"#utility.yul\":5237:5308   */\n      tag_174\n      jump\t// in\n    tag_173:\n        /* \"#utility.yul\":5230:5308   */\n      swap4\n      pop\n        /* \"#utility.yul\":5317:5369   */\n      tag_175\n        /* \"#utility.yul\":5362:5368   */\n      dup2\n        /* \"#utility.yul\":5357:5360   */\n      dup6\n        /* \"#utility.yul\":5350:5354   */\n      0x20\n        /* \"#utility.yul\":5343:5348   */\n      dup7\n        /* \"#utility.yul\":5339:5355   */\n      add\n        /* \"#utility.yul\":5317:5369   */\n      tag_167\n      jump\t// in\n    tag_175:\n        /* \"#utility.yul\":5394:5423   */\n      tag_176\n        /* \"#utility.yul\":5416:5422   */\n      dup2\n        /* \"#utility.yul\":5394:5423   */\n      tag_169\n      jump\t// in\n    tag_176:\n        /* \"#utility.yul\":5389:5392   */\n      dup5\n        /* \"#utility.yul\":5385:5424   */\n      add\n        /* \"#utility.yul\":5378:5424   */\n      swap2\n      pop\n        /* \"#utility.yul\":5158:5430   */\n      pop\n        /* \"#utility.yul\":5066:5430   */\n      swap3\n      swap2\n      pop\n      pop\n      jump\t// out\n        /* \"#utility.yul\":5502:6102   */\n    tag_125:\n        /* \"#utility.yul\":5615:5618   */\n      0x00\n        /* \"#utility.yul\":5651:5655   */\n      0x40\n        /* \"#utility.yul\":5646:5649   */\n      dup4\n        /* \"#utility.yul\":5642:5656   */\n      add\n        /* \"#utility.yul\":5738:5742   */\n      0x00\n        /* \"#utility.yul\":5731:5736   */\n      dup4\n        /* \"#utility.yul\":5727:5743   */\n      add\n        /* \"#utility.yul\":5721:5744   */\n      mload\n        /* \"#utility.yul\":5757:5820   */\n      tag_178\n        /* \"#utility.yul\":5814:5818   */\n      0x00\n        /* \"#utility.yul\":5809:5812   */\n      dup7\n        /* \"#utility.yul\":5805:5819   */\n      add\n        /* \"#utility.yul\":5791:5803   */\n      dup3\n        /* \"#utility.yul\":5757:5820   */\n      tag_126\n      jump\t// in\n    tag_178:\n        /* \"#utility.yul\":5666:5830   */\n      pop\n        /* \"#utility.yul\":5912:5916   */\n      0x20\n        /* \"#utility.yul\":5905:5910   */\n      dup4\n        /* \"#utility.yul\":5901:5917   */\n      add\n        /* \"#utility.yul\":5895:5918   */\n      mload\n        /* \"#utility.yul\":5965:5968   */\n      dup5\n        /* \"#utility.yul\":5959:5963   */\n      dup3\n        /* \"#utility.yul\":5955:5969   */\n      sub\n        /* \"#utility.yul\":5948:5952   */\n      0x20\n        /* \"#utility.yul\":5943:5946   */\n      dup7\n        /* \"#utility.yul\":5939:5953   */\n      add\n        /* \"#utility.yul\":5932:5970   */\n      mstore\n        /* \"#utility.yul\":5991:6064   */\n      tag_179\n        /* \"#utility.yul\":6059:6063   */\n      dup3\n        /* \"#utility.yul\":6045:6057   */\n      dup3\n        /* \"#utility.yul\":5991:6064   */\n      tag_121\n      jump\t// in\n    tag_179:\n        /* \"#utility.yul\":5983:6064   */\n      swap2\n      pop\n        /* \"#utility.yul\":5840:6075   */\n      pop\n        /* \"#utility.yul\":6092:6096   */\n      dup1\n        /* \"#utility.yul\":6085:6096   */\n      swap2\n      pop\n        /* \"#utility.yul\":5620:6102   */\n      pop\n        /* \"#utility.yul\":5502:6102   */\n      swap3\n      swap2\n      pop\n      pop\n      jump\t// out\n        /* \"#utility.yul\":6108:6531   */\n    tag_24:\n        /* \"#utility.yul\":6249:6253   */\n      0x00\n        /* \"#utility.yul\":6287:6289   */\n      0x40\n        /* \"#utility.yul\":6276:6285   */\n      dup3\n        /* \"#utility.yul\":6272:6290   */\n      add\n        /* \"#utility.yul\":6264:6290   */\n      swap1\n      pop\n        /* \"#utility.yul\":6300:6371   */\n      tag_181\n        /* \"#utility.yul\":6368:6369   */\n      0x00\n        /* \"#utility.yul\":6357:6366   */\n      dup4\n        /* \"#utility.yul\":6353:6370   */\n      add\n        /* \"#utility.yul\":6344:6350   */\n      dup6\n        /* \"#utility.yul\":6300:6371   */\n      tag_130\n      jump\t// in\n    tag_181:\n        /* \"#utility.yul\":6418:6427   */\n      dup2\n        /* \"#utility.yul\":6412:6416   */\n      dup2\n        /* \"#utility.yul\":6408:6428   */\n      sub\n        /* \"#utility.yul\":6403:6405   */\n      0x20\n        /* \"#utility.yul\":6392:6401   */\n      dup4\n        /* \"#utility.yul\":6388:6406   */\n      add\n        /* \"#utility.yul\":6381:6429   */\n      mstore\n        /* \"#utility.yul\":6446:6524   */\n      tag_182\n        /* \"#utility.yul\":6519:6523   */\n      dup2\n        /* \"#utility.yul\":6510:6516   */\n      dup5\n        /* \"#utility.yul\":6446:6524   */\n      tag_170\n      jump\t// in\n    tag_182:\n        /* \"#utility.yul\":6438:6524   */\n      swap1\n      pop\n        /* \"#utility.yul\":6108:6531   */\n      swap4\n      swap3\n      pop\n      pop\n      pop\n      jump\t// out\n        /* \"#utility.yul\":6537:6946   */\n    tag_14:\n        /* \"#utility.yul\":6698:6702   */\n      0x00\n        /* \"#utility.yul\":6736:6738   */\n      0x20\n        /* \"#utility.yul\":6725:6734   */\n      dup3\n        /* \"#utility.yul\":6721:6739   */\n      add\n        /* \"#utility.yul\":6713:6739   */\n      swap1\n      pop\n        /* \"#utility.yul\":6785:6794   */\n      dup2\n        /* \"#utility.yul\":6779:6783   */\n      dup2\n        /* \"#utility.yul\":6775:6795   */\n      sub\n        /* \"#utility.yul\":6771:6772   */\n      0x00\n        /* \"#utility.yul\":6760:6769   */\n      dup4\n        /* \"#utility.yul\":6756:6773   */\n      add\n        /* \"#utility.yul\":6749:6796   */\n      mstore\n        /* \"#utility.yul\":6813:6939   */\n      tag_184\n        /* \"#utility.yul\":6934:6938   */\n      dup2\n        /* \"#utility.yul\":6925:6931   */\n      dup5\n        /* \"#utility.yul\":6813:6939   */\n      tag_133\n      jump\t// in\n    tag_184:\n        /* \"#utility.yul\":6805:6939   */\n      swap1\n      pop\n        /* \"#utility.yul\":6537:6946   */\n      swap3\n      swap2\n      pop\n      pop\n      jump\t// out\n        /* \"#utility.yul\":6952:7433   */\n    tag_18:\n        /* \"#utility.yul\":7149:7153   */\n      0x00\n        /* \"#utility.yul\":7187:7189   */\n      0x20\n        /* \"#utility.yul\":7176:7185   */\n      dup3\n        /* \"#utility.yul\":7172:7190   */\n      add\n        /* \"#utility.yul\":7164:7190   */\n      swap1\n      pop\n        /* \"#utility.yul\":7236:7245   */\n      dup2\n        /* \"#utility.yul\":7230:7234   */\n      dup2\n        /* \"#utility.yul\":7226:7246   */\n      sub\n        /* \"#utility.yul\":7222:7223   */\n      0x00\n        /* \"#utility.yul\":7211:7220   */\n      dup4\n        /* \"#utility.yul\":7207:7224   */\n      add\n        /* \"#utility.yul\":7200:7247   */\n      mstore\n        /* \"#utility.yul\":7264:7426   */\n      tag_186\n        /* \"#utility.yul\":7421:7425   */\n      dup2\n        /* \"#utility.yul\":7412:7418   */\n      dup5\n        /* \"#utility.yul\":7264:7426   */\n      tag_147\n      jump\t// in\n    tag_186:\n        /* \"#utility.yul\":7256:7426   */\n      swap1\n      pop\n        /* \"#utility.yul\":6952:7433   */\n      swap3\n      swap2\n      pop\n      pop\n      jump\t// out\n        /* \"#utility.yul\":7439:7568   */\n    tag_90:\n        /* \"#utility.yul\":7473:7479   */\n      0x00\n        /* \"#utility.yul\":7500:7520   */\n      tag_188\n      tag_189\n      jump\t// in\n    tag_188:\n        /* \"#utility.yul\":7490:7520   */\n      swap1\n      pop\n        /* \"#utility.yul\":7529:7562   */\n      tag_190\n        /* \"#utility.yul\":7557:7561   */\n      dup3\n        /* \"#utility.yul\":7549:7555   */\n      dup3\n        /* \"#utility.yul\":7529:7562   */\n      tag_191\n      jump\t// in\n    tag_190:\n        /* \"#utility.yul\":7439:7568   */\n      swap2\n      swap1\n      pop\n      jump\t// out\n        /* \"#utility.yul\":7574:7649   */\n    tag_189:\n        /* \"#utility.yul\":7607:7613   */\n      0x00\n        /* \"#utility.yul\":7640:7642   */\n      0x40\n        /* \"#utility.yul\":7634:7643   */\n      mload\n        /* \"#utility.yul\":7624:7643   */\n      swap1\n      pop\n        /* \"#utility.yul\":7574:7649   */\n      swap1\n      jump\t// out\n        /* \"#utility.yul\":7655:7963   */\n    tag_89:\n        /* \"#utility.yul\":7717:7721   */\n      0x00\n        /* \"#utility.yul\":7807:7825   */\n      0xffffffffffffffff\n        /* \"#utility.yul\":7799:7805   */\n      dup3\n        /* \"#utility.yul\":7796:7826   */\n      gt\n        /* \"#utility.yul\":7793:7849   */\n      iszero\n      tag_194\n      jumpi\n        /* \"#utility.yul\":7829:7847   */\n      tag_195\n      tag_196\n      jump\t// in\n    tag_195:\n        /* \"#utility.yul\":7793:7849   */\n    tag_194:\n        /* \"#utility.yul\":7867:7896   */\n      tag_197\n        /* \"#utility.yul\":7889:7895   */\n      dup3\n        /* \"#utility.yul\":7867:7896   */\n      tag_169\n      jump\t// in\n    tag_197:\n        /* \"#utility.yul\":7859:7896   */\n      swap1\n      pop\n        /* \"#utility.yul\":7951:7955   */\n      0x20\n        /* \"#utility.yul\":7945:7949   */\n      dup2\n        /* \"#utility.yul\":7941:7956   */\n      add\n        /* \"#utility.yul\":7933:7956   */\n      swap1\n      pop\n        /* \"#utility.yul\":7655:7963   */\n      swap2\n      swap1\n      pop\n      jump\t// out\n        /* \"#utility.yul\":7969:8078   */\n    tag_140:\n        /* \"#utility.yul\":8045:8049   */\n      0x00\n        /* \"#utility.yul\":8068:8071   */\n      dup2\n        /* \"#utility.yul\":8060:8071   */\n      swap1\n      pop\n        /* \"#utility.yul\":7969:8078   */\n      swap2\n      swap1\n      pop\n      jump\t// out\n        /* \"#utility.yul\":8084:8243   */\n    tag_154:\n        /* \"#utility.yul\":8178:8182   */\n      0x00\n        /* \"#utility.yul\":8201:8204   */\n      dup2\n        /* \"#utility.yul\":8193:8204   */\n      swap1\n      pop\n        /* \"#utility.yul\":8231:8235   */\n      0x20\n        /* \"#utility.yul\":8226:8229   */\n      dup3\n        /* \"#utility.yul\":8222:8236   */\n      add\n        /* \"#utility.yul\":8214:8236   */\n      swap1\n      pop\n        /* \"#utility.yul\":8084:8243   */\n      swap2\n      swap1\n      pop\n      jump\t// out\n        /* \"#utility.yul\":8249:8364   */\n    tag_136:\n        /* \"#utility.yul\":8325:8331   */\n      0x00\n        /* \"#utility.yul\":8353:8357   */\n      0x0a\n        /* \"#utility.yul\":8343:8357   */\n      swap1\n      pop\n        /* \"#utility.yul\":8249:8364   */\n      swap2\n      swap1\n      pop\n      jump\t// out\n        /* \"#utility.yul\":8370:8511   */\n    tag_150:\n        /* \"#utility.yul\":8464:8470   */\n      0x00\n        /* \"#utility.yul\":8498:8503   */\n      dup2\n        /* \"#utility.yul\":8492:8504   */\n      mload\n        /* \"#utility.yul\":8482:8504   */\n      swap1\n      pop\n        /* \"#utility.yul\":8370:8511   */\n      swap2\n      swap1\n      pop\n      jump\t// out\n        /* \"#utility.yul\":8517:8616   */\n    tag_163:\n        /* \"#utility.yul\":8569:8575   */\n      0x00\n        /* \"#utility.yul\":8603:8608   */\n      dup2\n        /* \"#utility.yul\":8597:8609   */\n      mload\n        /* \"#utility.yul\":8587:8609   */\n      swap1\n      pop\n        /* \"#utility.yul\":8517:8616   */\n      swap2\n      swap1\n      pop\n      jump\t// out\n        /* \"#utility.yul\":8622:8744   */\n    tag_146:\n        /* \"#utility.yul\":8701:8705   */\n      0x00\n        /* \"#utility.yul\":8733:8737   */\n      0x20\n        /* \"#utility.yul\":8728:8731   */\n      dup3\n        /* \"#utility.yul\":8724:8738   */\n      add\n        /* \"#utility.yul\":8716:8738   */\n      swap1\n      pop\n        /* \"#utility.yul\":8622:8744   */\n      swap2\n      swap1\n      pop\n      jump\t// out\n        /* \"#utility.yul\":8750:8890   */\n    tag_160:\n        /* \"#utility.yul\":8847:8851   */\n      0x00\n        /* \"#utility.yul\":8879:8883   */\n      0x20\n        /* \"#utility.yul\":8874:8877   */\n      dup3\n        /* \"#utility.yul\":8870:8884   */\n      add\n        /* \"#utility.yul\":8862:8884   */\n      swap1\n      pop\n        /* \"#utility.yul\":8750:8890   */\n      swap2\n      swap1\n      pop\n      jump\t// out\n        /* \"#utility.yul\":8896:9050   */\n    tag_138:\n        /* \"#utility.yul\":9004:9015   */\n      0x00\n        /* \"#utility.yul\":9041:9044   */\n      dup2\n        /* \"#utility.yul\":9026:9044   */\n      swap1\n      pop\n        /* \"#utility.yul\":8896:9050   */\n      swap3\n      swap2\n      pop\n      pop\n      jump\t// out\n        /* \"#utility.yul\":9056:9267   */\n    tag_152:\n        /* \"#utility.yul\":9182:9193   */\n      0x00\n        /* \"#utility.yul\":9216:9222   */\n      dup3\n        /* \"#utility.yul\":9211:9214   */\n      dup3\n        /* \"#utility.yul\":9204:9223   */\n      mstore\n        /* \"#utility.yul\":9256:9260   */\n      0x20\n        /* \"#utility.yul\":9251:9254   */\n      dup3\n        /* \"#utility.yul\":9247:9261   */\n      add\n        /* \"#utility.yul\":9232:9261   */\n      swap1\n      pop\n        /* \"#utility.yul\":9056:9267   */\n      swap3\n      swap2\n      pop\n      pop\n      jump\t// out\n        /* \"#utility.yul\":9273:9432   */\n    tag_165:\n        /* \"#utility.yul\":9347:9358   */\n      0x00\n        /* \"#utility.yul\":9381:9387   */\n      dup3\n        /* \"#utility.yul\":9376:9379   */\n      dup3\n        /* \"#utility.yul\":9369:9388   */\n      mstore\n        /* \"#utility.yul\":9421:9425   */\n      0x20\n        /* \"#utility.yul\":9416:9419   */\n      dup3\n        /* \"#utility.yul\":9412:9426   */\n      add\n        /* \"#utility.yul\":9397:9426   */\n      swap1\n      pop\n        /* \"#utility.yul\":9273:9432   */\n      swap3\n      swap2\n      pop\n      pop\n      jump\t// out\n        /* \"#utility.yul\":9438:9607   */\n    tag_174:\n        /* \"#utility.yul\":9522:9533   */\n      0x00\n        /* \"#utility.yul\":9556:9562   */\n      dup3\n        /* \"#utility.yul\":9551:9554   */\n      dup3\n        /* \"#utility.yul\":9544:9563   */\n      mstore\n        /* \"#utility.yul\":9596:9600   */\n      0x20\n        /* \"#utility.yul\":9591:9594   */\n      dup3\n        /* \"#utility.yul\":9587:9601   */\n      add\n        /* \"#utility.yul\":9572:9601   */\n      swap1\n      pop\n        /* \"#utility.yul\":9438:9607   */\n      swap3\n      swap2\n      pop\n      pop\n      jump\t// out\n        /* \"#utility.yul\":9613:9709   */\n    tag_129:\n        /* \"#utility.yul\":9650:9657   */\n      0x00\n        /* \"#utility.yul\":9679:9703   */\n      tag_210\n        /* \"#utility.yul\":9697:9702   */\n      dup3\n        /* \"#utility.yul\":9679:9703   */\n      tag_211\n      jump\t// in\n    tag_210:\n        /* \"#utility.yul\":9668:9703   */\n      swap1\n      pop\n        /* \"#utility.yul\":9613:9709   */\n      swap2\n      swap1\n      pop\n      jump\t// out\n        /* \"#utility.yul\":9715:9841   */\n    tag_211:\n        /* \"#utility.yul\":9752:9759   */\n      0x00\n        /* \"#utility.yul\":9792:9834   */\n      0xffffffffffffffffffffffffffffffffffffffff\n        /* \"#utility.yul\":9785:9790   */\n      dup3\n        /* \"#utility.yul\":9781:9835   */\n      and\n        /* \"#utility.yul\":9770:9835   */\n      swap1\n      pop\n        /* \"#utility.yul\":9715:9841   */\n      swap2\n      swap1\n      pop\n      jump\t// out\n        /* \"#utility.yul\":9847:9924   */\n    tag_213:\n        /* \"#utility.yul\":9884:9891   */\n      0x00\n        /* \"#utility.yul\":9913:9918   */\n      dup2\n        /* \"#utility.yul\":9902:9918   */\n      swap1\n      pop\n        /* \"#utility.yul\":9847:9924   */\n      swap2\n      swap1\n      pop\n      jump\t// out\n        /* \"#utility.yul\":9930:10084   */\n    tag_95:\n        /* \"#utility.yul\":10014:10020   */\n      dup3\n        /* \"#utility.yul\":10009:10012   */\n      dup2\n        /* \"#utility.yul\":10004:10007   */\n      dup4\n        /* \"#utility.yul\":9991:10021   */\n      calldatacopy\n        /* \"#utility.yul\":10076:10077   */\n      0x00\n        /* \"#utility.yul\":10067:10073   */\n      dup4\n        /* \"#utility.yul\":10062:10065   */\n      dup4\n        /* \"#utility.yul\":10058:10074   */\n      add\n        /* \"#utility.yul\":10051:10078   */\n      mstore\n        /* \"#utility.yul\":9930:10084   */\n      pop\n      pop\n      pop\n      jump\t// out\n        /* \"#utility.yul\":10090:10397   */\n    tag_167:\n        /* \"#utility.yul\":10158:10159   */\n      0x00\n        /* \"#utility.yul\":10168:10281   */\n    tag_217:\n        /* \"#utility.yul\":10182:10188   */\n      dup4\n        /* \"#utility.yul\":10179:10180   */\n      dup2\n        /* \"#utility.yul\":10176:10189   */\n      lt\n        /* \"#utility.yul\":10168:10281   */\n      iszero\n      tag_219\n      jumpi\n        /* \"#utility.yul\":10267:10268   */\n      dup1\n        /* \"#utility.yul\":10262:10265   */\n      dup3\n        /* \"#utility.yul\":10258:10269   */\n      add\n        /* \"#utility.yul\":10252:10270   */\n      mload\n        /* \"#utility.yul\":10248:10249   */\n      dup2\n        /* \"#utility.yul\":10243:10246   */\n      dup5\n        /* \"#utility.yul\":10239:10250   */\n      add\n        /* \"#utility.yul\":10232:10271   */\n      mstore\n        /* \"#utility.yul\":10204:10206   */\n      0x20\n        /* \"#utility.yul\":10201:10202   */\n      dup2\n        /* \"#utility.yul\":10197:10207   */\n      add\n        /* \"#utility.yul\":10192:10207   */\n      swap1\n      pop\n        /* \"#utility.yul\":10168:10281   */\n      jump(tag_217)\n    tag_219:\n        /* \"#utility.yul\":10299:10305   */\n      dup4\n        /* \"#utility.yul\":10296:10297   */\n      dup2\n        /* \"#utility.yul\":10293:10306   */\n      gt\n        /* \"#utility.yul\":10290:10391   */\n      iszero\n      tag_220\n      jumpi\n        /* \"#utility.yul\":10379:10380   */\n      0x00\n        /* \"#utility.yul\":10370:10376   */\n      dup5\n        /* \"#utility.yul\":10365:10368   */\n      dup5\n        /* \"#utility.yul\":10361:10377   */\n      add\n        /* \"#utility.yul\":10354:10381   */\n      mstore\n        /* \"#utility.yul\":10290:10391   */\n    tag_220:\n        /* \"#utility.yul\":10139:10397   */\n      pop\n        /* \"#utility.yul\":10090:10397   */\n      pop\n      pop\n      pop\n      jump\t// out\n        /* \"#utility.yul\":10403:10723   */\n    tag_47:\n        /* \"#utility.yul\":10447:10453   */\n      0x00\n        /* \"#utility.yul\":10484:10485   */\n      0x02\n        /* \"#utility.yul\":10478:10482   */\n      dup3\n        /* \"#utility.yul\":10474:10486   */\n      div\n        /* \"#utility.yul\":10464:10486   */\n      swap1\n      pop\n        /* \"#utility.yul\":10531:10532   */\n      0x01\n        /* \"#utility.yul\":10525:10529   */\n      dup3\n        /* \"#utility.yul\":10521:10533   */\n      and\n        /* \"#utility.yul\":10552:10570   */\n      dup1\n        /* \"#utility.yul\":10542:10623   */\n      tag_222\n      jumpi\n        /* \"#utility.yul\":10608:10612   */\n      0x7f\n        /* \"#utility.yul\":10600:10606   */\n      dup3\n        /* \"#utility.yul\":10596:10613   */\n      and\n        /* \"#utility.yul\":10586:10613   */\n      swap2\n      pop\n        /* \"#utility.yul\":10542:10623   */\n    tag_222:\n        /* \"#utility.yul\":10670:10672   */\n      0x20\n        /* \"#utility.yul\":10662:10668   */\n      dup3\n        /* \"#utility.yul\":10659:10673   */\n      lt\n        /* \"#utility.yul\":10639:10657   */\n      dup2\n        /* \"#utility.yul\":10636:10674   */\n      eq\n        /* \"#utility.yul\":10633:10717   */\n      iszero\n      tag_223\n      jumpi\n        /* \"#utility.yul\":10689:10707   */\n      tag_224\n      tag_225\n      jump\t// in\n    tag_224:\n        /* \"#utility.yul\":10633:10717   */\n    tag_223:\n        /* \"#utility.yul\":10454:10723   */\n      pop\n        /* \"#utility.yul\":10403:10723   */\n      swap2\n      swap1\n      pop\n      jump\t// out\n        /* \"#utility.yul\":10729:11010   */\n    tag_191:\n        /* \"#utility.yul\":10812:10839   */\n      tag_227\n        /* \"#utility.yul\":10834:10838   */\n      dup3\n        /* \"#utility.yul\":10812:10839   */\n      tag_169\n      jump\t// in\n    tag_227:\n        /* \"#utility.yul\":10804:10810   */\n      dup2\n        /* \"#utility.yul\":10800:10840   */\n      add\n        /* \"#utility.yul\":10942:10948   */\n      dup2\n        /* \"#utility.yul\":10930:10940   */\n      dup2\n        /* \"#utility.yul\":10927:10949   */\n      lt\n        /* \"#utility.yul\":10906:10924   */\n      0xffffffffffffffff\n        /* \"#utility.yul\":10894:10904   */\n      dup3\n        /* \"#utility.yul\":10891:10925   */\n      gt\n        /* \"#utility.yul\":10888:10950   */\n      or\n        /* \"#utility.yul\":10885:10973   */\n      iszero\n      tag_228\n      jumpi\n        /* \"#utility.yul\":10953:10971   */\n      tag_229\n      tag_196\n      jump\t// in\n    tag_229:\n        /* \"#utility.yul\":10885:10973   */\n    tag_228:\n        /* \"#utility.yul\":10993:11003   */\n      dup1\n        /* \"#utility.yul\":10989:10991   */\n      0x40\n        /* \"#utility.yul\":10982:11004   */\n      mstore\n        /* \"#utility.yul\":10772:11010   */\n      pop\n        /* \"#utility.yul\":10729:11010   */\n      pop\n      pop\n      jump\t// out\n        /* \"#utility.yul\":11016:11249   */\n    tag_55:\n        /* \"#utility.yul\":11055:11058   */\n      0x00\n        /* \"#utility.yul\":11078:11102   */\n      tag_231\n        /* \"#utility.yul\":11096:11101   */\n      dup3\n        /* \"#utility.yul\":11078:11102   */\n      tag_213\n      jump\t// in\n    tag_231:\n        /* \"#utility.yul\":11069:11102   */\n      swap2\n      pop\n        /* \"#utility.yul\":11124:11190   */\n      0xffffffffffffffffffffffffffffffffffffffffffffffffffffffffffffffff\n        /* \"#utility.yul\":11117:11122   */\n      dup3\n        /* \"#utility.yul\":11114:11191   */\n      eq\n        /* \"#utility.yul\":11111:11214   */\n      iszero\n      tag_232\n      jumpi\n        /* \"#utility.yul\":11194:11212   */\n      tag_233\n      tag_234\n      jump\t// in\n    tag_233:\n        /* \"#utility.yul\":11111:11214   */\n    tag_232:\n        /* \"#utility.yul\":11241:11242   */\n      0x01\n        /* \"#utility.yul\":11234:11239   */\n      dup3\n        /* \"#utility.yul\":11230:11243   */\n      add\n        /* \"#utility.yul\":11223:11243   */\n      swap1\n      pop\n        /* \"#utility.yul\":11016:11249   */\n      swap2\n      swap1\n      pop\n      jump\t// out\n        /* \"#utility.yul\":11255:11435   */\n    tag_234:\n        /* \"#utility.yul\":11303:11380   */\n      0x4e487b7100000000000000000000000000000000000000000000000000000000\n        /* \"#utility.yul\":11300:11301   */\n      0x00\n        /* \"#utility.yul\":11293:11381   */\n      mstore\n        /* \"#utility.yul\":11400:11404   */\n      0x11\n        /* \"#utility.yul\":11397:11398   */\n      0x04\n        /* \"#utility.yul\":11390:11405   */\n      mstore\n        /* \"#utility.yul\":11424:11428   */\n      0x24\n        /* \"#utility.yul\":11421:11422   */\n      0x00\n        /* \"#utility.yul\":11414:11429   */\n      revert\n        /* \"#utility.yul\":11441:11621   */\n    tag_225:\n        /* \"#utility.yul\":11489:11566   */\n      0x4e487b7100000000000000000000000000000000000000000000000000000000\n        /* \"#utility.yul\":11486:11487   */\n      0x00\n        /* \"#utility.yul\":11479:11567   */\n      mstore\n        /* \"#utility.yul\":11586:11590   */\n      0x22\n        /* \"#utility.yul\":11583:11584   */\n      0x04\n        /* \"#utility.yul\":11576:11591   */\n      mstore\n        /* \"#utility.yul\":11610:11614   */\n      0x24\n        /* \"#utility.yul\":11607:11608   */\n      0x00\n        /* \"#utility.yul\":11600:11615   */\n      revert\n        /* \"#utility.yul\":11627:11807   */\n    tag_40:\n        /* \"#utility.yul\":11675:11752   */\n      0x4e487b7100000000000000000000000000000000000000000000000000000000\n        /* \"#utility.yul\":11672:11673   */\n      0x00\n        /* \"#utility.yul\":11665:11753   */\n      mstore\n        /* \"#utility.yul\":11772:11776   */\n      0x32\n        /* \"#utility.yul\":11769:11770   */\n      0x04\n        /* \"#utility.yul\":11762:11777   */\n      mstore\n        /* \"#utility.yul\":11796:11800   */\n      0x24\n        /* \"#utility.yul\":11793:11794   */\n      0x00\n        /* \"#utility.yul\":11786:11801   */\n      revert\n        /* \"#utility.yul\":11813:11993   */\n    tag_196:\n        /* \"#utility.yul\":11861:11938   */\n      0x4e487b7100000000000000000000000000000000000000000000000000000000\n        /* \"#utility.yul\":11858:11859   */\n      0x00\n        /* \"#utility.yul\":11851:11939   */\n      mstore\n        /* \"#utility.yul\":11958:11962   */\n      0x41\n        /* \"#utility.yul\":11955:11956   */\n      0x04\n        /* \"#utility.yul\":11948:11963   */\n      mstore\n        /* \"#utility.yul\":11982:11986   */\n      0x24\n        /* \"#utility.yul\":11979:11980   */\n      0x00\n        /* \"#utility.yul\":11972:11987   */\n      revert\n        /* \"#utility.yul\":11999:12116   */\n    tag_100:\n        /* \"#utility.yul\":12108:12109   */\n      0x00\n        /* \"#utility.yul\":12105:12106   */\n      dup1\n        /* \"#utility.yul\":12098:12110   */\n      revert\n        /* \"#utility.yul\":12122:12239   */\n    tag_93:\n        /* \"#utility.yul\":12231:12232   */\n      0x00\n        /* \"#utility.yul\":12228:12229   */\n      dup1\n        /* \"#utility.yul\":12221:12233   */\n      revert\n        /* \"#utility.yul\":12245:12362   */\n    tag_112:\n        /* \"#utility.yul\":12354:12355   */\n      0x00\n        /* \"#utility.yul\":12351:12352   */\n      dup1\n        /* \"#utility.yul\":12344:12356   */\n      revert\n        /* \"#utility.yul\":12368:12485   */\n    tag_109:\n        /* \"#utility.yul\":12477:12478   */\n      0x00\n        /* \"#utility.yul\":12474:12475   */\n      dup1\n        /* \"#utility.yul\":12467:12479   */\n      revert\n        /* \"#utility.yul\":12491:12593   */\n    tag_169:\n        /* \"#utility.yul\":12532:12538   */\n      0x00\n        /* \"#utility.yul\":12583:12585   */\n      0x1f\n        /* \"#utility.yul\":12579:12586   */\n      not\n        /* \"#utility.yul\":12574:12576   */\n      0x1f\n        /* \"#utility.yul\":12567:12572   */\n      dup4\n        /* \"#utility.yul\":12563:12577   */\n      add\n        /* \"#utility.yul\":12559:12587   */\n      and\n        /* \"#utility.yul\":12549:12587   */\n      swap1\n      pop\n        /* \"#utility.yul\":12491:12593   */\n      swap2\n      swap1\n      pop\n      jump\t// out\n        /* \"#utility.yul\":12599:12721   */\n    tag_105:\n        /* \"#utility.yul\":12672:12696   */\n      tag_245\n        /* \"#utility.yul\":12690:12695   */\n      dup2\n        /* \"#utility.yul\":12672:12696   */\n      tag_213\n      jump\t// in\n    tag_245:\n        /* \"#utility.yul\":12665:12670   */\n      dup2\n        /* \"#utility.yul\":12662:12697   */\n      eq\n        /* \"#utility.yul\":12652:12715   */\n      tag_246\n      jumpi\n        /* \"#utility.yul\":12711:12712   */\n      0x00\n        /* \"#utility.yul\":12708:12709   */\n      dup1\n        /* \"#utility.yul\":12701:12713   */\n      revert\n        /* \"#utility.yul\":12652:12715   */\n    tag_246:\n        /* \"#utility.yul\":12599:12721   */\n      pop\n      jump\t// out\n\n    auxdata: 0xa2646970667358221220886fb2e9269f3ce57ab7fdde42c7836ca0f7ac16beb6dd164842bd513fbb34c464736f6c63430008070033\n}\n",
				"bytecode": {
					"linkReferences": {},
					"object": "608060405234801561001057600080fd5b50610cf4806100206000396000f3fe608060405234801561001057600080fd5b506004361061004c5760003560e01c80634f3d057a146100515780636d4ce63c1461006d578063880a3c861461008b578063b1429303146100a9575b600080fd5b61006b600480360381019061006691906106ea565b6100da565b005b6100756101b9565b604051610082919061096f565b60405180910390f35b610093610347565b6040516100a09190610991565b60405180910390f35b6100c360048036038101906100be9190610733565b61048e565b6040516100d192919061093f565b60405180910390f35b6100e261056a565b33816000019073ffffffffffffffffffffffffffffffffffffffff16908173ffffffffffffffffffffffffffffffffffffffff1681525050818160200181905250600081908060018154018082558091505060019003906000526020600020906002020160009091909190915060008201518160000160006101000a81548173ffffffffffffffffffffffffffffffffffffffff021916908373ffffffffffffffffffffffffffffffffffffffff16021790555060208201518160010190805190602001906101b292919061059a565b5050505050565b6101c1610620565b6101c9610620565b6000805b60008054905081101561033e573373ffffffffffffffffffffffffffffffffffffffff166000828154811061020557610204610c24565b5b906000526020600020906002020160000160009054906101000a900473ffffffffffffffffffffffffffffffffffffffff1673ffffffffffffffffffffffffffffffffffffffff16141561032b576000818154811061026757610266610c24565b5b9060005260206000209060020201600101805461028390610b1a565b80601f01602080910402602001604051908101604052809291908181526020018280546102af90610b1a565b80156102fc5780601f106102d1576101008083540402835291602001916102fc565b820191906000526020600020905b8154815290600101906020018083116102df57829003601f168201915b50505050508383600a811061031457610313610c24565b5b6020020181905250818061032790610b7d565b9250505b808061033690610b7d565b9150506101cd565b50819250505090565b60606000805480602002602001604051908101604052809291908181526020016000905b8282101561048557838290600052602060002090600202016040518060400160405290816000820160009054906101000a900473ffffffffffffffffffffffffffffffffffffffff1673ffffffffffffffffffffffffffffffffffffffff1673ffffffffffffffffffffffffffffffffffffffff1681526020016001820180546103f490610b1a565b80601f016020809104026020016040519081016040528092919081815260200182805461042090610b1a565b801561046d5780601f106104425761010080835404028352916020019161046d565b820191906000526020600020905b81548152906001019060200180831161045057829003601f168201915b5050505050815250508152602001906001019061036b565b50505050905090565b6000818154811061049e57600080fd5b90600052602060002090600202016000915090508060000160009054906101000a900473ffffffffffffffffffffffffffffffffffffffff16908060010180546104e790610b1a565b80601f016020809104026020016040519081016040528092919081815260200182805461051390610b1a565b80156105605780601f1061053557610100808354040283529160200191610560565b820191906000526020600020905b81548152906001019060200180831161054357829003601f168201915b5050505050905082565b6040518060400160405280600073ffffffffffffffffffffffffffffffffffffffff168152602001606081525090565b8280546105a690610b1a565b90600052602060002090601f0160209004810192826105c8576000855561060f565b82601f106105e157805160ff191683800117855561060f565b8280016001018555821561060f579182015b8281111561060e5782518255916020019190600101906105f3565b5b50905061061c9190610648565b5090565b604051806101400160405280600a905b60608152602001906001900390816106305790505090565b5b80821115610661576000816000905550600101610649565b5090565b6000610678610673846109d8565b6109b3565b90508281526020810184848401111561069457610693610c87565b5b61069f848285610ad8565b509392505050565b600082601f8301126106bc576106bb610c82565b5b81356106cc848260208601610665565b91505092915050565b6000813590506106e481610ca7565b92915050565b600060208284031215610700576106ff610c91565b5b600082013567ffffffffffffffff81111561071e5761071d610c8c565b5b61072a848285016106a7565b91505092915050565b60006020828403121561074957610748610c91565b5b6000610757848285016106d5565b91505092915050565b600061076c8383610890565b905092915050565b60006107808383610902565b905092915050565b61079181610a9c565b82525050565b6107a081610a9c565b82525050565b60006107b182610a23565b6107bb8185610a5e565b9350836020820285016107cd85610a09565b8060005b8581101561080957848403895281516107ea8582610760565b94506107f583610a44565b925060208a019950506001810190506107d1565b50829750879550505050505092915050565b600061082682610a2e565b6108308185610a69565b93508360208202850161084285610a13565b8060005b8581101561087e578484038952815161085f8582610774565b945061086a83610a51565b925060208a01995050600181019050610846565b50829750879550505050505092915050565b600061089b82610a39565b6108a58185610a7a565b93506108b5818560208601610ae7565b6108be81610c96565b840191505092915050565b60006108d482610a39565b6108de8185610a8b565b93506108ee818560208601610ae7565b6108f781610c96565b840191505092915050565b600060408301600083015161091a6000860182610788565b50602083015184820360208601526109328282610890565b9150508091505092915050565b60006040820190506109546000830185610797565b818103602083015261096681846108c9565b90509392505050565b6000602082019050818103600083015261098981846107a6565b905092915050565b600060208201905081810360008301526109ab818461081b565b905092915050565b60006109bd6109ce565b90506109c98282610b4c565b919050565b6000604051905090565b600067ffffffffffffffff8211156109f3576109f2610c53565b5b6109fc82610c96565b9050602081019050919050565b6000819050919050565b6000819050602082019050919050565b6000600a9050919050565b600081519050919050565b600081519050919050565b6000602082019050919050565b6000602082019050919050565b600081905092915050565b600082825260208201905092915050565b600082825260208201905092915050565b600082825260208201905092915050565b6000610aa782610aae565b9050919050565b600073ffffffffffffffffffffffffffffffffffffffff82169050919050565b6000819050919050565b82818337600083830152505050565b60005b83811015610b05578082015181840152602081019050610aea565b83811115610b14576000848401525b50505050565b60006002820490506001821680610b3257607f821691505b60208210811415610b4657610b45610bf5565b5b50919050565b610b5582610c96565b810181811067ffffffffffffffff82111715610b7457610b73610c53565b5b80604052505050565b6000610b8882610ace565b91507fffffffffffffffffffffffffffffffffffffffffffffffffffffffffffffffff821415610bbb57610bba610bc6565b5b600182019050919050565b7f4e487b7100000000000000000000000000000000000000000000000000000000600052601160045260246000fd5b7f4e487b7100000000000000000000000000000000000000000000000000000000600052602260045260246000fd5b7f4e487b7100000000000000000000000000000000000000000000000000000000600052603260045260246000fd5b7f4e487b7100000000000000000000000000000000000000000000000000000000600052604160045260246000fd5b600080fd5b600080fd5b600080fd5b600080fd5b6000601f19601f8301169050919050565b610cb081610ace565b8114610cbb57600080fd5b5056fea2646970667358221220886fb2e9269f3ce57ab7fdde42c7836ca0f7ac16beb6dd164842bd513fbb34c464736f6c63430008070033",
					"opcodes": "PUSH1 0x80 PUSH1 0x40 MSTORE CALLVALUE DUP1 ISZERO PUSH2 0x10 JUMPI PUSH1 0x0 DUP1 REVERT JUMPDEST POP PUSH2 0xCF4 DUP1 PUSH2 0x20 PUSH1 0x0 CODECOPY PUSH1 0x0 RETURN INVALID PUSH1 0x80 PUSH1 0x40 MSTORE CALLVALUE DUP1 ISZERO PUSH2 0x10 JUMPI PUSH1 0x0 DUP1 REVERT JUMPDEST POP PUSH1 0x4 CALLDATASIZE LT PUSH2 0x4C JUMPI PUSH1 0x0 CALLDATALOAD PUSH1 0xE0 SHR DUP1 PUSH4 0x4F3D057A EQ PUSH2 0x51 JUMPI DUP1 PUSH4 0x6D4CE63C EQ PUSH2 0x6D JUMPI DUP1 PUSH4 0x880A3C86 EQ PUSH2 0x8B JUMPI DUP1 PUSH4 0xB1429303 EQ PUSH2 0xA9 JUMPI JUMPDEST PUSH1 0x0 DUP1 REVERT JUMPDEST PUSH2 0x6B PUSH1 0x4 DUP1 CALLDATASIZE SUB DUP2 ADD SWAP1 PUSH2 0x66 SWAP2 SWAP1 PUSH2 0x6EA JUMP JUMPDEST PUSH2 0xDA JUMP JUMPDEST STOP JUMPDEST PUSH2 0x75 PUSH2 0x1B9 JUMP JUMPDEST PUSH1 0x40 MLOAD PUSH2 0x82 SWAP2 SWAP1 PUSH2 0x96F JUMP JUMPDEST PUSH1 0x40 MLOAD DUP1 SWAP2 SUB SWAP1 RETURN JUMPDEST PUSH2 0x93 PUSH2 0x347 JUMP JUMPDEST PUSH1 0x40 MLOAD PUSH2 0xA0 SWAP2 SWAP1 PUSH2 0x991 JUMP JUMPDEST PUSH1 0x40 MLOAD DUP1 SWAP2 SUB SWAP1 RETURN JUMPDEST PUSH2 0xC3 PUSH1 0x4 DUP1 CALLDATASIZE SUB DUP2 ADD SWAP1 PUSH2 0xBE SWAP2 SWAP1 PUSH2 0x733 JUMP JUMPDEST PUSH2 0x48E JUMP JUMPDEST PUSH1 0x40 MLOAD PUSH2 0xD1 SWAP3 SWAP2 SWAP1 PUSH2 0x93F JUMP JUMPDEST PUSH1 0x40 MLOAD DUP1 SWAP2 SUB SWAP1 RETURN JUMPDEST PUSH2 0xE2 PUSH2 0x56A JUMP JUMPDEST CALLER DUP2 PUSH1 0x0 ADD SWAP1 PUSH20 0xFFFFFFFFFFFFFFFFFFFFFFFFFFFFFFFFFFFFFFFF AND SWAP1 DUP2 PUSH20 0xFFFFFFFFFFFFFFFFFFFFFFFFFFFFFFFFFFFFFFFF AND DUP2 MSTORE POP POP DUP2 DUP2 PUSH1 0x20 ADD DUP2 SWAP1 MSTORE POP PUSH1 0x0 DUP2 SWAP1 DUP1 PUSH1 0x1 DUP2 SLOAD ADD DUP1 DUP3 SSTORE DUP1 SWAP2 POP POP PUSH1 0x1 SWAP1 SUB SWAP1 PUSH1 0x0 MSTORE PUSH1 0x20 PUSH1 0x0 KECCAK256 SWAP1 PUSH1 0x2 MUL ADD PUSH1 0x0 SWAP1 SWAP2 SWAP1 SWAP2 SWAP1 SWAP2 POP PUSH1 0x0 DUP3 ADD MLOAD DUP2 PUSH1 0x0 ADD PUSH1 0x0 PUSH2 0x100 EXP DUP2 SLOAD DUP2 PUSH20 0xFFFFFFFFFFFFFFFFFFFFFFFFFFFFFFFFFFFFFFFF MUL NOT AND SWAP1 DUP4 PUSH20 0xFFFFFFFFFFFFFFFFFFFFFFFFFFFFFFFFFFFFFFFF AND MUL OR SWAP1 SSTORE POP PUSH1 0x20 DUP3 ADD MLOAD DUP2 PUSH1 0x1 ADD SWAP1 DUP1 MLOAD SWAP1 PUSH1 0x20 ADD SWAP1 PUSH2 0x1B2 SWAP3 SWAP2 SWAP1 PUSH2 0x59A JUMP JUMPDEST POP POP POP POP POP JUMP JUMPDEST PUSH2 0x1C1 PUSH2 0x620 JUMP JUMPDEST PUSH2 0x1C9 PUSH2 0x620 JUMP JUMPDEST PUSH1 0x0 DUP1 JUMPDEST PUSH1 0x0 DUP1 SLOAD SWAP1 POP DUP2 LT ISZERO PUSH2 0x33E JUMPI CALLER PUSH20 0xFFFFFFFFFFFFFFFFFFFFFFFFFFFFFFFFFFFFFFFF AND PUSH1 0x0 DUP3 DUP2 SLOAD DUP2 LT PUSH2 0x205 JUMPI PUSH2 0x204 PUSH2 0xC24 JUMP JUMPDEST JUMPDEST SWAP1 PUSH1 0x0 MSTORE PUSH1 0x20 PUSH1 0x0 KECCAK256 SWAP1 PUSH1 0x2 MUL ADD PUSH1 0x0 ADD PUSH1 0x0 SWAP1 SLOAD SWAP1 PUSH2 0x100 EXP SWAP1 DIV PUSH20 0xFFFFFFFFFFFFFFFFFFFFFFFFFFFFFFFFFFFFFFFF AND PUSH20 0xFFFFFFFFFFFFFFFFFFFFFFFFFFFFFFFFFFFFFFFF AND EQ ISZERO PUSH2 0x32B JUMPI PUSH1 0x0 DUP2 DUP2 SLOAD DUP2 LT PUSH2 0x267 JUMPI PUSH2 0x266 PUSH2 0xC24 JUMP JUMPDEST JUMPDEST SWAP1 PUSH1 0x0 MSTORE PUSH1 0x20 PUSH1 0x0 KECCAK256 SWAP1 PUSH1 0x2 MUL ADD PUSH1 0x1 ADD DUP1 SLOAD PUSH2 0x283 SWAP1 PUSH2 0xB1A JUMP JUMPDEST DUP1 PUSH1 0x1F ADD PUSH1 0x20 DUP1 SWAP2 DIV MUL PUSH1 0x20 ADD PUSH1 0x40 MLOAD SWAP1 DUP2 ADD PUSH1 0x40 MSTORE DUP1 SWAP3 SWAP2 SWAP1 DUP2 DUP2 MSTORE PUSH1 0x20 ADD DUP3 DUP1 SLOAD PUSH2 0x2AF SWAP1 PUSH2 0xB1A JUMP JUMPDEST DUP1 ISZERO PUSH2 0x2FC JUMPI DUP1 PUSH1 0x1F LT PUSH2 0x2D1 JUMPI PUSH2 0x100 DUP1 DUP4 SLOAD DIV MUL DUP4 MSTORE SWAP2 PUSH1 0x20 ADD SWAP2 PUSH2 0x2FC JUMP JUMPDEST DUP3 ADD SWAP2 SWAP1 PUSH1 0x0 MSTORE PUSH1 0x20 PUSH1 0x0 KECCAK256 SWAP1 JUMPDEST DUP2 SLOAD DUP2 MSTORE SWAP1 PUSH1 0x1 ADD SWAP1 PUSH1 0x20 ADD DUP1 DUP4 GT PUSH2 0x2DF JUMPI DUP3 SWAP1 SUB PUSH1 0x1F AND DUP3 ADD SWAP2 JUMPDEST POP POP POP POP POP DUP4 DUP4 PUSH1 0xA DUP2 LT PUSH2 0x314 JUMPI PUSH2 0x313 PUSH2 0xC24 JUMP JUMPDEST JUMPDEST PUSH1 0x20 MUL ADD DUP2 SWAP1 MSTORE POP DUP2 DUP1 PUSH2 0x327 SWAP1 PUSH2 0xB7D JUMP JUMPDEST SWAP3 POP POP JUMPDEST DUP1 DUP1 PUSH2 0x336 SWAP1 PUSH2 0xB7D JUMP JUMPDEST SWAP2 POP POP PUSH2 0x1CD JUMP JUMPDEST POP DUP2 SWAP3 POP POP POP SWAP1 JUMP JUMPDEST PUSH1 0x60 PUSH1 0x0 DUP1 SLOAD DUP1 PUSH1 0x20 MUL PUSH1 0x20 ADD PUSH1 0x40 MLOAD SWAP1 DUP2 ADD PUSH1 0x40 MSTORE DUP1 SWAP3 SWAP2 SWAP1 DUP2 DUP2 MSTORE PUSH1 0x20 ADD PUSH1 0x0 SWAP1 JUMPDEST DUP3 DUP3 LT ISZERO PUSH2 0x485 JUMPI DUP4 DUP3 SWAP1 PUSH1 0x0 MSTORE PUSH1 0x20 PUSH1 0x0 KECCAK256 SWAP1 PUSH1 0x2 MUL ADD PUSH1 0x40 MLOAD DUP1 PUSH1 0x40 ADD PUSH1 0x40 MSTORE SWAP1 DUP2 PUSH1 0x0 DUP3 ADD PUSH1 0x0 SWAP1 SLOAD SWAP1 PUSH2 0x100 EXP SWAP1 DIV PUSH20 0xFFFFFFFFFFFFFFFFFFFFFFFFFFFFFFFFFFFFFFFF AND PUSH20 0xFFFFFFFFFFFFFFFFFFFFFFFFFFFFFFFFFFFFFFFF AND PUSH20 0xFFFFFFFFFFFFFFFFFFFFFFFFFFFFFFFFFFFFFFFF AND DUP2 MSTORE PUSH1 0x20 ADD PUSH1 0x1 DUP3 ADD DUP1 SLOAD PUSH2 0x3F4 SWAP1 PUSH2 0xB1A JUMP JUMPDEST DUP1 PUSH1 0x1F ADD PUSH1 0x20 DUP1 SWAP2 DIV MUL PUSH1 0x20 ADD PUSH1 0x40 MLOAD SWAP1 DUP2 ADD PUSH1 0x40 MSTORE DUP1 SWAP3 SWAP2 SWAP1 DUP2 DUP2 MSTORE PUSH1 0x20 ADD DUP3 DUP1 SLOAD PUSH2 0x420 SWAP1 PUSH2 0xB1A JUMP JUMPDEST DUP1 ISZERO PUSH2 0x46D JUMPI DUP1 PUSH1 0x1F LT PUSH2 0x442 JUMPI PUSH2 0x100 DUP1 DUP4 SLOAD DIV MUL DUP4 MSTORE SWAP2 PUSH1 0x20 ADD SWAP2 PUSH2 0x46D JUMP JUMPDEST DUP3 ADD SWAP2 SWAP1 PUSH1 0x0 MSTORE PUSH1 0x20 PUSH1 0x0 KECCAK256 SWAP1 JUMPDEST DUP2 SLOAD DUP2 MSTORE SWAP1 PUSH1 0x1 ADD SWAP1 PUSH1 0x20 ADD DUP1 DUP4 GT PUSH2 0x450 JUMPI DUP3 SWAP1 SUB PUSH1 0x1F AND DUP3 ADD SWAP2 JUMPDEST POP POP POP POP POP DUP2 MSTORE POP POP DUP2 MSTORE PUSH1 0x20 ADD SWAP1 PUSH1 0x1 ADD SWAP1 PUSH2 0x36B JUMP JUMPDEST POP POP POP POP SWAP1 POP SWAP1 JUMP JUMPDEST PUSH1 0x0 DUP2 DUP2 SLOAD DUP2 LT PUSH2 0x49E JUMPI PUSH1 0x0 DUP1 REVERT JUMPDEST SWAP1 PUSH1 0x0 MSTORE PUSH1 0x20 PUSH1 0x0 KECCAK256 SWAP1 PUSH1 0x2 MUL ADD PUSH1 0x0 SWAP2 POP SWAP1 POP DUP1 PUSH1 0x0 ADD PUSH1 0x0 SWAP1 SLOAD SWAP1 PUSH2 0x100 EXP SWAP1 DIV PUSH20 0xFFFFFFFFFFFFFFFFFFFFFFFFFFFFFFFFFFFFFFFF AND SWAP1 DUP1 PUSH1 0x1 ADD DUP1 SLOAD PUSH2 0x4E7 SWAP1 PUSH2 0xB1A JUMP JUMPDEST DUP1 PUSH1 0x1F ADD PUSH1 0x20 DUP1 SWAP2 DIV MUL PUSH1 0x20 ADD PUSH1 0x40 MLOAD SWAP1 DUP2 ADD PUSH1 0x40 MSTORE DUP1 SWAP3 SWAP2 SWAP1 DUP2 DUP2 MSTORE PUSH1 0x20 ADD DUP3 DUP1 SLOAD PUSH2 0x513 SWAP1 PUSH2 0xB1A JUMP JUMPDEST DUP1 ISZERO PUSH2 0x560 JUMPI DUP1 PUSH1 0x1F LT PUSH2 0x535 JUMPI PUSH2 0x100 DUP1 DUP4 SLOAD DIV MUL DUP4 MSTORE SWAP2 PUSH1 0x20 ADD SWAP2 PUSH2 0x560 JUMP JUMPDEST DUP3 ADD SWAP2 SWAP1 PUSH1 0x0 MSTORE PUSH1 0x20 PUSH1 0x0 KECCAK256 SWAP1 JUMPDEST DUP2 SLOAD DUP2 MSTORE SWAP1 PUSH1 0x1 ADD SWAP1 PUSH1 0x20 ADD DUP1 DUP4 GT PUSH2 0x543 JUMPI DUP3 SWAP1 SUB PUSH1 0x1F AND DUP3 ADD SWAP2 JUMPDEST POP POP POP POP POP SWAP1 POP DUP3 JUMP JUMPDEST PUSH1 0x40 MLOAD DUP1 PUSH1 0x40 ADD PUSH1 0x40 MSTORE DUP1 PUSH1 0x0 PUSH20 0xFFFFFFFFFFFFFFFFFFFFFFFFFFFFFFFFFFFFFFFF AND DUP2 MSTORE PUSH1 0x20 ADD PUSH1 0x60 DUP2 MSTORE POP SWAP1 JUMP JUMPDEST DUP3 DUP1 SLOAD PUSH2 0x5A6 SWAP1 PUSH2 0xB1A JUMP JUMPDEST SWAP1 PUSH1 0x0 MSTORE PUSH1 0x20 PUSH1 0x0 KECCAK256 SWAP1 PUSH1 0x1F ADD PUSH1 0x20 SWAP1 DIV DUP2 ADD SWAP3 DUP3 PUSH2 0x5C8 JUMPI PUSH1 0x0 DUP6 SSTORE PUSH2 0x60F JUMP JUMPDEST DUP3 PUSH1 0x1F LT PUSH2 0x5E1 JUMPI DUP1 MLOAD PUSH1 0xFF NOT AND DUP4 DUP1 ADD OR DUP6 SSTORE PUSH2 0x60F JUMP JUMPDEST DUP3 DUP1 ADD PUSH1 0x1 ADD DUP6 SSTORE DUP3 ISZERO PUSH2 0x60F JUMPI SWAP2 DUP3 ADD JUMPDEST DUP3 DUP2 GT ISZERO PUSH2 0x60E JUMPI DUP3 MLOAD DUP3 SSTORE SWAP2 PUSH1 0x20 ADD SWAP2 SWAP1 PUSH1 0x1 ADD SWAP1 PUSH2 0x5F3 JUMP JUMPDEST JUMPDEST POP SWAP1 POP PUSH2 0x61C SWAP2 SWAP1 PUSH2 0x648 JUMP JUMPDEST POP SWAP1 JUMP JUMPDEST PUSH1 0x40 MLOAD DUP1 PUSH2 0x140 ADD PUSH1 0x40 MSTORE DUP1 PUSH1 0xA SWAP1 JUMPDEST PUSH1 0x60 DUP2 MSTORE PUSH1 0x20 ADD SWAP1 PUSH1 0x1 SWAP1 SUB SWAP1 DUP2 PUSH2 0x630 JUMPI SWAP1 POP POP SWAP1 JUMP JUMPDEST JUMPDEST DUP1 DUP3 GT ISZERO PUSH2 0x661 JUMPI PUSH1 0x0 DUP2 PUSH1 0x0 SWAP1 SSTORE POP PUSH1 0x1 ADD PUSH2 0x649 JUMP JUMPDEST POP SWAP1 JUMP JUMPDEST PUSH1 0x0 PUSH2 0x678 PUSH2 0x673 DUP5 PUSH2 0x9D8 JUMP JUMPDEST PUSH2 0x9B3 JUMP JUMPDEST SWAP1 POP DUP3 DUP2 MSTORE PUSH1 0x20 DUP2 ADD DUP5 DUP5 DUP5 ADD GT ISZERO PUSH2 0x694 JUMPI PUSH2 0x693 PUSH2 0xC87 JUMP JUMPDEST JUMPDEST PUSH2 0x69F DUP5 DUP3 DUP6 PUSH2 0xAD8 JUMP JUMPDEST POP SWAP4 SWAP3 POP POP POP JUMP JUMPDEST PUSH1 0x0 DUP3 PUSH1 0x1F DUP4 ADD SLT PUSH2 0x6BC JUMPI PUSH2 0x6BB PUSH2 0xC82 JUMP JUMPDEST JUMPDEST DUP2 CALLDATALOAD PUSH2 0x6CC DUP5 DUP3 PUSH1 0x20 DUP7 ADD PUSH2 0x665 JUMP JUMPDEST SWAP2 POP POP SWAP3 SWAP2 POP POP JUMP JUMPDEST PUSH1 0x0 DUP2 CALLDATALOAD SWAP1 POP PUSH2 0x6E4 DUP2 PUSH2 0xCA7 JUMP JUMPDEST SWAP3 SWAP2 POP POP JUMP JUMPDEST PUSH1 0x0 PUSH1 0x20 DUP3 DUP5 SUB SLT ISZERO PUSH2 0x700 JUMPI PUSH2 0x6FF PUSH2 0xC91 JUMP JUMPDEST JUMPDEST PUSH1 0x0 DUP3 ADD CALLDATALOAD PUSH8 0xFFFFFFFFFFFFFFFF DUP2 GT ISZERO PUSH2 0x71E JUMPI PUSH2 0x71D PUSH2 0xC8C JUMP JUMPDEST JUMPDEST PUSH2 0x72A DUP5 DUP3 DUP6 ADD PUSH2 0x6A7 JUMP JUMPDEST SWAP2 POP POP SWAP3 SWAP2 POP POP JUMP JUMPDEST PUSH1 0x0 PUSH1 0x20 DUP3 DUP5 SUB SLT ISZERO PUSH2 0x749 JUMPI PUSH2 0x748 PUSH2 0xC91 JUMP JUMPDEST JUMPDEST PUSH1 0x0 PUSH2 0x757 DUP5 DUP3 DUP6 ADD PUSH2 0x6D5 JUMP JUMPDEST SWAP2 POP POP SWAP3 SWAP2 POP POP JUMP JUMPDEST PUSH1 0x0 PUSH2 0x76C DUP4 DUP4 PUSH2 0x890 JUMP JUMPDEST SWAP1 POP SWAP3 SWAP2 POP POP JUMP JUMPDEST PUSH1 0x0 PUSH2 0x780 DUP4 DUP4 PUSH2 0x902 JUMP JUMPDEST SWAP1 POP SWAP3 SWAP2 POP POP JUMP JUMPDEST PUSH2 0x791 DUP2 PUSH2 0xA9C JUMP JUMPDEST DUP3 MSTORE POP POP JUMP JUMPDEST PUSH2 0x7A0 DUP2 PUSH2 0xA9C JUMP JUMPDEST DUP3 MSTORE POP POP JUMP JUMPDEST PUSH1 0x0 PUSH2 0x7B1 DUP3 PUSH2 0xA23 JUMP JUMPDEST PUSH2 0x7BB DUP2 DUP6 PUSH2 0xA5E JUMP JUMPDEST SWAP4 POP DUP4 PUSH1 0x20 DUP3 MUL DUP6 ADD PUSH2 0x7CD DUP6 PUSH2 0xA09 JUMP JUMPDEST DUP1 PUSH1 0x0 JUMPDEST DUP6 DUP2 LT ISZERO PUSH2 0x809 JUMPI DUP5 DUP5 SUB DUP10 MSTORE DUP2 MLOAD PUSH2 0x7EA DUP6 DUP3 PUSH2 0x760 JUMP JUMPDEST SWAP5 POP PUSH2 0x7F5 DUP4 PUSH2 0xA44 JUMP JUMPDEST SWAP3 POP PUSH1 0x20 DUP11 ADD SWAP10 POP POP PUSH1 0x1 DUP2 ADD SWAP1 POP PUSH2 0x7D1 JUMP JUMPDEST POP DUP3 SWAP8 POP DUP8 SWAP6 POP POP POP POP POP POP SWAP3 SWAP2 POP POP JUMP JUMPDEST PUSH1 0x0 PUSH2 0x826 DUP3 PUSH2 0xA2E JUMP JUMPDEST PUSH2 0x830 DUP2 DUP6 PUSH2 0xA69 JUMP JUMPDEST SWAP4 POP DUP4 PUSH1 0x20 DUP3 MUL DUP6 ADD PUSH2 0x842 DUP6 PUSH2 0xA13 JUMP JUMPDEST DUP1 PUSH1 0x0 JUMPDEST DUP6 DUP2 LT ISZERO PUSH2 0x87E JUMPI DUP5 DUP5 SUB DUP10 MSTORE DUP2 MLOAD PUSH2 0x85F DUP6 DUP3 PUSH2 0x774 JUMP JUMPDEST SWAP5 POP PUSH2 0x86A DUP4 PUSH2 0xA51 JUMP JUMPDEST SWAP3 POP PUSH1 0x20 DUP11 ADD SWAP10 POP POP PUSH1 0x1 DUP2 ADD SWAP1 POP PUSH2 0x846 JUMP JUMPDEST POP DUP3 SWAP8 POP DUP8 SWAP6 POP POP POP POP POP POP SWAP3 SWAP2 POP POP JUMP JUMPDEST PUSH1 0x0 PUSH2 0x89B DUP3 PUSH2 0xA39 JUMP JUMPDEST PUSH2 0x8A5 DUP2 DUP6 PUSH2 0xA7A JUMP JUMPDEST SWAP4 POP PUSH2 0x8B5 DUP2 DUP6 PUSH1 0x20 DUP7 ADD PUSH2 0xAE7 JUMP JUMPDEST PUSH2 0x8BE DUP2 PUSH2 0xC96 JUMP JUMPDEST DUP5 ADD SWAP2 POP POP SWAP3 SWAP2 POP POP JUMP JUMPDEST PUSH1 0x0 PUSH2 0x8D4 DUP3 PUSH2 0xA39 JUMP JUMPDEST PUSH2 0x8DE DUP2 DUP6 PUSH2 0xA8B JUMP JUMPDEST SWAP4 POP PUSH2 0x8EE DUP2 DUP6 PUSH1 0x20 DUP7 ADD PUSH2 0xAE7 JUMP JUMPDEST PUSH2 0x8F7 DUP2 PUSH2 0xC96 JUMP JUMPDEST DUP5 ADD SWAP2 POP POP SWAP3 SWAP2 POP POP JUMP JUMPDEST PUSH1 0x0 PUSH1 0x40 DUP4 ADD PUSH1 0x0 DUP4 ADD MLOAD PUSH2 0x91A PUSH1 0x0 DUP7 ADD DUP3 PUSH2 0x788 JUMP JUMPDEST POP PUSH1 0x20 DUP4 ADD MLOAD DUP5 DUP3 SUB PUSH1 0x20 DUP7 ADD MSTORE PUSH2 0x932 DUP3 DUP3 PUSH2 0x890 JUMP JUMPDEST SWAP2 POP POP DUP1 SWAP2 POP POP SWAP3 SWAP2 POP POP JUMP JUMPDEST PUSH1 0x0 PUSH1 0x40 DUP3 ADD SWAP1 POP PUSH2 0x954 PUSH1 0x0 DUP4 ADD DUP6 PUSH2 0x797 JUMP JUMPDEST DUP2 DUP2 SUB PUSH1 0x20 DUP4 ADD MSTORE PUSH2 0x966 DUP2 DUP5 PUSH2 0x8C9 JUMP JUMPDEST SWAP1 POP SWAP4 SWAP3 POP POP POP JUMP JUMPDEST PUSH1 0x0 PUSH1 0x20 DUP3 ADD SWAP1 POP DUP2 DUP2 SUB PUSH1 0x0 DUP4 ADD MSTORE PUSH2 0x989 DUP2 DUP5 PUSH2 0x7A6 JUMP JUMPDEST SWAP1 POP SWAP3 SWAP2 POP POP JUMP JUMPDEST PUSH1 0x0 PUSH1 0x20 DUP3 ADD SWAP1 POP DUP2 DUP2 SUB PUSH1 0x0 DUP4 ADD MSTORE PUSH2 0x9AB DUP2 DUP5 PUSH2 0x81B JUMP JUMPDEST SWAP1 POP SWAP3 SWAP2 POP POP JUMP JUMPDEST PUSH1 0x0 PUSH2 0x9BD PUSH2 0x9CE JUMP JUMPDEST SWAP1 POP PUSH2 0x9C9 DUP3 DUP3 PUSH2 0xB4C JUMP JUMPDEST SWAP2 SWAP1 POP JUMP JUMPDEST PUSH1 0x0 PUSH1 0x40 MLOAD SWAP1 POP SWAP1 JUMP JUMPDEST PUSH1 0x0 PUSH8 0xFFFFFFFFFFFFFFFF DUP3 GT ISZERO PUSH2 0x9F3 JUMPI PUSH2 0x9F2 PUSH2 0xC53 JUMP JUMPDEST JUMPDEST PUSH2 0x9FC DUP3 PUSH2 0xC96 JUMP JUMPDEST SWAP1 POP PUSH1 0x20 DUP2 ADD SWAP1 POP SWAP2 SWAP1 POP JUMP JUMPDEST PUSH1 0x0 DUP2 SWAP1 POP SWAP2 SWAP1 POP JUMP JUMPDEST PUSH1 0x0 DUP2 SWAP1 POP PUSH1 0x20 DUP3 ADD SWAP1 POP SWAP2 SWAP1 POP JUMP JUMPDEST PUSH1 0x0 PUSH1 0xA SWAP1 POP SWAP2 SWAP1 POP JUMP JUMPDEST PUSH1 0x0 DUP2 MLOAD SWAP1 POP SWAP2 SWAP1 POP JUMP JUMPDEST PUSH1 0x0 DUP2 MLOAD SWAP1 POP SWAP2 SWAP1 POP JUMP JUMPDEST PUSH1 0x0 PUSH1 0x20 DUP3 ADD SWAP1 POP SWAP2 SWAP1 POP JUMP JUMPDEST PUSH1 0x0 PUSH1 0x20 DUP3 ADD SWAP1 POP SWAP2 SWAP1 POP JUMP JUMPDEST PUSH1 0x0 DUP2 SWAP1 POP SWAP3 SWAP2 POP POP JUMP JUMPDEST PUSH1 0x0 DUP3 DUP3 MSTORE PUSH1 0x20 DUP3 ADD SWAP1 POP SWAP3 SWAP2 POP POP JUMP JUMPDEST PUSH1 0x0 DUP3 DUP3 MSTORE PUSH1 0x20 DUP3 ADD SWAP1 POP SWAP3 SWAP2 POP POP JUMP JUMPDEST PUSH1 0x0 DUP3 DUP3 MSTORE PUSH1 0x20 DUP3 ADD SWAP1 POP SWAP3 SWAP2 POP POP JUMP JUMPDEST PUSH1 0x0 PUSH2 0xAA7 DUP3 PUSH2 0xAAE JUMP JUMPDEST SWAP1 POP SWAP2 SWAP1 POP JUMP JUMPDEST PUSH1 0x0 PUSH20 0xFFFFFFFFFFFFFFFFFFFFFFFFFFFFFFFFFFFFFFFF DUP3 AND SWAP1 POP SWAP2 SWAP1 POP JUMP JUMPDEST PUSH1 0x0 DUP2 SWAP1 POP SWAP2 SWAP1 POP JUMP JUMPDEST DUP3 DUP2 DUP4 CALLDATACOPY PUSH1 0x0 DUP4 DUP4 ADD MSTORE POP POP POP JUMP JUMPDEST PUSH1 0x0 JUMPDEST DUP4 DUP2 LT ISZERO PUSH2 0xB05 JUMPI DUP1 DUP3 ADD MLOAD DUP2 DUP5 ADD MSTORE PUSH1 0x20 DUP2 ADD SWAP1 POP PUSH2 0xAEA JUMP JUMPDEST DUP4 DUP2 GT ISZERO PUSH2 0xB14 JUMPI PUSH1 0x0 DUP5 DUP5 ADD MSTORE JUMPDEST POP POP POP POP JUMP JUMPDEST PUSH1 0x0 PUSH1 0x2 DUP3 DIV SWAP1 POP PUSH1 0x1 DUP3 AND DUP1 PUSH2 0xB32 JUMPI PUSH1 0x7F DUP3 AND SWAP2 POP JUMPDEST PUSH1 0x20 DUP3 LT DUP2 EQ ISZERO PUSH2 0xB46 JUMPI PUSH2 0xB45 PUSH2 0xBF5 JUMP JUMPDEST JUMPDEST POP SWAP2 SWAP1 POP JUMP JUMPDEST PUSH2 0xB55 DUP3 PUSH2 0xC96 JUMP JUMPDEST DUP2 ADD DUP2 DUP2 LT PUSH8 0xFFFFFFFFFFFFFFFF DUP3 GT OR ISZERO PUSH2 0xB74 JUMPI PUSH2 0xB73 PUSH2 0xC53 JUMP JUMPDEST JUMPDEST DUP1 PUSH1 0x40 MSTORE POP POP POP JUMP JUMPDEST PUSH1 0x0 PUSH2 0xB88 DUP3 PUSH2 0xACE JUMP JUMPDEST SWAP2 POP PUSH32 0xFFFFFFFFFFFFFFFFFFFFFFFFFFFFFFFFFFFFFFFFFFFFFFFFFFFFFFFFFFFFFFFF DUP3 EQ ISZERO PUSH2 0xBBB JUMPI PUSH2 0xBBA PUSH2 0xBC6 JUMP JUMPDEST JUMPDEST PUSH1 0x1 DUP3 ADD SWAP1 POP SWAP2 SWAP1 POP JUMP JUMPDEST PUSH32 0x4E487B7100000000000000000000000000000000000000000000000000000000 PUSH1 0x0 MSTORE PUSH1 0x11 PUSH1 0x4 MSTORE PUSH1 0x24 PUSH1 0x0 REVERT JUMPDEST PUSH32 0x4E487B7100000000000000000000000000000000000000000000000000000000 PUSH1 0x0 MSTORE PUSH1 0x22 PUSH1 0x4 MSTORE PUSH1 0x24 PUSH1 0x0 REVERT JUMPDEST PUSH32 0x4E487B7100000000000000000000000000000000000000000000000000000000 PUSH1 0x0 MSTORE PUSH1 0x32 PUSH1 0x4 MSTORE PUSH1 0x24 PUSH1 0x0 REVERT JUMPDEST PUSH32 0x4E487B7100000000000000000000000000000000000000000000000000000000 PUSH1 0x0 MSTORE PUSH1 0x41 PUSH1 0x4 MSTORE PUSH1 0x24 PUSH1 0x0 REVERT JUMPDEST PUSH1 0x0 DUP1 REVERT JUMPDEST PUSH1 0x0 DUP1 REVERT JUMPDEST PUSH1 0x0 DUP1 REVERT JUMPDEST PUSH1 0x0 DUP1 REVERT JUMPDEST PUSH1 0x0 PUSH1 0x1F NOT PUSH1 0x1F DUP4 ADD AND SWAP1 POP SWAP2 SWAP1 POP JUMP JUMPDEST PUSH2 0xCB0 DUP2 PUSH2 0xACE JUMP JUMPDEST DUP2 EQ PUSH2 0xCBB JUMPI PUSH1 0x0 DUP1 REVERT JUMPDEST POP JUMP INVALID LOG2 PUSH5 0x6970667358 0x22 SLT KECCAK256 DUP9 PUSH16 0xB2E9269F3CE57AB7FDDE42C7836CA0F7 0xAC AND 0xBE 0xB6 0xDD AND BASEFEE TIMESTAMP 0xBD MLOAD EXTCODEHASH 0xBB CALLVALUE 0xC4 PUSH5 0x736F6C6343 STOP ADDMOD SMOD STOP CALLER "
				},
				"gasEstimates": {
					"creation": {
						"codeDepositCost": "663200",
						"executionCost": "696",
						"totalCost": "663896"
					},
					"external": {
						"address_book(uint256)": "infinite",
						"get()": "infinite",
						"get_all()": "infinite",
						"push(string)": "infinite"
					}
				},
				"methodIdentifiers": {
					"address_book(uint256)": "b1429303",
					"get()": "6d4ce63c",
					"get_all()": "880a3c86",
					"push(string)": "4f3d057a"
				}
			},
			"storageLayout": {
				"storage": [
					{
						"astId": 11,
						"contract": "contracts/1_Storage.sol:Storage",
						"label": "address_book",
						"offset": 0,
						"slot": "0",
						"type": "t_array(t_struct(Address_book)7_storage)dyn_storage"
					}
				],
				"types": {
					"t_address": {
						"encoding": "inplace",
						"label": "address",
						"numberOfBytes": "20"
					},
					"t_array(t_struct(Address_book)7_storage)dyn_storage": {
						"base": "t_struct(Address_book)7_storage",
						"encoding": "dynamic_array",
						"label": "struct Storage.Address_book[]",
						"numberOfBytes": "32"
					},
					"t_string_storage": {
						"encoding": "bytes",
						"label": "string",
						"numberOfBytes": "32"
					},
					"t_struct(Address_book)7_storage": {
						"encoding": "inplace",
						"label": "struct Storage.Address_book",
						"members": [
							{
								"astId": 4,
								"contract": "contracts/1_Storage.sol:Storage",
								"label": "addr",
								"offset": 0,
								"slot": "0",
								"type": "t_address"
							},
							{
								"astId": 6,
								"contract": "contracts/1_Storage.sol:Storage",
								"label": "data",
								"offset": 0,
								"slot": "1",
								"type": "t_string_storage"
							}
						],
						"numberOfBytes": "64"
					}
				}
			},
			"userdoc": {
				"kind": "user",
				"methods": {},
				"version": 1
			}
		}
	}
}