{
	"contracts/1_Storage.sol": {
		"Storage": {
			"abi": [
				{
					"inputs": [
						{
							"internalType": "string",
							"name": "_text",
							"type": "string"
						},
						{
							"internalType": "string",
							"name": "add",
							"type": "string"
						}
					],
					"name": "push",
					"outputs": [],
					"stateMutability": "nonpayable",
					"type": "function"
				},
				{
					"inputs": [],
					"name": "retrieve",
					"outputs": [
						{
							"internalType": "address[]",
							"name": "",
							"type": "address[]"
						},
						{
							"internalType": "string[]",
							"name": "",
							"type": "string[]"
						}
					],
					"stateMutability": "view",
					"type": "function"
				}
			],
			"devdoc": {
				"custom:dev-run-script": "./scripts/deploy_with_ethers.ts",
				"details": "Store & retrieve value in a variable",
				"kind": "dev",
				"methods": {},
				"title": "Storage",
				"version": 1
			},
			"evm": {
				"assembly": "    /* \"contracts/1_Storage.sol\":199:850  contract Storage {... */\n  mstore(0x40, 0x80)\n  callvalue\n  dup1\n  iszero\n  tag_1\n  jumpi\n  0x00\n  dup1\n  revert\ntag_1:\n  pop\n  dataSize(sub_0)\n  dup1\n  dataOffset(sub_0)\n  0x00\n  codecopy\n  0x00\n  return\nstop\n\nsub_0: assembly {\n        /* \"contracts/1_Storage.sol\":199:850  contract Storage {... */\n      mstore(0x40, 0x80)\n      callvalue\n      dup1\n      iszero\n      tag_1\n      jumpi\n      0x00\n      dup1\n      revert\n    tag_1:\n      pop\n      jumpi(tag_2, lt(calldatasize, 0x04))\n      shr(0xe0, calldataload(0x00))\n      dup1\n      0x2e64cec1\n      eq\n      tag_3\n      jumpi\n      dup1\n      0xf8761376\n      eq\n      tag_4\n      jumpi\n    tag_2:\n      0x00\n      dup1\n      revert\n        /* \"contracts/1_Storage.sol\":397:848  function retrieve() external view returns(address[] memory, string[] memory)... */\n    tag_3:\n      tag_5\n      tag_6\n      jump\t// in\n    tag_5:\n      mload(0x40)\n      tag_7\n      swap3\n      swap2\n      swap1\n      tag_8\n      jump\t// in\n    tag_7:\n      mload(0x40)\n      dup1\n      swap2\n      sub\n      swap1\n      return\n        /* \"contracts/1_Storage.sol\":286:391  function push(string memory _text, string memory add) external {... */\n    tag_4:\n      tag_9\n      0x04\n      dup1\n      calldatasize\n      sub\n      dup2\n      add\n      swap1\n      tag_10\n      swap2\n      swap1\n      tag_11\n      jump\t// in\n    tag_10:\n      tag_12\n      jump\t// in\n    tag_9:\n      stop\n        /* \"contracts/1_Storage.sol\":397:848  function retrieve() external view returns(address[] memory, string[] memory)... */\n    tag_6:\n        /* \"contracts/1_Storage.sol\":439:455  address[] memory */\n      0x60\n        /* \"contracts/1_Storage.sol\":457:472  string[] memory */\n      dup1\n        /* \"contracts/1_Storage.sol\":492:519  address[] memory returnKeys */\n      0x00\n        /* \"contracts/1_Storage.sol\":536:545  addresses */\n      0x01\n        /* \"contracts/1_Storage.sol\":536:552  addresses.length */\n      dup1\n      sload\n      swap1\n      pop\n        /* \"contracts/1_Storage.sol\":522:553  new address[](addresses.length) */\n      0xffffffffffffffff\n      dup2\n      gt\n      iszero\n      tag_14\n      jumpi\n      tag_15\n      tag_16\n      jump\t// in\n    tag_15:\n    tag_14:\n      mload(0x40)\n      swap1\n      dup1\n      dup3\n      mstore\n      dup1\n      0x20\n      mul\n      0x20\n      add\n      dup3\n      add\n      0x40\n      mstore\n      dup1\n      iszero\n      tag_17\n      jumpi\n      dup2\n      0x20\n      add\n      0x20\n      dup3\n      mul\n      dup1\n      calldatasize\n      dup4\n      calldatacopy\n      dup1\n      dup3\n      add\n      swap2\n      pop\n      pop\n      swap1\n      pop\n    tag_17:\n      pop\n        /* \"contracts/1_Storage.sol\":492:553  address[] memory returnKeys = new address[](addresses.length) */\n      swap1\n      pop\n        /* \"contracts/1_Storage.sol\":562:590  string[] memory returnValues */\n      0x00\n        /* \"contracts/1_Storage.sol\":607:616  addresses */\n      0x01\n        /* \"contracts/1_Storage.sol\":607:623  addresses.length */\n      dup1\n      sload\n      swap1\n      pop\n        /* \"contracts/1_Storage.sol\":594:624  new string[](addresses.length) */\n      0xffffffffffffffff\n      dup2\n      gt\n      iszero\n      tag_18\n      jumpi\n      tag_19\n      tag_16\n      jump\t// in\n    tag_19:\n    tag_18:\n      mload(0x40)\n      swap1\n      dup1\n      dup3\n      mstore\n      dup1\n      0x20\n      mul\n      0x20\n      add\n      dup3\n      add\n      0x40\n      mstore\n      dup1\n      iszero\n      tag_20\n      jumpi\n      dup2\n      0x20\n      add\n    tag_21:\n      0x60\n      dup2\n      mstore\n      0x20\n      add\n      swap1\n      0x01\n      swap1\n      sub\n      swap1\n      dup2\n      tag_21\n      jumpi\n      swap1\n      pop\n    tag_20:\n      pop\n        /* \"contracts/1_Storage.sol\":562:624  string[] memory returnValues  = new string[](addresses.length) */\n      swap1\n      pop\n        /* \"contracts/1_Storage.sol\":638:644  uint i */\n      0x00\n        /* \"contracts/1_Storage.sol\":634:801  for(uint i = 0; i < addresses.length; i++)... */\n    tag_22:\n        /* \"contracts/1_Storage.sol\":654:663  addresses */\n      0x01\n        /* \"contracts/1_Storage.sol\":654:670  addresses.length */\n      dup1\n      sload\n      swap1\n      pop\n        /* \"contracts/1_Storage.sol\":650:651  i */\n      dup2\n        /* \"contracts/1_Storage.sol\":650:670  i < addresses.length */\n      lt\n        /* \"contracts/1_Storage.sol\":634:801  for(uint i = 0; i < addresses.length; i++)... */\n      iszero\n      tag_23\n      jumpi\n        /* \"contracts/1_Storage.sol\":713:722  addresses */\n      0x01\n        /* \"contracts/1_Storage.sol\":723:724  i */\n      dup2\n        /* \"contracts/1_Storage.sol\":713:725  addresses[i] */\n      dup2\n      sload\n      dup2\n      lt\n      tag_25\n      jumpi\n      tag_26\n      tag_27\n      jump\t// in\n    tag_26:\n    tag_25:\n      swap1\n      0x00\n      mstore\n      keccak256(0x00, 0x20)\n      add\n      0x00\n      swap1\n      sload\n      swap1\n      0x0100\n      exp\n      swap1\n      div\n      0xffffffffffffffffffffffffffffffffffffffff\n      and\n        /* \"contracts/1_Storage.sol\":697:707  returnKeys */\n      dup4\n        /* \"contracts/1_Storage.sol\":708:709  i */\n      dup3\n        /* \"contracts/1_Storage.sol\":697:710  returnKeys[i] */\n      dup2\n      mload\n      dup2\n      lt\n      tag_29\n      jumpi\n      tag_30\n      tag_27\n      jump\t// in\n    tag_30:\n    tag_29:\n      0x20\n      mul\n      0x20\n      add\n      add\n        /* \"contracts/1_Storage.sol\":697:725  returnKeys[i] = addresses[i] */\n      swap1\n      0xffffffffffffffffffffffffffffffffffffffff\n      and\n      swap1\n      dup2\n      0xffffffffffffffffffffffffffffffffffffffff\n      and\n      dup2\n      mstore\n      pop\n      pop\n        /* \"contracts/1_Storage.sol\":756:761  store */\n      0x00\n        /* \"contracts/1_Storage.sol\":756:775  store[addresses[i]] */\n      dup1\n        /* \"contracts/1_Storage.sol\":762:771  addresses */\n      0x01\n        /* \"contracts/1_Storage.sol\":772:773  i */\n      dup4\n        /* \"contracts/1_Storage.sol\":762:774  addresses[i] */\n      dup2\n      sload\n      dup2\n      lt\n      tag_31\n      jumpi\n      tag_32\n      tag_27\n      jump\t// in\n    tag_32:\n    tag_31:\n      swap1\n      0x00\n      mstore\n      keccak256(0x00, 0x20)\n      add\n      0x00\n      swap1\n      sload\n      swap1\n      0x0100\n      exp\n      swap1\n      div\n      0xffffffffffffffffffffffffffffffffffffffff\n      and\n        /* \"contracts/1_Storage.sol\":756:775  store[addresses[i]] */\n      0xffffffffffffffffffffffffffffffffffffffff\n      and\n      0xffffffffffffffffffffffffffffffffffffffff\n      and\n      dup2\n      mstore\n      0x20\n      add\n      swap1\n      dup2\n      mstore\n      0x20\n      add\n      0x00\n      keccak256\n        /* \"contracts/1_Storage.sol\":738:775  returnValues[i] = store[addresses[i]] */\n      dup1\n      sload\n      tag_34\n      swap1\n      tag_35\n      jump\t// in\n    tag_34:\n      dup1\n      0x1f\n      add\n      0x20\n      dup1\n      swap2\n      div\n      mul\n      0x20\n      add\n      mload(0x40)\n      swap1\n      dup2\n      add\n      0x40\n      mstore\n      dup1\n      swap3\n      swap2\n      swap1\n      dup2\n      dup2\n      mstore\n      0x20\n      add\n      dup3\n      dup1\n      sload\n      tag_36\n      swap1\n      tag_35\n      jump\t// in\n    tag_36:\n      dup1\n      iszero\n      tag_37\n      jumpi\n      dup1\n      0x1f\n      lt\n      tag_38\n      jumpi\n      0x0100\n      dup1\n      dup4\n      sload\n      div\n      mul\n      dup4\n      mstore\n      swap2\n      0x20\n      add\n      swap2\n      jump(tag_37)\n    tag_38:\n      dup3\n      add\n      swap2\n      swap1\n      0x00\n      mstore\n      keccak256(0x00, 0x20)\n      swap1\n    tag_39:\n      dup2\n      sload\n      dup2\n      mstore\n      swap1\n      0x01\n      add\n      swap1\n      0x20\n      add\n      dup1\n      dup4\n      gt\n      tag_39\n      jumpi\n      dup3\n      swap1\n      sub\n      0x1f\n      and\n      dup3\n      add\n      swap2\n    tag_37:\n      pop\n      pop\n      pop\n      pop\n      pop\n        /* \"contracts/1_Storage.sol\":738:750  returnValues */\n      dup3\n        /* \"contracts/1_Storage.sol\":751:752  i */\n      dup3\n        /* \"contracts/1_Storage.sol\":738:753  returnValues[i] */\n      dup2\n      mload\n      dup2\n      lt\n      tag_40\n      jumpi\n      tag_41\n      tag_27\n      jump\t// in\n    tag_41:\n    tag_40:\n      0x20\n      mul\n      0x20\n      add\n      add\n        /* \"contracts/1_Storage.sol\":738:775  returnValues[i] = store[addresses[i]] */\n      dup2\n      swap1\n      mstore\n      pop\n        /* \"contracts/1_Storage.sol\":788:791  i++ */\n      dup1\n      dup1\n      tag_42\n      swap1\n      tag_43\n      jump\t// in\n    tag_42:\n      swap2\n      pop\n      pop\n        /* \"contracts/1_Storage.sol\":672:675  i++ */\n      dup1\n      dup1\n      tag_44\n      swap1\n      tag_43\n      jump\t// in\n    tag_44:\n      swap2\n      pop\n      pop\n        /* \"contracts/1_Storage.sol\":634:801  for(uint i = 0; i < addresses.length; i++)... */\n      jump(tag_22)\n    tag_23:\n      pop\n        /* \"contracts/1_Storage.sol\":816:826  returnKeys */\n      dup2\n        /* \"contracts/1_Storage.sol\":828:840  returnValues */\n      dup2\n        /* \"contracts/1_Storage.sol\":809:841  return(returnKeys, returnValues) */\n      swap4\n      pop\n      swap4\n      pop\n      pop\n      pop\n        /* \"contracts/1_Storage.sol\":397:848  function retrieve() external view returns(address[] memory, string[] memory)... */\n      swap1\n      swap2\n      jump\t// out\n        /* \"contracts/1_Storage.sol\":286:391  function push(string memory _text, string memory add) external {... */\n    tag_12:\n        /* \"contracts/1_Storage.sol\":379:384  _text */\n      dup2\n        /* \"contracts/1_Storage.sol\":359:364  store */\n      0x00\n        /* \"contracts/1_Storage.sol\":359:376  store[msg.sender] */\n      dup1\n        /* \"contracts/1_Storage.sol\":365:375  msg.sender */\n      caller\n        /* \"contracts/1_Storage.sol\":359:376  store[msg.sender] */\n      0xffffffffffffffffffffffffffffffffffffffff\n      and\n      0xffffffffffffffffffffffffffffffffffffffff\n      and\n      dup2\n      mstore\n      0x20\n      add\n      swap1\n      dup2\n      mstore\n      0x20\n      add\n      0x00\n      keccak256\n        /* \"contracts/1_Storage.sol\":359:384  store[msg.sender] = _text */\n      swap1\n      dup1\n      mload\n      swap1\n      0x20\n      add\n      swap1\n      tag_46\n      swap3\n      swap2\n      swap1\n      tag_47\n      jump\t// in\n    tag_46:\n      pop\n        /* \"contracts/1_Storage.sol\":286:391  function push(string memory _text, string memory add) external {... */\n      pop\n      pop\n      jump\t// out\n    tag_47:\n      dup3\n      dup1\n      sload\n      tag_48\n      swap1\n      tag_35\n      jump\t// in\n    tag_48:\n      swap1\n      0x00\n      mstore\n      keccak256(0x00, 0x20)\n      swap1\n      0x1f\n      add\n      0x20\n      swap1\n      div\n      dup2\n      add\n      swap3\n      dup3\n      tag_50\n      jumpi\n      0x00\n      dup6\n      sstore\n      jump(tag_49)\n    tag_50:\n      dup3\n      0x1f\n      lt\n      tag_51\n      jumpi\n      dup1\n      mload\n      not(0xff)\n      and\n      dup4\n      dup1\n      add\n      or\n      dup6\n      sstore\n      jump(tag_49)\n    tag_51:\n      dup3\n      dup1\n      add\n      0x01\n      add\n      dup6\n      sstore\n      dup3\n      iszero\n      tag_49\n      jumpi\n      swap2\n      dup3\n      add\n    tag_52:\n      dup3\n      dup2\n      gt\n      iszero\n      tag_53\n      jumpi\n      dup3\n      mload\n      dup3\n      sstore\n      swap2\n      0x20\n      add\n      swap2\n      swap1\n      0x01\n      add\n      swap1\n      jump(tag_52)\n    tag_53:\n    tag_49:\n      pop\n      swap1\n      pop\n      tag_54\n      swap2\n      swap1\n      tag_55\n      jump\t// in\n    tag_54:\n      pop\n      swap1\n      jump\t// out\n    tag_55:\n    tag_56:\n      dup1\n      dup3\n      gt\n      iszero\n      tag_57\n      jumpi\n      0x00\n      dup2\n      0x00\n      swap1\n      sstore\n      pop\n      0x01\n      add\n      jump(tag_56)\n    tag_57:\n      pop\n      swap1\n      jump\t// out\n        /* \"#utility.yul\":7:419   */\n    tag_59:\n        /* \"#utility.yul\":85:90   */\n      0x00\n        /* \"#utility.yul\":110:176   */\n      tag_61\n        /* \"#utility.yul\":126:175   */\n      tag_62\n        /* \"#utility.yul\":168:174   */\n      dup5\n        /* \"#utility.yul\":126:175   */\n      tag_63\n      jump\t// in\n    tag_62:\n        /* \"#utility.yul\":110:176   */\n      tag_64\n      jump\t// in\n    tag_61:\n        /* \"#utility.yul\":101:176   */\n      swap1\n      pop\n        /* \"#utility.yul\":199:205   */\n      dup3\n        /* \"#utility.yul\":192:197   */\n      dup2\n        /* \"#utility.yul\":185:206   */\n      mstore\n        /* \"#utility.yul\":237:241   */\n      0x20\n        /* \"#utility.yul\":230:235   */\n      dup2\n        /* \"#utility.yul\":226:242   */\n      add\n        /* \"#utility.yul\":275:278   */\n      dup5\n        /* \"#utility.yul\":266:272   */\n      dup5\n        /* \"#utility.yul\":261:264   */\n      dup5\n        /* \"#utility.yul\":257:273   */\n      add\n        /* \"#utility.yul\":254:279   */\n      gt\n        /* \"#utility.yul\":251:363   */\n      iszero\n      tag_65\n      jumpi\n        /* \"#utility.yul\":282:361   */\n      tag_66\n      tag_67\n      jump\t// in\n    tag_66:\n        /* \"#utility.yul\":251:363   */\n    tag_65:\n        /* \"#utility.yul\":372:413   */\n      tag_68\n        /* \"#utility.yul\":406:412   */\n      dup5\n        /* \"#utility.yul\":401:404   */\n      dup3\n        /* \"#utility.yul\":396:399   */\n      dup6\n        /* \"#utility.yul\":372:413   */\n      tag_69\n      jump\t// in\n    tag_68:\n        /* \"#utility.yul\":91:419   */\n      pop\n        /* \"#utility.yul\":7:419   */\n      swap4\n      swap3\n      pop\n      pop\n      pop\n      jump\t// out\n        /* \"#utility.yul\":439:779   */\n    tag_70:\n        /* \"#utility.yul\":495:500   */\n      0x00\n        /* \"#utility.yul\":544:547   */\n      dup3\n        /* \"#utility.yul\":537:541   */\n      0x1f\n        /* \"#utility.yul\":529:535   */\n      dup4\n        /* \"#utility.yul\":525:542   */\n      add\n        /* \"#utility.yul\":521:548   */\n      slt\n        /* \"#utility.yul\":511:633   */\n      tag_72\n      jumpi\n        /* \"#utility.yul\":552:631   */\n      tag_73\n      tag_74\n      jump\t// in\n    tag_73:\n        /* \"#utility.yul\":511:633   */\n    tag_72:\n        /* \"#utility.yul\":669:675   */\n      dup2\n        /* \"#utility.yul\":656:676   */\n      calldataload\n        /* \"#utility.yul\":694:773   */\n      tag_75\n        /* \"#utility.yul\":769:772   */\n      dup5\n        /* \"#utility.yul\":761:767   */\n      dup3\n        /* \"#utility.yul\":754:758   */\n      0x20\n        /* \"#utility.yul\":746:752   */\n      dup7\n        /* \"#utility.yul\":742:759   */\n      add\n        /* \"#utility.yul\":694:773   */\n      tag_59\n      jump\t// in\n    tag_75:\n        /* \"#utility.yul\":685:773   */\n      swap2\n      pop\n        /* \"#utility.yul\":501:779   */\n      pop\n        /* \"#utility.yul\":439:779   */\n      swap3\n      swap2\n      pop\n      pop\n      jump\t// out\n        /* \"#utility.yul\":785:1619   */\n    tag_11:\n        /* \"#utility.yul\":873:879   */\n      0x00\n        /* \"#utility.yul\":881:887   */\n      dup1\n        /* \"#utility.yul\":930:932   */\n      0x40\n        /* \"#utility.yul\":918:927   */\n      dup4\n        /* \"#utility.yul\":909:916   */\n      dup6\n        /* \"#utility.yul\":905:928   */\n      sub\n        /* \"#utility.yul\":901:933   */\n      slt\n        /* \"#utility.yul\":898:1017   */\n      iszero\n      tag_77\n      jumpi\n        /* \"#utility.yul\":936:1015   */\n      tag_78\n      tag_79\n      jump\t// in\n    tag_78:\n        /* \"#utility.yul\":898:1017   */\n    tag_77:\n        /* \"#utility.yul\":1084:1085   */\n      0x00\n        /* \"#utility.yul\":1073:1082   */\n      dup4\n        /* \"#utility.yul\":1069:1086   */\n      add\n        /* \"#utility.yul\":1056:1087   */\n      calldataload\n        /* \"#utility.yul\":1114:1132   */\n      0xffffffffffffffff\n        /* \"#utility.yul\":1106:1112   */\n      dup2\n        /* \"#utility.yul\":1103:1133   */\n      gt\n        /* \"#utility.yul\":1100:1217   */\n      iszero\n      tag_80\n      jumpi\n        /* \"#utility.yul\":1136:1215   */\n      tag_81\n      tag_82\n      jump\t// in\n    tag_81:\n        /* \"#utility.yul\":1100:1217   */\n    tag_80:\n        /* \"#utility.yul\":1241:1304   */\n      tag_83\n        /* \"#utility.yul\":1296:1303   */\n      dup6\n        /* \"#utility.yul\":1287:1293   */\n      dup3\n        /* \"#utility.yul\":1276:1285   */\n      dup7\n        /* \"#utility.yul\":1272:1294   */\n      add\n        /* \"#utility.yul\":1241:1304   */\n      tag_70\n      jump\t// in\n    tag_83:\n        /* \"#utility.yul\":1231:1304   */\n      swap3\n      pop\n        /* \"#utility.yul\":1027:1314   */\n      pop\n        /* \"#utility.yul\":1381:1383   */\n      0x20\n        /* \"#utility.yul\":1370:1379   */\n      dup4\n        /* \"#utility.yul\":1366:1384   */\n      add\n        /* \"#utility.yul\":1353:1385   */\n      calldataload\n        /* \"#utility.yul\":1412:1430   */\n      0xffffffffffffffff\n        /* \"#utility.yul\":1404:1410   */\n      dup2\n        /* \"#utility.yul\":1401:1431   */\n      gt\n        /* \"#utility.yul\":1398:1515   */\n      iszero\n      tag_84\n      jumpi\n        /* \"#utility.yul\":1434:1513   */\n      tag_85\n      tag_82\n      jump\t// in\n    tag_85:\n        /* \"#utility.yul\":1398:1515   */\n    tag_84:\n        /* \"#utility.yul\":1539:1602   */\n      tag_86\n        /* \"#utility.yul\":1594:1601   */\n      dup6\n        /* \"#utility.yul\":1585:1591   */\n      dup3\n        /* \"#utility.yul\":1574:1583   */\n      dup7\n        /* \"#utility.yul\":1570:1592   */\n      add\n        /* \"#utility.yul\":1539:1602   */\n      tag_70\n      jump\t// in\n    tag_86:\n        /* \"#utility.yul\":1529:1602   */\n      swap2\n      pop\n        /* \"#utility.yul\":1324:1612   */\n      pop\n        /* \"#utility.yul\":785:1619   */\n      swap3\n      pop\n      swap3\n      swap1\n      pop\n      jump\t// out\n        /* \"#utility.yul\":1625:1804   */\n    tag_87:\n        /* \"#utility.yul\":1694:1704   */\n      0x00\n        /* \"#utility.yul\":1715:1761   */\n      tag_89\n        /* \"#utility.yul\":1757:1760   */\n      dup4\n        /* \"#utility.yul\":1749:1755   */\n      dup4\n        /* \"#utility.yul\":1715:1761   */\n      tag_90\n      jump\t// in\n    tag_89:\n        /* \"#utility.yul\":1793:1797   */\n      0x20\n        /* \"#utility.yul\":1788:1791   */\n      dup4\n        /* \"#utility.yul\":1784:1798   */\n      add\n        /* \"#utility.yul\":1770:1798   */\n      swap1\n      pop\n        /* \"#utility.yul\":1625:1804   */\n      swap3\n      swap2\n      pop\n      pop\n      jump\t// out\n        /* \"#utility.yul\":1810:2006   */\n    tag_91:\n        /* \"#utility.yul\":1899:1909   */\n      0x00\n        /* \"#utility.yul\":1934:2000   */\n      tag_93\n        /* \"#utility.yul\":1996:1999   */\n      dup4\n        /* \"#utility.yul\":1988:1994   */\n      dup4\n        /* \"#utility.yul\":1934:2000   */\n      tag_94\n      jump\t// in\n    tag_93:\n        /* \"#utility.yul\":1920:2000   */\n      swap1\n      pop\n        /* \"#utility.yul\":1810:2006   */\n      swap3\n      swap2\n      pop\n      pop\n      jump\t// out\n        /* \"#utility.yul\":2012:2120   */\n    tag_90:\n        /* \"#utility.yul\":2089:2113   */\n      tag_96\n        /* \"#utility.yul\":2107:2112   */\n      dup2\n        /* \"#utility.yul\":2089:2113   */\n      tag_97\n      jump\t// in\n    tag_96:\n        /* \"#utility.yul\":2084:2087   */\n      dup3\n        /* \"#utility.yul\":2077:2114   */\n      mstore\n        /* \"#utility.yul\":2012:2120   */\n      pop\n      pop\n      jump\t// out\n        /* \"#utility.yul\":2156:2888   */\n    tag_98:\n        /* \"#utility.yul\":2275:2278   */\n      0x00\n        /* \"#utility.yul\":2304:2358   */\n      tag_100\n        /* \"#utility.yul\":2352:2357   */\n      dup3\n        /* \"#utility.yul\":2304:2358   */\n      tag_101\n      jump\t// in\n    tag_100:\n        /* \"#utility.yul\":2374:2460   */\n      tag_102\n        /* \"#utility.yul\":2453:2459   */\n      dup2\n        /* \"#utility.yul\":2448:2451   */\n      dup6\n        /* \"#utility.yul\":2374:2460   */\n      tag_103\n      jump\t// in\n    tag_102:\n        /* \"#utility.yul\":2367:2460   */\n      swap4\n      pop\n        /* \"#utility.yul\":2484:2540   */\n      tag_104\n        /* \"#utility.yul\":2534:2539   */\n      dup4\n        /* \"#utility.yul\":2484:2540   */\n      tag_105\n      jump\t// in\n    tag_104:\n        /* \"#utility.yul\":2563:2570   */\n      dup1\n        /* \"#utility.yul\":2594:2595   */\n      0x00\n        /* \"#utility.yul\":2579:2863   */\n    tag_106:\n        /* \"#utility.yul\":2604:2610   */\n      dup4\n        /* \"#utility.yul\":2601:2602   */\n      dup2\n        /* \"#utility.yul\":2598:2611   */\n      lt\n        /* \"#utility.yul\":2579:2863   */\n      iszero\n      tag_108\n      jumpi\n        /* \"#utility.yul\":2680:2686   */\n      dup2\n        /* \"#utility.yul\":2674:2687   */\n      mload\n        /* \"#utility.yul\":2707:2770   */\n      tag_109\n        /* \"#utility.yul\":2766:2769   */\n      dup9\n        /* \"#utility.yul\":2751:2764   */\n      dup3\n        /* \"#utility.yul\":2707:2770   */\n      tag_87\n      jump\t// in\n    tag_109:\n        /* \"#utility.yul\":2700:2770   */\n      swap8\n      pop\n        /* \"#utility.yul\":2793:2853   */\n      tag_110\n        /* \"#utility.yul\":2846:2852   */\n      dup4\n        /* \"#utility.yul\":2793:2853   */\n      tag_111\n      jump\t// in\n    tag_110:\n        /* \"#utility.yul\":2783:2853   */\n      swap3\n      pop\n        /* \"#utility.yul\":2639:2863   */\n      pop\n        /* \"#utility.yul\":2626:2627   */\n      0x01\n        /* \"#utility.yul\":2623:2624   */\n      dup2\n        /* \"#utility.yul\":2619:2628   */\n      add\n        /* \"#utility.yul\":2614:2628   */\n      swap1\n      pop\n        /* \"#utility.yul\":2579:2863   */\n      jump(tag_106)\n    tag_108:\n        /* \"#utility.yul\":2583:2597   */\n      pop\n        /* \"#utility.yul\":2879:2882   */\n      dup6\n        /* \"#utility.yul\":2872:2882   */\n      swap4\n      pop\n        /* \"#utility.yul\":2280:2888   */\n      pop\n      pop\n      pop\n        /* \"#utility.yul\":2156:2888   */\n      swap3\n      swap2\n      pop\n      pop\n      jump\t// out\n        /* \"#utility.yul\":2922:3913   */\n    tag_112:\n        /* \"#utility.yul\":3061:3064   */\n      0x00\n        /* \"#utility.yul\":3090:3154   */\n      tag_114\n        /* \"#utility.yul\":3148:3153   */\n      dup3\n        /* \"#utility.yul\":3090:3154   */\n      tag_115\n      jump\t// in\n    tag_114:\n        /* \"#utility.yul\":3170:3266   */\n      tag_116\n        /* \"#utility.yul\":3259:3265   */\n      dup2\n        /* \"#utility.yul\":3254:3257   */\n      dup6\n        /* \"#utility.yul\":3170:3266   */\n      tag_117\n      jump\t// in\n    tag_116:\n        /* \"#utility.yul\":3163:3266   */\n      swap4\n      pop\n        /* \"#utility.yul\":3292:3295   */\n      dup4\n        /* \"#utility.yul\":3337:3341   */\n      0x20\n        /* \"#utility.yul\":3329:3335   */\n      dup3\n        /* \"#utility.yul\":3325:3342   */\n      mul\n        /* \"#utility.yul\":3320:3323   */\n      dup6\n        /* \"#utility.yul\":3316:3343   */\n      add\n        /* \"#utility.yul\":3367:3433   */\n      tag_118\n        /* \"#utility.yul\":3427:3432   */\n      dup6\n        /* \"#utility.yul\":3367:3433   */\n      tag_119\n      jump\t// in\n    tag_118:\n        /* \"#utility.yul\":3456:3463   */\n      dup1\n        /* \"#utility.yul\":3487:3488   */\n      0x00\n        /* \"#utility.yul\":3472:3868   */\n    tag_120:\n        /* \"#utility.yul\":3497:3503   */\n      dup6\n        /* \"#utility.yul\":3494:3495   */\n      dup2\n        /* \"#utility.yul\":3491:3504   */\n      lt\n        /* \"#utility.yul\":3472:3868   */\n      iszero\n      tag_122\n      jumpi\n        /* \"#utility.yul\":3568:3577   */\n      dup5\n        /* \"#utility.yul\":3562:3566   */\n      dup5\n        /* \"#utility.yul\":3558:3578   */\n      sub\n        /* \"#utility.yul\":3553:3556   */\n      dup10\n        /* \"#utility.yul\":3546:3579   */\n      mstore\n        /* \"#utility.yul\":3619:3625   */\n      dup2\n        /* \"#utility.yul\":3613:3626   */\n      mload\n        /* \"#utility.yul\":3647:3731   */\n      tag_123\n        /* \"#utility.yul\":3726:3730   */\n      dup6\n        /* \"#utility.yul\":3711:3724   */\n      dup3\n        /* \"#utility.yul\":3647:3731   */\n      tag_91\n      jump\t// in\n    tag_123:\n        /* \"#utility.yul\":3639:3731   */\n      swap5\n      pop\n        /* \"#utility.yul\":3754:3824   */\n      tag_124\n        /* \"#utility.yul\":3817:3823   */\n      dup4\n        /* \"#utility.yul\":3754:3824   */\n      tag_125\n      jump\t// in\n    tag_124:\n        /* \"#utility.yul\":3744:3824   */\n      swap3\n      pop\n        /* \"#utility.yul\":3853:3857   */\n      0x20\n        /* \"#utility.yul\":3848:3851   */\n      dup11\n        /* \"#utility.yul\":3844:3858   */\n      add\n        /* \"#utility.yul\":3837:3858   */\n      swap10\n      pop\n        /* \"#utility.yul\":3532:3868   */\n      pop\n        /* \"#utility.yul\":3519:3520   */\n      0x01\n        /* \"#utility.yul\":3516:3517   */\n      dup2\n        /* \"#utility.yul\":3512:3521   */\n      add\n        /* \"#utility.yul\":3507:3521   */\n      swap1\n      pop\n        /* \"#utility.yul\":3472:3868   */\n      jump(tag_120)\n    tag_122:\n        /* \"#utility.yul\":3476:3490   */\n      pop\n        /* \"#utility.yul\":3884:3888   */\n      dup3\n        /* \"#utility.yul\":3877:3888   */\n      swap8\n      pop\n        /* \"#utility.yul\":3904:3907   */\n      dup8\n        /* \"#utility.yul\":3897:3907   */\n      swap6\n      pop\n        /* \"#utility.yul\":3066:3913   */\n      pop\n      pop\n      pop\n      pop\n      pop\n        /* \"#utility.yul\":2922:3913   */\n      swap3\n      swap2\n      pop\n      pop\n      jump\t// out\n        /* \"#utility.yul\":3919:4263   */\n    tag_94:\n        /* \"#utility.yul\":3997:4000   */\n      0x00\n        /* \"#utility.yul\":4025:4064   */\n      tag_127\n        /* \"#utility.yul\":4058:4063   */\n      dup3\n        /* \"#utility.yul\":4025:4064   */\n      tag_128\n      jump\t// in\n    tag_127:\n        /* \"#utility.yul\":4080:4141   */\n      tag_129\n        /* \"#utility.yul\":4134:4140   */\n      dup2\n        /* \"#utility.yul\":4129:4132   */\n      dup6\n        /* \"#utility.yul\":4080:4141   */\n      tag_130\n      jump\t// in\n    tag_129:\n        /* \"#utility.yul\":4073:4141   */\n      swap4\n      pop\n        /* \"#utility.yul\":4150:4202   */\n      tag_131\n        /* \"#utility.yul\":4195:4201   */\n      dup2\n        /* \"#utility.yul\":4190:4193   */\n      dup6\n        /* \"#utility.yul\":4183:4187   */\n      0x20\n        /* \"#utility.yul\":4176:4181   */\n      dup7\n        /* \"#utility.yul\":4172:4188   */\n      add\n        /* \"#utility.yul\":4150:4202   */\n      tag_132\n      jump\t// in\n    tag_131:\n        /* \"#utility.yul\":4227:4256   */\n      tag_133\n        /* \"#utility.yul\":4249:4255   */\n      dup2\n        /* \"#utility.yul\":4227:4256   */\n      tag_134\n      jump\t// in\n    tag_133:\n        /* \"#utility.yul\":4222:4225   */\n      dup5\n        /* \"#utility.yul\":4218:4257   */\n      add\n        /* \"#utility.yul\":4211:4257   */\n      swap2\n      pop\n        /* \"#utility.yul\":4001:4263   */\n      pop\n        /* \"#utility.yul\":3919:4263   */\n      swap3\n      swap2\n      pop\n      pop\n      jump\t// out\n        /* \"#utility.yul\":4269:4943   */\n    tag_8:\n        /* \"#utility.yul\":4510:4514   */\n      0x00\n        /* \"#utility.yul\":4548:4550   */\n      0x40\n        /* \"#utility.yul\":4537:4546   */\n      dup3\n        /* \"#utility.yul\":4533:4551   */\n      add\n        /* \"#utility.yul\":4525:4551   */\n      swap1\n      pop\n        /* \"#utility.yul\":4597:4606   */\n      dup2\n        /* \"#utility.yul\":4591:4595   */\n      dup2\n        /* \"#utility.yul\":4587:4607   */\n      sub\n        /* \"#utility.yul\":4583:4584   */\n      0x00\n        /* \"#utility.yul\":4572:4581   */\n      dup4\n        /* \"#utility.yul\":4568:4585   */\n      add\n        /* \"#utility.yul\":4561:4608   */\n      mstore\n        /* \"#utility.yul\":4625:4733   */\n      tag_136\n        /* \"#utility.yul\":4728:4732   */\n      dup2\n        /* \"#utility.yul\":4719:4725   */\n      dup6\n        /* \"#utility.yul\":4625:4733   */\n      tag_98\n      jump\t// in\n    tag_136:\n        /* \"#utility.yul\":4617:4733   */\n      swap1\n      pop\n        /* \"#utility.yul\":4780:4789   */\n      dup2\n        /* \"#utility.yul\":4774:4778   */\n      dup2\n        /* \"#utility.yul\":4770:4790   */\n      sub\n        /* \"#utility.yul\":4765:4767   */\n      0x20\n        /* \"#utility.yul\":4754:4763   */\n      dup4\n        /* \"#utility.yul\":4750:4768   */\n      add\n        /* \"#utility.yul\":4743:4791   */\n      mstore\n        /* \"#utility.yul\":4808:4936   */\n      tag_137\n        /* \"#utility.yul\":4931:4935   */\n      dup2\n        /* \"#utility.yul\":4922:4928   */\n      dup5\n        /* \"#utility.yul\":4808:4936   */\n      tag_112\n      jump\t// in\n    tag_137:\n        /* \"#utility.yul\":4800:4936   */\n      swap1\n      pop\n        /* \"#utility.yul\":4269:4943   */\n      swap4\n      swap3\n      pop\n      pop\n      pop\n      jump\t// out\n        /* \"#utility.yul\":4949:5078   */\n    tag_64:\n        /* \"#utility.yul\":4983:4989   */\n      0x00\n        /* \"#utility.yul\":5010:5030   */\n      tag_139\n      tag_140\n      jump\t// in\n    tag_139:\n        /* \"#utility.yul\":5000:5030   */\n      swap1\n      pop\n        /* \"#utility.yul\":5039:5072   */\n      tag_141\n        /* \"#utility.yul\":5067:5071   */\n      dup3\n        /* \"#utility.yul\":5059:5065   */\n      dup3\n        /* \"#utility.yul\":5039:5072   */\n      tag_142\n      jump\t// in\n    tag_141:\n        /* \"#utility.yul\":4949:5078   */\n      swap2\n      swap1\n      pop\n      jump\t// out\n        /* \"#utility.yul\":5084:5159   */\n    tag_140:\n        /* \"#utility.yul\":5117:5123   */\n      0x00\n        /* \"#utility.yul\":5150:5152   */\n      0x40\n        /* \"#utility.yul\":5144:5153   */\n      mload\n        /* \"#utility.yul\":5134:5153   */\n      swap1\n      pop\n        /* \"#utility.yul\":5084:5159   */\n      swap1\n      jump\t// out\n        /* \"#utility.yul\":5165:5473   */\n    tag_63:\n        /* \"#utility.yul\":5227:5231   */\n      0x00\n        /* \"#utility.yul\":5317:5335   */\n      0xffffffffffffffff\n        /* \"#utility.yul\":5309:5315   */\n      dup3\n        /* \"#utility.yul\":5306:5336   */\n      gt\n        /* \"#utility.yul\":5303:5359   */\n      iszero\n      tag_145\n      jumpi\n        /* \"#utility.yul\":5339:5357   */\n      tag_146\n      tag_16\n      jump\t// in\n    tag_146:\n        /* \"#utility.yul\":5303:5359   */\n    tag_145:\n        /* \"#utility.yul\":5377:5406   */\n      tag_147\n        /* \"#utility.yul\":5399:5405   */\n      dup3\n        /* \"#utility.yul\":5377:5406   */\n      tag_134\n      jump\t// in\n    tag_147:\n        /* \"#utility.yul\":5369:5406   */\n      swap1\n      pop\n        /* \"#utility.yul\":5461:5465   */\n      0x20\n        /* \"#utility.yul\":5455:5459   */\n      dup2\n        /* \"#utility.yul\":5451:5466   */\n      add\n        /* \"#utility.yul\":5443:5466   */\n      swap1\n      pop\n        /* \"#utility.yul\":5165:5473   */\n      swap2\n      swap1\n      pop\n      jump\t// out\n        /* \"#utility.yul\":5479:5611   */\n    tag_105:\n        /* \"#utility.yul\":5546:5550   */\n      0x00\n        /* \"#utility.yul\":5569:5572   */\n      dup2\n        /* \"#utility.yul\":5561:5572   */\n      swap1\n      pop\n        /* \"#utility.yul\":5599:5603   */\n      0x20\n        /* \"#utility.yul\":5594:5597   */\n      dup3\n        /* \"#utility.yul\":5590:5604   */\n      add\n        /* \"#utility.yul\":5582:5604   */\n      swap1\n      pop\n        /* \"#utility.yul\":5479:5611   */\n      swap2\n      swap1\n      pop\n      jump\t// out\n        /* \"#utility.yul\":5617:5759   */\n    tag_119:\n        /* \"#utility.yul\":5694:5698   */\n      0x00\n        /* \"#utility.yul\":5717:5720   */\n      dup2\n        /* \"#utility.yul\":5709:5720   */\n      swap1\n      pop\n        /* \"#utility.yul\":5747:5751   */\n      0x20\n        /* \"#utility.yul\":5742:5745   */\n      dup3\n        /* \"#utility.yul\":5738:5752   */\n      add\n        /* \"#utility.yul\":5730:5752   */\n      swap1\n      pop\n        /* \"#utility.yul\":5617:5759   */\n      swap2\n      swap1\n      pop\n      jump\t// out\n        /* \"#utility.yul\":5765:5879   */\n    tag_101:\n        /* \"#utility.yul\":5832:5838   */\n      0x00\n        /* \"#utility.yul\":5866:5871   */\n      dup2\n        /* \"#utility.yul\":5860:5872   */\n      mload\n        /* \"#utility.yul\":5850:5872   */\n      swap1\n      pop\n        /* \"#utility.yul\":5765:5879   */\n      swap2\n      swap1\n      pop\n      jump\t// out\n        /* \"#utility.yul\":5885:6009   */\n    tag_115:\n        /* \"#utility.yul\":5962:5968   */\n      0x00\n        /* \"#utility.yul\":5996:6001   */\n      dup2\n        /* \"#utility.yul\":5990:6002   */\n      mload\n        /* \"#utility.yul\":5980:6002   */\n      swap1\n      pop\n        /* \"#utility.yul\":5885:6009   */\n      swap2\n      swap1\n      pop\n      jump\t// out\n        /* \"#utility.yul\":6015:6114   */\n    tag_128:\n        /* \"#utility.yul\":6067:6073   */\n      0x00\n        /* \"#utility.yul\":6101:6106   */\n      dup2\n        /* \"#utility.yul\":6095:6107   */\n      mload\n        /* \"#utility.yul\":6085:6107   */\n      swap1\n      pop\n        /* \"#utility.yul\":6015:6114   */\n      swap2\n      swap1\n      pop\n      jump\t// out\n        /* \"#utility.yul\":6120:6233   */\n    tag_111:\n        /* \"#utility.yul\":6190:6194   */\n      0x00\n        /* \"#utility.yul\":6222:6226   */\n      0x20\n        /* \"#utility.yul\":6217:6220   */\n      dup3\n        /* \"#utility.yul\":6213:6227   */\n      add\n        /* \"#utility.yul\":6205:6227   */\n      swap1\n      pop\n        /* \"#utility.yul\":6120:6233   */\n      swap2\n      swap1\n      pop\n      jump\t// out\n        /* \"#utility.yul\":6239:6362   */\n    tag_125:\n        /* \"#utility.yul\":6319:6323   */\n      0x00\n        /* \"#utility.yul\":6351:6355   */\n      0x20\n        /* \"#utility.yul\":6346:6349   */\n      dup3\n        /* \"#utility.yul\":6342:6356   */\n      add\n        /* \"#utility.yul\":6334:6356   */\n      swap1\n      pop\n        /* \"#utility.yul\":6239:6362   */\n      swap2\n      swap1\n      pop\n      jump\t// out\n        /* \"#utility.yul\":6368:6552   */\n    tag_103:\n        /* \"#utility.yul\":6467:6478   */\n      0x00\n        /* \"#utility.yul\":6501:6507   */\n      dup3\n        /* \"#utility.yul\":6496:6499   */\n      dup3\n        /* \"#utility.yul\":6489:6508   */\n      mstore\n        /* \"#utility.yul\":6541:6545   */\n      0x20\n        /* \"#utility.yul\":6536:6539   */\n      dup3\n        /* \"#utility.yul\":6532:6546   */\n      add\n        /* \"#utility.yul\":6517:6546   */\n      swap1\n      pop\n        /* \"#utility.yul\":6368:6552   */\n      swap3\n      swap2\n      pop\n      pop\n      jump\t// out\n        /* \"#utility.yul\":6558:6752   */\n    tag_117:\n        /* \"#utility.yul\":6667:6678   */\n      0x00\n        /* \"#utility.yul\":6701:6707   */\n      dup3\n        /* \"#utility.yul\":6696:6699   */\n      dup3\n        /* \"#utility.yul\":6689:6708   */\n      mstore\n        /* \"#utility.yul\":6741:6745   */\n      0x20\n        /* \"#utility.yul\":6736:6739   */\n      dup3\n        /* \"#utility.yul\":6732:6746   */\n      add\n        /* \"#utility.yul\":6717:6746   */\n      swap1\n      pop\n        /* \"#utility.yul\":6558:6752   */\n      swap3\n      swap2\n      pop\n      pop\n      jump\t// out\n        /* \"#utility.yul\":6758:6917   */\n    tag_130:\n        /* \"#utility.yul\":6832:6843   */\n      0x00\n        /* \"#utility.yul\":6866:6872   */\n      dup3\n        /* \"#utility.yul\":6861:6864   */\n      dup3\n        /* \"#utility.yul\":6854:6873   */\n      mstore\n        /* \"#utility.yul\":6906:6910   */\n      0x20\n        /* \"#utility.yul\":6901:6904   */\n      dup3\n        /* \"#utility.yul\":6897:6911   */\n      add\n        /* \"#utility.yul\":6882:6911   */\n      swap1\n      pop\n        /* \"#utility.yul\":6758:6917   */\n      swap3\n      swap2\n      pop\n      pop\n      jump\t// out\n        /* \"#utility.yul\":6923:7019   */\n    tag_97:\n        /* \"#utility.yul\":6960:6967   */\n      0x00\n        /* \"#utility.yul\":6989:7013   */\n      tag_159\n        /* \"#utility.yul\":7007:7012   */\n      dup3\n        /* \"#utility.yul\":6989:7013   */\n      tag_160\n      jump\t// in\n    tag_159:\n        /* \"#utility.yul\":6978:7013   */\n      swap1\n      pop\n        /* \"#utility.yul\":6923:7019   */\n      swap2\n      swap1\n      pop\n      jump\t// out\n        /* \"#utility.yul\":7025:7151   */\n    tag_160:\n        /* \"#utility.yul\":7062:7069   */\n      0x00\n        /* \"#utility.yul\":7102:7144   */\n      0xffffffffffffffffffffffffffffffffffffffff\n        /* \"#utility.yul\":7095:7100   */\n      dup3\n        /* \"#utility.yul\":7091:7145   */\n      and\n        /* \"#utility.yul\":7080:7145   */\n      swap1\n      pop\n        /* \"#utility.yul\":7025:7151   */\n      swap2\n      swap1\n      pop\n      jump\t// out\n        /* \"#utility.yul\":7157:7234   */\n    tag_162:\n        /* \"#utility.yul\":7194:7201   */\n      0x00\n        /* \"#utility.yul\":7223:7228   */\n      dup2\n        /* \"#utility.yul\":7212:7228   */\n      swap1\n      pop\n        /* \"#utility.yul\":7157:7234   */\n      swap2\n      swap1\n      pop\n      jump\t// out\n        /* \"#utility.yul\":7240:7394   */\n    tag_69:\n        /* \"#utility.yul\":7324:7330   */\n      dup3\n        /* \"#utility.yul\":7319:7322   */\n      dup2\n        /* \"#utility.yul\":7314:7317   */\n      dup4\n        /* \"#utility.yul\":7301:7331   */\n      calldatacopy\n        /* \"#utility.yul\":7386:7387   */\n      0x00\n        /* \"#utility.yul\":7377:7383   */\n      dup4\n        /* \"#utility.yul\":7372:7375   */\n      dup4\n        /* \"#utility.yul\":7368:7384   */\n      add\n        /* \"#utility.yul\":7361:7388   */\n      mstore\n        /* \"#utility.yul\":7240:7394   */\n      pop\n      pop\n      pop\n      jump\t// out\n        /* \"#utility.yul\":7400:7707   */\n    tag_132:\n        /* \"#utility.yul\":7468:7469   */\n      0x00\n        /* \"#utility.yul\":7478:7591   */\n    tag_166:\n        /* \"#utility.yul\":7492:7498   */\n      dup4\n        /* \"#utility.yul\":7489:7490   */\n      dup2\n        /* \"#utility.yul\":7486:7499   */\n      lt\n        /* \"#utility.yul\":7478:7591   */\n      iszero\n      tag_168\n      jumpi\n        /* \"#utility.yul\":7577:7578   */\n      dup1\n        /* \"#utility.yul\":7572:7575   */\n      dup3\n        /* \"#utility.yul\":7568:7579   */\n      add\n        /* \"#utility.yul\":7562:7580   */\n      mload\n        /* \"#utility.yul\":7558:7559   */\n      dup2\n        /* \"#utility.yul\":7553:7556   */\n      dup5\n        /* \"#utility.yul\":7549:7560   */\n      add\n        /* \"#utility.yul\":7542:7581   */\n      mstore\n        /* \"#utility.yul\":7514:7516   */\n      0x20\n        /* \"#utility.yul\":7511:7512   */\n      dup2\n        /* \"#utility.yul\":7507:7517   */\n      add\n        /* \"#utility.yul\":7502:7517   */\n      swap1\n      pop\n        /* \"#utility.yul\":7478:7591   */\n      jump(tag_166)\n    tag_168:\n        /* \"#utility.yul\":7609:7615   */\n      dup4\n        /* \"#utility.yul\":7606:7607   */\n      dup2\n        /* \"#utility.yul\":7603:7616   */\n      gt\n        /* \"#utility.yul\":7600:7701   */\n      iszero\n      tag_169\n      jumpi\n        /* \"#utility.yul\":7689:7690   */\n      0x00\n        /* \"#utility.yul\":7680:7686   */\n      dup5\n        /* \"#utility.yul\":7675:7678   */\n      dup5\n        /* \"#utility.yul\":7671:7687   */\n      add\n        /* \"#utility.yul\":7664:7691   */\n      mstore\n        /* \"#utility.yul\":7600:7701   */\n    tag_169:\n        /* \"#utility.yul\":7449:7707   */\n      pop\n        /* \"#utility.yul\":7400:7707   */\n      pop\n      pop\n      pop\n      jump\t// out\n        /* \"#utility.yul\":7713:8033   */\n    tag_35:\n        /* \"#utility.yul\":7757:7763   */\n      0x00\n        /* \"#utility.yul\":7794:7795   */\n      0x02\n        /* \"#utility.yul\":7788:7792   */\n      dup3\n        /* \"#utility.yul\":7784:7796   */\n      div\n        /* \"#utility.yul\":7774:7796   */\n      swap1\n      pop\n        /* \"#utility.yul\":7841:7842   */\n      0x01\n        /* \"#utility.yul\":7835:7839   */\n      dup3\n        /* \"#utility.yul\":7831:7843   */\n      and\n        /* \"#utility.yul\":7862:7880   */\n      dup1\n        /* \"#utility.yul\":7852:7933   */\n      tag_171\n      jumpi\n        /* \"#utility.yul\":7918:7922   */\n      0x7f\n        /* \"#utility.yul\":7910:7916   */\n      dup3\n        /* \"#utility.yul\":7906:7923   */\n      and\n        /* \"#utility.yul\":7896:7923   */\n      swap2\n      pop\n        /* \"#utility.yul\":7852:7933   */\n    tag_171:\n        /* \"#utility.yul\":7980:7982   */\n      0x20\n        /* \"#utility.yul\":7972:7978   */\n      dup3\n        /* \"#utility.yul\":7969:7983   */\n      lt\n        /* \"#utility.yul\":7949:7967   */\n      dup2\n        /* \"#utility.yul\":7946:7984   */\n      eq\n        /* \"#utility.yul\":7943:8027   */\n      iszero\n      tag_172\n      jumpi\n        /* \"#utility.yul\":7999:8017   */\n      tag_173\n      tag_174\n      jump\t// in\n    tag_173:\n        /* \"#utility.yul\":7943:8027   */\n    tag_172:\n        /* \"#utility.yul\":7764:8033   */\n      pop\n        /* \"#utility.yul\":7713:8033   */\n      swap2\n      swap1\n      pop\n      jump\t// out\n        /* \"#utility.yul\":8039:8320   */\n    tag_142:\n        /* \"#utility.yul\":8122:8149   */\n      tag_176\n        /* \"#utility.yul\":8144:8148   */\n      dup3\n        /* \"#utility.yul\":8122:8149   */\n      tag_134\n      jump\t// in\n    tag_176:\n        /* \"#utility.yul\":8114:8120   */\n      dup2\n        /* \"#utility.yul\":8110:8150   */\n      add\n        /* \"#utility.yul\":8252:8258   */\n      dup2\n        /* \"#utility.yul\":8240:8250   */\n      dup2\n        /* \"#utility.yul\":8237:8259   */\n      lt\n        /* \"#utility.yul\":8216:8234   */\n      0xffffffffffffffff\n        /* \"#utility.yul\":8204:8214   */\n      dup3\n        /* \"#utility.yul\":8201:8235   */\n      gt\n        /* \"#utility.yul\":8198:8260   */\n      or\n        /* \"#utility.yul\":8195:8283   */\n      iszero\n      tag_177\n      jumpi\n        /* \"#utility.yul\":8263:8281   */\n      tag_178\n      tag_16\n      jump\t// in\n    tag_178:\n        /* \"#utility.yul\":8195:8283   */\n    tag_177:\n        /* \"#utility.yul\":8303:8313   */\n      dup1\n        /* \"#utility.yul\":8299:8301   */\n      0x40\n        /* \"#utility.yul\":8292:8314   */\n      mstore\n        /* \"#utility.yul\":8082:8320   */\n      pop\n        /* \"#utility.yul\":8039:8320   */\n      pop\n      pop\n      jump\t// out\n        /* \"#utility.yul\":8326:8559   */\n    tag_43:\n        /* \"#utility.yul\":8365:8368   */\n      0x00\n        /* \"#utility.yul\":8388:8412   */\n      tag_180\n        /* \"#utility.yul\":8406:8411   */\n      dup3\n        /* \"#utility.yul\":8388:8412   */\n      tag_162\n      jump\t// in\n    tag_180:\n        /* \"#utility.yul\":8379:8412   */\n      swap2\n      pop\n        /* \"#utility.yul\":8434:8500   */\n      0xffffffffffffffffffffffffffffffffffffffffffffffffffffffffffffffff\n        /* \"#utility.yul\":8427:8432   */\n      dup3\n        /* \"#utility.yul\":8424:8501   */\n      eq\n        /* \"#utility.yul\":8421:8524   */\n      iszero\n      tag_181\n      jumpi\n        /* \"#utility.yul\":8504:8522   */\n      tag_182\n      tag_183\n      jump\t// in\n    tag_182:\n        /* \"#utility.yul\":8421:8524   */\n    tag_181:\n        /* \"#utility.yul\":8551:8552   */\n      0x01\n        /* \"#utility.yul\":8544:8549   */\n      dup3\n        /* \"#utility.yul\":8540:8553   */\n      add\n        /* \"#utility.yul\":8533:8553   */\n      swap1\n      pop\n        /* \"#utility.yul\":8326:8559   */\n      swap2\n      swap1\n      pop\n      jump\t// out\n        /* \"#utility.yul\":8565:8745   */\n    tag_183:\n        /* \"#utility.yul\":8613:8690   */\n      0x4e487b7100000000000000000000000000000000000000000000000000000000\n        /* \"#utility.yul\":8610:8611   */\n      0x00\n        /* \"#utility.yul\":8603:8691   */\n      mstore\n        /* \"#utility.yul\":8710:8714   */\n      0x11\n        /* \"#utility.yul\":8707:8708   */\n      0x04\n        /* \"#utility.yul\":8700:8715   */\n      mstore\n        /* \"#utility.yul\":8734:8738   */\n      0x24\n        /* \"#utility.yul\":8731:8732   */\n      0x00\n        /* \"#utility.yul\":8724:8739   */\n      revert\n        /* \"#utility.yul\":8751:8931   */\n    tag_174:\n        /* \"#utility.yul\":8799:8876   */\n      0x4e487b7100000000000000000000000000000000000000000000000000000000\n        /* \"#utility.yul\":8796:8797   */\n      0x00\n        /* \"#utility.yul\":8789:8877   */\n      mstore\n        /* \"#utility.yul\":8896:8900   */\n      0x22\n        /* \"#utility.yul\":8893:8894   */\n      0x04\n        /* \"#utility.yul\":8886:8901   */\n      mstore\n        /* \"#utility.yul\":8920:8924   */\n      0x24\n        /* \"#utility.yul\":8917:8918   */\n      0x00\n        /* \"#utility.yul\":8910:8925   */\n      revert\n        /* \"#utility.yul\":8937:9117   */\n    tag_27:\n        /* \"#utility.yul\":8985:9062   */\n      0x4e487b7100000000000000000000000000000000000000000000000000000000\n        /* \"#utility.yul\":8982:8983   */\n      0x00\n        /* \"#utility.yul\":8975:9063   */\n      mstore\n        /* \"#utility.yul\":9082:9086   */\n      0x32\n        /* \"#utility.yul\":9079:9080   */\n      0x04\n        /* \"#utility.yul\":9072:9087   */\n      mstore\n        /* \"#utility.yul\":9106:9110   */\n      0x24\n        /* \"#utility.yul\":9103:9104   */\n      0x00\n        /* \"#utility.yul\":9096:9111   */\n      revert\n        /* \"#utility.yul\":9123:9303   */\n    tag_16:\n        /* \"#utility.yul\":9171:9248   */\n      0x4e487b7100000000000000000000000000000000000000000000000000000000\n        /* \"#utility.yul\":9168:9169   */\n      0x00\n        /* \"#utility.yul\":9161:9249   */\n      mstore\n        /* \"#utility.yul\":9268:9272   */\n      0x41\n        /* \"#utility.yul\":9265:9266   */\n      0x04\n        /* \"#utility.yul\":9258:9273   */\n      mstore\n        /* \"#utility.yul\":9292:9296   */\n      0x24\n        /* \"#utility.yul\":9289:9290   */\n      0x00\n        /* \"#utility.yul\":9282:9297   */\n      revert\n        /* \"#utility.yul\":9309:9426   */\n    tag_74:\n        /* \"#utility.yul\":9418:9419   */\n      0x00\n        /* \"#utility.yul\":9415:9416   */\n      dup1\n        /* \"#utility.yul\":9408:9420   */\n      revert\n        /* \"#utility.yul\":9432:9549   */\n    tag_67:\n        /* \"#utility.yul\":9541:9542   */\n      0x00\n        /* \"#utility.yul\":9538:9539   */\n      dup1\n        /* \"#utility.yul\":9531:9543   */\n      revert\n        /* \"#utility.yul\":9555:9672   */\n    tag_82:\n        /* \"#utility.yul\":9664:9665   */\n      0x00\n        /* \"#utility.yul\":9661:9662   */\n      dup1\n        /* \"#utility.yul\":9654:9666   */\n      revert\n        /* \"#utility.yul\":9678:9795   */\n    tag_79:\n        /* \"#utility.yul\":9787:9788   */\n      0x00\n        /* \"#utility.yul\":9784:9785   */\n      dup1\n        /* \"#utility.yul\":9777:9789   */\n      revert\n        /* \"#utility.yul\":9801:9903   */\n    tag_134:\n        /* \"#utility.yul\":9842:9848   */\n      0x00\n        /* \"#utility.yul\":9893:9895   */\n      0x1f\n        /* \"#utility.yul\":9889:9896   */\n      not\n        /* \"#utility.yul\":9884:9886   */\n      0x1f\n        /* \"#utility.yul\":9877:9882   */\n      dup4\n        /* \"#utility.yul\":9873:9887   */\n      add\n        /* \"#utility.yul\":9869:9897   */\n      and\n        /* \"#utility.yul\":9859:9897   */\n      swap1\n      pop\n        /* \"#utility.yul\":9801:9903   */\n      swap2\n      swap1\n      pop\n      jump\t// out\n\n    auxdata: 0xa2646970667358221220e2f606bbc773f0735e0c4841d63ac5391803ad86b6fdc4b000b2117e0e01b79f64736f6c63430008070033\n}\n",
				"bytecode": {
					"linkReferences": {},
					"object": "608060405234801561001057600080fd5b50610994806100206000396000f3fe608060405234801561001057600080fd5b50600436106100365760003560e01c80632e64cec11461003b578063f87613761461005a575b600080fd5b610043610076565b604051610051929190610638565b60405180910390f35b610074600480360381019061006f9190610479565b61030f565b005b606080600060018054905067ffffffffffffffff81111561009a5761009961090a565b5b6040519080825280602002602001820160405280156100c85781602001602082028036833780820191505090505b509050600060018054905067ffffffffffffffff8111156100ec576100eb61090a565b5b60405190808252806020026020018201604052801561011f57816020015b606081526020019060019003908161010a5790505b50905060005b6001805490508110156103025760018181548110610146576101456108db565b5b9060005260206000200160009054906101000a900473ffffffffffffffffffffffffffffffffffffffff16838281518110610184576101836108db565b5b602002602001019073ffffffffffffffffffffffffffffffffffffffff16908173ffffffffffffffffffffffffffffffffffffffff1681525050600080600183815481106101d5576101d46108db565b5b9060005260206000200160009054906101000a900473ffffffffffffffffffffffffffffffffffffffff1673ffffffffffffffffffffffffffffffffffffffff1673ffffffffffffffffffffffffffffffffffffffff1681526020019081526020016000208054610245906107d1565b80601f0160208091040260200160405190810160405280929190818152602001828054610271906107d1565b80156102be5780601f10610293576101008083540402835291602001916102be565b820191906000526020600020905b8154815290600101906020018083116102a157829003601f168201915b50505050508282815181106102d6576102d56108db565b5b602002602001018190525080806102ec90610834565b91505080806102fa90610834565b915050610125565b5081819350935050509091565b816000803373ffffffffffffffffffffffffffffffffffffffff1673ffffffffffffffffffffffffffffffffffffffff1681526020019081526020016000209080519060200190610361929190610366565b505050565b828054610372906107d1565b90600052602060002090601f01602090048101928261039457600085556103db565b82601f106103ad57805160ff19168380011785556103db565b828001600101855582156103db579182015b828111156103da5782518255916020019190600101906103bf565b5b5090506103e891906103ec565b5090565b5b808211156104055760008160009055506001016103ed565b5090565b600061041c61041784610694565b61066f565b9050828152602081018484840111156104385761043761093e565b5b61044384828561078f565b509392505050565b600082601f8301126104605761045f610939565b5b8135610470848260208601610409565b91505092915050565b600080604083850312156104905761048f610948565b5b600083013567ffffffffffffffff8111156104ae576104ad610943565b5b6104ba8582860161044b565b925050602083013567ffffffffffffffff8111156104db576104da610943565b5b6104e78582860161044b565b9150509250929050565b60006104fd838361051d565b60208301905092915050565b600061051583836105ff565b905092915050565b61052681610753565b82525050565b6000610537826106e5565b6105418185610720565b935061054c836106c5565b8060005b8381101561057d57815161056488826104f1565b975061056f83610706565b925050600181019050610550565b5085935050505092915050565b6000610595826106f0565b61059f8185610731565b9350836020820285016105b1856106d5565b8060005b858110156105ed57848403895281516105ce8582610509565b94506105d983610713565b925060208a019950506001810190506105b5565b50829750879550505050505092915050565b600061060a826106fb565b6106148185610742565b935061062481856020860161079e565b61062d8161094d565b840191505092915050565b60006040820190508181036000830152610652818561052c565b90508181036020830152610666818461058a565b90509392505050565b600061067961068a565b90506106858282610803565b919050565b6000604051905090565b600067ffffffffffffffff8211156106af576106ae61090a565b5b6106b88261094d565b9050602081019050919050565b6000819050602082019050919050565b6000819050602082019050919050565b600081519050919050565b600081519050919050565b600081519050919050565b6000602082019050919050565b6000602082019050919050565b600082825260208201905092915050565b600082825260208201905092915050565b600082825260208201905092915050565b600061075e82610765565b9050919050565b600073ffffffffffffffffffffffffffffffffffffffff82169050919050565b6000819050919050565b82818337600083830152505050565b60005b838110156107bc5780820151818401526020810190506107a1565b838111156107cb576000848401525b50505050565b600060028204905060018216806107e957607f821691505b602082108114156107fd576107fc6108ac565b5b50919050565b61080c8261094d565b810181811067ffffffffffffffff8211171561082b5761082a61090a565b5b80604052505050565b600061083f82610785565b91507fffffffffffffffffffffffffffffffffffffffffffffffffffffffffffffffff8214156108725761087161087d565b5b600182019050919050565b7f4e487b7100000000000000000000000000000000000000000000000000000000600052601160045260246000fd5b7f4e487b7100000000000000000000000000000000000000000000000000000000600052602260045260246000fd5b7f4e487b7100000000000000000000000000000000000000000000000000000000600052603260045260246000fd5b7f4e487b7100000000000000000000000000000000000000000000000000000000600052604160045260246000fd5b600080fd5b600080fd5b600080fd5b600080fd5b6000601f19601f830116905091905056fea2646970667358221220e2f606bbc773f0735e0c4841d63ac5391803ad86b6fdc4b000b2117e0e01b79f64736f6c63430008070033",
					"opcodes": "PUSH1 0x80 PUSH1 0x40 MSTORE CALLVALUE DUP1 ISZERO PUSH2 0x10 JUMPI PUSH1 0x0 DUP1 REVERT JUMPDEST POP PUSH2 0x994 DUP1 PUSH2 0x20 PUSH1 0x0 CODECOPY PUSH1 0x0 RETURN INVALID PUSH1 0x80 PUSH1 0x40 MSTORE CALLVALUE DUP1 ISZERO PUSH2 0x10 JUMPI PUSH1 0x0 DUP1 REVERT JUMPDEST POP PUSH1 0x4 CALLDATASIZE LT PUSH2 0x36 JUMPI PUSH1 0x0 CALLDATALOAD PUSH1 0xE0 SHR DUP1 PUSH4 0x2E64CEC1 EQ PUSH2 0x3B JUMPI DUP1 PUSH4 0xF8761376 EQ PUSH2 0x5A JUMPI JUMPDEST PUSH1 0x0 DUP1 REVERT JUMPDEST PUSH2 0x43 PUSH2 0x76 JUMP JUMPDEST PUSH1 0x40 MLOAD PUSH2 0x51 SWAP3 SWAP2 SWAP1 PUSH2 0x638 JUMP JUMPDEST PUSH1 0x40 MLOAD DUP1 SWAP2 SUB SWAP1 RETURN JUMPDEST PUSH2 0x74 PUSH1 0x4 DUP1 CALLDATASIZE SUB DUP2 ADD SWAP1 PUSH2 0x6F SWAP2 SWAP1 PUSH2 0x479 JUMP JUMPDEST PUSH2 0x30F JUMP JUMPDEST STOP JUMPDEST PUSH1 0x60 DUP1 PUSH1 0x0 PUSH1 0x1 DUP1 SLOAD SWAP1 POP PUSH8 0xFFFFFFFFFFFFFFFF DUP2 GT ISZERO PUSH2 0x9A JUMPI PUSH2 0x99 PUSH2 0x90A JUMP JUMPDEST JUMPDEST PUSH1 0x40 MLOAD SWAP1 DUP1 DUP3 MSTORE DUP1 PUSH1 0x20 MUL PUSH1 0x20 ADD DUP3 ADD PUSH1 0x40 MSTORE DUP1 ISZERO PUSH2 0xC8 JUMPI DUP2 PUSH1 0x20 ADD PUSH1 0x20 DUP3 MUL DUP1 CALLDATASIZE DUP4 CALLDATACOPY DUP1 DUP3 ADD SWAP2 POP POP SWAP1 POP JUMPDEST POP SWAP1 POP PUSH1 0x0 PUSH1 0x1 DUP1 SLOAD SWAP1 POP PUSH8 0xFFFFFFFFFFFFFFFF DUP2 GT ISZERO PUSH2 0xEC JUMPI PUSH2 0xEB PUSH2 0x90A JUMP JUMPDEST JUMPDEST PUSH1 0x40 MLOAD SWAP1 DUP1 DUP3 MSTORE DUP1 PUSH1 0x20 MUL PUSH1 0x20 ADD DUP3 ADD PUSH1 0x40 MSTORE DUP1 ISZERO PUSH2 0x11F JUMPI DUP2 PUSH1 0x20 ADD JUMPDEST PUSH1 0x60 DUP2 MSTORE PUSH1 0x20 ADD SWAP1 PUSH1 0x1 SWAP1 SUB SWAP1 DUP2 PUSH2 0x10A JUMPI SWAP1 POP JUMPDEST POP SWAP1 POP PUSH1 0x0 JUMPDEST PUSH1 0x1 DUP1 SLOAD SWAP1 POP DUP2 LT ISZERO PUSH2 0x302 JUMPI PUSH1 0x1 DUP2 DUP2 SLOAD DUP2 LT PUSH2 0x146 JUMPI PUSH2 0x145 PUSH2 0x8DB JUMP JUMPDEST JUMPDEST SWAP1 PUSH1 0x0 MSTORE PUSH1 0x20 PUSH1 0x0 KECCAK256 ADD PUSH1 0x0 SWAP1 SLOAD SWAP1 PUSH2 0x100 EXP SWAP1 DIV PUSH20 0xFFFFFFFFFFFFFFFFFFFFFFFFFFFFFFFFFFFFFFFF AND DUP4 DUP3 DUP2 MLOAD DUP2 LT PUSH2 0x184 JUMPI PUSH2 0x183 PUSH2 0x8DB JUMP JUMPDEST JUMPDEST PUSH1 0x20 MUL PUSH1 0x20 ADD ADD SWAP1 PUSH20 0xFFFFFFFFFFFFFFFFFFFFFFFFFFFFFFFFFFFFFFFF AND SWAP1 DUP2 PUSH20 0xFFFFFFFFFFFFFFFFFFFFFFFFFFFFFFFFFFFFFFFF AND DUP2 MSTORE POP POP PUSH1 0x0 DUP1 PUSH1 0x1 DUP4 DUP2 SLOAD DUP2 LT PUSH2 0x1D5 JUMPI PUSH2 0x1D4 PUSH2 0x8DB JUMP JUMPDEST JUMPDEST SWAP1 PUSH1 0x0 MSTORE PUSH1 0x20 PUSH1 0x0 KECCAK256 ADD PUSH1 0x0 SWAP1 SLOAD SWAP1 PUSH2 0x100 EXP SWAP1 DIV PUSH20 0xFFFFFFFFFFFFFFFFFFFFFFFFFFFFFFFFFFFFFFFF AND PUSH20 0xFFFFFFFFFFFFFFFFFFFFFFFFFFFFFFFFFFFFFFFF AND PUSH20 0xFFFFFFFFFFFFFFFFFFFFFFFFFFFFFFFFFFFFFFFF AND DUP2 MSTORE PUSH1 0x20 ADD SWAP1 DUP2 MSTORE PUSH1 0x20 ADD PUSH1 0x0 KECCAK256 DUP1 SLOAD PUSH2 0x245 SWAP1 PUSH2 0x7D1 JUMP JUMPDEST DUP1 PUSH1 0x1F ADD PUSH1 0x20 DUP1 SWAP2 DIV MUL PUSH1 0x20 ADD PUSH1 0x40 MLOAD SWAP1 DUP2 ADD PUSH1 0x40 MSTORE DUP1 SWAP3 SWAP2 SWAP1 DUP2 DUP2 MSTORE PUSH1 0x20 ADD DUP3 DUP1 SLOAD PUSH2 0x271 SWAP1 PUSH2 0x7D1 JUMP JUMPDEST DUP1 ISZERO PUSH2 0x2BE JUMPI DUP1 PUSH1 0x1F LT PUSH2 0x293 JUMPI PUSH2 0x100 DUP1 DUP4 SLOAD DIV MUL DUP4 MSTORE SWAP2 PUSH1 0x20 ADD SWAP2 PUSH2 0x2BE JUMP JUMPDEST DUP3 ADD SWAP2 SWAP1 PUSH1 0x0 MSTORE PUSH1 0x20 PUSH1 0x0 KECCAK256 SWAP1 JUMPDEST DUP2 SLOAD DUP2 MSTORE SWAP1 PUSH1 0x1 ADD SWAP1 PUSH1 0x20 ADD DUP1 DUP4 GT PUSH2 0x2A1 JUMPI DUP3 SWAP1 SUB PUSH1 0x1F AND DUP3 ADD SWAP2 JUMPDEST POP POP POP POP POP DUP3 DUP3 DUP2 MLOAD DUP2 LT PUSH2 0x2D6 JUMPI PUSH2 0x2D5 PUSH2 0x8DB JUMP JUMPDEST JUMPDEST PUSH1 0x20 MUL PUSH1 0x20 ADD ADD DUP2 SWAP1 MSTORE POP DUP1 DUP1 PUSH2 0x2EC SWAP1 PUSH2 0x834 JUMP JUMPDEST SWAP2 POP POP DUP1 DUP1 PUSH2 0x2FA SWAP1 PUSH2 0x834 JUMP JUMPDEST SWAP2 POP POP PUSH2 0x125 JUMP JUMPDEST POP DUP2 DUP2 SWAP4 POP SWAP4 POP POP POP SWAP1 SWAP2 JUMP JUMPDEST DUP2 PUSH1 0x0 DUP1 CALLER PUSH20 0xFFFFFFFFFFFFFFFFFFFFFFFFFFFFFFFFFFFFFFFF AND PUSH20 0xFFFFFFFFFFFFFFFFFFFFFFFFFFFFFFFFFFFFFFFF AND DUP2 MSTORE PUSH1 0x20 ADD SWAP1 DUP2 MSTORE PUSH1 0x20 ADD PUSH1 0x0 KECCAK256 SWAP1 DUP1 MLOAD SWAP1 PUSH1 0x20 ADD SWAP1 PUSH2 0x361 SWAP3 SWAP2 SWAP1 PUSH2 0x366 JUMP JUMPDEST POP POP POP JUMP JUMPDEST DUP3 DUP1 SLOAD PUSH2 0x372 SWAP1 PUSH2 0x7D1 JUMP JUMPDEST SWAP1 PUSH1 0x0 MSTORE PUSH1 0x20 PUSH1 0x0 KECCAK256 SWAP1 PUSH1 0x1F ADD PUSH1 0x20 SWAP1 DIV DUP2 ADD SWAP3 DUP3 PUSH2 0x394 JUMPI PUSH1 0x0 DUP6 SSTORE PUSH2 0x3DB JUMP JUMPDEST DUP3 PUSH1 0x1F LT PUSH2 0x3AD JUMPI DUP1 MLOAD PUSH1 0xFF NOT AND DUP4 DUP1 ADD OR DUP6 SSTORE PUSH2 0x3DB JUMP JUMPDEST DUP3 DUP1 ADD PUSH1 0x1 ADD DUP6 SSTORE DUP3 ISZERO PUSH2 0x3DB JUMPI SWAP2 DUP3 ADD JUMPDEST DUP3 DUP2 GT ISZERO PUSH2 0x3DA JUMPI DUP3 MLOAD DUP3 SSTORE SWAP2 PUSH1 0x20 ADD SWAP2 SWAP1 PUSH1 0x1 ADD SWAP1 PUSH2 0x3BF JUMP JUMPDEST JUMPDEST POP SWAP1 POP PUSH2 0x3E8 SWAP2 SWAP1 PUSH2 0x3EC JUMP JUMPDEST POP SWAP1 JUMP JUMPDEST JUMPDEST DUP1 DUP3 GT ISZERO PUSH2 0x405 JUMPI PUSH1 0x0 DUP2 PUSH1 0x0 SWAP1 SSTORE POP PUSH1 0x1 ADD PUSH2 0x3ED JUMP JUMPDEST POP SWAP1 JUMP JUMPDEST PUSH1 0x0 PUSH2 0x41C PUSH2 0x417 DUP5 PUSH2 0x694 JUMP JUMPDEST PUSH2 0x66F JUMP JUMPDEST SWAP1 POP DUP3 DUP2 MSTORE PUSH1 0x20 DUP2 ADD DUP5 DUP5 DUP5 ADD GT ISZERO PUSH2 0x438 JUMPI PUSH2 0x437 PUSH2 0x93E JUMP JUMPDEST JUMPDEST PUSH2 0x443 DUP5 DUP3 DUP6 PUSH2 0x78F JUMP JUMPDEST POP SWAP4 SWAP3 POP POP POP JUMP JUMPDEST PUSH1 0x0 DUP3 PUSH1 0x1F DUP4 ADD SLT PUSH2 0x460 JUMPI PUSH2 0x45F PUSH2 0x939 JUMP JUMPDEST JUMPDEST DUP2 CALLDATALOAD PUSH2 0x470 DUP5 DUP3 PUSH1 0x20 DUP7 ADD PUSH2 0x409 JUMP JUMPDEST SWAP2 POP POP SWAP3 SWAP2 POP POP JUMP JUMPDEST PUSH1 0x0 DUP1 PUSH1 0x40 DUP4 DUP6 SUB SLT ISZERO PUSH2 0x490 JUMPI PUSH2 0x48F PUSH2 0x948 JUMP JUMPDEST JUMPDEST PUSH1 0x0 DUP4 ADD CALLDATALOAD PUSH8 0xFFFFFFFFFFFFFFFF DUP2 GT ISZERO PUSH2 0x4AE JUMPI PUSH2 0x4AD PUSH2 0x943 JUMP JUMPDEST JUMPDEST PUSH2 0x4BA DUP6 DUP3 DUP7 ADD PUSH2 0x44B JUMP JUMPDEST SWAP3 POP POP PUSH1 0x20 DUP4 ADD CALLDATALOAD PUSH8 0xFFFFFFFFFFFFFFFF DUP2 GT ISZERO PUSH2 0x4DB JUMPI PUSH2 0x4DA PUSH2 0x943 JUMP JUMPDEST JUMPDEST PUSH2 0x4E7 DUP6 DUP3 DUP7 ADD PUSH2 0x44B JUMP JUMPDEST SWAP2 POP POP SWAP3 POP SWAP3 SWAP1 POP JUMP JUMPDEST PUSH1 0x0 PUSH2 0x4FD DUP4 DUP4 PUSH2 0x51D JUMP JUMPDEST PUSH1 0x20 DUP4 ADD SWAP1 POP SWAP3 SWAP2 POP POP JUMP JUMPDEST PUSH1 0x0 PUSH2 0x515 DUP4 DUP4 PUSH2 0x5FF JUMP JUMPDEST SWAP1 POP SWAP3 SWAP2 POP POP JUMP JUMPDEST PUSH2 0x526 DUP2 PUSH2 0x753 JUMP JUMPDEST DUP3 MSTORE POP POP JUMP JUMPDEST PUSH1 0x0 PUSH2 0x537 DUP3 PUSH2 0x6E5 JUMP JUMPDEST PUSH2 0x541 DUP2 DUP6 PUSH2 0x720 JUMP JUMPDEST SWAP4 POP PUSH2 0x54C DUP4 PUSH2 0x6C5 JUMP JUMPDEST DUP1 PUSH1 0x0 JUMPDEST DUP4 DUP2 LT ISZERO PUSH2 0x57D JUMPI DUP2 MLOAD PUSH2 0x564 DUP9 DUP3 PUSH2 0x4F1 JUMP JUMPDEST SWAP8 POP PUSH2 0x56F DUP4 PUSH2 0x706 JUMP JUMPDEST SWAP3 POP POP PUSH1 0x1 DUP2 ADD SWAP1 POP PUSH2 0x550 JUMP JUMPDEST POP DUP6 SWAP4 POP POP POP POP SWAP3 SWAP2 POP POP JUMP JUMPDEST PUSH1 0x0 PUSH2 0x595 DUP3 PUSH2 0x6F0 JUMP JUMPDEST PUSH2 0x59F DUP2 DUP6 PUSH2 0x731 JUMP JUMPDEST SWAP4 POP DUP4 PUSH1 0x20 DUP3 MUL DUP6 ADD PUSH2 0x5B1 DUP6 PUSH2 0x6D5 JUMP JUMPDEST DUP1 PUSH1 0x0 JUMPDEST DUP6 DUP2 LT ISZERO PUSH2 0x5ED JUMPI DUP5 DUP5 SUB DUP10 MSTORE DUP2 MLOAD PUSH2 0x5CE DUP6 DUP3 PUSH2 0x509 JUMP JUMPDEST SWAP5 POP PUSH2 0x5D9 DUP4 PUSH2 0x713 JUMP JUMPDEST SWAP3 POP PUSH1 0x20 DUP11 ADD SWAP10 POP POP PUSH1 0x1 DUP2 ADD SWAP1 POP PUSH2 0x5B5 JUMP JUMPDEST POP DUP3 SWAP8 POP DUP8 SWAP6 POP POP POP POP POP POP SWAP3 SWAP2 POP POP JUMP JUMPDEST PUSH1 0x0 PUSH2 0x60A DUP3 PUSH2 0x6FB JUMP JUMPDEST PUSH2 0x614 DUP2 DUP6 PUSH2 0x742 JUMP JUMPDEST SWAP4 POP PUSH2 0x624 DUP2 DUP6 PUSH1 0x20 DUP7 ADD PUSH2 0x79E JUMP JUMPDEST PUSH2 0x62D DUP2 PUSH2 0x94D JUMP JUMPDEST DUP5 ADD SWAP2 POP POP SWAP3 SWAP2 POP POP JUMP JUMPDEST PUSH1 0x0 PUSH1 0x40 DUP3 ADD SWAP1 POP DUP2 DUP2 SUB PUSH1 0x0 DUP4 ADD MSTORE PUSH2 0x652 DUP2 DUP6 PUSH2 0x52C JUMP JUMPDEST SWAP1 POP DUP2 DUP2 SUB PUSH1 0x20 DUP4 ADD MSTORE PUSH2 0x666 DUP2 DUP5 PUSH2 0x58A JUMP JUMPDEST SWAP1 POP SWAP4 SWAP3 POP POP POP JUMP JUMPDEST PUSH1 0x0 PUSH2 0x679 PUSH2 0x68A JUMP JUMPDEST SWAP1 POP PUSH2 0x685 DUP3 DUP3 PUSH2 0x803 JUMP JUMPDEST SWAP2 SWAP1 POP JUMP JUMPDEST PUSH1 0x0 PUSH1 0x40 MLOAD SWAP1 POP SWAP1 JUMP JUMPDEST PUSH1 0x0 PUSH8 0xFFFFFFFFFFFFFFFF DUP3 GT ISZERO PUSH2 0x6AF JUMPI PUSH2 0x6AE PUSH2 0x90A JUMP JUMPDEST JUMPDEST PUSH2 0x6B8 DUP3 PUSH2 0x94D JUMP JUMPDEST SWAP1 POP PUSH1 0x20 DUP2 ADD SWAP1 POP SWAP2 SWAP1 POP JUMP JUMPDEST PUSH1 0x0 DUP2 SWAP1 POP PUSH1 0x20 DUP3 ADD SWAP1 POP SWAP2 SWAP1 POP JUMP JUMPDEST PUSH1 0x0 DUP2 SWAP1 POP PUSH1 0x20 DUP3 ADD SWAP1 POP SWAP2 SWAP1 POP JUMP JUMPDEST PUSH1 0x0 DUP2 MLOAD SWAP1 POP SWAP2 SWAP1 POP JUMP JUMPDEST PUSH1 0x0 DUP2 MLOAD SWAP1 POP SWAP2 SWAP1 POP JUMP JUMPDEST PUSH1 0x0 DUP2 MLOAD SWAP1 POP SWAP2 SWAP1 POP JUMP JUMPDEST PUSH1 0x0 PUSH1 0x20 DUP3 ADD SWAP1 POP SWAP2 SWAP1 POP JUMP JUMPDEST PUSH1 0x0 PUSH1 0x20 DUP3 ADD SWAP1 POP SWAP2 SWAP1 POP JUMP JUMPDEST PUSH1 0x0 DUP3 DUP3 MSTORE PUSH1 0x20 DUP3 ADD SWAP1 POP SWAP3 SWAP2 POP POP JUMP JUMPDEST PUSH1 0x0 DUP3 DUP3 MSTORE PUSH1 0x20 DUP3 ADD SWAP1 POP SWAP3 SWAP2 POP POP JUMP JUMPDEST PUSH1 0x0 DUP3 DUP3 MSTORE PUSH1 0x20 DUP3 ADD SWAP1 POP SWAP3 SWAP2 POP POP JUMP JUMPDEST PUSH1 0x0 PUSH2 0x75E DUP3 PUSH2 0x765 JUMP JUMPDEST SWAP1 POP SWAP2 SWAP1 POP JUMP JUMPDEST PUSH1 0x0 PUSH20 0xFFFFFFFFFFFFFFFFFFFFFFFFFFFFFFFFFFFFFFFF DUP3 AND SWAP1 POP SWAP2 SWAP1 POP JUMP JUMPDEST PUSH1 0x0 DUP2 SWAP1 POP SWAP2 SWAP1 POP JUMP JUMPDEST DUP3 DUP2 DUP4 CALLDATACOPY PUSH1 0x0 DUP4 DUP4 ADD MSTORE POP POP POP JUMP JUMPDEST PUSH1 0x0 JUMPDEST DUP4 DUP2 LT ISZERO PUSH2 0x7BC JUMPI DUP1 DUP3 ADD MLOAD DUP2 DUP5 ADD MSTORE PUSH1 0x20 DUP2 ADD SWAP1 POP PUSH2 0x7A1 JUMP JUMPDEST DUP4 DUP2 GT ISZERO PUSH2 0x7CB JUMPI PUSH1 0x0 DUP5 DUP5 ADD MSTORE JUMPDEST POP POP POP POP JUMP JUMPDEST PUSH1 0x0 PUSH1 0x2 DUP3 DIV SWAP1 POP PUSH1 0x1 DUP3 AND DUP1 PUSH2 0x7E9 JUMPI PUSH1 0x7F DUP3 AND SWAP2 POP JUMPDEST PUSH1 0x20 DUP3 LT DUP2 EQ ISZERO PUSH2 0x7FD JUMPI PUSH2 0x7FC PUSH2 0x8AC JUMP JUMPDEST JUMPDEST POP SWAP2 SWAP1 POP JUMP JUMPDEST PUSH2 0x80C DUP3 PUSH2 0x94D JUMP JUMPDEST DUP2 ADD DUP2 DUP2 LT PUSH8 0xFFFFFFFFFFFFFFFF DUP3 GT OR ISZERO PUSH2 0x82B JUMPI PUSH2 0x82A PUSH2 0x90A JUMP JUMPDEST JUMPDEST DUP1 PUSH1 0x40 MSTORE POP POP POP JUMP JUMPDEST PUSH1 0x0 PUSH2 0x83F DUP3 PUSH2 0x785 JUMP JUMPDEST SWAP2 POP PUSH32 0xFFFFFFFFFFFFFFFFFFFFFFFFFFFFFFFFFFFFFFFFFFFFFFFFFFFFFFFFFFFFFFFF DUP3 EQ ISZERO PUSH2 0x872 JUMPI PUSH2 0x871 PUSH2 0x87D JUMP JUMPDEST JUMPDEST PUSH1 0x1 DUP3 ADD SWAP1 POP SWAP2 SWAP1 POP JUMP JUMPDEST PUSH32 0x4E487B7100000000000000000000000000000000000000000000000000000000 PUSH1 0x0 MSTORE PUSH1 0x11 PUSH1 0x4 MSTORE PUSH1 0x24 PUSH1 0x0 REVERT JUMPDEST PUSH32 0x4E487B7100000000000000000000000000000000000000000000000000000000 PUSH1 0x0 MSTORE PUSH1 0x22 PUSH1 0x4 MSTORE PUSH1 0x24 PUSH1 0x0 REVERT JUMPDEST PUSH32 0x4E487B7100000000000000000000000000000000000000000000000000000000 PUSH1 0x0 MSTORE PUSH1 0x32 PUSH1 0x4 MSTORE PUSH1 0x24 PUSH1 0x0 REVERT JUMPDEST PUSH32 0x4E487B7100000000000000000000000000000000000000000000000000000000 PUSH1 0x0 MSTORE PUSH1 0x41 PUSH1 0x4 MSTORE PUSH1 0x24 PUSH1 0x0 REVERT JUMPDEST PUSH1 0x0 DUP1 REVERT JUMPDEST PUSH1 0x0 DUP1 REVERT JUMPDEST PUSH1 0x0 DUP1 REVERT JUMPDEST PUSH1 0x0 DUP1 REVERT JUMPDEST PUSH1 0x0 PUSH1 0x1F NOT PUSH1 0x1F DUP4 ADD AND SWAP1 POP SWAP2 SWAP1 POP JUMP INVALID LOG2 PUSH5 0x6970667358 0x22 SLT KECCAK256 0xE2 0xF6 MOD 0xBB 0xC7 PUSH20 0xF0735E0C4841D63AC5391803AD86B6FDC4B000B2 GT PUSH31 0xE01B79F64736F6C6343000807003300000000000000000000000000000000 "
				},
				"gasEstimates": {
					"creation": {
						"codeDepositCost": "490400",
						"executionCost": "524",
						"totalCost": "490924"
					},
					"external": {
						"push(string,string)": "infinite",
						"retrieve()": "infinite"
					}
				},
				"methodIdentifiers": {
					"push(string,string)": "f8761376",
					"retrieve()": "2e64cec1"
				}
			},
			"storageLayout": {
				"storage": [
					{
						"astId": 6,
						"contract": "contracts/1_Storage.sol:Storage",
						"label": "store",
						"offset": 0,
						"slot": "0",
						"type": "t_mapping(t_address,t_string_storage)"
					},
					{
						"astId": 9,
						"contract": "contracts/1_Storage.sol:Storage",
						"label": "addresses",
						"offset": 0,
						"slot": "1",
						"type": "t_array(t_address)dyn_storage"
					}
				],
				"types": {
					"t_address": {
						"encoding": "inplace",
						"label": "address",
						"numberOfBytes": "20"
					},
					"t_array(t_address)dyn_storage": {
						"base": "t_address",
						"encoding": "dynamic_array",
						"label": "address[]",
						"numberOfBytes": "32"
					},
					"t_mapping(t_address,t_string_storage)": {
						"encoding": "mapping",
						"key": "t_address",
						"label": "mapping(address => string)",
						"numberOfBytes": "32",
						"value": "t_string_storage"
					},
					"t_string_storage": {
						"encoding": "bytes",
						"label": "string",
						"numberOfBytes": "32"
					}
				}
			},
			"userdoc": {
				"kind": "user",
				"methods": {},
				"version": 1
			}
		}
	}
}