{
	"contracts/1_Storage.sol": {
		"Storage": {
			"abi": [
				{
					"inputs": [
						{
							"internalType": "string",
							"name": "_text",
							"type": "string"
						}
					],
					"name": "push",
					"outputs": [],
					"stateMutability": "nonpayable",
					"type": "function"
				},
				{
					"inputs": [],
					"name": "retrieve",
					"outputs": [
						{
							"internalType": "string[]",
							"name": "",
							"type": "string[]"
						}
					],
					"stateMutability": "view",
					"type": "function"
				}
			],
			"devdoc": {
				"custom:dev-run-script": "./scripts/deploy_with_ethers.ts",
				"details": "Store & retrieve value in a variable",
				"kind": "dev",
				"methods": {},
				"title": "Storage",
				"version": 1
			},
			"evm": {
				"assembly": "    /* \"contracts/1_Storage.sol\":199:420  contract Storage {... */\n  mstore(0x40, 0x80)\n  callvalue\n  dup1\n  iszero\n  tag_1\n  jumpi\n  0x00\n  dup1\n  revert\ntag_1:\n  pop\n  dataSize(sub_0)\n  dup1\n  dataOffset(sub_0)\n  0x00\n  codecopy\n  0x00\n  return\nstop\n\nsub_0: assembly {\n        /* \"contracts/1_Storage.sol\":199:420  contract Storage {... */\n      mstore(0x40, 0x80)\n      callvalue\n      dup1\n      iszero\n      tag_1\n      jumpi\n      0x00\n      dup1\n      revert\n    tag_1:\n      pop\n      jumpi(tag_2, lt(calldatasize, 0x04))\n      shr(0xe0, calldataload(0x00))\n      dup1\n      0x2e64cec1\n      eq\n      tag_3\n      jumpi\n      dup1\n      0x4f3d057a\n      eq\n      tag_4\n      jumpi\n    tag_2:\n      0x00\n      dup1\n      revert\n        /* \"contracts/1_Storage.sol\":330:418  function retrieve() external view returns(string[] memory) {... */\n    tag_3:\n      tag_5\n      tag_6\n      jump\t// in\n    tag_5:\n      mload(0x40)\n      tag_7\n      swap2\n      swap1\n      tag_8\n      jump\t// in\n    tag_7:\n      mload(0x40)\n      dup1\n      swap2\n      sub\n      swap1\n      return\n        /* \"contracts/1_Storage.sol\":244:324  function push(string calldata _text) external {... */\n    tag_4:\n      tag_9\n      0x04\n      dup1\n      calldatasize\n      sub\n      dup2\n      add\n      swap1\n      tag_10\n      swap2\n      swap1\n      tag_11\n      jump\t// in\n    tag_10:\n      tag_12\n      jump\t// in\n    tag_9:\n      stop\n        /* \"contracts/1_Storage.sol\":330:418  function retrieve() external view returns(string[] memory) {... */\n    tag_6:\n        /* \"contracts/1_Storage.sol\":372:387  string[] memory */\n      0x60\n        /* \"contracts/1_Storage.sol\":406:411  store */\n      0x00\n        /* \"contracts/1_Storage.sol\":399:411  return store */\n      dup1\n      sload\n      dup1\n      0x20\n      mul\n      0x20\n      add\n      mload(0x40)\n      swap1\n      dup2\n      add\n      0x40\n      mstore\n      dup1\n      swap3\n      swap2\n      swap1\n      dup2\n      dup2\n      mstore\n      0x20\n      add\n      0x00\n      swap1\n    tag_14:\n      dup3\n      dup3\n      lt\n      iszero\n      tag_15\n      jumpi\n      dup4\n      dup3\n      swap1\n      0x00\n      mstore\n      keccak256(0x00, 0x20)\n      add\n      dup1\n      sload\n      tag_17\n      swap1\n      tag_18\n      jump\t// in\n    tag_17:\n      dup1\n      0x1f\n      add\n      0x20\n      dup1\n      swap2\n      div\n      mul\n      0x20\n      add\n      mload(0x40)\n      swap1\n      dup2\n      add\n      0x40\n      mstore\n      dup1\n      swap3\n      swap2\n      swap1\n      dup2\n      dup2\n      mstore\n      0x20\n      add\n      dup3\n      dup1\n      sload\n      tag_19\n      swap1\n      tag_18\n      jump\t// in\n    tag_19:\n      dup1\n      iszero\n      tag_20\n      jumpi\n      dup1\n      0x1f\n      lt\n      tag_21\n      jumpi\n      0x0100\n      dup1\n      dup4\n      sload\n      div\n      mul\n      dup4\n      mstore\n      swap2\n      0x20\n      add\n      swap2\n      jump(tag_20)\n    tag_21:\n      dup3\n      add\n      swap2\n      swap1\n      0x00\n      mstore\n      keccak256(0x00, 0x20)\n      swap1\n    tag_22:\n      dup2\n      sload\n      dup2\n      mstore\n      swap1\n      0x01\n      add\n      swap1\n      0x20\n      add\n      dup1\n      dup4\n      gt\n      tag_22\n      jumpi\n      dup3\n      swap1\n      sub\n      0x1f\n      and\n      dup3\n      add\n      swap2\n    tag_20:\n      pop\n      pop\n      pop\n      pop\n      pop\n      dup2\n      mstore\n      0x20\n      add\n      swap1\n      0x01\n      add\n      swap1\n      jump(tag_14)\n    tag_15:\n      pop\n      pop\n      pop\n      pop\n      swap1\n      pop\n        /* \"contracts/1_Storage.sol\":330:418  function retrieve() external view returns(string[] memory) {... */\n      swap1\n      jump\t// out\n        /* \"contracts/1_Storage.sol\":244:324  function push(string calldata _text) external {... */\n    tag_12:\n        /* \"contracts/1_Storage.sol\":300:305  store */\n      0x00\n        /* \"contracts/1_Storage.sol\":311:316  _text */\n      dup3\n      dup3\n        /* \"contracts/1_Storage.sol\":300:317  store.push(_text) */\n      swap1\n      swap2\n      dup1\n      0x01\n      dup2\n      sload\n      add\n      dup1\n      dup3\n      sstore\n      dup1\n      swap2\n      pop\n      pop\n      0x01\n      swap1\n      sub\n      swap1\n      0x00\n      mstore\n      keccak256(0x00, 0x20)\n      add\n      0x00\n      swap1\n      swap2\n      swap3\n      swap1\n      swap2\n      swap3\n      swap1\n      swap2\n      swap3\n      swap1\n      swap2\n      swap3\n      pop\n      swap2\n      swap1\n      tag_25\n      swap3\n      swap2\n      swap1\n      tag_26\n      jump\t// in\n    tag_25:\n      pop\n        /* \"contracts/1_Storage.sol\":244:324  function push(string calldata _text) external {... */\n      pop\n      pop\n      jump\t// out\n    tag_26:\n      dup3\n      dup1\n      sload\n      tag_27\n      swap1\n      tag_18\n      jump\t// in\n    tag_27:\n      swap1\n      0x00\n      mstore\n      keccak256(0x00, 0x20)\n      swap1\n      0x1f\n      add\n      0x20\n      swap1\n      div\n      dup2\n      add\n      swap3\n      dup3\n      tag_29\n      jumpi\n      0x00\n      dup6\n      sstore\n      jump(tag_28)\n    tag_29:\n      dup3\n      0x1f\n      lt\n      tag_30\n      jumpi\n      dup1\n      calldataload\n      not(0xff)\n      and\n      dup4\n      dup1\n      add\n      or\n      dup6\n      sstore\n      jump(tag_28)\n    tag_30:\n      dup3\n      dup1\n      add\n      0x01\n      add\n      dup6\n      sstore\n      dup3\n      iszero\n      tag_28\n      jumpi\n      swap2\n      dup3\n      add\n    tag_31:\n      dup3\n      dup2\n      gt\n      iszero\n      tag_32\n      jumpi\n      dup3\n      calldataload\n      dup3\n      sstore\n      swap2\n      0x20\n      add\n      swap2\n      swap1\n      0x01\n      add\n      swap1\n      jump(tag_31)\n    tag_32:\n    tag_28:\n      pop\n      swap1\n      pop\n      tag_33\n      swap2\n      swap1\n      tag_34\n      jump\t// in\n    tag_33:\n      pop\n      swap1\n      jump\t// out\n    tag_34:\n    tag_35:\n      dup1\n      dup3\n      gt\n      iszero\n      tag_36\n      jumpi\n      0x00\n      dup2\n      0x00\n      swap1\n      sstore\n      pop\n      0x01\n      add\n      jump(tag_35)\n    tag_36:\n      pop\n      swap1\n      jump\t// out\n        /* \"#utility.yul\":21:574   */\n    tag_38:\n        /* \"#utility.yul\":79:87   */\n      0x00\n        /* \"#utility.yul\":89:95   */\n      dup1\n        /* \"#utility.yul\":139:142   */\n      dup4\n        /* \"#utility.yul\":132:136   */\n      0x1f\n        /* \"#utility.yul\":124:130   */\n      dup5\n        /* \"#utility.yul\":120:137   */\n      add\n        /* \"#utility.yul\":116:143   */\n      slt\n        /* \"#utility.yul\":106:228   */\n      tag_40\n      jumpi\n        /* \"#utility.yul\":147:226   */\n      tag_41\n      tag_42\n      jump\t// in\n    tag_41:\n        /* \"#utility.yul\":106:228   */\n    tag_40:\n        /* \"#utility.yul\":260:266   */\n      dup3\n        /* \"#utility.yul\":247:267   */\n      calldataload\n        /* \"#utility.yul\":237:267   */\n      swap1\n      pop\n        /* \"#utility.yul\":290:308   */\n      0xffffffffffffffff\n        /* \"#utility.yul\":282:288   */\n      dup2\n        /* \"#utility.yul\":279:309   */\n      gt\n        /* \"#utility.yul\":276:393   */\n      iszero\n      tag_43\n      jumpi\n        /* \"#utility.yul\":312:391   */\n      tag_44\n      tag_45\n      jump\t// in\n    tag_44:\n        /* \"#utility.yul\":276:393   */\n    tag_43:\n        /* \"#utility.yul\":426:430   */\n      0x20\n        /* \"#utility.yul\":418:424   */\n      dup4\n        /* \"#utility.yul\":414:431   */\n      add\n        /* \"#utility.yul\":402:431   */\n      swap2\n      pop\n        /* \"#utility.yul\":480:483   */\n      dup4\n        /* \"#utility.yul\":472:476   */\n      0x01\n        /* \"#utility.yul\":464:470   */\n      dup3\n        /* \"#utility.yul\":460:477   */\n      mul\n        /* \"#utility.yul\":450:458   */\n      dup4\n        /* \"#utility.yul\":446:478   */\n      add\n        /* \"#utility.yul\":443:484   */\n      gt\n        /* \"#utility.yul\":440:568   */\n      iszero\n      tag_46\n      jumpi\n        /* \"#utility.yul\":487:566   */\n      tag_47\n      tag_48\n      jump\t// in\n    tag_47:\n        /* \"#utility.yul\":440:568   */\n    tag_46:\n        /* \"#utility.yul\":21:574   */\n      swap3\n      pop\n      swap3\n      swap1\n      pop\n      jump\t// out\n        /* \"#utility.yul\":580:1109   */\n    tag_11:\n        /* \"#utility.yul\":651:657   */\n      0x00\n        /* \"#utility.yul\":659:665   */\n      dup1\n        /* \"#utility.yul\":708:710   */\n      0x20\n        /* \"#utility.yul\":696:705   */\n      dup4\n        /* \"#utility.yul\":687:694   */\n      dup6\n        /* \"#utility.yul\":683:706   */\n      sub\n        /* \"#utility.yul\":679:711   */\n      slt\n        /* \"#utility.yul\":676:795   */\n      iszero\n      tag_50\n      jumpi\n        /* \"#utility.yul\":714:793   */\n      tag_51\n      tag_52\n      jump\t// in\n    tag_51:\n        /* \"#utility.yul\":676:795   */\n    tag_50:\n        /* \"#utility.yul\":862:863   */\n      0x00\n        /* \"#utility.yul\":851:860   */\n      dup4\n        /* \"#utility.yul\":847:864   */\n      add\n        /* \"#utility.yul\":834:865   */\n      calldataload\n        /* \"#utility.yul\":892:910   */\n      0xffffffffffffffff\n        /* \"#utility.yul\":884:890   */\n      dup2\n        /* \"#utility.yul\":881:911   */\n      gt\n        /* \"#utility.yul\":878:995   */\n      iszero\n      tag_53\n      jumpi\n        /* \"#utility.yul\":914:993   */\n      tag_54\n      tag_55\n      jump\t// in\n    tag_54:\n        /* \"#utility.yul\":878:995   */\n    tag_53:\n        /* \"#utility.yul\":1027:1092   */\n      tag_56\n        /* \"#utility.yul\":1084:1091   */\n      dup6\n        /* \"#utility.yul\":1075:1081   */\n      dup3\n        /* \"#utility.yul\":1064:1073   */\n      dup7\n        /* \"#utility.yul\":1060:1082   */\n      add\n        /* \"#utility.yul\":1027:1092   */\n      tag_38\n      jump\t// in\n    tag_56:\n        /* \"#utility.yul\":1009:1092   */\n      swap3\n      pop\n      swap3\n      pop\n        /* \"#utility.yul\":805:1102   */\n      pop\n        /* \"#utility.yul\":580:1109   */\n      swap3\n      pop\n      swap3\n      swap1\n      pop\n      jump\t// out\n        /* \"#utility.yul\":1115:1311   */\n    tag_57:\n        /* \"#utility.yul\":1204:1214   */\n      0x00\n        /* \"#utility.yul\":1239:1305   */\n      tag_59\n        /* \"#utility.yul\":1301:1304   */\n      dup4\n        /* \"#utility.yul\":1293:1299   */\n      dup4\n        /* \"#utility.yul\":1239:1305   */\n      tag_60\n      jump\t// in\n    tag_59:\n        /* \"#utility.yul\":1225:1305   */\n      swap1\n      pop\n        /* \"#utility.yul\":1115:1311   */\n      swap3\n      swap2\n      pop\n      pop\n      jump\t// out\n        /* \"#utility.yul\":1345:2336   */\n    tag_61:\n        /* \"#utility.yul\":1484:1487   */\n      0x00\n        /* \"#utility.yul\":1513:1577   */\n      tag_63\n        /* \"#utility.yul\":1571:1576   */\n      dup3\n        /* \"#utility.yul\":1513:1577   */\n      tag_64\n      jump\t// in\n    tag_63:\n        /* \"#utility.yul\":1593:1689   */\n      tag_65\n        /* \"#utility.yul\":1682:1688   */\n      dup2\n        /* \"#utility.yul\":1677:1680   */\n      dup6\n        /* \"#utility.yul\":1593:1689   */\n      tag_66\n      jump\t// in\n    tag_65:\n        /* \"#utility.yul\":1586:1689   */\n      swap4\n      pop\n        /* \"#utility.yul\":1715:1718   */\n      dup4\n        /* \"#utility.yul\":1760:1764   */\n      0x20\n        /* \"#utility.yul\":1752:1758   */\n      dup3\n        /* \"#utility.yul\":1748:1765   */\n      mul\n        /* \"#utility.yul\":1743:1746   */\n      dup6\n        /* \"#utility.yul\":1739:1766   */\n      add\n        /* \"#utility.yul\":1790:1856   */\n      tag_67\n        /* \"#utility.yul\":1850:1855   */\n      dup6\n        /* \"#utility.yul\":1790:1856   */\n      tag_68\n      jump\t// in\n    tag_67:\n        /* \"#utility.yul\":1879:1886   */\n      dup1\n        /* \"#utility.yul\":1910:1911   */\n      0x00\n        /* \"#utility.yul\":1895:2291   */\n    tag_69:\n        /* \"#utility.yul\":1920:1926   */\n      dup6\n        /* \"#utility.yul\":1917:1918   */\n      dup2\n        /* \"#utility.yul\":1914:1927   */\n      lt\n        /* \"#utility.yul\":1895:2291   */\n      iszero\n      tag_71\n      jumpi\n        /* \"#utility.yul\":1991:2000   */\n      dup5\n        /* \"#utility.yul\":1985:1989   */\n      dup5\n        /* \"#utility.yul\":1981:2001   */\n      sub\n        /* \"#utility.yul\":1976:1979   */\n      dup10\n        /* \"#utility.yul\":1969:2002   */\n      mstore\n        /* \"#utility.yul\":2042:2048   */\n      dup2\n        /* \"#utility.yul\":2036:2049   */\n      mload\n        /* \"#utility.yul\":2070:2154   */\n      tag_72\n        /* \"#utility.yul\":2149:2153   */\n      dup6\n        /* \"#utility.yul\":2134:2147   */\n      dup3\n        /* \"#utility.yul\":2070:2154   */\n      tag_57\n      jump\t// in\n    tag_72:\n        /* \"#utility.yul\":2062:2154   */\n      swap5\n      pop\n        /* \"#utility.yul\":2177:2247   */\n      tag_73\n        /* \"#utility.yul\":2240:2246   */\n      dup4\n        /* \"#utility.yul\":2177:2247   */\n      tag_74\n      jump\t// in\n    tag_73:\n        /* \"#utility.yul\":2167:2247   */\n      swap3\n      pop\n        /* \"#utility.yul\":2276:2280   */\n      0x20\n        /* \"#utility.yul\":2271:2274   */\n      dup11\n        /* \"#utility.yul\":2267:2281   */\n      add\n        /* \"#utility.yul\":2260:2281   */\n      swap10\n      pop\n        /* \"#utility.yul\":1955:2291   */\n      pop\n        /* \"#utility.yul\":1942:1943   */\n      0x01\n        /* \"#utility.yul\":1939:1940   */\n      dup2\n        /* \"#utility.yul\":1935:1944   */\n      add\n        /* \"#utility.yul\":1930:1944   */\n      swap1\n      pop\n        /* \"#utility.yul\":1895:2291   */\n      jump(tag_69)\n    tag_71:\n        /* \"#utility.yul\":1899:1913   */\n      pop\n        /* \"#utility.yul\":2307:2311   */\n      dup3\n        /* \"#utility.yul\":2300:2311   */\n      swap8\n      pop\n        /* \"#utility.yul\":2327:2330   */\n      dup8\n        /* \"#utility.yul\":2320:2330   */\n      swap6\n      pop\n        /* \"#utility.yul\":1489:2336   */\n      pop\n      pop\n      pop\n      pop\n      pop\n        /* \"#utility.yul\":1345:2336   */\n      swap3\n      swap2\n      pop\n      pop\n      jump\t// out\n        /* \"#utility.yul\":2342:2686   */\n    tag_60:\n        /* \"#utility.yul\":2420:2423   */\n      0x00\n        /* \"#utility.yul\":2448:2487   */\n      tag_76\n        /* \"#utility.yul\":2481:2486   */\n      dup3\n        /* \"#utility.yul\":2448:2487   */\n      tag_77\n      jump\t// in\n    tag_76:\n        /* \"#utility.yul\":2503:2564   */\n      tag_78\n        /* \"#utility.yul\":2557:2563   */\n      dup2\n        /* \"#utility.yul\":2552:2555   */\n      dup6\n        /* \"#utility.yul\":2503:2564   */\n      tag_79\n      jump\t// in\n    tag_78:\n        /* \"#utility.yul\":2496:2564   */\n      swap4\n      pop\n        /* \"#utility.yul\":2573:2625   */\n      tag_80\n        /* \"#utility.yul\":2618:2624   */\n      dup2\n        /* \"#utility.yul\":2613:2616   */\n      dup6\n        /* \"#utility.yul\":2606:2610   */\n      0x20\n        /* \"#utility.yul\":2599:2604   */\n      dup7\n        /* \"#utility.yul\":2595:2611   */\n      add\n        /* \"#utility.yul\":2573:2625   */\n      tag_81\n      jump\t// in\n    tag_80:\n        /* \"#utility.yul\":2650:2679   */\n      tag_82\n        /* \"#utility.yul\":2672:2678   */\n      dup2\n        /* \"#utility.yul\":2650:2679   */\n      tag_83\n      jump\t// in\n    tag_82:\n        /* \"#utility.yul\":2645:2648   */\n      dup5\n        /* \"#utility.yul\":2641:2680   */\n      add\n        /* \"#utility.yul\":2634:2680   */\n      swap2\n      pop\n        /* \"#utility.yul\":2424:2686   */\n      pop\n        /* \"#utility.yul\":2342:2686   */\n      swap3\n      swap2\n      pop\n      pop\n      jump\t// out\n        /* \"#utility.yul\":2692:3105   */\n    tag_8:\n        /* \"#utility.yul\":2855:2859   */\n      0x00\n        /* \"#utility.yul\":2893:2895   */\n      0x20\n        /* \"#utility.yul\":2882:2891   */\n      dup3\n        /* \"#utility.yul\":2878:2896   */\n      add\n        /* \"#utility.yul\":2870:2896   */\n      swap1\n      pop\n        /* \"#utility.yul\":2942:2951   */\n      dup2\n        /* \"#utility.yul\":2936:2940   */\n      dup2\n        /* \"#utility.yul\":2932:2952   */\n      sub\n        /* \"#utility.yul\":2928:2929   */\n      0x00\n        /* \"#utility.yul\":2917:2926   */\n      dup4\n        /* \"#utility.yul\":2913:2930   */\n      add\n        /* \"#utility.yul\":2906:2953   */\n      mstore\n        /* \"#utility.yul\":2970:3098   */\n      tag_85\n        /* \"#utility.yul\":3093:3097   */\n      dup2\n        /* \"#utility.yul\":3084:3090   */\n      dup5\n        /* \"#utility.yul\":2970:3098   */\n      tag_61\n      jump\t// in\n    tag_85:\n        /* \"#utility.yul\":2962:3098   */\n      swap1\n      pop\n        /* \"#utility.yul\":2692:3105   */\n      swap3\n      swap2\n      pop\n      pop\n      jump\t// out\n        /* \"#utility.yul\":3192:3334   */\n    tag_68:\n        /* \"#utility.yul\":3269:3273   */\n      0x00\n        /* \"#utility.yul\":3292:3295   */\n      dup2\n        /* \"#utility.yul\":3284:3295   */\n      swap1\n      pop\n        /* \"#utility.yul\":3322:3326   */\n      0x20\n        /* \"#utility.yul\":3317:3320   */\n      dup3\n        /* \"#utility.yul\":3313:3327   */\n      add\n        /* \"#utility.yul\":3305:3327   */\n      swap1\n      pop\n        /* \"#utility.yul\":3192:3334   */\n      swap2\n      swap1\n      pop\n      jump\t// out\n        /* \"#utility.yul\":3340:3464   */\n    tag_64:\n        /* \"#utility.yul\":3417:3423   */\n      0x00\n        /* \"#utility.yul\":3451:3456   */\n      dup2\n        /* \"#utility.yul\":3445:3457   */\n      mload\n        /* \"#utility.yul\":3435:3457   */\n      swap1\n      pop\n        /* \"#utility.yul\":3340:3464   */\n      swap2\n      swap1\n      pop\n      jump\t// out\n        /* \"#utility.yul\":3470:3569   */\n    tag_77:\n        /* \"#utility.yul\":3522:3528   */\n      0x00\n        /* \"#utility.yul\":3556:3561   */\n      dup2\n        /* \"#utility.yul\":3550:3562   */\n      mload\n        /* \"#utility.yul\":3540:3562   */\n      swap1\n      pop\n        /* \"#utility.yul\":3470:3569   */\n      swap2\n      swap1\n      pop\n      jump\t// out\n        /* \"#utility.yul\":3575:3698   */\n    tag_74:\n        /* \"#utility.yul\":3655:3659   */\n      0x00\n        /* \"#utility.yul\":3687:3691   */\n      0x20\n        /* \"#utility.yul\":3682:3685   */\n      dup3\n        /* \"#utility.yul\":3678:3692   */\n      add\n        /* \"#utility.yul\":3670:3692   */\n      swap1\n      pop\n        /* \"#utility.yul\":3575:3698   */\n      swap2\n      swap1\n      pop\n      jump\t// out\n        /* \"#utility.yul\":3704:3898   */\n    tag_66:\n        /* \"#utility.yul\":3813:3824   */\n      0x00\n        /* \"#utility.yul\":3847:3853   */\n      dup3\n        /* \"#utility.yul\":3842:3845   */\n      dup3\n        /* \"#utility.yul\":3835:3854   */\n      mstore\n        /* \"#utility.yul\":3887:3891   */\n      0x20\n        /* \"#utility.yul\":3882:3885   */\n      dup3\n        /* \"#utility.yul\":3878:3892   */\n      add\n        /* \"#utility.yul\":3863:3892   */\n      swap1\n      pop\n        /* \"#utility.yul\":3704:3898   */\n      swap3\n      swap2\n      pop\n      pop\n      jump\t// out\n        /* \"#utility.yul\":3904:4063   */\n    tag_79:\n        /* \"#utility.yul\":3978:3989   */\n      0x00\n        /* \"#utility.yul\":4012:4018   */\n      dup3\n        /* \"#utility.yul\":4007:4010   */\n      dup3\n        /* \"#utility.yul\":4000:4019   */\n      mstore\n        /* \"#utility.yul\":4052:4056   */\n      0x20\n        /* \"#utility.yul\":4047:4050   */\n      dup3\n        /* \"#utility.yul\":4043:4057   */\n      add\n        /* \"#utility.yul\":4028:4057   */\n      swap1\n      pop\n        /* \"#utility.yul\":3904:4063   */\n      swap3\n      swap2\n      pop\n      pop\n      jump\t// out\n        /* \"#utility.yul\":4069:4376   */\n    tag_81:\n        /* \"#utility.yul\":4137:4138   */\n      0x00\n        /* \"#utility.yul\":4147:4260   */\n    tag_95:\n        /* \"#utility.yul\":4161:4167   */\n      dup4\n        /* \"#utility.yul\":4158:4159   */\n      dup2\n        /* \"#utility.yul\":4155:4168   */\n      lt\n        /* \"#utility.yul\":4147:4260   */\n      iszero\n      tag_97\n      jumpi\n        /* \"#utility.yul\":4246:4247   */\n      dup1\n        /* \"#utility.yul\":4241:4244   */\n      dup3\n        /* \"#utility.yul\":4237:4248   */\n      add\n        /* \"#utility.yul\":4231:4249   */\n      mload\n        /* \"#utility.yul\":4227:4228   */\n      dup2\n        /* \"#utility.yul\":4222:4225   */\n      dup5\n        /* \"#utility.yul\":4218:4229   */\n      add\n        /* \"#utility.yul\":4211:4250   */\n      mstore\n        /* \"#utility.yul\":4183:4185   */\n      0x20\n        /* \"#utility.yul\":4180:4181   */\n      dup2\n        /* \"#utility.yul\":4176:4186   */\n      add\n        /* \"#utility.yul\":4171:4186   */\n      swap1\n      pop\n        /* \"#utility.yul\":4147:4260   */\n      jump(tag_95)\n    tag_97:\n        /* \"#utility.yul\":4278:4284   */\n      dup4\n        /* \"#utility.yul\":4275:4276   */\n      dup2\n        /* \"#utility.yul\":4272:4285   */\n      gt\n        /* \"#utility.yul\":4269:4370   */\n      iszero\n      tag_98\n      jumpi\n        /* \"#utility.yul\":4358:4359   */\n      0x00\n        /* \"#utility.yul\":4349:4355   */\n      dup5\n        /* \"#utility.yul\":4344:4347   */\n      dup5\n        /* \"#utility.yul\":4340:4356   */\n      add\n        /* \"#utility.yul\":4333:4360   */\n      mstore\n        /* \"#utility.yul\":4269:4370   */\n    tag_98:\n        /* \"#utility.yul\":4118:4376   */\n      pop\n        /* \"#utility.yul\":4069:4376   */\n      pop\n      pop\n      pop\n      jump\t// out\n        /* \"#utility.yul\":4382:4702   */\n    tag_18:\n        /* \"#utility.yul\":4426:4432   */\n      0x00\n        /* \"#utility.yul\":4463:4464   */\n      0x02\n        /* \"#utility.yul\":4457:4461   */\n      dup3\n        /* \"#utility.yul\":4453:4465   */\n      div\n        /* \"#utility.yul\":4443:4465   */\n      swap1\n      pop\n        /* \"#utility.yul\":4510:4511   */\n      0x01\n        /* \"#utility.yul\":4504:4508   */\n      dup3\n        /* \"#utility.yul\":4500:4512   */\n      and\n        /* \"#utility.yul\":4531:4549   */\n      dup1\n        /* \"#utility.yul\":4521:4602   */\n      tag_100\n      jumpi\n        /* \"#utility.yul\":4587:4591   */\n      0x7f\n        /* \"#utility.yul\":4579:4585   */\n      dup3\n        /* \"#utility.yul\":4575:4592   */\n      and\n        /* \"#utility.yul\":4565:4592   */\n      swap2\n      pop\n        /* \"#utility.yul\":4521:4602   */\n    tag_100:\n        /* \"#utility.yul\":4649:4651   */\n      0x20\n        /* \"#utility.yul\":4641:4647   */\n      dup3\n        /* \"#utility.yul\":4638:4652   */\n      lt\n        /* \"#utility.yul\":4618:4636   */\n      dup2\n        /* \"#utility.yul\":4615:4653   */\n      eq\n        /* \"#utility.yul\":4612:4696   */\n      iszero\n      tag_101\n      jumpi\n        /* \"#utility.yul\":4668:4686   */\n      tag_102\n      tag_103\n      jump\t// in\n    tag_102:\n        /* \"#utility.yul\":4612:4696   */\n    tag_101:\n        /* \"#utility.yul\":4433:4702   */\n      pop\n        /* \"#utility.yul\":4382:4702   */\n      swap2\n      swap1\n      pop\n      jump\t// out\n        /* \"#utility.yul\":4708:4888   */\n    tag_103:\n        /* \"#utility.yul\":4756:4833   */\n      0x4e487b7100000000000000000000000000000000000000000000000000000000\n        /* \"#utility.yul\":4753:4754   */\n      0x00\n        /* \"#utility.yul\":4746:4834   */\n      mstore\n        /* \"#utility.yul\":4853:4857   */\n      0x22\n        /* \"#utility.yul\":4850:4851   */\n      0x04\n        /* \"#utility.yul\":4843:4858   */\n      mstore\n        /* \"#utility.yul\":4877:4881   */\n      0x24\n        /* \"#utility.yul\":4874:4875   */\n      0x00\n        /* \"#utility.yul\":4867:4882   */\n      revert\n        /* \"#utility.yul\":4894:5011   */\n    tag_45:\n        /* \"#utility.yul\":5003:5004   */\n      0x00\n        /* \"#utility.yul\":5000:5001   */\n      dup1\n        /* \"#utility.yul\":4993:5005   */\n      revert\n        /* \"#utility.yul\":5017:5134   */\n    tag_42:\n        /* \"#utility.yul\":5126:5127   */\n      0x00\n        /* \"#utility.yul\":5123:5124   */\n      dup1\n        /* \"#utility.yul\":5116:5128   */\n      revert\n        /* \"#utility.yul\":5140:5257   */\n    tag_48:\n        /* \"#utility.yul\":5249:5250   */\n      0x00\n        /* \"#utility.yul\":5246:5247   */\n      dup1\n        /* \"#utility.yul\":5239:5251   */\n      revert\n        /* \"#utility.yul\":5263:5380   */\n    tag_55:\n        /* \"#utility.yul\":5372:5373   */\n      0x00\n        /* \"#utility.yul\":5369:5370   */\n      dup1\n        /* \"#utility.yul\":5362:5374   */\n      revert\n        /* \"#utility.yul\":5386:5503   */\n    tag_52:\n        /* \"#utility.yul\":5495:5496   */\n      0x00\n        /* \"#utility.yul\":5492:5493   */\n      dup1\n        /* \"#utility.yul\":5485:5497   */\n      revert\n        /* \"#utility.yul\":5509:5611   */\n    tag_83:\n        /* \"#utility.yul\":5550:5556   */\n      0x00\n        /* \"#utility.yul\":5601:5603   */\n      0x1f\n        /* \"#utility.yul\":5597:5604   */\n      not\n        /* \"#utility.yul\":5592:5594   */\n      0x1f\n        /* \"#utility.yul\":5585:5590   */\n      dup4\n        /* \"#utility.yul\":5581:5595   */\n      add\n        /* \"#utility.yul\":5577:5605   */\n      and\n        /* \"#utility.yul\":5567:5605   */\n      swap1\n      pop\n        /* \"#utility.yul\":5509:5611   */\n      swap2\n      swap1\n      pop\n      jump\t// out\n\n    auxdata: 0xa26469706673582212203f1be39f77d06111fc41a6030c9b3298d7614174bad4f56d2bbff54af5f1404364736f6c63430008070033\n}\n",
				"bytecode": {
					"linkReferences": {},
					"object": "608060405234801561001057600080fd5b50610503806100206000396000f3fe608060405234801561001057600080fd5b50600436106100365760003560e01c80632e64cec11461003b5780634f3d057a14610059575b600080fd5b610043610075565b6040516100509190610398565b60405180910390f35b610073600480360381019061006e9190610289565b61014e565b005b60606000805480602002602001604051908101604052809291908181526020016000905b828210156101455783829060005260206000200180546100b890610442565b80601f01602080910402602001604051908101604052809291908181526020018280546100e490610442565b80156101315780601f1061010657610100808354040283529160200191610131565b820191906000526020600020905b81548152906001019060200180831161011457829003601f168201915b505050505081526020019060010190610099565b50505050905090565b600082829091806001815401808255809150506001900390600052602060002001600090919290919290919290919250919061018b929190610190565b505050565b82805461019c90610442565b90600052602060002090601f0160209004810192826101be5760008555610205565b82601f106101d757803560ff1916838001178555610205565b82800160010185558215610205579182015b828111156102045782358255916020019190600101906101e9565b5b5090506102129190610216565b5090565b5b8082111561022f576000816000905550600101610217565b5090565b60008083601f840112610249576102486104a8565b5b8235905067ffffffffffffffff811115610266576102656104a3565b5b602083019150836001820283011115610282576102816104ad565b5b9250929050565b600080602083850312156102a05761029f6104b7565b5b600083013567ffffffffffffffff8111156102be576102bd6104b2565b5b6102ca85828601610233565b92509250509250929050565b60006102e2838361035f565b905092915050565b60006102f5826103ca565b6102ff81856103ed565b935083602082028501610311856103ba565b8060005b8581101561034d578484038952815161032e85826102d6565b9450610339836103e0565b925060208a01995050600181019050610315565b50829750879550505050505092915050565b600061036a826103d5565b61037481856103fe565b935061038481856020860161040f565b61038d816104bc565b840191505092915050565b600060208201905081810360008301526103b281846102ea565b905092915050565b6000819050602082019050919050565b600081519050919050565b600081519050919050565b6000602082019050919050565b600082825260208201905092915050565b600082825260208201905092915050565b60005b8381101561042d578082015181840152602081019050610412565b8381111561043c576000848401525b50505050565b6000600282049050600182168061045a57607f821691505b6020821081141561046e5761046d610474565b5b50919050565b7f4e487b7100000000000000000000000000000000000000000000000000000000600052602260045260246000fd5b600080fd5b600080fd5b600080fd5b600080fd5b600080fd5b6000601f19601f830116905091905056fea26469706673582212203f1be39f77d06111fc41a6030c9b3298d7614174bad4f56d2bbff54af5f1404364736f6c63430008070033",
					"opcodes": "PUSH1 0x80 PUSH1 0x40 MSTORE CALLVALUE DUP1 ISZERO PUSH2 0x10 JUMPI PUSH1 0x0 DUP1 REVERT JUMPDEST POP PUSH2 0x503 DUP1 PUSH2 0x20 PUSH1 0x0 CODECOPY PUSH1 0x0 RETURN INVALID PUSH1 0x80 PUSH1 0x40 MSTORE CALLVALUE DUP1 ISZERO PUSH2 0x10 JUMPI PUSH1 0x0 DUP1 REVERT JUMPDEST POP PUSH1 0x4 CALLDATASIZE LT PUSH2 0x36 JUMPI PUSH1 0x0 CALLDATALOAD PUSH1 0xE0 SHR DUP1 PUSH4 0x2E64CEC1 EQ PUSH2 0x3B JUMPI DUP1 PUSH4 0x4F3D057A EQ PUSH2 0x59 JUMPI JUMPDEST PUSH1 0x0 DUP1 REVERT JUMPDEST PUSH2 0x43 PUSH2 0x75 JUMP JUMPDEST PUSH1 0x40 MLOAD PUSH2 0x50 SWAP2 SWAP1 PUSH2 0x398 JUMP JUMPDEST PUSH1 0x40 MLOAD DUP1 SWAP2 SUB SWAP1 RETURN JUMPDEST PUSH2 0x73 PUSH1 0x4 DUP1 CALLDATASIZE SUB DUP2 ADD SWAP1 PUSH2 0x6E SWAP2 SWAP1 PUSH2 0x289 JUMP JUMPDEST PUSH2 0x14E JUMP JUMPDEST STOP JUMPDEST PUSH1 0x60 PUSH1 0x0 DUP1 SLOAD DUP1 PUSH1 0x20 MUL PUSH1 0x20 ADD PUSH1 0x40 MLOAD SWAP1 DUP2 ADD PUSH1 0x40 MSTORE DUP1 SWAP3 SWAP2 SWAP1 DUP2 DUP2 MSTORE PUSH1 0x20 ADD PUSH1 0x0 SWAP1 JUMPDEST DUP3 DUP3 LT ISZERO PUSH2 0x145 JUMPI DUP4 DUP3 SWAP1 PUSH1 0x0 MSTORE PUSH1 0x20 PUSH1 0x0 KECCAK256 ADD DUP1 SLOAD PUSH2 0xB8 SWAP1 PUSH2 0x442 JUMP JUMPDEST DUP1 PUSH1 0x1F ADD PUSH1 0x20 DUP1 SWAP2 DIV MUL PUSH1 0x20 ADD PUSH1 0x40 MLOAD SWAP1 DUP2 ADD PUSH1 0x40 MSTORE DUP1 SWAP3 SWAP2 SWAP1 DUP2 DUP2 MSTORE PUSH1 0x20 ADD DUP3 DUP1 SLOAD PUSH2 0xE4 SWAP1 PUSH2 0x442 JUMP JUMPDEST DUP1 ISZERO PUSH2 0x131 JUMPI DUP1 PUSH1 0x1F LT PUSH2 0x106 JUMPI PUSH2 0x100 DUP1 DUP4 SLOAD DIV MUL DUP4 MSTORE SWAP2 PUSH1 0x20 ADD SWAP2 PUSH2 0x131 JUMP JUMPDEST DUP3 ADD SWAP2 SWAP1 PUSH1 0x0 MSTORE PUSH1 0x20 PUSH1 0x0 KECCAK256 SWAP1 JUMPDEST DUP2 SLOAD DUP2 MSTORE SWAP1 PUSH1 0x1 ADD SWAP1 PUSH1 0x20 ADD DUP1 DUP4 GT PUSH2 0x114 JUMPI DUP3 SWAP1 SUB PUSH1 0x1F AND DUP3 ADD SWAP2 JUMPDEST POP POP POP POP POP DUP2 MSTORE PUSH1 0x20 ADD SWAP1 PUSH1 0x1 ADD SWAP1 PUSH2 0x99 JUMP JUMPDEST POP POP POP POP SWAP1 POP SWAP1 JUMP JUMPDEST PUSH1 0x0 DUP3 DUP3 SWAP1 SWAP2 DUP1 PUSH1 0x1 DUP2 SLOAD ADD DUP1 DUP3 SSTORE DUP1 SWAP2 POP POP PUSH1 0x1 SWAP1 SUB SWAP1 PUSH1 0x0 MSTORE PUSH1 0x20 PUSH1 0x0 KECCAK256 ADD PUSH1 0x0 SWAP1 SWAP2 SWAP3 SWAP1 SWAP2 SWAP3 SWAP1 SWAP2 SWAP3 SWAP1 SWAP2 SWAP3 POP SWAP2 SWAP1 PUSH2 0x18B SWAP3 SWAP2 SWAP1 PUSH2 0x190 JUMP JUMPDEST POP POP POP JUMP JUMPDEST DUP3 DUP1 SLOAD PUSH2 0x19C SWAP1 PUSH2 0x442 JUMP JUMPDEST SWAP1 PUSH1 0x0 MSTORE PUSH1 0x20 PUSH1 0x0 KECCAK256 SWAP1 PUSH1 0x1F ADD PUSH1 0x20 SWAP1 DIV DUP2 ADD SWAP3 DUP3 PUSH2 0x1BE JUMPI PUSH1 0x0 DUP6 SSTORE PUSH2 0x205 JUMP JUMPDEST DUP3 PUSH1 0x1F LT PUSH2 0x1D7 JUMPI DUP1 CALLDATALOAD PUSH1 0xFF NOT AND DUP4 DUP1 ADD OR DUP6 SSTORE PUSH2 0x205 JUMP JUMPDEST DUP3 DUP1 ADD PUSH1 0x1 ADD DUP6 SSTORE DUP3 ISZERO PUSH2 0x205 JUMPI SWAP2 DUP3 ADD JUMPDEST DUP3 DUP2 GT ISZERO PUSH2 0x204 JUMPI DUP3 CALLDATALOAD DUP3 SSTORE SWAP2 PUSH1 0x20 ADD SWAP2 SWAP1 PUSH1 0x1 ADD SWAP1 PUSH2 0x1E9 JUMP JUMPDEST JUMPDEST POP SWAP1 POP PUSH2 0x212 SWAP2 SWAP1 PUSH2 0x216 JUMP JUMPDEST POP SWAP1 JUMP JUMPDEST JUMPDEST DUP1 DUP3 GT ISZERO PUSH2 0x22F JUMPI PUSH1 0x0 DUP2 PUSH1 0x0 SWAP1 SSTORE POP PUSH1 0x1 ADD PUSH2 0x217 JUMP JUMPDEST POP SWAP1 JUMP JUMPDEST PUSH1 0x0 DUP1 DUP4 PUSH1 0x1F DUP5 ADD SLT PUSH2 0x249 JUMPI PUSH2 0x248 PUSH2 0x4A8 JUMP JUMPDEST JUMPDEST DUP3 CALLDATALOAD SWAP1 POP PUSH8 0xFFFFFFFFFFFFFFFF DUP2 GT ISZERO PUSH2 0x266 JUMPI PUSH2 0x265 PUSH2 0x4A3 JUMP JUMPDEST JUMPDEST PUSH1 0x20 DUP4 ADD SWAP2 POP DUP4 PUSH1 0x1 DUP3 MUL DUP4 ADD GT ISZERO PUSH2 0x282 JUMPI PUSH2 0x281 PUSH2 0x4AD JUMP JUMPDEST JUMPDEST SWAP3 POP SWAP3 SWAP1 POP JUMP JUMPDEST PUSH1 0x0 DUP1 PUSH1 0x20 DUP4 DUP6 SUB SLT ISZERO PUSH2 0x2A0 JUMPI PUSH2 0x29F PUSH2 0x4B7 JUMP JUMPDEST JUMPDEST PUSH1 0x0 DUP4 ADD CALLDATALOAD PUSH8 0xFFFFFFFFFFFFFFFF DUP2 GT ISZERO PUSH2 0x2BE JUMPI PUSH2 0x2BD PUSH2 0x4B2 JUMP JUMPDEST JUMPDEST PUSH2 0x2CA DUP6 DUP3 DUP7 ADD PUSH2 0x233 JUMP JUMPDEST SWAP3 POP SWAP3 POP POP SWAP3 POP SWAP3 SWAP1 POP JUMP JUMPDEST PUSH1 0x0 PUSH2 0x2E2 DUP4 DUP4 PUSH2 0x35F JUMP JUMPDEST SWAP1 POP SWAP3 SWAP2 POP POP JUMP JUMPDEST PUSH1 0x0 PUSH2 0x2F5 DUP3 PUSH2 0x3CA JUMP JUMPDEST PUSH2 0x2FF DUP2 DUP6 PUSH2 0x3ED JUMP JUMPDEST SWAP4 POP DUP4 PUSH1 0x20 DUP3 MUL DUP6 ADD PUSH2 0x311 DUP6 PUSH2 0x3BA JUMP JUMPDEST DUP1 PUSH1 0x0 JUMPDEST DUP6 DUP2 LT ISZERO PUSH2 0x34D JUMPI DUP5 DUP5 SUB DUP10 MSTORE DUP2 MLOAD PUSH2 0x32E DUP6 DUP3 PUSH2 0x2D6 JUMP JUMPDEST SWAP5 POP PUSH2 0x339 DUP4 PUSH2 0x3E0 JUMP JUMPDEST SWAP3 POP PUSH1 0x20 DUP11 ADD SWAP10 POP POP PUSH1 0x1 DUP2 ADD SWAP1 POP PUSH2 0x315 JUMP JUMPDEST POP DUP3 SWAP8 POP DUP8 SWAP6 POP POP POP POP POP POP SWAP3 SWAP2 POP POP JUMP JUMPDEST PUSH1 0x0 PUSH2 0x36A DUP3 PUSH2 0x3D5 JUMP JUMPDEST PUSH2 0x374 DUP2 DUP6 PUSH2 0x3FE JUMP JUMPDEST SWAP4 POP PUSH2 0x384 DUP2 DUP6 PUSH1 0x20 DUP7 ADD PUSH2 0x40F JUMP JUMPDEST PUSH2 0x38D DUP2 PUSH2 0x4BC JUMP JUMPDEST DUP5 ADD SWAP2 POP POP SWAP3 SWAP2 POP POP JUMP JUMPDEST PUSH1 0x0 PUSH1 0x20 DUP3 ADD SWAP1 POP DUP2 DUP2 SUB PUSH1 0x0 DUP4 ADD MSTORE PUSH2 0x3B2 DUP2 DUP5 PUSH2 0x2EA JUMP JUMPDEST SWAP1 POP SWAP3 SWAP2 POP POP JUMP JUMPDEST PUSH1 0x0 DUP2 SWAP1 POP PUSH1 0x20 DUP3 ADD SWAP1 POP SWAP2 SWAP1 POP JUMP JUMPDEST PUSH1 0x0 DUP2 MLOAD SWAP1 POP SWAP2 SWAP1 POP JUMP JUMPDEST PUSH1 0x0 DUP2 MLOAD SWAP1 POP SWAP2 SWAP1 POP JUMP JUMPDEST PUSH1 0x0 PUSH1 0x20 DUP3 ADD SWAP1 POP SWAP2 SWAP1 POP JUMP JUMPDEST PUSH1 0x0 DUP3 DUP3 MSTORE PUSH1 0x20 DUP3 ADD SWAP1 POP SWAP3 SWAP2 POP POP JUMP JUMPDEST PUSH1 0x0 DUP3 DUP3 MSTORE PUSH1 0x20 DUP3 ADD SWAP1 POP SWAP3 SWAP2 POP POP JUMP JUMPDEST PUSH1 0x0 JUMPDEST DUP4 DUP2 LT ISZERO PUSH2 0x42D JUMPI DUP1 DUP3 ADD MLOAD DUP2 DUP5 ADD MSTORE PUSH1 0x20 DUP2 ADD SWAP1 POP PUSH2 0x412 JUMP JUMPDEST DUP4 DUP2 GT ISZERO PUSH2 0x43C JUMPI PUSH1 0x0 DUP5 DUP5 ADD MSTORE JUMPDEST POP POP POP POP JUMP JUMPDEST PUSH1 0x0 PUSH1 0x2 DUP3 DIV SWAP1 POP PUSH1 0x1 DUP3 AND DUP1 PUSH2 0x45A JUMPI PUSH1 0x7F DUP3 AND SWAP2 POP JUMPDEST PUSH1 0x20 DUP3 LT DUP2 EQ ISZERO PUSH2 0x46E JUMPI PUSH2 0x46D PUSH2 0x474 JUMP JUMPDEST JUMPDEST POP SWAP2 SWAP1 POP JUMP JUMPDEST PUSH32 0x4E487B7100000000000000000000000000000000000000000000000000000000 PUSH1 0x0 MSTORE PUSH1 0x22 PUSH1 0x4 MSTORE PUSH1 0x24 PUSH1 0x0 REVERT JUMPDEST PUSH1 0x0 DUP1 REVERT JUMPDEST PUSH1 0x0 DUP1 REVERT JUMPDEST PUSH1 0x0 DUP1 REVERT JUMPDEST PUSH1 0x0 DUP1 REVERT JUMPDEST PUSH1 0x0 DUP1 REVERT JUMPDEST PUSH1 0x0 PUSH1 0x1F NOT PUSH1 0x1F DUP4 ADD AND SWAP1 POP SWAP2 SWAP1 POP JUMP INVALID LOG2 PUSH5 0x6970667358 0x22 SLT KECCAK256 EXTCODEHASH SHL 0xE3 SWAP16 PUSH24 0xD06111FC41A6030C9B3298D7614174BAD4F56D2BBFF54AF5 CALL BLOCKHASH NUMBER PUSH5 0x736F6C6343 STOP ADDMOD SMOD STOP CALLER "
				},
				"gasEstimates": {
					"creation": {
						"codeDepositCost": "256600",
						"executionCost": "300",
						"totalCost": "256900"
					},
					"external": {
						"push(string)": "infinite",
						"retrieve()": "infinite"
					}
				},
				"methodIdentifiers": {
					"push(string)": "4f3d057a",
					"retrieve()": "2e64cec1"
				}
			},
			"storageLayout": {
				"storage": [
					{
						"astId": 5,
						"contract": "contracts/1_Storage.sol:Storage",
						"label": "store",
						"offset": 0,
						"slot": "0",
						"type": "t_array(t_string_storage)dyn_storage"
					}
				],
				"types": {
					"t_array(t_string_storage)dyn_storage": {
						"base": "t_string_storage",
						"encoding": "dynamic_array",
						"label": "string[]",
						"numberOfBytes": "32"
					},
					"t_string_storage": {
						"encoding": "bytes",
						"label": "string",
						"numberOfBytes": "32"
					}
				}
			},
			"userdoc": {
				"kind": "user",
				"methods": {},
				"version": 1
			}
		}
	}
}