{
	"contracts/1_Storage.sol": {
		"Storage": {
			"abi": [
				{
					"inputs": [
						{
							"internalType": "uint256",
							"name": "",
							"type": "uint256"
						}
					],
					"name": "addresses",
					"outputs": [
						{
							"internalType": "address",
							"name": "",
							"type": "address"
						}
					],
					"stateMutability": "view",
					"type": "function"
				},
				{
					"inputs": [
						{
							"internalType": "string",
							"name": "_text",
							"type": "string"
						}
					],
					"name": "push",
					"outputs": [],
					"stateMutability": "nonpayable",
					"type": "function"
				},
				{
					"inputs": [],
					"name": "retrieve",
					"outputs": [
						{
							"internalType": "address[]",
							"name": "",
							"type": "address[]"
						},
						{
							"internalType": "string[]",
							"name": "",
							"type": "string[]"
						}
					],
					"stateMutability": "view",
					"type": "function"
				}
			],
			"devdoc": {
				"custom:dev-run-script": "./scripts/deploy_with_ethers.ts",
				"details": "Store & retrieve value in a variable",
				"kind": "dev",
				"methods": {},
				"title": "Storage",
				"version": 1
			},
			"evm": {
				"assembly": "    /* \"contracts/1_Storage.sol\":199:838  contract Storage {... */\n  mstore(0x40, 0x80)\n  callvalue\n  dup1\n  iszero\n  tag_1\n  jumpi\n  0x00\n  dup1\n  revert\ntag_1:\n  pop\n  dataSize(sub_0)\n  dup1\n  dataOffset(sub_0)\n  0x00\n  codecopy\n  0x00\n  return\nstop\n\nsub_0: assembly {\n        /* \"contracts/1_Storage.sol\":199:838  contract Storage {... */\n      mstore(0x40, 0x80)\n      callvalue\n      dup1\n      iszero\n      tag_1\n      jumpi\n      0x00\n      dup1\n      revert\n    tag_1:\n      pop\n      jumpi(tag_2, lt(calldatasize, 0x04))\n      shr(0xe0, calldataload(0x00))\n      dup1\n      0x2e64cec1\n      eq\n      tag_3\n      jumpi\n      dup1\n      0x4f3d057a\n      eq\n      tag_4\n      jumpi\n      dup1\n      0xedf26d9b\n      eq\n      tag_5\n      jumpi\n    tag_2:\n      0x00\n      dup1\n      revert\n        /* \"contracts/1_Storage.sol\":385:836  function retrieve() external view returns(address[] memory, string[] memory)... */\n    tag_3:\n      tag_6\n      tag_7\n      jump\t// in\n    tag_6:\n      mload(0x40)\n      tag_8\n      swap3\n      swap2\n      swap1\n      tag_9\n      jump\t// in\n    tag_8:\n      mload(0x40)\n      dup1\n      swap2\n      sub\n      swap1\n      return\n        /* \"contracts/1_Storage.sol\":293:379  function push(string memory _text) external {... */\n    tag_4:\n      tag_10\n      0x04\n      dup1\n      calldatasize\n      sub\n      dup2\n      add\n      swap1\n      tag_11\n      swap2\n      swap1\n      tag_12\n      jump\t// in\n    tag_11:\n      tag_13\n      jump\t// in\n    tag_10:\n      stop\n        /* \"contracts/1_Storage.sol\":260:286  address[] public addresses */\n    tag_5:\n      tag_14\n      0x04\n      dup1\n      calldatasize\n      sub\n      dup2\n      add\n      swap1\n      tag_15\n      swap2\n      swap1\n      tag_16\n      jump\t// in\n    tag_15:\n      tag_17\n      jump\t// in\n    tag_14:\n      mload(0x40)\n      tag_18\n      swap2\n      swap1\n      tag_19\n      jump\t// in\n    tag_18:\n      mload(0x40)\n      dup1\n      swap2\n      sub\n      swap1\n      return\n        /* \"contracts/1_Storage.sol\":385:836  function retrieve() external view returns(address[] memory, string[] memory)... */\n    tag_7:\n        /* \"contracts/1_Storage.sol\":427:443  address[] memory */\n      0x60\n        /* \"contracts/1_Storage.sol\":445:460  string[] memory */\n      dup1\n        /* \"contracts/1_Storage.sol\":480:507  address[] memory returnKeys */\n      0x00\n        /* \"contracts/1_Storage.sol\":524:533  addresses */\n      0x01\n        /* \"contracts/1_Storage.sol\":524:540  addresses.length */\n      dup1\n      sload\n      swap1\n      pop\n        /* \"contracts/1_Storage.sol\":510:541  new address[](addresses.length) */\n      0xffffffffffffffff\n      dup2\n      gt\n      iszero\n      tag_21\n      jumpi\n      tag_22\n      tag_23\n      jump\t// in\n    tag_22:\n    tag_21:\n      mload(0x40)\n      swap1\n      dup1\n      dup3\n      mstore\n      dup1\n      0x20\n      mul\n      0x20\n      add\n      dup3\n      add\n      0x40\n      mstore\n      dup1\n      iszero\n      tag_24\n      jumpi\n      dup2\n      0x20\n      add\n      0x20\n      dup3\n      mul\n      dup1\n      calldatasize\n      dup4\n      calldatacopy\n      dup1\n      dup3\n      add\n      swap2\n      pop\n      pop\n      swap1\n      pop\n    tag_24:\n      pop\n        /* \"contracts/1_Storage.sol\":480:541  address[] memory returnKeys = new address[](addresses.length) */\n      swap1\n      pop\n        /* \"contracts/1_Storage.sol\":550:578  string[] memory returnValues */\n      0x00\n        /* \"contracts/1_Storage.sol\":595:604  addresses */\n      0x01\n        /* \"contracts/1_Storage.sol\":595:611  addresses.length */\n      dup1\n      sload\n      swap1\n      pop\n        /* \"contracts/1_Storage.sol\":582:612  new string[](addresses.length) */\n      0xffffffffffffffff\n      dup2\n      gt\n      iszero\n      tag_25\n      jumpi\n      tag_26\n      tag_23\n      jump\t// in\n    tag_26:\n    tag_25:\n      mload(0x40)\n      swap1\n      dup1\n      dup3\n      mstore\n      dup1\n      0x20\n      mul\n      0x20\n      add\n      dup3\n      add\n      0x40\n      mstore\n      dup1\n      iszero\n      tag_27\n      jumpi\n      dup2\n      0x20\n      add\n    tag_28:\n      0x60\n      dup2\n      mstore\n      0x20\n      add\n      swap1\n      0x01\n      swap1\n      sub\n      swap1\n      dup2\n      tag_28\n      jumpi\n      swap1\n      pop\n    tag_27:\n      pop\n        /* \"contracts/1_Storage.sol\":550:612  string[] memory returnValues  = new string[](addresses.length) */\n      swap1\n      pop\n        /* \"contracts/1_Storage.sol\":626:632  uint i */\n      0x00\n        /* \"contracts/1_Storage.sol\":622:789  for(uint i = 0; i < addresses.length; i++)... */\n    tag_29:\n        /* \"contracts/1_Storage.sol\":642:651  addresses */\n      0x01\n        /* \"contracts/1_Storage.sol\":642:658  addresses.length */\n      dup1\n      sload\n      swap1\n      pop\n        /* \"contracts/1_Storage.sol\":638:639  i */\n      dup2\n        /* \"contracts/1_Storage.sol\":638:658  i < addresses.length */\n      lt\n        /* \"contracts/1_Storage.sol\":622:789  for(uint i = 0; i < addresses.length; i++)... */\n      iszero\n      tag_30\n      jumpi\n        /* \"contracts/1_Storage.sol\":701:710  addresses */\n      0x01\n        /* \"contracts/1_Storage.sol\":711:712  i */\n      dup2\n        /* \"contracts/1_Storage.sol\":701:713  addresses[i] */\n      dup2\n      sload\n      dup2\n      lt\n      tag_32\n      jumpi\n      tag_33\n      tag_34\n      jump\t// in\n    tag_33:\n    tag_32:\n      swap1\n      0x00\n      mstore\n      keccak256(0x00, 0x20)\n      add\n      0x00\n      swap1\n      sload\n      swap1\n      0x0100\n      exp\n      swap1\n      div\n      0xffffffffffffffffffffffffffffffffffffffff\n      and\n        /* \"contracts/1_Storage.sol\":685:695  returnKeys */\n      dup4\n        /* \"contracts/1_Storage.sol\":696:697  i */\n      dup3\n        /* \"contracts/1_Storage.sol\":685:698  returnKeys[i] */\n      dup2\n      mload\n      dup2\n      lt\n      tag_36\n      jumpi\n      tag_37\n      tag_34\n      jump\t// in\n    tag_37:\n    tag_36:\n      0x20\n      mul\n      0x20\n      add\n      add\n        /* \"contracts/1_Storage.sol\":685:713  returnKeys[i] = addresses[i] */\n      swap1\n      0xffffffffffffffffffffffffffffffffffffffff\n      and\n      swap1\n      dup2\n      0xffffffffffffffffffffffffffffffffffffffff\n      and\n      dup2\n      mstore\n      pop\n      pop\n        /* \"contracts/1_Storage.sol\":744:749  store */\n      0x00\n        /* \"contracts/1_Storage.sol\":744:763  store[addresses[i]] */\n      dup1\n        /* \"contracts/1_Storage.sol\":750:759  addresses */\n      0x01\n        /* \"contracts/1_Storage.sol\":760:761  i */\n      dup4\n        /* \"contracts/1_Storage.sol\":750:762  addresses[i] */\n      dup2\n      sload\n      dup2\n      lt\n      tag_38\n      jumpi\n      tag_39\n      tag_34\n      jump\t// in\n    tag_39:\n    tag_38:\n      swap1\n      0x00\n      mstore\n      keccak256(0x00, 0x20)\n      add\n      0x00\n      swap1\n      sload\n      swap1\n      0x0100\n      exp\n      swap1\n      div\n      0xffffffffffffffffffffffffffffffffffffffff\n      and\n        /* \"contracts/1_Storage.sol\":744:763  store[addresses[i]] */\n      0xffffffffffffffffffffffffffffffffffffffff\n      and\n      0xffffffffffffffffffffffffffffffffffffffff\n      and\n      dup2\n      mstore\n      0x20\n      add\n      swap1\n      dup2\n      mstore\n      0x20\n      add\n      0x00\n      keccak256\n        /* \"contracts/1_Storage.sol\":726:763  returnValues[i] = store[addresses[i]] */\n      dup1\n      sload\n      tag_41\n      swap1\n      tag_42\n      jump\t// in\n    tag_41:\n      dup1\n      0x1f\n      add\n      0x20\n      dup1\n      swap2\n      div\n      mul\n      0x20\n      add\n      mload(0x40)\n      swap1\n      dup2\n      add\n      0x40\n      mstore\n      dup1\n      swap3\n      swap2\n      swap1\n      dup2\n      dup2\n      mstore\n      0x20\n      add\n      dup3\n      dup1\n      sload\n      tag_43\n      swap1\n      tag_42\n      jump\t// in\n    tag_43:\n      dup1\n      iszero\n      tag_44\n      jumpi\n      dup1\n      0x1f\n      lt\n      tag_45\n      jumpi\n      0x0100\n      dup1\n      dup4\n      sload\n      div\n      mul\n      dup4\n      mstore\n      swap2\n      0x20\n      add\n      swap2\n      jump(tag_44)\n    tag_45:\n      dup3\n      add\n      swap2\n      swap1\n      0x00\n      mstore\n      keccak256(0x00, 0x20)\n      swap1\n    tag_46:\n      dup2\n      sload\n      dup2\n      mstore\n      swap1\n      0x01\n      add\n      swap1\n      0x20\n      add\n      dup1\n      dup4\n      gt\n      tag_46\n      jumpi\n      dup3\n      swap1\n      sub\n      0x1f\n      and\n      dup3\n      add\n      swap2\n    tag_44:\n      pop\n      pop\n      pop\n      pop\n      pop\n        /* \"contracts/1_Storage.sol\":726:738  returnValues */\n      dup3\n        /* \"contracts/1_Storage.sol\":739:740  i */\n      dup3\n        /* \"contracts/1_Storage.sol\":726:741  returnValues[i] */\n      dup2\n      mload\n      dup2\n      lt\n      tag_47\n      jumpi\n      tag_48\n      tag_34\n      jump\t// in\n    tag_48:\n    tag_47:\n      0x20\n      mul\n      0x20\n      add\n      add\n        /* \"contracts/1_Storage.sol\":726:763  returnValues[i] = store[addresses[i]] */\n      dup2\n      swap1\n      mstore\n      pop\n        /* \"contracts/1_Storage.sol\":776:779  i++ */\n      dup1\n      dup1\n      tag_49\n      swap1\n      tag_50\n      jump\t// in\n    tag_49:\n      swap2\n      pop\n      pop\n        /* \"contracts/1_Storage.sol\":660:663  i++ */\n      dup1\n      dup1\n      tag_51\n      swap1\n      tag_50\n      jump\t// in\n    tag_51:\n      swap2\n      pop\n      pop\n        /* \"contracts/1_Storage.sol\":622:789  for(uint i = 0; i < addresses.length; i++)... */\n      jump(tag_29)\n    tag_30:\n      pop\n        /* \"contracts/1_Storage.sol\":804:814  returnKeys */\n      dup2\n        /* \"contracts/1_Storage.sol\":816:828  returnValues */\n      dup2\n        /* \"contracts/1_Storage.sol\":797:829  return(returnKeys, returnValues) */\n      swap4\n      pop\n      swap4\n      pop\n      pop\n      pop\n        /* \"contracts/1_Storage.sol\":385:836  function retrieve() external view returns(address[] memory, string[] memory)... */\n      swap1\n      swap2\n      jump\t// out\n        /* \"contracts/1_Storage.sol\":293:379  function push(string memory _text) external {... */\n    tag_13:\n        /* \"contracts/1_Storage.sol\":367:372  _text */\n      dup1\n        /* \"contracts/1_Storage.sol\":347:352  store */\n      0x00\n        /* \"contracts/1_Storage.sol\":347:364  store[msg.sender] */\n      dup1\n        /* \"contracts/1_Storage.sol\":353:363  msg.sender */\n      caller\n        /* \"contracts/1_Storage.sol\":347:364  store[msg.sender] */\n      0xffffffffffffffffffffffffffffffffffffffff\n      and\n      0xffffffffffffffffffffffffffffffffffffffff\n      and\n      dup2\n      mstore\n      0x20\n      add\n      swap1\n      dup2\n      mstore\n      0x20\n      add\n      0x00\n      keccak256\n        /* \"contracts/1_Storage.sol\":347:372  store[msg.sender] = _text */\n      swap1\n      dup1\n      mload\n      swap1\n      0x20\n      add\n      swap1\n      tag_53\n      swap3\n      swap2\n      swap1\n      tag_54\n      jump\t// in\n    tag_53:\n      pop\n        /* \"contracts/1_Storage.sol\":293:379  function push(string memory _text) external {... */\n      pop\n      jump\t// out\n        /* \"contracts/1_Storage.sol\":260:286  address[] public addresses */\n    tag_17:\n      0x01\n      dup2\n      dup2\n      sload\n      dup2\n      lt\n      tag_55\n      jumpi\n      0x00\n      dup1\n      revert\n    tag_55:\n      swap1\n      0x00\n      mstore\n      keccak256(0x00, 0x20)\n      add\n      0x00\n      swap2\n      pop\n      sload\n      swap1\n      0x0100\n      exp\n      swap1\n      div\n      0xffffffffffffffffffffffffffffffffffffffff\n      and\n      dup2\n      jump\t// out\n    tag_54:\n      dup3\n      dup1\n      sload\n      tag_57\n      swap1\n      tag_42\n      jump\t// in\n    tag_57:\n      swap1\n      0x00\n      mstore\n      keccak256(0x00, 0x20)\n      swap1\n      0x1f\n      add\n      0x20\n      swap1\n      div\n      dup2\n      add\n      swap3\n      dup3\n      tag_59\n      jumpi\n      0x00\n      dup6\n      sstore\n      jump(tag_58)\n    tag_59:\n      dup3\n      0x1f\n      lt\n      tag_60\n      jumpi\n      dup1\n      mload\n      not(0xff)\n      and\n      dup4\n      dup1\n      add\n      or\n      dup6\n      sstore\n      jump(tag_58)\n    tag_60:\n      dup3\n      dup1\n      add\n      0x01\n      add\n      dup6\n      sstore\n      dup3\n      iszero\n      tag_58\n      jumpi\n      swap2\n      dup3\n      add\n    tag_61:\n      dup3\n      dup2\n      gt\n      iszero\n      tag_62\n      jumpi\n      dup3\n      mload\n      dup3\n      sstore\n      swap2\n      0x20\n      add\n      swap2\n      swap1\n      0x01\n      add\n      swap1\n      jump(tag_61)\n    tag_62:\n    tag_58:\n      pop\n      swap1\n      pop\n      tag_63\n      swap2\n      swap1\n      tag_64\n      jump\t// in\n    tag_63:\n      pop\n      swap1\n      jump\t// out\n    tag_64:\n    tag_65:\n      dup1\n      dup3\n      gt\n      iszero\n      tag_66\n      jumpi\n      0x00\n      dup2\n      0x00\n      swap1\n      sstore\n      pop\n      0x01\n      add\n      jump(tag_65)\n    tag_66:\n      pop\n      swap1\n      jump\t// out\n        /* \"#utility.yul\":7:419   */\n    tag_68:\n        /* \"#utility.yul\":85:90   */\n      0x00\n        /* \"#utility.yul\":110:176   */\n      tag_70\n        /* \"#utility.yul\":126:175   */\n      tag_71\n        /* \"#utility.yul\":168:174   */\n      dup5\n        /* \"#utility.yul\":126:175   */\n      tag_72\n      jump\t// in\n    tag_71:\n        /* \"#utility.yul\":110:176   */\n      tag_73\n      jump\t// in\n    tag_70:\n        /* \"#utility.yul\":101:176   */\n      swap1\n      pop\n        /* \"#utility.yul\":199:205   */\n      dup3\n        /* \"#utility.yul\":192:197   */\n      dup2\n        /* \"#utility.yul\":185:206   */\n      mstore\n        /* \"#utility.yul\":237:241   */\n      0x20\n        /* \"#utility.yul\":230:235   */\n      dup2\n        /* \"#utility.yul\":226:242   */\n      add\n        /* \"#utility.yul\":275:278   */\n      dup5\n        /* \"#utility.yul\":266:272   */\n      dup5\n        /* \"#utility.yul\":261:264   */\n      dup5\n        /* \"#utility.yul\":257:273   */\n      add\n        /* \"#utility.yul\":254:279   */\n      gt\n        /* \"#utility.yul\":251:363   */\n      iszero\n      tag_74\n      jumpi\n        /* \"#utility.yul\":282:361   */\n      tag_75\n      tag_76\n      jump\t// in\n    tag_75:\n        /* \"#utility.yul\":251:363   */\n    tag_74:\n        /* \"#utility.yul\":372:413   */\n      tag_77\n        /* \"#utility.yul\":406:412   */\n      dup5\n        /* \"#utility.yul\":401:404   */\n      dup3\n        /* \"#utility.yul\":396:399   */\n      dup6\n        /* \"#utility.yul\":372:413   */\n      tag_78\n      jump\t// in\n    tag_77:\n        /* \"#utility.yul\":91:419   */\n      pop\n        /* \"#utility.yul\":7:419   */\n      swap4\n      swap3\n      pop\n      pop\n      pop\n      jump\t// out\n        /* \"#utility.yul\":439:779   */\n    tag_79:\n        /* \"#utility.yul\":495:500   */\n      0x00\n        /* \"#utility.yul\":544:547   */\n      dup3\n        /* \"#utility.yul\":537:541   */\n      0x1f\n        /* \"#utility.yul\":529:535   */\n      dup4\n        /* \"#utility.yul\":525:542   */\n      add\n        /* \"#utility.yul\":521:548   */\n      slt\n        /* \"#utility.yul\":511:633   */\n      tag_81\n      jumpi\n        /* \"#utility.yul\":552:631   */\n      tag_82\n      tag_83\n      jump\t// in\n    tag_82:\n        /* \"#utility.yul\":511:633   */\n    tag_81:\n        /* \"#utility.yul\":669:675   */\n      dup2\n        /* \"#utility.yul\":656:676   */\n      calldataload\n        /* \"#utility.yul\":694:773   */\n      tag_84\n        /* \"#utility.yul\":769:772   */\n      dup5\n        /* \"#utility.yul\":761:767   */\n      dup3\n        /* \"#utility.yul\":754:758   */\n      0x20\n        /* \"#utility.yul\":746:752   */\n      dup7\n        /* \"#utility.yul\":742:759   */\n      add\n        /* \"#utility.yul\":694:773   */\n      tag_68\n      jump\t// in\n    tag_84:\n        /* \"#utility.yul\":685:773   */\n      swap2\n      pop\n        /* \"#utility.yul\":501:779   */\n      pop\n        /* \"#utility.yul\":439:779   */\n      swap3\n      swap2\n      pop\n      pop\n      jump\t// out\n        /* \"#utility.yul\":785:924   */\n    tag_85:\n        /* \"#utility.yul\":831:836   */\n      0x00\n        /* \"#utility.yul\":869:875   */\n      dup2\n        /* \"#utility.yul\":856:876   */\n      calldataload\n        /* \"#utility.yul\":847:876   */\n      swap1\n      pop\n        /* \"#utility.yul\":885:918   */\n      tag_87\n        /* \"#utility.yul\":912:917   */\n      dup2\n        /* \"#utility.yul\":885:918   */\n      tag_88\n      jump\t// in\n    tag_87:\n        /* \"#utility.yul\":785:924   */\n      swap3\n      swap2\n      pop\n      pop\n      jump\t// out\n        /* \"#utility.yul\":930:1439   */\n    tag_12:\n        /* \"#utility.yul\":999:1005   */\n      0x00\n        /* \"#utility.yul\":1048:1050   */\n      0x20\n        /* \"#utility.yul\":1036:1045   */\n      dup3\n        /* \"#utility.yul\":1027:1034   */\n      dup5\n        /* \"#utility.yul\":1023:1046   */\n      sub\n        /* \"#utility.yul\":1019:1051   */\n      slt\n        /* \"#utility.yul\":1016:1135   */\n      iszero\n      tag_90\n      jumpi\n        /* \"#utility.yul\":1054:1133   */\n      tag_91\n      tag_92\n      jump\t// in\n    tag_91:\n        /* \"#utility.yul\":1016:1135   */\n    tag_90:\n        /* \"#utility.yul\":1202:1203   */\n      0x00\n        /* \"#utility.yul\":1191:1200   */\n      dup3\n        /* \"#utility.yul\":1187:1204   */\n      add\n        /* \"#utility.yul\":1174:1205   */\n      calldataload\n        /* \"#utility.yul\":1232:1250   */\n      0xffffffffffffffff\n        /* \"#utility.yul\":1224:1230   */\n      dup2\n        /* \"#utility.yul\":1221:1251   */\n      gt\n        /* \"#utility.yul\":1218:1335   */\n      iszero\n      tag_93\n      jumpi\n        /* \"#utility.yul\":1254:1333   */\n      tag_94\n      tag_95\n      jump\t// in\n    tag_94:\n        /* \"#utility.yul\":1218:1335   */\n    tag_93:\n        /* \"#utility.yul\":1359:1422   */\n      tag_96\n        /* \"#utility.yul\":1414:1421   */\n      dup5\n        /* \"#utility.yul\":1405:1411   */\n      dup3\n        /* \"#utility.yul\":1394:1403   */\n      dup6\n        /* \"#utility.yul\":1390:1412   */\n      add\n        /* \"#utility.yul\":1359:1422   */\n      tag_79\n      jump\t// in\n    tag_96:\n        /* \"#utility.yul\":1349:1422   */\n      swap2\n      pop\n        /* \"#utility.yul\":1145:1432   */\n      pop\n        /* \"#utility.yul\":930:1439   */\n      swap3\n      swap2\n      pop\n      pop\n      jump\t// out\n        /* \"#utility.yul\":1445:1774   */\n    tag_16:\n        /* \"#utility.yul\":1504:1510   */\n      0x00\n        /* \"#utility.yul\":1553:1555   */\n      0x20\n        /* \"#utility.yul\":1541:1550   */\n      dup3\n        /* \"#utility.yul\":1532:1539   */\n      dup5\n        /* \"#utility.yul\":1528:1551   */\n      sub\n        /* \"#utility.yul\":1524:1556   */\n      slt\n        /* \"#utility.yul\":1521:1640   */\n      iszero\n      tag_98\n      jumpi\n        /* \"#utility.yul\":1559:1638   */\n      tag_99\n      tag_92\n      jump\t// in\n    tag_99:\n        /* \"#utility.yul\":1521:1640   */\n    tag_98:\n        /* \"#utility.yul\":1679:1680   */\n      0x00\n        /* \"#utility.yul\":1704:1757   */\n      tag_100\n        /* \"#utility.yul\":1749:1756   */\n      dup5\n        /* \"#utility.yul\":1740:1746   */\n      dup3\n        /* \"#utility.yul\":1729:1738   */\n      dup6\n        /* \"#utility.yul\":1725:1747   */\n      add\n        /* \"#utility.yul\":1704:1757   */\n      tag_85\n      jump\t// in\n    tag_100:\n        /* \"#utility.yul\":1694:1757   */\n      swap2\n      pop\n        /* \"#utility.yul\":1650:1767   */\n      pop\n        /* \"#utility.yul\":1445:1774   */\n      swap3\n      swap2\n      pop\n      pop\n      jump\t// out\n        /* \"#utility.yul\":1780:1959   */\n    tag_101:\n        /* \"#utility.yul\":1849:1859   */\n      0x00\n        /* \"#utility.yul\":1870:1916   */\n      tag_103\n        /* \"#utility.yul\":1912:1915   */\n      dup4\n        /* \"#utility.yul\":1904:1910   */\n      dup4\n        /* \"#utility.yul\":1870:1916   */\n      tag_104\n      jump\t// in\n    tag_103:\n        /* \"#utility.yul\":1948:1952   */\n      0x20\n        /* \"#utility.yul\":1943:1946   */\n      dup4\n        /* \"#utility.yul\":1939:1953   */\n      add\n        /* \"#utility.yul\":1925:1953   */\n      swap1\n      pop\n        /* \"#utility.yul\":1780:1959   */\n      swap3\n      swap2\n      pop\n      pop\n      jump\t// out\n        /* \"#utility.yul\":1965:2161   */\n    tag_105:\n        /* \"#utility.yul\":2054:2064   */\n      0x00\n        /* \"#utility.yul\":2089:2155   */\n      tag_107\n        /* \"#utility.yul\":2151:2154   */\n      dup4\n        /* \"#utility.yul\":2143:2149   */\n      dup4\n        /* \"#utility.yul\":2089:2155   */\n      tag_108\n      jump\t// in\n    tag_107:\n        /* \"#utility.yul\":2075:2155   */\n      swap1\n      pop\n        /* \"#utility.yul\":1965:2161   */\n      swap3\n      swap2\n      pop\n      pop\n      jump\t// out\n        /* \"#utility.yul\":2167:2275   */\n    tag_104:\n        /* \"#utility.yul\":2244:2268   */\n      tag_110\n        /* \"#utility.yul\":2262:2267   */\n      dup2\n        /* \"#utility.yul\":2244:2268   */\n      tag_111\n      jump\t// in\n    tag_110:\n        /* \"#utility.yul\":2239:2242   */\n      dup3\n        /* \"#utility.yul\":2232:2269   */\n      mstore\n        /* \"#utility.yul\":2167:2275   */\n      pop\n      pop\n      jump\t// out\n        /* \"#utility.yul\":2281:2399   */\n    tag_112:\n        /* \"#utility.yul\":2368:2392   */\n      tag_114\n        /* \"#utility.yul\":2386:2391   */\n      dup2\n        /* \"#utility.yul\":2368:2392   */\n      tag_111\n      jump\t// in\n    tag_114:\n        /* \"#utility.yul\":2363:2366   */\n      dup3\n        /* \"#utility.yul\":2356:2393   */\n      mstore\n        /* \"#utility.yul\":2281:2399   */\n      pop\n      pop\n      jump\t// out\n        /* \"#utility.yul\":2435:3167   */\n    tag_115:\n        /* \"#utility.yul\":2554:2557   */\n      0x00\n        /* \"#utility.yul\":2583:2637   */\n      tag_117\n        /* \"#utility.yul\":2631:2636   */\n      dup3\n        /* \"#utility.yul\":2583:2637   */\n      tag_118\n      jump\t// in\n    tag_117:\n        /* \"#utility.yul\":2653:2739   */\n      tag_119\n        /* \"#utility.yul\":2732:2738   */\n      dup2\n        /* \"#utility.yul\":2727:2730   */\n      dup6\n        /* \"#utility.yul\":2653:2739   */\n      tag_120\n      jump\t// in\n    tag_119:\n        /* \"#utility.yul\":2646:2739   */\n      swap4\n      pop\n        /* \"#utility.yul\":2763:2819   */\n      tag_121\n        /* \"#utility.yul\":2813:2818   */\n      dup4\n        /* \"#utility.yul\":2763:2819   */\n      tag_122\n      jump\t// in\n    tag_121:\n        /* \"#utility.yul\":2842:2849   */\n      dup1\n        /* \"#utility.yul\":2873:2874   */\n      0x00\n        /* \"#utility.yul\":2858:3142   */\n    tag_123:\n        /* \"#utility.yul\":2883:2889   */\n      dup4\n        /* \"#utility.yul\":2880:2881   */\n      dup2\n        /* \"#utility.yul\":2877:2890   */\n      lt\n        /* \"#utility.yul\":2858:3142   */\n      iszero\n      tag_125\n      jumpi\n        /* \"#utility.yul\":2959:2965   */\n      dup2\n        /* \"#utility.yul\":2953:2966   */\n      mload\n        /* \"#utility.yul\":2986:3049   */\n      tag_126\n        /* \"#utility.yul\":3045:3048   */\n      dup9\n        /* \"#utility.yul\":3030:3043   */\n      dup3\n        /* \"#utility.yul\":2986:3049   */\n      tag_101\n      jump\t// in\n    tag_126:\n        /* \"#utility.yul\":2979:3049   */\n      swap8\n      pop\n        /* \"#utility.yul\":3072:3132   */\n      tag_127\n        /* \"#utility.yul\":3125:3131   */\n      dup4\n        /* \"#utility.yul\":3072:3132   */\n      tag_128\n      jump\t// in\n    tag_127:\n        /* \"#utility.yul\":3062:3132   */\n      swap3\n      pop\n        /* \"#utility.yul\":2918:3142   */\n      pop\n        /* \"#utility.yul\":2905:2906   */\n      0x01\n        /* \"#utility.yul\":2902:2903   */\n      dup2\n        /* \"#utility.yul\":2898:2907   */\n      add\n        /* \"#utility.yul\":2893:2907   */\n      swap1\n      pop\n        /* \"#utility.yul\":2858:3142   */\n      jump(tag_123)\n    tag_125:\n        /* \"#utility.yul\":2862:2876   */\n      pop\n        /* \"#utility.yul\":3158:3161   */\n      dup6\n        /* \"#utility.yul\":3151:3161   */\n      swap4\n      pop\n        /* \"#utility.yul\":2559:3167   */\n      pop\n      pop\n      pop\n        /* \"#utility.yul\":2435:3167   */\n      swap3\n      swap2\n      pop\n      pop\n      jump\t// out\n        /* \"#utility.yul\":3201:4192   */\n    tag_129:\n        /* \"#utility.yul\":3340:3343   */\n      0x00\n        /* \"#utility.yul\":3369:3433   */\n      tag_131\n        /* \"#utility.yul\":3427:3432   */\n      dup3\n        /* \"#utility.yul\":3369:3433   */\n      tag_132\n      jump\t// in\n    tag_131:\n        /* \"#utility.yul\":3449:3545   */\n      tag_133\n        /* \"#utility.yul\":3538:3544   */\n      dup2\n        /* \"#utility.yul\":3533:3536   */\n      dup6\n        /* \"#utility.yul\":3449:3545   */\n      tag_134\n      jump\t// in\n    tag_133:\n        /* \"#utility.yul\":3442:3545   */\n      swap4\n      pop\n        /* \"#utility.yul\":3571:3574   */\n      dup4\n        /* \"#utility.yul\":3616:3620   */\n      0x20\n        /* \"#utility.yul\":3608:3614   */\n      dup3\n        /* \"#utility.yul\":3604:3621   */\n      mul\n        /* \"#utility.yul\":3599:3602   */\n      dup6\n        /* \"#utility.yul\":3595:3622   */\n      add\n        /* \"#utility.yul\":3646:3712   */\n      tag_135\n        /* \"#utility.yul\":3706:3711   */\n      dup6\n        /* \"#utility.yul\":3646:3712   */\n      tag_136\n      jump\t// in\n    tag_135:\n        /* \"#utility.yul\":3735:3742   */\n      dup1\n        /* \"#utility.yul\":3766:3767   */\n      0x00\n        /* \"#utility.yul\":3751:4147   */\n    tag_137:\n        /* \"#utility.yul\":3776:3782   */\n      dup6\n        /* \"#utility.yul\":3773:3774   */\n      dup2\n        /* \"#utility.yul\":3770:3783   */\n      lt\n        /* \"#utility.yul\":3751:4147   */\n      iszero\n      tag_139\n      jumpi\n        /* \"#utility.yul\":3847:3856   */\n      dup5\n        /* \"#utility.yul\":3841:3845   */\n      dup5\n        /* \"#utility.yul\":3837:3857   */\n      sub\n        /* \"#utility.yul\":3832:3835   */\n      dup10\n        /* \"#utility.yul\":3825:3858   */\n      mstore\n        /* \"#utility.yul\":3898:3904   */\n      dup2\n        /* \"#utility.yul\":3892:3905   */\n      mload\n        /* \"#utility.yul\":3926:4010   */\n      tag_140\n        /* \"#utility.yul\":4005:4009   */\n      dup6\n        /* \"#utility.yul\":3990:4003   */\n      dup3\n        /* \"#utility.yul\":3926:4010   */\n      tag_105\n      jump\t// in\n    tag_140:\n        /* \"#utility.yul\":3918:4010   */\n      swap5\n      pop\n        /* \"#utility.yul\":4033:4103   */\n      tag_141\n        /* \"#utility.yul\":4096:4102   */\n      dup4\n        /* \"#utility.yul\":4033:4103   */\n      tag_142\n      jump\t// in\n    tag_141:\n        /* \"#utility.yul\":4023:4103   */\n      swap3\n      pop\n        /* \"#utility.yul\":4132:4136   */\n      0x20\n        /* \"#utility.yul\":4127:4130   */\n      dup11\n        /* \"#utility.yul\":4123:4137   */\n      add\n        /* \"#utility.yul\":4116:4137   */\n      swap10\n      pop\n        /* \"#utility.yul\":3811:4147   */\n      pop\n        /* \"#utility.yul\":3798:3799   */\n      0x01\n        /* \"#utility.yul\":3795:3796   */\n      dup2\n        /* \"#utility.yul\":3791:3800   */\n      add\n        /* \"#utility.yul\":3786:3800   */\n      swap1\n      pop\n        /* \"#utility.yul\":3751:4147   */\n      jump(tag_137)\n    tag_139:\n        /* \"#utility.yul\":3755:3769   */\n      pop\n        /* \"#utility.yul\":4163:4167   */\n      dup3\n        /* \"#utility.yul\":4156:4167   */\n      swap8\n      pop\n        /* \"#utility.yul\":4183:4186   */\n      dup8\n        /* \"#utility.yul\":4176:4186   */\n      swap6\n      pop\n        /* \"#utility.yul\":3345:4192   */\n      pop\n      pop\n      pop\n      pop\n      pop\n        /* \"#utility.yul\":3201:4192   */\n      swap3\n      swap2\n      pop\n      pop\n      jump\t// out\n        /* \"#utility.yul\":4198:4542   */\n    tag_108:\n        /* \"#utility.yul\":4276:4279   */\n      0x00\n        /* \"#utility.yul\":4304:4343   */\n      tag_144\n        /* \"#utility.yul\":4337:4342   */\n      dup3\n        /* \"#utility.yul\":4304:4343   */\n      tag_145\n      jump\t// in\n    tag_144:\n        /* \"#utility.yul\":4359:4420   */\n      tag_146\n        /* \"#utility.yul\":4413:4419   */\n      dup2\n        /* \"#utility.yul\":4408:4411   */\n      dup6\n        /* \"#utility.yul\":4359:4420   */\n      tag_147\n      jump\t// in\n    tag_146:\n        /* \"#utility.yul\":4352:4420   */\n      swap4\n      pop\n        /* \"#utility.yul\":4429:4481   */\n      tag_148\n        /* \"#utility.yul\":4474:4480   */\n      dup2\n        /* \"#utility.yul\":4469:4472   */\n      dup6\n        /* \"#utility.yul\":4462:4466   */\n      0x20\n        /* \"#utility.yul\":4455:4460   */\n      dup7\n        /* \"#utility.yul\":4451:4467   */\n      add\n        /* \"#utility.yul\":4429:4481   */\n      tag_149\n      jump\t// in\n    tag_148:\n        /* \"#utility.yul\":4506:4535   */\n      tag_150\n        /* \"#utility.yul\":4528:4534   */\n      dup2\n        /* \"#utility.yul\":4506:4535   */\n      tag_151\n      jump\t// in\n    tag_150:\n        /* \"#utility.yul\":4501:4504   */\n      dup5\n        /* \"#utility.yul\":4497:4536   */\n      add\n        /* \"#utility.yul\":4490:4536   */\n      swap2\n      pop\n        /* \"#utility.yul\":4280:4542   */\n      pop\n        /* \"#utility.yul\":4198:4542   */\n      swap3\n      swap2\n      pop\n      pop\n      jump\t// out\n        /* \"#utility.yul\":4548:4770   */\n    tag_19:\n        /* \"#utility.yul\":4641:4645   */\n      0x00\n        /* \"#utility.yul\":4679:4681   */\n      0x20\n        /* \"#utility.yul\":4668:4677   */\n      dup3\n        /* \"#utility.yul\":4664:4682   */\n      add\n        /* \"#utility.yul\":4656:4682   */\n      swap1\n      pop\n        /* \"#utility.yul\":4692:4763   */\n      tag_153\n        /* \"#utility.yul\":4760:4761   */\n      0x00\n        /* \"#utility.yul\":4749:4758   */\n      dup4\n        /* \"#utility.yul\":4745:4762   */\n      add\n        /* \"#utility.yul\":4736:4742   */\n      dup5\n        /* \"#utility.yul\":4692:4763   */\n      tag_112\n      jump\t// in\n    tag_153:\n        /* \"#utility.yul\":4548:4770   */\n      swap3\n      swap2\n      pop\n      pop\n      jump\t// out\n        /* \"#utility.yul\":4776:5450   */\n    tag_9:\n        /* \"#utility.yul\":5017:5021   */\n      0x00\n        /* \"#utility.yul\":5055:5057   */\n      0x40\n        /* \"#utility.yul\":5044:5053   */\n      dup3\n        /* \"#utility.yul\":5040:5058   */\n      add\n        /* \"#utility.yul\":5032:5058   */\n      swap1\n      pop\n        /* \"#utility.yul\":5104:5113   */\n      dup2\n        /* \"#utility.yul\":5098:5102   */\n      dup2\n        /* \"#utility.yul\":5094:5114   */\n      sub\n        /* \"#utility.yul\":5090:5091   */\n      0x00\n        /* \"#utility.yul\":5079:5088   */\n      dup4\n        /* \"#utility.yul\":5075:5092   */\n      add\n        /* \"#utility.yul\":5068:5115   */\n      mstore\n        /* \"#utility.yul\":5132:5240   */\n      tag_155\n        /* \"#utility.yul\":5235:5239   */\n      dup2\n        /* \"#utility.yul\":5226:5232   */\n      dup6\n        /* \"#utility.yul\":5132:5240   */\n      tag_115\n      jump\t// in\n    tag_155:\n        /* \"#utility.yul\":5124:5240   */\n      swap1\n      pop\n        /* \"#utility.yul\":5287:5296   */\n      dup2\n        /* \"#utility.yul\":5281:5285   */\n      dup2\n        /* \"#utility.yul\":5277:5297   */\n      sub\n        /* \"#utility.yul\":5272:5274   */\n      0x20\n        /* \"#utility.yul\":5261:5270   */\n      dup4\n        /* \"#utility.yul\":5257:5275   */\n      add\n        /* \"#utility.yul\":5250:5298   */\n      mstore\n        /* \"#utility.yul\":5315:5443   */\n      tag_156\n        /* \"#utility.yul\":5438:5442   */\n      dup2\n        /* \"#utility.yul\":5429:5435   */\n      dup5\n        /* \"#utility.yul\":5315:5443   */\n      tag_129\n      jump\t// in\n    tag_156:\n        /* \"#utility.yul\":5307:5443   */\n      swap1\n      pop\n        /* \"#utility.yul\":4776:5450   */\n      swap4\n      swap3\n      pop\n      pop\n      pop\n      jump\t// out\n        /* \"#utility.yul\":5456:5585   */\n    tag_73:\n        /* \"#utility.yul\":5490:5496   */\n      0x00\n        /* \"#utility.yul\":5517:5537   */\n      tag_158\n      tag_159\n      jump\t// in\n    tag_158:\n        /* \"#utility.yul\":5507:5537   */\n      swap1\n      pop\n        /* \"#utility.yul\":5546:5579   */\n      tag_160\n        /* \"#utility.yul\":5574:5578   */\n      dup3\n        /* \"#utility.yul\":5566:5572   */\n      dup3\n        /* \"#utility.yul\":5546:5579   */\n      tag_161\n      jump\t// in\n    tag_160:\n        /* \"#utility.yul\":5456:5585   */\n      swap2\n      swap1\n      pop\n      jump\t// out\n        /* \"#utility.yul\":5591:5666   */\n    tag_159:\n        /* \"#utility.yul\":5624:5630   */\n      0x00\n        /* \"#utility.yul\":5657:5659   */\n      0x40\n        /* \"#utility.yul\":5651:5660   */\n      mload\n        /* \"#utility.yul\":5641:5660   */\n      swap1\n      pop\n        /* \"#utility.yul\":5591:5666   */\n      swap1\n      jump\t// out\n        /* \"#utility.yul\":5672:5980   */\n    tag_72:\n        /* \"#utility.yul\":5734:5738   */\n      0x00\n        /* \"#utility.yul\":5824:5842   */\n      0xffffffffffffffff\n        /* \"#utility.yul\":5816:5822   */\n      dup3\n        /* \"#utility.yul\":5813:5843   */\n      gt\n        /* \"#utility.yul\":5810:5866   */\n      iszero\n      tag_164\n      jumpi\n        /* \"#utility.yul\":5846:5864   */\n      tag_165\n      tag_23\n      jump\t// in\n    tag_165:\n        /* \"#utility.yul\":5810:5866   */\n    tag_164:\n        /* \"#utility.yul\":5884:5913   */\n      tag_166\n        /* \"#utility.yul\":5906:5912   */\n      dup3\n        /* \"#utility.yul\":5884:5913   */\n      tag_151\n      jump\t// in\n    tag_166:\n        /* \"#utility.yul\":5876:5913   */\n      swap1\n      pop\n        /* \"#utility.yul\":5968:5972   */\n      0x20\n        /* \"#utility.yul\":5962:5966   */\n      dup2\n        /* \"#utility.yul\":5958:5973   */\n      add\n        /* \"#utility.yul\":5950:5973   */\n      swap1\n      pop\n        /* \"#utility.yul\":5672:5980   */\n      swap2\n      swap1\n      pop\n      jump\t// out\n        /* \"#utility.yul\":5986:6118   */\n    tag_122:\n        /* \"#utility.yul\":6053:6057   */\n      0x00\n        /* \"#utility.yul\":6076:6079   */\n      dup2\n        /* \"#utility.yul\":6068:6079   */\n      swap1\n      pop\n        /* \"#utility.yul\":6106:6110   */\n      0x20\n        /* \"#utility.yul\":6101:6104   */\n      dup3\n        /* \"#utility.yul\":6097:6111   */\n      add\n        /* \"#utility.yul\":6089:6111   */\n      swap1\n      pop\n        /* \"#utility.yul\":5986:6118   */\n      swap2\n      swap1\n      pop\n      jump\t// out\n        /* \"#utility.yul\":6124:6266   */\n    tag_136:\n        /* \"#utility.yul\":6201:6205   */\n      0x00\n        /* \"#utility.yul\":6224:6227   */\n      dup2\n        /* \"#utility.yul\":6216:6227   */\n      swap1\n      pop\n        /* \"#utility.yul\":6254:6258   */\n      0x20\n        /* \"#utility.yul\":6249:6252   */\n      dup3\n        /* \"#utility.yul\":6245:6259   */\n      add\n        /* \"#utility.yul\":6237:6259   */\n      swap1\n      pop\n        /* \"#utility.yul\":6124:6266   */\n      swap2\n      swap1\n      pop\n      jump\t// out\n        /* \"#utility.yul\":6272:6386   */\n    tag_118:\n        /* \"#utility.yul\":6339:6345   */\n      0x00\n        /* \"#utility.yul\":6373:6378   */\n      dup2\n        /* \"#utility.yul\":6367:6379   */\n      mload\n        /* \"#utility.yul\":6357:6379   */\n      swap1\n      pop\n        /* \"#utility.yul\":6272:6386   */\n      swap2\n      swap1\n      pop\n      jump\t// out\n        /* \"#utility.yul\":6392:6516   */\n    tag_132:\n        /* \"#utility.yul\":6469:6475   */\n      0x00\n        /* \"#utility.yul\":6503:6508   */\n      dup2\n        /* \"#utility.yul\":6497:6509   */\n      mload\n        /* \"#utility.yul\":6487:6509   */\n      swap1\n      pop\n        /* \"#utility.yul\":6392:6516   */\n      swap2\n      swap1\n      pop\n      jump\t// out\n        /* \"#utility.yul\":6522:6621   */\n    tag_145:\n        /* \"#utility.yul\":6574:6580   */\n      0x00\n        /* \"#utility.yul\":6608:6613   */\n      dup2\n        /* \"#utility.yul\":6602:6614   */\n      mload\n        /* \"#utility.yul\":6592:6614   */\n      swap1\n      pop\n        /* \"#utility.yul\":6522:6621   */\n      swap2\n      swap1\n      pop\n      jump\t// out\n        /* \"#utility.yul\":6627:6740   */\n    tag_128:\n        /* \"#utility.yul\":6697:6701   */\n      0x00\n        /* \"#utility.yul\":6729:6733   */\n      0x20\n        /* \"#utility.yul\":6724:6727   */\n      dup3\n        /* \"#utility.yul\":6720:6734   */\n      add\n        /* \"#utility.yul\":6712:6734   */\n      swap1\n      pop\n        /* \"#utility.yul\":6627:6740   */\n      swap2\n      swap1\n      pop\n      jump\t// out\n        /* \"#utility.yul\":6746:6869   */\n    tag_142:\n        /* \"#utility.yul\":6826:6830   */\n      0x00\n        /* \"#utility.yul\":6858:6862   */\n      0x20\n        /* \"#utility.yul\":6853:6856   */\n      dup3\n        /* \"#utility.yul\":6849:6863   */\n      add\n        /* \"#utility.yul\":6841:6863   */\n      swap1\n      pop\n        /* \"#utility.yul\":6746:6869   */\n      swap2\n      swap1\n      pop\n      jump\t// out\n        /* \"#utility.yul\":6875:7059   */\n    tag_120:\n        /* \"#utility.yul\":6974:6985   */\n      0x00\n        /* \"#utility.yul\":7008:7014   */\n      dup3\n        /* \"#utility.yul\":7003:7006   */\n      dup3\n        /* \"#utility.yul\":6996:7015   */\n      mstore\n        /* \"#utility.yul\":7048:7052   */\n      0x20\n        /* \"#utility.yul\":7043:7046   */\n      dup3\n        /* \"#utility.yul\":7039:7053   */\n      add\n        /* \"#utility.yul\":7024:7053   */\n      swap1\n      pop\n        /* \"#utility.yul\":6875:7059   */\n      swap3\n      swap2\n      pop\n      pop\n      jump\t// out\n        /* \"#utility.yul\":7065:7259   */\n    tag_134:\n        /* \"#utility.yul\":7174:7185   */\n      0x00\n        /* \"#utility.yul\":7208:7214   */\n      dup3\n        /* \"#utility.yul\":7203:7206   */\n      dup3\n        /* \"#utility.yul\":7196:7215   */\n      mstore\n        /* \"#utility.yul\":7248:7252   */\n      0x20\n        /* \"#utility.yul\":7243:7246   */\n      dup3\n        /* \"#utility.yul\":7239:7253   */\n      add\n        /* \"#utility.yul\":7224:7253   */\n      swap1\n      pop\n        /* \"#utility.yul\":7065:7259   */\n      swap3\n      swap2\n      pop\n      pop\n      jump\t// out\n        /* \"#utility.yul\":7265:7424   */\n    tag_147:\n        /* \"#utility.yul\":7339:7350   */\n      0x00\n        /* \"#utility.yul\":7373:7379   */\n      dup3\n        /* \"#utility.yul\":7368:7371   */\n      dup3\n        /* \"#utility.yul\":7361:7380   */\n      mstore\n        /* \"#utility.yul\":7413:7417   */\n      0x20\n        /* \"#utility.yul\":7408:7411   */\n      dup3\n        /* \"#utility.yul\":7404:7418   */\n      add\n        /* \"#utility.yul\":7389:7418   */\n      swap1\n      pop\n        /* \"#utility.yul\":7265:7424   */\n      swap3\n      swap2\n      pop\n      pop\n      jump\t// out\n        /* \"#utility.yul\":7430:7526   */\n    tag_111:\n        /* \"#utility.yul\":7467:7474   */\n      0x00\n        /* \"#utility.yul\":7496:7520   */\n      tag_178\n        /* \"#utility.yul\":7514:7519   */\n      dup3\n        /* \"#utility.yul\":7496:7520   */\n      tag_179\n      jump\t// in\n    tag_178:\n        /* \"#utility.yul\":7485:7520   */\n      swap1\n      pop\n        /* \"#utility.yul\":7430:7526   */\n      swap2\n      swap1\n      pop\n      jump\t// out\n        /* \"#utility.yul\":7532:7658   */\n    tag_179:\n        /* \"#utility.yul\":7569:7576   */\n      0x00\n        /* \"#utility.yul\":7609:7651   */\n      0xffffffffffffffffffffffffffffffffffffffff\n        /* \"#utility.yul\":7602:7607   */\n      dup3\n        /* \"#utility.yul\":7598:7652   */\n      and\n        /* \"#utility.yul\":7587:7652   */\n      swap1\n      pop\n        /* \"#utility.yul\":7532:7658   */\n      swap2\n      swap1\n      pop\n      jump\t// out\n        /* \"#utility.yul\":7664:7741   */\n    tag_181:\n        /* \"#utility.yul\":7701:7708   */\n      0x00\n        /* \"#utility.yul\":7730:7735   */\n      dup2\n        /* \"#utility.yul\":7719:7735   */\n      swap1\n      pop\n        /* \"#utility.yul\":7664:7741   */\n      swap2\n      swap1\n      pop\n      jump\t// out\n        /* \"#utility.yul\":7747:7901   */\n    tag_78:\n        /* \"#utility.yul\":7831:7837   */\n      dup3\n        /* \"#utility.yul\":7826:7829   */\n      dup2\n        /* \"#utility.yul\":7821:7824   */\n      dup4\n        /* \"#utility.yul\":7808:7838   */\n      calldatacopy\n        /* \"#utility.yul\":7893:7894   */\n      0x00\n        /* \"#utility.yul\":7884:7890   */\n      dup4\n        /* \"#utility.yul\":7879:7882   */\n      dup4\n        /* \"#utility.yul\":7875:7891   */\n      add\n        /* \"#utility.yul\":7868:7895   */\n      mstore\n        /* \"#utility.yul\":7747:7901   */\n      pop\n      pop\n      pop\n      jump\t// out\n        /* \"#utility.yul\":7907:8214   */\n    tag_149:\n        /* \"#utility.yul\":7975:7976   */\n      0x00\n        /* \"#utility.yul\":7985:8098   */\n    tag_185:\n        /* \"#utility.yul\":7999:8005   */\n      dup4\n        /* \"#utility.yul\":7996:7997   */\n      dup2\n        /* \"#utility.yul\":7993:8006   */\n      lt\n        /* \"#utility.yul\":7985:8098   */\n      iszero\n      tag_187\n      jumpi\n        /* \"#utility.yul\":8084:8085   */\n      dup1\n        /* \"#utility.yul\":8079:8082   */\n      dup3\n        /* \"#utility.yul\":8075:8086   */\n      add\n        /* \"#utility.yul\":8069:8087   */\n      mload\n        /* \"#utility.yul\":8065:8066   */\n      dup2\n        /* \"#utility.yul\":8060:8063   */\n      dup5\n        /* \"#utility.yul\":8056:8067   */\n      add\n        /* \"#utility.yul\":8049:8088   */\n      mstore\n        /* \"#utility.yul\":8021:8023   */\n      0x20\n        /* \"#utility.yul\":8018:8019   */\n      dup2\n        /* \"#utility.yul\":8014:8024   */\n      add\n        /* \"#utility.yul\":8009:8024   */\n      swap1\n      pop\n        /* \"#utility.yul\":7985:8098   */\n      jump(tag_185)\n    tag_187:\n        /* \"#utility.yul\":8116:8122   */\n      dup4\n        /* \"#utility.yul\":8113:8114   */\n      dup2\n        /* \"#utility.yul\":8110:8123   */\n      gt\n        /* \"#utility.yul\":8107:8208   */\n      iszero\n      tag_188\n      jumpi\n        /* \"#utility.yul\":8196:8197   */\n      0x00\n        /* \"#utility.yul\":8187:8193   */\n      dup5\n        /* \"#utility.yul\":8182:8185   */\n      dup5\n        /* \"#utility.yul\":8178:8194   */\n      add\n        /* \"#utility.yul\":8171:8198   */\n      mstore\n        /* \"#utility.yul\":8107:8208   */\n    tag_188:\n        /* \"#utility.yul\":7956:8214   */\n      pop\n        /* \"#utility.yul\":7907:8214   */\n      pop\n      pop\n      pop\n      jump\t// out\n        /* \"#utility.yul\":8220:8540   */\n    tag_42:\n        /* \"#utility.yul\":8264:8270   */\n      0x00\n        /* \"#utility.yul\":8301:8302   */\n      0x02\n        /* \"#utility.yul\":8295:8299   */\n      dup3\n        /* \"#utility.yul\":8291:8303   */\n      div\n        /* \"#utility.yul\":8281:8303   */\n      swap1\n      pop\n        /* \"#utility.yul\":8348:8349   */\n      0x01\n        /* \"#utility.yul\":8342:8346   */\n      dup3\n        /* \"#utility.yul\":8338:8350   */\n      and\n        /* \"#utility.yul\":8369:8387   */\n      dup1\n        /* \"#utility.yul\":8359:8440   */\n      tag_190\n      jumpi\n        /* \"#utility.yul\":8425:8429   */\n      0x7f\n        /* \"#utility.yul\":8417:8423   */\n      dup3\n        /* \"#utility.yul\":8413:8430   */\n      and\n        /* \"#utility.yul\":8403:8430   */\n      swap2\n      pop\n        /* \"#utility.yul\":8359:8440   */\n    tag_190:\n        /* \"#utility.yul\":8487:8489   */\n      0x20\n        /* \"#utility.yul\":8479:8485   */\n      dup3\n        /* \"#utility.yul\":8476:8490   */\n      lt\n        /* \"#utility.yul\":8456:8474   */\n      dup2\n        /* \"#utility.yul\":8453:8491   */\n      eq\n        /* \"#utility.yul\":8450:8534   */\n      iszero\n      tag_191\n      jumpi\n        /* \"#utility.yul\":8506:8524   */\n      tag_192\n      tag_193\n      jump\t// in\n    tag_192:\n        /* \"#utility.yul\":8450:8534   */\n    tag_191:\n        /* \"#utility.yul\":8271:8540   */\n      pop\n        /* \"#utility.yul\":8220:8540   */\n      swap2\n      swap1\n      pop\n      jump\t// out\n        /* \"#utility.yul\":8546:8827   */\n    tag_161:\n        /* \"#utility.yul\":8629:8656   */\n      tag_195\n        /* \"#utility.yul\":8651:8655   */\n      dup3\n        /* \"#utility.yul\":8629:8656   */\n      tag_151\n      jump\t// in\n    tag_195:\n        /* \"#utility.yul\":8621:8627   */\n      dup2\n        /* \"#utility.yul\":8617:8657   */\n      add\n        /* \"#utility.yul\":8759:8765   */\n      dup2\n        /* \"#utility.yul\":8747:8757   */\n      dup2\n        /* \"#utility.yul\":8744:8766   */\n      lt\n        /* \"#utility.yul\":8723:8741   */\n      0xffffffffffffffff\n        /* \"#utility.yul\":8711:8721   */\n      dup3\n        /* \"#utility.yul\":8708:8742   */\n      gt\n        /* \"#utility.yul\":8705:8767   */\n      or\n        /* \"#utility.yul\":8702:8790   */\n      iszero\n      tag_196\n      jumpi\n        /* \"#utility.yul\":8770:8788   */\n      tag_197\n      tag_23\n      jump\t// in\n    tag_197:\n        /* \"#utility.yul\":8702:8790   */\n    tag_196:\n        /* \"#utility.yul\":8810:8820   */\n      dup1\n        /* \"#utility.yul\":8806:8808   */\n      0x40\n        /* \"#utility.yul\":8799:8821   */\n      mstore\n        /* \"#utility.yul\":8589:8827   */\n      pop\n        /* \"#utility.yul\":8546:8827   */\n      pop\n      pop\n      jump\t// out\n        /* \"#utility.yul\":8833:9066   */\n    tag_50:\n        /* \"#utility.yul\":8872:8875   */\n      0x00\n        /* \"#utility.yul\":8895:8919   */\n      tag_199\n        /* \"#utility.yul\":8913:8918   */\n      dup3\n        /* \"#utility.yul\":8895:8919   */\n      tag_181\n      jump\t// in\n    tag_199:\n        /* \"#utility.yul\":8886:8919   */\n      swap2\n      pop\n        /* \"#utility.yul\":8941:9007   */\n      0xffffffffffffffffffffffffffffffffffffffffffffffffffffffffffffffff\n        /* \"#utility.yul\":8934:8939   */\n      dup3\n        /* \"#utility.yul\":8931:9008   */\n      eq\n        /* \"#utility.yul\":8928:9031   */\n      iszero\n      tag_200\n      jumpi\n        /* \"#utility.yul\":9011:9029   */\n      tag_201\n      tag_202\n      jump\t// in\n    tag_201:\n        /* \"#utility.yul\":8928:9031   */\n    tag_200:\n        /* \"#utility.yul\":9058:9059   */\n      0x01\n        /* \"#utility.yul\":9051:9056   */\n      dup3\n        /* \"#utility.yul\":9047:9060   */\n      add\n        /* \"#utility.yul\":9040:9060   */\n      swap1\n      pop\n        /* \"#utility.yul\":8833:9066   */\n      swap2\n      swap1\n      pop\n      jump\t// out\n        /* \"#utility.yul\":9072:9252   */\n    tag_202:\n        /* \"#utility.yul\":9120:9197   */\n      0x4e487b7100000000000000000000000000000000000000000000000000000000\n        /* \"#utility.yul\":9117:9118   */\n      0x00\n        /* \"#utility.yul\":9110:9198   */\n      mstore\n        /* \"#utility.yul\":9217:9221   */\n      0x11\n        /* \"#utility.yul\":9214:9215   */\n      0x04\n        /* \"#utility.yul\":9207:9222   */\n      mstore\n        /* \"#utility.yul\":9241:9245   */\n      0x24\n        /* \"#utility.yul\":9238:9239   */\n      0x00\n        /* \"#utility.yul\":9231:9246   */\n      revert\n        /* \"#utility.yul\":9258:9438   */\n    tag_193:\n        /* \"#utility.yul\":9306:9383   */\n      0x4e487b7100000000000000000000000000000000000000000000000000000000\n        /* \"#utility.yul\":9303:9304   */\n      0x00\n        /* \"#utility.yul\":9296:9384   */\n      mstore\n        /* \"#utility.yul\":9403:9407   */\n      0x22\n        /* \"#utility.yul\":9400:9401   */\n      0x04\n        /* \"#utility.yul\":9393:9408   */\n      mstore\n        /* \"#utility.yul\":9427:9431   */\n      0x24\n        /* \"#utility.yul\":9424:9425   */\n      0x00\n        /* \"#utility.yul\":9417:9432   */\n      revert\n        /* \"#utility.yul\":9444:9624   */\n    tag_34:\n        /* \"#utility.yul\":9492:9569   */\n      0x4e487b7100000000000000000000000000000000000000000000000000000000\n        /* \"#utility.yul\":9489:9490   */\n      0x00\n        /* \"#utility.yul\":9482:9570   */\n      mstore\n        /* \"#utility.yul\":9589:9593   */\n      0x32\n        /* \"#utility.yul\":9586:9587   */\n      0x04\n        /* \"#utility.yul\":9579:9594   */\n      mstore\n        /* \"#utility.yul\":9613:9617   */\n      0x24\n        /* \"#utility.yul\":9610:9611   */\n      0x00\n        /* \"#utility.yul\":9603:9618   */\n      revert\n        /* \"#utility.yul\":9630:9810   */\n    tag_23:\n        /* \"#utility.yul\":9678:9755   */\n      0x4e487b7100000000000000000000000000000000000000000000000000000000\n        /* \"#utility.yul\":9675:9676   */\n      0x00\n        /* \"#utility.yul\":9668:9756   */\n      mstore\n        /* \"#utility.yul\":9775:9779   */\n      0x41\n        /* \"#utility.yul\":9772:9773   */\n      0x04\n        /* \"#utility.yul\":9765:9780   */\n      mstore\n        /* \"#utility.yul\":9799:9803   */\n      0x24\n        /* \"#utility.yul\":9796:9797   */\n      0x00\n        /* \"#utility.yul\":9789:9804   */\n      revert\n        /* \"#utility.yul\":9816:9933   */\n    tag_83:\n        /* \"#utility.yul\":9925:9926   */\n      0x00\n        /* \"#utility.yul\":9922:9923   */\n      dup1\n        /* \"#utility.yul\":9915:9927   */\n      revert\n        /* \"#utility.yul\":9939:10056   */\n    tag_76:\n        /* \"#utility.yul\":10048:10049   */\n      0x00\n        /* \"#utility.yul\":10045:10046   */\n      dup1\n        /* \"#utility.yul\":10038:10050   */\n      revert\n        /* \"#utility.yul\":10062:10179   */\n    tag_95:\n        /* \"#utility.yul\":10171:10172   */\n      0x00\n        /* \"#utility.yul\":10168:10169   */\n      dup1\n        /* \"#utility.yul\":10161:10173   */\n      revert\n        /* \"#utility.yul\":10185:10302   */\n    tag_92:\n        /* \"#utility.yul\":10294:10295   */\n      0x00\n        /* \"#utility.yul\":10291:10292   */\n      dup1\n        /* \"#utility.yul\":10284:10296   */\n      revert\n        /* \"#utility.yul\":10308:10410   */\n    tag_151:\n        /* \"#utility.yul\":10349:10355   */\n      0x00\n        /* \"#utility.yul\":10400:10402   */\n      0x1f\n        /* \"#utility.yul\":10396:10403   */\n      not\n        /* \"#utility.yul\":10391:10393   */\n      0x1f\n        /* \"#utility.yul\":10384:10389   */\n      dup4\n        /* \"#utility.yul\":10380:10394   */\n      add\n        /* \"#utility.yul\":10376:10404   */\n      and\n        /* \"#utility.yul\":10366:10404   */\n      swap1\n      pop\n        /* \"#utility.yul\":10308:10410   */\n      swap2\n      swap1\n      pop\n      jump\t// out\n        /* \"#utility.yul\":10416:10538   */\n    tag_88:\n        /* \"#utility.yul\":10489:10513   */\n      tag_213\n        /* \"#utility.yul\":10507:10512   */\n      dup2\n        /* \"#utility.yul\":10489:10513   */\n      tag_181\n      jump\t// in\n    tag_213:\n        /* \"#utility.yul\":10482:10487   */\n      dup2\n        /* \"#utility.yul\":10479:10514   */\n      eq\n        /* \"#utility.yul\":10469:10532   */\n      tag_214\n      jumpi\n        /* \"#utility.yul\":10528:10529   */\n      0x00\n        /* \"#utility.yul\":10525:10526   */\n      dup1\n        /* \"#utility.yul\":10518:10530   */\n      revert\n        /* \"#utility.yul\":10469:10532   */\n    tag_214:\n        /* \"#utility.yul\":10416:10538   */\n      pop\n      jump\t// out\n\n    auxdata: 0xa26469706673582212207a17fd9c617ea42cf14058584bf46508ba93e95b8cdf11cb8df39c5a8c429f2564736f6c63430008070033\n}\n",
				"bytecode": {
					"linkReferences": {},
					"object": "608060405234801561001057600080fd5b50610a61806100206000396000f3fe608060405234801561001057600080fd5b50600436106100415760003560e01c80632e64cec1146100465780634f3d057a14610065578063edf26d9b14610081575b600080fd5b61004e6100b1565b60405161005c9291906106ee565b60405180910390f35b61007f600480360381019061007a9190610507565b61034a565b005b61009b60048036038101906100969190610550565b6103a0565b6040516100a891906106d3565b60405180910390f35b606080600060018054905067ffffffffffffffff8111156100d5576100d46109c0565b5b6040519080825280602002602001820160405280156101035781602001602082028036833780820191505090505b509050600060018054905067ffffffffffffffff811115610127576101266109c0565b5b60405190808252806020026020018201604052801561015a57816020015b60608152602001906001900390816101455790505b50905060005b60018054905081101561033d576001818154811061018157610180610991565b5b9060005260206000200160009054906101000a900473ffffffffffffffffffffffffffffffffffffffff168382815181106101bf576101be610991565b5b602002602001019073ffffffffffffffffffffffffffffffffffffffff16908173ffffffffffffffffffffffffffffffffffffffff1681525050600080600183815481106102105761020f610991565b5b9060005260206000200160009054906101000a900473ffffffffffffffffffffffffffffffffffffffff1673ffffffffffffffffffffffffffffffffffffffff1673ffffffffffffffffffffffffffffffffffffffff168152602001908152602001600020805461028090610887565b80601f01602080910402602001604051908101604052809291908181526020018280546102ac90610887565b80156102f95780601f106102ce576101008083540402835291602001916102f9565b820191906000526020600020905b8154815290600101906020018083116102dc57829003601f168201915b505050505082828151811061031157610310610991565b5b60200260200101819052508080610327906108ea565b9150508080610335906108ea565b915050610160565b5081819350935050509091565b806000803373ffffffffffffffffffffffffffffffffffffffff1673ffffffffffffffffffffffffffffffffffffffff168152602001908152602001600020908051906020019061039c9291906103df565b5050565b600181815481106103b057600080fd5b906000526020600020016000915054906101000a900473ffffffffffffffffffffffffffffffffffffffff1681565b8280546103eb90610887565b90600052602060002090601f01602090048101928261040d5760008555610454565b82601f1061042657805160ff1916838001178555610454565b82800160010185558215610454579182015b82811115610453578251825591602001919060010190610438565b5b5090506104619190610465565b5090565b5b8082111561047e576000816000905550600101610466565b5090565b60006104956104908461074a565b610725565b9050828152602081018484840111156104b1576104b06109f4565b5b6104bc848285610845565b509392505050565b600082601f8301126104d9576104d86109ef565b5b81356104e9848260208601610482565b91505092915050565b60008135905061050181610a14565b92915050565b60006020828403121561051d5761051c6109fe565b5b600082013567ffffffffffffffff81111561053b5761053a6109f9565b5b610547848285016104c4565b91505092915050565b600060208284031215610566576105656109fe565b5b6000610574848285016104f2565b91505092915050565b600061058983836105a9565b60208301905092915050565b60006105a1838361069a565b905092915050565b6105b281610809565b82525050565b6105c181610809565b82525050565b60006105d28261079b565b6105dc81856107d6565b93506105e78361077b565b8060005b838110156106185781516105ff888261057d565b975061060a836107bc565b9250506001810190506105eb565b5085935050505092915050565b6000610630826107a6565b61063a81856107e7565b93508360208202850161064c8561078b565b8060005b8581101561068857848403895281516106698582610595565b9450610674836107c9565b925060208a01995050600181019050610650565b50829750879550505050505092915050565b60006106a5826107b1565b6106af81856107f8565b93506106bf818560208601610854565b6106c881610a03565b840191505092915050565b60006020820190506106e860008301846105b8565b92915050565b6000604082019050818103600083015261070881856105c7565b9050818103602083015261071c8184610625565b90509392505050565b600061072f610740565b905061073b82826108b9565b919050565b6000604051905090565b600067ffffffffffffffff821115610765576107646109c0565b5b61076e82610a03565b9050602081019050919050565b6000819050602082019050919050565b6000819050602082019050919050565b600081519050919050565b600081519050919050565b600081519050919050565b6000602082019050919050565b6000602082019050919050565b600082825260208201905092915050565b600082825260208201905092915050565b600082825260208201905092915050565b60006108148261081b565b9050919050565b600073ffffffffffffffffffffffffffffffffffffffff82169050919050565b6000819050919050565b82818337600083830152505050565b60005b83811015610872578082015181840152602081019050610857565b83811115610881576000848401525b50505050565b6000600282049050600182168061089f57607f821691505b602082108114156108b3576108b2610962565b5b50919050565b6108c282610a03565b810181811067ffffffffffffffff821117156108e1576108e06109c0565b5b80604052505050565b60006108f58261083b565b91507fffffffffffffffffffffffffffffffffffffffffffffffffffffffffffffffff82141561092857610927610933565b5b600182019050919050565b7f4e487b7100000000000000000000000000000000000000000000000000000000600052601160045260246000fd5b7f4e487b7100000000000000000000000000000000000000000000000000000000600052602260045260246000fd5b7f4e487b7100000000000000000000000000000000000000000000000000000000600052603260045260246000fd5b7f4e487b7100000000000000000000000000000000000000000000000000000000600052604160045260246000fd5b600080fd5b600080fd5b600080fd5b600080fd5b6000601f19601f8301169050919050565b610a1d8161083b565b8114610a2857600080fd5b5056fea26469706673582212207a17fd9c617ea42cf14058584bf46508ba93e95b8cdf11cb8df39c5a8c429f2564736f6c63430008070033",
					"opcodes": "PUSH1 0x80 PUSH1 0x40 MSTORE CALLVALUE DUP1 ISZERO PUSH2 0x10 JUMPI PUSH1 0x0 DUP1 REVERT JUMPDEST POP PUSH2 0xA61 DUP1 PUSH2 0x20 PUSH1 0x0 CODECOPY PUSH1 0x0 RETURN INVALID PUSH1 0x80 PUSH1 0x40 MSTORE CALLVALUE DUP1 ISZERO PUSH2 0x10 JUMPI PUSH1 0x0 DUP1 REVERT JUMPDEST POP PUSH1 0x4 CALLDATASIZE LT PUSH2 0x41 JUMPI PUSH1 0x0 CALLDATALOAD PUSH1 0xE0 SHR DUP1 PUSH4 0x2E64CEC1 EQ PUSH2 0x46 JUMPI DUP1 PUSH4 0x4F3D057A EQ PUSH2 0x65 JUMPI DUP1 PUSH4 0xEDF26D9B EQ PUSH2 0x81 JUMPI JUMPDEST PUSH1 0x0 DUP1 REVERT JUMPDEST PUSH2 0x4E PUSH2 0xB1 JUMP JUMPDEST PUSH1 0x40 MLOAD PUSH2 0x5C SWAP3 SWAP2 SWAP1 PUSH2 0x6EE JUMP JUMPDEST PUSH1 0x40 MLOAD DUP1 SWAP2 SUB SWAP1 RETURN JUMPDEST PUSH2 0x7F PUSH1 0x4 DUP1 CALLDATASIZE SUB DUP2 ADD SWAP1 PUSH2 0x7A SWAP2 SWAP1 PUSH2 0x507 JUMP JUMPDEST PUSH2 0x34A JUMP JUMPDEST STOP JUMPDEST PUSH2 0x9B PUSH1 0x4 DUP1 CALLDATASIZE SUB DUP2 ADD SWAP1 PUSH2 0x96 SWAP2 SWAP1 PUSH2 0x550 JUMP JUMPDEST PUSH2 0x3A0 JUMP JUMPDEST PUSH1 0x40 MLOAD PUSH2 0xA8 SWAP2 SWAP1 PUSH2 0x6D3 JUMP JUMPDEST PUSH1 0x40 MLOAD DUP1 SWAP2 SUB SWAP1 RETURN JUMPDEST PUSH1 0x60 DUP1 PUSH1 0x0 PUSH1 0x1 DUP1 SLOAD SWAP1 POP PUSH8 0xFFFFFFFFFFFFFFFF DUP2 GT ISZERO PUSH2 0xD5 JUMPI PUSH2 0xD4 PUSH2 0x9C0 JUMP JUMPDEST JUMPDEST PUSH1 0x40 MLOAD SWAP1 DUP1 DUP3 MSTORE DUP1 PUSH1 0x20 MUL PUSH1 0x20 ADD DUP3 ADD PUSH1 0x40 MSTORE DUP1 ISZERO PUSH2 0x103 JUMPI DUP2 PUSH1 0x20 ADD PUSH1 0x20 DUP3 MUL DUP1 CALLDATASIZE DUP4 CALLDATACOPY DUP1 DUP3 ADD SWAP2 POP POP SWAP1 POP JUMPDEST POP SWAP1 POP PUSH1 0x0 PUSH1 0x1 DUP1 SLOAD SWAP1 POP PUSH8 0xFFFFFFFFFFFFFFFF DUP2 GT ISZERO PUSH2 0x127 JUMPI PUSH2 0x126 PUSH2 0x9C0 JUMP JUMPDEST JUMPDEST PUSH1 0x40 MLOAD SWAP1 DUP1 DUP3 MSTORE DUP1 PUSH1 0x20 MUL PUSH1 0x20 ADD DUP3 ADD PUSH1 0x40 MSTORE DUP1 ISZERO PUSH2 0x15A JUMPI DUP2 PUSH1 0x20 ADD JUMPDEST PUSH1 0x60 DUP2 MSTORE PUSH1 0x20 ADD SWAP1 PUSH1 0x1 SWAP1 SUB SWAP1 DUP2 PUSH2 0x145 JUMPI SWAP1 POP JUMPDEST POP SWAP1 POP PUSH1 0x0 JUMPDEST PUSH1 0x1 DUP1 SLOAD SWAP1 POP DUP2 LT ISZERO PUSH2 0x33D JUMPI PUSH1 0x1 DUP2 DUP2 SLOAD DUP2 LT PUSH2 0x181 JUMPI PUSH2 0x180 PUSH2 0x991 JUMP JUMPDEST JUMPDEST SWAP1 PUSH1 0x0 MSTORE PUSH1 0x20 PUSH1 0x0 KECCAK256 ADD PUSH1 0x0 SWAP1 SLOAD SWAP1 PUSH2 0x100 EXP SWAP1 DIV PUSH20 0xFFFFFFFFFFFFFFFFFFFFFFFFFFFFFFFFFFFFFFFF AND DUP4 DUP3 DUP2 MLOAD DUP2 LT PUSH2 0x1BF JUMPI PUSH2 0x1BE PUSH2 0x991 JUMP JUMPDEST JUMPDEST PUSH1 0x20 MUL PUSH1 0x20 ADD ADD SWAP1 PUSH20 0xFFFFFFFFFFFFFFFFFFFFFFFFFFFFFFFFFFFFFFFF AND SWAP1 DUP2 PUSH20 0xFFFFFFFFFFFFFFFFFFFFFFFFFFFFFFFFFFFFFFFF AND DUP2 MSTORE POP POP PUSH1 0x0 DUP1 PUSH1 0x1 DUP4 DUP2 SLOAD DUP2 LT PUSH2 0x210 JUMPI PUSH2 0x20F PUSH2 0x991 JUMP JUMPDEST JUMPDEST SWAP1 PUSH1 0x0 MSTORE PUSH1 0x20 PUSH1 0x0 KECCAK256 ADD PUSH1 0x0 SWAP1 SLOAD SWAP1 PUSH2 0x100 EXP SWAP1 DIV PUSH20 0xFFFFFFFFFFFFFFFFFFFFFFFFFFFFFFFFFFFFFFFF AND PUSH20 0xFFFFFFFFFFFFFFFFFFFFFFFFFFFFFFFFFFFFFFFF AND PUSH20 0xFFFFFFFFFFFFFFFFFFFFFFFFFFFFFFFFFFFFFFFF AND DUP2 MSTORE PUSH1 0x20 ADD SWAP1 DUP2 MSTORE PUSH1 0x20 ADD PUSH1 0x0 KECCAK256 DUP1 SLOAD PUSH2 0x280 SWAP1 PUSH2 0x887 JUMP JUMPDEST DUP1 PUSH1 0x1F ADD PUSH1 0x20 DUP1 SWAP2 DIV MUL PUSH1 0x20 ADD PUSH1 0x40 MLOAD SWAP1 DUP2 ADD PUSH1 0x40 MSTORE DUP1 SWAP3 SWAP2 SWAP1 DUP2 DUP2 MSTORE PUSH1 0x20 ADD DUP3 DUP1 SLOAD PUSH2 0x2AC SWAP1 PUSH2 0x887 JUMP JUMPDEST DUP1 ISZERO PUSH2 0x2F9 JUMPI DUP1 PUSH1 0x1F LT PUSH2 0x2CE JUMPI PUSH2 0x100 DUP1 DUP4 SLOAD DIV MUL DUP4 MSTORE SWAP2 PUSH1 0x20 ADD SWAP2 PUSH2 0x2F9 JUMP JUMPDEST DUP3 ADD SWAP2 SWAP1 PUSH1 0x0 MSTORE PUSH1 0x20 PUSH1 0x0 KECCAK256 SWAP1 JUMPDEST DUP2 SLOAD DUP2 MSTORE SWAP1 PUSH1 0x1 ADD SWAP1 PUSH1 0x20 ADD DUP1 DUP4 GT PUSH2 0x2DC JUMPI DUP3 SWAP1 SUB PUSH1 0x1F AND DUP3 ADD SWAP2 JUMPDEST POP POP POP POP POP DUP3 DUP3 DUP2 MLOAD DUP2 LT PUSH2 0x311 JUMPI PUSH2 0x310 PUSH2 0x991 JUMP JUMPDEST JUMPDEST PUSH1 0x20 MUL PUSH1 0x20 ADD ADD DUP2 SWAP1 MSTORE POP DUP1 DUP1 PUSH2 0x327 SWAP1 PUSH2 0x8EA JUMP JUMPDEST SWAP2 POP POP DUP1 DUP1 PUSH2 0x335 SWAP1 PUSH2 0x8EA JUMP JUMPDEST SWAP2 POP POP PUSH2 0x160 JUMP JUMPDEST POP DUP2 DUP2 SWAP4 POP SWAP4 POP POP POP SWAP1 SWAP2 JUMP JUMPDEST DUP1 PUSH1 0x0 DUP1 CALLER PUSH20 0xFFFFFFFFFFFFFFFFFFFFFFFFFFFFFFFFFFFFFFFF AND PUSH20 0xFFFFFFFFFFFFFFFFFFFFFFFFFFFFFFFFFFFFFFFF AND DUP2 MSTORE PUSH1 0x20 ADD SWAP1 DUP2 MSTORE PUSH1 0x20 ADD PUSH1 0x0 KECCAK256 SWAP1 DUP1 MLOAD SWAP1 PUSH1 0x20 ADD SWAP1 PUSH2 0x39C SWAP3 SWAP2 SWAP1 PUSH2 0x3DF JUMP JUMPDEST POP POP JUMP JUMPDEST PUSH1 0x1 DUP2 DUP2 SLOAD DUP2 LT PUSH2 0x3B0 JUMPI PUSH1 0x0 DUP1 REVERT JUMPDEST SWAP1 PUSH1 0x0 MSTORE PUSH1 0x20 PUSH1 0x0 KECCAK256 ADD PUSH1 0x0 SWAP2 POP SLOAD SWAP1 PUSH2 0x100 EXP SWAP1 DIV PUSH20 0xFFFFFFFFFFFFFFFFFFFFFFFFFFFFFFFFFFFFFFFF AND DUP2 JUMP JUMPDEST DUP3 DUP1 SLOAD PUSH2 0x3EB SWAP1 PUSH2 0x887 JUMP JUMPDEST SWAP1 PUSH1 0x0 MSTORE PUSH1 0x20 PUSH1 0x0 KECCAK256 SWAP1 PUSH1 0x1F ADD PUSH1 0x20 SWAP1 DIV DUP2 ADD SWAP3 DUP3 PUSH2 0x40D JUMPI PUSH1 0x0 DUP6 SSTORE PUSH2 0x454 JUMP JUMPDEST DUP3 PUSH1 0x1F LT PUSH2 0x426 JUMPI DUP1 MLOAD PUSH1 0xFF NOT AND DUP4 DUP1 ADD OR DUP6 SSTORE PUSH2 0x454 JUMP JUMPDEST DUP3 DUP1 ADD PUSH1 0x1 ADD DUP6 SSTORE DUP3 ISZERO PUSH2 0x454 JUMPI SWAP2 DUP3 ADD JUMPDEST DUP3 DUP2 GT ISZERO PUSH2 0x453 JUMPI DUP3 MLOAD DUP3 SSTORE SWAP2 PUSH1 0x20 ADD SWAP2 SWAP1 PUSH1 0x1 ADD SWAP1 PUSH2 0x438 JUMP JUMPDEST JUMPDEST POP SWAP1 POP PUSH2 0x461 SWAP2 SWAP1 PUSH2 0x465 JUMP JUMPDEST POP SWAP1 JUMP JUMPDEST JUMPDEST DUP1 DUP3 GT ISZERO PUSH2 0x47E JUMPI PUSH1 0x0 DUP2 PUSH1 0x0 SWAP1 SSTORE POP PUSH1 0x1 ADD PUSH2 0x466 JUMP JUMPDEST POP SWAP1 JUMP JUMPDEST PUSH1 0x0 PUSH2 0x495 PUSH2 0x490 DUP5 PUSH2 0x74A JUMP JUMPDEST PUSH2 0x725 JUMP JUMPDEST SWAP1 POP DUP3 DUP2 MSTORE PUSH1 0x20 DUP2 ADD DUP5 DUP5 DUP5 ADD GT ISZERO PUSH2 0x4B1 JUMPI PUSH2 0x4B0 PUSH2 0x9F4 JUMP JUMPDEST JUMPDEST PUSH2 0x4BC DUP5 DUP3 DUP6 PUSH2 0x845 JUMP JUMPDEST POP SWAP4 SWAP3 POP POP POP JUMP JUMPDEST PUSH1 0x0 DUP3 PUSH1 0x1F DUP4 ADD SLT PUSH2 0x4D9 JUMPI PUSH2 0x4D8 PUSH2 0x9EF JUMP JUMPDEST JUMPDEST DUP2 CALLDATALOAD PUSH2 0x4E9 DUP5 DUP3 PUSH1 0x20 DUP7 ADD PUSH2 0x482 JUMP JUMPDEST SWAP2 POP POP SWAP3 SWAP2 POP POP JUMP JUMPDEST PUSH1 0x0 DUP2 CALLDATALOAD SWAP1 POP PUSH2 0x501 DUP2 PUSH2 0xA14 JUMP JUMPDEST SWAP3 SWAP2 POP POP JUMP JUMPDEST PUSH1 0x0 PUSH1 0x20 DUP3 DUP5 SUB SLT ISZERO PUSH2 0x51D JUMPI PUSH2 0x51C PUSH2 0x9FE JUMP JUMPDEST JUMPDEST PUSH1 0x0 DUP3 ADD CALLDATALOAD PUSH8 0xFFFFFFFFFFFFFFFF DUP2 GT ISZERO PUSH2 0x53B JUMPI PUSH2 0x53A PUSH2 0x9F9 JUMP JUMPDEST JUMPDEST PUSH2 0x547 DUP5 DUP3 DUP6 ADD PUSH2 0x4C4 JUMP JUMPDEST SWAP2 POP POP SWAP3 SWAP2 POP POP JUMP JUMPDEST PUSH1 0x0 PUSH1 0x20 DUP3 DUP5 SUB SLT ISZERO PUSH2 0x566 JUMPI PUSH2 0x565 PUSH2 0x9FE JUMP JUMPDEST JUMPDEST PUSH1 0x0 PUSH2 0x574 DUP5 DUP3 DUP6 ADD PUSH2 0x4F2 JUMP JUMPDEST SWAP2 POP POP SWAP3 SWAP2 POP POP JUMP JUMPDEST PUSH1 0x0 PUSH2 0x589 DUP4 DUP4 PUSH2 0x5A9 JUMP JUMPDEST PUSH1 0x20 DUP4 ADD SWAP1 POP SWAP3 SWAP2 POP POP JUMP JUMPDEST PUSH1 0x0 PUSH2 0x5A1 DUP4 DUP4 PUSH2 0x69A JUMP JUMPDEST SWAP1 POP SWAP3 SWAP2 POP POP JUMP JUMPDEST PUSH2 0x5B2 DUP2 PUSH2 0x809 JUMP JUMPDEST DUP3 MSTORE POP POP JUMP JUMPDEST PUSH2 0x5C1 DUP2 PUSH2 0x809 JUMP JUMPDEST DUP3 MSTORE POP POP JUMP JUMPDEST PUSH1 0x0 PUSH2 0x5D2 DUP3 PUSH2 0x79B JUMP JUMPDEST PUSH2 0x5DC DUP2 DUP6 PUSH2 0x7D6 JUMP JUMPDEST SWAP4 POP PUSH2 0x5E7 DUP4 PUSH2 0x77B JUMP JUMPDEST DUP1 PUSH1 0x0 JUMPDEST DUP4 DUP2 LT ISZERO PUSH2 0x618 JUMPI DUP2 MLOAD PUSH2 0x5FF DUP9 DUP3 PUSH2 0x57D JUMP JUMPDEST SWAP8 POP PUSH2 0x60A DUP4 PUSH2 0x7BC JUMP JUMPDEST SWAP3 POP POP PUSH1 0x1 DUP2 ADD SWAP1 POP PUSH2 0x5EB JUMP JUMPDEST POP DUP6 SWAP4 POP POP POP POP SWAP3 SWAP2 POP POP JUMP JUMPDEST PUSH1 0x0 PUSH2 0x630 DUP3 PUSH2 0x7A6 JUMP JUMPDEST PUSH2 0x63A DUP2 DUP6 PUSH2 0x7E7 JUMP JUMPDEST SWAP4 POP DUP4 PUSH1 0x20 DUP3 MUL DUP6 ADD PUSH2 0x64C DUP6 PUSH2 0x78B JUMP JUMPDEST DUP1 PUSH1 0x0 JUMPDEST DUP6 DUP2 LT ISZERO PUSH2 0x688 JUMPI DUP5 DUP5 SUB DUP10 MSTORE DUP2 MLOAD PUSH2 0x669 DUP6 DUP3 PUSH2 0x595 JUMP JUMPDEST SWAP5 POP PUSH2 0x674 DUP4 PUSH2 0x7C9 JUMP JUMPDEST SWAP3 POP PUSH1 0x20 DUP11 ADD SWAP10 POP POP PUSH1 0x1 DUP2 ADD SWAP1 POP PUSH2 0x650 JUMP JUMPDEST POP DUP3 SWAP8 POP DUP8 SWAP6 POP POP POP POP POP POP SWAP3 SWAP2 POP POP JUMP JUMPDEST PUSH1 0x0 PUSH2 0x6A5 DUP3 PUSH2 0x7B1 JUMP JUMPDEST PUSH2 0x6AF DUP2 DUP6 PUSH2 0x7F8 JUMP JUMPDEST SWAP4 POP PUSH2 0x6BF DUP2 DUP6 PUSH1 0x20 DUP7 ADD PUSH2 0x854 JUMP JUMPDEST PUSH2 0x6C8 DUP2 PUSH2 0xA03 JUMP JUMPDEST DUP5 ADD SWAP2 POP POP SWAP3 SWAP2 POP POP JUMP JUMPDEST PUSH1 0x0 PUSH1 0x20 DUP3 ADD SWAP1 POP PUSH2 0x6E8 PUSH1 0x0 DUP4 ADD DUP5 PUSH2 0x5B8 JUMP JUMPDEST SWAP3 SWAP2 POP POP JUMP JUMPDEST PUSH1 0x0 PUSH1 0x40 DUP3 ADD SWAP1 POP DUP2 DUP2 SUB PUSH1 0x0 DUP4 ADD MSTORE PUSH2 0x708 DUP2 DUP6 PUSH2 0x5C7 JUMP JUMPDEST SWAP1 POP DUP2 DUP2 SUB PUSH1 0x20 DUP4 ADD MSTORE PUSH2 0x71C DUP2 DUP5 PUSH2 0x625 JUMP JUMPDEST SWAP1 POP SWAP4 SWAP3 POP POP POP JUMP JUMPDEST PUSH1 0x0 PUSH2 0x72F PUSH2 0x740 JUMP JUMPDEST SWAP1 POP PUSH2 0x73B DUP3 DUP3 PUSH2 0x8B9 JUMP JUMPDEST SWAP2 SWAP1 POP JUMP JUMPDEST PUSH1 0x0 PUSH1 0x40 MLOAD SWAP1 POP SWAP1 JUMP JUMPDEST PUSH1 0x0 PUSH8 0xFFFFFFFFFFFFFFFF DUP3 GT ISZERO PUSH2 0x765 JUMPI PUSH2 0x764 PUSH2 0x9C0 JUMP JUMPDEST JUMPDEST PUSH2 0x76E DUP3 PUSH2 0xA03 JUMP JUMPDEST SWAP1 POP PUSH1 0x20 DUP2 ADD SWAP1 POP SWAP2 SWAP1 POP JUMP JUMPDEST PUSH1 0x0 DUP2 SWAP1 POP PUSH1 0x20 DUP3 ADD SWAP1 POP SWAP2 SWAP1 POP JUMP JUMPDEST PUSH1 0x0 DUP2 SWAP1 POP PUSH1 0x20 DUP3 ADD SWAP1 POP SWAP2 SWAP1 POP JUMP JUMPDEST PUSH1 0x0 DUP2 MLOAD SWAP1 POP SWAP2 SWAP1 POP JUMP JUMPDEST PUSH1 0x0 DUP2 MLOAD SWAP1 POP SWAP2 SWAP1 POP JUMP JUMPDEST PUSH1 0x0 DUP2 MLOAD SWAP1 POP SWAP2 SWAP1 POP JUMP JUMPDEST PUSH1 0x0 PUSH1 0x20 DUP3 ADD SWAP1 POP SWAP2 SWAP1 POP JUMP JUMPDEST PUSH1 0x0 PUSH1 0x20 DUP3 ADD SWAP1 POP SWAP2 SWAP1 POP JUMP JUMPDEST PUSH1 0x0 DUP3 DUP3 MSTORE PUSH1 0x20 DUP3 ADD SWAP1 POP SWAP3 SWAP2 POP POP JUMP JUMPDEST PUSH1 0x0 DUP3 DUP3 MSTORE PUSH1 0x20 DUP3 ADD SWAP1 POP SWAP3 SWAP2 POP POP JUMP JUMPDEST PUSH1 0x0 DUP3 DUP3 MSTORE PUSH1 0x20 DUP3 ADD SWAP1 POP SWAP3 SWAP2 POP POP JUMP JUMPDEST PUSH1 0x0 PUSH2 0x814 DUP3 PUSH2 0x81B JUMP JUMPDEST SWAP1 POP SWAP2 SWAP1 POP JUMP JUMPDEST PUSH1 0x0 PUSH20 0xFFFFFFFFFFFFFFFFFFFFFFFFFFFFFFFFFFFFFFFF DUP3 AND SWAP1 POP SWAP2 SWAP1 POP JUMP JUMPDEST PUSH1 0x0 DUP2 SWAP1 POP SWAP2 SWAP1 POP JUMP JUMPDEST DUP3 DUP2 DUP4 CALLDATACOPY PUSH1 0x0 DUP4 DUP4 ADD MSTORE POP POP POP JUMP JUMPDEST PUSH1 0x0 JUMPDEST DUP4 DUP2 LT ISZERO PUSH2 0x872 JUMPI DUP1 DUP3 ADD MLOAD DUP2 DUP5 ADD MSTORE PUSH1 0x20 DUP2 ADD SWAP1 POP PUSH2 0x857 JUMP JUMPDEST DUP4 DUP2 GT ISZERO PUSH2 0x881 JUMPI PUSH1 0x0 DUP5 DUP5 ADD MSTORE JUMPDEST POP POP POP POP JUMP JUMPDEST PUSH1 0x0 PUSH1 0x2 DUP3 DIV SWAP1 POP PUSH1 0x1 DUP3 AND DUP1 PUSH2 0x89F JUMPI PUSH1 0x7F DUP3 AND SWAP2 POP JUMPDEST PUSH1 0x20 DUP3 LT DUP2 EQ ISZERO PUSH2 0x8B3 JUMPI PUSH2 0x8B2 PUSH2 0x962 JUMP JUMPDEST JUMPDEST POP SWAP2 SWAP1 POP JUMP JUMPDEST PUSH2 0x8C2 DUP3 PUSH2 0xA03 JUMP JUMPDEST DUP2 ADD DUP2 DUP2 LT PUSH8 0xFFFFFFFFFFFFFFFF DUP3 GT OR ISZERO PUSH2 0x8E1 JUMPI PUSH2 0x8E0 PUSH2 0x9C0 JUMP JUMPDEST JUMPDEST DUP1 PUSH1 0x40 MSTORE POP POP POP JUMP JUMPDEST PUSH1 0x0 PUSH2 0x8F5 DUP3 PUSH2 0x83B JUMP JUMPDEST SWAP2 POP PUSH32 0xFFFFFFFFFFFFFFFFFFFFFFFFFFFFFFFFFFFFFFFFFFFFFFFFFFFFFFFFFFFFFFFF DUP3 EQ ISZERO PUSH2 0x928 JUMPI PUSH2 0x927 PUSH2 0x933 JUMP JUMPDEST JUMPDEST PUSH1 0x1 DUP3 ADD SWAP1 POP SWAP2 SWAP1 POP JUMP JUMPDEST PUSH32 0x4E487B7100000000000000000000000000000000000000000000000000000000 PUSH1 0x0 MSTORE PUSH1 0x11 PUSH1 0x4 MSTORE PUSH1 0x24 PUSH1 0x0 REVERT JUMPDEST PUSH32 0x4E487B7100000000000000000000000000000000000000000000000000000000 PUSH1 0x0 MSTORE PUSH1 0x22 PUSH1 0x4 MSTORE PUSH1 0x24 PUSH1 0x0 REVERT JUMPDEST PUSH32 0x4E487B7100000000000000000000000000000000000000000000000000000000 PUSH1 0x0 MSTORE PUSH1 0x32 PUSH1 0x4 MSTORE PUSH1 0x24 PUSH1 0x0 REVERT JUMPDEST PUSH32 0x4E487B7100000000000000000000000000000000000000000000000000000000 PUSH1 0x0 MSTORE PUSH1 0x41 PUSH1 0x4 MSTORE PUSH1 0x24 PUSH1 0x0 REVERT JUMPDEST PUSH1 0x0 DUP1 REVERT JUMPDEST PUSH1 0x0 DUP1 REVERT JUMPDEST PUSH1 0x0 DUP1 REVERT JUMPDEST PUSH1 0x0 DUP1 REVERT JUMPDEST PUSH1 0x0 PUSH1 0x1F NOT PUSH1 0x1F DUP4 ADD AND SWAP1 POP SWAP2 SWAP1 POP JUMP JUMPDEST PUSH2 0xA1D DUP2 PUSH2 0x83B JUMP JUMPDEST DUP2 EQ PUSH2 0xA28 JUMPI PUSH1 0x0 DUP1 REVERT JUMPDEST POP JUMP INVALID LOG2 PUSH5 0x6970667358 0x22 SLT KECCAK256 PUSH27 0x17FD9C617EA42CF14058584BF46508BA93E95B8CDF11CB8DF39C5A DUP13 TIMESTAMP SWAP16 0x25 PUSH5 0x736F6C6343 STOP ADDMOD SMOD STOP CALLER "
				},
				"gasEstimates": {
					"creation": {
						"codeDepositCost": "531400",
						"executionCost": "568",
						"totalCost": "531968"
					},
					"external": {
						"addresses(uint256)": "4978",
						"push(string)": "infinite",
						"retrieve()": "infinite"
					}
				},
				"methodIdentifiers": {
					"addresses(uint256)": "edf26d9b",
					"push(string)": "4f3d057a",
					"retrieve()": "2e64cec1"
				}
			},
			"storageLayout": {
				"storage": [
					{
						"astId": 6,
						"contract": "contracts/1_Storage.sol:Storage",
						"label": "store",
						"offset": 0,
						"slot": "0",
						"type": "t_mapping(t_address,t_string_storage)"
					},
					{
						"astId": 9,
						"contract": "contracts/1_Storage.sol:Storage",
						"label": "addresses",
						"offset": 0,
						"slot": "1",
						"type": "t_array(t_address)dyn_storage"
					}
				],
				"types": {
					"t_address": {
						"encoding": "inplace",
						"label": "address",
						"numberOfBytes": "20"
					},
					"t_array(t_address)dyn_storage": {
						"base": "t_address",
						"encoding": "dynamic_array",
						"label": "address[]",
						"numberOfBytes": "32"
					},
					"t_mapping(t_address,t_string_storage)": {
						"encoding": "mapping",
						"key": "t_address",
						"label": "mapping(address => string)",
						"numberOfBytes": "32",
						"value": "t_string_storage"
					},
					"t_string_storage": {
						"encoding": "bytes",
						"label": "string",
						"numberOfBytes": "32"
					}
				}
			},
			"userdoc": {
				"kind": "user",
				"methods": {},
				"version": 1
			}
		}
	}
}