{
	"contracts/1_Storage.sol": {
		"Storage": {
			"abi": [
				{
					"inputs": [
						{
							"internalType": "string",
							"name": "_text",
							"type": "string"
						}
					],
					"name": "push",
					"outputs": [],
					"stateMutability": "nonpayable",
					"type": "function"
				},
				{
					"inputs": [],
					"name": "retrieve",
					"outputs": [
						{
							"internalType": "address[]",
							"name": "",
							"type": "address[]"
						},
						{
							"internalType": "string[]",
							"name": "",
							"type": "string[]"
						}
					],
					"stateMutability": "view",
					"type": "function"
				}
			],
			"devdoc": {
				"custom:dev-run-script": "./scripts/deploy_with_ethers.ts",
				"details": "Store & retrieve value in a variable",
				"kind": "dev",
				"methods": {},
				"title": "Storage",
				"version": 1
			},
			"evm": {
				"assembly": "    /* \"contracts/1_Storage.sol\":199:831  contract Storage {... */\n  mstore(0x40, 0x80)\n  callvalue\n  dup1\n  iszero\n  tag_1\n  jumpi\n  0x00\n  dup1\n  revert\ntag_1:\n  pop\n  dataSize(sub_0)\n  dup1\n  dataOffset(sub_0)\n  0x00\n  codecopy\n  0x00\n  return\nstop\n\nsub_0: assembly {\n        /* \"contracts/1_Storage.sol\":199:831  contract Storage {... */\n      mstore(0x40, 0x80)\n      callvalue\n      dup1\n      iszero\n      tag_1\n      jumpi\n      0x00\n      dup1\n      revert\n    tag_1:\n      pop\n      jumpi(tag_2, lt(calldatasize, 0x04))\n      shr(0xe0, calldataload(0x00))\n      dup1\n      0x2e64cec1\n      eq\n      tag_3\n      jumpi\n      dup1\n      0x4f3d057a\n      eq\n      tag_4\n      jumpi\n    tag_2:\n      0x00\n      dup1\n      revert\n        /* \"contracts/1_Storage.sol\":378:829  function retrieve() external view returns(address[] memory, string[] memory)... */\n    tag_3:\n      tag_5\n      tag_6\n      jump\t// in\n    tag_5:\n      mload(0x40)\n      tag_7\n      swap3\n      swap2\n      swap1\n      tag_8\n      jump\t// in\n    tag_7:\n      mload(0x40)\n      dup1\n      swap2\n      sub\n      swap1\n      return\n        /* \"contracts/1_Storage.sol\":286:372  function push(string memory _text) external {... */\n    tag_4:\n      tag_9\n      0x04\n      dup1\n      calldatasize\n      sub\n      dup2\n      add\n      swap1\n      tag_10\n      swap2\n      swap1\n      tag_11\n      jump\t// in\n    tag_10:\n      tag_12\n      jump\t// in\n    tag_9:\n      stop\n        /* \"contracts/1_Storage.sol\":378:829  function retrieve() external view returns(address[] memory, string[] memory)... */\n    tag_6:\n        /* \"contracts/1_Storage.sol\":420:436  address[] memory */\n      0x60\n        /* \"contracts/1_Storage.sol\":438:453  string[] memory */\n      dup1\n        /* \"contracts/1_Storage.sol\":473:500  address[] memory returnKeys */\n      0x00\n        /* \"contracts/1_Storage.sol\":517:526  addresses */\n      0x01\n        /* \"contracts/1_Storage.sol\":517:533  addresses.length */\n      dup1\n      sload\n      swap1\n      pop\n        /* \"contracts/1_Storage.sol\":503:534  new address[](addresses.length) */\n      0xffffffffffffffff\n      dup2\n      gt\n      iszero\n      tag_14\n      jumpi\n      tag_15\n      tag_16\n      jump\t// in\n    tag_15:\n    tag_14:\n      mload(0x40)\n      swap1\n      dup1\n      dup3\n      mstore\n      dup1\n      0x20\n      mul\n      0x20\n      add\n      dup3\n      add\n      0x40\n      mstore\n      dup1\n      iszero\n      tag_17\n      jumpi\n      dup2\n      0x20\n      add\n      0x20\n      dup3\n      mul\n      dup1\n      calldatasize\n      dup4\n      calldatacopy\n      dup1\n      dup3\n      add\n      swap2\n      pop\n      pop\n      swap1\n      pop\n    tag_17:\n      pop\n        /* \"contracts/1_Storage.sol\":473:534  address[] memory returnKeys = new address[](addresses.length) */\n      swap1\n      pop\n        /* \"contracts/1_Storage.sol\":543:571  string[] memory returnValues */\n      0x00\n        /* \"contracts/1_Storage.sol\":588:597  addresses */\n      0x01\n        /* \"contracts/1_Storage.sol\":588:604  addresses.length */\n      dup1\n      sload\n      swap1\n      pop\n        /* \"contracts/1_Storage.sol\":575:605  new string[](addresses.length) */\n      0xffffffffffffffff\n      dup2\n      gt\n      iszero\n      tag_18\n      jumpi\n      tag_19\n      tag_16\n      jump\t// in\n    tag_19:\n    tag_18:\n      mload(0x40)\n      swap1\n      dup1\n      dup3\n      mstore\n      dup1\n      0x20\n      mul\n      0x20\n      add\n      dup3\n      add\n      0x40\n      mstore\n      dup1\n      iszero\n      tag_20\n      jumpi\n      dup2\n      0x20\n      add\n    tag_21:\n      0x60\n      dup2\n      mstore\n      0x20\n      add\n      swap1\n      0x01\n      swap1\n      sub\n      swap1\n      dup2\n      tag_21\n      jumpi\n      swap1\n      pop\n    tag_20:\n      pop\n        /* \"contracts/1_Storage.sol\":543:605  string[] memory returnValues  = new string[](addresses.length) */\n      swap1\n      pop\n        /* \"contracts/1_Storage.sol\":619:625  uint i */\n      0x00\n        /* \"contracts/1_Storage.sol\":615:782  for(uint i = 0; i < addresses.length; i++)... */\n    tag_22:\n        /* \"contracts/1_Storage.sol\":635:644  addresses */\n      0x01\n        /* \"contracts/1_Storage.sol\":635:651  addresses.length */\n      dup1\n      sload\n      swap1\n      pop\n        /* \"contracts/1_Storage.sol\":631:632  i */\n      dup2\n        /* \"contracts/1_Storage.sol\":631:651  i < addresses.length */\n      lt\n        /* \"contracts/1_Storage.sol\":615:782  for(uint i = 0; i < addresses.length; i++)... */\n      iszero\n      tag_23\n      jumpi\n        /* \"contracts/1_Storage.sol\":694:703  addresses */\n      0x01\n        /* \"contracts/1_Storage.sol\":704:705  i */\n      dup2\n        /* \"contracts/1_Storage.sol\":694:706  addresses[i] */\n      dup2\n      sload\n      dup2\n      lt\n      tag_25\n      jumpi\n      tag_26\n      tag_27\n      jump\t// in\n    tag_26:\n    tag_25:\n      swap1\n      0x00\n      mstore\n      keccak256(0x00, 0x20)\n      add\n      0x00\n      swap1\n      sload\n      swap1\n      0x0100\n      exp\n      swap1\n      div\n      0xffffffffffffffffffffffffffffffffffffffff\n      and\n        /* \"contracts/1_Storage.sol\":678:688  returnKeys */\n      dup4\n        /* \"contracts/1_Storage.sol\":689:690  i */\n      dup3\n        /* \"contracts/1_Storage.sol\":678:691  returnKeys[i] */\n      dup2\n      mload\n      dup2\n      lt\n      tag_29\n      jumpi\n      tag_30\n      tag_27\n      jump\t// in\n    tag_30:\n    tag_29:\n      0x20\n      mul\n      0x20\n      add\n      add\n        /* \"contracts/1_Storage.sol\":678:706  returnKeys[i] = addresses[i] */\n      swap1\n      0xffffffffffffffffffffffffffffffffffffffff\n      and\n      swap1\n      dup2\n      0xffffffffffffffffffffffffffffffffffffffff\n      and\n      dup2\n      mstore\n      pop\n      pop\n        /* \"contracts/1_Storage.sol\":737:742  store */\n      0x00\n        /* \"contracts/1_Storage.sol\":737:756  store[addresses[i]] */\n      dup1\n        /* \"contracts/1_Storage.sol\":743:752  addresses */\n      0x01\n        /* \"contracts/1_Storage.sol\":753:754  i */\n      dup4\n        /* \"contracts/1_Storage.sol\":743:755  addresses[i] */\n      dup2\n      sload\n      dup2\n      lt\n      tag_31\n      jumpi\n      tag_32\n      tag_27\n      jump\t// in\n    tag_32:\n    tag_31:\n      swap1\n      0x00\n      mstore\n      keccak256(0x00, 0x20)\n      add\n      0x00\n      swap1\n      sload\n      swap1\n      0x0100\n      exp\n      swap1\n      div\n      0xffffffffffffffffffffffffffffffffffffffff\n      and\n        /* \"contracts/1_Storage.sol\":737:756  store[addresses[i]] */\n      0xffffffffffffffffffffffffffffffffffffffff\n      and\n      0xffffffffffffffffffffffffffffffffffffffff\n      and\n      dup2\n      mstore\n      0x20\n      add\n      swap1\n      dup2\n      mstore\n      0x20\n      add\n      0x00\n      keccak256\n        /* \"contracts/1_Storage.sol\":719:756  returnValues[i] = store[addresses[i]] */\n      dup1\n      sload\n      tag_34\n      swap1\n      tag_35\n      jump\t// in\n    tag_34:\n      dup1\n      0x1f\n      add\n      0x20\n      dup1\n      swap2\n      div\n      mul\n      0x20\n      add\n      mload(0x40)\n      swap1\n      dup2\n      add\n      0x40\n      mstore\n      dup1\n      swap3\n      swap2\n      swap1\n      dup2\n      dup2\n      mstore\n      0x20\n      add\n      dup3\n      dup1\n      sload\n      tag_36\n      swap1\n      tag_35\n      jump\t// in\n    tag_36:\n      dup1\n      iszero\n      tag_37\n      jumpi\n      dup1\n      0x1f\n      lt\n      tag_38\n      jumpi\n      0x0100\n      dup1\n      dup4\n      sload\n      div\n      mul\n      dup4\n      mstore\n      swap2\n      0x20\n      add\n      swap2\n      jump(tag_37)\n    tag_38:\n      dup3\n      add\n      swap2\n      swap1\n      0x00\n      mstore\n      keccak256(0x00, 0x20)\n      swap1\n    tag_39:\n      dup2\n      sload\n      dup2\n      mstore\n      swap1\n      0x01\n      add\n      swap1\n      0x20\n      add\n      dup1\n      dup4\n      gt\n      tag_39\n      jumpi\n      dup3\n      swap1\n      sub\n      0x1f\n      and\n      dup3\n      add\n      swap2\n    tag_37:\n      pop\n      pop\n      pop\n      pop\n      pop\n        /* \"contracts/1_Storage.sol\":719:731  returnValues */\n      dup3\n        /* \"contracts/1_Storage.sol\":732:733  i */\n      dup3\n        /* \"contracts/1_Storage.sol\":719:734  returnValues[i] */\n      dup2\n      mload\n      dup2\n      lt\n      tag_40\n      jumpi\n      tag_41\n      tag_27\n      jump\t// in\n    tag_41:\n    tag_40:\n      0x20\n      mul\n      0x20\n      add\n      add\n        /* \"contracts/1_Storage.sol\":719:756  returnValues[i] = store[addresses[i]] */\n      dup2\n      swap1\n      mstore\n      pop\n        /* \"contracts/1_Storage.sol\":769:772  i++ */\n      dup1\n      dup1\n      tag_42\n      swap1\n      tag_43\n      jump\t// in\n    tag_42:\n      swap2\n      pop\n      pop\n        /* \"contracts/1_Storage.sol\":653:656  i++ */\n      dup1\n      dup1\n      tag_44\n      swap1\n      tag_43\n      jump\t// in\n    tag_44:\n      swap2\n      pop\n      pop\n        /* \"contracts/1_Storage.sol\":615:782  for(uint i = 0; i < addresses.length; i++)... */\n      jump(tag_22)\n    tag_23:\n      pop\n        /* \"contracts/1_Storage.sol\":797:807  returnKeys */\n      dup2\n        /* \"contracts/1_Storage.sol\":809:821  returnValues */\n      dup2\n        /* \"contracts/1_Storage.sol\":790:822  return(returnKeys, returnValues) */\n      swap4\n      pop\n      swap4\n      pop\n      pop\n      pop\n        /* \"contracts/1_Storage.sol\":378:829  function retrieve() external view returns(address[] memory, string[] memory)... */\n      swap1\n      swap2\n      jump\t// out\n        /* \"contracts/1_Storage.sol\":286:372  function push(string memory _text) external {... */\n    tag_12:\n        /* \"contracts/1_Storage.sol\":360:365  _text */\n      dup1\n        /* \"contracts/1_Storage.sol\":340:345  store */\n      0x00\n        /* \"contracts/1_Storage.sol\":340:357  store[msg.sender] */\n      dup1\n        /* \"contracts/1_Storage.sol\":346:356  msg.sender */\n      caller\n        /* \"contracts/1_Storage.sol\":340:357  store[msg.sender] */\n      0xffffffffffffffffffffffffffffffffffffffff\n      and\n      0xffffffffffffffffffffffffffffffffffffffff\n      and\n      dup2\n      mstore\n      0x20\n      add\n      swap1\n      dup2\n      mstore\n      0x20\n      add\n      0x00\n      keccak256\n        /* \"contracts/1_Storage.sol\":340:365  store[msg.sender] = _text */\n      swap1\n      dup1\n      mload\n      swap1\n      0x20\n      add\n      swap1\n      tag_46\n      swap3\n      swap2\n      swap1\n      tag_47\n      jump\t// in\n    tag_46:\n      pop\n        /* \"contracts/1_Storage.sol\":286:372  function push(string memory _text) external {... */\n      pop\n      jump\t// out\n    tag_47:\n      dup3\n      dup1\n      sload\n      tag_48\n      swap1\n      tag_35\n      jump\t// in\n    tag_48:\n      swap1\n      0x00\n      mstore\n      keccak256(0x00, 0x20)\n      swap1\n      0x1f\n      add\n      0x20\n      swap1\n      div\n      dup2\n      add\n      swap3\n      dup3\n      tag_50\n      jumpi\n      0x00\n      dup6\n      sstore\n      jump(tag_49)\n    tag_50:\n      dup3\n      0x1f\n      lt\n      tag_51\n      jumpi\n      dup1\n      mload\n      not(0xff)\n      and\n      dup4\n      dup1\n      add\n      or\n      dup6\n      sstore\n      jump(tag_49)\n    tag_51:\n      dup3\n      dup1\n      add\n      0x01\n      add\n      dup6\n      sstore\n      dup3\n      iszero\n      tag_49\n      jumpi\n      swap2\n      dup3\n      add\n    tag_52:\n      dup3\n      dup2\n      gt\n      iszero\n      tag_53\n      jumpi\n      dup3\n      mload\n      dup3\n      sstore\n      swap2\n      0x20\n      add\n      swap2\n      swap1\n      0x01\n      add\n      swap1\n      jump(tag_52)\n    tag_53:\n    tag_49:\n      pop\n      swap1\n      pop\n      tag_54\n      swap2\n      swap1\n      tag_55\n      jump\t// in\n    tag_54:\n      pop\n      swap1\n      jump\t// out\n    tag_55:\n    tag_56:\n      dup1\n      dup3\n      gt\n      iszero\n      tag_57\n      jumpi\n      0x00\n      dup2\n      0x00\n      swap1\n      sstore\n      pop\n      0x01\n      add\n      jump(tag_56)\n    tag_57:\n      pop\n      swap1\n      jump\t// out\n        /* \"#utility.yul\":7:419   */\n    tag_59:\n        /* \"#utility.yul\":85:90   */\n      0x00\n        /* \"#utility.yul\":110:176   */\n      tag_61\n        /* \"#utility.yul\":126:175   */\n      tag_62\n        /* \"#utility.yul\":168:174   */\n      dup5\n        /* \"#utility.yul\":126:175   */\n      tag_63\n      jump\t// in\n    tag_62:\n        /* \"#utility.yul\":110:176   */\n      tag_64\n      jump\t// in\n    tag_61:\n        /* \"#utility.yul\":101:176   */\n      swap1\n      pop\n        /* \"#utility.yul\":199:205   */\n      dup3\n        /* \"#utility.yul\":192:197   */\n      dup2\n        /* \"#utility.yul\":185:206   */\n      mstore\n        /* \"#utility.yul\":237:241   */\n      0x20\n        /* \"#utility.yul\":230:235   */\n      dup2\n        /* \"#utility.yul\":226:242   */\n      add\n        /* \"#utility.yul\":275:278   */\n      dup5\n        /* \"#utility.yul\":266:272   */\n      dup5\n        /* \"#utility.yul\":261:264   */\n      dup5\n        /* \"#utility.yul\":257:273   */\n      add\n        /* \"#utility.yul\":254:279   */\n      gt\n        /* \"#utility.yul\":251:363   */\n      iszero\n      tag_65\n      jumpi\n        /* \"#utility.yul\":282:361   */\n      tag_66\n      tag_67\n      jump\t// in\n    tag_66:\n        /* \"#utility.yul\":251:363   */\n    tag_65:\n        /* \"#utility.yul\":372:413   */\n      tag_68\n        /* \"#utility.yul\":406:412   */\n      dup5\n        /* \"#utility.yul\":401:404   */\n      dup3\n        /* \"#utility.yul\":396:399   */\n      dup6\n        /* \"#utility.yul\":372:413   */\n      tag_69\n      jump\t// in\n    tag_68:\n        /* \"#utility.yul\":91:419   */\n      pop\n        /* \"#utility.yul\":7:419   */\n      swap4\n      swap3\n      pop\n      pop\n      pop\n      jump\t// out\n        /* \"#utility.yul\":439:779   */\n    tag_70:\n        /* \"#utility.yul\":495:500   */\n      0x00\n        /* \"#utility.yul\":544:547   */\n      dup3\n        /* \"#utility.yul\":537:541   */\n      0x1f\n        /* \"#utility.yul\":529:535   */\n      dup4\n        /* \"#utility.yul\":525:542   */\n      add\n        /* \"#utility.yul\":521:548   */\n      slt\n        /* \"#utility.yul\":511:633   */\n      tag_72\n      jumpi\n        /* \"#utility.yul\":552:631   */\n      tag_73\n      tag_74\n      jump\t// in\n    tag_73:\n        /* \"#utility.yul\":511:633   */\n    tag_72:\n        /* \"#utility.yul\":669:675   */\n      dup2\n        /* \"#utility.yul\":656:676   */\n      calldataload\n        /* \"#utility.yul\":694:773   */\n      tag_75\n        /* \"#utility.yul\":769:772   */\n      dup5\n        /* \"#utility.yul\":761:767   */\n      dup3\n        /* \"#utility.yul\":754:758   */\n      0x20\n        /* \"#utility.yul\":746:752   */\n      dup7\n        /* \"#utility.yul\":742:759   */\n      add\n        /* \"#utility.yul\":694:773   */\n      tag_59\n      jump\t// in\n    tag_75:\n        /* \"#utility.yul\":685:773   */\n      swap2\n      pop\n        /* \"#utility.yul\":501:779   */\n      pop\n        /* \"#utility.yul\":439:779   */\n      swap3\n      swap2\n      pop\n      pop\n      jump\t// out\n        /* \"#utility.yul\":785:1294   */\n    tag_11:\n        /* \"#utility.yul\":854:860   */\n      0x00\n        /* \"#utility.yul\":903:905   */\n      0x20\n        /* \"#utility.yul\":891:900   */\n      dup3\n        /* \"#utility.yul\":882:889   */\n      dup5\n        /* \"#utility.yul\":878:901   */\n      sub\n        /* \"#utility.yul\":874:906   */\n      slt\n        /* \"#utility.yul\":871:990   */\n      iszero\n      tag_77\n      jumpi\n        /* \"#utility.yul\":909:988   */\n      tag_78\n      tag_79\n      jump\t// in\n    tag_78:\n        /* \"#utility.yul\":871:990   */\n    tag_77:\n        /* \"#utility.yul\":1057:1058   */\n      0x00\n        /* \"#utility.yul\":1046:1055   */\n      dup3\n        /* \"#utility.yul\":1042:1059   */\n      add\n        /* \"#utility.yul\":1029:1060   */\n      calldataload\n        /* \"#utility.yul\":1087:1105   */\n      0xffffffffffffffff\n        /* \"#utility.yul\":1079:1085   */\n      dup2\n        /* \"#utility.yul\":1076:1106   */\n      gt\n        /* \"#utility.yul\":1073:1190   */\n      iszero\n      tag_80\n      jumpi\n        /* \"#utility.yul\":1109:1188   */\n      tag_81\n      tag_82\n      jump\t// in\n    tag_81:\n        /* \"#utility.yul\":1073:1190   */\n    tag_80:\n        /* \"#utility.yul\":1214:1277   */\n      tag_83\n        /* \"#utility.yul\":1269:1276   */\n      dup5\n        /* \"#utility.yul\":1260:1266   */\n      dup3\n        /* \"#utility.yul\":1249:1258   */\n      dup6\n        /* \"#utility.yul\":1245:1267   */\n      add\n        /* \"#utility.yul\":1214:1277   */\n      tag_70\n      jump\t// in\n    tag_83:\n        /* \"#utility.yul\":1204:1277   */\n      swap2\n      pop\n        /* \"#utility.yul\":1000:1287   */\n      pop\n        /* \"#utility.yul\":785:1294   */\n      swap3\n      swap2\n      pop\n      pop\n      jump\t// out\n        /* \"#utility.yul\":1300:1479   */\n    tag_84:\n        /* \"#utility.yul\":1369:1379   */\n      0x00\n        /* \"#utility.yul\":1390:1436   */\n      tag_86\n        /* \"#utility.yul\":1432:1435   */\n      dup4\n        /* \"#utility.yul\":1424:1430   */\n      dup4\n        /* \"#utility.yul\":1390:1436   */\n      tag_87\n      jump\t// in\n    tag_86:\n        /* \"#utility.yul\":1468:1472   */\n      0x20\n        /* \"#utility.yul\":1463:1466   */\n      dup4\n        /* \"#utility.yul\":1459:1473   */\n      add\n        /* \"#utility.yul\":1445:1473   */\n      swap1\n      pop\n        /* \"#utility.yul\":1300:1479   */\n      swap3\n      swap2\n      pop\n      pop\n      jump\t// out\n        /* \"#utility.yul\":1485:1681   */\n    tag_88:\n        /* \"#utility.yul\":1574:1584   */\n      0x00\n        /* \"#utility.yul\":1609:1675   */\n      tag_90\n        /* \"#utility.yul\":1671:1674   */\n      dup4\n        /* \"#utility.yul\":1663:1669   */\n      dup4\n        /* \"#utility.yul\":1609:1675   */\n      tag_91\n      jump\t// in\n    tag_90:\n        /* \"#utility.yul\":1595:1675   */\n      swap1\n      pop\n        /* \"#utility.yul\":1485:1681   */\n      swap3\n      swap2\n      pop\n      pop\n      jump\t// out\n        /* \"#utility.yul\":1687:1795   */\n    tag_87:\n        /* \"#utility.yul\":1764:1788   */\n      tag_93\n        /* \"#utility.yul\":1782:1787   */\n      dup2\n        /* \"#utility.yul\":1764:1788   */\n      tag_94\n      jump\t// in\n    tag_93:\n        /* \"#utility.yul\":1759:1762   */\n      dup3\n        /* \"#utility.yul\":1752:1789   */\n      mstore\n        /* \"#utility.yul\":1687:1795   */\n      pop\n      pop\n      jump\t// out\n        /* \"#utility.yul\":1831:2563   */\n    tag_95:\n        /* \"#utility.yul\":1950:1953   */\n      0x00\n        /* \"#utility.yul\":1979:2033   */\n      tag_97\n        /* \"#utility.yul\":2027:2032   */\n      dup3\n        /* \"#utility.yul\":1979:2033   */\n      tag_98\n      jump\t// in\n    tag_97:\n        /* \"#utility.yul\":2049:2135   */\n      tag_99\n        /* \"#utility.yul\":2128:2134   */\n      dup2\n        /* \"#utility.yul\":2123:2126   */\n      dup6\n        /* \"#utility.yul\":2049:2135   */\n      tag_100\n      jump\t// in\n    tag_99:\n        /* \"#utility.yul\":2042:2135   */\n      swap4\n      pop\n        /* \"#utility.yul\":2159:2215   */\n      tag_101\n        /* \"#utility.yul\":2209:2214   */\n      dup4\n        /* \"#utility.yul\":2159:2215   */\n      tag_102\n      jump\t// in\n    tag_101:\n        /* \"#utility.yul\":2238:2245   */\n      dup1\n        /* \"#utility.yul\":2269:2270   */\n      0x00\n        /* \"#utility.yul\":2254:2538   */\n    tag_103:\n        /* \"#utility.yul\":2279:2285   */\n      dup4\n        /* \"#utility.yul\":2276:2277   */\n      dup2\n        /* \"#utility.yul\":2273:2286   */\n      lt\n        /* \"#utility.yul\":2254:2538   */\n      iszero\n      tag_105\n      jumpi\n        /* \"#utility.yul\":2355:2361   */\n      dup2\n        /* \"#utility.yul\":2349:2362   */\n      mload\n        /* \"#utility.yul\":2382:2445   */\n      tag_106\n        /* \"#utility.yul\":2441:2444   */\n      dup9\n        /* \"#utility.yul\":2426:2439   */\n      dup3\n        /* \"#utility.yul\":2382:2445   */\n      tag_84\n      jump\t// in\n    tag_106:\n        /* \"#utility.yul\":2375:2445   */\n      swap8\n      pop\n        /* \"#utility.yul\":2468:2528   */\n      tag_107\n        /* \"#utility.yul\":2521:2527   */\n      dup4\n        /* \"#utility.yul\":2468:2528   */\n      tag_108\n      jump\t// in\n    tag_107:\n        /* \"#utility.yul\":2458:2528   */\n      swap3\n      pop\n        /* \"#utility.yul\":2314:2538   */\n      pop\n        /* \"#utility.yul\":2301:2302   */\n      0x01\n        /* \"#utility.yul\":2298:2299   */\n      dup2\n        /* \"#utility.yul\":2294:2303   */\n      add\n        /* \"#utility.yul\":2289:2303   */\n      swap1\n      pop\n        /* \"#utility.yul\":2254:2538   */\n      jump(tag_103)\n    tag_105:\n        /* \"#utility.yul\":2258:2272   */\n      pop\n        /* \"#utility.yul\":2554:2557   */\n      dup6\n        /* \"#utility.yul\":2547:2557   */\n      swap4\n      pop\n        /* \"#utility.yul\":1955:2563   */\n      pop\n      pop\n      pop\n        /* \"#utility.yul\":1831:2563   */\n      swap3\n      swap2\n      pop\n      pop\n      jump\t// out\n        /* \"#utility.yul\":2597:3588   */\n    tag_109:\n        /* \"#utility.yul\":2736:2739   */\n      0x00\n        /* \"#utility.yul\":2765:2829   */\n      tag_111\n        /* \"#utility.yul\":2823:2828   */\n      dup3\n        /* \"#utility.yul\":2765:2829   */\n      tag_112\n      jump\t// in\n    tag_111:\n        /* \"#utility.yul\":2845:2941   */\n      tag_113\n        /* \"#utility.yul\":2934:2940   */\n      dup2\n        /* \"#utility.yul\":2929:2932   */\n      dup6\n        /* \"#utility.yul\":2845:2941   */\n      tag_114\n      jump\t// in\n    tag_113:\n        /* \"#utility.yul\":2838:2941   */\n      swap4\n      pop\n        /* \"#utility.yul\":2967:2970   */\n      dup4\n        /* \"#utility.yul\":3012:3016   */\n      0x20\n        /* \"#utility.yul\":3004:3010   */\n      dup3\n        /* \"#utility.yul\":3000:3017   */\n      mul\n        /* \"#utility.yul\":2995:2998   */\n      dup6\n        /* \"#utility.yul\":2991:3018   */\n      add\n        /* \"#utility.yul\":3042:3108   */\n      tag_115\n        /* \"#utility.yul\":3102:3107   */\n      dup6\n        /* \"#utility.yul\":3042:3108   */\n      tag_116\n      jump\t// in\n    tag_115:\n        /* \"#utility.yul\":3131:3138   */\n      dup1\n        /* \"#utility.yul\":3162:3163   */\n      0x00\n        /* \"#utility.yul\":3147:3543   */\n    tag_117:\n        /* \"#utility.yul\":3172:3178   */\n      dup6\n        /* \"#utility.yul\":3169:3170   */\n      dup2\n        /* \"#utility.yul\":3166:3179   */\n      lt\n        /* \"#utility.yul\":3147:3543   */\n      iszero\n      tag_119\n      jumpi\n        /* \"#utility.yul\":3243:3252   */\n      dup5\n        /* \"#utility.yul\":3237:3241   */\n      dup5\n        /* \"#utility.yul\":3233:3253   */\n      sub\n        /* \"#utility.yul\":3228:3231   */\n      dup10\n        /* \"#utility.yul\":3221:3254   */\n      mstore\n        /* \"#utility.yul\":3294:3300   */\n      dup2\n        /* \"#utility.yul\":3288:3301   */\n      mload\n        /* \"#utility.yul\":3322:3406   */\n      tag_120\n        /* \"#utility.yul\":3401:3405   */\n      dup6\n        /* \"#utility.yul\":3386:3399   */\n      dup3\n        /* \"#utility.yul\":3322:3406   */\n      tag_88\n      jump\t// in\n    tag_120:\n        /* \"#utility.yul\":3314:3406   */\n      swap5\n      pop\n        /* \"#utility.yul\":3429:3499   */\n      tag_121\n        /* \"#utility.yul\":3492:3498   */\n      dup4\n        /* \"#utility.yul\":3429:3499   */\n      tag_122\n      jump\t// in\n    tag_121:\n        /* \"#utility.yul\":3419:3499   */\n      swap3\n      pop\n        /* \"#utility.yul\":3528:3532   */\n      0x20\n        /* \"#utility.yul\":3523:3526   */\n      dup11\n        /* \"#utility.yul\":3519:3533   */\n      add\n        /* \"#utility.yul\":3512:3533   */\n      swap10\n      pop\n        /* \"#utility.yul\":3207:3543   */\n      pop\n        /* \"#utility.yul\":3194:3195   */\n      0x01\n        /* \"#utility.yul\":3191:3192   */\n      dup2\n        /* \"#utility.yul\":3187:3196   */\n      add\n        /* \"#utility.yul\":3182:3196   */\n      swap1\n      pop\n        /* \"#utility.yul\":3147:3543   */\n      jump(tag_117)\n    tag_119:\n        /* \"#utility.yul\":3151:3165   */\n      pop\n        /* \"#utility.yul\":3559:3563   */\n      dup3\n        /* \"#utility.yul\":3552:3563   */\n      swap8\n      pop\n        /* \"#utility.yul\":3579:3582   */\n      dup8\n        /* \"#utility.yul\":3572:3582   */\n      swap6\n      pop\n        /* \"#utility.yul\":2741:3588   */\n      pop\n      pop\n      pop\n      pop\n      pop\n        /* \"#utility.yul\":2597:3588   */\n      swap3\n      swap2\n      pop\n      pop\n      jump\t// out\n        /* \"#utility.yul\":3594:3938   */\n    tag_91:\n        /* \"#utility.yul\":3672:3675   */\n      0x00\n        /* \"#utility.yul\":3700:3739   */\n      tag_124\n        /* \"#utility.yul\":3733:3738   */\n      dup3\n        /* \"#utility.yul\":3700:3739   */\n      tag_125\n      jump\t// in\n    tag_124:\n        /* \"#utility.yul\":3755:3816   */\n      tag_126\n        /* \"#utility.yul\":3809:3815   */\n      dup2\n        /* \"#utility.yul\":3804:3807   */\n      dup6\n        /* \"#utility.yul\":3755:3816   */\n      tag_127\n      jump\t// in\n    tag_126:\n        /* \"#utility.yul\":3748:3816   */\n      swap4\n      pop\n        /* \"#utility.yul\":3825:3877   */\n      tag_128\n        /* \"#utility.yul\":3870:3876   */\n      dup2\n        /* \"#utility.yul\":3865:3868   */\n      dup6\n        /* \"#utility.yul\":3858:3862   */\n      0x20\n        /* \"#utility.yul\":3851:3856   */\n      dup7\n        /* \"#utility.yul\":3847:3863   */\n      add\n        /* \"#utility.yul\":3825:3877   */\n      tag_129\n      jump\t// in\n    tag_128:\n        /* \"#utility.yul\":3902:3931   */\n      tag_130\n        /* \"#utility.yul\":3924:3930   */\n      dup2\n        /* \"#utility.yul\":3902:3931   */\n      tag_131\n      jump\t// in\n    tag_130:\n        /* \"#utility.yul\":3897:3900   */\n      dup5\n        /* \"#utility.yul\":3893:3932   */\n      add\n        /* \"#utility.yul\":3886:3932   */\n      swap2\n      pop\n        /* \"#utility.yul\":3676:3938   */\n      pop\n        /* \"#utility.yul\":3594:3938   */\n      swap3\n      swap2\n      pop\n      pop\n      jump\t// out\n        /* \"#utility.yul\":3944:4618   */\n    tag_8:\n        /* \"#utility.yul\":4185:4189   */\n      0x00\n        /* \"#utility.yul\":4223:4225   */\n      0x40\n        /* \"#utility.yul\":4212:4221   */\n      dup3\n        /* \"#utility.yul\":4208:4226   */\n      add\n        /* \"#utility.yul\":4200:4226   */\n      swap1\n      pop\n        /* \"#utility.yul\":4272:4281   */\n      dup2\n        /* \"#utility.yul\":4266:4270   */\n      dup2\n        /* \"#utility.yul\":4262:4282   */\n      sub\n        /* \"#utility.yul\":4258:4259   */\n      0x00\n        /* \"#utility.yul\":4247:4256   */\n      dup4\n        /* \"#utility.yul\":4243:4260   */\n      add\n        /* \"#utility.yul\":4236:4283   */\n      mstore\n        /* \"#utility.yul\":4300:4408   */\n      tag_133\n        /* \"#utility.yul\":4403:4407   */\n      dup2\n        /* \"#utility.yul\":4394:4400   */\n      dup6\n        /* \"#utility.yul\":4300:4408   */\n      tag_95\n      jump\t// in\n    tag_133:\n        /* \"#utility.yul\":4292:4408   */\n      swap1\n      pop\n        /* \"#utility.yul\":4455:4464   */\n      dup2\n        /* \"#utility.yul\":4449:4453   */\n      dup2\n        /* \"#utility.yul\":4445:4465   */\n      sub\n        /* \"#utility.yul\":4440:4442   */\n      0x20\n        /* \"#utility.yul\":4429:4438   */\n      dup4\n        /* \"#utility.yul\":4425:4443   */\n      add\n        /* \"#utility.yul\":4418:4466   */\n      mstore\n        /* \"#utility.yul\":4483:4611   */\n      tag_134\n        /* \"#utility.yul\":4606:4610   */\n      dup2\n        /* \"#utility.yul\":4597:4603   */\n      dup5\n        /* \"#utility.yul\":4483:4611   */\n      tag_109\n      jump\t// in\n    tag_134:\n        /* \"#utility.yul\":4475:4611   */\n      swap1\n      pop\n        /* \"#utility.yul\":3944:4618   */\n      swap4\n      swap3\n      pop\n      pop\n      pop\n      jump\t// out\n        /* \"#utility.yul\":4624:4753   */\n    tag_64:\n        /* \"#utility.yul\":4658:4664   */\n      0x00\n        /* \"#utility.yul\":4685:4705   */\n      tag_136\n      tag_137\n      jump\t// in\n    tag_136:\n        /* \"#utility.yul\":4675:4705   */\n      swap1\n      pop\n        /* \"#utility.yul\":4714:4747   */\n      tag_138\n        /* \"#utility.yul\":4742:4746   */\n      dup3\n        /* \"#utility.yul\":4734:4740   */\n      dup3\n        /* \"#utility.yul\":4714:4747   */\n      tag_139\n      jump\t// in\n    tag_138:\n        /* \"#utility.yul\":4624:4753   */\n      swap2\n      swap1\n      pop\n      jump\t// out\n        /* \"#utility.yul\":4759:4834   */\n    tag_137:\n        /* \"#utility.yul\":4792:4798   */\n      0x00\n        /* \"#utility.yul\":4825:4827   */\n      0x40\n        /* \"#utility.yul\":4819:4828   */\n      mload\n        /* \"#utility.yul\":4809:4828   */\n      swap1\n      pop\n        /* \"#utility.yul\":4759:4834   */\n      swap1\n      jump\t// out\n        /* \"#utility.yul\":4840:5148   */\n    tag_63:\n        /* \"#utility.yul\":4902:4906   */\n      0x00\n        /* \"#utility.yul\":4992:5010   */\n      0xffffffffffffffff\n        /* \"#utility.yul\":4984:4990   */\n      dup3\n        /* \"#utility.yul\":4981:5011   */\n      gt\n        /* \"#utility.yul\":4978:5034   */\n      iszero\n      tag_142\n      jumpi\n        /* \"#utility.yul\":5014:5032   */\n      tag_143\n      tag_16\n      jump\t// in\n    tag_143:\n        /* \"#utility.yul\":4978:5034   */\n    tag_142:\n        /* \"#utility.yul\":5052:5081   */\n      tag_144\n        /* \"#utility.yul\":5074:5080   */\n      dup3\n        /* \"#utility.yul\":5052:5081   */\n      tag_131\n      jump\t// in\n    tag_144:\n        /* \"#utility.yul\":5044:5081   */\n      swap1\n      pop\n        /* \"#utility.yul\":5136:5140   */\n      0x20\n        /* \"#utility.yul\":5130:5134   */\n      dup2\n        /* \"#utility.yul\":5126:5141   */\n      add\n        /* \"#utility.yul\":5118:5141   */\n      swap1\n      pop\n        /* \"#utility.yul\":4840:5148   */\n      swap2\n      swap1\n      pop\n      jump\t// out\n        /* \"#utility.yul\":5154:5286   */\n    tag_102:\n        /* \"#utility.yul\":5221:5225   */\n      0x00\n        /* \"#utility.yul\":5244:5247   */\n      dup2\n        /* \"#utility.yul\":5236:5247   */\n      swap1\n      pop\n        /* \"#utility.yul\":5274:5278   */\n      0x20\n        /* \"#utility.yul\":5269:5272   */\n      dup3\n        /* \"#utility.yul\":5265:5279   */\n      add\n        /* \"#utility.yul\":5257:5279   */\n      swap1\n      pop\n        /* \"#utility.yul\":5154:5286   */\n      swap2\n      swap1\n      pop\n      jump\t// out\n        /* \"#utility.yul\":5292:5434   */\n    tag_116:\n        /* \"#utility.yul\":5369:5373   */\n      0x00\n        /* \"#utility.yul\":5392:5395   */\n      dup2\n        /* \"#utility.yul\":5384:5395   */\n      swap1\n      pop\n        /* \"#utility.yul\":5422:5426   */\n      0x20\n        /* \"#utility.yul\":5417:5420   */\n      dup3\n        /* \"#utility.yul\":5413:5427   */\n      add\n        /* \"#utility.yul\":5405:5427   */\n      swap1\n      pop\n        /* \"#utility.yul\":5292:5434   */\n      swap2\n      swap1\n      pop\n      jump\t// out\n        /* \"#utility.yul\":5440:5554   */\n    tag_98:\n        /* \"#utility.yul\":5507:5513   */\n      0x00\n        /* \"#utility.yul\":5541:5546   */\n      dup2\n        /* \"#utility.yul\":5535:5547   */\n      mload\n        /* \"#utility.yul\":5525:5547   */\n      swap1\n      pop\n        /* \"#utility.yul\":5440:5554   */\n      swap2\n      swap1\n      pop\n      jump\t// out\n        /* \"#utility.yul\":5560:5684   */\n    tag_112:\n        /* \"#utility.yul\":5637:5643   */\n      0x00\n        /* \"#utility.yul\":5671:5676   */\n      dup2\n        /* \"#utility.yul\":5665:5677   */\n      mload\n        /* \"#utility.yul\":5655:5677   */\n      swap1\n      pop\n        /* \"#utility.yul\":5560:5684   */\n      swap2\n      swap1\n      pop\n      jump\t// out\n        /* \"#utility.yul\":5690:5789   */\n    tag_125:\n        /* \"#utility.yul\":5742:5748   */\n      0x00\n        /* \"#utility.yul\":5776:5781   */\n      dup2\n        /* \"#utility.yul\":5770:5782   */\n      mload\n        /* \"#utility.yul\":5760:5782   */\n      swap1\n      pop\n        /* \"#utility.yul\":5690:5789   */\n      swap2\n      swap1\n      pop\n      jump\t// out\n        /* \"#utility.yul\":5795:5908   */\n    tag_108:\n        /* \"#utility.yul\":5865:5869   */\n      0x00\n        /* \"#utility.yul\":5897:5901   */\n      0x20\n        /* \"#utility.yul\":5892:5895   */\n      dup3\n        /* \"#utility.yul\":5888:5902   */\n      add\n        /* \"#utility.yul\":5880:5902   */\n      swap1\n      pop\n        /* \"#utility.yul\":5795:5908   */\n      swap2\n      swap1\n      pop\n      jump\t// out\n        /* \"#utility.yul\":5914:6037   */\n    tag_122:\n        /* \"#utility.yul\":5994:5998   */\n      0x00\n        /* \"#utility.yul\":6026:6030   */\n      0x20\n        /* \"#utility.yul\":6021:6024   */\n      dup3\n        /* \"#utility.yul\":6017:6031   */\n      add\n        /* \"#utility.yul\":6009:6031   */\n      swap1\n      pop\n        /* \"#utility.yul\":5914:6037   */\n      swap2\n      swap1\n      pop\n      jump\t// out\n        /* \"#utility.yul\":6043:6227   */\n    tag_100:\n        /* \"#utility.yul\":6142:6153   */\n      0x00\n        /* \"#utility.yul\":6176:6182   */\n      dup3\n        /* \"#utility.yul\":6171:6174   */\n      dup3\n        /* \"#utility.yul\":6164:6183   */\n      mstore\n        /* \"#utility.yul\":6216:6220   */\n      0x20\n        /* \"#utility.yul\":6211:6214   */\n      dup3\n        /* \"#utility.yul\":6207:6221   */\n      add\n        /* \"#utility.yul\":6192:6221   */\n      swap1\n      pop\n        /* \"#utility.yul\":6043:6227   */\n      swap3\n      swap2\n      pop\n      pop\n      jump\t// out\n        /* \"#utility.yul\":6233:6427   */\n    tag_114:\n        /* \"#utility.yul\":6342:6353   */\n      0x00\n        /* \"#utility.yul\":6376:6382   */\n      dup3\n        /* \"#utility.yul\":6371:6374   */\n      dup3\n        /* \"#utility.yul\":6364:6383   */\n      mstore\n        /* \"#utility.yul\":6416:6420   */\n      0x20\n        /* \"#utility.yul\":6411:6414   */\n      dup3\n        /* \"#utility.yul\":6407:6421   */\n      add\n        /* \"#utility.yul\":6392:6421   */\n      swap1\n      pop\n        /* \"#utility.yul\":6233:6427   */\n      swap3\n      swap2\n      pop\n      pop\n      jump\t// out\n        /* \"#utility.yul\":6433:6592   */\n    tag_127:\n        /* \"#utility.yul\":6507:6518   */\n      0x00\n        /* \"#utility.yul\":6541:6547   */\n      dup3\n        /* \"#utility.yul\":6536:6539   */\n      dup3\n        /* \"#utility.yul\":6529:6548   */\n      mstore\n        /* \"#utility.yul\":6581:6585   */\n      0x20\n        /* \"#utility.yul\":6576:6579   */\n      dup3\n        /* \"#utility.yul\":6572:6586   */\n      add\n        /* \"#utility.yul\":6557:6586   */\n      swap1\n      pop\n        /* \"#utility.yul\":6433:6592   */\n      swap3\n      swap2\n      pop\n      pop\n      jump\t// out\n        /* \"#utility.yul\":6598:6694   */\n    tag_94:\n        /* \"#utility.yul\":6635:6642   */\n      0x00\n        /* \"#utility.yul\":6664:6688   */\n      tag_156\n        /* \"#utility.yul\":6682:6687   */\n      dup3\n        /* \"#utility.yul\":6664:6688   */\n      tag_157\n      jump\t// in\n    tag_156:\n        /* \"#utility.yul\":6653:6688   */\n      swap1\n      pop\n        /* \"#utility.yul\":6598:6694   */\n      swap2\n      swap1\n      pop\n      jump\t// out\n        /* \"#utility.yul\":6700:6826   */\n    tag_157:\n        /* \"#utility.yul\":6737:6744   */\n      0x00\n        /* \"#utility.yul\":6777:6819   */\n      0xffffffffffffffffffffffffffffffffffffffff\n        /* \"#utility.yul\":6770:6775   */\n      dup3\n        /* \"#utility.yul\":6766:6820   */\n      and\n        /* \"#utility.yul\":6755:6820   */\n      swap1\n      pop\n        /* \"#utility.yul\":6700:6826   */\n      swap2\n      swap1\n      pop\n      jump\t// out\n        /* \"#utility.yul\":6832:6909   */\n    tag_159:\n        /* \"#utility.yul\":6869:6876   */\n      0x00\n        /* \"#utility.yul\":6898:6903   */\n      dup2\n        /* \"#utility.yul\":6887:6903   */\n      swap1\n      pop\n        /* \"#utility.yul\":6832:6909   */\n      swap2\n      swap1\n      pop\n      jump\t// out\n        /* \"#utility.yul\":6915:7069   */\n    tag_69:\n        /* \"#utility.yul\":6999:7005   */\n      dup3\n        /* \"#utility.yul\":6994:6997   */\n      dup2\n        /* \"#utility.yul\":6989:6992   */\n      dup4\n        /* \"#utility.yul\":6976:7006   */\n      calldatacopy\n        /* \"#utility.yul\":7061:7062   */\n      0x00\n        /* \"#utility.yul\":7052:7058   */\n      dup4\n        /* \"#utility.yul\":7047:7050   */\n      dup4\n        /* \"#utility.yul\":7043:7059   */\n      add\n        /* \"#utility.yul\":7036:7063   */\n      mstore\n        /* \"#utility.yul\":6915:7069   */\n      pop\n      pop\n      pop\n      jump\t// out\n        /* \"#utility.yul\":7075:7382   */\n    tag_129:\n        /* \"#utility.yul\":7143:7144   */\n      0x00\n        /* \"#utility.yul\":7153:7266   */\n    tag_163:\n        /* \"#utility.yul\":7167:7173   */\n      dup4\n        /* \"#utility.yul\":7164:7165   */\n      dup2\n        /* \"#utility.yul\":7161:7174   */\n      lt\n        /* \"#utility.yul\":7153:7266   */\n      iszero\n      tag_165\n      jumpi\n        /* \"#utility.yul\":7252:7253   */\n      dup1\n        /* \"#utility.yul\":7247:7250   */\n      dup3\n        /* \"#utility.yul\":7243:7254   */\n      add\n        /* \"#utility.yul\":7237:7255   */\n      mload\n        /* \"#utility.yul\":7233:7234   */\n      dup2\n        /* \"#utility.yul\":7228:7231   */\n      dup5\n        /* \"#utility.yul\":7224:7235   */\n      add\n        /* \"#utility.yul\":7217:7256   */\n      mstore\n        /* \"#utility.yul\":7189:7191   */\n      0x20\n        /* \"#utility.yul\":7186:7187   */\n      dup2\n        /* \"#utility.yul\":7182:7192   */\n      add\n        /* \"#utility.yul\":7177:7192   */\n      swap1\n      pop\n        /* \"#utility.yul\":7153:7266   */\n      jump(tag_163)\n    tag_165:\n        /* \"#utility.yul\":7284:7290   */\n      dup4\n        /* \"#utility.yul\":7281:7282   */\n      dup2\n        /* \"#utility.yul\":7278:7291   */\n      gt\n        /* \"#utility.yul\":7275:7376   */\n      iszero\n      tag_166\n      jumpi\n        /* \"#utility.yul\":7364:7365   */\n      0x00\n        /* \"#utility.yul\":7355:7361   */\n      dup5\n        /* \"#utility.yul\":7350:7353   */\n      dup5\n        /* \"#utility.yul\":7346:7362   */\n      add\n        /* \"#utility.yul\":7339:7366   */\n      mstore\n        /* \"#utility.yul\":7275:7376   */\n    tag_166:\n        /* \"#utility.yul\":7124:7382   */\n      pop\n        /* \"#utility.yul\":7075:7382   */\n      pop\n      pop\n      pop\n      jump\t// out\n        /* \"#utility.yul\":7388:7708   */\n    tag_35:\n        /* \"#utility.yul\":7432:7438   */\n      0x00\n        /* \"#utility.yul\":7469:7470   */\n      0x02\n        /* \"#utility.yul\":7463:7467   */\n      dup3\n        /* \"#utility.yul\":7459:7471   */\n      div\n        /* \"#utility.yul\":7449:7471   */\n      swap1\n      pop\n        /* \"#utility.yul\":7516:7517   */\n      0x01\n        /* \"#utility.yul\":7510:7514   */\n      dup3\n        /* \"#utility.yul\":7506:7518   */\n      and\n        /* \"#utility.yul\":7537:7555   */\n      dup1\n        /* \"#utility.yul\":7527:7608   */\n      tag_168\n      jumpi\n        /* \"#utility.yul\":7593:7597   */\n      0x7f\n        /* \"#utility.yul\":7585:7591   */\n      dup3\n        /* \"#utility.yul\":7581:7598   */\n      and\n        /* \"#utility.yul\":7571:7598   */\n      swap2\n      pop\n        /* \"#utility.yul\":7527:7608   */\n    tag_168:\n        /* \"#utility.yul\":7655:7657   */\n      0x20\n        /* \"#utility.yul\":7647:7653   */\n      dup3\n        /* \"#utility.yul\":7644:7658   */\n      lt\n        /* \"#utility.yul\":7624:7642   */\n      dup2\n        /* \"#utility.yul\":7621:7659   */\n      eq\n        /* \"#utility.yul\":7618:7702   */\n      iszero\n      tag_169\n      jumpi\n        /* \"#utility.yul\":7674:7692   */\n      tag_170\n      tag_171\n      jump\t// in\n    tag_170:\n        /* \"#utility.yul\":7618:7702   */\n    tag_169:\n        /* \"#utility.yul\":7439:7708   */\n      pop\n        /* \"#utility.yul\":7388:7708   */\n      swap2\n      swap1\n      pop\n      jump\t// out\n        /* \"#utility.yul\":7714:7995   */\n    tag_139:\n        /* \"#utility.yul\":7797:7824   */\n      tag_173\n        /* \"#utility.yul\":7819:7823   */\n      dup3\n        /* \"#utility.yul\":7797:7824   */\n      tag_131\n      jump\t// in\n    tag_173:\n        /* \"#utility.yul\":7789:7795   */\n      dup2\n        /* \"#utility.yul\":7785:7825   */\n      add\n        /* \"#utility.yul\":7927:7933   */\n      dup2\n        /* \"#utility.yul\":7915:7925   */\n      dup2\n        /* \"#utility.yul\":7912:7934   */\n      lt\n        /* \"#utility.yul\":7891:7909   */\n      0xffffffffffffffff\n        /* \"#utility.yul\":7879:7889   */\n      dup3\n        /* \"#utility.yul\":7876:7910   */\n      gt\n        /* \"#utility.yul\":7873:7935   */\n      or\n        /* \"#utility.yul\":7870:7958   */\n      iszero\n      tag_174\n      jumpi\n        /* \"#utility.yul\":7938:7956   */\n      tag_175\n      tag_16\n      jump\t// in\n    tag_175:\n        /* \"#utility.yul\":7870:7958   */\n    tag_174:\n        /* \"#utility.yul\":7978:7988   */\n      dup1\n        /* \"#utility.yul\":7974:7976   */\n      0x40\n        /* \"#utility.yul\":7967:7989   */\n      mstore\n        /* \"#utility.yul\":7757:7995   */\n      pop\n        /* \"#utility.yul\":7714:7995   */\n      pop\n      pop\n      jump\t// out\n        /* \"#utility.yul\":8001:8234   */\n    tag_43:\n        /* \"#utility.yul\":8040:8043   */\n      0x00\n        /* \"#utility.yul\":8063:8087   */\n      tag_177\n        /* \"#utility.yul\":8081:8086   */\n      dup3\n        /* \"#utility.yul\":8063:8087   */\n      tag_159\n      jump\t// in\n    tag_177:\n        /* \"#utility.yul\":8054:8087   */\n      swap2\n      pop\n        /* \"#utility.yul\":8109:8175   */\n      0xffffffffffffffffffffffffffffffffffffffffffffffffffffffffffffffff\n        /* \"#utility.yul\":8102:8107   */\n      dup3\n        /* \"#utility.yul\":8099:8176   */\n      eq\n        /* \"#utility.yul\":8096:8199   */\n      iszero\n      tag_178\n      jumpi\n        /* \"#utility.yul\":8179:8197   */\n      tag_179\n      tag_180\n      jump\t// in\n    tag_179:\n        /* \"#utility.yul\":8096:8199   */\n    tag_178:\n        /* \"#utility.yul\":8226:8227   */\n      0x01\n        /* \"#utility.yul\":8219:8224   */\n      dup3\n        /* \"#utility.yul\":8215:8228   */\n      add\n        /* \"#utility.yul\":8208:8228   */\n      swap1\n      pop\n        /* \"#utility.yul\":8001:8234   */\n      swap2\n      swap1\n      pop\n      jump\t// out\n        /* \"#utility.yul\":8240:8420   */\n    tag_180:\n        /* \"#utility.yul\":8288:8365   */\n      0x4e487b7100000000000000000000000000000000000000000000000000000000\n        /* \"#utility.yul\":8285:8286   */\n      0x00\n        /* \"#utility.yul\":8278:8366   */\n      mstore\n        /* \"#utility.yul\":8385:8389   */\n      0x11\n        /* \"#utility.yul\":8382:8383   */\n      0x04\n        /* \"#utility.yul\":8375:8390   */\n      mstore\n        /* \"#utility.yul\":8409:8413   */\n      0x24\n        /* \"#utility.yul\":8406:8407   */\n      0x00\n        /* \"#utility.yul\":8399:8414   */\n      revert\n        /* \"#utility.yul\":8426:8606   */\n    tag_171:\n        /* \"#utility.yul\":8474:8551   */\n      0x4e487b7100000000000000000000000000000000000000000000000000000000\n        /* \"#utility.yul\":8471:8472   */\n      0x00\n        /* \"#utility.yul\":8464:8552   */\n      mstore\n        /* \"#utility.yul\":8571:8575   */\n      0x22\n        /* \"#utility.yul\":8568:8569   */\n      0x04\n        /* \"#utility.yul\":8561:8576   */\n      mstore\n        /* \"#utility.yul\":8595:8599   */\n      0x24\n        /* \"#utility.yul\":8592:8593   */\n      0x00\n        /* \"#utility.yul\":8585:8600   */\n      revert\n        /* \"#utility.yul\":8612:8792   */\n    tag_27:\n        /* \"#utility.yul\":8660:8737   */\n      0x4e487b7100000000000000000000000000000000000000000000000000000000\n        /* \"#utility.yul\":8657:8658   */\n      0x00\n        /* \"#utility.yul\":8650:8738   */\n      mstore\n        /* \"#utility.yul\":8757:8761   */\n      0x32\n        /* \"#utility.yul\":8754:8755   */\n      0x04\n        /* \"#utility.yul\":8747:8762   */\n      mstore\n        /* \"#utility.yul\":8781:8785   */\n      0x24\n        /* \"#utility.yul\":8778:8779   */\n      0x00\n        /* \"#utility.yul\":8771:8786   */\n      revert\n        /* \"#utility.yul\":8798:8978   */\n    tag_16:\n        /* \"#utility.yul\":8846:8923   */\n      0x4e487b7100000000000000000000000000000000000000000000000000000000\n        /* \"#utility.yul\":8843:8844   */\n      0x00\n        /* \"#utility.yul\":8836:8924   */\n      mstore\n        /* \"#utility.yul\":8943:8947   */\n      0x41\n        /* \"#utility.yul\":8940:8941   */\n      0x04\n        /* \"#utility.yul\":8933:8948   */\n      mstore\n        /* \"#utility.yul\":8967:8971   */\n      0x24\n        /* \"#utility.yul\":8964:8965   */\n      0x00\n        /* \"#utility.yul\":8957:8972   */\n      revert\n        /* \"#utility.yul\":8984:9101   */\n    tag_74:\n        /* \"#utility.yul\":9093:9094   */\n      0x00\n        /* \"#utility.yul\":9090:9091   */\n      dup1\n        /* \"#utility.yul\":9083:9095   */\n      revert\n        /* \"#utility.yul\":9107:9224   */\n    tag_67:\n        /* \"#utility.yul\":9216:9217   */\n      0x00\n        /* \"#utility.yul\":9213:9214   */\n      dup1\n        /* \"#utility.yul\":9206:9218   */\n      revert\n        /* \"#utility.yul\":9230:9347   */\n    tag_82:\n        /* \"#utility.yul\":9339:9340   */\n      0x00\n        /* \"#utility.yul\":9336:9337   */\n      dup1\n        /* \"#utility.yul\":9329:9341   */\n      revert\n        /* \"#utility.yul\":9353:9470   */\n    tag_79:\n        /* \"#utility.yul\":9462:9463   */\n      0x00\n        /* \"#utility.yul\":9459:9460   */\n      dup1\n        /* \"#utility.yul\":9452:9464   */\n      revert\n        /* \"#utility.yul\":9476:9578   */\n    tag_131:\n        /* \"#utility.yul\":9517:9523   */\n      0x00\n        /* \"#utility.yul\":9568:9570   */\n      0x1f\n        /* \"#utility.yul\":9564:9571   */\n      not\n        /* \"#utility.yul\":9559:9561   */\n      0x1f\n        /* \"#utility.yul\":9552:9557   */\n      dup4\n        /* \"#utility.yul\":9548:9562   */\n      add\n        /* \"#utility.yul\":9544:9572   */\n      and\n        /* \"#utility.yul\":9534:9572   */\n      swap1\n      pop\n        /* \"#utility.yul\":9476:9578   */\n      swap2\n      swap1\n      pop\n      jump\t// out\n\n    auxdata: 0xa26469706673582212204ea68b7543f242f77b8497d8a429f5c2f56b239bec367c4861f83169d868459664736f6c63430008070033\n}\n",
				"bytecode": {
					"linkReferences": {},
					"object": "608060405234801561001057600080fd5b50610964806100206000396000f3fe608060405234801561001057600080fd5b50600436106100365760003560e01c80632e64cec11461003b5780634f3d057a1461005a575b600080fd5b610043610076565b604051610051929190610608565b60405180910390f35b610074600480360381019061006f9190610478565b61030f565b005b606080600060018054905067ffffffffffffffff81111561009a576100996108da565b5b6040519080825280602002602001820160405280156100c85781602001602082028036833780820191505090505b509050600060018054905067ffffffffffffffff8111156100ec576100eb6108da565b5b60405190808252806020026020018201604052801561011f57816020015b606081526020019060019003908161010a5790505b50905060005b6001805490508110156103025760018181548110610146576101456108ab565b5b9060005260206000200160009054906101000a900473ffffffffffffffffffffffffffffffffffffffff16838281518110610184576101836108ab565b5b602002602001019073ffffffffffffffffffffffffffffffffffffffff16908173ffffffffffffffffffffffffffffffffffffffff1681525050600080600183815481106101d5576101d46108ab565b5b9060005260206000200160009054906101000a900473ffffffffffffffffffffffffffffffffffffffff1673ffffffffffffffffffffffffffffffffffffffff1673ffffffffffffffffffffffffffffffffffffffff1681526020019081526020016000208054610245906107a1565b80601f0160208091040260200160405190810160405280929190818152602001828054610271906107a1565b80156102be5780601f10610293576101008083540402835291602001916102be565b820191906000526020600020905b8154815290600101906020018083116102a157829003601f168201915b50505050508282815181106102d6576102d56108ab565b5b602002602001018190525080806102ec90610804565b91505080806102fa90610804565b915050610125565b5081819350935050509091565b806000803373ffffffffffffffffffffffffffffffffffffffff1673ffffffffffffffffffffffffffffffffffffffff1681526020019081526020016000209080519060200190610361929190610365565b5050565b828054610371906107a1565b90600052602060002090601f01602090048101928261039357600085556103da565b82601f106103ac57805160ff19168380011785556103da565b828001600101855582156103da579182015b828111156103d95782518255916020019190600101906103be565b5b5090506103e791906103eb565b5090565b5b808211156104045760008160009055506001016103ec565b5090565b600061041b61041684610664565b61063f565b9050828152602081018484840111156104375761043661090e565b5b61044284828561075f565b509392505050565b600082601f83011261045f5761045e610909565b5b813561046f848260208601610408565b91505092915050565b60006020828403121561048e5761048d610918565b5b600082013567ffffffffffffffff8111156104ac576104ab610913565b5b6104b88482850161044a565b91505092915050565b60006104cd83836104ed565b60208301905092915050565b60006104e583836105cf565b905092915050565b6104f681610723565b82525050565b6000610507826106b5565b61051181856106f0565b935061051c83610695565b8060005b8381101561054d57815161053488826104c1565b975061053f836106d6565b925050600181019050610520565b5085935050505092915050565b6000610565826106c0565b61056f8185610701565b935083602082028501610581856106a5565b8060005b858110156105bd578484038952815161059e85826104d9565b94506105a9836106e3565b925060208a01995050600181019050610585565b50829750879550505050505092915050565b60006105da826106cb565b6105e48185610712565b93506105f481856020860161076e565b6105fd8161091d565b840191505092915050565b6000604082019050818103600083015261062281856104fc565b90508181036020830152610636818461055a565b90509392505050565b600061064961065a565b905061065582826107d3565b919050565b6000604051905090565b600067ffffffffffffffff82111561067f5761067e6108da565b5b6106888261091d565b9050602081019050919050565b6000819050602082019050919050565b6000819050602082019050919050565b600081519050919050565b600081519050919050565b600081519050919050565b6000602082019050919050565b6000602082019050919050565b600082825260208201905092915050565b600082825260208201905092915050565b600082825260208201905092915050565b600061072e82610735565b9050919050565b600073ffffffffffffffffffffffffffffffffffffffff82169050919050565b6000819050919050565b82818337600083830152505050565b60005b8381101561078c578082015181840152602081019050610771565b8381111561079b576000848401525b50505050565b600060028204905060018216806107b957607f821691505b602082108114156107cd576107cc61087c565b5b50919050565b6107dc8261091d565b810181811067ffffffffffffffff821117156107fb576107fa6108da565b5b80604052505050565b600061080f82610755565b91507fffffffffffffffffffffffffffffffffffffffffffffffffffffffffffffffff8214156108425761084161084d565b5b600182019050919050565b7f4e487b7100000000000000000000000000000000000000000000000000000000600052601160045260246000fd5b7f4e487b7100000000000000000000000000000000000000000000000000000000600052602260045260246000fd5b7f4e487b7100000000000000000000000000000000000000000000000000000000600052603260045260246000fd5b7f4e487b7100000000000000000000000000000000000000000000000000000000600052604160045260246000fd5b600080fd5b600080fd5b600080fd5b600080fd5b6000601f19601f830116905091905056fea26469706673582212204ea68b7543f242f77b8497d8a429f5c2f56b239bec367c4861f83169d868459664736f6c63430008070033",
					"opcodes": "PUSH1 0x80 PUSH1 0x40 MSTORE CALLVALUE DUP1 ISZERO PUSH2 0x10 JUMPI PUSH1 0x0 DUP1 REVERT JUMPDEST POP PUSH2 0x964 DUP1 PUSH2 0x20 PUSH1 0x0 CODECOPY PUSH1 0x0 RETURN INVALID PUSH1 0x80 PUSH1 0x40 MSTORE CALLVALUE DUP1 ISZERO PUSH2 0x10 JUMPI PUSH1 0x0 DUP1 REVERT JUMPDEST POP PUSH1 0x4 CALLDATASIZE LT PUSH2 0x36 JUMPI PUSH1 0x0 CALLDATALOAD PUSH1 0xE0 SHR DUP1 PUSH4 0x2E64CEC1 EQ PUSH2 0x3B JUMPI DUP1 PUSH4 0x4F3D057A EQ PUSH2 0x5A JUMPI JUMPDEST PUSH1 0x0 DUP1 REVERT JUMPDEST PUSH2 0x43 PUSH2 0x76 JUMP JUMPDEST PUSH1 0x40 MLOAD PUSH2 0x51 SWAP3 SWAP2 SWAP1 PUSH2 0x608 JUMP JUMPDEST PUSH1 0x40 MLOAD DUP1 SWAP2 SUB SWAP1 RETURN JUMPDEST PUSH2 0x74 PUSH1 0x4 DUP1 CALLDATASIZE SUB DUP2 ADD SWAP1 PUSH2 0x6F SWAP2 SWAP1 PUSH2 0x478 JUMP JUMPDEST PUSH2 0x30F JUMP JUMPDEST STOP JUMPDEST PUSH1 0x60 DUP1 PUSH1 0x0 PUSH1 0x1 DUP1 SLOAD SWAP1 POP PUSH8 0xFFFFFFFFFFFFFFFF DUP2 GT ISZERO PUSH2 0x9A JUMPI PUSH2 0x99 PUSH2 0x8DA JUMP JUMPDEST JUMPDEST PUSH1 0x40 MLOAD SWAP1 DUP1 DUP3 MSTORE DUP1 PUSH1 0x20 MUL PUSH1 0x20 ADD DUP3 ADD PUSH1 0x40 MSTORE DUP1 ISZERO PUSH2 0xC8 JUMPI DUP2 PUSH1 0x20 ADD PUSH1 0x20 DUP3 MUL DUP1 CALLDATASIZE DUP4 CALLDATACOPY DUP1 DUP3 ADD SWAP2 POP POP SWAP1 POP JUMPDEST POP SWAP1 POP PUSH1 0x0 PUSH1 0x1 DUP1 SLOAD SWAP1 POP PUSH8 0xFFFFFFFFFFFFFFFF DUP2 GT ISZERO PUSH2 0xEC JUMPI PUSH2 0xEB PUSH2 0x8DA JUMP JUMPDEST JUMPDEST PUSH1 0x40 MLOAD SWAP1 DUP1 DUP3 MSTORE DUP1 PUSH1 0x20 MUL PUSH1 0x20 ADD DUP3 ADD PUSH1 0x40 MSTORE DUP1 ISZERO PUSH2 0x11F JUMPI DUP2 PUSH1 0x20 ADD JUMPDEST PUSH1 0x60 DUP2 MSTORE PUSH1 0x20 ADD SWAP1 PUSH1 0x1 SWAP1 SUB SWAP1 DUP2 PUSH2 0x10A JUMPI SWAP1 POP JUMPDEST POP SWAP1 POP PUSH1 0x0 JUMPDEST PUSH1 0x1 DUP1 SLOAD SWAP1 POP DUP2 LT ISZERO PUSH2 0x302 JUMPI PUSH1 0x1 DUP2 DUP2 SLOAD DUP2 LT PUSH2 0x146 JUMPI PUSH2 0x145 PUSH2 0x8AB JUMP JUMPDEST JUMPDEST SWAP1 PUSH1 0x0 MSTORE PUSH1 0x20 PUSH1 0x0 KECCAK256 ADD PUSH1 0x0 SWAP1 SLOAD SWAP1 PUSH2 0x100 EXP SWAP1 DIV PUSH20 0xFFFFFFFFFFFFFFFFFFFFFFFFFFFFFFFFFFFFFFFF AND DUP4 DUP3 DUP2 MLOAD DUP2 LT PUSH2 0x184 JUMPI PUSH2 0x183 PUSH2 0x8AB JUMP JUMPDEST JUMPDEST PUSH1 0x20 MUL PUSH1 0x20 ADD ADD SWAP1 PUSH20 0xFFFFFFFFFFFFFFFFFFFFFFFFFFFFFFFFFFFFFFFF AND SWAP1 DUP2 PUSH20 0xFFFFFFFFFFFFFFFFFFFFFFFFFFFFFFFFFFFFFFFF AND DUP2 MSTORE POP POP PUSH1 0x0 DUP1 PUSH1 0x1 DUP4 DUP2 SLOAD DUP2 LT PUSH2 0x1D5 JUMPI PUSH2 0x1D4 PUSH2 0x8AB JUMP JUMPDEST JUMPDEST SWAP1 PUSH1 0x0 MSTORE PUSH1 0x20 PUSH1 0x0 KECCAK256 ADD PUSH1 0x0 SWAP1 SLOAD SWAP1 PUSH2 0x100 EXP SWAP1 DIV PUSH20 0xFFFFFFFFFFFFFFFFFFFFFFFFFFFFFFFFFFFFFFFF AND PUSH20 0xFFFFFFFFFFFFFFFFFFFFFFFFFFFFFFFFFFFFFFFF AND PUSH20 0xFFFFFFFFFFFFFFFFFFFFFFFFFFFFFFFFFFFFFFFF AND DUP2 MSTORE PUSH1 0x20 ADD SWAP1 DUP2 MSTORE PUSH1 0x20 ADD PUSH1 0x0 KECCAK256 DUP1 SLOAD PUSH2 0x245 SWAP1 PUSH2 0x7A1 JUMP JUMPDEST DUP1 PUSH1 0x1F ADD PUSH1 0x20 DUP1 SWAP2 DIV MUL PUSH1 0x20 ADD PUSH1 0x40 MLOAD SWAP1 DUP2 ADD PUSH1 0x40 MSTORE DUP1 SWAP3 SWAP2 SWAP1 DUP2 DUP2 MSTORE PUSH1 0x20 ADD DUP3 DUP1 SLOAD PUSH2 0x271 SWAP1 PUSH2 0x7A1 JUMP JUMPDEST DUP1 ISZERO PUSH2 0x2BE JUMPI DUP1 PUSH1 0x1F LT PUSH2 0x293 JUMPI PUSH2 0x100 DUP1 DUP4 SLOAD DIV MUL DUP4 MSTORE SWAP2 PUSH1 0x20 ADD SWAP2 PUSH2 0x2BE JUMP JUMPDEST DUP3 ADD SWAP2 SWAP1 PUSH1 0x0 MSTORE PUSH1 0x20 PUSH1 0x0 KECCAK256 SWAP1 JUMPDEST DUP2 SLOAD DUP2 MSTORE SWAP1 PUSH1 0x1 ADD SWAP1 PUSH1 0x20 ADD DUP1 DUP4 GT PUSH2 0x2A1 JUMPI DUP3 SWAP1 SUB PUSH1 0x1F AND DUP3 ADD SWAP2 JUMPDEST POP POP POP POP POP DUP3 DUP3 DUP2 MLOAD DUP2 LT PUSH2 0x2D6 JUMPI PUSH2 0x2D5 PUSH2 0x8AB JUMP JUMPDEST JUMPDEST PUSH1 0x20 MUL PUSH1 0x20 ADD ADD DUP2 SWAP1 MSTORE POP DUP1 DUP1 PUSH2 0x2EC SWAP1 PUSH2 0x804 JUMP JUMPDEST SWAP2 POP POP DUP1 DUP1 PUSH2 0x2FA SWAP1 PUSH2 0x804 JUMP JUMPDEST SWAP2 POP POP PUSH2 0x125 JUMP JUMPDEST POP DUP2 DUP2 SWAP4 POP SWAP4 POP POP POP SWAP1 SWAP2 JUMP JUMPDEST DUP1 PUSH1 0x0 DUP1 CALLER PUSH20 0xFFFFFFFFFFFFFFFFFFFFFFFFFFFFFFFFFFFFFFFF AND PUSH20 0xFFFFFFFFFFFFFFFFFFFFFFFFFFFFFFFFFFFFFFFF AND DUP2 MSTORE PUSH1 0x20 ADD SWAP1 DUP2 MSTORE PUSH1 0x20 ADD PUSH1 0x0 KECCAK256 SWAP1 DUP1 MLOAD SWAP1 PUSH1 0x20 ADD SWAP1 PUSH2 0x361 SWAP3 SWAP2 SWAP1 PUSH2 0x365 JUMP JUMPDEST POP POP JUMP JUMPDEST DUP3 DUP1 SLOAD PUSH2 0x371 SWAP1 PUSH2 0x7A1 JUMP JUMPDEST SWAP1 PUSH1 0x0 MSTORE PUSH1 0x20 PUSH1 0x0 KECCAK256 SWAP1 PUSH1 0x1F ADD PUSH1 0x20 SWAP1 DIV DUP2 ADD SWAP3 DUP3 PUSH2 0x393 JUMPI PUSH1 0x0 DUP6 SSTORE PUSH2 0x3DA JUMP JUMPDEST DUP3 PUSH1 0x1F LT PUSH2 0x3AC JUMPI DUP1 MLOAD PUSH1 0xFF NOT AND DUP4 DUP1 ADD OR DUP6 SSTORE PUSH2 0x3DA JUMP JUMPDEST DUP3 DUP1 ADD PUSH1 0x1 ADD DUP6 SSTORE DUP3 ISZERO PUSH2 0x3DA JUMPI SWAP2 DUP3 ADD JUMPDEST DUP3 DUP2 GT ISZERO PUSH2 0x3D9 JUMPI DUP3 MLOAD DUP3 SSTORE SWAP2 PUSH1 0x20 ADD SWAP2 SWAP1 PUSH1 0x1 ADD SWAP1 PUSH2 0x3BE JUMP JUMPDEST JUMPDEST POP SWAP1 POP PUSH2 0x3E7 SWAP2 SWAP1 PUSH2 0x3EB JUMP JUMPDEST POP SWAP1 JUMP JUMPDEST JUMPDEST DUP1 DUP3 GT ISZERO PUSH2 0x404 JUMPI PUSH1 0x0 DUP2 PUSH1 0x0 SWAP1 SSTORE POP PUSH1 0x1 ADD PUSH2 0x3EC JUMP JUMPDEST POP SWAP1 JUMP JUMPDEST PUSH1 0x0 PUSH2 0x41B PUSH2 0x416 DUP5 PUSH2 0x664 JUMP JUMPDEST PUSH2 0x63F JUMP JUMPDEST SWAP1 POP DUP3 DUP2 MSTORE PUSH1 0x20 DUP2 ADD DUP5 DUP5 DUP5 ADD GT ISZERO PUSH2 0x437 JUMPI PUSH2 0x436 PUSH2 0x90E JUMP JUMPDEST JUMPDEST PUSH2 0x442 DUP5 DUP3 DUP6 PUSH2 0x75F JUMP JUMPDEST POP SWAP4 SWAP3 POP POP POP JUMP JUMPDEST PUSH1 0x0 DUP3 PUSH1 0x1F DUP4 ADD SLT PUSH2 0x45F JUMPI PUSH2 0x45E PUSH2 0x909 JUMP JUMPDEST JUMPDEST DUP2 CALLDATALOAD PUSH2 0x46F DUP5 DUP3 PUSH1 0x20 DUP7 ADD PUSH2 0x408 JUMP JUMPDEST SWAP2 POP POP SWAP3 SWAP2 POP POP JUMP JUMPDEST PUSH1 0x0 PUSH1 0x20 DUP3 DUP5 SUB SLT ISZERO PUSH2 0x48E JUMPI PUSH2 0x48D PUSH2 0x918 JUMP JUMPDEST JUMPDEST PUSH1 0x0 DUP3 ADD CALLDATALOAD PUSH8 0xFFFFFFFFFFFFFFFF DUP2 GT ISZERO PUSH2 0x4AC JUMPI PUSH2 0x4AB PUSH2 0x913 JUMP JUMPDEST JUMPDEST PUSH2 0x4B8 DUP5 DUP3 DUP6 ADD PUSH2 0x44A JUMP JUMPDEST SWAP2 POP POP SWAP3 SWAP2 POP POP JUMP JUMPDEST PUSH1 0x0 PUSH2 0x4CD DUP4 DUP4 PUSH2 0x4ED JUMP JUMPDEST PUSH1 0x20 DUP4 ADD SWAP1 POP SWAP3 SWAP2 POP POP JUMP JUMPDEST PUSH1 0x0 PUSH2 0x4E5 DUP4 DUP4 PUSH2 0x5CF JUMP JUMPDEST SWAP1 POP SWAP3 SWAP2 POP POP JUMP JUMPDEST PUSH2 0x4F6 DUP2 PUSH2 0x723 JUMP JUMPDEST DUP3 MSTORE POP POP JUMP JUMPDEST PUSH1 0x0 PUSH2 0x507 DUP3 PUSH2 0x6B5 JUMP JUMPDEST PUSH2 0x511 DUP2 DUP6 PUSH2 0x6F0 JUMP JUMPDEST SWAP4 POP PUSH2 0x51C DUP4 PUSH2 0x695 JUMP JUMPDEST DUP1 PUSH1 0x0 JUMPDEST DUP4 DUP2 LT ISZERO PUSH2 0x54D JUMPI DUP2 MLOAD PUSH2 0x534 DUP9 DUP3 PUSH2 0x4C1 JUMP JUMPDEST SWAP8 POP PUSH2 0x53F DUP4 PUSH2 0x6D6 JUMP JUMPDEST SWAP3 POP POP PUSH1 0x1 DUP2 ADD SWAP1 POP PUSH2 0x520 JUMP JUMPDEST POP DUP6 SWAP4 POP POP POP POP SWAP3 SWAP2 POP POP JUMP JUMPDEST PUSH1 0x0 PUSH2 0x565 DUP3 PUSH2 0x6C0 JUMP JUMPDEST PUSH2 0x56F DUP2 DUP6 PUSH2 0x701 JUMP JUMPDEST SWAP4 POP DUP4 PUSH1 0x20 DUP3 MUL DUP6 ADD PUSH2 0x581 DUP6 PUSH2 0x6A5 JUMP JUMPDEST DUP1 PUSH1 0x0 JUMPDEST DUP6 DUP2 LT ISZERO PUSH2 0x5BD JUMPI DUP5 DUP5 SUB DUP10 MSTORE DUP2 MLOAD PUSH2 0x59E DUP6 DUP3 PUSH2 0x4D9 JUMP JUMPDEST SWAP5 POP PUSH2 0x5A9 DUP4 PUSH2 0x6E3 JUMP JUMPDEST SWAP3 POP PUSH1 0x20 DUP11 ADD SWAP10 POP POP PUSH1 0x1 DUP2 ADD SWAP1 POP PUSH2 0x585 JUMP JUMPDEST POP DUP3 SWAP8 POP DUP8 SWAP6 POP POP POP POP POP POP SWAP3 SWAP2 POP POP JUMP JUMPDEST PUSH1 0x0 PUSH2 0x5DA DUP3 PUSH2 0x6CB JUMP JUMPDEST PUSH2 0x5E4 DUP2 DUP6 PUSH2 0x712 JUMP JUMPDEST SWAP4 POP PUSH2 0x5F4 DUP2 DUP6 PUSH1 0x20 DUP7 ADD PUSH2 0x76E JUMP JUMPDEST PUSH2 0x5FD DUP2 PUSH2 0x91D JUMP JUMPDEST DUP5 ADD SWAP2 POP POP SWAP3 SWAP2 POP POP JUMP JUMPDEST PUSH1 0x0 PUSH1 0x40 DUP3 ADD SWAP1 POP DUP2 DUP2 SUB PUSH1 0x0 DUP4 ADD MSTORE PUSH2 0x622 DUP2 DUP6 PUSH2 0x4FC JUMP JUMPDEST SWAP1 POP DUP2 DUP2 SUB PUSH1 0x20 DUP4 ADD MSTORE PUSH2 0x636 DUP2 DUP5 PUSH2 0x55A JUMP JUMPDEST SWAP1 POP SWAP4 SWAP3 POP POP POP JUMP JUMPDEST PUSH1 0x0 PUSH2 0x649 PUSH2 0x65A JUMP JUMPDEST SWAP1 POP PUSH2 0x655 DUP3 DUP3 PUSH2 0x7D3 JUMP JUMPDEST SWAP2 SWAP1 POP JUMP JUMPDEST PUSH1 0x0 PUSH1 0x40 MLOAD SWAP1 POP SWAP1 JUMP JUMPDEST PUSH1 0x0 PUSH8 0xFFFFFFFFFFFFFFFF DUP3 GT ISZERO PUSH2 0x67F JUMPI PUSH2 0x67E PUSH2 0x8DA JUMP JUMPDEST JUMPDEST PUSH2 0x688 DUP3 PUSH2 0x91D JUMP JUMPDEST SWAP1 POP PUSH1 0x20 DUP2 ADD SWAP1 POP SWAP2 SWAP1 POP JUMP JUMPDEST PUSH1 0x0 DUP2 SWAP1 POP PUSH1 0x20 DUP3 ADD SWAP1 POP SWAP2 SWAP1 POP JUMP JUMPDEST PUSH1 0x0 DUP2 SWAP1 POP PUSH1 0x20 DUP3 ADD SWAP1 POP SWAP2 SWAP1 POP JUMP JUMPDEST PUSH1 0x0 DUP2 MLOAD SWAP1 POP SWAP2 SWAP1 POP JUMP JUMPDEST PUSH1 0x0 DUP2 MLOAD SWAP1 POP SWAP2 SWAP1 POP JUMP JUMPDEST PUSH1 0x0 DUP2 MLOAD SWAP1 POP SWAP2 SWAP1 POP JUMP JUMPDEST PUSH1 0x0 PUSH1 0x20 DUP3 ADD SWAP1 POP SWAP2 SWAP1 POP JUMP JUMPDEST PUSH1 0x0 PUSH1 0x20 DUP3 ADD SWAP1 POP SWAP2 SWAP1 POP JUMP JUMPDEST PUSH1 0x0 DUP3 DUP3 MSTORE PUSH1 0x20 DUP3 ADD SWAP1 POP SWAP3 SWAP2 POP POP JUMP JUMPDEST PUSH1 0x0 DUP3 DUP3 MSTORE PUSH1 0x20 DUP3 ADD SWAP1 POP SWAP3 SWAP2 POP POP JUMP JUMPDEST PUSH1 0x0 DUP3 DUP3 MSTORE PUSH1 0x20 DUP3 ADD SWAP1 POP SWAP3 SWAP2 POP POP JUMP JUMPDEST PUSH1 0x0 PUSH2 0x72E DUP3 PUSH2 0x735 JUMP JUMPDEST SWAP1 POP SWAP2 SWAP1 POP JUMP JUMPDEST PUSH1 0x0 PUSH20 0xFFFFFFFFFFFFFFFFFFFFFFFFFFFFFFFFFFFFFFFF DUP3 AND SWAP1 POP SWAP2 SWAP1 POP JUMP JUMPDEST PUSH1 0x0 DUP2 SWAP1 POP SWAP2 SWAP1 POP JUMP JUMPDEST DUP3 DUP2 DUP4 CALLDATACOPY PUSH1 0x0 DUP4 DUP4 ADD MSTORE POP POP POP JUMP JUMPDEST PUSH1 0x0 JUMPDEST DUP4 DUP2 LT ISZERO PUSH2 0x78C JUMPI DUP1 DUP3 ADD MLOAD DUP2 DUP5 ADD MSTORE PUSH1 0x20 DUP2 ADD SWAP1 POP PUSH2 0x771 JUMP JUMPDEST DUP4 DUP2 GT ISZERO PUSH2 0x79B JUMPI PUSH1 0x0 DUP5 DUP5 ADD MSTORE JUMPDEST POP POP POP POP JUMP JUMPDEST PUSH1 0x0 PUSH1 0x2 DUP3 DIV SWAP1 POP PUSH1 0x1 DUP3 AND DUP1 PUSH2 0x7B9 JUMPI PUSH1 0x7F DUP3 AND SWAP2 POP JUMPDEST PUSH1 0x20 DUP3 LT DUP2 EQ ISZERO PUSH2 0x7CD JUMPI PUSH2 0x7CC PUSH2 0x87C JUMP JUMPDEST JUMPDEST POP SWAP2 SWAP1 POP JUMP JUMPDEST PUSH2 0x7DC DUP3 PUSH2 0x91D JUMP JUMPDEST DUP2 ADD DUP2 DUP2 LT PUSH8 0xFFFFFFFFFFFFFFFF DUP3 GT OR ISZERO PUSH2 0x7FB JUMPI PUSH2 0x7FA PUSH2 0x8DA JUMP JUMPDEST JUMPDEST DUP1 PUSH1 0x40 MSTORE POP POP POP JUMP JUMPDEST PUSH1 0x0 PUSH2 0x80F DUP3 PUSH2 0x755 JUMP JUMPDEST SWAP2 POP PUSH32 0xFFFFFFFFFFFFFFFFFFFFFFFFFFFFFFFFFFFFFFFFFFFFFFFFFFFFFFFFFFFFFFFF DUP3 EQ ISZERO PUSH2 0x842 JUMPI PUSH2 0x841 PUSH2 0x84D JUMP JUMPDEST JUMPDEST PUSH1 0x1 DUP3 ADD SWAP1 POP SWAP2 SWAP1 POP JUMP JUMPDEST PUSH32 0x4E487B7100000000000000000000000000000000000000000000000000000000 PUSH1 0x0 MSTORE PUSH1 0x11 PUSH1 0x4 MSTORE PUSH1 0x24 PUSH1 0x0 REVERT JUMPDEST PUSH32 0x4E487B7100000000000000000000000000000000000000000000000000000000 PUSH1 0x0 MSTORE PUSH1 0x22 PUSH1 0x4 MSTORE PUSH1 0x24 PUSH1 0x0 REVERT JUMPDEST PUSH32 0x4E487B7100000000000000000000000000000000000000000000000000000000 PUSH1 0x0 MSTORE PUSH1 0x32 PUSH1 0x4 MSTORE PUSH1 0x24 PUSH1 0x0 REVERT JUMPDEST PUSH32 0x4E487B7100000000000000000000000000000000000000000000000000000000 PUSH1 0x0 MSTORE PUSH1 0x41 PUSH1 0x4 MSTORE PUSH1 0x24 PUSH1 0x0 REVERT JUMPDEST PUSH1 0x0 DUP1 REVERT JUMPDEST PUSH1 0x0 DUP1 REVERT JUMPDEST PUSH1 0x0 DUP1 REVERT JUMPDEST PUSH1 0x0 DUP1 REVERT JUMPDEST PUSH1 0x0 PUSH1 0x1F NOT PUSH1 0x1F DUP4 ADD AND SWAP1 POP SWAP2 SWAP1 POP JUMP INVALID LOG2 PUSH5 0x6970667358 0x22 SLT KECCAK256 0x4E 0xA6 DUP12 PUSH22 0x43F242F77B8497D8A429F5C2F56B239BEC367C4861F8 BALANCE PUSH10 0xD868459664736F6C6343 STOP ADDMOD SMOD STOP CALLER "
				},
				"gasEstimates": {
					"creation": {
						"codeDepositCost": "480800",
						"executionCost": "518",
						"totalCost": "481318"
					},
					"external": {
						"push(string)": "infinite",
						"retrieve()": "infinite"
					}
				},
				"methodIdentifiers": {
					"push(string)": "4f3d057a",
					"retrieve()": "2e64cec1"
				}
			},
			"storageLayout": {
				"storage": [
					{
						"astId": 6,
						"contract": "contracts/1_Storage.sol:Storage",
						"label": "store",
						"offset": 0,
						"slot": "0",
						"type": "t_mapping(t_address,t_string_storage)"
					},
					{
						"astId": 9,
						"contract": "contracts/1_Storage.sol:Storage",
						"label": "addresses",
						"offset": 0,
						"slot": "1",
						"type": "t_array(t_address)dyn_storage"
					}
				],
				"types": {
					"t_address": {
						"encoding": "inplace",
						"label": "address",
						"numberOfBytes": "20"
					},
					"t_array(t_address)dyn_storage": {
						"base": "t_address",
						"encoding": "dynamic_array",
						"label": "address[]",
						"numberOfBytes": "32"
					},
					"t_mapping(t_address,t_string_storage)": {
						"encoding": "mapping",
						"key": "t_address",
						"label": "mapping(address => string)",
						"numberOfBytes": "32",
						"value": "t_string_storage"
					},
					"t_string_storage": {
						"encoding": "bytes",
						"label": "string",
						"numberOfBytes": "32"
					}
				}
			},
			"userdoc": {
				"kind": "user",
				"methods": {},
				"version": 1
			}
		}
	}
}