{
	"contracts/1_Storage.sol": {
		"Storage": {
			"abi": [
				{
					"inputs": [
						{
							"internalType": "uint256",
							"name": "",
							"type": "uint256"
						}
					],
					"name": "address_book",
					"outputs": [
						{
							"internalType": "address",
							"name": "addr",
							"type": "address"
						},
						{
							"internalType": "string",
							"name": "data",
							"type": "string"
						}
					],
					"stateMutability": "view",
					"type": "function"
				},
				{
					"inputs": [],
					"name": "get_all",
					"outputs": [
						{
							"components": [
								{
									"internalType": "address",
									"name": "addr",
									"type": "address"
								},
								{
									"internalType": "string",
									"name": "data",
									"type": "string"
								}
							],
							"internalType": "struct Storage.Address_book[]",
							"name": "",
							"type": "tuple[]"
						}
					],
					"stateMutability": "view",
					"type": "function"
				},
				{
					"inputs": [
						{
							"internalType": "address",
							"name": "",
							"type": "address"
						}
					],
					"name": "get_mine",
					"outputs": [
						{
							"internalType": "string[]",
							"name": "",
							"type": "string[]"
						}
					],
					"stateMutability": "view",
					"type": "function"
				},
				{
					"inputs": [],
					"name": "get_mine",
					"outputs": [
						{
							"internalType": "string[]",
							"name": "",
							"type": "string[]"
						}
					],
					"stateMutability": "view",
					"type": "function"
				},
				{
					"inputs": [
						{
							"internalType": "string",
							"name": "_text",
							"type": "string"
						}
					],
					"name": "push",
					"outputs": [],
					"stateMutability": "nonpayable",
					"type": "function"
				},
				{
					"inputs": [],
					"name": "suppress",
					"outputs": [
						{
							"components": [
								{
									"internalType": "address",
									"name": "addr",
									"type": "address"
								},
								{
									"internalType": "string",
									"name": "data",
									"type": "string"
								}
							],
							"internalType": "struct Storage.Address_book[]",
							"name": "",
							"type": "tuple[]"
						}
					],
					"stateMutability": "nonpayable",
					"type": "function"
				}
			],
			"devdoc": {
				"custom:dev-run-script": "./scripts/deploy_with_ethers.ts",
				"details": "Store & retrieve value in a variable",
				"kind": "dev",
				"methods": {},
				"title": "Storage",
				"version": 1
			},
			"evm": {
				"assembly": "    /* \"contracts/1_Storage.sol\":199:1797  contract Storage {... */\n  mstore(0x40, 0x80)\n  callvalue\n  dup1\n  iszero\n  tag_1\n  jumpi\n  0x00\n  dup1\n  revert\ntag_1:\n  pop\n  dataSize(sub_0)\n  dup1\n  dataOffset(sub_0)\n  0x00\n  codecopy\n  0x00\n  return\nstop\n\nsub_0: assembly {\n        /* \"contracts/1_Storage.sol\":199:1797  contract Storage {... */\n      mstore(0x40, 0x80)\n      callvalue\n      dup1\n      iszero\n      tag_1\n      jumpi\n      0x00\n      dup1\n      revert\n    tag_1:\n      pop\n      jumpi(tag_2, lt(calldatasize, 0x04))\n      shr(0xe0, calldataload(0x00))\n      dup1\n      0x18f97575\n      eq\n      tag_3\n      jumpi\n      dup1\n      0x4f3d057a\n      eq\n      tag_4\n      jumpi\n      dup1\n      0x5ca08377\n      eq\n      tag_5\n      jumpi\n      dup1\n      0x880a3c86\n      eq\n      tag_6\n      jumpi\n      dup1\n      0xb1429303\n      eq\n      tag_7\n      jumpi\n      dup1\n      0xd7f40d7b\n      eq\n      tag_8\n      jumpi\n    tag_2:\n      0x00\n      dup1\n      revert\n        /* \"contracts/1_Storage.sol\":532:807  function suppress() external returns(Address_book[] memory)... */\n    tag_3:\n      tag_9\n      tag_10\n      jump\t// in\n    tag_9:\n      mload(0x40)\n      tag_11\n      swap2\n      swap1\n      tag_12\n      jump\t// in\n    tag_11:\n      mload(0x40)\n      dup1\n      swap2\n      sub\n      swap1\n      return\n        /* \"contracts/1_Storage.sol\":345:526  function push(string memory _text) external {... */\n    tag_4:\n      tag_13\n      0x04\n      dup1\n      calldatasize\n      sub\n      dup2\n      add\n      swap1\n      tag_14\n      swap2\n      swap1\n      tag_15\n      jump\t// in\n    tag_14:\n      tag_16\n      jump\t// in\n    tag_13:\n      stop\n        /* \"contracts/1_Storage.sol\":1359:1795  function get_mine(address ) public view returns(string[] memory)... */\n    tag_5:\n      tag_17\n      0x04\n      dup1\n      calldatasize\n      sub\n      dup2\n      add\n      swap1\n      tag_18\n      swap2\n      swap1\n      tag_19\n      jump\t// in\n    tag_18:\n      tag_20\n      jump\t// in\n    tag_17:\n      mload(0x40)\n      tag_21\n      swap2\n      swap1\n      tag_22\n      jump\t// in\n    tag_21:\n      mload(0x40)\n      dup1\n      swap2\n      sub\n      swap1\n      return\n        /* \"contracts/1_Storage.sol\":813:918  function get_all() external view returns(Address_book[] memory)... */\n    tag_6:\n      tag_23\n      tag_24\n      jump\t// in\n    tag_23:\n      mload(0x40)\n      tag_25\n      swap2\n      swap1\n      tag_12\n      jump\t// in\n    tag_25:\n      mload(0x40)\n      dup1\n      swap2\n      sub\n      swap1\n      return\n        /* \"contracts/1_Storage.sol\":303:337  Address_book[] public address_book */\n    tag_7:\n      tag_26\n      0x04\n      dup1\n      calldatasize\n      sub\n      dup2\n      add\n      swap1\n      tag_27\n      swap2\n      swap1\n      tag_28\n      jump\t// in\n    tag_27:\n      tag_29\n      jump\t// in\n    tag_26:\n      mload(0x40)\n      tag_30\n      swap3\n      swap2\n      swap1\n      tag_31\n      jump\t// in\n    tag_30:\n      mload(0x40)\n      dup1\n      swap2\n      sub\n      swap1\n      return\n        /* \"contracts/1_Storage.sol\":924:1352  function get_mine() public view returns(string[] memory)... */\n    tag_8:\n      tag_32\n      tag_33\n      jump\t// in\n    tag_32:\n      mload(0x40)\n      tag_34\n      swap2\n      swap1\n      tag_22\n      jump\t// in\n    tag_34:\n      mload(0x40)\n      dup1\n      swap2\n      sub\n      swap1\n      return\n        /* \"contracts/1_Storage.sol\":532:807  function suppress() external returns(Address_book[] memory)... */\n    tag_10:\n        /* \"contracts/1_Storage.sol\":569:590  Address_book[] memory */\n      0x60\n        /* \"contracts/1_Storage.sol\":619:625  uint i */\n      0x00\n        /* \"contracts/1_Storage.sol\":615:771  for(uint i = 0; i < address_book.length; i++)... */\n    tag_36:\n        /* \"contracts/1_Storage.sol\":635:647  address_book */\n      0x00\n        /* \"contracts/1_Storage.sol\":635:654  address_book.length */\n      dup1\n      sload\n      swap1\n      pop\n        /* \"contracts/1_Storage.sol\":631:632  i */\n      dup2\n        /* \"contracts/1_Storage.sol\":631:654  i < address_book.length */\n      lt\n        /* \"contracts/1_Storage.sol\":615:771  for(uint i = 0; i < address_book.length; i++)... */\n      iszero\n      tag_37\n      jumpi\n        /* \"contracts/1_Storage.sol\":710:720  msg.sender */\n      caller\n        /* \"contracts/1_Storage.sol\":686:720  address_book[i].addr == msg.sender */\n      0xffffffffffffffffffffffffffffffffffffffff\n      and\n        /* \"contracts/1_Storage.sol\":686:698  address_book */\n      0x00\n        /* \"contracts/1_Storage.sol\":699:700  i */\n      dup3\n        /* \"contracts/1_Storage.sol\":686:701  address_book[i] */\n      dup2\n      sload\n      dup2\n      lt\n      tag_39\n      jumpi\n      tag_40\n      tag_41\n      jump\t// in\n    tag_40:\n    tag_39:\n      swap1\n      0x00\n      mstore\n      keccak256(0x00, 0x20)\n      swap1\n      0x02\n      mul\n      add\n        /* \"contracts/1_Storage.sol\":686:706  address_book[i].addr */\n      0x00\n      add\n      0x00\n      swap1\n      sload\n      swap1\n      0x0100\n      exp\n      swap1\n      div\n      0xffffffffffffffffffffffffffffffffffffffff\n      and\n        /* \"contracts/1_Storage.sol\":686:720  address_book[i].addr == msg.sender */\n      0xffffffffffffffffffffffffffffffffffffffff\n      and\n      eq\n        /* \"contracts/1_Storage.sol\":683:760  if(address_book[i].addr == msg.sender)... */\n      iszero\n      tag_43\n      jumpi\n        /* \"contracts/1_Storage.sol\":745:757  address_book */\n      0x00\n        /* \"contracts/1_Storage.sol\":758:759  i */\n      dup2\n        /* \"contracts/1_Storage.sol\":745:760  address_book[i] */\n      dup2\n      sload\n      dup2\n      lt\n      tag_44\n      jumpi\n      tag_45\n      tag_41\n      jump\t// in\n    tag_45:\n    tag_44:\n      swap1\n      0x00\n      mstore\n      keccak256(0x00, 0x20)\n      swap1\n      0x02\n      mul\n      add\n      0x00\n        /* \"contracts/1_Storage.sol\":738:760  delete address_book[i] */\n      dup1\n      dup3\n      add\n      exp(0x0100, 0x00)\n      dup2\n      sload\n      swap1\n      0xffffffffffffffffffffffffffffffffffffffff\n      mul\n      not\n      and\n      swap1\n      sstore\n      0x01\n      dup3\n      add\n      0x00\n      tag_47\n      swap2\n      swap1\n      tag_48\n      jump\t// in\n    tag_47:\n      pop\n      pop\n        /* \"contracts/1_Storage.sol\":683:760  if(address_book[i].addr == msg.sender)... */\n    tag_43:\n        /* \"contracts/1_Storage.sol\":656:659  i++ */\n      dup1\n      dup1\n      tag_49\n      swap1\n      tag_50\n      jump\t// in\n    tag_49:\n      swap2\n      pop\n      pop\n        /* \"contracts/1_Storage.sol\":615:771  for(uint i = 0; i < address_book.length; i++)... */\n      jump(tag_36)\n    tag_37:\n      pop\n        /* \"contracts/1_Storage.sol\":787:799  address_book */\n      0x00\n        /* \"contracts/1_Storage.sol\":780:800  return(address_book) */\n      dup1\n      sload\n      dup1\n      0x20\n      mul\n      0x20\n      add\n      mload(0x40)\n      swap1\n      dup2\n      add\n      0x40\n      mstore\n      dup1\n      swap3\n      swap2\n      swap1\n      dup2\n      dup2\n      mstore\n      0x20\n      add\n      0x00\n      swap1\n    tag_51:\n      dup3\n      dup3\n      lt\n      iszero\n      tag_52\n      jumpi\n      dup4\n      dup3\n      swap1\n      0x00\n      mstore\n      keccak256(0x00, 0x20)\n      swap1\n      0x02\n      mul\n      add\n      mload(0x40)\n      dup1\n      0x40\n      add\n      0x40\n      mstore\n      swap1\n      dup2\n      0x00\n      dup3\n      add\n      0x00\n      swap1\n      sload\n      swap1\n      0x0100\n      exp\n      swap1\n      div\n      0xffffffffffffffffffffffffffffffffffffffff\n      and\n      0xffffffffffffffffffffffffffffffffffffffff\n      and\n      0xffffffffffffffffffffffffffffffffffffffff\n      and\n      dup2\n      mstore\n      0x20\n      add\n      0x01\n      dup3\n      add\n      dup1\n      sload\n      tag_54\n      swap1\n      tag_55\n      jump\t// in\n    tag_54:\n      dup1\n      0x1f\n      add\n      0x20\n      dup1\n      swap2\n      div\n      mul\n      0x20\n      add\n      mload(0x40)\n      swap1\n      dup2\n      add\n      0x40\n      mstore\n      dup1\n      swap3\n      swap2\n      swap1\n      dup2\n      dup2\n      mstore\n      0x20\n      add\n      dup3\n      dup1\n      sload\n      tag_56\n      swap1\n      tag_55\n      jump\t// in\n    tag_56:\n      dup1\n      iszero\n      tag_57\n      jumpi\n      dup1\n      0x1f\n      lt\n      tag_58\n      jumpi\n      0x0100\n      dup1\n      dup4\n      sload\n      div\n      mul\n      dup4\n      mstore\n      swap2\n      0x20\n      add\n      swap2\n      jump(tag_57)\n    tag_58:\n      dup3\n      add\n      swap2\n      swap1\n      0x00\n      mstore\n      keccak256(0x00, 0x20)\n      swap1\n    tag_59:\n      dup2\n      sload\n      dup2\n      mstore\n      swap1\n      0x01\n      add\n      swap1\n      0x20\n      add\n      dup1\n      dup4\n      gt\n      tag_59\n      jumpi\n      dup3\n      swap1\n      sub\n      0x1f\n      and\n      dup3\n      add\n      swap2\n    tag_57:\n      pop\n      pop\n      pop\n      pop\n      pop\n      dup2\n      mstore\n      pop\n      pop\n      dup2\n      mstore\n      0x20\n      add\n      swap1\n      0x01\n      add\n      swap1\n      jump(tag_51)\n    tag_52:\n      pop\n      pop\n      pop\n      pop\n      swap1\n      pop\n        /* \"contracts/1_Storage.sol\":532:807  function suppress() external returns(Address_book[] memory)... */\n      swap1\n      jump\t// out\n        /* \"contracts/1_Storage.sol\":345:526  function push(string memory _text) external {... */\n    tag_16:\n        /* \"contracts/1_Storage.sol\":399:424  Address_book memory entry */\n      tag_61\n      tag_62\n      jump\t// in\n    tag_61:\n        /* \"contracts/1_Storage.sol\":447:457  msg.sender */\n      caller\n        /* \"contracts/1_Storage.sol\":434:439  entry */\n      dup2\n        /* \"contracts/1_Storage.sol\":434:444  entry.addr */\n      0x00\n      add\n        /* \"contracts/1_Storage.sol\":434:457  entry.addr = msg.sender */\n      swap1\n      0xffffffffffffffffffffffffffffffffffffffff\n      and\n      swap1\n      dup2\n      0xffffffffffffffffffffffffffffffffffffffff\n      and\n      dup2\n      mstore\n      pop\n      pop\n        /* \"contracts/1_Storage.sol\":480:485  _text */\n      dup2\n        /* \"contracts/1_Storage.sol\":467:472  entry */\n      dup2\n        /* \"contracts/1_Storage.sol\":467:477  entry.data */\n      0x20\n      add\n        /* \"contracts/1_Storage.sol\":467:485  entry.data = _text */\n      dup2\n      swap1\n      mstore\n      pop\n        /* \"contracts/1_Storage.sol\":495:507  address_book */\n      0x00\n        /* \"contracts/1_Storage.sol\":513:518  entry */\n      dup2\n        /* \"contracts/1_Storage.sol\":495:519  address_book.push(entry) */\n      swap1\n      dup1\n      0x01\n      dup2\n      sload\n      add\n      dup1\n      dup3\n      sstore\n      dup1\n      swap2\n      pop\n      pop\n      0x01\n      swap1\n      sub\n      swap1\n      0x00\n      mstore\n      keccak256(0x00, 0x20)\n      swap1\n      0x02\n      mul\n      add\n      0x00\n      swap1\n      swap2\n      swap1\n      swap2\n      swap1\n      swap2\n      pop\n      0x00\n      dup3\n      add\n      mload\n      dup2\n      0x00\n      add\n      exp(0x0100, 0x00)\n      dup2\n      sload\n      dup2\n      0xffffffffffffffffffffffffffffffffffffffff\n      mul\n      not\n      and\n      swap1\n      dup4\n      0xffffffffffffffffffffffffffffffffffffffff\n      and\n      mul\n      or\n      swap1\n      sstore\n      pop\n      0x20\n      dup3\n      add\n      mload\n      dup2\n      0x01\n      add\n      swap1\n      dup1\n      mload\n      swap1\n      0x20\n      add\n      swap1\n      tag_64\n      swap3\n      swap2\n      swap1\n      tag_65\n      jump\t// in\n    tag_64:\n      pop\n      pop\n      pop\n        /* \"contracts/1_Storage.sol\":389:526  {... */\n      pop\n        /* \"contracts/1_Storage.sol\":345:526  function push(string memory _text) external {... */\n      pop\n      jump\t// out\n        /* \"contracts/1_Storage.sol\":1359:1795  function get_mine(address ) public view returns(string[] memory)... */\n    tag_20:\n        /* \"contracts/1_Storage.sol\":1407:1422  string[] memory */\n      0x60\n        /* \"contracts/1_Storage.sol\":1438:1466  string[] memory address_data */\n      0x00\n        /* \"contracts/1_Storage.sol\":1483:1495  address_book */\n      dup1\n        /* \"contracts/1_Storage.sol\":1483:1502  address_book.length */\n      dup1\n      sload\n      swap1\n      pop\n        /* \"contracts/1_Storage.sol\":1470:1503  new string[](address_book.length) */\n      0xffffffffffffffff\n      dup2\n      gt\n      iszero\n      tag_67\n      jumpi\n      tag_68\n      tag_69\n      jump\t// in\n    tag_68:\n    tag_67:\n      mload(0x40)\n      swap1\n      dup1\n      dup3\n      mstore\n      dup1\n      0x20\n      mul\n      0x20\n      add\n      dup3\n      add\n      0x40\n      mstore\n      dup1\n      iszero\n      tag_70\n      jumpi\n      dup2\n      0x20\n      add\n    tag_71:\n      0x60\n      dup2\n      mstore\n      0x20\n      add\n      swap1\n      0x01\n      swap1\n      sub\n      swap1\n      dup2\n      tag_71\n      jumpi\n      swap1\n      pop\n    tag_70:\n      pop\n        /* \"contracts/1_Storage.sol\":1438:1503  string[] memory address_data =  new string[](address_book.length) */\n      swap1\n      pop\n        /* \"contracts/1_Storage.sol\":1513:1519  uint j */\n      0x00\n        /* \"contracts/1_Storage.sol\":1542:1548  uint i */\n      dup1\n        /* \"contracts/1_Storage.sol\":1538:1759  for(uint i = 0; i < address_book.length; i++)... */\n    tag_72:\n        /* \"contracts/1_Storage.sol\":1558:1570  address_book */\n      0x00\n        /* \"contracts/1_Storage.sol\":1558:1577  address_book.length */\n      dup1\n      sload\n      swap1\n      pop\n        /* \"contracts/1_Storage.sol\":1554:1555  i */\n      dup2\n        /* \"contracts/1_Storage.sol\":1554:1577  i < address_book.length */\n      lt\n        /* \"contracts/1_Storage.sol\":1538:1759  for(uint i = 0; i < address_book.length; i++)... */\n      iszero\n      tag_73\n      jumpi\n        /* \"contracts/1_Storage.sol\":1633:1643  msg.sender */\n      caller\n        /* \"contracts/1_Storage.sol\":1609:1643  address_book[i].addr == msg.sender */\n      0xffffffffffffffffffffffffffffffffffffffff\n      and\n        /* \"contracts/1_Storage.sol\":1609:1621  address_book */\n      0x00\n        /* \"contracts/1_Storage.sol\":1622:1623  i */\n      dup3\n        /* \"contracts/1_Storage.sol\":1609:1624  address_book[i] */\n      dup2\n      sload\n      dup2\n      lt\n      tag_75\n      jumpi\n      tag_76\n      tag_41\n      jump\t// in\n    tag_76:\n    tag_75:\n      swap1\n      0x00\n      mstore\n      keccak256(0x00, 0x20)\n      swap1\n      0x02\n      mul\n      add\n        /* \"contracts/1_Storage.sol\":1609:1629  address_book[i].addr */\n      0x00\n      add\n      0x00\n      swap1\n      sload\n      swap1\n      0x0100\n      exp\n      swap1\n      div\n      0xffffffffffffffffffffffffffffffffffffffff\n      and\n        /* \"contracts/1_Storage.sol\":1609:1643  address_book[i].addr == msg.sender */\n      0xffffffffffffffffffffffffffffffffffffffff\n      and\n      eq\n        /* \"contracts/1_Storage.sol\":1606:1749  if(address_book[i].addr == msg.sender)... */\n      iszero\n      tag_78\n      jumpi\n        /* \"contracts/1_Storage.sol\":1693:1705  address_book */\n      0x00\n        /* \"contracts/1_Storage.sol\":1706:1707  i */\n      dup2\n        /* \"contracts/1_Storage.sol\":1693:1708  address_book[i] */\n      dup2\n      sload\n      dup2\n      lt\n      tag_79\n      jumpi\n      tag_80\n      tag_41\n      jump\t// in\n    tag_80:\n    tag_79:\n      swap1\n      0x00\n      mstore\n      keccak256(0x00, 0x20)\n      swap1\n      0x02\n      mul\n      add\n        /* \"contracts/1_Storage.sol\":1693:1713  address_book[i].data */\n      0x01\n      add\n        /* \"contracts/1_Storage.sol\":1675:1713  address_data[j] = address_book[i].data */\n      dup1\n      sload\n      tag_82\n      swap1\n      tag_55\n      jump\t// in\n    tag_82:\n      dup1\n      0x1f\n      add\n      0x20\n      dup1\n      swap2\n      div\n      mul\n      0x20\n      add\n      mload(0x40)\n      swap1\n      dup2\n      add\n      0x40\n      mstore\n      dup1\n      swap3\n      swap2\n      swap1\n      dup2\n      dup2\n      mstore\n      0x20\n      add\n      dup3\n      dup1\n      sload\n      tag_83\n      swap1\n      tag_55\n      jump\t// in\n    tag_83:\n      dup1\n      iszero\n      tag_84\n      jumpi\n      dup1\n      0x1f\n      lt\n      tag_85\n      jumpi\n      0x0100\n      dup1\n      dup4\n      sload\n      div\n      mul\n      dup4\n      mstore\n      swap2\n      0x20\n      add\n      swap2\n      jump(tag_84)\n    tag_85:\n      dup3\n      add\n      swap2\n      swap1\n      0x00\n      mstore\n      keccak256(0x00, 0x20)\n      swap1\n    tag_86:\n      dup2\n      sload\n      dup2\n      mstore\n      swap1\n      0x01\n      add\n      swap1\n      0x20\n      add\n      dup1\n      dup4\n      gt\n      tag_86\n      jumpi\n      dup3\n      swap1\n      sub\n      0x1f\n      and\n      dup3\n      add\n      swap2\n    tag_84:\n      pop\n      pop\n      pop\n      pop\n      pop\n        /* \"contracts/1_Storage.sol\":1675:1687  address_data */\n      dup4\n        /* \"contracts/1_Storage.sol\":1688:1689  j */\n      dup4\n        /* \"contracts/1_Storage.sol\":1675:1690  address_data[j] */\n      dup2\n      mload\n      dup2\n      lt\n      tag_87\n      jumpi\n      tag_88\n      tag_41\n      jump\t// in\n    tag_88:\n    tag_87:\n      0x20\n      mul\n      0x20\n      add\n      add\n        /* \"contracts/1_Storage.sol\":1675:1713  address_data[j] = address_book[i].data */\n      dup2\n      swap1\n      mstore\n      pop\n        /* \"contracts/1_Storage.sol\":1731:1734  j++ */\n      dup2\n      dup1\n      tag_89\n      swap1\n      tag_50\n      jump\t// in\n    tag_89:\n      swap3\n      pop\n      pop\n        /* \"contracts/1_Storage.sol\":1606:1749  if(address_book[i].addr == msg.sender)... */\n    tag_78:\n        /* \"contracts/1_Storage.sol\":1579:1582  i++ */\n      dup1\n      dup1\n      tag_90\n      swap1\n      tag_50\n      jump\t// in\n    tag_90:\n      swap2\n      pop\n      pop\n        /* \"contracts/1_Storage.sol\":1538:1759  for(uint i = 0; i < address_book.length; i++)... */\n      jump(tag_72)\n    tag_73:\n      pop\n        /* \"contracts/1_Storage.sol\":1775:1787  address_data */\n      dup2\n        /* \"contracts/1_Storage.sol\":1768:1788  return(address_data) */\n      swap3\n      pop\n      pop\n      pop\n        /* \"contracts/1_Storage.sol\":1359:1795  function get_mine(address ) public view returns(string[] memory)... */\n      swap2\n      swap1\n      pop\n      jump\t// out\n        /* \"contracts/1_Storage.sol\":813:918  function get_all() external view returns(Address_book[] memory)... */\n    tag_24:\n        /* \"contracts/1_Storage.sol\":854:875  Address_book[] memory */\n      0x60\n        /* \"contracts/1_Storage.sol\":898:910  address_book */\n      0x00\n        /* \"contracts/1_Storage.sol\":891:911  return(address_book) */\n      dup1\n      sload\n      dup1\n      0x20\n      mul\n      0x20\n      add\n      mload(0x40)\n      swap1\n      dup2\n      add\n      0x40\n      mstore\n      dup1\n      swap3\n      swap2\n      swap1\n      dup2\n      dup2\n      mstore\n      0x20\n      add\n      0x00\n      swap1\n    tag_92:\n      dup3\n      dup3\n      lt\n      iszero\n      tag_93\n      jumpi\n      dup4\n      dup3\n      swap1\n      0x00\n      mstore\n      keccak256(0x00, 0x20)\n      swap1\n      0x02\n      mul\n      add\n      mload(0x40)\n      dup1\n      0x40\n      add\n      0x40\n      mstore\n      swap1\n      dup2\n      0x00\n      dup3\n      add\n      0x00\n      swap1\n      sload\n      swap1\n      0x0100\n      exp\n      swap1\n      div\n      0xffffffffffffffffffffffffffffffffffffffff\n      and\n      0xffffffffffffffffffffffffffffffffffffffff\n      and\n      0xffffffffffffffffffffffffffffffffffffffff\n      and\n      dup2\n      mstore\n      0x20\n      add\n      0x01\n      dup3\n      add\n      dup1\n      sload\n      tag_95\n      swap1\n      tag_55\n      jump\t// in\n    tag_95:\n      dup1\n      0x1f\n      add\n      0x20\n      dup1\n      swap2\n      div\n      mul\n      0x20\n      add\n      mload(0x40)\n      swap1\n      dup2\n      add\n      0x40\n      mstore\n      dup1\n      swap3\n      swap2\n      swap1\n      dup2\n      dup2\n      mstore\n      0x20\n      add\n      dup3\n      dup1\n      sload\n      tag_96\n      swap1\n      tag_55\n      jump\t// in\n    tag_96:\n      dup1\n      iszero\n      tag_97\n      jumpi\n      dup1\n      0x1f\n      lt\n      tag_98\n      jumpi\n      0x0100\n      dup1\n      dup4\n      sload\n      div\n      mul\n      dup4\n      mstore\n      swap2\n      0x20\n      add\n      swap2\n      jump(tag_97)\n    tag_98:\n      dup3\n      add\n      swap2\n      swap1\n      0x00\n      mstore\n      keccak256(0x00, 0x20)\n      swap1\n    tag_99:\n      dup2\n      sload\n      dup2\n      mstore\n      swap1\n      0x01\n      add\n      swap1\n      0x20\n      add\n      dup1\n      dup4\n      gt\n      tag_99\n      jumpi\n      dup3\n      swap1\n      sub\n      0x1f\n      and\n      dup3\n      add\n      swap2\n    tag_97:\n      pop\n      pop\n      pop\n      pop\n      pop\n      dup2\n      mstore\n      pop\n      pop\n      dup2\n      mstore\n      0x20\n      add\n      swap1\n      0x01\n      add\n      swap1\n      jump(tag_92)\n    tag_93:\n      pop\n      pop\n      pop\n      pop\n      swap1\n      pop\n        /* \"contracts/1_Storage.sol\":813:918  function get_all() external view returns(Address_book[] memory)... */\n      swap1\n      jump\t// out\n        /* \"contracts/1_Storage.sol\":303:337  Address_book[] public address_book */\n    tag_29:\n      0x00\n      dup2\n      dup2\n      sload\n      dup2\n      lt\n      tag_100\n      jumpi\n      0x00\n      dup1\n      revert\n    tag_100:\n      swap1\n      0x00\n      mstore\n      keccak256(0x00, 0x20)\n      swap1\n      0x02\n      mul\n      add\n      0x00\n      swap2\n      pop\n      swap1\n      pop\n      dup1\n      0x00\n      add\n      0x00\n      swap1\n      sload\n      swap1\n      0x0100\n      exp\n      swap1\n      div\n      0xffffffffffffffffffffffffffffffffffffffff\n      and\n      swap1\n      dup1\n      0x01\n      add\n      dup1\n      sload\n      tag_102\n      swap1\n      tag_55\n      jump\t// in\n    tag_102:\n      dup1\n      0x1f\n      add\n      0x20\n      dup1\n      swap2\n      div\n      mul\n      0x20\n      add\n      mload(0x40)\n      swap1\n      dup2\n      add\n      0x40\n      mstore\n      dup1\n      swap3\n      swap2\n      swap1\n      dup2\n      dup2\n      mstore\n      0x20\n      add\n      dup3\n      dup1\n      sload\n      tag_103\n      swap1\n      tag_55\n      jump\t// in\n    tag_103:\n      dup1\n      iszero\n      tag_104\n      jumpi\n      dup1\n      0x1f\n      lt\n      tag_105\n      jumpi\n      0x0100\n      dup1\n      dup4\n      sload\n      div\n      mul\n      dup4\n      mstore\n      swap2\n      0x20\n      add\n      swap2\n      jump(tag_104)\n    tag_105:\n      dup3\n      add\n      swap2\n      swap1\n      0x00\n      mstore\n      keccak256(0x00, 0x20)\n      swap1\n    tag_106:\n      dup2\n      sload\n      dup2\n      mstore\n      swap1\n      0x01\n      add\n      swap1\n      0x20\n      add\n      dup1\n      dup4\n      gt\n      tag_106\n      jumpi\n      dup3\n      swap1\n      sub\n      0x1f\n      and\n      dup3\n      add\n      swap2\n    tag_104:\n      pop\n      pop\n      pop\n      pop\n      pop\n      swap1\n      pop\n      dup3\n      jump\t// out\n        /* \"contracts/1_Storage.sol\":924:1352  function get_mine() public view returns(string[] memory)... */\n    tag_33:\n        /* \"contracts/1_Storage.sol\":964:979  string[] memory */\n      0x60\n        /* \"contracts/1_Storage.sol\":995:1023  string[] memory address_data */\n      0x00\n        /* \"contracts/1_Storage.sol\":1040:1052  address_book */\n      dup1\n        /* \"contracts/1_Storage.sol\":1040:1059  address_book.length */\n      dup1\n      sload\n      swap1\n      pop\n        /* \"contracts/1_Storage.sol\":1027:1060  new string[](address_book.length) */\n      0xffffffffffffffff\n      dup2\n      gt\n      iszero\n      tag_108\n      jumpi\n      tag_109\n      tag_69\n      jump\t// in\n    tag_109:\n    tag_108:\n      mload(0x40)\n      swap1\n      dup1\n      dup3\n      mstore\n      dup1\n      0x20\n      mul\n      0x20\n      add\n      dup3\n      add\n      0x40\n      mstore\n      dup1\n      iszero\n      tag_110\n      jumpi\n      dup2\n      0x20\n      add\n    tag_111:\n      0x60\n      dup2\n      mstore\n      0x20\n      add\n      swap1\n      0x01\n      swap1\n      sub\n      swap1\n      dup2\n      tag_111\n      jumpi\n      swap1\n      pop\n    tag_110:\n      pop\n        /* \"contracts/1_Storage.sol\":995:1060  string[] memory address_data =  new string[](address_book.length) */\n      swap1\n      pop\n        /* \"contracts/1_Storage.sol\":1070:1076  uint j */\n      0x00\n        /* \"contracts/1_Storage.sol\":1099:1105  uint i */\n      dup1\n        /* \"contracts/1_Storage.sol\":1095:1316  for(uint i = 0; i < address_book.length; i++)... */\n    tag_112:\n        /* \"contracts/1_Storage.sol\":1115:1127  address_book */\n      0x00\n        /* \"contracts/1_Storage.sol\":1115:1134  address_book.length */\n      dup1\n      sload\n      swap1\n      pop\n        /* \"contracts/1_Storage.sol\":1111:1112  i */\n      dup2\n        /* \"contracts/1_Storage.sol\":1111:1134  i < address_book.length */\n      lt\n        /* \"contracts/1_Storage.sol\":1095:1316  for(uint i = 0; i < address_book.length; i++)... */\n      iszero\n      tag_113\n      jumpi\n        /* \"contracts/1_Storage.sol\":1190:1200  msg.sender */\n      caller\n        /* \"contracts/1_Storage.sol\":1166:1200  address_book[i].addr == msg.sender */\n      0xffffffffffffffffffffffffffffffffffffffff\n      and\n        /* \"contracts/1_Storage.sol\":1166:1178  address_book */\n      0x00\n        /* \"contracts/1_Storage.sol\":1179:1180  i */\n      dup3\n        /* \"contracts/1_Storage.sol\":1166:1181  address_book[i] */\n      dup2\n      sload\n      dup2\n      lt\n      tag_115\n      jumpi\n      tag_116\n      tag_41\n      jump\t// in\n    tag_116:\n    tag_115:\n      swap1\n      0x00\n      mstore\n      keccak256(0x00, 0x20)\n      swap1\n      0x02\n      mul\n      add\n        /* \"contracts/1_Storage.sol\":1166:1186  address_book[i].addr */\n      0x00\n      add\n      0x00\n      swap1\n      sload\n      swap1\n      0x0100\n      exp\n      swap1\n      div\n      0xffffffffffffffffffffffffffffffffffffffff\n      and\n        /* \"contracts/1_Storage.sol\":1166:1200  address_book[i].addr == msg.sender */\n      0xffffffffffffffffffffffffffffffffffffffff\n      and\n      eq\n        /* \"contracts/1_Storage.sol\":1163:1306  if(address_book[i].addr == msg.sender)... */\n      iszero\n      tag_118\n      jumpi\n        /* \"contracts/1_Storage.sol\":1250:1262  address_book */\n      0x00\n        /* \"contracts/1_Storage.sol\":1263:1264  i */\n      dup2\n        /* \"contracts/1_Storage.sol\":1250:1265  address_book[i] */\n      dup2\n      sload\n      dup2\n      lt\n      tag_119\n      jumpi\n      tag_120\n      tag_41\n      jump\t// in\n    tag_120:\n    tag_119:\n      swap1\n      0x00\n      mstore\n      keccak256(0x00, 0x20)\n      swap1\n      0x02\n      mul\n      add\n        /* \"contracts/1_Storage.sol\":1250:1270  address_book[i].data */\n      0x01\n      add\n        /* \"contracts/1_Storage.sol\":1232:1270  address_data[j] = address_book[i].data */\n      dup1\n      sload\n      tag_122\n      swap1\n      tag_55\n      jump\t// in\n    tag_122:\n      dup1\n      0x1f\n      add\n      0x20\n      dup1\n      swap2\n      div\n      mul\n      0x20\n      add\n      mload(0x40)\n      swap1\n      dup2\n      add\n      0x40\n      mstore\n      dup1\n      swap3\n      swap2\n      swap1\n      dup2\n      dup2\n      mstore\n      0x20\n      add\n      dup3\n      dup1\n      sload\n      tag_123\n      swap1\n      tag_55\n      jump\t// in\n    tag_123:\n      dup1\n      iszero\n      tag_124\n      jumpi\n      dup1\n      0x1f\n      lt\n      tag_125\n      jumpi\n      0x0100\n      dup1\n      dup4\n      sload\n      div\n      mul\n      dup4\n      mstore\n      swap2\n      0x20\n      add\n      swap2\n      jump(tag_124)\n    tag_125:\n      dup3\n      add\n      swap2\n      swap1\n      0x00\n      mstore\n      keccak256(0x00, 0x20)\n      swap1\n    tag_126:\n      dup2\n      sload\n      dup2\n      mstore\n      swap1\n      0x01\n      add\n      swap1\n      0x20\n      add\n      dup1\n      dup4\n      gt\n      tag_126\n      jumpi\n      dup3\n      swap1\n      sub\n      0x1f\n      and\n      dup3\n      add\n      swap2\n    tag_124:\n      pop\n      pop\n      pop\n      pop\n      pop\n        /* \"contracts/1_Storage.sol\":1232:1244  address_data */\n      dup4\n        /* \"contracts/1_Storage.sol\":1245:1246  j */\n      dup4\n        /* \"contracts/1_Storage.sol\":1232:1247  address_data[j] */\n      dup2\n      mload\n      dup2\n      lt\n      tag_127\n      jumpi\n      tag_128\n      tag_41\n      jump\t// in\n    tag_128:\n    tag_127:\n      0x20\n      mul\n      0x20\n      add\n      add\n        /* \"contracts/1_Storage.sol\":1232:1270  address_data[j] = address_book[i].data */\n      dup2\n      swap1\n      mstore\n      pop\n        /* \"contracts/1_Storage.sol\":1288:1291  j++ */\n      dup2\n      dup1\n      tag_129\n      swap1\n      tag_50\n      jump\t// in\n    tag_129:\n      swap3\n      pop\n      pop\n        /* \"contracts/1_Storage.sol\":1163:1306  if(address_book[i].addr == msg.sender)... */\n    tag_118:\n        /* \"contracts/1_Storage.sol\":1136:1139  i++ */\n      dup1\n      dup1\n      tag_130\n      swap1\n      tag_50\n      jump\t// in\n    tag_130:\n      swap2\n      pop\n      pop\n        /* \"contracts/1_Storage.sol\":1095:1316  for(uint i = 0; i < address_book.length; i++)... */\n      jump(tag_112)\n    tag_113:\n      pop\n        /* \"contracts/1_Storage.sol\":1332:1344  address_data */\n      dup2\n        /* \"contracts/1_Storage.sol\":1325:1345  return(address_data) */\n      swap3\n      pop\n      pop\n      pop\n        /* \"contracts/1_Storage.sol\":924:1352  function get_mine() public view returns(string[] memory)... */\n      swap1\n      jump\t// out\n    tag_48:\n      pop\n      dup1\n      sload\n      tag_131\n      swap1\n      tag_55\n      jump\t// in\n    tag_131:\n      0x00\n      dup3\n      sstore\n      dup1\n      0x1f\n      lt\n      tag_133\n      jumpi\n      pop\n      jump(tag_132)\n    tag_133:\n      0x1f\n      add\n      0x20\n      swap1\n      div\n      swap1\n      0x00\n      mstore\n      keccak256(0x00, 0x20)\n      swap1\n      dup2\n      add\n      swap1\n      tag_134\n      swap2\n      swap1\n      tag_135\n      jump\t// in\n    tag_134:\n    tag_132:\n      pop\n      jump\t// out\n    tag_62:\n      mload(0x40)\n      dup1\n      0x40\n      add\n      0x40\n      mstore\n      dup1\n      and(0xffffffffffffffffffffffffffffffffffffffff, 0x00)\n      dup2\n      mstore\n      0x20\n      add\n      0x60\n      dup2\n      mstore\n      pop\n      swap1\n      jump\t// out\n    tag_65:\n      dup3\n      dup1\n      sload\n      tag_136\n      swap1\n      tag_55\n      jump\t// in\n    tag_136:\n      swap1\n      0x00\n      mstore\n      keccak256(0x00, 0x20)\n      swap1\n      0x1f\n      add\n      0x20\n      swap1\n      div\n      dup2\n      add\n      swap3\n      dup3\n      tag_138\n      jumpi\n      0x00\n      dup6\n      sstore\n      jump(tag_137)\n    tag_138:\n      dup3\n      0x1f\n      lt\n      tag_139\n      jumpi\n      dup1\n      mload\n      not(0xff)\n      and\n      dup4\n      dup1\n      add\n      or\n      dup6\n      sstore\n      jump(tag_137)\n    tag_139:\n      dup3\n      dup1\n      add\n      0x01\n      add\n      dup6\n      sstore\n      dup3\n      iszero\n      tag_137\n      jumpi\n      swap2\n      dup3\n      add\n    tag_140:\n      dup3\n      dup2\n      gt\n      iszero\n      tag_141\n      jumpi\n      dup3\n      mload\n      dup3\n      sstore\n      swap2\n      0x20\n      add\n      swap2\n      swap1\n      0x01\n      add\n      swap1\n      jump(tag_140)\n    tag_141:\n    tag_137:\n      pop\n      swap1\n      pop\n      tag_142\n      swap2\n      swap1\n      tag_135\n      jump\t// in\n    tag_142:\n      pop\n      swap1\n      jump\t// out\n    tag_135:\n    tag_143:\n      dup1\n      dup3\n      gt\n      iszero\n      tag_144\n      jumpi\n      0x00\n      dup2\n      0x00\n      swap1\n      sstore\n      pop\n      0x01\n      add\n      jump(tag_143)\n    tag_144:\n      pop\n      swap1\n      jump\t// out\n        /* \"#utility.yul\":7:419   */\n    tag_146:\n        /* \"#utility.yul\":85:90   */\n      0x00\n        /* \"#utility.yul\":110:176   */\n      tag_148\n        /* \"#utility.yul\":126:175   */\n      tag_149\n        /* \"#utility.yul\":168:174   */\n      dup5\n        /* \"#utility.yul\":126:175   */\n      tag_150\n      jump\t// in\n    tag_149:\n        /* \"#utility.yul\":110:176   */\n      tag_151\n      jump\t// in\n    tag_148:\n        /* \"#utility.yul\":101:176   */\n      swap1\n      pop\n        /* \"#utility.yul\":199:205   */\n      dup3\n        /* \"#utility.yul\":192:197   */\n      dup2\n        /* \"#utility.yul\":185:206   */\n      mstore\n        /* \"#utility.yul\":237:241   */\n      0x20\n        /* \"#utility.yul\":230:235   */\n      dup2\n        /* \"#utility.yul\":226:242   */\n      add\n        /* \"#utility.yul\":275:278   */\n      dup5\n        /* \"#utility.yul\":266:272   */\n      dup5\n        /* \"#utility.yul\":261:264   */\n      dup5\n        /* \"#utility.yul\":257:273   */\n      add\n        /* \"#utility.yul\":254:279   */\n      gt\n        /* \"#utility.yul\":251:363   */\n      iszero\n      tag_152\n      jumpi\n        /* \"#utility.yul\":282:361   */\n      tag_153\n      tag_154\n      jump\t// in\n    tag_153:\n        /* \"#utility.yul\":251:363   */\n    tag_152:\n        /* \"#utility.yul\":372:413   */\n      tag_155\n        /* \"#utility.yul\":406:412   */\n      dup5\n        /* \"#utility.yul\":401:404   */\n      dup3\n        /* \"#utility.yul\":396:399   */\n      dup6\n        /* \"#utility.yul\":372:413   */\n      tag_156\n      jump\t// in\n    tag_155:\n        /* \"#utility.yul\":91:419   */\n      pop\n        /* \"#utility.yul\":7:419   */\n      swap4\n      swap3\n      pop\n      pop\n      pop\n      jump\t// out\n        /* \"#utility.yul\":425:564   */\n    tag_157:\n        /* \"#utility.yul\":471:476   */\n      0x00\n        /* \"#utility.yul\":509:515   */\n      dup2\n        /* \"#utility.yul\":496:516   */\n      calldataload\n        /* \"#utility.yul\":487:516   */\n      swap1\n      pop\n        /* \"#utility.yul\":525:558   */\n      tag_159\n        /* \"#utility.yul\":552:557   */\n      dup2\n        /* \"#utility.yul\":525:558   */\n      tag_160\n      jump\t// in\n    tag_159:\n        /* \"#utility.yul\":425:564   */\n      swap3\n      swap2\n      pop\n      pop\n      jump\t// out\n        /* \"#utility.yul\":584:924   */\n    tag_161:\n        /* \"#utility.yul\":640:645   */\n      0x00\n        /* \"#utility.yul\":689:692   */\n      dup3\n        /* \"#utility.yul\":682:686   */\n      0x1f\n        /* \"#utility.yul\":674:680   */\n      dup4\n        /* \"#utility.yul\":670:687   */\n      add\n        /* \"#utility.yul\":666:693   */\n      slt\n        /* \"#utility.yul\":656:778   */\n      tag_163\n      jumpi\n        /* \"#utility.yul\":697:776   */\n      tag_164\n      tag_165\n      jump\t// in\n    tag_164:\n        /* \"#utility.yul\":656:778   */\n    tag_163:\n        /* \"#utility.yul\":814:820   */\n      dup2\n        /* \"#utility.yul\":801:821   */\n      calldataload\n        /* \"#utility.yul\":839:918   */\n      tag_166\n        /* \"#utility.yul\":914:917   */\n      dup5\n        /* \"#utility.yul\":906:912   */\n      dup3\n        /* \"#utility.yul\":899:903   */\n      0x20\n        /* \"#utility.yul\":891:897   */\n      dup7\n        /* \"#utility.yul\":887:904   */\n      add\n        /* \"#utility.yul\":839:918   */\n      tag_146\n      jump\t// in\n    tag_166:\n        /* \"#utility.yul\":830:918   */\n      swap2\n      pop\n        /* \"#utility.yul\":646:924   */\n      pop\n        /* \"#utility.yul\":584:924   */\n      swap3\n      swap2\n      pop\n      pop\n      jump\t// out\n        /* \"#utility.yul\":930:1069   */\n    tag_167:\n        /* \"#utility.yul\":976:981   */\n      0x00\n        /* \"#utility.yul\":1014:1020   */\n      dup2\n        /* \"#utility.yul\":1001:1021   */\n      calldataload\n        /* \"#utility.yul\":992:1021   */\n      swap1\n      pop\n        /* \"#utility.yul\":1030:1063   */\n      tag_169\n        /* \"#utility.yul\":1057:1062   */\n      dup2\n        /* \"#utility.yul\":1030:1063   */\n      tag_170\n      jump\t// in\n    tag_169:\n        /* \"#utility.yul\":930:1069   */\n      swap3\n      swap2\n      pop\n      pop\n      jump\t// out\n        /* \"#utility.yul\":1075:1404   */\n    tag_19:\n        /* \"#utility.yul\":1134:1140   */\n      0x00\n        /* \"#utility.yul\":1183:1185   */\n      0x20\n        /* \"#utility.yul\":1171:1180   */\n      dup3\n        /* \"#utility.yul\":1162:1169   */\n      dup5\n        /* \"#utility.yul\":1158:1181   */\n      sub\n        /* \"#utility.yul\":1154:1186   */\n      slt\n        /* \"#utility.yul\":1151:1270   */\n      iszero\n      tag_172\n      jumpi\n        /* \"#utility.yul\":1189:1268   */\n      tag_173\n      tag_174\n      jump\t// in\n    tag_173:\n        /* \"#utility.yul\":1151:1270   */\n    tag_172:\n        /* \"#utility.yul\":1309:1310   */\n      0x00\n        /* \"#utility.yul\":1334:1387   */\n      tag_175\n        /* \"#utility.yul\":1379:1386   */\n      dup5\n        /* \"#utility.yul\":1370:1376   */\n      dup3\n        /* \"#utility.yul\":1359:1368   */\n      dup6\n        /* \"#utility.yul\":1355:1377   */\n      add\n        /* \"#utility.yul\":1334:1387   */\n      tag_157\n      jump\t// in\n    tag_175:\n        /* \"#utility.yul\":1324:1387   */\n      swap2\n      pop\n        /* \"#utility.yul\":1280:1397   */\n      pop\n        /* \"#utility.yul\":1075:1404   */\n      swap3\n      swap2\n      pop\n      pop\n      jump\t// out\n        /* \"#utility.yul\":1410:1919   */\n    tag_15:\n        /* \"#utility.yul\":1479:1485   */\n      0x00\n        /* \"#utility.yul\":1528:1530   */\n      0x20\n        /* \"#utility.yul\":1516:1525   */\n      dup3\n        /* \"#utility.yul\":1507:1514   */\n      dup5\n        /* \"#utility.yul\":1503:1526   */\n      sub\n        /* \"#utility.yul\":1499:1531   */\n      slt\n        /* \"#utility.yul\":1496:1615   */\n      iszero\n      tag_177\n      jumpi\n        /* \"#utility.yul\":1534:1613   */\n      tag_178\n      tag_174\n      jump\t// in\n    tag_178:\n        /* \"#utility.yul\":1496:1615   */\n    tag_177:\n        /* \"#utility.yul\":1682:1683   */\n      0x00\n        /* \"#utility.yul\":1671:1680   */\n      dup3\n        /* \"#utility.yul\":1667:1684   */\n      add\n        /* \"#utility.yul\":1654:1685   */\n      calldataload\n        /* \"#utility.yul\":1712:1730   */\n      0xffffffffffffffff\n        /* \"#utility.yul\":1704:1710   */\n      dup2\n        /* \"#utility.yul\":1701:1731   */\n      gt\n        /* \"#utility.yul\":1698:1815   */\n      iszero\n      tag_179\n      jumpi\n        /* \"#utility.yul\":1734:1813   */\n      tag_180\n      tag_181\n      jump\t// in\n    tag_180:\n        /* \"#utility.yul\":1698:1815   */\n    tag_179:\n        /* \"#utility.yul\":1839:1902   */\n      tag_182\n        /* \"#utility.yul\":1894:1901   */\n      dup5\n        /* \"#utility.yul\":1885:1891   */\n      dup3\n        /* \"#utility.yul\":1874:1883   */\n      dup6\n        /* \"#utility.yul\":1870:1892   */\n      add\n        /* \"#utility.yul\":1839:1902   */\n      tag_161\n      jump\t// in\n    tag_182:\n        /* \"#utility.yul\":1829:1902   */\n      swap2\n      pop\n        /* \"#utility.yul\":1625:1912   */\n      pop\n        /* \"#utility.yul\":1410:1919   */\n      swap3\n      swap2\n      pop\n      pop\n      jump\t// out\n        /* \"#utility.yul\":1925:2254   */\n    tag_28:\n        /* \"#utility.yul\":1984:1990   */\n      0x00\n        /* \"#utility.yul\":2033:2035   */\n      0x20\n        /* \"#utility.yul\":2021:2030   */\n      dup3\n        /* \"#utility.yul\":2012:2019   */\n      dup5\n        /* \"#utility.yul\":2008:2031   */\n      sub\n        /* \"#utility.yul\":2004:2036   */\n      slt\n        /* \"#utility.yul\":2001:2120   */\n      iszero\n      tag_184\n      jumpi\n        /* \"#utility.yul\":2039:2118   */\n      tag_185\n      tag_174\n      jump\t// in\n    tag_185:\n        /* \"#utility.yul\":2001:2120   */\n    tag_184:\n        /* \"#utility.yul\":2159:2160   */\n      0x00\n        /* \"#utility.yul\":2184:2237   */\n      tag_186\n        /* \"#utility.yul\":2229:2236   */\n      dup5\n        /* \"#utility.yul\":2220:2226   */\n      dup3\n        /* \"#utility.yul\":2209:2218   */\n      dup6\n        /* \"#utility.yul\":2205:2227   */\n      add\n        /* \"#utility.yul\":2184:2237   */\n      tag_167\n      jump\t// in\n    tag_186:\n        /* \"#utility.yul\":2174:2237   */\n      swap2\n      pop\n        /* \"#utility.yul\":2130:2247   */\n      pop\n        /* \"#utility.yul\":1925:2254   */\n      swap3\n      swap2\n      pop\n      pop\n      jump\t// out\n        /* \"#utility.yul\":2260:2456   */\n    tag_187:\n        /* \"#utility.yul\":2349:2359   */\n      0x00\n        /* \"#utility.yul\":2384:2450   */\n      tag_189\n        /* \"#utility.yul\":2446:2449   */\n      dup4\n        /* \"#utility.yul\":2438:2444   */\n      dup4\n        /* \"#utility.yul\":2384:2450   */\n      tag_190\n      jump\t// in\n    tag_189:\n        /* \"#utility.yul\":2370:2450   */\n      swap1\n      pop\n        /* \"#utility.yul\":2260:2456   */\n      swap3\n      swap2\n      pop\n      pop\n      jump\t// out\n        /* \"#utility.yul\":2462:2726   */\n    tag_191:\n        /* \"#utility.yul\":2585:2595   */\n      0x00\n        /* \"#utility.yul\":2620:2720   */\n      tag_193\n        /* \"#utility.yul\":2716:2719   */\n      dup4\n        /* \"#utility.yul\":2708:2714   */\n      dup4\n        /* \"#utility.yul\":2620:2720   */\n      tag_194\n      jump\t// in\n    tag_193:\n        /* \"#utility.yul\":2606:2720   */\n      swap1\n      pop\n        /* \"#utility.yul\":2462:2726   */\n      swap3\n      swap2\n      pop\n      pop\n      jump\t// out\n        /* \"#utility.yul\":2732:2840   */\n    tag_195:\n        /* \"#utility.yul\":2809:2833   */\n      tag_197\n        /* \"#utility.yul\":2827:2832   */\n      dup2\n        /* \"#utility.yul\":2809:2833   */\n      tag_198\n      jump\t// in\n    tag_197:\n        /* \"#utility.yul\":2804:2807   */\n      dup3\n        /* \"#utility.yul\":2797:2834   */\n      mstore\n        /* \"#utility.yul\":2732:2840   */\n      pop\n      pop\n      jump\t// out\n        /* \"#utility.yul\":2846:2964   */\n    tag_199:\n        /* \"#utility.yul\":2933:2957   */\n      tag_201\n        /* \"#utility.yul\":2951:2956   */\n      dup2\n        /* \"#utility.yul\":2933:2957   */\n      tag_198\n      jump\t// in\n    tag_201:\n        /* \"#utility.yul\":2928:2931   */\n      dup3\n        /* \"#utility.yul\":2921:2958   */\n      mstore\n        /* \"#utility.yul\":2846:2964   */\n      pop\n      pop\n      jump\t// out\n        /* \"#utility.yul\":2998:3989   */\n    tag_202:\n        /* \"#utility.yul\":3137:3140   */\n      0x00\n        /* \"#utility.yul\":3166:3230   */\n      tag_204\n        /* \"#utility.yul\":3224:3229   */\n      dup3\n        /* \"#utility.yul\":3166:3230   */\n      tag_205\n      jump\t// in\n    tag_204:\n        /* \"#utility.yul\":3246:3342   */\n      tag_206\n        /* \"#utility.yul\":3335:3341   */\n      dup2\n        /* \"#utility.yul\":3330:3333   */\n      dup6\n        /* \"#utility.yul\":3246:3342   */\n      tag_207\n      jump\t// in\n    tag_206:\n        /* \"#utility.yul\":3239:3342   */\n      swap4\n      pop\n        /* \"#utility.yul\":3368:3371   */\n      dup4\n        /* \"#utility.yul\":3413:3417   */\n      0x20\n        /* \"#utility.yul\":3405:3411   */\n      dup3\n        /* \"#utility.yul\":3401:3418   */\n      mul\n        /* \"#utility.yul\":3396:3399   */\n      dup6\n        /* \"#utility.yul\":3392:3419   */\n      add\n        /* \"#utility.yul\":3443:3509   */\n      tag_208\n        /* \"#utility.yul\":3503:3508   */\n      dup6\n        /* \"#utility.yul\":3443:3509   */\n      tag_209\n      jump\t// in\n    tag_208:\n        /* \"#utility.yul\":3532:3539   */\n      dup1\n        /* \"#utility.yul\":3563:3564   */\n      0x00\n        /* \"#utility.yul\":3548:3944   */\n    tag_210:\n        /* \"#utility.yul\":3573:3579   */\n      dup6\n        /* \"#utility.yul\":3570:3571   */\n      dup2\n        /* \"#utility.yul\":3567:3580   */\n      lt\n        /* \"#utility.yul\":3548:3944   */\n      iszero\n      tag_212\n      jumpi\n        /* \"#utility.yul\":3644:3653   */\n      dup5\n        /* \"#utility.yul\":3638:3642   */\n      dup5\n        /* \"#utility.yul\":3634:3654   */\n      sub\n        /* \"#utility.yul\":3629:3632   */\n      dup10\n        /* \"#utility.yul\":3622:3655   */\n      mstore\n        /* \"#utility.yul\":3695:3701   */\n      dup2\n        /* \"#utility.yul\":3689:3702   */\n      mload\n        /* \"#utility.yul\":3723:3807   */\n      tag_213\n        /* \"#utility.yul\":3802:3806   */\n      dup6\n        /* \"#utility.yul\":3787:3800   */\n      dup3\n        /* \"#utility.yul\":3723:3807   */\n      tag_187\n      jump\t// in\n    tag_213:\n        /* \"#utility.yul\":3715:3807   */\n      swap5\n      pop\n        /* \"#utility.yul\":3830:3900   */\n      tag_214\n        /* \"#utility.yul\":3893:3899   */\n      dup4\n        /* \"#utility.yul\":3830:3900   */\n      tag_215\n      jump\t// in\n    tag_214:\n        /* \"#utility.yul\":3820:3900   */\n      swap3\n      pop\n        /* \"#utility.yul\":3929:3933   */\n      0x20\n        /* \"#utility.yul\":3924:3927   */\n      dup11\n        /* \"#utility.yul\":3920:3934   */\n      add\n        /* \"#utility.yul\":3913:3934   */\n      swap10\n      pop\n        /* \"#utility.yul\":3608:3944   */\n      pop\n        /* \"#utility.yul\":3595:3596   */\n      0x01\n        /* \"#utility.yul\":3592:3593   */\n      dup2\n        /* \"#utility.yul\":3588:3597   */\n      add\n        /* \"#utility.yul\":3583:3597   */\n      swap1\n      pop\n        /* \"#utility.yul\":3548:3944   */\n      jump(tag_210)\n    tag_212:\n        /* \"#utility.yul\":3552:3566   */\n      pop\n        /* \"#utility.yul\":3960:3964   */\n      dup3\n        /* \"#utility.yul\":3953:3964   */\n      swap8\n      pop\n        /* \"#utility.yul\":3980:3983   */\n      dup8\n        /* \"#utility.yul\":3973:3983   */\n      swap6\n      pop\n        /* \"#utility.yul\":3142:3989   */\n      pop\n      pop\n      pop\n      pop\n      pop\n        /* \"#utility.yul\":2998:3989   */\n      swap3\n      swap2\n      pop\n      pop\n      jump\t// out\n        /* \"#utility.yul\":4065:5192   */\n    tag_216:\n        /* \"#utility.yul\":4238:4241   */\n      0x00\n        /* \"#utility.yul\":4267:4348   */\n      tag_218\n        /* \"#utility.yul\":4342:4347   */\n      dup3\n        /* \"#utility.yul\":4267:4348   */\n      tag_219\n      jump\t// in\n    tag_218:\n        /* \"#utility.yul\":4364:4477   */\n      tag_220\n        /* \"#utility.yul\":4470:4476   */\n      dup2\n        /* \"#utility.yul\":4465:4468   */\n      dup6\n        /* \"#utility.yul\":4364:4477   */\n      tag_221\n      jump\t// in\n    tag_220:\n        /* \"#utility.yul\":4357:4477   */\n      swap4\n      pop\n        /* \"#utility.yul\":4503:4506   */\n      dup4\n        /* \"#utility.yul\":4548:4552   */\n      0x20\n        /* \"#utility.yul\":4540:4546   */\n      dup3\n        /* \"#utility.yul\":4536:4553   */\n      mul\n        /* \"#utility.yul\":4531:4534   */\n      dup6\n        /* \"#utility.yul\":4527:4554   */\n      add\n        /* \"#utility.yul\":4578:4661   */\n      tag_222\n        /* \"#utility.yul\":4655:4660   */\n      dup6\n        /* \"#utility.yul\":4578:4661   */\n      tag_223\n      jump\t// in\n    tag_222:\n        /* \"#utility.yul\":4684:4691   */\n      dup1\n        /* \"#utility.yul\":4715:4716   */\n      0x00\n        /* \"#utility.yul\":4700:5147   */\n    tag_224:\n        /* \"#utility.yul\":4725:4731   */\n      dup6\n        /* \"#utility.yul\":4722:4723   */\n      dup2\n        /* \"#utility.yul\":4719:4732   */\n      lt\n        /* \"#utility.yul\":4700:5147   */\n      iszero\n      tag_226\n      jumpi\n        /* \"#utility.yul\":4796:4805   */\n      dup5\n        /* \"#utility.yul\":4790:4794   */\n      dup5\n        /* \"#utility.yul\":4786:4806   */\n      sub\n        /* \"#utility.yul\":4781:4784   */\n      dup10\n        /* \"#utility.yul\":4774:4807   */\n      mstore\n        /* \"#utility.yul\":4847:4853   */\n      dup2\n        /* \"#utility.yul\":4841:4854   */\n      mload\n        /* \"#utility.yul\":4875:4993   */\n      tag_227\n        /* \"#utility.yul\":4988:4992   */\n      dup6\n        /* \"#utility.yul\":4973:4986   */\n      dup3\n        /* \"#utility.yul\":4875:4993   */\n      tag_191\n      jump\t// in\n    tag_227:\n        /* \"#utility.yul\":4867:4993   */\n      swap5\n      pop\n        /* \"#utility.yul\":5016:5103   */\n      tag_228\n        /* \"#utility.yul\":5096:5102   */\n      dup4\n        /* \"#utility.yul\":5016:5103   */\n      tag_229\n      jump\t// in\n    tag_228:\n        /* \"#utility.yul\":5006:5103   */\n      swap3\n      pop\n        /* \"#utility.yul\":5132:5136   */\n      0x20\n        /* \"#utility.yul\":5127:5130   */\n      dup11\n        /* \"#utility.yul\":5123:5137   */\n      add\n        /* \"#utility.yul\":5116:5137   */\n      swap10\n      pop\n        /* \"#utility.yul\":4760:5147   */\n      pop\n        /* \"#utility.yul\":4747:4748   */\n      0x01\n        /* \"#utility.yul\":4744:4745   */\n      dup2\n        /* \"#utility.yul\":4740:4749   */\n      add\n        /* \"#utility.yul\":4735:4749   */\n      swap1\n      pop\n        /* \"#utility.yul\":4700:5147   */\n      jump(tag_224)\n    tag_226:\n        /* \"#utility.yul\":4704:4718   */\n      pop\n        /* \"#utility.yul\":5163:5167   */\n      dup3\n        /* \"#utility.yul\":5156:5167   */\n      swap8\n      pop\n        /* \"#utility.yul\":5183:5186   */\n      dup8\n        /* \"#utility.yul\":5176:5186   */\n      swap6\n      pop\n        /* \"#utility.yul\":4243:5192   */\n      pop\n      pop\n      pop\n      pop\n      pop\n        /* \"#utility.yul\":4065:5192   */\n      swap3\n      swap2\n      pop\n      pop\n      jump\t// out\n        /* \"#utility.yul\":5198:5542   */\n    tag_190:\n        /* \"#utility.yul\":5276:5279   */\n      0x00\n        /* \"#utility.yul\":5304:5343   */\n      tag_231\n        /* \"#utility.yul\":5337:5342   */\n      dup3\n        /* \"#utility.yul\":5304:5343   */\n      tag_232\n      jump\t// in\n    tag_231:\n        /* \"#utility.yul\":5359:5420   */\n      tag_233\n        /* \"#utility.yul\":5413:5419   */\n      dup2\n        /* \"#utility.yul\":5408:5411   */\n      dup6\n        /* \"#utility.yul\":5359:5420   */\n      tag_234\n      jump\t// in\n    tag_233:\n        /* \"#utility.yul\":5352:5420   */\n      swap4\n      pop\n        /* \"#utility.yul\":5429:5481   */\n      tag_235\n        /* \"#utility.yul\":5474:5480   */\n      dup2\n        /* \"#utility.yul\":5469:5472   */\n      dup6\n        /* \"#utility.yul\":5462:5466   */\n      0x20\n        /* \"#utility.yul\":5455:5460   */\n      dup7\n        /* \"#utility.yul\":5451:5467   */\n      add\n        /* \"#utility.yul\":5429:5481   */\n      tag_236\n      jump\t// in\n    tag_235:\n        /* \"#utility.yul\":5506:5535   */\n      tag_237\n        /* \"#utility.yul\":5528:5534   */\n      dup2\n        /* \"#utility.yul\":5506:5535   */\n      tag_238\n      jump\t// in\n    tag_237:\n        /* \"#utility.yul\":5501:5504   */\n      dup5\n        /* \"#utility.yul\":5497:5536   */\n      add\n        /* \"#utility.yul\":5490:5536   */\n      swap2\n      pop\n        /* \"#utility.yul\":5280:5542   */\n      pop\n        /* \"#utility.yul\":5198:5542   */\n      swap3\n      swap2\n      pop\n      pop\n      jump\t// out\n        /* \"#utility.yul\":5548:5912   */\n    tag_239:\n        /* \"#utility.yul\":5636:5639   */\n      0x00\n        /* \"#utility.yul\":5664:5703   */\n      tag_241\n        /* \"#utility.yul\":5697:5702   */\n      dup3\n        /* \"#utility.yul\":5664:5703   */\n      tag_232\n      jump\t// in\n    tag_241:\n        /* \"#utility.yul\":5719:5790   */\n      tag_242\n        /* \"#utility.yul\":5783:5789   */\n      dup2\n        /* \"#utility.yul\":5778:5781   */\n      dup6\n        /* \"#utility.yul\":5719:5790   */\n      tag_243\n      jump\t// in\n    tag_242:\n        /* \"#utility.yul\":5712:5790   */\n      swap4\n      pop\n        /* \"#utility.yul\":5799:5851   */\n      tag_244\n        /* \"#utility.yul\":5844:5850   */\n      dup2\n        /* \"#utility.yul\":5839:5842   */\n      dup6\n        /* \"#utility.yul\":5832:5836   */\n      0x20\n        /* \"#utility.yul\":5825:5830   */\n      dup7\n        /* \"#utility.yul\":5821:5837   */\n      add\n        /* \"#utility.yul\":5799:5851   */\n      tag_236\n      jump\t// in\n    tag_244:\n        /* \"#utility.yul\":5876:5905   */\n      tag_245\n        /* \"#utility.yul\":5898:5904   */\n      dup2\n        /* \"#utility.yul\":5876:5905   */\n      tag_238\n      jump\t// in\n    tag_245:\n        /* \"#utility.yul\":5871:5874   */\n      dup5\n        /* \"#utility.yul\":5867:5906   */\n      add\n        /* \"#utility.yul\":5860:5906   */\n      swap2\n      pop\n        /* \"#utility.yul\":5640:5912   */\n      pop\n        /* \"#utility.yul\":5548:5912   */\n      swap3\n      swap2\n      pop\n      pop\n      jump\t// out\n        /* \"#utility.yul\":5984:6584   */\n    tag_194:\n        /* \"#utility.yul\":6097:6100   */\n      0x00\n        /* \"#utility.yul\":6133:6137   */\n      0x40\n        /* \"#utility.yul\":6128:6131   */\n      dup4\n        /* \"#utility.yul\":6124:6138   */\n      add\n        /* \"#utility.yul\":6220:6224   */\n      0x00\n        /* \"#utility.yul\":6213:6218   */\n      dup4\n        /* \"#utility.yul\":6209:6225   */\n      add\n        /* \"#utility.yul\":6203:6226   */\n      mload\n        /* \"#utility.yul\":6239:6302   */\n      tag_247\n        /* \"#utility.yul\":6296:6300   */\n      0x00\n        /* \"#utility.yul\":6291:6294   */\n      dup7\n        /* \"#utility.yul\":6287:6301   */\n      add\n        /* \"#utility.yul\":6273:6285   */\n      dup3\n        /* \"#utility.yul\":6239:6302   */\n      tag_195\n      jump\t// in\n    tag_247:\n        /* \"#utility.yul\":6148:6312   */\n      pop\n        /* \"#utility.yul\":6394:6398   */\n      0x20\n        /* \"#utility.yul\":6387:6392   */\n      dup4\n        /* \"#utility.yul\":6383:6399   */\n      add\n        /* \"#utility.yul\":6377:6400   */\n      mload\n        /* \"#utility.yul\":6447:6450   */\n      dup5\n        /* \"#utility.yul\":6441:6445   */\n      dup3\n        /* \"#utility.yul\":6437:6451   */\n      sub\n        /* \"#utility.yul\":6430:6434   */\n      0x20\n        /* \"#utility.yul\":6425:6428   */\n      dup7\n        /* \"#utility.yul\":6421:6435   */\n      add\n        /* \"#utility.yul\":6414:6452   */\n      mstore\n        /* \"#utility.yul\":6473:6546   */\n      tag_248\n        /* \"#utility.yul\":6541:6545   */\n      dup3\n        /* \"#utility.yul\":6527:6539   */\n      dup3\n        /* \"#utility.yul\":6473:6546   */\n      tag_190\n      jump\t// in\n    tag_248:\n        /* \"#utility.yul\":6465:6546   */\n      swap2\n      pop\n        /* \"#utility.yul\":6322:6557   */\n      pop\n        /* \"#utility.yul\":6574:6578   */\n      dup1\n        /* \"#utility.yul\":6567:6578   */\n      swap2\n      pop\n        /* \"#utility.yul\":6102:6584   */\n      pop\n        /* \"#utility.yul\":5984:6584   */\n      swap3\n      swap2\n      pop\n      pop\n      jump\t// out\n        /* \"#utility.yul\":6590:7013   */\n    tag_31:\n        /* \"#utility.yul\":6731:6735   */\n      0x00\n        /* \"#utility.yul\":6769:6771   */\n      0x40\n        /* \"#utility.yul\":6758:6767   */\n      dup3\n        /* \"#utility.yul\":6754:6772   */\n      add\n        /* \"#utility.yul\":6746:6772   */\n      swap1\n      pop\n        /* \"#utility.yul\":6782:6853   */\n      tag_250\n        /* \"#utility.yul\":6850:6851   */\n      0x00\n        /* \"#utility.yul\":6839:6848   */\n      dup4\n        /* \"#utility.yul\":6835:6852   */\n      add\n        /* \"#utility.yul\":6826:6832   */\n      dup6\n        /* \"#utility.yul\":6782:6853   */\n      tag_199\n      jump\t// in\n    tag_250:\n        /* \"#utility.yul\":6900:6909   */\n      dup2\n        /* \"#utility.yul\":6894:6898   */\n      dup2\n        /* \"#utility.yul\":6890:6910   */\n      sub\n        /* \"#utility.yul\":6885:6887   */\n      0x20\n        /* \"#utility.yul\":6874:6883   */\n      dup4\n        /* \"#utility.yul\":6870:6888   */\n      add\n        /* \"#utility.yul\":6863:6911   */\n      mstore\n        /* \"#utility.yul\":6928:7006   */\n      tag_251\n        /* \"#utility.yul\":7001:7005   */\n      dup2\n        /* \"#utility.yul\":6992:6998   */\n      dup5\n        /* \"#utility.yul\":6928:7006   */\n      tag_239\n      jump\t// in\n    tag_251:\n        /* \"#utility.yul\":6920:7006   */\n      swap1\n      pop\n        /* \"#utility.yul\":6590:7013   */\n      swap4\n      swap3\n      pop\n      pop\n      pop\n      jump\t// out\n        /* \"#utility.yul\":7019:7432   */\n    tag_22:\n        /* \"#utility.yul\":7182:7186   */\n      0x00\n        /* \"#utility.yul\":7220:7222   */\n      0x20\n        /* \"#utility.yul\":7209:7218   */\n      dup3\n        /* \"#utility.yul\":7205:7223   */\n      add\n        /* \"#utility.yul\":7197:7223   */\n      swap1\n      pop\n        /* \"#utility.yul\":7269:7278   */\n      dup2\n        /* \"#utility.yul\":7263:7267   */\n      dup2\n        /* \"#utility.yul\":7259:7279   */\n      sub\n        /* \"#utility.yul\":7255:7256   */\n      0x00\n        /* \"#utility.yul\":7244:7253   */\n      dup4\n        /* \"#utility.yul\":7240:7257   */\n      add\n        /* \"#utility.yul\":7233:7280   */\n      mstore\n        /* \"#utility.yul\":7297:7425   */\n      tag_253\n        /* \"#utility.yul\":7420:7424   */\n      dup2\n        /* \"#utility.yul\":7411:7417   */\n      dup5\n        /* \"#utility.yul\":7297:7425   */\n      tag_202\n      jump\t// in\n    tag_253:\n        /* \"#utility.yul\":7289:7425   */\n      swap1\n      pop\n        /* \"#utility.yul\":7019:7432   */\n      swap3\n      swap2\n      pop\n      pop\n      jump\t// out\n        /* \"#utility.yul\":7438:7919   */\n    tag_12:\n        /* \"#utility.yul\":7635:7639   */\n      0x00\n        /* \"#utility.yul\":7673:7675   */\n      0x20\n        /* \"#utility.yul\":7662:7671   */\n      dup3\n        /* \"#utility.yul\":7658:7676   */\n      add\n        /* \"#utility.yul\":7650:7676   */\n      swap1\n      pop\n        /* \"#utility.yul\":7722:7731   */\n      dup2\n        /* \"#utility.yul\":7716:7720   */\n      dup2\n        /* \"#utility.yul\":7712:7732   */\n      sub\n        /* \"#utility.yul\":7708:7709   */\n      0x00\n        /* \"#utility.yul\":7697:7706   */\n      dup4\n        /* \"#utility.yul\":7693:7710   */\n      add\n        /* \"#utility.yul\":7686:7733   */\n      mstore\n        /* \"#utility.yul\":7750:7912   */\n      tag_255\n        /* \"#utility.yul\":7907:7911   */\n      dup2\n        /* \"#utility.yul\":7898:7904   */\n      dup5\n        /* \"#utility.yul\":7750:7912   */\n      tag_216\n      jump\t// in\n    tag_255:\n        /* \"#utility.yul\":7742:7912   */\n      swap1\n      pop\n        /* \"#utility.yul\":7438:7919   */\n      swap3\n      swap2\n      pop\n      pop\n      jump\t// out\n        /* \"#utility.yul\":7925:8054   */\n    tag_151:\n        /* \"#utility.yul\":7959:7965   */\n      0x00\n        /* \"#utility.yul\":7986:8006   */\n      tag_257\n      tag_258\n      jump\t// in\n    tag_257:\n        /* \"#utility.yul\":7976:8006   */\n      swap1\n      pop\n        /* \"#utility.yul\":8015:8048   */\n      tag_259\n        /* \"#utility.yul\":8043:8047   */\n      dup3\n        /* \"#utility.yul\":8035:8041   */\n      dup3\n        /* \"#utility.yul\":8015:8048   */\n      tag_260\n      jump\t// in\n    tag_259:\n        /* \"#utility.yul\":7925:8054   */\n      swap2\n      swap1\n      pop\n      jump\t// out\n        /* \"#utility.yul\":8060:8135   */\n    tag_258:\n        /* \"#utility.yul\":8093:8099   */\n      0x00\n        /* \"#utility.yul\":8126:8128   */\n      0x40\n        /* \"#utility.yul\":8120:8129   */\n      mload\n        /* \"#utility.yul\":8110:8129   */\n      swap1\n      pop\n        /* \"#utility.yul\":8060:8135   */\n      swap1\n      jump\t// out\n        /* \"#utility.yul\":8141:8449   */\n    tag_150:\n        /* \"#utility.yul\":8203:8207   */\n      0x00\n        /* \"#utility.yul\":8293:8311   */\n      0xffffffffffffffff\n        /* \"#utility.yul\":8285:8291   */\n      dup3\n        /* \"#utility.yul\":8282:8312   */\n      gt\n        /* \"#utility.yul\":8279:8335   */\n      iszero\n      tag_263\n      jumpi\n        /* \"#utility.yul\":8315:8333   */\n      tag_264\n      tag_69\n      jump\t// in\n    tag_264:\n        /* \"#utility.yul\":8279:8335   */\n    tag_263:\n        /* \"#utility.yul\":8353:8382   */\n      tag_265\n        /* \"#utility.yul\":8375:8381   */\n      dup3\n        /* \"#utility.yul\":8353:8382   */\n      tag_238\n      jump\t// in\n    tag_265:\n        /* \"#utility.yul\":8345:8382   */\n      swap1\n      pop\n        /* \"#utility.yul\":8437:8441   */\n      0x20\n        /* \"#utility.yul\":8431:8435   */\n      dup2\n        /* \"#utility.yul\":8427:8442   */\n      add\n        /* \"#utility.yul\":8419:8442   */\n      swap1\n      pop\n        /* \"#utility.yul\":8141:8449   */\n      swap2\n      swap1\n      pop\n      jump\t// out\n        /* \"#utility.yul\":8455:8597   */\n    tag_209:\n        /* \"#utility.yul\":8532:8536   */\n      0x00\n        /* \"#utility.yul\":8555:8558   */\n      dup2\n        /* \"#utility.yul\":8547:8558   */\n      swap1\n      pop\n        /* \"#utility.yul\":8585:8589   */\n      0x20\n        /* \"#utility.yul\":8580:8583   */\n      dup3\n        /* \"#utility.yul\":8576:8590   */\n      add\n        /* \"#utility.yul\":8568:8590   */\n      swap1\n      pop\n        /* \"#utility.yul\":8455:8597   */\n      swap2\n      swap1\n      pop\n      jump\t// out\n        /* \"#utility.yul\":8603:8762   */\n    tag_223:\n        /* \"#utility.yul\":8697:8701   */\n      0x00\n        /* \"#utility.yul\":8720:8723   */\n      dup2\n        /* \"#utility.yul\":8712:8723   */\n      swap1\n      pop\n        /* \"#utility.yul\":8750:8754   */\n      0x20\n        /* \"#utility.yul\":8745:8748   */\n      dup3\n        /* \"#utility.yul\":8741:8755   */\n      add\n        /* \"#utility.yul\":8733:8755   */\n      swap1\n      pop\n        /* \"#utility.yul\":8603:8762   */\n      swap2\n      swap1\n      pop\n      jump\t// out\n        /* \"#utility.yul\":8768:8892   */\n    tag_205:\n        /* \"#utility.yul\":8845:8851   */\n      0x00\n        /* \"#utility.yul\":8879:8884   */\n      dup2\n        /* \"#utility.yul\":8873:8885   */\n      mload\n        /* \"#utility.yul\":8863:8885   */\n      swap1\n      pop\n        /* \"#utility.yul\":8768:8892   */\n      swap2\n      swap1\n      pop\n      jump\t// out\n        /* \"#utility.yul\":8898:9039   */\n    tag_219:\n        /* \"#utility.yul\":8992:8998   */\n      0x00\n        /* \"#utility.yul\":9026:9031   */\n      dup2\n        /* \"#utility.yul\":9020:9032   */\n      mload\n        /* \"#utility.yul\":9010:9032   */\n      swap1\n      pop\n        /* \"#utility.yul\":8898:9039   */\n      swap2\n      swap1\n      pop\n      jump\t// out\n        /* \"#utility.yul\":9045:9144   */\n    tag_232:\n        /* \"#utility.yul\":9097:9103   */\n      0x00\n        /* \"#utility.yul\":9131:9136   */\n      dup2\n        /* \"#utility.yul\":9125:9137   */\n      mload\n        /* \"#utility.yul\":9115:9137   */\n      swap1\n      pop\n        /* \"#utility.yul\":9045:9144   */\n      swap2\n      swap1\n      pop\n      jump\t// out\n        /* \"#utility.yul\":9150:9273   */\n    tag_215:\n        /* \"#utility.yul\":9230:9234   */\n      0x00\n        /* \"#utility.yul\":9262:9266   */\n      0x20\n        /* \"#utility.yul\":9257:9260   */\n      dup3\n        /* \"#utility.yul\":9253:9267   */\n      add\n        /* \"#utility.yul\":9245:9267   */\n      swap1\n      pop\n        /* \"#utility.yul\":9150:9273   */\n      swap2\n      swap1\n      pop\n      jump\t// out\n        /* \"#utility.yul\":9279:9419   */\n    tag_229:\n        /* \"#utility.yul\":9376:9380   */\n      0x00\n        /* \"#utility.yul\":9408:9412   */\n      0x20\n        /* \"#utility.yul\":9403:9406   */\n      dup3\n        /* \"#utility.yul\":9399:9413   */\n      add\n        /* \"#utility.yul\":9391:9413   */\n      swap1\n      pop\n        /* \"#utility.yul\":9279:9419   */\n      swap2\n      swap1\n      pop\n      jump\t// out\n        /* \"#utility.yul\":9425:9619   */\n    tag_207:\n        /* \"#utility.yul\":9534:9545   */\n      0x00\n        /* \"#utility.yul\":9568:9574   */\n      dup3\n        /* \"#utility.yul\":9563:9566   */\n      dup3\n        /* \"#utility.yul\":9556:9575   */\n      mstore\n        /* \"#utility.yul\":9608:9612   */\n      0x20\n        /* \"#utility.yul\":9603:9606   */\n      dup3\n        /* \"#utility.yul\":9599:9613   */\n      add\n        /* \"#utility.yul\":9584:9613   */\n      swap1\n      pop\n        /* \"#utility.yul\":9425:9619   */\n      swap3\n      swap2\n      pop\n      pop\n      jump\t// out\n        /* \"#utility.yul\":9625:9836   */\n    tag_221:\n        /* \"#utility.yul\":9751:9762   */\n      0x00\n        /* \"#utility.yul\":9785:9791   */\n      dup3\n        /* \"#utility.yul\":9780:9783   */\n      dup3\n        /* \"#utility.yul\":9773:9792   */\n      mstore\n        /* \"#utility.yul\":9825:9829   */\n      0x20\n        /* \"#utility.yul\":9820:9823   */\n      dup3\n        /* \"#utility.yul\":9816:9830   */\n      add\n        /* \"#utility.yul\":9801:9830   */\n      swap1\n      pop\n        /* \"#utility.yul\":9625:9836   */\n      swap3\n      swap2\n      pop\n      pop\n      jump\t// out\n        /* \"#utility.yul\":9842:10001   */\n    tag_234:\n        /* \"#utility.yul\":9916:9927   */\n      0x00\n        /* \"#utility.yul\":9950:9956   */\n      dup3\n        /* \"#utility.yul\":9945:9948   */\n      dup3\n        /* \"#utility.yul\":9938:9957   */\n      mstore\n        /* \"#utility.yul\":9990:9994   */\n      0x20\n        /* \"#utility.yul\":9985:9988   */\n      dup3\n        /* \"#utility.yul\":9981:9995   */\n      add\n        /* \"#utility.yul\":9966:9995   */\n      swap1\n      pop\n        /* \"#utility.yul\":9842:10001   */\n      swap3\n      swap2\n      pop\n      pop\n      jump\t// out\n        /* \"#utility.yul\":10007:10176   */\n    tag_243:\n        /* \"#utility.yul\":10091:10102   */\n      0x00\n        /* \"#utility.yul\":10125:10131   */\n      dup3\n        /* \"#utility.yul\":10120:10123   */\n      dup3\n        /* \"#utility.yul\":10113:10132   */\n      mstore\n        /* \"#utility.yul\":10165:10169   */\n      0x20\n        /* \"#utility.yul\":10160:10163   */\n      dup3\n        /* \"#utility.yul\":10156:10170   */\n      add\n        /* \"#utility.yul\":10141:10170   */\n      swap1\n      pop\n        /* \"#utility.yul\":10007:10176   */\n      swap3\n      swap2\n      pop\n      pop\n      jump\t// out\n        /* \"#utility.yul\":10182:10278   */\n    tag_198:\n        /* \"#utility.yul\":10219:10226   */\n      0x00\n        /* \"#utility.yul\":10248:10272   */\n      tag_278\n        /* \"#utility.yul\":10266:10271   */\n      dup3\n        /* \"#utility.yul\":10248:10272   */\n      tag_279\n      jump\t// in\n    tag_278:\n        /* \"#utility.yul\":10237:10272   */\n      swap1\n      pop\n        /* \"#utility.yul\":10182:10278   */\n      swap2\n      swap1\n      pop\n      jump\t// out\n        /* \"#utility.yul\":10284:10410   */\n    tag_279:\n        /* \"#utility.yul\":10321:10328   */\n      0x00\n        /* \"#utility.yul\":10361:10403   */\n      0xffffffffffffffffffffffffffffffffffffffff\n        /* \"#utility.yul\":10354:10359   */\n      dup3\n        /* \"#utility.yul\":10350:10404   */\n      and\n        /* \"#utility.yul\":10339:10404   */\n      swap1\n      pop\n        /* \"#utility.yul\":10284:10410   */\n      swap2\n      swap1\n      pop\n      jump\t// out\n        /* \"#utility.yul\":10416:10493   */\n    tag_281:\n        /* \"#utility.yul\":10453:10460   */\n      0x00\n        /* \"#utility.yul\":10482:10487   */\n      dup2\n        /* \"#utility.yul\":10471:10487   */\n      swap1\n      pop\n        /* \"#utility.yul\":10416:10493   */\n      swap2\n      swap1\n      pop\n      jump\t// out\n        /* \"#utility.yul\":10499:10653   */\n    tag_156:\n        /* \"#utility.yul\":10583:10589   */\n      dup3\n        /* \"#utility.yul\":10578:10581   */\n      dup2\n        /* \"#utility.yul\":10573:10576   */\n      dup4\n        /* \"#utility.yul\":10560:10590   */\n      calldatacopy\n        /* \"#utility.yul\":10645:10646   */\n      0x00\n        /* \"#utility.yul\":10636:10642   */\n      dup4\n        /* \"#utility.yul\":10631:10634   */\n      dup4\n        /* \"#utility.yul\":10627:10643   */\n      add\n        /* \"#utility.yul\":10620:10647   */\n      mstore\n        /* \"#utility.yul\":10499:10653   */\n      pop\n      pop\n      pop\n      jump\t// out\n        /* \"#utility.yul\":10659:10966   */\n    tag_236:\n        /* \"#utility.yul\":10727:10728   */\n      0x00\n        /* \"#utility.yul\":10737:10850   */\n    tag_285:\n        /* \"#utility.yul\":10751:10757   */\n      dup4\n        /* \"#utility.yul\":10748:10749   */\n      dup2\n        /* \"#utility.yul\":10745:10758   */\n      lt\n        /* \"#utility.yul\":10737:10850   */\n      iszero\n      tag_287\n      jumpi\n        /* \"#utility.yul\":10836:10837   */\n      dup1\n        /* \"#utility.yul\":10831:10834   */\n      dup3\n        /* \"#utility.yul\":10827:10838   */\n      add\n        /* \"#utility.yul\":10821:10839   */\n      mload\n        /* \"#utility.yul\":10817:10818   */\n      dup2\n        /* \"#utility.yul\":10812:10815   */\n      dup5\n        /* \"#utility.yul\":10808:10819   */\n      add\n        /* \"#utility.yul\":10801:10840   */\n      mstore\n        /* \"#utility.yul\":10773:10775   */\n      0x20\n        /* \"#utility.yul\":10770:10771   */\n      dup2\n        /* \"#utility.yul\":10766:10776   */\n      add\n        /* \"#utility.yul\":10761:10776   */\n      swap1\n      pop\n        /* \"#utility.yul\":10737:10850   */\n      jump(tag_285)\n    tag_287:\n        /* \"#utility.yul\":10868:10874   */\n      dup4\n        /* \"#utility.yul\":10865:10866   */\n      dup2\n        /* \"#utility.yul\":10862:10875   */\n      gt\n        /* \"#utility.yul\":10859:10960   */\n      iszero\n      tag_288\n      jumpi\n        /* \"#utility.yul\":10948:10949   */\n      0x00\n        /* \"#utility.yul\":10939:10945   */\n      dup5\n        /* \"#utility.yul\":10934:10937   */\n      dup5\n        /* \"#utility.yul\":10930:10946   */\n      add\n        /* \"#utility.yul\":10923:10950   */\n      mstore\n        /* \"#utility.yul\":10859:10960   */\n    tag_288:\n        /* \"#utility.yul\":10708:10966   */\n      pop\n        /* \"#utility.yul\":10659:10966   */\n      pop\n      pop\n      pop\n      jump\t// out\n        /* \"#utility.yul\":10972:11292   */\n    tag_55:\n        /* \"#utility.yul\":11016:11022   */\n      0x00\n        /* \"#utility.yul\":11053:11054   */\n      0x02\n        /* \"#utility.yul\":11047:11051   */\n      dup3\n        /* \"#utility.yul\":11043:11055   */\n      div\n        /* \"#utility.yul\":11033:11055   */\n      swap1\n      pop\n        /* \"#utility.yul\":11100:11101   */\n      0x01\n        /* \"#utility.yul\":11094:11098   */\n      dup3\n        /* \"#utility.yul\":11090:11102   */\n      and\n        /* \"#utility.yul\":11121:11139   */\n      dup1\n        /* \"#utility.yul\":11111:11192   */\n      tag_290\n      jumpi\n        /* \"#utility.yul\":11177:11181   */\n      0x7f\n        /* \"#utility.yul\":11169:11175   */\n      dup3\n        /* \"#utility.yul\":11165:11182   */\n      and\n        /* \"#utility.yul\":11155:11182   */\n      swap2\n      pop\n        /* \"#utility.yul\":11111:11192   */\n    tag_290:\n        /* \"#utility.yul\":11239:11241   */\n      0x20\n        /* \"#utility.yul\":11231:11237   */\n      dup3\n        /* \"#utility.yul\":11228:11242   */\n      lt\n        /* \"#utility.yul\":11208:11226   */\n      dup2\n        /* \"#utility.yul\":11205:11243   */\n      eq\n        /* \"#utility.yul\":11202:11286   */\n      iszero\n      tag_291\n      jumpi\n        /* \"#utility.yul\":11258:11276   */\n      tag_292\n      tag_293\n      jump\t// in\n    tag_292:\n        /* \"#utility.yul\":11202:11286   */\n    tag_291:\n        /* \"#utility.yul\":11023:11292   */\n      pop\n        /* \"#utility.yul\":10972:11292   */\n      swap2\n      swap1\n      pop\n      jump\t// out\n        /* \"#utility.yul\":11298:11579   */\n    tag_260:\n        /* \"#utility.yul\":11381:11408   */\n      tag_295\n        /* \"#utility.yul\":11403:11407   */\n      dup3\n        /* \"#utility.yul\":11381:11408   */\n      tag_238\n      jump\t// in\n    tag_295:\n        /* \"#utility.yul\":11373:11379   */\n      dup2\n        /* \"#utility.yul\":11369:11409   */\n      add\n        /* \"#utility.yul\":11511:11517   */\n      dup2\n        /* \"#utility.yul\":11499:11509   */\n      dup2\n        /* \"#utility.yul\":11496:11518   */\n      lt\n        /* \"#utility.yul\":11475:11493   */\n      0xffffffffffffffff\n        /* \"#utility.yul\":11463:11473   */\n      dup3\n        /* \"#utility.yul\":11460:11494   */\n      gt\n        /* \"#utility.yul\":11457:11519   */\n      or\n        /* \"#utility.yul\":11454:11542   */\n      iszero\n      tag_296\n      jumpi\n        /* \"#utility.yul\":11522:11540   */\n      tag_297\n      tag_69\n      jump\t// in\n    tag_297:\n        /* \"#utility.yul\":11454:11542   */\n    tag_296:\n        /* \"#utility.yul\":11562:11572   */\n      dup1\n        /* \"#utility.yul\":11558:11560   */\n      0x40\n        /* \"#utility.yul\":11551:11573   */\n      mstore\n        /* \"#utility.yul\":11341:11579   */\n      pop\n        /* \"#utility.yul\":11298:11579   */\n      pop\n      pop\n      jump\t// out\n        /* \"#utility.yul\":11585:11818   */\n    tag_50:\n        /* \"#utility.yul\":11624:11627   */\n      0x00\n        /* \"#utility.yul\":11647:11671   */\n      tag_299\n        /* \"#utility.yul\":11665:11670   */\n      dup3\n        /* \"#utility.yul\":11647:11671   */\n      tag_281\n      jump\t// in\n    tag_299:\n        /* \"#utility.yul\":11638:11671   */\n      swap2\n      pop\n        /* \"#utility.yul\":11693:11759   */\n      0xffffffffffffffffffffffffffffffffffffffffffffffffffffffffffffffff\n        /* \"#utility.yul\":11686:11691   */\n      dup3\n        /* \"#utility.yul\":11683:11760   */\n      eq\n        /* \"#utility.yul\":11680:11783   */\n      iszero\n      tag_300\n      jumpi\n        /* \"#utility.yul\":11763:11781   */\n      tag_301\n      tag_302\n      jump\t// in\n    tag_301:\n        /* \"#utility.yul\":11680:11783   */\n    tag_300:\n        /* \"#utility.yul\":11810:11811   */\n      0x01\n        /* \"#utility.yul\":11803:11808   */\n      dup3\n        /* \"#utility.yul\":11799:11812   */\n      add\n        /* \"#utility.yul\":11792:11812   */\n      swap1\n      pop\n        /* \"#utility.yul\":11585:11818   */\n      swap2\n      swap1\n      pop\n      jump\t// out\n        /* \"#utility.yul\":11824:12004   */\n    tag_302:\n        /* \"#utility.yul\":11872:11949   */\n      0x4e487b7100000000000000000000000000000000000000000000000000000000\n        /* \"#utility.yul\":11869:11870   */\n      0x00\n        /* \"#utility.yul\":11862:11950   */\n      mstore\n        /* \"#utility.yul\":11969:11973   */\n      0x11\n        /* \"#utility.yul\":11966:11967   */\n      0x04\n        /* \"#utility.yul\":11959:11974   */\n      mstore\n        /* \"#utility.yul\":11993:11997   */\n      0x24\n        /* \"#utility.yul\":11990:11991   */\n      0x00\n        /* \"#utility.yul\":11983:11998   */\n      revert\n        /* \"#utility.yul\":12010:12190   */\n    tag_293:\n        /* \"#utility.yul\":12058:12135   */\n      0x4e487b7100000000000000000000000000000000000000000000000000000000\n        /* \"#utility.yul\":12055:12056   */\n      0x00\n        /* \"#utility.yul\":12048:12136   */\n      mstore\n        /* \"#utility.yul\":12155:12159   */\n      0x22\n        /* \"#utility.yul\":12152:12153   */\n      0x04\n        /* \"#utility.yul\":12145:12160   */\n      mstore\n        /* \"#utility.yul\":12179:12183   */\n      0x24\n        /* \"#utility.yul\":12176:12177   */\n      0x00\n        /* \"#utility.yul\":12169:12184   */\n      revert\n        /* \"#utility.yul\":12196:12376   */\n    tag_41:\n        /* \"#utility.yul\":12244:12321   */\n      0x4e487b7100000000000000000000000000000000000000000000000000000000\n        /* \"#utility.yul\":12241:12242   */\n      0x00\n        /* \"#utility.yul\":12234:12322   */\n      mstore\n        /* \"#utility.yul\":12341:12345   */\n      0x32\n        /* \"#utility.yul\":12338:12339   */\n      0x04\n        /* \"#utility.yul\":12331:12346   */\n      mstore\n        /* \"#utility.yul\":12365:12369   */\n      0x24\n        /* \"#utility.yul\":12362:12363   */\n      0x00\n        /* \"#utility.yul\":12355:12370   */\n      revert\n        /* \"#utility.yul\":12382:12562   */\n    tag_69:\n        /* \"#utility.yul\":12430:12507   */\n      0x4e487b7100000000000000000000000000000000000000000000000000000000\n        /* \"#utility.yul\":12427:12428   */\n      0x00\n        /* \"#utility.yul\":12420:12508   */\n      mstore\n        /* \"#utility.yul\":12527:12531   */\n      0x41\n        /* \"#utility.yul\":12524:12525   */\n      0x04\n        /* \"#utility.yul\":12517:12532   */\n      mstore\n        /* \"#utility.yul\":12551:12555   */\n      0x24\n        /* \"#utility.yul\":12548:12549   */\n      0x00\n        /* \"#utility.yul\":12541:12556   */\n      revert\n        /* \"#utility.yul\":12568:12685   */\n    tag_165:\n        /* \"#utility.yul\":12677:12678   */\n      0x00\n        /* \"#utility.yul\":12674:12675   */\n      dup1\n        /* \"#utility.yul\":12667:12679   */\n      revert\n        /* \"#utility.yul\":12691:12808   */\n    tag_154:\n        /* \"#utility.yul\":12800:12801   */\n      0x00\n        /* \"#utility.yul\":12797:12798   */\n      dup1\n        /* \"#utility.yul\":12790:12802   */\n      revert\n        /* \"#utility.yul\":12814:12931   */\n    tag_181:\n        /* \"#utility.yul\":12923:12924   */\n      0x00\n        /* \"#utility.yul\":12920:12921   */\n      dup1\n        /* \"#utility.yul\":12913:12925   */\n      revert\n        /* \"#utility.yul\":12937:13054   */\n    tag_174:\n        /* \"#utility.yul\":13046:13047   */\n      0x00\n        /* \"#utility.yul\":13043:13044   */\n      dup1\n        /* \"#utility.yul\":13036:13048   */\n      revert\n        /* \"#utility.yul\":13060:13162   */\n    tag_238:\n        /* \"#utility.yul\":13101:13107   */\n      0x00\n        /* \"#utility.yul\":13152:13154   */\n      0x1f\n        /* \"#utility.yul\":13148:13155   */\n      not\n        /* \"#utility.yul\":13143:13145   */\n      0x1f\n        /* \"#utility.yul\":13136:13141   */\n      dup4\n        /* \"#utility.yul\":13132:13146   */\n      add\n        /* \"#utility.yul\":13128:13156   */\n      and\n        /* \"#utility.yul\":13118:13156   */\n      swap1\n      pop\n        /* \"#utility.yul\":13060:13162   */\n      swap2\n      swap1\n      pop\n      jump\t// out\n        /* \"#utility.yul\":13168:13290   */\n    tag_160:\n        /* \"#utility.yul\":13241:13265   */\n      tag_313\n        /* \"#utility.yul\":13259:13264   */\n      dup2\n        /* \"#utility.yul\":13241:13265   */\n      tag_198\n      jump\t// in\n    tag_313:\n        /* \"#utility.yul\":13234:13239   */\n      dup2\n        /* \"#utility.yul\":13231:13266   */\n      eq\n        /* \"#utility.yul\":13221:13284   */\n      tag_314\n      jumpi\n        /* \"#utility.yul\":13280:13281   */\n      0x00\n        /* \"#utility.yul\":13277:13278   */\n      dup1\n        /* \"#utility.yul\":13270:13282   */\n      revert\n        /* \"#utility.yul\":13221:13284   */\n    tag_314:\n        /* \"#utility.yul\":13168:13290   */\n      pop\n      jump\t// out\n        /* \"#utility.yul\":13296:13418   */\n    tag_170:\n        /* \"#utility.yul\":13369:13393   */\n      tag_316\n        /* \"#utility.yul\":13387:13392   */\n      dup2\n        /* \"#utility.yul\":13369:13393   */\n      tag_281\n      jump\t// in\n    tag_316:\n        /* \"#utility.yul\":13362:13367   */\n      dup2\n        /* \"#utility.yul\":13359:13394   */\n      eq\n        /* \"#utility.yul\":13349:13412   */\n      tag_317\n      jumpi\n        /* \"#utility.yul\":13408:13409   */\n      0x00\n        /* \"#utility.yul\":13405:13406   */\n      dup1\n        /* \"#utility.yul\":13398:13410   */\n      revert\n        /* \"#utility.yul\":13349:13412   */\n    tag_317:\n        /* \"#utility.yul\":13296:13418   */\n      pop\n      jump\t// out\n\n    auxdata: 0xa264697066735822122025cff65d24241484a1d170170c763b4a2400b6b85adff1091f0f8fa3789157a364736f6c63430008070033\n}\n",
				"bytecode": {
					"linkReferences": {},
					"object": "608060405234801561001057600080fd5b5061123c806100206000396000f3fe608060405234801561001057600080fd5b50600436106100625760003560e01c806318f97575146100675780634f3d057a146100855780635ca08377146100a1578063880a3c86146100d1578063b1429303146100ef578063d7f40d7b14610120575b600080fd5b61006f61013e565b60405161007c9190610eb6565b60405180910390f35b61009f600480360381019061009a9190610c0f565b61037f565b005b6100bb60048036038101906100b69190610be2565b61045e565b6040516100c89190610e94565b60405180910390f35b6100d9610639565b6040516100e69190610eb6565b60405180910390f35b61010960048036038101906101049190610c58565b610780565b604051610117929190610e64565b60405180910390f35b61012861085c565b6040516101359190610e94565b60405180910390f35b606060005b600080549050811015610239573373ffffffffffffffffffffffffffffffffffffffff166000828154811061017b5761017a611155565b5b906000526020600020906002020160000160009054906101000a900473ffffffffffffffffffffffffffffffffffffffff1673ffffffffffffffffffffffffffffffffffffffff16141561022657600081815481106101dd576101dc611155565b5b9060005260206000209060020201600080820160006101000a81549073ffffffffffffffffffffffffffffffffffffffff02191690556001820160006102239190610a35565b50505b8080610231906110ae565b915050610143565b506000805480602002602001604051908101604052809291908181526020016000905b8282101561037657838290600052602060002090600202016040518060400160405290816000820160009054906101000a900473ffffffffffffffffffffffffffffffffffffffff1673ffffffffffffffffffffffffffffffffffffffff1673ffffffffffffffffffffffffffffffffffffffff1681526020016001820180546102e59061104b565b80601f01602080910402602001604051908101604052809291908181526020018280546103119061104b565b801561035e5780601f106103335761010080835404028352916020019161035e565b820191906000526020600020905b81548152906001019060200180831161034157829003601f168201915b5050505050815250508152602001906001019061025c565b50505050905090565b610387610a75565b33816000019073ffffffffffffffffffffffffffffffffffffffff16908173ffffffffffffffffffffffffffffffffffffffff1681525050818160200181905250600081908060018154018082558091505060019003906000526020600020906002020160009091909190915060008201518160000160006101000a81548173ffffffffffffffffffffffffffffffffffffffff021916908373ffffffffffffffffffffffffffffffffffffffff1602179055506020820151816001019080519060200190610457929190610aa5565b5050505050565b60606000808054905067ffffffffffffffff8111156104805761047f611184565b5b6040519080825280602002602001820160405280156104b357816020015b606081526020019060019003908161049e5790505b5090506000805b60008054905081101561062e573373ffffffffffffffffffffffffffffffffffffffff16600082815481106104f2576104f1611155565b5b906000526020600020906002020160000160009054906101000a900473ffffffffffffffffffffffffffffffffffffffff1673ffffffffffffffffffffffffffffffffffffffff16141561061b576000818154811061055457610553611155565b5b906000526020600020906002020160010180546105709061104b565b80601f016020809104026020016040519081016040528092919081815260200182805461059c9061104b565b80156105e95780601f106105be576101008083540402835291602001916105e9565b820191906000526020600020905b8154815290600101906020018083116105cc57829003601f168201915b505050505083838151811061060157610600611155565b5b60200260200101819052508180610617906110ae565b9250505b8080610626906110ae565b9150506104ba565b508192505050919050565b60606000805480602002602001604051908101604052809291908181526020016000905b8282101561077757838290600052602060002090600202016040518060400160405290816000820160009054906101000a900473ffffffffffffffffffffffffffffffffffffffff1673ffffffffffffffffffffffffffffffffffffffff1673ffffffffffffffffffffffffffffffffffffffff1681526020016001820180546106e69061104b565b80601f01602080910402602001604051908101604052809291908181526020018280546107129061104b565b801561075f5780601f106107345761010080835404028352916020019161075f565b820191906000526020600020905b81548152906001019060200180831161074257829003601f168201915b5050505050815250508152602001906001019061065d565b50505050905090565b6000818154811061079057600080fd5b90600052602060002090600202016000915090508060000160009054906101000a900473ffffffffffffffffffffffffffffffffffffffff16908060010180546107d99061104b565b80601f01602080910402602001604051908101604052809291908181526020018280546108059061104b565b80156108525780601f1061082757610100808354040283529160200191610852565b820191906000526020600020905b81548152906001019060200180831161083557829003601f168201915b5050505050905082565b60606000808054905067ffffffffffffffff81111561087e5761087d611184565b5b6040519080825280602002602001820160405280156108b157816020015b606081526020019060019003908161089c5790505b5090506000805b600080549050811015610a2c573373ffffffffffffffffffffffffffffffffffffffff16600082815481106108f0576108ef611155565b5b906000526020600020906002020160000160009054906101000a900473ffffffffffffffffffffffffffffffffffffffff1673ffffffffffffffffffffffffffffffffffffffff161415610a19576000818154811061095257610951611155565b5b9060005260206000209060020201600101805461096e9061104b565b80601f016020809104026020016040519081016040528092919081815260200182805461099a9061104b565b80156109e75780601f106109bc576101008083540402835291602001916109e7565b820191906000526020600020905b8154815290600101906020018083116109ca57829003601f168201915b50505050508383815181106109ff576109fe611155565b5b60200260200101819052508180610a15906110ae565b9250505b8080610a24906110ae565b9150506108b8565b50819250505090565b508054610a419061104b565b6000825580601f10610a535750610a72565b601f016020900490600052602060002090810190610a719190610b2b565b5b50565b6040518060400160405280600073ffffffffffffffffffffffffffffffffffffffff168152602001606081525090565b828054610ab19061104b565b90600052602060002090601f016020900481019282610ad35760008555610b1a565b82601f10610aec57805160ff1916838001178555610b1a565b82800160010185558215610b1a579182015b82811115610b19578251825591602001919060010190610afe565b5b509050610b279190610b2b565b5090565b5b80821115610b44576000816000905550600101610b2c565b5090565b6000610b5b610b5684610efd565b610ed8565b905082815260208101848484011115610b7757610b766111b8565b5b610b82848285611009565b509392505050565b600081359050610b99816111d8565b92915050565b600082601f830112610bb457610bb36111b3565b5b8135610bc4848260208601610b48565b91505092915050565b600081359050610bdc816111ef565b92915050565b600060208284031215610bf857610bf76111c2565b5b6000610c0684828501610b8a565b91505092915050565b600060208284031215610c2557610c246111c2565b5b600082013567ffffffffffffffff811115610c4357610c426111bd565b5b610c4f84828501610b9f565b91505092915050565b600060208284031215610c6e57610c6d6111c2565b5b6000610c7c84828501610bcd565b91505092915050565b6000610c918383610db5565b905092915050565b6000610ca58383610e27565b905092915050565b610cb681610fcd565b82525050565b610cc581610fcd565b82525050565b6000610cd682610f4e565b610ce08185610f89565b935083602082028501610cf285610f2e565b8060005b85811015610d2e5784840389528151610d0f8582610c85565b9450610d1a83610f6f565b925060208a01995050600181019050610cf6565b50829750879550505050505092915050565b6000610d4b82610f59565b610d558185610f9a565b935083602082028501610d6785610f3e565b8060005b85811015610da35784840389528151610d848582610c99565b9450610d8f83610f7c565b925060208a01995050600181019050610d6b565b50829750879550505050505092915050565b6000610dc082610f64565b610dca8185610fab565b9350610dda818560208601611018565b610de3816111c7565b840191505092915050565b6000610df982610f64565b610e038185610fbc565b9350610e13818560208601611018565b610e1c816111c7565b840191505092915050565b6000604083016000830151610e3f6000860182610cad565b5060208301518482036020860152610e578282610db5565b9150508091505092915050565b6000604082019050610e796000830185610cbc565b8181036020830152610e8b8184610dee565b90509392505050565b60006020820190508181036000830152610eae8184610ccb565b905092915050565b60006020820190508181036000830152610ed08184610d40565b905092915050565b6000610ee2610ef3565b9050610eee828261107d565b919050565b6000604051905090565b600067ffffffffffffffff821115610f1857610f17611184565b5b610f21826111c7565b9050602081019050919050565b6000819050602082019050919050565b6000819050602082019050919050565b600081519050919050565b600081519050919050565b600081519050919050565b6000602082019050919050565b6000602082019050919050565b600082825260208201905092915050565b600082825260208201905092915050565b600082825260208201905092915050565b600082825260208201905092915050565b6000610fd882610fdf565b9050919050565b600073ffffffffffffffffffffffffffffffffffffffff82169050919050565b6000819050919050565b82818337600083830152505050565b60005b8381101561103657808201518184015260208101905061101b565b83811115611045576000848401525b50505050565b6000600282049050600182168061106357607f821691505b6020821081141561107757611076611126565b5b50919050565b611086826111c7565b810181811067ffffffffffffffff821117156110a5576110a4611184565b5b80604052505050565b60006110b982610fff565b91507fffffffffffffffffffffffffffffffffffffffffffffffffffffffffffffffff8214156110ec576110eb6110f7565b5b600182019050919050565b7f4e487b7100000000000000000000000000000000000000000000000000000000600052601160045260246000fd5b7f4e487b7100000000000000000000000000000000000000000000000000000000600052602260045260246000fd5b7f4e487b7100000000000000000000000000000000000000000000000000000000600052603260045260246000fd5b7f4e487b7100000000000000000000000000000000000000000000000000000000600052604160045260246000fd5b600080fd5b600080fd5b600080fd5b600080fd5b6000601f19601f8301169050919050565b6111e181610fcd565b81146111ec57600080fd5b50565b6111f881610fff565b811461120357600080fd5b5056fea264697066735822122025cff65d24241484a1d170170c763b4a2400b6b85adff1091f0f8fa3789157a364736f6c63430008070033",
					"opcodes": "PUSH1 0x80 PUSH1 0x40 MSTORE CALLVALUE DUP1 ISZERO PUSH2 0x10 JUMPI PUSH1 0x0 DUP1 REVERT JUMPDEST POP PUSH2 0x123C DUP1 PUSH2 0x20 PUSH1 0x0 CODECOPY PUSH1 0x0 RETURN INVALID PUSH1 0x80 PUSH1 0x40 MSTORE CALLVALUE DUP1 ISZERO PUSH2 0x10 JUMPI PUSH1 0x0 DUP1 REVERT JUMPDEST POP PUSH1 0x4 CALLDATASIZE LT PUSH2 0x62 JUMPI PUSH1 0x0 CALLDATALOAD PUSH1 0xE0 SHR DUP1 PUSH4 0x18F97575 EQ PUSH2 0x67 JUMPI DUP1 PUSH4 0x4F3D057A EQ PUSH2 0x85 JUMPI DUP1 PUSH4 0x5CA08377 EQ PUSH2 0xA1 JUMPI DUP1 PUSH4 0x880A3C86 EQ PUSH2 0xD1 JUMPI DUP1 PUSH4 0xB1429303 EQ PUSH2 0xEF JUMPI DUP1 PUSH4 0xD7F40D7B EQ PUSH2 0x120 JUMPI JUMPDEST PUSH1 0x0 DUP1 REVERT JUMPDEST PUSH2 0x6F PUSH2 0x13E JUMP JUMPDEST PUSH1 0x40 MLOAD PUSH2 0x7C SWAP2 SWAP1 PUSH2 0xEB6 JUMP JUMPDEST PUSH1 0x40 MLOAD DUP1 SWAP2 SUB SWAP1 RETURN JUMPDEST PUSH2 0x9F PUSH1 0x4 DUP1 CALLDATASIZE SUB DUP2 ADD SWAP1 PUSH2 0x9A SWAP2 SWAP1 PUSH2 0xC0F JUMP JUMPDEST PUSH2 0x37F JUMP JUMPDEST STOP JUMPDEST PUSH2 0xBB PUSH1 0x4 DUP1 CALLDATASIZE SUB DUP2 ADD SWAP1 PUSH2 0xB6 SWAP2 SWAP1 PUSH2 0xBE2 JUMP JUMPDEST PUSH2 0x45E JUMP JUMPDEST PUSH1 0x40 MLOAD PUSH2 0xC8 SWAP2 SWAP1 PUSH2 0xE94 JUMP JUMPDEST PUSH1 0x40 MLOAD DUP1 SWAP2 SUB SWAP1 RETURN JUMPDEST PUSH2 0xD9 PUSH2 0x639 JUMP JUMPDEST PUSH1 0x40 MLOAD PUSH2 0xE6 SWAP2 SWAP1 PUSH2 0xEB6 JUMP JUMPDEST PUSH1 0x40 MLOAD DUP1 SWAP2 SUB SWAP1 RETURN JUMPDEST PUSH2 0x109 PUSH1 0x4 DUP1 CALLDATASIZE SUB DUP2 ADD SWAP1 PUSH2 0x104 SWAP2 SWAP1 PUSH2 0xC58 JUMP JUMPDEST PUSH2 0x780 JUMP JUMPDEST PUSH1 0x40 MLOAD PUSH2 0x117 SWAP3 SWAP2 SWAP1 PUSH2 0xE64 JUMP JUMPDEST PUSH1 0x40 MLOAD DUP1 SWAP2 SUB SWAP1 RETURN JUMPDEST PUSH2 0x128 PUSH2 0x85C JUMP JUMPDEST PUSH1 0x40 MLOAD PUSH2 0x135 SWAP2 SWAP1 PUSH2 0xE94 JUMP JUMPDEST PUSH1 0x40 MLOAD DUP1 SWAP2 SUB SWAP1 RETURN JUMPDEST PUSH1 0x60 PUSH1 0x0 JUMPDEST PUSH1 0x0 DUP1 SLOAD SWAP1 POP DUP2 LT ISZERO PUSH2 0x239 JUMPI CALLER PUSH20 0xFFFFFFFFFFFFFFFFFFFFFFFFFFFFFFFFFFFFFFFF AND PUSH1 0x0 DUP3 DUP2 SLOAD DUP2 LT PUSH2 0x17B JUMPI PUSH2 0x17A PUSH2 0x1155 JUMP JUMPDEST JUMPDEST SWAP1 PUSH1 0x0 MSTORE PUSH1 0x20 PUSH1 0x0 KECCAK256 SWAP1 PUSH1 0x2 MUL ADD PUSH1 0x0 ADD PUSH1 0x0 SWAP1 SLOAD SWAP1 PUSH2 0x100 EXP SWAP1 DIV PUSH20 0xFFFFFFFFFFFFFFFFFFFFFFFFFFFFFFFFFFFFFFFF AND PUSH20 0xFFFFFFFFFFFFFFFFFFFFFFFFFFFFFFFFFFFFFFFF AND EQ ISZERO PUSH2 0x226 JUMPI PUSH1 0x0 DUP2 DUP2 SLOAD DUP2 LT PUSH2 0x1DD JUMPI PUSH2 0x1DC PUSH2 0x1155 JUMP JUMPDEST JUMPDEST SWAP1 PUSH1 0x0 MSTORE PUSH1 0x20 PUSH1 0x0 KECCAK256 SWAP1 PUSH1 0x2 MUL ADD PUSH1 0x0 DUP1 DUP3 ADD PUSH1 0x0 PUSH2 0x100 EXP DUP2 SLOAD SWAP1 PUSH20 0xFFFFFFFFFFFFFFFFFFFFFFFFFFFFFFFFFFFFFFFF MUL NOT AND SWAP1 SSTORE PUSH1 0x1 DUP3 ADD PUSH1 0x0 PUSH2 0x223 SWAP2 SWAP1 PUSH2 0xA35 JUMP JUMPDEST POP POP JUMPDEST DUP1 DUP1 PUSH2 0x231 SWAP1 PUSH2 0x10AE JUMP JUMPDEST SWAP2 POP POP PUSH2 0x143 JUMP JUMPDEST POP PUSH1 0x0 DUP1 SLOAD DUP1 PUSH1 0x20 MUL PUSH1 0x20 ADD PUSH1 0x40 MLOAD SWAP1 DUP2 ADD PUSH1 0x40 MSTORE DUP1 SWAP3 SWAP2 SWAP1 DUP2 DUP2 MSTORE PUSH1 0x20 ADD PUSH1 0x0 SWAP1 JUMPDEST DUP3 DUP3 LT ISZERO PUSH2 0x376 JUMPI DUP4 DUP3 SWAP1 PUSH1 0x0 MSTORE PUSH1 0x20 PUSH1 0x0 KECCAK256 SWAP1 PUSH1 0x2 MUL ADD PUSH1 0x40 MLOAD DUP1 PUSH1 0x40 ADD PUSH1 0x40 MSTORE SWAP1 DUP2 PUSH1 0x0 DUP3 ADD PUSH1 0x0 SWAP1 SLOAD SWAP1 PUSH2 0x100 EXP SWAP1 DIV PUSH20 0xFFFFFFFFFFFFFFFFFFFFFFFFFFFFFFFFFFFFFFFF AND PUSH20 0xFFFFFFFFFFFFFFFFFFFFFFFFFFFFFFFFFFFFFFFF AND PUSH20 0xFFFFFFFFFFFFFFFFFFFFFFFFFFFFFFFFFFFFFFFF AND DUP2 MSTORE PUSH1 0x20 ADD PUSH1 0x1 DUP3 ADD DUP1 SLOAD PUSH2 0x2E5 SWAP1 PUSH2 0x104B JUMP JUMPDEST DUP1 PUSH1 0x1F ADD PUSH1 0x20 DUP1 SWAP2 DIV MUL PUSH1 0x20 ADD PUSH1 0x40 MLOAD SWAP1 DUP2 ADD PUSH1 0x40 MSTORE DUP1 SWAP3 SWAP2 SWAP1 DUP2 DUP2 MSTORE PUSH1 0x20 ADD DUP3 DUP1 SLOAD PUSH2 0x311 SWAP1 PUSH2 0x104B JUMP JUMPDEST DUP1 ISZERO PUSH2 0x35E JUMPI DUP1 PUSH1 0x1F LT PUSH2 0x333 JUMPI PUSH2 0x100 DUP1 DUP4 SLOAD DIV MUL DUP4 MSTORE SWAP2 PUSH1 0x20 ADD SWAP2 PUSH2 0x35E JUMP JUMPDEST DUP3 ADD SWAP2 SWAP1 PUSH1 0x0 MSTORE PUSH1 0x20 PUSH1 0x0 KECCAK256 SWAP1 JUMPDEST DUP2 SLOAD DUP2 MSTORE SWAP1 PUSH1 0x1 ADD SWAP1 PUSH1 0x20 ADD DUP1 DUP4 GT PUSH2 0x341 JUMPI DUP3 SWAP1 SUB PUSH1 0x1F AND DUP3 ADD SWAP2 JUMPDEST POP POP POP POP POP DUP2 MSTORE POP POP DUP2 MSTORE PUSH1 0x20 ADD SWAP1 PUSH1 0x1 ADD SWAP1 PUSH2 0x25C JUMP JUMPDEST POP POP POP POP SWAP1 POP SWAP1 JUMP JUMPDEST PUSH2 0x387 PUSH2 0xA75 JUMP JUMPDEST CALLER DUP2 PUSH1 0x0 ADD SWAP1 PUSH20 0xFFFFFFFFFFFFFFFFFFFFFFFFFFFFFFFFFFFFFFFF AND SWAP1 DUP2 PUSH20 0xFFFFFFFFFFFFFFFFFFFFFFFFFFFFFFFFFFFFFFFF AND DUP2 MSTORE POP POP DUP2 DUP2 PUSH1 0x20 ADD DUP2 SWAP1 MSTORE POP PUSH1 0x0 DUP2 SWAP1 DUP1 PUSH1 0x1 DUP2 SLOAD ADD DUP1 DUP3 SSTORE DUP1 SWAP2 POP POP PUSH1 0x1 SWAP1 SUB SWAP1 PUSH1 0x0 MSTORE PUSH1 0x20 PUSH1 0x0 KECCAK256 SWAP1 PUSH1 0x2 MUL ADD PUSH1 0x0 SWAP1 SWAP2 SWAP1 SWAP2 SWAP1 SWAP2 POP PUSH1 0x0 DUP3 ADD MLOAD DUP2 PUSH1 0x0 ADD PUSH1 0x0 PUSH2 0x100 EXP DUP2 SLOAD DUP2 PUSH20 0xFFFFFFFFFFFFFFFFFFFFFFFFFFFFFFFFFFFFFFFF MUL NOT AND SWAP1 DUP4 PUSH20 0xFFFFFFFFFFFFFFFFFFFFFFFFFFFFFFFFFFFFFFFF AND MUL OR SWAP1 SSTORE POP PUSH1 0x20 DUP3 ADD MLOAD DUP2 PUSH1 0x1 ADD SWAP1 DUP1 MLOAD SWAP1 PUSH1 0x20 ADD SWAP1 PUSH2 0x457 SWAP3 SWAP2 SWAP1 PUSH2 0xAA5 JUMP JUMPDEST POP POP POP POP POP JUMP JUMPDEST PUSH1 0x60 PUSH1 0x0 DUP1 DUP1 SLOAD SWAP1 POP PUSH8 0xFFFFFFFFFFFFFFFF DUP2 GT ISZERO PUSH2 0x480 JUMPI PUSH2 0x47F PUSH2 0x1184 JUMP JUMPDEST JUMPDEST PUSH1 0x40 MLOAD SWAP1 DUP1 DUP3 MSTORE DUP1 PUSH1 0x20 MUL PUSH1 0x20 ADD DUP3 ADD PUSH1 0x40 MSTORE DUP1 ISZERO PUSH2 0x4B3 JUMPI DUP2 PUSH1 0x20 ADD JUMPDEST PUSH1 0x60 DUP2 MSTORE PUSH1 0x20 ADD SWAP1 PUSH1 0x1 SWAP1 SUB SWAP1 DUP2 PUSH2 0x49E JUMPI SWAP1 POP JUMPDEST POP SWAP1 POP PUSH1 0x0 DUP1 JUMPDEST PUSH1 0x0 DUP1 SLOAD SWAP1 POP DUP2 LT ISZERO PUSH2 0x62E JUMPI CALLER PUSH20 0xFFFFFFFFFFFFFFFFFFFFFFFFFFFFFFFFFFFFFFFF AND PUSH1 0x0 DUP3 DUP2 SLOAD DUP2 LT PUSH2 0x4F2 JUMPI PUSH2 0x4F1 PUSH2 0x1155 JUMP JUMPDEST JUMPDEST SWAP1 PUSH1 0x0 MSTORE PUSH1 0x20 PUSH1 0x0 KECCAK256 SWAP1 PUSH1 0x2 MUL ADD PUSH1 0x0 ADD PUSH1 0x0 SWAP1 SLOAD SWAP1 PUSH2 0x100 EXP SWAP1 DIV PUSH20 0xFFFFFFFFFFFFFFFFFFFFFFFFFFFFFFFFFFFFFFFF AND PUSH20 0xFFFFFFFFFFFFFFFFFFFFFFFFFFFFFFFFFFFFFFFF AND EQ ISZERO PUSH2 0x61B JUMPI PUSH1 0x0 DUP2 DUP2 SLOAD DUP2 LT PUSH2 0x554 JUMPI PUSH2 0x553 PUSH2 0x1155 JUMP JUMPDEST JUMPDEST SWAP1 PUSH1 0x0 MSTORE PUSH1 0x20 PUSH1 0x0 KECCAK256 SWAP1 PUSH1 0x2 MUL ADD PUSH1 0x1 ADD DUP1 SLOAD PUSH2 0x570 SWAP1 PUSH2 0x104B JUMP JUMPDEST DUP1 PUSH1 0x1F ADD PUSH1 0x20 DUP1 SWAP2 DIV MUL PUSH1 0x20 ADD PUSH1 0x40 MLOAD SWAP1 DUP2 ADD PUSH1 0x40 MSTORE DUP1 SWAP3 SWAP2 SWAP1 DUP2 DUP2 MSTORE PUSH1 0x20 ADD DUP3 DUP1 SLOAD PUSH2 0x59C SWAP1 PUSH2 0x104B JUMP JUMPDEST DUP1 ISZERO PUSH2 0x5E9 JUMPI DUP1 PUSH1 0x1F LT PUSH2 0x5BE JUMPI PUSH2 0x100 DUP1 DUP4 SLOAD DIV MUL DUP4 MSTORE SWAP2 PUSH1 0x20 ADD SWAP2 PUSH2 0x5E9 JUMP JUMPDEST DUP3 ADD SWAP2 SWAP1 PUSH1 0x0 MSTORE PUSH1 0x20 PUSH1 0x0 KECCAK256 SWAP1 JUMPDEST DUP2 SLOAD DUP2 MSTORE SWAP1 PUSH1 0x1 ADD SWAP1 PUSH1 0x20 ADD DUP1 DUP4 GT PUSH2 0x5CC JUMPI DUP3 SWAP1 SUB PUSH1 0x1F AND DUP3 ADD SWAP2 JUMPDEST POP POP POP POP POP DUP4 DUP4 DUP2 MLOAD DUP2 LT PUSH2 0x601 JUMPI PUSH2 0x600 PUSH2 0x1155 JUMP JUMPDEST JUMPDEST PUSH1 0x20 MUL PUSH1 0x20 ADD ADD DUP2 SWAP1 MSTORE POP DUP2 DUP1 PUSH2 0x617 SWAP1 PUSH2 0x10AE JUMP JUMPDEST SWAP3 POP POP JUMPDEST DUP1 DUP1 PUSH2 0x626 SWAP1 PUSH2 0x10AE JUMP JUMPDEST SWAP2 POP POP PUSH2 0x4BA JUMP JUMPDEST POP DUP2 SWAP3 POP POP POP SWAP2 SWAP1 POP JUMP JUMPDEST PUSH1 0x60 PUSH1 0x0 DUP1 SLOAD DUP1 PUSH1 0x20 MUL PUSH1 0x20 ADD PUSH1 0x40 MLOAD SWAP1 DUP2 ADD PUSH1 0x40 MSTORE DUP1 SWAP3 SWAP2 SWAP1 DUP2 DUP2 MSTORE PUSH1 0x20 ADD PUSH1 0x0 SWAP1 JUMPDEST DUP3 DUP3 LT ISZERO PUSH2 0x777 JUMPI DUP4 DUP3 SWAP1 PUSH1 0x0 MSTORE PUSH1 0x20 PUSH1 0x0 KECCAK256 SWAP1 PUSH1 0x2 MUL ADD PUSH1 0x40 MLOAD DUP1 PUSH1 0x40 ADD PUSH1 0x40 MSTORE SWAP1 DUP2 PUSH1 0x0 DUP3 ADD PUSH1 0x0 SWAP1 SLOAD SWAP1 PUSH2 0x100 EXP SWAP1 DIV PUSH20 0xFFFFFFFFFFFFFFFFFFFFFFFFFFFFFFFFFFFFFFFF AND PUSH20 0xFFFFFFFFFFFFFFFFFFFFFFFFFFFFFFFFFFFFFFFF AND PUSH20 0xFFFFFFFFFFFFFFFFFFFFFFFFFFFFFFFFFFFFFFFF AND DUP2 MSTORE PUSH1 0x20 ADD PUSH1 0x1 DUP3 ADD DUP1 SLOAD PUSH2 0x6E6 SWAP1 PUSH2 0x104B JUMP JUMPDEST DUP1 PUSH1 0x1F ADD PUSH1 0x20 DUP1 SWAP2 DIV MUL PUSH1 0x20 ADD PUSH1 0x40 MLOAD SWAP1 DUP2 ADD PUSH1 0x40 MSTORE DUP1 SWAP3 SWAP2 SWAP1 DUP2 DUP2 MSTORE PUSH1 0x20 ADD DUP3 DUP1 SLOAD PUSH2 0x712 SWAP1 PUSH2 0x104B JUMP JUMPDEST DUP1 ISZERO PUSH2 0x75F JUMPI DUP1 PUSH1 0x1F LT PUSH2 0x734 JUMPI PUSH2 0x100 DUP1 DUP4 SLOAD DIV MUL DUP4 MSTORE SWAP2 PUSH1 0x20 ADD SWAP2 PUSH2 0x75F JUMP JUMPDEST DUP3 ADD SWAP2 SWAP1 PUSH1 0x0 MSTORE PUSH1 0x20 PUSH1 0x0 KECCAK256 SWAP1 JUMPDEST DUP2 SLOAD DUP2 MSTORE SWAP1 PUSH1 0x1 ADD SWAP1 PUSH1 0x20 ADD DUP1 DUP4 GT PUSH2 0x742 JUMPI DUP3 SWAP1 SUB PUSH1 0x1F AND DUP3 ADD SWAP2 JUMPDEST POP POP POP POP POP DUP2 MSTORE POP POP DUP2 MSTORE PUSH1 0x20 ADD SWAP1 PUSH1 0x1 ADD SWAP1 PUSH2 0x65D JUMP JUMPDEST POP POP POP POP SWAP1 POP SWAP1 JUMP JUMPDEST PUSH1 0x0 DUP2 DUP2 SLOAD DUP2 LT PUSH2 0x790 JUMPI PUSH1 0x0 DUP1 REVERT JUMPDEST SWAP1 PUSH1 0x0 MSTORE PUSH1 0x20 PUSH1 0x0 KECCAK256 SWAP1 PUSH1 0x2 MUL ADD PUSH1 0x0 SWAP2 POP SWAP1 POP DUP1 PUSH1 0x0 ADD PUSH1 0x0 SWAP1 SLOAD SWAP1 PUSH2 0x100 EXP SWAP1 DIV PUSH20 0xFFFFFFFFFFFFFFFFFFFFFFFFFFFFFFFFFFFFFFFF AND SWAP1 DUP1 PUSH1 0x1 ADD DUP1 SLOAD PUSH2 0x7D9 SWAP1 PUSH2 0x104B JUMP JUMPDEST DUP1 PUSH1 0x1F ADD PUSH1 0x20 DUP1 SWAP2 DIV MUL PUSH1 0x20 ADD PUSH1 0x40 MLOAD SWAP1 DUP2 ADD PUSH1 0x40 MSTORE DUP1 SWAP3 SWAP2 SWAP1 DUP2 DUP2 MSTORE PUSH1 0x20 ADD DUP3 DUP1 SLOAD PUSH2 0x805 SWAP1 PUSH2 0x104B JUMP JUMPDEST DUP1 ISZERO PUSH2 0x852 JUMPI DUP1 PUSH1 0x1F LT PUSH2 0x827 JUMPI PUSH2 0x100 DUP1 DUP4 SLOAD DIV MUL DUP4 MSTORE SWAP2 PUSH1 0x20 ADD SWAP2 PUSH2 0x852 JUMP JUMPDEST DUP3 ADD SWAP2 SWAP1 PUSH1 0x0 MSTORE PUSH1 0x20 PUSH1 0x0 KECCAK256 SWAP1 JUMPDEST DUP2 SLOAD DUP2 MSTORE SWAP1 PUSH1 0x1 ADD SWAP1 PUSH1 0x20 ADD DUP1 DUP4 GT PUSH2 0x835 JUMPI DUP3 SWAP1 SUB PUSH1 0x1F AND DUP3 ADD SWAP2 JUMPDEST POP POP POP POP POP SWAP1 POP DUP3 JUMP JUMPDEST PUSH1 0x60 PUSH1 0x0 DUP1 DUP1 SLOAD SWAP1 POP PUSH8 0xFFFFFFFFFFFFFFFF DUP2 GT ISZERO PUSH2 0x87E JUMPI PUSH2 0x87D PUSH2 0x1184 JUMP JUMPDEST JUMPDEST PUSH1 0x40 MLOAD SWAP1 DUP1 DUP3 MSTORE DUP1 PUSH1 0x20 MUL PUSH1 0x20 ADD DUP3 ADD PUSH1 0x40 MSTORE DUP1 ISZERO PUSH2 0x8B1 JUMPI DUP2 PUSH1 0x20 ADD JUMPDEST PUSH1 0x60 DUP2 MSTORE PUSH1 0x20 ADD SWAP1 PUSH1 0x1 SWAP1 SUB SWAP1 DUP2 PUSH2 0x89C JUMPI SWAP1 POP JUMPDEST POP SWAP1 POP PUSH1 0x0 DUP1 JUMPDEST PUSH1 0x0 DUP1 SLOAD SWAP1 POP DUP2 LT ISZERO PUSH2 0xA2C JUMPI CALLER PUSH20 0xFFFFFFFFFFFFFFFFFFFFFFFFFFFFFFFFFFFFFFFF AND PUSH1 0x0 DUP3 DUP2 SLOAD DUP2 LT PUSH2 0x8F0 JUMPI PUSH2 0x8EF PUSH2 0x1155 JUMP JUMPDEST JUMPDEST SWAP1 PUSH1 0x0 MSTORE PUSH1 0x20 PUSH1 0x0 KECCAK256 SWAP1 PUSH1 0x2 MUL ADD PUSH1 0x0 ADD PUSH1 0x0 SWAP1 SLOAD SWAP1 PUSH2 0x100 EXP SWAP1 DIV PUSH20 0xFFFFFFFFFFFFFFFFFFFFFFFFFFFFFFFFFFFFFFFF AND PUSH20 0xFFFFFFFFFFFFFFFFFFFFFFFFFFFFFFFFFFFFFFFF AND EQ ISZERO PUSH2 0xA19 JUMPI PUSH1 0x0 DUP2 DUP2 SLOAD DUP2 LT PUSH2 0x952 JUMPI PUSH2 0x951 PUSH2 0x1155 JUMP JUMPDEST JUMPDEST SWAP1 PUSH1 0x0 MSTORE PUSH1 0x20 PUSH1 0x0 KECCAK256 SWAP1 PUSH1 0x2 MUL ADD PUSH1 0x1 ADD DUP1 SLOAD PUSH2 0x96E SWAP1 PUSH2 0x104B JUMP JUMPDEST DUP1 PUSH1 0x1F ADD PUSH1 0x20 DUP1 SWAP2 DIV MUL PUSH1 0x20 ADD PUSH1 0x40 MLOAD SWAP1 DUP2 ADD PUSH1 0x40 MSTORE DUP1 SWAP3 SWAP2 SWAP1 DUP2 DUP2 MSTORE PUSH1 0x20 ADD DUP3 DUP1 SLOAD PUSH2 0x99A SWAP1 PUSH2 0x104B JUMP JUMPDEST DUP1 ISZERO PUSH2 0x9E7 JUMPI DUP1 PUSH1 0x1F LT PUSH2 0x9BC JUMPI PUSH2 0x100 DUP1 DUP4 SLOAD DIV MUL DUP4 MSTORE SWAP2 PUSH1 0x20 ADD SWAP2 PUSH2 0x9E7 JUMP JUMPDEST DUP3 ADD SWAP2 SWAP1 PUSH1 0x0 MSTORE PUSH1 0x20 PUSH1 0x0 KECCAK256 SWAP1 JUMPDEST DUP2 SLOAD DUP2 MSTORE SWAP1 PUSH1 0x1 ADD SWAP1 PUSH1 0x20 ADD DUP1 DUP4 GT PUSH2 0x9CA JUMPI DUP3 SWAP1 SUB PUSH1 0x1F AND DUP3 ADD SWAP2 JUMPDEST POP POP POP POP POP DUP4 DUP4 DUP2 MLOAD DUP2 LT PUSH2 0x9FF JUMPI PUSH2 0x9FE PUSH2 0x1155 JUMP JUMPDEST JUMPDEST PUSH1 0x20 MUL PUSH1 0x20 ADD ADD DUP2 SWAP1 MSTORE POP DUP2 DUP1 PUSH2 0xA15 SWAP1 PUSH2 0x10AE JUMP JUMPDEST SWAP3 POP POP JUMPDEST DUP1 DUP1 PUSH2 0xA24 SWAP1 PUSH2 0x10AE JUMP JUMPDEST SWAP2 POP POP PUSH2 0x8B8 JUMP JUMPDEST POP DUP2 SWAP3 POP POP POP SWAP1 JUMP JUMPDEST POP DUP1 SLOAD PUSH2 0xA41 SWAP1 PUSH2 0x104B JUMP JUMPDEST PUSH1 0x0 DUP3 SSTORE DUP1 PUSH1 0x1F LT PUSH2 0xA53 JUMPI POP PUSH2 0xA72 JUMP JUMPDEST PUSH1 0x1F ADD PUSH1 0x20 SWAP1 DIV SWAP1 PUSH1 0x0 MSTORE PUSH1 0x20 PUSH1 0x0 KECCAK256 SWAP1 DUP2 ADD SWAP1 PUSH2 0xA71 SWAP2 SWAP1 PUSH2 0xB2B JUMP JUMPDEST JUMPDEST POP JUMP JUMPDEST PUSH1 0x40 MLOAD DUP1 PUSH1 0x40 ADD PUSH1 0x40 MSTORE DUP1 PUSH1 0x0 PUSH20 0xFFFFFFFFFFFFFFFFFFFFFFFFFFFFFFFFFFFFFFFF AND DUP2 MSTORE PUSH1 0x20 ADD PUSH1 0x60 DUP2 MSTORE POP SWAP1 JUMP JUMPDEST DUP3 DUP1 SLOAD PUSH2 0xAB1 SWAP1 PUSH2 0x104B JUMP JUMPDEST SWAP1 PUSH1 0x0 MSTORE PUSH1 0x20 PUSH1 0x0 KECCAK256 SWAP1 PUSH1 0x1F ADD PUSH1 0x20 SWAP1 DIV DUP2 ADD SWAP3 DUP3 PUSH2 0xAD3 JUMPI PUSH1 0x0 DUP6 SSTORE PUSH2 0xB1A JUMP JUMPDEST DUP3 PUSH1 0x1F LT PUSH2 0xAEC JUMPI DUP1 MLOAD PUSH1 0xFF NOT AND DUP4 DUP1 ADD OR DUP6 SSTORE PUSH2 0xB1A JUMP JUMPDEST DUP3 DUP1 ADD PUSH1 0x1 ADD DUP6 SSTORE DUP3 ISZERO PUSH2 0xB1A JUMPI SWAP2 DUP3 ADD JUMPDEST DUP3 DUP2 GT ISZERO PUSH2 0xB19 JUMPI DUP3 MLOAD DUP3 SSTORE SWAP2 PUSH1 0x20 ADD SWAP2 SWAP1 PUSH1 0x1 ADD SWAP1 PUSH2 0xAFE JUMP JUMPDEST JUMPDEST POP SWAP1 POP PUSH2 0xB27 SWAP2 SWAP1 PUSH2 0xB2B JUMP JUMPDEST POP SWAP1 JUMP JUMPDEST JUMPDEST DUP1 DUP3 GT ISZERO PUSH2 0xB44 JUMPI PUSH1 0x0 DUP2 PUSH1 0x0 SWAP1 SSTORE POP PUSH1 0x1 ADD PUSH2 0xB2C JUMP JUMPDEST POP SWAP1 JUMP JUMPDEST PUSH1 0x0 PUSH2 0xB5B PUSH2 0xB56 DUP5 PUSH2 0xEFD JUMP JUMPDEST PUSH2 0xED8 JUMP JUMPDEST SWAP1 POP DUP3 DUP2 MSTORE PUSH1 0x20 DUP2 ADD DUP5 DUP5 DUP5 ADD GT ISZERO PUSH2 0xB77 JUMPI PUSH2 0xB76 PUSH2 0x11B8 JUMP JUMPDEST JUMPDEST PUSH2 0xB82 DUP5 DUP3 DUP6 PUSH2 0x1009 JUMP JUMPDEST POP SWAP4 SWAP3 POP POP POP JUMP JUMPDEST PUSH1 0x0 DUP2 CALLDATALOAD SWAP1 POP PUSH2 0xB99 DUP2 PUSH2 0x11D8 JUMP JUMPDEST SWAP3 SWAP2 POP POP JUMP JUMPDEST PUSH1 0x0 DUP3 PUSH1 0x1F DUP4 ADD SLT PUSH2 0xBB4 JUMPI PUSH2 0xBB3 PUSH2 0x11B3 JUMP JUMPDEST JUMPDEST DUP2 CALLDATALOAD PUSH2 0xBC4 DUP5 DUP3 PUSH1 0x20 DUP7 ADD PUSH2 0xB48 JUMP JUMPDEST SWAP2 POP POP SWAP3 SWAP2 POP POP JUMP JUMPDEST PUSH1 0x0 DUP2 CALLDATALOAD SWAP1 POP PUSH2 0xBDC DUP2 PUSH2 0x11EF JUMP JUMPDEST SWAP3 SWAP2 POP POP JUMP JUMPDEST PUSH1 0x0 PUSH1 0x20 DUP3 DUP5 SUB SLT ISZERO PUSH2 0xBF8 JUMPI PUSH2 0xBF7 PUSH2 0x11C2 JUMP JUMPDEST JUMPDEST PUSH1 0x0 PUSH2 0xC06 DUP5 DUP3 DUP6 ADD PUSH2 0xB8A JUMP JUMPDEST SWAP2 POP POP SWAP3 SWAP2 POP POP JUMP JUMPDEST PUSH1 0x0 PUSH1 0x20 DUP3 DUP5 SUB SLT ISZERO PUSH2 0xC25 JUMPI PUSH2 0xC24 PUSH2 0x11C2 JUMP JUMPDEST JUMPDEST PUSH1 0x0 DUP3 ADD CALLDATALOAD PUSH8 0xFFFFFFFFFFFFFFFF DUP2 GT ISZERO PUSH2 0xC43 JUMPI PUSH2 0xC42 PUSH2 0x11BD JUMP JUMPDEST JUMPDEST PUSH2 0xC4F DUP5 DUP3 DUP6 ADD PUSH2 0xB9F JUMP JUMPDEST SWAP2 POP POP SWAP3 SWAP2 POP POP JUMP JUMPDEST PUSH1 0x0 PUSH1 0x20 DUP3 DUP5 SUB SLT ISZERO PUSH2 0xC6E JUMPI PUSH2 0xC6D PUSH2 0x11C2 JUMP JUMPDEST JUMPDEST PUSH1 0x0 PUSH2 0xC7C DUP5 DUP3 DUP6 ADD PUSH2 0xBCD JUMP JUMPDEST SWAP2 POP POP SWAP3 SWAP2 POP POP JUMP JUMPDEST PUSH1 0x0 PUSH2 0xC91 DUP4 DUP4 PUSH2 0xDB5 JUMP JUMPDEST SWAP1 POP SWAP3 SWAP2 POP POP JUMP JUMPDEST PUSH1 0x0 PUSH2 0xCA5 DUP4 DUP4 PUSH2 0xE27 JUMP JUMPDEST SWAP1 POP SWAP3 SWAP2 POP POP JUMP JUMPDEST PUSH2 0xCB6 DUP2 PUSH2 0xFCD JUMP JUMPDEST DUP3 MSTORE POP POP JUMP JUMPDEST PUSH2 0xCC5 DUP2 PUSH2 0xFCD JUMP JUMPDEST DUP3 MSTORE POP POP JUMP JUMPDEST PUSH1 0x0 PUSH2 0xCD6 DUP3 PUSH2 0xF4E JUMP JUMPDEST PUSH2 0xCE0 DUP2 DUP6 PUSH2 0xF89 JUMP JUMPDEST SWAP4 POP DUP4 PUSH1 0x20 DUP3 MUL DUP6 ADD PUSH2 0xCF2 DUP6 PUSH2 0xF2E JUMP JUMPDEST DUP1 PUSH1 0x0 JUMPDEST DUP6 DUP2 LT ISZERO PUSH2 0xD2E JUMPI DUP5 DUP5 SUB DUP10 MSTORE DUP2 MLOAD PUSH2 0xD0F DUP6 DUP3 PUSH2 0xC85 JUMP JUMPDEST SWAP5 POP PUSH2 0xD1A DUP4 PUSH2 0xF6F JUMP JUMPDEST SWAP3 POP PUSH1 0x20 DUP11 ADD SWAP10 POP POP PUSH1 0x1 DUP2 ADD SWAP1 POP PUSH2 0xCF6 JUMP JUMPDEST POP DUP3 SWAP8 POP DUP8 SWAP6 POP POP POP POP POP POP SWAP3 SWAP2 POP POP JUMP JUMPDEST PUSH1 0x0 PUSH2 0xD4B DUP3 PUSH2 0xF59 JUMP JUMPDEST PUSH2 0xD55 DUP2 DUP6 PUSH2 0xF9A JUMP JUMPDEST SWAP4 POP DUP4 PUSH1 0x20 DUP3 MUL DUP6 ADD PUSH2 0xD67 DUP6 PUSH2 0xF3E JUMP JUMPDEST DUP1 PUSH1 0x0 JUMPDEST DUP6 DUP2 LT ISZERO PUSH2 0xDA3 JUMPI DUP5 DUP5 SUB DUP10 MSTORE DUP2 MLOAD PUSH2 0xD84 DUP6 DUP3 PUSH2 0xC99 JUMP JUMPDEST SWAP5 POP PUSH2 0xD8F DUP4 PUSH2 0xF7C JUMP JUMPDEST SWAP3 POP PUSH1 0x20 DUP11 ADD SWAP10 POP POP PUSH1 0x1 DUP2 ADD SWAP1 POP PUSH2 0xD6B JUMP JUMPDEST POP DUP3 SWAP8 POP DUP8 SWAP6 POP POP POP POP POP POP SWAP3 SWAP2 POP POP JUMP JUMPDEST PUSH1 0x0 PUSH2 0xDC0 DUP3 PUSH2 0xF64 JUMP JUMPDEST PUSH2 0xDCA DUP2 DUP6 PUSH2 0xFAB JUMP JUMPDEST SWAP4 POP PUSH2 0xDDA DUP2 DUP6 PUSH1 0x20 DUP7 ADD PUSH2 0x1018 JUMP JUMPDEST PUSH2 0xDE3 DUP2 PUSH2 0x11C7 JUMP JUMPDEST DUP5 ADD SWAP2 POP POP SWAP3 SWAP2 POP POP JUMP JUMPDEST PUSH1 0x0 PUSH2 0xDF9 DUP3 PUSH2 0xF64 JUMP JUMPDEST PUSH2 0xE03 DUP2 DUP6 PUSH2 0xFBC JUMP JUMPDEST SWAP4 POP PUSH2 0xE13 DUP2 DUP6 PUSH1 0x20 DUP7 ADD PUSH2 0x1018 JUMP JUMPDEST PUSH2 0xE1C DUP2 PUSH2 0x11C7 JUMP JUMPDEST DUP5 ADD SWAP2 POP POP SWAP3 SWAP2 POP POP JUMP JUMPDEST PUSH1 0x0 PUSH1 0x40 DUP4 ADD PUSH1 0x0 DUP4 ADD MLOAD PUSH2 0xE3F PUSH1 0x0 DUP7 ADD DUP3 PUSH2 0xCAD JUMP JUMPDEST POP PUSH1 0x20 DUP4 ADD MLOAD DUP5 DUP3 SUB PUSH1 0x20 DUP7 ADD MSTORE PUSH2 0xE57 DUP3 DUP3 PUSH2 0xDB5 JUMP JUMPDEST SWAP2 POP POP DUP1 SWAP2 POP POP SWAP3 SWAP2 POP POP JUMP JUMPDEST PUSH1 0x0 PUSH1 0x40 DUP3 ADD SWAP1 POP PUSH2 0xE79 PUSH1 0x0 DUP4 ADD DUP6 PUSH2 0xCBC JUMP JUMPDEST DUP2 DUP2 SUB PUSH1 0x20 DUP4 ADD MSTORE PUSH2 0xE8B DUP2 DUP5 PUSH2 0xDEE JUMP JUMPDEST SWAP1 POP SWAP4 SWAP3 POP POP POP JUMP JUMPDEST PUSH1 0x0 PUSH1 0x20 DUP3 ADD SWAP1 POP DUP2 DUP2 SUB PUSH1 0x0 DUP4 ADD MSTORE PUSH2 0xEAE DUP2 DUP5 PUSH2 0xCCB JUMP JUMPDEST SWAP1 POP SWAP3 SWAP2 POP POP JUMP JUMPDEST PUSH1 0x0 PUSH1 0x20 DUP3 ADD SWAP1 POP DUP2 DUP2 SUB PUSH1 0x0 DUP4 ADD MSTORE PUSH2 0xED0 DUP2 DUP5 PUSH2 0xD40 JUMP JUMPDEST SWAP1 POP SWAP3 SWAP2 POP POP JUMP JUMPDEST PUSH1 0x0 PUSH2 0xEE2 PUSH2 0xEF3 JUMP JUMPDEST SWAP1 POP PUSH2 0xEEE DUP3 DUP3 PUSH2 0x107D JUMP JUMPDEST SWAP2 SWAP1 POP JUMP JUMPDEST PUSH1 0x0 PUSH1 0x40 MLOAD SWAP1 POP SWAP1 JUMP JUMPDEST PUSH1 0x0 PUSH8 0xFFFFFFFFFFFFFFFF DUP3 GT ISZERO PUSH2 0xF18 JUMPI PUSH2 0xF17 PUSH2 0x1184 JUMP JUMPDEST JUMPDEST PUSH2 0xF21 DUP3 PUSH2 0x11C7 JUMP JUMPDEST SWAP1 POP PUSH1 0x20 DUP2 ADD SWAP1 POP SWAP2 SWAP1 POP JUMP JUMPDEST PUSH1 0x0 DUP2 SWAP1 POP PUSH1 0x20 DUP3 ADD SWAP1 POP SWAP2 SWAP1 POP JUMP JUMPDEST PUSH1 0x0 DUP2 SWAP1 POP PUSH1 0x20 DUP3 ADD SWAP1 POP SWAP2 SWAP1 POP JUMP JUMPDEST PUSH1 0x0 DUP2 MLOAD SWAP1 POP SWAP2 SWAP1 POP JUMP JUMPDEST PUSH1 0x0 DUP2 MLOAD SWAP1 POP SWAP2 SWAP1 POP JUMP JUMPDEST PUSH1 0x0 DUP2 MLOAD SWAP1 POP SWAP2 SWAP1 POP JUMP JUMPDEST PUSH1 0x0 PUSH1 0x20 DUP3 ADD SWAP1 POP SWAP2 SWAP1 POP JUMP JUMPDEST PUSH1 0x0 PUSH1 0x20 DUP3 ADD SWAP1 POP SWAP2 SWAP1 POP JUMP JUMPDEST PUSH1 0x0 DUP3 DUP3 MSTORE PUSH1 0x20 DUP3 ADD SWAP1 POP SWAP3 SWAP2 POP POP JUMP JUMPDEST PUSH1 0x0 DUP3 DUP3 MSTORE PUSH1 0x20 DUP3 ADD SWAP1 POP SWAP3 SWAP2 POP POP JUMP JUMPDEST PUSH1 0x0 DUP3 DUP3 MSTORE PUSH1 0x20 DUP3 ADD SWAP1 POP SWAP3 SWAP2 POP POP JUMP JUMPDEST PUSH1 0x0 DUP3 DUP3 MSTORE PUSH1 0x20 DUP3 ADD SWAP1 POP SWAP3 SWAP2 POP POP JUMP JUMPDEST PUSH1 0x0 PUSH2 0xFD8 DUP3 PUSH2 0xFDF JUMP JUMPDEST SWAP1 POP SWAP2 SWAP1 POP JUMP JUMPDEST PUSH1 0x0 PUSH20 0xFFFFFFFFFFFFFFFFFFFFFFFFFFFFFFFFFFFFFFFF DUP3 AND SWAP1 POP SWAP2 SWAP1 POP JUMP JUMPDEST PUSH1 0x0 DUP2 SWAP1 POP SWAP2 SWAP1 POP JUMP JUMPDEST DUP3 DUP2 DUP4 CALLDATACOPY PUSH1 0x0 DUP4 DUP4 ADD MSTORE POP POP POP JUMP JUMPDEST PUSH1 0x0 JUMPDEST DUP4 DUP2 LT ISZERO PUSH2 0x1036 JUMPI DUP1 DUP3 ADD MLOAD DUP2 DUP5 ADD MSTORE PUSH1 0x20 DUP2 ADD SWAP1 POP PUSH2 0x101B JUMP JUMPDEST DUP4 DUP2 GT ISZERO PUSH2 0x1045 JUMPI PUSH1 0x0 DUP5 DUP5 ADD MSTORE JUMPDEST POP POP POP POP JUMP JUMPDEST PUSH1 0x0 PUSH1 0x2 DUP3 DIV SWAP1 POP PUSH1 0x1 DUP3 AND DUP1 PUSH2 0x1063 JUMPI PUSH1 0x7F DUP3 AND SWAP2 POP JUMPDEST PUSH1 0x20 DUP3 LT DUP2 EQ ISZERO PUSH2 0x1077 JUMPI PUSH2 0x1076 PUSH2 0x1126 JUMP JUMPDEST JUMPDEST POP SWAP2 SWAP1 POP JUMP JUMPDEST PUSH2 0x1086 DUP3 PUSH2 0x11C7 JUMP JUMPDEST DUP2 ADD DUP2 DUP2 LT PUSH8 0xFFFFFFFFFFFFFFFF DUP3 GT OR ISZERO PUSH2 0x10A5 JUMPI PUSH2 0x10A4 PUSH2 0x1184 JUMP JUMPDEST JUMPDEST DUP1 PUSH1 0x40 MSTORE POP POP POP JUMP JUMPDEST PUSH1 0x0 PUSH2 0x10B9 DUP3 PUSH2 0xFFF JUMP JUMPDEST SWAP2 POP PUSH32 0xFFFFFFFFFFFFFFFFFFFFFFFFFFFFFFFFFFFFFFFFFFFFFFFFFFFFFFFFFFFFFFFF DUP3 EQ ISZERO PUSH2 0x10EC JUMPI PUSH2 0x10EB PUSH2 0x10F7 JUMP JUMPDEST JUMPDEST PUSH1 0x1 DUP3 ADD SWAP1 POP SWAP2 SWAP1 POP JUMP JUMPDEST PUSH32 0x4E487B7100000000000000000000000000000000000000000000000000000000 PUSH1 0x0 MSTORE PUSH1 0x11 PUSH1 0x4 MSTORE PUSH1 0x24 PUSH1 0x0 REVERT JUMPDEST PUSH32 0x4E487B7100000000000000000000000000000000000000000000000000000000 PUSH1 0x0 MSTORE PUSH1 0x22 PUSH1 0x4 MSTORE PUSH1 0x24 PUSH1 0x0 REVERT JUMPDEST PUSH32 0x4E487B7100000000000000000000000000000000000000000000000000000000 PUSH1 0x0 MSTORE PUSH1 0x32 PUSH1 0x4 MSTORE PUSH1 0x24 PUSH1 0x0 REVERT JUMPDEST PUSH32 0x4E487B7100000000000000000000000000000000000000000000000000000000 PUSH1 0x0 MSTORE PUSH1 0x41 PUSH1 0x4 MSTORE PUSH1 0x24 PUSH1 0x0 REVERT JUMPDEST PUSH1 0x0 DUP1 REVERT JUMPDEST PUSH1 0x0 DUP1 REVERT JUMPDEST PUSH1 0x0 DUP1 REVERT JUMPDEST PUSH1 0x0 DUP1 REVERT JUMPDEST PUSH1 0x0 PUSH1 0x1F NOT PUSH1 0x1F DUP4 ADD AND SWAP1 POP SWAP2 SWAP1 POP JUMP JUMPDEST PUSH2 0x11E1 DUP2 PUSH2 0xFCD JUMP JUMPDEST DUP2 EQ PUSH2 0x11EC JUMPI PUSH1 0x0 DUP1 REVERT JUMPDEST POP JUMP JUMPDEST PUSH2 0x11F8 DUP2 PUSH2 0xFFF JUMP JUMPDEST DUP2 EQ PUSH2 0x1203 JUMPI PUSH1 0x0 DUP1 REVERT JUMPDEST POP JUMP INVALID LOG2 PUSH5 0x6970667358 0x22 SLT KECCAK256 0x25 0xCF 0xF6 0x5D 0x24 0x24 EQ DUP5 LOG1 0xD1 PUSH17 0x170C763B4A2400B6B85ADFF1091F0F8FA3 PUSH25 0x9157A364736F6C634300080700330000000000000000000000 "
				},
				"gasEstimates": {
					"creation": {
						"codeDepositCost": "933600",
						"executionCost": "968",
						"totalCost": "934568"
					},
					"external": {
						"address_book(uint256)": "infinite",
						"get_all()": "infinite",
						"get_mine()": "infinite",
						"get_mine(address)": "infinite",
						"push(string)": "infinite",
						"suppress()": "infinite"
					}
				},
				"methodIdentifiers": {
					"address_book(uint256)": "b1429303",
					"get_all()": "880a3c86",
					"get_mine()": "d7f40d7b",
					"get_mine(address)": "5ca08377",
					"push(string)": "4f3d057a",
					"suppress()": "18f97575"
				}
			},
			"storageLayout": {
				"storage": [
					{
						"astId": 11,
						"contract": "contracts/1_Storage.sol:Storage",
						"label": "address_book",
						"offset": 0,
						"slot": "0",
						"type": "t_array(t_struct(Address_book)7_storage)dyn_storage"
					}
				],
				"types": {
					"t_address": {
						"encoding": "inplace",
						"label": "address",
						"numberOfBytes": "20"
					},
					"t_array(t_struct(Address_book)7_storage)dyn_storage": {
						"base": "t_struct(Address_book)7_storage",
						"encoding": "dynamic_array",
						"label": "struct Storage.Address_book[]",
						"numberOfBytes": "32"
					},
					"t_string_storage": {
						"encoding": "bytes",
						"label": "string",
						"numberOfBytes": "32"
					},
					"t_struct(Address_book)7_storage": {
						"encoding": "inplace",
						"label": "struct Storage.Address_book",
						"members": [
							{
								"astId": 4,
								"contract": "contracts/1_Storage.sol:Storage",
								"label": "addr",
								"offset": 0,
								"slot": "0",
								"type": "t_address"
							},
							{
								"astId": 6,
								"contract": "contracts/1_Storage.sol:Storage",
								"label": "data",
								"offset": 0,
								"slot": "1",
								"type": "t_string_storage"
							}
						],
						"numberOfBytes": "64"
					}
				}
			},
			"userdoc": {
				"kind": "user",
				"methods": {},
				"version": 1
			}
		}
	}
}